{
  "contractName": "Patient",
  "abi": [
    {
      "anonymous": false,
      "inputs": [
        {
          "indexed": false,
          "internalType": "string",
          "name": "name",
          "type": "string"
        },
        {
          "indexed": false,
          "internalType": "uint256",
          "name": "empIdIndex",
          "type": "uint256"
        }
      ],
      "name": "LogDeleteEmp",
      "type": "event"
    },
    {
      "anonymous": false,
      "inputs": [
        {
          "indexed": false,
          "internalType": "string",
          "name": "name",
          "type": "string"
        },
        {
          "indexed": false,
          "internalType": "address",
          "name": "hospitalAddress",
          "type": "address"
        },
        {
          "indexed": false,
          "internalType": "address",
          "name": "owner",
          "type": "address"
        }
      ],
      "name": "LogPatient",
      "type": "event"
    },
    {
      "anonymous": false,
      "inputs": [
        {
          "indexed": false,
          "internalType": "string",
          "name": "name",
          "type": "string"
        },
        {
          "indexed": false,
          "internalType": "string",
          "name": "dateOfBirth",
          "type": "string"
        }
      ],
      "name": "LogUpdatePatientDOB",
      "type": "event"
    },
    {
      "anonymous": false,
      "inputs": [
        {
          "indexed": true,
          "internalType": "bytes32",
          "name": "role",
          "type": "bytes32"
        },
        {
          "indexed": true,
          "internalType": "bytes32",
          "name": "previousAdminRole",
          "type": "bytes32"
        },
        {
          "indexed": true,
          "internalType": "bytes32",
          "name": "newAdminRole",
          "type": "bytes32"
        }
      ],
      "name": "RoleAdminChanged",
      "type": "event"
    },
    {
      "anonymous": false,
      "inputs": [
        {
          "indexed": true,
          "internalType": "bytes32",
          "name": "role",
          "type": "bytes32"
        },
        {
          "indexed": true,
          "internalType": "address",
          "name": "account",
          "type": "address"
        },
        {
          "indexed": true,
          "internalType": "address",
          "name": "sender",
          "type": "address"
        }
      ],
      "name": "RoleGranted",
      "type": "event"
    },
    {
      "anonymous": false,
      "inputs": [
        {
          "indexed": true,
          "internalType": "bytes32",
          "name": "role",
          "type": "bytes32"
        },
        {
          "indexed": true,
          "internalType": "address",
          "name": "account",
          "type": "address"
        },
        {
          "indexed": true,
          "internalType": "address",
          "name": "sender",
          "type": "address"
        }
      ],
      "name": "RoleRevoked",
      "type": "event"
    },
    {
      "inputs": [],
      "name": "DEFAULT_ADMIN_ROLE",
      "outputs": [
        {
          "internalType": "bytes32",
          "name": "",
          "type": "bytes32"
        }
      ],
      "stateMutability": "view",
      "type": "function",
      "constant": true
    },
    {
      "inputs": [
        {
          "internalType": "bytes32",
          "name": "role",
          "type": "bytes32"
        }
      ],
      "name": "getRoleAdmin",
      "outputs": [
        {
          "internalType": "bytes32",
          "name": "",
          "type": "bytes32"
        }
      ],
      "stateMutability": "view",
      "type": "function",
      "constant": true
    },
    {
      "inputs": [
        {
          "internalType": "bytes32",
          "name": "role",
          "type": "bytes32"
        },
        {
          "internalType": "address",
          "name": "account",
          "type": "address"
        }
      ],
      "name": "grantRole",
      "outputs": [],
      "stateMutability": "nonpayable",
      "type": "function"
    },
    {
      "inputs": [
        {
          "internalType": "bytes32",
          "name": "role",
          "type": "bytes32"
        },
        {
          "internalType": "address",
          "name": "account",
          "type": "address"
        }
      ],
      "name": "hasRole",
      "outputs": [
        {
          "internalType": "bool",
          "name": "",
          "type": "bool"
        }
      ],
      "stateMutability": "view",
      "type": "function",
      "constant": true
    },
    {
      "inputs": [
        {
          "internalType": "bytes32",
          "name": "role",
          "type": "bytes32"
        },
        {
          "internalType": "address",
          "name": "account",
          "type": "address"
        }
      ],
      "name": "renounceRole",
      "outputs": [],
      "stateMutability": "nonpayable",
      "type": "function"
    },
    {
      "inputs": [
        {
          "internalType": "bytes32",
          "name": "role",
          "type": "bytes32"
        },
        {
          "internalType": "address",
          "name": "account",
          "type": "address"
        }
      ],
      "name": "revokeRole",
      "outputs": [],
      "stateMutability": "nonpayable",
      "type": "function"
    },
    {
      "inputs": [
        {
          "internalType": "bytes4",
          "name": "interfaceId",
          "type": "bytes4"
        }
      ],
      "name": "supportsInterface",
      "outputs": [
        {
          "internalType": "bool",
          "name": "",
          "type": "bool"
        }
      ],
      "stateMutability": "view",
      "type": "function",
      "constant": true
    },
    {
      "inputs": [
        {
          "internalType": "string",
          "name": "_name",
          "type": "string"
        },
        {
          "internalType": "string",
          "name": "_personalDetails",
          "type": "string"
        },
        {
          "internalType": "address",
          "name": "_hospitalAddress",
          "type": "address"
        },
        {
          "internalType": "address",
          "name": "_walletAddress",
          "type": "address"
        },
        {
          "internalType": "string",
          "name": "_signatureHash",
          "type": "string"
        }
      ],
      "name": "registerPatient",
      "outputs": [
        {
          "internalType": "string",
          "name": "status",
          "type": "string"
        }
      ],
      "stateMutability": "nonpayable",
      "type": "function"
    },
    {
      "inputs": [],
      "name": "getSignatureHash",
      "outputs": [
        {
          "internalType": "string",
          "name": "",
          "type": "string"
        }
      ],
      "stateMutability": "view",
      "type": "function",
      "constant": true
    },
    {
      "inputs": [],
      "name": "getUserAddress",
      "outputs": [
        {
          "internalType": "address",
          "name": "",
          "type": "address"
        }
      ],
      "stateMutability": "view",
      "type": "function",
      "constant": true
    },
    {
      "inputs": [
        {
          "internalType": "address",
          "name": "_walletAddress",
          "type": "address"
        }
      ],
      "name": "getPatientData",
      "outputs": [
        {
          "internalType": "string",
          "name": "name",
          "type": "string"
        },
        {
          "internalType": "string",
          "name": "personalDetails",
          "type": "string"
        },
        {
          "internalType": "address",
          "name": "walletAddress",
          "type": "address"
        }
      ],
      "stateMutability": "view",
      "type": "function",
      "constant": true
    },
    {
      "inputs": [
        {
          "internalType": "address",
          "name": "_walletAddress",
          "type": "address"
        },
        {
          "internalType": "string",
          "name": "_personalDetails",
          "type": "string"
        }
      ],
      "name": "updatePatientPersonalData",
      "outputs": [
        {
          "internalType": "bool",
          "name": "success",
          "type": "bool"
        }
      ],
      "stateMutability": "nonpayable",
      "type": "function"
    },
    {
      "inputs": [
        {
          "internalType": "address",
          "name": "_walletAddress",
          "type": "address"
        },
        {
          "internalType": "string",
          "name": "medicalRecordHash",
          "type": "string"
        }
      ],
      "name": "updatePatientMedicalRecords",
      "outputs": [
        {
          "internalType": "string",
          "name": "status",
          "type": "string"
        }
      ],
      "stateMutability": "nonpayable",
      "type": "function"
    },
    {
      "inputs": [
        {
          "internalType": "address",
          "name": "_walletAddress",
          "type": "address"
        },
        {
          "internalType": "string",
          "name": "prescriptionHash",
          "type": "string"
        }
      ],
      "name": "updatePatientPrescription",
      "outputs": [
        {
          "internalType": "string",
          "name": "status",
          "type": "string"
        }
      ],
      "stateMutability": "nonpayable",
      "type": "function"
    },
    {
      "inputs": [
        {
          "internalType": "address",
          "name": "_patientAddress",
          "type": "address"
        }
      ],
      "name": "getNewPrescription",
      "outputs": [
        {
          "internalType": "string",
          "name": "status",
          "type": "string"
        }
      ],
      "stateMutability": "view",
      "type": "function",
      "constant": true
    },
    {
      "inputs": [
        {
          "internalType": "address",
          "name": "_patientAddress",
          "type": "address"
        }
      ],
      "name": "getMultiplePrescription",
      "outputs": [
        {
          "internalType": "string[]",
          "name": "status",
          "type": "string[]"
        }
      ],
      "stateMutability": "view",
      "type": "function",
      "constant": true
    },
    {
      "inputs": [
        {
          "internalType": "address",
          "name": "_patientAddress",
          "type": "address"
        }
      ],
      "name": "getNewRecords",
      "outputs": [
        {
          "internalType": "string",
          "name": "status",
          "type": "string"
        }
      ],
      "stateMutability": "view",
      "type": "function",
      "constant": true
    },
    {
      "inputs": [
        {
          "internalType": "address",
          "name": "_patientAddress",
          "type": "address"
        }
      ],
      "name": "getMultipleRecords",
      "outputs": [
        {
          "internalType": "string[]",
          "name": "status",
          "type": "string[]"
        }
      ],
      "stateMutability": "view",
      "type": "function",
      "constant": true
    }
  ],
  "bytecode": "0x608060405234801561001057600080fd5b506117e4806100206000396000f3fe608060405234801561001057600080fd5b50600436106100e65760003560e01c806301ffc9a7146100eb578063224ccd0f14610114578063248a9ca3146101345780632f2ff15d1461015457806336568abe146101695780633f9c10901461017c57806348e818521461018f5780637799c049146101b157806377aee292146101d157806391d14854146101e457806394352810146101f7578063a217fddf1461020a578063ac29186714610212578063c127ae4114610225578063d547741f1461022d578063ebc3eee814610240578063fcd4014b14610255578063fffaff4214610268575b600080fd5b6100fe6100f93660046112c8565b61027b565b60405161010b919061158d565b60405180910390f35b610127610122366004611220565b6102a8565b60405161010b919061152d565b610147610142366004611285565b61039a565b60405161010b9190611598565b61016761016236600461129d565b6103af565b005b61016761017736600461129d565b6103d8565b6100fe61018a36600461123a565b610427565b6101a261019d366004611220565b6104b6565b60405161010b939291906115b4565b6101c46101bf366004611220565b610604565b60405161010b91906115a1565b6101276101df366004611220565b6106b3565b6100fe6101f236600461129d565b61079a565b6101c46102053660046112f0565b6107c3565b6101476108d4565b6101c4610220366004611220565b6108d9565b6101c4610903565b61016761023b36600461129d565b6109e1565b610248610a00565b60405161010b9190611519565b6101c461026336600461123a565b610a1f565b6101c461027636600461123a565b610ba0565b60006001600160e01b03198216637965db0b60e01b14806102a057506102a082610d2a565b90505b919050565b6001600160a01b0381166000908152600160209081526040808320600701805482518185028101850190935280835260609492939192909184015b8282101561038f57838290600052602060002001805461030290611747565b80601f016020809104026020016040519081016040528092919081815260200182805461032e90611747565b801561037b5780601f106103505761010080835404028352916020019161037b565b820191906000526020600020905b81548152906001019060200180831161035e57829003601f168201915b5050505050815260200190600101906102e3565b505050509050919050565b60009081526020819052604090206001015490565b6103b88261039a565b6103c9816103c4610d43565b610d47565b6103d38383610dab565b505050565b6103e0610d43565b6001600160a01b0316816001600160a01b0316146104195760405162461bcd60e51b81526004016104109061167a565b60405180910390fd5b6104238282610e30565b5050565b6001600160a01b038216600090815260016020818152604083208451610454939190910191850190611075565b506001600160a01b03831660009081526001602081905260409182902091517fd33820a66beaac50a6887a1966130399805ea7389f1d2a4c439230cbf7725394926104a4929091908201906115f2565b60405180910390a15060015b92915050565b6001600160a01b038116600090815260016020819052604082208054606093849390929190820190869083906104eb90611747565b80601f016020809104026020016040519081016040528092919081815260200182805461051790611747565b80156105645780601f1061053957610100808354040283529160200191610564565b820191906000526020600020905b81548152906001019060200180831161054757829003601f168201915b5050505050925081805461057790611747565b80601f01602080910402602001604051908101604052809291908181526020018280546105a390611747565b80156105f05780601f106105c5576101008083540402835291602001916105f0565b820191906000526020600020905b8154815290600101906020018083116105d357829003601f168201915b505050505091509250925092509193909250565b6001600160a01b038116600090815260016020526040902060060180546060919061062e90611747565b80601f016020809104026020016040519081016040528092919081815260200182805461065a90611747565b80156106a75780601f1061067c576101008083540402835291602001916106a7565b820191906000526020600020905b81548152906001019060200180831161068a57829003601f168201915b50505050509050919050565b6001600160a01b0381166000908152600160209081526040808320600501805482518185028101850190935280835260609492939192909184015b8282101561038f57838290600052602060002001805461070d90611747565b80601f016020809104026020016040519081016040528092919081815260200182805461073990611747565b80156107865780601f1061075b57610100808354040283529160200191610786565b820191906000526020600020905b81548152906001019060200180831161076957829003601f168201915b5050505050815260200190600101906106ee565b6000918252602082815260408084206001600160a01b0393909316845291905290205460ff1690565b60606107ef7fe5786ee6f50ab1a5567cb3f3f6840a2f4ddbafdf4a35cb2c52d5b732b1e84a3284610eb3565b6001600160a01b0383166000908152600160209081526040909120875161081892890190611075565b506001600160a01b0383166000908152600160208181526040909220875161084893919092019190880190611075565b506001600160a01b0380841660008181526001602090815260409091206003810180549489166001600160a01b031995861617905560048101805490941690921790925583516108a092600290920191850190611075565b50506040805180820190915260128152711410551251539508149151d254d51154915160721b602082015295945050505050565b600081565b6001600160a01b038116600090815260016020526040902060080180546060919061062e90611747565b336000818152600160205260409020600401546060916001600160a01b03909116146109415760405162461bcd60e51b815260040161041090611655565b336000908152600160205260409020600201805461095e90611747565b80601f016020809104026020016040519081016040528092919081815260200182805461098a90611747565b80156109d75780601f106109ac576101008083540402835291602001916109d7565b820191906000526020600020905b8154815290600101906020018083116109ba57829003601f168201915b5050505050905090565b6109ea8261039a565b6109f6816103c4610d43565b6103d38383610e30565b336000908152600160205260409020600401546001600160a01b031690565b6060604051602001610a30906114a7565b60408051601f1981840301815282825280516020918201206001600160a01b038716600090815260018352929092209192610a6f926006019101611438565b604051602081830303815290604052805190602001201415610af0576001600160a01b03831660009081526001602090815260409091208351610aba92600690920191850190611075565b5050604080518082019091526018815277454e5445524544204f4e4345205245434f5244204f4e4c5960401b60208201526104b0565b6001600160a01b03831660009081526001602081815260408320600581018054938401815584529220600690920180549290910191610b2e90611747565b610b399291906110f9565b506001600160a01b03831660009081526001602090815260409091208351610b6992600690920191850190611075565b5050604080518082019091526019815278454e5445524544205457494345205245434f5244204f4e4c5960381b60208201526104b0565b6060604051602001610bb1906114a7565b60408051601f1981840301815282825280516020918201206001600160a01b038716600090815260018352929092209192610bf0926008019101611438565b604051602081830303815290604052805190602001201415610c76576001600160a01b03831660009081526001602090815260409091208351610c3b92600890920191850190611075565b505060408051808201909152601e81527f454e5445524544204f4e434520505245534352495054494f4e204f4e4c59000060208201526104b0565b6001600160a01b03831660009081526001602081815260408320600781018054938401815584529220600890920180549290910191610cb490611747565b610cbf9291906110f9565b506001600160a01b03831660009081526001602090815260409091208351610cef92600890920191850190611075565b505060408051808201909152601f81527f454e544552454420545749434520505245534352495054494f4e204f4e4c590060208201526104b0565b6001600160e01b031981166301ffc9a760e01b14919050565b3390565b610d51828261079a565b61042357610d69816001600160a01b03166014610ebd565b610d74836020610ebd565b604051602001610d859291906114aa565b60408051601f198184030181529082905262461bcd60e51b8252610410916004016115a1565b610db5828261079a565b610423576000828152602081815260408083206001600160a01b03851684529091529020805460ff19166001179055610dec610d43565b6001600160a01b0316816001600160a01b0316837f2f8788117e7eff1d82e926ec794901d17c78024a50270940304540a733656f0d60405160405180910390a45050565b610e3a828261079a565b15610423576000828152602081815260408083206001600160a01b03851684529091529020805460ff19169055610e6f610d43565b6001600160a01b0316816001600160a01b0316837ff6391f5c32d9c69d2a47ea670b442974b53935d1edc7fd64eb21e047a839171b60405160405180910390a45050565b6104238282610dab565b60606000610ecc8360026116e1565b610ed79060026116c9565b6001600160401b03811115610efc57634e487b7160e01b600052604160045260246000fd5b6040519080825280601f01601f191660200182016040528015610f26576020820181803683370190505b509050600360fc1b81600081518110610f4f57634e487b7160e01b600052603260045260246000fd5b60200101906001600160f81b031916908160001a905350600f60fb1b81600181518110610f8c57634e487b7160e01b600052603260045260246000fd5b60200101906001600160f81b031916908160001a9053506000610fb08460026116e1565b610fbb9060016116c9565b90505b600181111561104f576f181899199a1a9b1b9c1cb0b131b232b360811b85600f1660108110610ffd57634e487b7160e01b600052603260045260246000fd5b1a60f81b82828151811061102157634e487b7160e01b600052603260045260246000fd5b60200101906001600160f81b031916908160001a90535060049490941c9361104881611730565b9050610fbe565b50831561106e5760405162461bcd60e51b815260040161041090611620565b9392505050565b82805461108190611747565b90600052602060002090601f0160209004810192826110a357600085556110e9565b82601f106110bc57805160ff19168380011785556110e9565b828001600101855582156110e9579182015b828111156110e95782518255916020019190600101906110ce565b506110f5929150611174565b5090565b82805461110590611747565b90600052602060002090601f01602090048101928261112757600085556110e9565b82601f1061113857805485556110e9565b828001600101855582156110e957600052602060002091601f016020900482015b828111156110e9578254825591600101919060010190611159565b5b808211156110f55760008155600101611175565b80356001600160a01b03811681146102a357600080fd5b600082601f8301126111b0578081fd5b81356001600160401b03808211156111ca576111ca611798565b604051601f8301601f1916810160200182811182821017156111ee576111ee611798565b604052828152848301602001861015611205578384fd5b82602086016020830137918201602001929092529392505050565b600060208284031215611231578081fd5b61106e82611189565b6000806040838503121561124c578081fd5b61125583611189565b915060208301356001600160401b0381111561126f578182fd5b61127b858286016111a0565b9150509250929050565b600060208284031215611296578081fd5b5035919050565b600080604083850312156112af578182fd5b823591506112bf60208401611189565b90509250929050565b6000602082840312156112d9578081fd5b81356001600160e01b03198116811461106e578182fd5b600080600080600060a08688031215611307578081fd5b85356001600160401b038082111561131d578283fd5b61132989838a016111a0565b9650602088013591508082111561133e578283fd5b61134a89838a016111a0565b955061135860408901611189565b945061136660608901611189565b9350608088013591508082111561137b578283fd5b50611388888289016111a0565b9150509295509295909350565b600081518084526113ad816020860160208601611700565b601f01601f19169290920160200192915050565b600081546113ce81611747565b8085526020600183811680156113eb57600181146113ff5761142d565b60ff1985168884015260408801955061142d565b866000528260002060005b858110156114255781548a820186015290830190840161140a565b890184019650505b505050505092915050565b600080835461144681611747565b6001828116801561145e576001811461146f5761149b565b60ff1984168752828701945061149b565b8786526020808720875b858110156114925781548a820152908401908201611479565b50505082870194505b50929695505050505050565b90565b600076020b1b1b2b9b9a1b7b73a3937b61d1030b1b1b7bab73a1604d1b825283516114dc816017850160208801611700565b7001034b99036b4b9b9b4b733903937b6329607d1b601791840191820152835161150d816028840160208801611700565b01602801949350505050565b6001600160a01b0391909116815260200190565b6000602080830181845280855180835260408601915060408482028701019250838701855b8281101561158057603f1988860301845261156e858351611395565b94509285019290850190600101611552565b5092979650505050505050565b901515815260200190565b90815260200190565b60006020825261106e6020830184611395565b6000606082526115c76060830186611395565b82810360208401526115d98186611395565b91505060018060a01b0383166040830152949350505050565b60006040825261160560408301856113c1565b828103602084015261161781856113c1565b95945050505050565b6020808252818101527f537472696e67733a20686578206c656e67746820696e73756666696369656e74604082015260600190565b6020808252600b908201526a139bdd08185b1b1bddd95960aa1b604082015260600190565b6020808252602f908201527f416363657373436f6e74726f6c3a2063616e206f6e6c792072656e6f756e636560408201526e103937b632b9903337b91039b2b63360891b606082015260800190565b600082198211156116dc576116dc611782565b500190565b60008160001904831182151516156116fb576116fb611782565b500290565b60005b8381101561171b578181015183820152602001611703565b8381111561172a576000848401525b50505050565b60008161173f5761173f611782565b506000190190565b60028104600182168061175b57607f821691505b6020821081141561177c57634e487b7160e01b600052602260045260246000fd5b50919050565b634e487b7160e01b600052601160045260246000fd5b634e487b7160e01b600052604160045260246000fdfea26469706673582212205f7e44234471ebb19fa538458ac4c66c6f27d3774a14d7c611eee490ac4649d364736f6c63430008000033",
  "immutableReferences": {},
  "source": "pragma solidity ^0.8.0;\n\n//SPDX-License-Identifier: MIT\n\nimport \"./access/AccessControlEnumerable.sol\";\nimport \"./Roles.sol\";\n\ncontract Patient is AccessControl {\n    struct patientRecord {\n        string name;\n        string personalDetails;\n        string signatureHash;\n        address hospitalAddress;\n        address walletAddress;\n        string[] previousPatientRecordHashes;\n        string newMedicalRecordHash;\n        string[] previousPatientPrescriptionHashes;\n        string newPatientPrescriptionHashes;\n    }\n\n    event LogPatient(string name, address hospitalAddress, address owner);\n    event LogUpdatePatientDOB(string name, string dateOfBirth);\n    event LogDeleteEmp(string name, uint256 empIdIndex);\n\n    //: PATIENT DATABASE\n    mapping(address => patientRecord) patientDatabase;\n\n    function registerPatient(\n        string memory _name,\n        string memory _personalDetails,\n        address _hospitalAddress,\n        address _walletAddress,\n        string memory _signatureHash\n    ) external returns (string memory status) {\n        _setupRole(PATIENT, _walletAddress);\n        patientDatabase[_walletAddress].name = _name;\n        patientDatabase[_walletAddress].personalDetails = _personalDetails;\n        patientDatabase[_walletAddress].hospitalAddress = _hospitalAddress;\n        patientDatabase[_walletAddress].walletAddress = _walletAddress;\n        patientDatabase[_walletAddress].signatureHash = _signatureHash;\n\n        // emit LogPatient(\n        //     patientDatabase[_walletAddress].name,\n        //     patientDatabase[_walletAddress].hospitalAddress,\n        //     _walletAddress\n        // );\n\n        return \"PATIENT REGISTERED\";\n    }\n\n    function getSignatureHash() public view returns (string memory) {\n        require(\n            msg.sender == patientDatabase[msg.sender].walletAddress,\n            \"Not allowed\"\n        );\n\n        return patientDatabase[msg.sender].signatureHash;\n    }\n\n    function getUserAddress() public view returns (address) {\n        return patientDatabase[msg.sender].walletAddress;\n    }\n\n    function getPatientData(address _walletAddress)\n        external\n        view\n        returns (\n            string memory name,\n            string memory personalDetails,\n            address walletAddress\n        )\n    {\n        return (\n            patientDatabase[_walletAddress].name,\n            patientDatabase[_walletAddress].personalDetails,\n            _walletAddress\n        );\n    }\n\n    function updatePatientPersonalData(\n        address _walletAddress,\n        string memory _personalDetails\n    ) public returns (bool success) {\n        patientDatabase[_walletAddress].personalDetails = _personalDetails;\n\n        emit LogUpdatePatientDOB(\n            patientDatabase[_walletAddress].name,\n            patientDatabase[_walletAddress].personalDetails\n        );\n\n        return true;\n    }\n\n    function updatePatientMedicalRecords(\n        address _walletAddress,\n        string memory medicalRecordHash\n    ) external returns (string memory status) {\n        if (\n            keccak256(\n                abi.encodePacked(\n                    patientDatabase[_walletAddress].newMedicalRecordHash\n                )\n            ) == keccak256(abi.encodePacked(\"\"))\n        ) {\n            patientDatabase[_walletAddress]\n                .newMedicalRecordHash = medicalRecordHash;\n            return \"ENTERED ONCE RECORD ONLY\";\n        } else {\n            patientDatabase[_walletAddress].previousPatientRecordHashes.push(\n                patientDatabase[_walletAddress].newMedicalRecordHash\n            );\n            patientDatabase[_walletAddress]\n                .newMedicalRecordHash = medicalRecordHash;\n            return \"ENTERED TWICE RECORD ONLY\";\n        }\n    }\n\n    function updatePatientPrescription(\n        address _walletAddress,\n        string memory prescriptionHash\n    ) external returns (string memory status) {\n        if (\n            keccak256(\n                abi.encodePacked(\n                    patientDatabase[_walletAddress].newPatientPrescriptionHashes\n                )\n            ) == keccak256(abi.encodePacked(\"\"))\n        ) {\n            patientDatabase[_walletAddress]\n                .newPatientPrescriptionHashes = prescriptionHash;\n            return \"ENTERED ONCE PRESCRIPTION ONLY\";\n        } else {\n            patientDatabase[_walletAddress]\n                .previousPatientPrescriptionHashes\n                .push(\n                    patientDatabase[_walletAddress].newPatientPrescriptionHashes\n                );\n            patientDatabase[_walletAddress]\n                .newPatientPrescriptionHashes = prescriptionHash;\n            return \"ENTERED TWICE PRESCRIPTION ONLY\";\n        }\n    }\n\n    function getNewPrescription(address _patientAddress)\n        external\n        view\n        returns (string memory status)\n    {\n        return patientDatabase[_patientAddress].newPatientPrescriptionHashes;\n    }\n\n    function getMultiplePrescription(address _patientAddress)\n        external\n        view\n        returns (string[] memory status)\n    {\n        return\n            patientDatabase[_patientAddress].previousPatientPrescriptionHashes;\n    }\n\n    function getNewRecords(address _patientAddress)\n        external\n        view\n        returns (string memory status)\n    {\n        return patientDatabase[_patientAddress].newMedicalRecordHash;\n    }\n\n    function getMultipleRecords(address _patientAddress)\n        external\n        view\n        returns (string[] memory status)\n    {\n        return patientDatabase[_patientAddress].previousPatientRecordHashes;\n    }\n}\n",
  "sourcePath": "/Users/reuben/Documents/Github/blockchain-in-healthcare-backend/contracts/Patient.sol",
  "compiler": {
    "name": "solc",
    "version": "0.8.0+commit.c7dfd78e.Emscripten.clang"
  },
  "schemaVersion": "3.4.3",
  "updatedAt": "2021-11-27T03:09:14.762Z",
  "networkType": "ethereum",
  "devdoc": {
    "kind": "dev",
    "methods": {
      "getRoleAdmin(bytes32)": {
        "details": "Returns the admin role that controls `role`. See {grantRole} and {revokeRole}. To change a role's admin, use {_setRoleAdmin}."
      },
      "grantRole(bytes32,address)": {
        "details": "Grants `role` to `account`. If `account` had not been already granted `role`, emits a {RoleGranted} event. Requirements: - the caller must have ``role``'s admin role."
      },
      "hasRole(bytes32,address)": {
        "details": "Returns `true` if `account` has been granted `role`."
      },
      "renounceRole(bytes32,address)": {
        "details": "Revokes `role` from the calling account. Roles are often managed via {grantRole} and {revokeRole}: this function's purpose is to provide a mechanism for accounts to lose their privileges if they are compromised (such as when a trusted device is misplaced). If the calling account had been granted `role`, emits a {RoleRevoked} event. Requirements: - the caller must be `account`."
      },
      "revokeRole(bytes32,address)": {
        "details": "Revokes `role` from `account`. If `account` had been granted `role`, emits a {RoleRevoked} event. Requirements: - the caller must have ``role``'s admin role."
      },
      "supportsInterface(bytes4)": {
        "details": "See {IERC165-supportsInterface}."
      }
    },
    "version": 1
  },
  "userdoc": {
    "kind": "user",
    "methods": {},
    "version": 1
  }
}