{
  "contractName": "Doctor",
  "abi": [
    {
      "anonymous": false,
      "inputs": [
        {
          "indexed": false,
          "internalType": "string",
          "name": "name",
          "type": "string"
        },
        {
          "indexed": false,
          "internalType": "uint256",
          "name": "empIdIndex",
          "type": "uint256"
        }
      ],
      "name": "LogDeleteDoctor",
      "type": "event"
    },
    {
      "anonymous": false,
      "inputs": [
        {
          "indexed": false,
          "internalType": "string",
          "name": "name",
          "type": "string"
        },
        {
          "indexed": false,
          "internalType": "string",
          "name": "personalDetails",
          "type": "string"
        },
        {
          "indexed": false,
          "internalType": "address",
          "name": "owner",
          "type": "address"
        }
      ],
      "name": "LogDoctor",
      "type": "event"
    },
    {
      "anonymous": false,
      "inputs": [
        {
          "indexed": false,
          "internalType": "string",
          "name": "name",
          "type": "string"
        },
        {
          "indexed": false,
          "internalType": "string",
          "name": "personalDetails",
          "type": "string"
        }
      ],
      "name": "LogUpdateDoctor",
      "type": "event"
    },
    {
      "anonymous": false,
      "inputs": [
        {
          "indexed": true,
          "internalType": "bytes32",
          "name": "role",
          "type": "bytes32"
        },
        {
          "indexed": true,
          "internalType": "bytes32",
          "name": "previousAdminRole",
          "type": "bytes32"
        },
        {
          "indexed": true,
          "internalType": "bytes32",
          "name": "newAdminRole",
          "type": "bytes32"
        }
      ],
      "name": "RoleAdminChanged",
      "type": "event"
    },
    {
      "anonymous": false,
      "inputs": [
        {
          "indexed": true,
          "internalType": "bytes32",
          "name": "role",
          "type": "bytes32"
        },
        {
          "indexed": true,
          "internalType": "address",
          "name": "account",
          "type": "address"
        },
        {
          "indexed": true,
          "internalType": "address",
          "name": "sender",
          "type": "address"
        }
      ],
      "name": "RoleGranted",
      "type": "event"
    },
    {
      "anonymous": false,
      "inputs": [
        {
          "indexed": true,
          "internalType": "bytes32",
          "name": "role",
          "type": "bytes32"
        },
        {
          "indexed": true,
          "internalType": "address",
          "name": "account",
          "type": "address"
        },
        {
          "indexed": true,
          "internalType": "address",
          "name": "sender",
          "type": "address"
        }
      ],
      "name": "RoleRevoked",
      "type": "event"
    },
    {
      "inputs": [],
      "name": "DEFAULT_ADMIN_ROLE",
      "outputs": [
        {
          "internalType": "bytes32",
          "name": "",
          "type": "bytes32"
        }
      ],
      "stateMutability": "view",
      "type": "function",
      "constant": true
    },
    {
      "inputs": [
        {
          "internalType": "bytes32",
          "name": "role",
          "type": "bytes32"
        }
      ],
      "name": "getRoleAdmin",
      "outputs": [
        {
          "internalType": "bytes32",
          "name": "",
          "type": "bytes32"
        }
      ],
      "stateMutability": "view",
      "type": "function",
      "constant": true
    },
    {
      "inputs": [
        {
          "internalType": "bytes32",
          "name": "role",
          "type": "bytes32"
        },
        {
          "internalType": "address",
          "name": "account",
          "type": "address"
        }
      ],
      "name": "grantRole",
      "outputs": [],
      "stateMutability": "nonpayable",
      "type": "function"
    },
    {
      "inputs": [
        {
          "internalType": "bytes32",
          "name": "role",
          "type": "bytes32"
        },
        {
          "internalType": "address",
          "name": "account",
          "type": "address"
        }
      ],
      "name": "hasRole",
      "outputs": [
        {
          "internalType": "bool",
          "name": "",
          "type": "bool"
        }
      ],
      "stateMutability": "view",
      "type": "function",
      "constant": true
    },
    {
      "inputs": [
        {
          "internalType": "bytes32",
          "name": "role",
          "type": "bytes32"
        },
        {
          "internalType": "address",
          "name": "account",
          "type": "address"
        }
      ],
      "name": "renounceRole",
      "outputs": [],
      "stateMutability": "nonpayable",
      "type": "function"
    },
    {
      "inputs": [
        {
          "internalType": "bytes32",
          "name": "role",
          "type": "bytes32"
        },
        {
          "internalType": "address",
          "name": "account",
          "type": "address"
        }
      ],
      "name": "revokeRole",
      "outputs": [],
      "stateMutability": "nonpayable",
      "type": "function"
    },
    {
      "inputs": [
        {
          "internalType": "bytes4",
          "name": "interfaceId",
          "type": "bytes4"
        }
      ],
      "name": "supportsInterface",
      "outputs": [
        {
          "internalType": "bool",
          "name": "",
          "type": "bool"
        }
      ],
      "stateMutability": "view",
      "type": "function",
      "constant": true
    },
    {
      "inputs": [
        {
          "internalType": "string",
          "name": "name",
          "type": "string"
        },
        {
          "internalType": "string",
          "name": "_personalDetails",
          "type": "string"
        },
        {
          "internalType": "address",
          "name": "_hospitalAddress",
          "type": "address"
        },
        {
          "internalType": "address",
          "name": "_walletAddress",
          "type": "address"
        }
      ],
      "name": "registerDoctor",
      "outputs": [
        {
          "internalType": "string",
          "name": "status",
          "type": "string"
        }
      ],
      "stateMutability": "nonpayable",
      "type": "function"
    },
    {
      "inputs": [
        {
          "internalType": "address",
          "name": "_walletAddress",
          "type": "address"
        },
        {
          "internalType": "address",
          "name": "_addressOfHigherAuthority",
          "type": "address"
        }
      ],
      "name": "getDoctorData",
      "outputs": [
        {
          "internalType": "string",
          "name": "name",
          "type": "string"
        },
        {
          "internalType": "string",
          "name": "personalDetails",
          "type": "string"
        },
        {
          "internalType": "address",
          "name": "hospitalAddress",
          "type": "address"
        }
      ],
      "stateMutability": "view",
      "type": "function",
      "constant": true
    }
  ],
  "bytecode": "0x608060405234801561001057600080fd5b50610e08806100206000396000f3fe608060405234801561001057600080fd5b50600436106100835760003560e01c806301ffc9a714610088578063248a9ca3146100b15780632f2ff15d146100d157806336568abe146100e65780634160549c146100f95780638808511e1461011b57806391d148541461013b578063a217fddf1461014e578063d547741f14610156575b600080fd5b61009b6100963660046109ee565b610169565b6040516100a89190610bd3565b60405180910390f35b6100c46100bf3660046109b4565b610196565b6040516100a89190610bde565b6100e46100df3660046109cc565b6101ab565b005b6100e46100f43660046109cc565b6101d4565b61010c610107366004610982565b610223565b6040516100a893929190610bfa565b61012e610129366004610a16565b610374565b6040516100a89190610be7565b61009b6101493660046109cc565b6104ba565b6100c46104e3565b6100e46101643660046109cc565b6104e8565b60006001600160e01b03198216637965db0b60e01b148061018e575061018e82610507565b90505b919050565b60009081526020819052604090206001015490565b6101b482610196565b6101c5816101c0610520565b610524565b6101cf8383610588565b505050565b6101dc610520565b6001600160a01b0316816001600160a01b0316146102155760405162461bcd60e51b815260040161020c90610c92565b60405180910390fd5b61021f828261060d565b5050565b6001600160a01b0380831660009081526001602081905260408220600281015481546060958695948401921690839061025b90610d6b565b80601f016020809104026020016040519081016040528092919081815260200182805461028790610d6b565b80156102d45780601f106102a9576101008083540402835291602001916102d4565b820191906000526020600020905b8154815290600101906020018083116102b757829003601f168201915b505050505092508180546102e790610d6b565b80601f016020809104026020016040519081016040528092919081815260200182805461031390610d6b565b80156103605780601f1061033557610100808354040283529160200191610360565b820191906000526020600020905b81548152906001019060200180831161034357829003601f168201915b505050505091509250925092509250925092565b60606103a07fc9c8e67a61d2e7371df46522b44051b955c16bf4b713ef44e1373b25bfcd80b283610690565b6001600160a01b038216600090815260016020908152604090912086516103c992880190610852565b506001600160a01b0382811660008181526001602081815260409092206003810180546001600160a01b03199081169095179055600281018054909416948816949094179092558651610423939092019190870190610852565b506001600160a01b03821660009081526001602081905260409182902091517fea96d2980603e9de4ec8d8ebe610863ae5d1c74dca75f4b5d6450c5ac4c3176692610475929091908201908690610c38565b60405180910390a15060408051808201909152601e81527f444f43544f525f524547495354455245445f5355434345535346554c4c5900006020820152949350505050565b6000918252602082815260408084206001600160a01b0393909316845291905290205460ff1690565b600081565b6104f182610196565b6104fd816101c0610520565b6101cf838361060d565b6001600160e01b031981166301ffc9a760e01b14919050565b3390565b61052e82826104ba565b61021f57610546816001600160a01b0316601461069a565b61055183602061069a565b604051602001610562929190610b64565b60408051601f198184030181529082905262461bcd60e51b825261020c91600401610be7565b61059282826104ba565b61021f576000828152602081815260408083206001600160a01b03851684529091529020805460ff191660011790556105c9610520565b6001600160a01b0316816001600160a01b0316837f2f8788117e7eff1d82e926ec794901d17c78024a50270940304540a733656f0d60405160405180910390a45050565b61061782826104ba565b1561021f576000828152602081815260408083206001600160a01b03851684529091529020805460ff1916905561064c610520565b6001600160a01b0316816001600160a01b0316837ff6391f5c32d9c69d2a47ea670b442974b53935d1edc7fd64eb21e047a839171b60405160405180910390a45050565b61021f8282610588565b606060006106a9836002610d05565b6106b4906002610ced565b6001600160401b038111156106d957634e487b7160e01b600052604160045260246000fd5b6040519080825280601f01601f191660200182016040528015610703576020820181803683370190505b509050600360fc1b8160008151811061072c57634e487b7160e01b600052603260045260246000fd5b60200101906001600160f81b031916908160001a905350600f60fb1b8160018151811061076957634e487b7160e01b600052603260045260246000fd5b60200101906001600160f81b031916908160001a905350600061078d846002610d05565b610798906001610ced565b90505b600181111561082c576f181899199a1a9b1b9c1cb0b131b232b360811b85600f16601081106107da57634e487b7160e01b600052603260045260246000fd5b1a60f81b8282815181106107fe57634e487b7160e01b600052603260045260246000fd5b60200101906001600160f81b031916908160001a90535060049490941c9361082581610d54565b905061079b565b50831561084b5760405162461bcd60e51b815260040161020c90610c5d565b9392505050565b82805461085e90610d6b565b90600052602060002090601f01602090048101928261088057600085556108c6565b82601f1061089957805160ff19168380011785556108c6565b828001600101855582156108c6579182015b828111156108c65782518255916020019190600101906108ab565b506108d29291506108d6565b5090565b5b808211156108d257600081556001016108d7565b80356001600160a01b038116811461019157600080fd5b600082601f830112610912578081fd5b81356001600160401b038082111561092c5761092c610dbc565b604051601f8301601f19168101602001828111828210171561095057610950610dbc565b604052828152848301602001861015610967578384fd5b82602086016020830137918201602001929092529392505050565b60008060408385031215610994578182fd5b61099d836108eb565b91506109ab602084016108eb565b90509250929050565b6000602082840312156109c5578081fd5b5035919050565b600080604083850312156109de578182fd5b823591506109ab602084016108eb565b6000602082840312156109ff578081fd5b81356001600160e01b03198116811461084b578182fd5b60008060008060808587031215610a2b578182fd5b84356001600160401b0380821115610a41578384fd5b610a4d88838901610902565b95506020870135915080821115610a62578384fd5b50610a6f87828801610902565b935050610a7e604086016108eb565b9150610a8c606086016108eb565b905092959194509250565b60008151808452610aaf816020860160208601610d24565b601f01601f19169290920160200192915050565b805460009060028104600180831680610add57607f831692505b6020808410821415610afd57634e487b7160e01b86526022600452602486fd5b610b078489610bde565b828015610b1b5760018114610b2c57610b57565b60ff19871682528282019750610b57565b610b3589610ce1565b60005b87811015610b5157815484820152908601908401610b38565b83019850505b5050505050505092915050565b600076020b1b1b2b9b9a1b7b73a3937b61d1030b1b1b7bab73a1604d1b82528351610b96816017850160208801610d24565b7001034b99036b4b9b9b4b733903937b6329607d1b6017918401918201528351610bc7816028840160208801610d24565b01602801949350505050565b901515815260200190565b90815260200190565b60006020825261084b6020830184610a97565b600060608252610c0d6060830186610a97565b8281036020840152610c1f8186610a97565b91505060018060a01b0383166040830152949350505050565b600060608252610c4b6060830186610ac3565b8281036020840152610c1f8186610ac3565b6020808252818101527f537472696e67733a20686578206c656e67746820696e73756666696369656e74604082015260600190565b6020808252602f908201527f416363657373436f6e74726f6c3a2063616e206f6e6c792072656e6f756e636560408201526e103937b632b9903337b91039b2b63360891b606082015260800190565b60009081526020902090565b60008219821115610d0057610d00610da6565b500190565b6000816000190483118215151615610d1f57610d1f610da6565b500290565b60005b83811015610d3f578181015183820152602001610d27565b83811115610d4e576000848401525b50505050565b600081610d6357610d63610da6565b506000190190565b600281046001821680610d7f57607f821691505b60208210811415610da057634e487b7160e01b600052602260045260246000fd5b50919050565b634e487b7160e01b600052601160045260246000fd5b634e487b7160e01b600052604160045260246000fdfea2646970667358221220b6588a4315aeb4a07308f69039fd0b06842aaf1695a3083af4ad13e0dbf820dc64736f6c63430008000033",
  "immutableReferences": {},
  "source": "pragma solidity ^0.8.0;\n\n//SPDX-License-Identifier: MIT\n\nimport \"./access/AccessControlEnumerable.sol\";\nimport \"./Roles.sol\";\nimport \"./Patient.sol\";\n\ncontract Doctor is AccessControl {\n    struct doctorRecord {\n        string name;\n        string personalDetails;\n        address hospitalAddress;\n        address walletAddress;\n    }\n\n    event LogDoctor(string name, string personalDetails, address owner);\n    event LogUpdateDoctor(string name, string personalDetails);\n    event LogDeleteDoctor(string name, uint256 empIdIndex);\n\n    //: DOCTOR DATABASE\n    mapping(address => doctorRecord) doctorDatabase;\n\n    function registerDoctor(\n        string memory name,\n        string memory _personalDetails,\n        address _hospitalAddress,\n        address _walletAddress\n    ) external returns (string memory status) {\n        _setupRole(DOCTOR, _walletAddress);\n        doctorDatabase[_walletAddress].name = name;\n        doctorDatabase[_walletAddress].walletAddress = _walletAddress;\n        doctorDatabase[_walletAddress].hospitalAddress = _hospitalAddress;\n        doctorDatabase[_walletAddress].personalDetails = _personalDetails;\n\n        emit LogDoctor(\n            doctorDatabase[_walletAddress].name,\n            doctorDatabase[_walletAddress].personalDetails,\n            _walletAddress\n        );\n\n        return \"DOCTOR_REGISTERED_SUCCESSFULLY\";\n    }\n\n    function getDoctorData(\n        address _walletAddress,\n        address _addressOfHigherAuthority\n    )\n        public\n        view\n        returns (\n            string memory name,\n            string memory personalDetails,\n            address hospitalAddress\n        )\n    {\n        return (\n            doctorDatabase[_walletAddress].name,\n            doctorDatabase[_walletAddress].personalDetails,\n            doctorDatabase[_walletAddress].hospitalAddress\n        );\n    }\n}\n",
  "sourcePath": "/Users/reuben/StudioProjects/blockchain_in_healthcare/contracts/Doctor.sol",
  "compiler": {
    "name": "solc",
    "version": "0.8.0+commit.c7dfd78e.Emscripten.clang"
  },
  "schemaVersion": "3.4.3",
  "updatedAt": "2021-10-22T11:44:00.769Z",
  "networkType": "ethereum",
  "devdoc": {
    "kind": "dev",
    "methods": {
      "getRoleAdmin(bytes32)": {
        "details": "Returns the admin role that controls `role`. See {grantRole} and {revokeRole}. To change a role's admin, use {_setRoleAdmin}."
      },
      "grantRole(bytes32,address)": {
        "details": "Grants `role` to `account`. If `account` had not been already granted `role`, emits a {RoleGranted} event. Requirements: - the caller must have ``role``'s admin role."
      },
      "hasRole(bytes32,address)": {
        "details": "Returns `true` if `account` has been granted `role`."
      },
      "renounceRole(bytes32,address)": {
        "details": "Revokes `role` from the calling account. Roles are often managed via {grantRole} and {revokeRole}: this function's purpose is to provide a mechanism for accounts to lose their privileges if they are compromised (such as when a trusted device is misplaced). If the calling account had been granted `role`, emits a {RoleRevoked} event. Requirements: - the caller must be `account`."
      },
      "revokeRole(bytes32,address)": {
        "details": "Revokes `role` from `account`. If `account` had been granted `role`, emits a {RoleRevoked} event. Requirements: - the caller must have ``role``'s admin role."
      },
      "supportsInterface(bytes4)": {
        "details": "See {IERC165-supportsInterface}."
      }
    },
    "version": 1
  },
  "userdoc": {
    "kind": "user",
    "methods": {},
    "version": 1
  }
}