{
	"data": {
		"bytecode": {
			"linkReferences": {},
			"object": "60806040523480156200001157600080fd5b50620000276000801b336200002d60201b60201c565b620001a6565b6200003f82826200004360201b60201c565b5050565b6200005582826200013460201b60201c565b6200013057600160008084815260200190815260200160002060000160008373ffffffffffffffffffffffffffffffffffffffff1673ffffffffffffffffffffffffffffffffffffffff16815260200190815260200160002060006101000a81548160ff021916908315150217905550620000d56200019e60201b60201c565b73ffffffffffffffffffffffffffffffffffffffff168173ffffffffffffffffffffffffffffffffffffffff16837f2f8788117e7eff1d82e926ec794901d17c78024a50270940304540a733656f0d60405160405180910390a45b5050565b600080600084815260200190815260200160002060000160008373ffffffffffffffffffffffffffffffffffffffff1673ffffffffffffffffffffffffffffffffffffffff16815260200190815260200160002060009054906101000a900460ff16905092915050565b600033905090565b615ce380620001b66000396000f3fe608060405234801561001057600080fd5b506004361061027f5760003560e01c80637f8354f81161015c578063cdca8f7c116100ce578063e21eadcc11610087578063e21eadcc1461091e578063e8300b1d14610950578063edae7fb514610984578063eea9c37b146109a2578063f1628e9e146109d2578063f98d5d2514610a025761027f565b8063cdca8f7c14610826578063ce65e5e314610856578063d3a7730814610886578063d547741f146108a2578063d6e7b3f0146108be578063dfa1645e146108ee5761027f565b8063a217fddf11610120578063a217fddf14610718578063a4be9e6a14610736578063a84ceab714610766578063a9909db914610796578063c12878c3146107c6578063c99ead64146107f65761027f565b80637f8354f8146106285780638a15d9df146106585780638b55befc146106885780638efc2838146106b857806391d14854146106e85761027f565b806336568abe116101f55780635bf9c0e3116101b95780635bf9c0e31461053d5780635c7231ef1461056d57806360587e591461059d5780636daca1ee146105b957806373e830b4146105da5780637d379853146105f85761027f565b806336568abe14610475578063396c07ae146104915780633e99344a146104ad57806345118d8e146104dd5780634edf897f1461050d5761027f565b806316d8b45b1161024757806316d8b45b14610362578063247e99a814610395578063248a9ca3146103c557806328702668146103f55780632e8ff13c146104255780632f2ff15d146104595761027f565b806301ffc9a714610284578063027f66a1146102b45780630a086b15146102e45780630b60034514610302578063149e195714610332575b600080fd5b61029e60048036038101906102999190614c6c565b610a20565b6040516102ab9190615428565b60405180910390f35b6102ce60048036038101906102c99190614cc6565b610a9a565b6040516102db9190615443565b60405180910390f35b6102ec610ac4565b6040516102f991906156ce565b60405180910390f35b61031c60048036038101906103179190614e79565b610ad5565b6040516103299190615428565b60405180910390f35b61034c60048036038101906103479190614d0f565b610d81565b6040516103599190615428565b60405180910390f35b61037c600480360381019061037791906149f3565b611114565b60405161038c94939291906154f5565b60405180910390f35b6103af60048036038101906103aa91906149f3565b61138b565b6040516103bc91906156ce565b60405180910390f35b6103df60048036038101906103da9190614bd2565b6113d7565b6040516103ec9190615443565b60405180910390f35b61040f600480360381019061040a9190614ae2565b6113f6565b60405161041c9190615428565b60405180910390f35b61043f600480360381019061043a91906149f3565b6114d8565b604051610450959493929190615548565b60405180910390f35b610473600480360381019061046e9190614c2c565b61173d565b005b61048f600480360381019061048a9190614c2c565b611766565b005b6104ab60048036038101906104a69190614c99565b6117e9565b005b6104c760048036038101906104c291906150bd565b61182d565b6040516104d49190615428565b60405180910390f35b6104f760048036038101906104f29190614a20565b61197e565b6040516105049190615428565b60405180910390f35b61052760048036038101906105229190614f04565b611ad3565b6040516105349190615428565b60405180910390f35b61055760048036038101906105529190614d0f565b611eb6565b6040516105649190615428565b60405180910390f35b61058760048036038101906105829190614a20565b611f19565b6040516105949190615428565b60405180910390f35b6105b760048036038101906105b29190614a73565b61206e565b005b6105c1612157565b6040516105d194939291906156e9565b60405180910390f35b6105e2612193565b6040516105ef91906156ce565b60405180910390f35b610612600480360381019061060d9190614fa3565b6121a4565b60405161061f9190615428565b60405180910390f35b610642600480360381019061063d9190614dda565b6126aa565b60405161064f9190615428565b60405180910390f35b610672600480360381019061066d91906149f3565b612a3b565b60405161067f91906156ce565b60405180910390f35b6106a2600480360381019061069d91906149f3565b612a87565b6040516106af91906156ce565b60405180910390f35b6106d260048036038101906106cd9190615056565b612ada565b6040516106df9190615428565b60405180910390f35b61070260048036038101906106fd9190614c2c565b612bbf565b60405161070f9190615428565b60405180910390f35b610720612c29565b60405161072d9190615443565b60405180910390f35b610750600480360381019061074b9190614b65565b612c30565b60405161075d91906156ac565b60405180910390f35b610780600480360381019061077b9190614a20565b612dcc565b60405161078d9190615428565b60405180910390f35b6107b060048036038101906107ab9190614d0f565b612f57565b6040516107bd9190615428565b60405180910390f35b6107e060048036038101906107db91906149f3565b613054565b6040516107ed91906156ce565b60405180910390f35b610810600480360381019061080b9190614e79565b6130a7565b60405161081d9190615428565b60405180910390f35b610840600480360381019061083b9190614d0f565b61338d565b60405161084d9190615428565b60405180910390f35b610870600480360381019061086b9190614d0f565b613459565b60405161087d9190615428565b60405180910390f35b6108a0600480360381019061089b9190614a73565b6134bc565b005b6108bc60048036038101906108b79190614c2c565b6135a5565b005b6108d860048036038101906108d391906149f3565b6135ce565b6040516108e5919061545e565b60405180910390f35b610908600480360381019061090391906149f3565b6137a1565b604051610915919061545e565b60405180910390f35b610938600480360381019061093391906149f3565b6138b9565b604051610947939291906154b0565b60405180910390f35b61096a600480360381019061096591906149f3565b613ad1565b60405161097b9594939291906155a9565b60405180910390f35b61098c613d7f565b60405161099991906156ce565b60405180910390f35b6109bc60048036038101906109b79190614b65565b613d90565b6040516109c9919061568a565b60405180910390f35b6109ec60048036038101906109e79190614d6b565b613eb5565b6040516109f99190615428565b60405180910390f35b610a0a614249565b604051610a1791906156ce565b60405180910390f35b60007f7965db0b000000000000000000000000000000000000000000000000000000007bffffffffffffffffffffffffffffffffffffffffffffffffffffffff1916827bffffffffffffffffffffffffffffffffffffffffffffffffffffffff19161480610a935750610a928261425a565b5b9050919050565b600080829050600081511415610ab6576000801b915050610abf565b60208301519150505b919050565b6000610ad060056142c4565b905090565b6000610ae46000801b83612bbf565b15610b7c573073ffffffffffffffffffffffffffffffffffffffff16635bf9c0e384846040518363ffffffff1660e01b8152600401610b24929190615480565b602060405180830381600087803b158015610b3e57600080fd5b505af1158015610b52573d6000803e3d6000fd5b505050506040513d601f19601f82011682018060405250810190610b769190614ba5565b50610d76565b610b896000801b836142d2565b600160009054906101000a900473ffffffffffffffffffffffffffffffffffffffff1673ffffffffffffffffffffffffffffffffffffffff1663095ea7b383620186a06040518363ffffffff1660e01b8152600401610be99291906153ff565b602060405180830381600087803b158015610c0357600080fd5b505af1158015610c17573d6000803e3d6000fd5b505050506040513d601f19601f82011682018060405250810190610c3b9190614ba5565b5083600960008473ffffffffffffffffffffffffffffffffffffffff1673ffffffffffffffffffffffffffffffffffffffff1681526020019081526020016000206000019080519060200190610c929291906147f4565b5081600960008473ffffffffffffffffffffffffffffffffffffffff1673ffffffffffffffffffffffffffffffffffffffff16815260200190815260200160002060020160006101000a81548173ffffffffffffffffffffffffffffffffffffffff021916908373ffffffffffffffffffffffffffffffffffffffff16021790555082600960008473ffffffffffffffffffffffffffffffffffffffff1673ffffffffffffffffffffffffffffffffffffffff1681526020019081526020016000206001019080519060200190610d6a9291906147f4565b50610d7560046142e0565b5b600190509392505050565b6000610dad7f56455249464945445f50415449454e540000000000000000000000000000000083612bbf565b610dec576040517f08c379a0000000000000000000000000000000000000000000000000000000008152600401610de39061562a565b60405180910390fd5b600660008373ffffffffffffffffffffffffffffffffffffffff1673ffffffffffffffffffffffffffffffffffffffff1681526020019081526020016000206005016000815480929190610e3f906159dd565b9190505550600660008373ffffffffffffffffffffffffffffffffffffffff1673ffffffffffffffffffffffffffffffffffffffff16815260200190815260200160002060050154600660008473ffffffffffffffffffffffffffffffffffffffff1673ffffffffffffffffffffffffffffffffffffffff16815260200190815260200160002060050181905550600660008373ffffffffffffffffffffffffffffffffffffffff1673ffffffffffffffffffffffffffffffffffffffff16815260200190815260200160002060050154600660008473ffffffffffffffffffffffffffffffffffffffff1673ffffffffffffffffffffffffffffffffffffffff1681526020019081526020016000206006016000600660008673ffffffffffffffffffffffffffffffffffffffff1673ffffffffffffffffffffffffffffffffffffffff1681526020019081526020016000206005015481526020019081526020016000206000018190555082600660008473ffffffffffffffffffffffffffffffffffffffff1673ffffffffffffffffffffffffffffffffffffffff1681526020019081526020016000206006016000600660008673ffffffffffffffffffffffffffffffffffffffff1673ffffffffffffffffffffffffffffffffffffffff16815260200190815260200160002060050154815260200190815260200160002060010190805190602001906110589291906147f4565b506000600660008473ffffffffffffffffffffffffffffffffffffffff1673ffffffffffffffffffffffffffffffffffffffff1681526020019081526020016000206006016000600660008673ffffffffffffffffffffffffffffffffffffffff1673ffffffffffffffffffffffffffffffffffffffff16815260200190815260200160002060050154815260200190815260200160002060020160006101000a81548160ff0219169083151502179055506001905092915050565b606080600080600660008673ffffffffffffffffffffffffffffffffffffffff1673ffffffffffffffffffffffffffffffffffffffff168152602001908152602001600020600001600660008773ffffffffffffffffffffffffffffffffffffffff1673ffffffffffffffffffffffffffffffffffffffff168152602001908152602001600020600101600660008873ffffffffffffffffffffffffffffffffffffffff1673ffffffffffffffffffffffffffffffffffffffff16815260200190815260200160002060030160009054906101000a900473ffffffffffffffffffffffffffffffffffffffff16600660008973ffffffffffffffffffffffffffffffffffffffff1673ffffffffffffffffffffffffffffffffffffffff16815260200190815260200160002060020160009054906101000a900473ffffffffffffffffffffffffffffffffffffffff168380546112709061597a565b80601f016020809104026020016040519081016040528092919081815260200182805461129c9061597a565b80156112e95780601f106112be576101008083540402835291602001916112e9565b820191906000526020600020905b8154815290600101906020018083116112cc57829003601f168201915b505050505093508280546112fc9061597a565b80601f01602080910402602001604051908101604052809291908181526020018280546113289061597a565b80156113755780601f1061134a57610100808354040283529160200191611375565b820191906000526020600020905b81548152906001019060200180831161135857829003601f168201915b5050505050925093509350935093509193509193565b6000600660008373ffffffffffffffffffffffffffffffffffffffff1673ffffffffffffffffffffffffffffffffffffffff168152602001908152602001600020600501549050919050565b6000806000838152602001908152602001600020600101549050919050565b60006114227f504841524d41435900000000000000000000000000000000000000000000000085612bbf565b611461576040517f08c379a00000000000000000000000000000000000000000000000000000000081526004016114589061562a565b60405180910390fd5b82600660008773ffffffffffffffffffffffffffffffffffffffff1673ffffffffffffffffffffffffffffffffffffffff168152602001908152602001600020600801600084815260200190815260200160002060010190805190602001906114cb9291906147f4565b5060019050949350505050565b6060806000806000600760008773ffffffffffffffffffffffffffffffffffffffff1673ffffffffffffffffffffffffffffffffffffffff168152602001908152602001600020600101600760008873ffffffffffffffffffffffffffffffffffffffff1673ffffffffffffffffffffffffffffffffffffffff168152602001908152602001600020600201876115af600760008b73ffffffffffffffffffffffffffffffffffffffff1673ffffffffffffffffffffffffffffffffffffffff1681526020019081526020016000206004016142c4565b600760008b73ffffffffffffffffffffffffffffffffffffffff1673ffffffffffffffffffffffffffffffffffffffff16815260200190815260200160002060030160009054906101000a900473ffffffffffffffffffffffffffffffffffffffff1684805461161e9061597a565b80601f016020809104026020016040519081016040528092919081815260200182805461164a9061597a565b80156116975780601f1061166c57610100808354040283529160200191611697565b820191906000526020600020905b81548152906001019060200180831161167a57829003601f168201915b505050505094508380546116aa9061597a565b80601f01602080910402602001604051908101604052809291908181526020018280546116d69061597a565b80156117235780601f106116f857610100808354040283529160200191611723565b820191906000526020600020905b81548152906001019060200180831161170657829003601f168201915b505050505093509450945094509450945091939590929450565b611746826113d7565b611757816117526142f6565b6142fe565b611761838361439b565b505050565b61176e6142f6565b73ffffffffffffffffffffffffffffffffffffffff168173ffffffffffffffffffffffffffffffffffffffff16146117db576040517f08c379a00000000000000000000000000000000000000000000000000000000081526004016117d29061566a565b60405180910390fd5b6117e5828261447b565b5050565b80600160006101000a81548173ffffffffffffffffffffffffffffffffffffffff021916908373ffffffffffffffffffffffffffffffffffffffff16021790555050565b60006118597f56455249464945445f444f43544f52000000000000000000000000000000000084612bbf565b611898576040517f08c379a000000000000000000000000000000000000000000000000000000000815260040161188f9061562a565b60405180910390fd5b81600660008673ffffffffffffffffffffffffffffffffffffffff1673ffffffffffffffffffffffffffffffffffffffff168152602001908152602001600020600601600087815260200190815260200160002060010190805190602001906119029291906147f4565b506001600660008673ffffffffffffffffffffffffffffffffffffffff1673ffffffffffffffffffffffffffffffffffffffff168152602001908152602001600020600601600087815260200190815260200160002060020160006101000a81548160ff02191690831515021790555060019050949350505050565b60006119aa7f56455249464945445f50415449454e540000000000000000000000000000000083612bbf565b6119b357600080fd5b6119fd600960008673ffffffffffffffffffffffffffffffffffffffff1673ffffffffffffffffffffffffffffffffffffffff16815260200190815260200160002060030161455c565b82600660008473ffffffffffffffffffffffffffffffffffffffff1673ffffffffffffffffffffffffffffffffffffffff16815260200190815260200160002060030160006101000a81548173ffffffffffffffffffffffffffffffffffffffff021916908373ffffffffffffffffffffffffffffffffffffffff160217905550611ac8600960008573ffffffffffffffffffffffffffffffffffffffff1673ffffffffffffffffffffffffffffffffffffffff1681526020019081526020016000206003016142e0565b600190509392505050565b6000611aff7f444f43544f52000000000000000000000000000000000000000000000000000083612bbf565b80611b305750611b2f7f56455249464945445f444f43544f52000000000000000000000000000000000083612bbf565b5b15611bc8573073ffffffffffffffffffffffffffffffffffffffff1663ce65e5e385846040518363ffffffff1660e01b8152600401611b70929190615480565b602060405180830381600087803b158015611b8a57600080fd5b505af1158015611b9e573d6000803e3d6000fd5b505050506040513d601f19601f82011682018060405250810190611bc29190614ba5565b50611eaa565b611bf27f444f43544f520000000000000000000000000000000000000000000000000000836142d2565b600160009054906101000a900473ffffffffffffffffffffffffffffffffffffffff1673ffffffffffffffffffffffffffffffffffffffff1663095ea7b383620186a06040518363ffffffff1660e01b8152600401611c529291906153ff565b602060405180830381600087803b158015611c6c57600080fd5b505af1158015611c80573d6000803e3d6000fd5b505050506040513d601f19601f82011682018060405250810190611ca49190614ba5565b5084600760008473ffffffffffffffffffffffffffffffffffffffff1673ffffffffffffffffffffffffffffffffffffffff1681526020019081526020016000206001019080519060200190611cfb9291906147f4565b5081600760008473ffffffffffffffffffffffffffffffffffffffff1673ffffffffffffffffffffffffffffffffffffffff16815260200190815260200160002060000160006101000a81548173ffffffffffffffffffffffffffffffffffffffff021916908373ffffffffffffffffffffffffffffffffffffffff16021790555082600760008473ffffffffffffffffffffffffffffffffffffffff1673ffffffffffffffffffffffffffffffffffffffff16815260200190815260200160002060030160006101000a81548173ffffffffffffffffffffffffffffffffffffffff021916908373ffffffffffffffffffffffffffffffffffffffff16021790555083600760008473ffffffffffffffffffffffffffffffffffffffff1673ffffffffffffffffffffffffffffffffffffffff1681526020019081526020016000206002019080519060200190611e549291906147f4565b50611e9f600960008573ffffffffffffffffffffffffffffffffffffffff1673ffffffffffffffffffffffffffffffffffffffff1681526020019081526020016000206004016142e0565b611ea960036142e0565b5b60019050949350505050565b600082600660008473ffffffffffffffffffffffffffffffffffffffff1673ffffffffffffffffffffffffffffffffffffffff1681526020019081526020016000206001019080519060200190611f0e9291906147f4565b506001905092915050565b6000611f457f56455249464945445f50415449454e540000000000000000000000000000000083612bbf565b611f4e57600080fd5b611f98600760008673ffffffffffffffffffffffffffffffffffffffff1673ffffffffffffffffffffffffffffffffffffffff16815260200190815260200160002060040161455c565b82600660008473ffffffffffffffffffffffffffffffffffffffff1673ffffffffffffffffffffffffffffffffffffffff16815260200190815260200160002060020160006101000a81548173ffffffffffffffffffffffffffffffffffffffff021916908373ffffffffffffffffffffffffffffffffffffffff160217905550612063600760008573ffffffffffffffffffffffffffffffffffffffff1673ffffffffffffffffffffffffffffffffffffffff1681526020019081526020016000206004016142e0565b600190509392505050565b61207b6000801b84612bbf565b6120ba576040517f08c379a00000000000000000000000000000000000000000000000000000000081526004016120b19061562a565b60405180910390fd5b60003073ffffffffffffffffffffffffffffffffffffffff1663027f66a1836040518263ffffffff1660e01b81526004016120f5919061545e565b60206040518083038186803b15801561210d57600080fd5b505afa158015612121573d6000803e3d6000fd5b505050506040513d601f19601f820116820180604052508101906121459190614bff565b9050612151818461173d565b50505050565b60008060008061216760026142c4565b61217160036142c4565b61217b60046142c4565b61218560056142c4565b935093509350935090919293565b600061219f60026142c4565b905090565b60006121d07f50415449454e540000000000000000000000000000000000000000000000000083612bbf565b8061220157506122007f56455249464945445f50415449454e540000000000000000000000000000000083612bbf565b5b156122f05785600660008473ffffffffffffffffffffffffffffffffffffffff1673ffffffffffffffffffffffffffffffffffffffff168152602001908152602001600020600001908051906020019061225c9291906147f4565b503073ffffffffffffffffffffffffffffffffffffffff1663a9909db986846040518363ffffffff1660e01b8152600401612298929190615480565b602060405180830381600087803b1580156122b257600080fd5b505af11580156122c6573d6000803e3d6000fd5b505050506040513d601f19601f820116820180604052508101906122ea9190614ba5565b5061269d565b61231a7f50415449454e5400000000000000000000000000000000000000000000000000836142d2565b600160009054906101000a900473ffffffffffffffffffffffffffffffffffffffff1673ffffffffffffffffffffffffffffffffffffffff1663095ea7b383620186a06040518363ffffffff1660e01b815260040161237a9291906153ff565b602060405180830381600087803b15801561239457600080fd5b505af11580156123a8573d6000803e3d6000fd5b505050506040513d601f19601f820116820180604052508101906123cc9190614ba5565b5085600660008473ffffffffffffffffffffffffffffffffffffffff1673ffffffffffffffffffffffffffffffffffffffff16815260200190815260200160002060000190805190602001906124239291906147f4565b5084600660008473ffffffffffffffffffffffffffffffffffffffff1673ffffffffffffffffffffffffffffffffffffffff168152602001908152602001600020600101908051906020019061247a9291906147f4565b5083600660008473ffffffffffffffffffffffffffffffffffffffff1673ffffffffffffffffffffffffffffffffffffffff16815260200190815260200160002060030160006101000a81548173ffffffffffffffffffffffffffffffffffffffff021916908373ffffffffffffffffffffffffffffffffffffffff16021790555081600660008473ffffffffffffffffffffffffffffffffffffffff1673ffffffffffffffffffffffffffffffffffffffff16815260200190815260200160002060040160006101000a81548173ffffffffffffffffffffffffffffffffffffffff021916908373ffffffffffffffffffffffffffffffffffffffff16021790555082600660008473ffffffffffffffffffffffffffffffffffffffff1673ffffffffffffffffffffffffffffffffffffffff16815260200190815260200160002060020160006101000a81548173ffffffffffffffffffffffffffffffffffffffff021916908373ffffffffffffffffffffffffffffffffffffffff160217905550612648600760008573ffffffffffffffffffffffffffffffffffffffff1673ffffffffffffffffffffffffffffffffffffffff1681526020019081526020016000206004016142e0565b612692600960008673ffffffffffffffffffffffffffffffffffffffff1673ffffffffffffffffffffffffffffffffffffffff1681526020019081526020016000206003016142e0565b61269c60026142e0565b5b6001905095945050505050565b60006126d67f56455249464945445f444f43544f52000000000000000000000000000000000085612bbf565b612715576040517f08c379a000000000000000000000000000000000000000000000000000000000815260040161270c9061562a565b60405180910390fd5b600660008473ffffffffffffffffffffffffffffffffffffffff1673ffffffffffffffffffffffffffffffffffffffff1681526020019081526020016000206007016000815480929190612768906159dd565b9190505550600660008473ffffffffffffffffffffffffffffffffffffffff1673ffffffffffffffffffffffffffffffffffffffff16815260200190815260200160002060070154600660008573ffffffffffffffffffffffffffffffffffffffff1673ffffffffffffffffffffffffffffffffffffffff16815260200190815260200160002060070181905550600660008473ffffffffffffffffffffffffffffffffffffffff1673ffffffffffffffffffffffffffffffffffffffff16815260200190815260200160002060070154600660008573ffffffffffffffffffffffffffffffffffffffff1673ffffffffffffffffffffffffffffffffffffffff1681526020019081526020016000206008016000600660008773ffffffffffffffffffffffffffffffffffffffff1673ffffffffffffffffffffffffffffffffffffffff1681526020019081526020016000206007015481526020019081526020016000206000018190555084600660008573ffffffffffffffffffffffffffffffffffffffff1673ffffffffffffffffffffffffffffffffffffffff1681526020019081526020016000206008016000600660008773ffffffffffffffffffffffffffffffffffffffff1673ffffffffffffffffffffffffffffffffffffffff16815260200190815260200160002060070154815260200190815260200160002060010190805190602001906129819291906147f4565b5081600660008573ffffffffffffffffffffffffffffffffffffffff1673ffffffffffffffffffffffffffffffffffffffff1681526020019081526020016000206008016000600660008773ffffffffffffffffffffffffffffffffffffffff1673ffffffffffffffffffffffffffffffffffffffff1681526020019081526020016000206007015481526020019081526020016000206002019080519060200190612a2e9291906147f4565b5060019050949350505050565b6000600660008373ffffffffffffffffffffffffffffffffffffffff1673ffffffffffffffffffffffffffffffffffffffff168152602001908152602001600020600701549050919050565b6000612ad3600960008473ffffffffffffffffffffffffffffffffffffffff1673ffffffffffffffffffffffffffffffffffffffff1681526020019081526020016000206003016142c4565b9050919050565b6000612b067f56455249464945445f444f43544f52000000000000000000000000000000000084612bbf565b612b45576040517f08c379a0000000000000000000000000000000000000000000000000000000008152600401612b3c9061562a565b60405180910390fd5b81600660008673ffffffffffffffffffffffffffffffffffffffff1673ffffffffffffffffffffffffffffffffffffffff168152602001908152602001600020600601600087815260200190815260200160002060020160006101000a81548160ff02191690831515021790555060019050949350505050565b600080600084815260200190815260200160002060000160008373ffffffffffffffffffffffffffffffffffffffff1673ffffffffffffffffffffffffffffffffffffffff16815260200190815260200160002060009054906101000a900460ff16905092915050565b6000801b81565b612c3861487a565b600660008473ffffffffffffffffffffffffffffffffffffffff1673ffffffffffffffffffffffffffffffffffffffff168152602001908152602001600020600801600083815260200190815260200160002060405180606001604052908160008201548152602001600182018054612cb09061597a565b80601f0160208091040260200160405190810160405280929190818152602001828054612cdc9061597a565b8015612d295780601f10612cfe57610100808354040283529160200191612d29565b820191906000526020600020905b815481529060010190602001808311612d0c57829003601f168201915b50505050508152602001600282018054612d429061597a565b80601f0160208091040260200160405190810160405280929190818152602001828054612d6e9061597a565b8015612dbb5780601f10612d9057610100808354040283529160200191612dbb565b820191906000526020600020905b815481529060010190602001808311612d9e57829003601f168201915b505050505081525050905092915050565b6000612df87f56455249464945445f444f43544f52000000000000000000000000000000000083612bbf565b612e37576040517f08c379a0000000000000000000000000000000000000000000000000000000008152600401612e2e9061562a565b60405180910390fd5b612e81600960008673ffffffffffffffffffffffffffffffffffffffff1673ffffffffffffffffffffffffffffffffffffffff16815260200190815260200160002060040161455c565b82600760008473ffffffffffffffffffffffffffffffffffffffff1673ffffffffffffffffffffffffffffffffffffffff16815260200190815260200160002060030160006101000a81548173ffffffffffffffffffffffffffffffffffffffff021916908373ffffffffffffffffffffffffffffffffffffffff160217905550612f4c600960008573ffffffffffffffffffffffffffffffffffffffff1673ffffffffffffffffffffffffffffffffffffffff1681526020019081526020016000206004016142e0565b600190509392505050565b6000612f837f50415449454e540000000000000000000000000000000000000000000000000083612bbf565b80612fb45750612fb37f56455249464945445f50415449454e540000000000000000000000000000000083612bbf565b5b612ff3576040517f08c379a0000000000000000000000000000000000000000000000000000000008152600401612fea9061562a565b60405180910390fd5b82600660008473ffffffffffffffffffffffffffffffffffffffff1673ffffffffffffffffffffffffffffffffffffffff16815260200190815260200160002060010190805190602001906130499291906147f4565b506001905092915050565b60006130a0600960008473ffffffffffffffffffffffffffffffffffffffff1673ffffffffffffffffffffffffffffffffffffffff1681526020019081526020016000206004016142c4565b9050919050565b60006130d37f504841524d41435900000000000000000000000000000000000000000000000083612bbf565b1561316b573073ffffffffffffffffffffffffffffffffffffffff1663cdca8f7c84846040518363ffffffff1660e01b8152600401613113929190615480565b602060405180830381600087803b15801561312d57600080fd5b505af1158015613141573d6000803e3d6000fd5b505050506040513d601f19601f820116820180604052508101906131659190614ba5565b50613382565b6131957f504841524d414359000000000000000000000000000000000000000000000000836142d2565b600160009054906101000a900473ffffffffffffffffffffffffffffffffffffffff1673ffffffffffffffffffffffffffffffffffffffff1663095ea7b383620186a06040518363ffffffff1660e01b81526004016131f59291906153ff565b602060405180830381600087803b15801561320f57600080fd5b505af1158015613223573d6000803e3d6000fd5b505050506040513d601f19601f820116820180604052508101906132479190614ba5565b5083600860008473ffffffffffffffffffffffffffffffffffffffff1673ffffffffffffffffffffffffffffffffffffffff168152602001908152602001600020600001908051906020019061329e9291906147f4565b5081600860008473ffffffffffffffffffffffffffffffffffffffff1673ffffffffffffffffffffffffffffffffffffffff16815260200190815260200160002060020160006101000a81548173ffffffffffffffffffffffffffffffffffffffff021916908373ffffffffffffffffffffffffffffffffffffffff16021790555082600860008473ffffffffffffffffffffffffffffffffffffffff1673ffffffffffffffffffffffffffffffffffffffff16815260200190815260200160002060010190805190602001906133769291906147f4565b5061338160056142e0565b5b600190509392505050565b60006133b97f504841524d41435900000000000000000000000000000000000000000000000083612bbf565b6133f8576040517f08c379a00000000000000000000000000000000000000000000000000000000081526004016133ef9061562a565b60405180910390fd5b82600860008473ffffffffffffffffffffffffffffffffffffffff1673ffffffffffffffffffffffffffffffffffffffff168152602001908152602001600020600101908051906020019061344e9291906147f4565b506001905092915050565b600082600760008473ffffffffffffffffffffffffffffffffffffffff1673ffffffffffffffffffffffffffffffffffffffff16815260200190815260200160002060020190805190602001906134b19291906147f4565b506001905092915050565b60003073ffffffffffffffffffffffffffffffffffffffff1663027f66a1836040518263ffffffff1660e01b81526004016134f7919061545e565b60206040518083038186803b15801561350f57600080fd5b505afa158015613523573d6000803e3d6000fd5b505050506040513d601f19601f820116820180604052508101906135479190614bff565b90506135566000801b85612bbf565b613595576040517f08c379a000000000000000000000000000000000000000000000000000000000815260040161358c9061562a565b60405180910390fd5b61359f81846135a5565b50505050565b6135ae826113d7565b6135bf816135ba6142f6565b6142fe565b6135c9838361447b565b505050565b60606135fa7f56455249464945445f50415449454e540000000000000000000000000000000083612bbf565b1561363c576040518060400160405280601081526020017f56455249464945445f50415449454e5400000000000000000000000000000000815250905061379c565b6136667f50415449454e540000000000000000000000000000000000000000000000000083612bbf565b156136a8576040518060400160405280600781526020017f50415449454e5400000000000000000000000000000000000000000000000000815250905061379c565b6136b56000801b83612bbf565b156136f7576040518060400160405280601281526020017f44454641554c545f41444d494e5f524f4c450000000000000000000000000000815250905061379c565b6137217f504841524d41435900000000000000000000000000000000000000000000000083612bbf565b15613763576040518060400160405280600881526020017f504841524d414359000000000000000000000000000000000000000000000000815250905061379c565b6040518060400160405280600a81526020017f554e56455249464945440000000000000000000000000000000000000000000081525090505b919050565b60606137cd7f56455249464945445f444f43544f52000000000000000000000000000000000083612bbf565b1561380f576040518060400160405280601a81526020017f414343455353204752414e54454420425920484f53504954414c00000000000081525090506138b4565b6138397f444f43544f52000000000000000000000000000000000000000000000000000083612bbf565b1561387b576040518060400160405280600681526020017f444f43544f52000000000000000000000000000000000000000000000000000081525090506138b4565b6040518060400160405280600a81526020017f554e56455249464945440000000000000000000000000000000000000000000081525090505b919050565b60608060006138e87f504841524d41435900000000000000000000000000000000000000000000000085612bbf565b613927576040517f08c379a000000000000000000000000000000000000000000000000000000000815260040161391e9061562a565b60405180910390fd5b600860008573ffffffffffffffffffffffffffffffffffffffff1673ffffffffffffffffffffffffffffffffffffffff168152602001908152602001600020600001600860008673ffffffffffffffffffffffffffffffffffffffff1673ffffffffffffffffffffffffffffffffffffffff168152602001908152602001600020600101858280546139b89061597a565b80601f01602080910402602001604051908101604052809291908181526020018280546139e49061597a565b8015613a315780601f10613a0657610100808354040283529160200191613a31565b820191906000526020600020905b815481529060010190602001808311613a1457829003601f168201915b50505050509250818054613a449061597a565b80601f0160208091040260200160405190810160405280929190818152602001828054613a709061597a565b8015613abd5780601f10613a9257610100808354040283529160200191613abd565b820191906000526020600020905b815481529060010190602001808311613aa057829003601f168201915b505050505091509250925092509193909250565b6060806000806000600960008773ffffffffffffffffffffffffffffffffffffffff1673ffffffffffffffffffffffffffffffffffffffff168152602001908152602001600020600001600960008873ffffffffffffffffffffffffffffffffffffffff1673ffffffffffffffffffffffffffffffffffffffff168152602001908152602001600020600101600960008973ffffffffffffffffffffffffffffffffffffffff1673ffffffffffffffffffffffffffffffffffffffff16815260200190815260200160002060020160009054906101000a900473ffffffffffffffffffffffffffffffffffffffff16613c0a600960008b73ffffffffffffffffffffffffffffffffffffffff1673ffffffffffffffffffffffffffffffffffffffff1681526020019081526020016000206004016142c4565b613c54600960008c73ffffffffffffffffffffffffffffffffffffffff1673ffffffffffffffffffffffffffffffffffffffff1681526020019081526020016000206003016142c4565b848054613c609061597a565b80601f0160208091040260200160405190810160405280929190818152602001828054613c8c9061597a565b8015613cd95780601f10613cae57610100808354040283529160200191613cd9565b820191906000526020600020905b815481529060010190602001808311613cbc57829003601f168201915b50505050509450838054613cec9061597a565b80601f0160208091040260200160405190810160405280929190818152602001828054613d189061597a565b8015613d655780601f10613d3a57610100808354040283529160200191613d65565b820191906000526020600020905b815481529060010190602001808311613d4857829003601f168201915b505050505093509450945094509450945091939590929450565b6000613d8b60036142c4565b905090565b613d9861489b565b600660008473ffffffffffffffffffffffffffffffffffffffff1673ffffffffffffffffffffffffffffffffffffffff168152602001908152602001600020600601600083815260200190815260200160002060405180606001604052908160008201548152602001600182018054613e109061597a565b80601f0160208091040260200160405190810160405280929190818152602001828054613e3c9061597a565b8015613e895780601f10613e5e57610100808354040283529160200191613e89565b820191906000526020600020905b815481529060010190602001808311613e6c57829003601f168201915b505050505081526020016002820160009054906101000a900460ff161515151581525050905092915050565b6000613ee17f56455249464945445f444f43544f52000000000000000000000000000000000083612bbf565b613f20576040517f08c379a0000000000000000000000000000000000000000000000000000000008152600401613f179061562a565b60405180910390fd5b600660008473ffffffffffffffffffffffffffffffffffffffff1673ffffffffffffffffffffffffffffffffffffffff1681526020019081526020016000206005016000815480929190613f73906159dd565b9190505550600660008473ffffffffffffffffffffffffffffffffffffffff1673ffffffffffffffffffffffffffffffffffffffff16815260200190815260200160002060050154600660008573ffffffffffffffffffffffffffffffffffffffff1673ffffffffffffffffffffffffffffffffffffffff16815260200190815260200160002060050181905550600660008473ffffffffffffffffffffffffffffffffffffffff1673ffffffffffffffffffffffffffffffffffffffff16815260200190815260200160002060050154600660008573ffffffffffffffffffffffffffffffffffffffff1673ffffffffffffffffffffffffffffffffffffffff1681526020019081526020016000206006016000600660008773ffffffffffffffffffffffffffffffffffffffff1673ffffffffffffffffffffffffffffffffffffffff1681526020019081526020016000206005015481526020019081526020016000206000018190555083600660008573ffffffffffffffffffffffffffffffffffffffff1673ffffffffffffffffffffffffffffffffffffffff1681526020019081526020016000206006016000600660008773ffffffffffffffffffffffffffffffffffffffff1673ffffffffffffffffffffffffffffffffffffffff168152602001908152602001600020600501548152602001908152602001600020600101908051906020019061418c9291906147f4565b506001600660008573ffffffffffffffffffffffffffffffffffffffff1673ffffffffffffffffffffffffffffffffffffffff1681526020019081526020016000206006016000600660008773ffffffffffffffffffffffffffffffffffffffff1673ffffffffffffffffffffffffffffffffffffffff16815260200190815260200160002060050154815260200190815260200160002060020160006101000a81548160ff021916908315150217905550600190509392505050565b600061425560046142c4565b905090565b60007f01ffc9a7000000000000000000000000000000000000000000000000000000007bffffffffffffffffffffffffffffffffffffffffffffffffffffffff1916827bffffffffffffffffffffffffffffffffffffffffffffffffffffffff1916149050919050565b600081600001549050919050565b6142dc828261439b565b5050565b6001816000016000828254019250508190555050565b600033905090565b6143088282612bbf565b6143975761432d8173ffffffffffffffffffffffffffffffffffffffff1660146145b8565b61433b8360001c60206145b8565b60405160200161434c9291906153c5565b6040516020818303038152906040526040517f08c379a000000000000000000000000000000000000000000000000000000000815260040161438e919061545e565b60405180910390fd5b5050565b6143a58282612bbf565b61447757600160008084815260200190815260200160002060000160008373ffffffffffffffffffffffffffffffffffffffff1673ffffffffffffffffffffffffffffffffffffffff16815260200190815260200160002060006101000a81548160ff02191690831515021790555061441c6142f6565b73ffffffffffffffffffffffffffffffffffffffff168173ffffffffffffffffffffffffffffffffffffffff16837f2f8788117e7eff1d82e926ec794901d17c78024a50270940304540a733656f0d60405160405180910390a45b5050565b6144858282612bbf565b1561455857600080600084815260200190815260200160002060000160008373ffffffffffffffffffffffffffffffffffffffff1673ffffffffffffffffffffffffffffffffffffffff16815260200190815260200160002060006101000a81548160ff0219169083151502179055506144fd6142f6565b73ffffffffffffffffffffffffffffffffffffffff168173ffffffffffffffffffffffffffffffffffffffff16837ff6391f5c32d9c69d2a47ea670b442974b53935d1edc7fd64eb21e047a839171b60405160405180910390a45b5050565b600081600001549050600081116145a8576040517f08c379a000000000000000000000000000000000000000000000000000000000815260040161459f9061564a565b60405180910390fd5b6001810382600001819055505050565b6060600060028360026145cb9190615812565b6145d591906157bc565b67ffffffffffffffff8111156145ee576145ed615ab3565b5b6040519080825280601f01601f1916602001820160405280156146205781602001600182028036833780820191505090505b5090507f30000000000000000000000000000000000000000000000000000000000000008160008151811061465857614657615a84565b5b60200101907effffffffffffffffffffffffffffffffffffffffffffffffffffffffffffff1916908160001a9053507f7800000000000000000000000000000000000000000000000000000000000000816001815181106146bc576146bb615a84565b5b60200101907effffffffffffffffffffffffffffffffffffffffffffffffffffffffffffff1916908160001a905350600060018460026146fc9190615812565b61470691906157bc565b90505b60018111156147a6577f3031323334353637383961626364656600000000000000000000000000000000600f86166010811061474857614747615a84565b5b1a60f81b82828151811061475f5761475e615a84565b5b60200101907effffffffffffffffffffffffffffffffffffffffffffffffffffffffffffff1916908160001a905350600485901c94508061479f90615950565b9050614709565b50600084146147ea576040517f08c379a00000000000000000000000000000000000000000000000000000000081526004016147e19061560a565b60405180910390fd5b8091505092915050565b8280546148009061597a565b90600052602060002090601f0160209004810192826148225760008555614869565b82601f1061483b57805160ff1916838001178555614869565b82800160010185558215614869579182015b8281111561486857825182559160200191906001019061484d565b5b50905061487691906148be565b5090565b60405180606001604052806000815260200160608152602001606081525090565b604051806060016040528060008152602001606081526020016000151581525090565b5b808211156148d75760008160009055506001016148bf565b5090565b60006148ee6148e984615753565b61572e565b90508281526020810184848401111561490a57614909615ae7565b5b61491584828561590e565b509392505050565b60008135905061492c81615c23565b92915050565b60008135905061494181615c3a565b92915050565b60008151905061495681615c3a565b92915050565b60008135905061496b81615c51565b92915050565b60008151905061498081615c51565b92915050565b60008135905061499581615c68565b92915050565b6000813590506149aa81615c7f565b92915050565b600082601f8301126149c5576149c4615ae2565b5b81356149d58482602086016148db565b91505092915050565b6000813590506149ed81615c96565b92915050565b600060208284031215614a0957614a08615af1565b5b6000614a178482850161491d565b91505092915050565b600080600060608486031215614a3957614a38615af1565b5b6000614a478682870161491d565b9350506020614a588682870161491d565b9250506040614a698682870161491d565b9150509250925092565b600080600060608486031215614a8c57614a8b615af1565b5b6000614a9a8682870161491d565b9350506020614aab8682870161491d565b925050604084013567ffffffffffffffff811115614acc57614acb615aec565b5b614ad8868287016149b0565b9150509250925092565b60008060008060808587031215614afc57614afb615af1565b5b6000614b0a8782880161491d565b9450506020614b1b8782880161491d565b935050604085013567ffffffffffffffff811115614b3c57614b3b615aec565b5b614b48878288016149b0565b9250506060614b59878288016149de565b91505092959194509250565b60008060408385031215614b7c57614b7b615af1565b5b6000614b8a8582860161491d565b9250506020614b9b858286016149de565b9150509250929050565b600060208284031215614bbb57614bba615af1565b5b6000614bc984828501614947565b91505092915050565b600060208284031215614be857614be7615af1565b5b6000614bf68482850161495c565b91505092915050565b600060208284031215614c1557614c14615af1565b5b6000614c2384828501614971565b91505092915050565b60008060408385031215614c4357614c42615af1565b5b6000614c518582860161495c565b9250506020614c628582860161491d565b9150509250929050565b600060208284031215614c8257614c81615af1565b5b6000614c9084828501614986565b91505092915050565b600060208284031215614caf57614cae615af1565b5b6000614cbd8482850161499b565b91505092915050565b600060208284031215614cdc57614cdb615af1565b5b600082013567ffffffffffffffff811115614cfa57614cf9615aec565b5b614d06848285016149b0565b91505092915050565b60008060408385031215614d2657614d25615af1565b5b600083013567ffffffffffffffff811115614d4457614d43615aec565b5b614d50858286016149b0565b9250506020614d618582860161491d565b9150509250929050565b600080600060608486031215614d8457614d83615af1565b5b600084013567ffffffffffffffff811115614da257614da1615aec565b5b614dae868287016149b0565b9350506020614dbf8682870161491d565b9250506040614dd08682870161491d565b9150509250925092565b60008060008060808587031215614df457614df3615af1565b5b600085013567ffffffffffffffff811115614e1257614e11615aec565b5b614e1e878288016149b0565b9450506020614e2f8782880161491d565b9350506040614e408782880161491d565b925050606085013567ffffffffffffffff811115614e6157614e60615aec565b5b614e6d878288016149b0565b91505092959194509250565b600080600060608486031215614e9257614e91615af1565b5b600084013567ffffffffffffffff811115614eb057614eaf615aec565b5b614ebc868287016149b0565b935050602084013567ffffffffffffffff811115614edd57614edc615aec565b5b614ee9868287016149b0565b9250506040614efa8682870161491d565b9150509250925092565b60008060008060808587031215614f1e57614f1d615af1565b5b600085013567ffffffffffffffff811115614f3c57614f3b615aec565b5b614f48878288016149b0565b945050602085013567ffffffffffffffff811115614f6957614f68615aec565b5b614f75878288016149b0565b9350506040614f868782880161491d565b9250506060614f978782880161491d565b91505092959194509250565b600080600080600060a08688031215614fbf57614fbe615af1565b5b600086013567ffffffffffffffff811115614fdd57614fdc615aec565b5b614fe9888289016149b0565b955050602086013567ffffffffffffffff81111561500a57615009615aec565b5b615016888289016149b0565b94505060406150278882890161491d565b93505060606150388882890161491d565b92505060806150498882890161491d565b9150509295509295909350565b600080600080608085870312156150705761506f615af1565b5b600061507e878288016149de565b945050602061508f8782880161491d565b93505060406150a08782880161491d565b92505060606150b187828801614932565b91505092959194509250565b600080600080608085870312156150d7576150d6615af1565b5b60006150e5878288016149de565b94505060206150f68782880161491d565b93505060406151078782880161491d565b925050606085013567ffffffffffffffff81111561512857615127615aec565b5b615134878288016149b0565b91505092959194509250565b6151498161586c565b82525050565b6151588161587e565b82525050565b6151678161587e565b82525050565b6151768161588a565b82525050565b615185816158fc565b82525050565b600061519682615784565b6151a0818561578f565b93506151b081856020860161591d565b6151b981615af6565b840191505092915050565b60006151cf82615784565b6151d981856157a0565b93506151e981856020860161591d565b6151f281615af6565b840191505092915050565b600061520882615784565b61521281856157b1565b935061522281856020860161591d565b80840191505092915050565b600061523b6020836157a0565b915061524682615b07565b602082019050919050565b600061525e6003836157a0565b915061526982615b30565b602082019050919050565b6000615281601b836157a0565b915061528c82615b59565b602082019050919050565b60006152a46017836157b1565b91506152af82615b82565b601782019050919050565b60006152c76011836157b1565b91506152d282615bab565b601182019050919050565b60006152ea602f836157a0565b91506152f582615bd4565b604082019050919050565b600060608301600083015161531860008601826153a7565b5060208301518482036020860152615330828261518b565b9150506040830151615345604086018261514f565b508091505092915050565b600060608301600083015161536860008601826153a7565b5060208301518482036020860152615380828261518b565b9150506040830151848203604086015261539a828261518b565b9150508091505092915050565b6153b0816158f2565b82525050565b6153bf816158f2565b82525050565b60006153d082615297565b91506153dc82856151fd565b91506153e7826152ba565b91506153f382846151fd565b91508190509392505050565b60006040820190506154146000830185615140565b615421602083018461517c565b9392505050565b600060208201905061543d600083018461515e565b92915050565b6000602082019050615458600083018461516d565b92915050565b6000602082019050818103600083015261547881846151c4565b905092915050565b6000604082019050818103600083015261549a81856151c4565b90506154a96020830184615140565b9392505050565b600060608201905081810360008301526154ca81866151c4565b905081810360208301526154de81856151c4565b90506154ed6040830184615140565b949350505050565b6000608082019050818103600083015261550f81876151c4565b9050818103602083015261552381866151c4565b90506155326040830185615140565b61553f6060830184615140565b95945050505050565b600060a082019050818103600083015261556281886151c4565b9050818103602083015261557681876151c4565b90506155856040830186615140565b61559260608301856153b6565b61559f6080830184615140565b9695505050505050565b600060a08201905081810360008301526155c381886151c4565b905081810360208301526155d781876151c4565b90506155e66040830186615140565b6155f360608301856153b6565b61560060808301846153b6565b9695505050505050565b600060208201905081810360008301526156238161522e565b9050919050565b6000602082019050818103600083015261564381615251565b9050919050565b6000602082019050818103600083015261566381615274565b9050919050565b60006020820190508181036000830152615683816152dd565b9050919050565b600060208201905081810360008301526156a48184615300565b905092915050565b600060208201905081810360008301526156c68184615350565b905092915050565b60006020820190506156e360008301846153b6565b92915050565b60006080820190506156fe60008301876153b6565b61570b60208301866153b6565b61571860408301856153b6565b61572560608301846153b6565b95945050505050565b6000615738615749565b905061574482826159ac565b919050565b6000604051905090565b600067ffffffffffffffff82111561576e5761576d615ab3565b5b61577782615af6565b9050602081019050919050565b600081519050919050565b600082825260208201905092915050565b600082825260208201905092915050565b600081905092915050565b60006157c7826158f2565b91506157d2836158f2565b9250827fffffffffffffffffffffffffffffffffffffffffffffffffffffffffffffffff0382111561580757615806615a26565b5b828201905092915050565b600061581d826158f2565b9150615828836158f2565b9250817fffffffffffffffffffffffffffffffffffffffffffffffffffffffffffffffff048311821515161561586157615860615a26565b5b828202905092915050565b6000615877826158d2565b9050919050565b60008115159050919050565b6000819050919050565b60007fffffffff0000000000000000000000000000000000000000000000000000000082169050919050565b60006158cb8261586c565b9050919050565b600073ffffffffffffffffffffffffffffffffffffffff82169050919050565b6000819050919050565b6000615907826158f2565b9050919050565b82818337600083830152505050565b60005b8381101561593b578082015181840152602081019050615920565b8381111561594a576000848401525b50505050565b600061595b826158f2565b9150600082141561596f5761596e615a26565b5b600182039050919050565b6000600282049050600182168061599257607f821691505b602082108114156159a6576159a5615a55565b5b50919050565b6159b582615af6565b810181811067ffffffffffffffff821117156159d4576159d3615ab3565b5b80604052505050565b60006159e8826158f2565b91507fffffffffffffffffffffffffffffffffffffffffffffffffffffffffffffffff821415615a1b57615a1a615a26565b5b600182019050919050565b7f4e487b7100000000000000000000000000000000000000000000000000000000600052601160045260246000fd5b7f4e487b7100000000000000000000000000000000000000000000000000000000600052602260045260246000fd5b7f4e487b7100000000000000000000000000000000000000000000000000000000600052603260045260246000fd5b7f4e487b7100000000000000000000000000000000000000000000000000000000600052604160045260246000fd5b600080fd5b600080fd5b600080fd5b600080fd5b6000601f19601f8301169050919050565b7f537472696e67733a20686578206c656e67746820696e73756666696369656e74600082015250565b7f524e470000000000000000000000000000000000000000000000000000000000600082015250565b7f436f756e7465723a2064656372656d656e74206f766572666c6f770000000000600082015250565b7f416363657373436f6e74726f6c3a206163636f756e7420000000000000000000600082015250565b7f206973206d697373696e6720726f6c6520000000000000000000000000000000600082015250565b7f416363657373436f6e74726f6c3a2063616e206f6e6c792072656e6f756e636560008201527f20726f6c657320666f722073656c660000000000000000000000000000000000602082015250565b615c2c8161586c565b8114615c3757600080fd5b50565b615c438161587e565b8114615c4e57600080fd5b50565b615c5a8161588a565b8114615c6557600080fd5b50565b615c7181615894565b8114615c7c57600080fd5b50565b615c88816158c0565b8114615c9357600080fd5b50565b615c9f816158f2565b8114615caa57600080fd5b5056fea2646970667358221220023e8bf4d1584d2bbb1634af8bd9fefcdd74487fcab5a4e2227e76a389af0bd364736f6c63430008070033",
			"opcodes": "PUSH1 0x80 PUSH1 0x40 MSTORE CALLVALUE DUP1 ISZERO PUSH3 0x11 JUMPI PUSH1 0x0 DUP1 REVERT JUMPDEST POP PUSH3 0x27 PUSH1 0x0 DUP1 SHL CALLER PUSH3 0x2D PUSH1 0x20 SHL PUSH1 0x20 SHR JUMP JUMPDEST PUSH3 0x1A6 JUMP JUMPDEST PUSH3 0x3F DUP3 DUP3 PUSH3 0x43 PUSH1 0x20 SHL PUSH1 0x20 SHR JUMP JUMPDEST POP POP JUMP JUMPDEST PUSH3 0x55 DUP3 DUP3 PUSH3 0x134 PUSH1 0x20 SHL PUSH1 0x20 SHR JUMP JUMPDEST PUSH3 0x130 JUMPI PUSH1 0x1 PUSH1 0x0 DUP1 DUP5 DUP2 MSTORE PUSH1 0x20 ADD SWAP1 DUP2 MSTORE PUSH1 0x20 ADD PUSH1 0x0 KECCAK256 PUSH1 0x0 ADD PUSH1 0x0 DUP4 PUSH20 0xFFFFFFFFFFFFFFFFFFFFFFFFFFFFFFFFFFFFFFFF AND PUSH20 0xFFFFFFFFFFFFFFFFFFFFFFFFFFFFFFFFFFFFFFFF AND DUP2 MSTORE PUSH1 0x20 ADD SWAP1 DUP2 MSTORE PUSH1 0x20 ADD PUSH1 0x0 KECCAK256 PUSH1 0x0 PUSH2 0x100 EXP DUP2 SLOAD DUP2 PUSH1 0xFF MUL NOT AND SWAP1 DUP4 ISZERO ISZERO MUL OR SWAP1 SSTORE POP PUSH3 0xD5 PUSH3 0x19E PUSH1 0x20 SHL PUSH1 0x20 SHR JUMP JUMPDEST PUSH20 0xFFFFFFFFFFFFFFFFFFFFFFFFFFFFFFFFFFFFFFFF AND DUP2 PUSH20 0xFFFFFFFFFFFFFFFFFFFFFFFFFFFFFFFFFFFFFFFF AND DUP4 PUSH32 0x2F8788117E7EFF1D82E926EC794901D17C78024A50270940304540A733656F0D PUSH1 0x40 MLOAD PUSH1 0x40 MLOAD DUP1 SWAP2 SUB SWAP1 LOG4 JUMPDEST POP POP JUMP JUMPDEST PUSH1 0x0 DUP1 PUSH1 0x0 DUP5 DUP2 MSTORE PUSH1 0x20 ADD SWAP1 DUP2 MSTORE PUSH1 0x20 ADD PUSH1 0x0 KECCAK256 PUSH1 0x0 ADD PUSH1 0x0 DUP4 PUSH20 0xFFFFFFFFFFFFFFFFFFFFFFFFFFFFFFFFFFFFFFFF AND PUSH20 0xFFFFFFFFFFFFFFFFFFFFFFFFFFFFFFFFFFFFFFFF AND DUP2 MSTORE PUSH1 0x20 ADD SWAP1 DUP2 MSTORE PUSH1 0x20 ADD PUSH1 0x0 KECCAK256 PUSH1 0x0 SWAP1 SLOAD SWAP1 PUSH2 0x100 EXP SWAP1 DIV PUSH1 0xFF AND SWAP1 POP SWAP3 SWAP2 POP POP JUMP JUMPDEST PUSH1 0x0 CALLER SWAP1 POP SWAP1 JUMP JUMPDEST PUSH2 0x5CE3 DUP1 PUSH3 0x1B6 PUSH1 0x0 CODECOPY PUSH1 0x0 RETURN INVALID PUSH1 0x80 PUSH1 0x40 MSTORE CALLVALUE DUP1 ISZERO PUSH2 0x10 JUMPI PUSH1 0x0 DUP1 REVERT JUMPDEST POP PUSH1 0x4 CALLDATASIZE LT PUSH2 0x27F JUMPI PUSH1 0x0 CALLDATALOAD PUSH1 0xE0 SHR DUP1 PUSH4 0x7F8354F8 GT PUSH2 0x15C JUMPI DUP1 PUSH4 0xCDCA8F7C GT PUSH2 0xCE JUMPI DUP1 PUSH4 0xE21EADCC GT PUSH2 0x87 JUMPI DUP1 PUSH4 0xE21EADCC EQ PUSH2 0x91E JUMPI DUP1 PUSH4 0xE8300B1D EQ PUSH2 0x950 JUMPI DUP1 PUSH4 0xEDAE7FB5 EQ PUSH2 0x984 JUMPI DUP1 PUSH4 0xEEA9C37B EQ PUSH2 0x9A2 JUMPI DUP1 PUSH4 0xF1628E9E EQ PUSH2 0x9D2 JUMPI DUP1 PUSH4 0xF98D5D25 EQ PUSH2 0xA02 JUMPI PUSH2 0x27F JUMP JUMPDEST DUP1 PUSH4 0xCDCA8F7C EQ PUSH2 0x826 JUMPI DUP1 PUSH4 0xCE65E5E3 EQ PUSH2 0x856 JUMPI DUP1 PUSH4 0xD3A77308 EQ PUSH2 0x886 JUMPI DUP1 PUSH4 0xD547741F EQ PUSH2 0x8A2 JUMPI DUP1 PUSH4 0xD6E7B3F0 EQ PUSH2 0x8BE JUMPI DUP1 PUSH4 0xDFA1645E EQ PUSH2 0x8EE JUMPI PUSH2 0x27F JUMP JUMPDEST DUP1 PUSH4 0xA217FDDF GT PUSH2 0x120 JUMPI DUP1 PUSH4 0xA217FDDF EQ PUSH2 0x718 JUMPI DUP1 PUSH4 0xA4BE9E6A EQ PUSH2 0x736 JUMPI DUP1 PUSH4 0xA84CEAB7 EQ PUSH2 0x766 JUMPI DUP1 PUSH4 0xA9909DB9 EQ PUSH2 0x796 JUMPI DUP1 PUSH4 0xC12878C3 EQ PUSH2 0x7C6 JUMPI DUP1 PUSH4 0xC99EAD64 EQ PUSH2 0x7F6 JUMPI PUSH2 0x27F JUMP JUMPDEST DUP1 PUSH4 0x7F8354F8 EQ PUSH2 0x628 JUMPI DUP1 PUSH4 0x8A15D9DF EQ PUSH2 0x658 JUMPI DUP1 PUSH4 0x8B55BEFC EQ PUSH2 0x688 JUMPI DUP1 PUSH4 0x8EFC2838 EQ PUSH2 0x6B8 JUMPI DUP1 PUSH4 0x91D14854 EQ PUSH2 0x6E8 JUMPI PUSH2 0x27F JUMP JUMPDEST DUP1 PUSH4 0x36568ABE GT PUSH2 0x1F5 JUMPI DUP1 PUSH4 0x5BF9C0E3 GT PUSH2 0x1B9 JUMPI DUP1 PUSH4 0x5BF9C0E3 EQ PUSH2 0x53D JUMPI DUP1 PUSH4 0x5C7231EF EQ PUSH2 0x56D JUMPI DUP1 PUSH4 0x60587E59 EQ PUSH2 0x59D JUMPI DUP1 PUSH4 0x6DACA1EE EQ PUSH2 0x5B9 JUMPI DUP1 PUSH4 0x73E830B4 EQ PUSH2 0x5DA JUMPI DUP1 PUSH4 0x7D379853 EQ PUSH2 0x5F8 JUMPI PUSH2 0x27F JUMP JUMPDEST DUP1 PUSH4 0x36568ABE EQ PUSH2 0x475 JUMPI DUP1 PUSH4 0x396C07AE EQ PUSH2 0x491 JUMPI DUP1 PUSH4 0x3E99344A EQ PUSH2 0x4AD JUMPI DUP1 PUSH4 0x45118D8E EQ PUSH2 0x4DD JUMPI DUP1 PUSH4 0x4EDF897F EQ PUSH2 0x50D JUMPI PUSH2 0x27F JUMP JUMPDEST DUP1 PUSH4 0x16D8B45B GT PUSH2 0x247 JUMPI DUP1 PUSH4 0x16D8B45B EQ PUSH2 0x362 JUMPI DUP1 PUSH4 0x247E99A8 EQ PUSH2 0x395 JUMPI DUP1 PUSH4 0x248A9CA3 EQ PUSH2 0x3C5 JUMPI DUP1 PUSH4 0x28702668 EQ PUSH2 0x3F5 JUMPI DUP1 PUSH4 0x2E8FF13C EQ PUSH2 0x425 JUMPI DUP1 PUSH4 0x2F2FF15D EQ PUSH2 0x459 JUMPI PUSH2 0x27F JUMP JUMPDEST DUP1 PUSH4 0x1FFC9A7 EQ PUSH2 0x284 JUMPI DUP1 PUSH4 0x27F66A1 EQ PUSH2 0x2B4 JUMPI DUP1 PUSH4 0xA086B15 EQ PUSH2 0x2E4 JUMPI DUP1 PUSH4 0xB600345 EQ PUSH2 0x302 JUMPI DUP1 PUSH4 0x149E1957 EQ PUSH2 0x332 JUMPI JUMPDEST PUSH1 0x0 DUP1 REVERT JUMPDEST PUSH2 0x29E PUSH1 0x4 DUP1 CALLDATASIZE SUB DUP2 ADD SWAP1 PUSH2 0x299 SWAP2 SWAP1 PUSH2 0x4C6C JUMP JUMPDEST PUSH2 0xA20 JUMP JUMPDEST PUSH1 0x40 MLOAD PUSH2 0x2AB SWAP2 SWAP1 PUSH2 0x5428 JUMP JUMPDEST PUSH1 0x40 MLOAD DUP1 SWAP2 SUB SWAP1 RETURN JUMPDEST PUSH2 0x2CE PUSH1 0x4 DUP1 CALLDATASIZE SUB DUP2 ADD SWAP1 PUSH2 0x2C9 SWAP2 SWAP1 PUSH2 0x4CC6 JUMP JUMPDEST PUSH2 0xA9A JUMP JUMPDEST PUSH1 0x40 MLOAD PUSH2 0x2DB SWAP2 SWAP1 PUSH2 0x5443 JUMP JUMPDEST PUSH1 0x40 MLOAD DUP1 SWAP2 SUB SWAP1 RETURN JUMPDEST PUSH2 0x2EC PUSH2 0xAC4 JUMP JUMPDEST PUSH1 0x40 MLOAD PUSH2 0x2F9 SWAP2 SWAP1 PUSH2 0x56CE JUMP JUMPDEST PUSH1 0x40 MLOAD DUP1 SWAP2 SUB SWAP1 RETURN JUMPDEST PUSH2 0x31C PUSH1 0x4 DUP1 CALLDATASIZE SUB DUP2 ADD SWAP1 PUSH2 0x317 SWAP2 SWAP1 PUSH2 0x4E79 JUMP JUMPDEST PUSH2 0xAD5 JUMP JUMPDEST PUSH1 0x40 MLOAD PUSH2 0x329 SWAP2 SWAP1 PUSH2 0x5428 JUMP JUMPDEST PUSH1 0x40 MLOAD DUP1 SWAP2 SUB SWAP1 RETURN JUMPDEST PUSH2 0x34C PUSH1 0x4 DUP1 CALLDATASIZE SUB DUP2 ADD SWAP1 PUSH2 0x347 SWAP2 SWAP1 PUSH2 0x4D0F JUMP JUMPDEST PUSH2 0xD81 JUMP JUMPDEST PUSH1 0x40 MLOAD PUSH2 0x359 SWAP2 SWAP1 PUSH2 0x5428 JUMP JUMPDEST PUSH1 0x40 MLOAD DUP1 SWAP2 SUB SWAP1 RETURN JUMPDEST PUSH2 0x37C PUSH1 0x4 DUP1 CALLDATASIZE SUB DUP2 ADD SWAP1 PUSH2 0x377 SWAP2 SWAP1 PUSH2 0x49F3 JUMP JUMPDEST PUSH2 0x1114 JUMP JUMPDEST PUSH1 0x40 MLOAD PUSH2 0x38C SWAP5 SWAP4 SWAP3 SWAP2 SWAP1 PUSH2 0x54F5 JUMP JUMPDEST PUSH1 0x40 MLOAD DUP1 SWAP2 SUB SWAP1 RETURN JUMPDEST PUSH2 0x3AF PUSH1 0x4 DUP1 CALLDATASIZE SUB DUP2 ADD SWAP1 PUSH2 0x3AA SWAP2 SWAP1 PUSH2 0x49F3 JUMP JUMPDEST PUSH2 0x138B JUMP JUMPDEST PUSH1 0x40 MLOAD PUSH2 0x3BC SWAP2 SWAP1 PUSH2 0x56CE JUMP JUMPDEST PUSH1 0x40 MLOAD DUP1 SWAP2 SUB SWAP1 RETURN JUMPDEST PUSH2 0x3DF PUSH1 0x4 DUP1 CALLDATASIZE SUB DUP2 ADD SWAP1 PUSH2 0x3DA SWAP2 SWAP1 PUSH2 0x4BD2 JUMP JUMPDEST PUSH2 0x13D7 JUMP JUMPDEST PUSH1 0x40 MLOAD PUSH2 0x3EC SWAP2 SWAP1 PUSH2 0x5443 JUMP JUMPDEST PUSH1 0x40 MLOAD DUP1 SWAP2 SUB SWAP1 RETURN JUMPDEST PUSH2 0x40F PUSH1 0x4 DUP1 CALLDATASIZE SUB DUP2 ADD SWAP1 PUSH2 0x40A SWAP2 SWAP1 PUSH2 0x4AE2 JUMP JUMPDEST PUSH2 0x13F6 JUMP JUMPDEST PUSH1 0x40 MLOAD PUSH2 0x41C SWAP2 SWAP1 PUSH2 0x5428 JUMP JUMPDEST PUSH1 0x40 MLOAD DUP1 SWAP2 SUB SWAP1 RETURN JUMPDEST PUSH2 0x43F PUSH1 0x4 DUP1 CALLDATASIZE SUB DUP2 ADD SWAP1 PUSH2 0x43A SWAP2 SWAP1 PUSH2 0x49F3 JUMP JUMPDEST PUSH2 0x14D8 JUMP JUMPDEST PUSH1 0x40 MLOAD PUSH2 0x450 SWAP6 SWAP5 SWAP4 SWAP3 SWAP2 SWAP1 PUSH2 0x5548 JUMP JUMPDEST PUSH1 0x40 MLOAD DUP1 SWAP2 SUB SWAP1 RETURN JUMPDEST PUSH2 0x473 PUSH1 0x4 DUP1 CALLDATASIZE SUB DUP2 ADD SWAP1 PUSH2 0x46E SWAP2 SWAP1 PUSH2 0x4C2C JUMP JUMPDEST PUSH2 0x173D JUMP JUMPDEST STOP JUMPDEST PUSH2 0x48F PUSH1 0x4 DUP1 CALLDATASIZE SUB DUP2 ADD SWAP1 PUSH2 0x48A SWAP2 SWAP1 PUSH2 0x4C2C JUMP JUMPDEST PUSH2 0x1766 JUMP JUMPDEST STOP JUMPDEST PUSH2 0x4AB PUSH1 0x4 DUP1 CALLDATASIZE SUB DUP2 ADD SWAP1 PUSH2 0x4A6 SWAP2 SWAP1 PUSH2 0x4C99 JUMP JUMPDEST PUSH2 0x17E9 JUMP JUMPDEST STOP JUMPDEST PUSH2 0x4C7 PUSH1 0x4 DUP1 CALLDATASIZE SUB DUP2 ADD SWAP1 PUSH2 0x4C2 SWAP2 SWAP1 PUSH2 0x50BD JUMP JUMPDEST PUSH2 0x182D JUMP JUMPDEST PUSH1 0x40 MLOAD PUSH2 0x4D4 SWAP2 SWAP1 PUSH2 0x5428 JUMP JUMPDEST PUSH1 0x40 MLOAD DUP1 SWAP2 SUB SWAP1 RETURN JUMPDEST PUSH2 0x4F7 PUSH1 0x4 DUP1 CALLDATASIZE SUB DUP2 ADD SWAP1 PUSH2 0x4F2 SWAP2 SWAP1 PUSH2 0x4A20 JUMP JUMPDEST PUSH2 0x197E JUMP JUMPDEST PUSH1 0x40 MLOAD PUSH2 0x504 SWAP2 SWAP1 PUSH2 0x5428 JUMP JUMPDEST PUSH1 0x40 MLOAD DUP1 SWAP2 SUB SWAP1 RETURN JUMPDEST PUSH2 0x527 PUSH1 0x4 DUP1 CALLDATASIZE SUB DUP2 ADD SWAP1 PUSH2 0x522 SWAP2 SWAP1 PUSH2 0x4F04 JUMP JUMPDEST PUSH2 0x1AD3 JUMP JUMPDEST PUSH1 0x40 MLOAD PUSH2 0x534 SWAP2 SWAP1 PUSH2 0x5428 JUMP JUMPDEST PUSH1 0x40 MLOAD DUP1 SWAP2 SUB SWAP1 RETURN JUMPDEST PUSH2 0x557 PUSH1 0x4 DUP1 CALLDATASIZE SUB DUP2 ADD SWAP1 PUSH2 0x552 SWAP2 SWAP1 PUSH2 0x4D0F JUMP JUMPDEST PUSH2 0x1EB6 JUMP JUMPDEST PUSH1 0x40 MLOAD PUSH2 0x564 SWAP2 SWAP1 PUSH2 0x5428 JUMP JUMPDEST PUSH1 0x40 MLOAD DUP1 SWAP2 SUB SWAP1 RETURN JUMPDEST PUSH2 0x587 PUSH1 0x4 DUP1 CALLDATASIZE SUB DUP2 ADD SWAP1 PUSH2 0x582 SWAP2 SWAP1 PUSH2 0x4A20 JUMP JUMPDEST PUSH2 0x1F19 JUMP JUMPDEST PUSH1 0x40 MLOAD PUSH2 0x594 SWAP2 SWAP1 PUSH2 0x5428 JUMP JUMPDEST PUSH1 0x40 MLOAD DUP1 SWAP2 SUB SWAP1 RETURN JUMPDEST PUSH2 0x5B7 PUSH1 0x4 DUP1 CALLDATASIZE SUB DUP2 ADD SWAP1 PUSH2 0x5B2 SWAP2 SWAP1 PUSH2 0x4A73 JUMP JUMPDEST PUSH2 0x206E JUMP JUMPDEST STOP JUMPDEST PUSH2 0x5C1 PUSH2 0x2157 JUMP JUMPDEST PUSH1 0x40 MLOAD PUSH2 0x5D1 SWAP5 SWAP4 SWAP3 SWAP2 SWAP1 PUSH2 0x56E9 JUMP JUMPDEST PUSH1 0x40 MLOAD DUP1 SWAP2 SUB SWAP1 RETURN JUMPDEST PUSH2 0x5E2 PUSH2 0x2193 JUMP JUMPDEST PUSH1 0x40 MLOAD PUSH2 0x5EF SWAP2 SWAP1 PUSH2 0x56CE JUMP JUMPDEST PUSH1 0x40 MLOAD DUP1 SWAP2 SUB SWAP1 RETURN JUMPDEST PUSH2 0x612 PUSH1 0x4 DUP1 CALLDATASIZE SUB DUP2 ADD SWAP1 PUSH2 0x60D SWAP2 SWAP1 PUSH2 0x4FA3 JUMP JUMPDEST PUSH2 0x21A4 JUMP JUMPDEST PUSH1 0x40 MLOAD PUSH2 0x61F SWAP2 SWAP1 PUSH2 0x5428 JUMP JUMPDEST PUSH1 0x40 MLOAD DUP1 SWAP2 SUB SWAP1 RETURN JUMPDEST PUSH2 0x642 PUSH1 0x4 DUP1 CALLDATASIZE SUB DUP2 ADD SWAP1 PUSH2 0x63D SWAP2 SWAP1 PUSH2 0x4DDA JUMP JUMPDEST PUSH2 0x26AA JUMP JUMPDEST PUSH1 0x40 MLOAD PUSH2 0x64F SWAP2 SWAP1 PUSH2 0x5428 JUMP JUMPDEST PUSH1 0x40 MLOAD DUP1 SWAP2 SUB SWAP1 RETURN JUMPDEST PUSH2 0x672 PUSH1 0x4 DUP1 CALLDATASIZE SUB DUP2 ADD SWAP1 PUSH2 0x66D SWAP2 SWAP1 PUSH2 0x49F3 JUMP JUMPDEST PUSH2 0x2A3B JUMP JUMPDEST PUSH1 0x40 MLOAD PUSH2 0x67F SWAP2 SWAP1 PUSH2 0x56CE JUMP JUMPDEST PUSH1 0x40 MLOAD DUP1 SWAP2 SUB SWAP1 RETURN JUMPDEST PUSH2 0x6A2 PUSH1 0x4 DUP1 CALLDATASIZE SUB DUP2 ADD SWAP1 PUSH2 0x69D SWAP2 SWAP1 PUSH2 0x49F3 JUMP JUMPDEST PUSH2 0x2A87 JUMP JUMPDEST PUSH1 0x40 MLOAD PUSH2 0x6AF SWAP2 SWAP1 PUSH2 0x56CE JUMP JUMPDEST PUSH1 0x40 MLOAD DUP1 SWAP2 SUB SWAP1 RETURN JUMPDEST PUSH2 0x6D2 PUSH1 0x4 DUP1 CALLDATASIZE SUB DUP2 ADD SWAP1 PUSH2 0x6CD SWAP2 SWAP1 PUSH2 0x5056 JUMP JUMPDEST PUSH2 0x2ADA JUMP JUMPDEST PUSH1 0x40 MLOAD PUSH2 0x6DF SWAP2 SWAP1 PUSH2 0x5428 JUMP JUMPDEST PUSH1 0x40 MLOAD DUP1 SWAP2 SUB SWAP1 RETURN JUMPDEST PUSH2 0x702 PUSH1 0x4 DUP1 CALLDATASIZE SUB DUP2 ADD SWAP1 PUSH2 0x6FD SWAP2 SWAP1 PUSH2 0x4C2C JUMP JUMPDEST PUSH2 0x2BBF JUMP JUMPDEST PUSH1 0x40 MLOAD PUSH2 0x70F SWAP2 SWAP1 PUSH2 0x5428 JUMP JUMPDEST PUSH1 0x40 MLOAD DUP1 SWAP2 SUB SWAP1 RETURN JUMPDEST PUSH2 0x720 PUSH2 0x2C29 JUMP JUMPDEST PUSH1 0x40 MLOAD PUSH2 0x72D SWAP2 SWAP1 PUSH2 0x5443 JUMP JUMPDEST PUSH1 0x40 MLOAD DUP1 SWAP2 SUB SWAP1 RETURN JUMPDEST PUSH2 0x750 PUSH1 0x4 DUP1 CALLDATASIZE SUB DUP2 ADD SWAP1 PUSH2 0x74B SWAP2 SWAP1 PUSH2 0x4B65 JUMP JUMPDEST PUSH2 0x2C30 JUMP JUMPDEST PUSH1 0x40 MLOAD PUSH2 0x75D SWAP2 SWAP1 PUSH2 0x56AC JUMP JUMPDEST PUSH1 0x40 MLOAD DUP1 SWAP2 SUB SWAP1 RETURN JUMPDEST PUSH2 0x780 PUSH1 0x4 DUP1 CALLDATASIZE SUB DUP2 ADD SWAP1 PUSH2 0x77B SWAP2 SWAP1 PUSH2 0x4A20 JUMP JUMPDEST PUSH2 0x2DCC JUMP JUMPDEST PUSH1 0x40 MLOAD PUSH2 0x78D SWAP2 SWAP1 PUSH2 0x5428 JUMP JUMPDEST PUSH1 0x40 MLOAD DUP1 SWAP2 SUB SWAP1 RETURN JUMPDEST PUSH2 0x7B0 PUSH1 0x4 DUP1 CALLDATASIZE SUB DUP2 ADD SWAP1 PUSH2 0x7AB SWAP2 SWAP1 PUSH2 0x4D0F JUMP JUMPDEST PUSH2 0x2F57 JUMP JUMPDEST PUSH1 0x40 MLOAD PUSH2 0x7BD SWAP2 SWAP1 PUSH2 0x5428 JUMP JUMPDEST PUSH1 0x40 MLOAD DUP1 SWAP2 SUB SWAP1 RETURN JUMPDEST PUSH2 0x7E0 PUSH1 0x4 DUP1 CALLDATASIZE SUB DUP2 ADD SWAP1 PUSH2 0x7DB SWAP2 SWAP1 PUSH2 0x49F3 JUMP JUMPDEST PUSH2 0x3054 JUMP JUMPDEST PUSH1 0x40 MLOAD PUSH2 0x7ED SWAP2 SWAP1 PUSH2 0x56CE JUMP JUMPDEST PUSH1 0x40 MLOAD DUP1 SWAP2 SUB SWAP1 RETURN JUMPDEST PUSH2 0x810 PUSH1 0x4 DUP1 CALLDATASIZE SUB DUP2 ADD SWAP1 PUSH2 0x80B SWAP2 SWAP1 PUSH2 0x4E79 JUMP JUMPDEST PUSH2 0x30A7 JUMP JUMPDEST PUSH1 0x40 MLOAD PUSH2 0x81D SWAP2 SWAP1 PUSH2 0x5428 JUMP JUMPDEST PUSH1 0x40 MLOAD DUP1 SWAP2 SUB SWAP1 RETURN JUMPDEST PUSH2 0x840 PUSH1 0x4 DUP1 CALLDATASIZE SUB DUP2 ADD SWAP1 PUSH2 0x83B SWAP2 SWAP1 PUSH2 0x4D0F JUMP JUMPDEST PUSH2 0x338D JUMP JUMPDEST PUSH1 0x40 MLOAD PUSH2 0x84D SWAP2 SWAP1 PUSH2 0x5428 JUMP JUMPDEST PUSH1 0x40 MLOAD DUP1 SWAP2 SUB SWAP1 RETURN JUMPDEST PUSH2 0x870 PUSH1 0x4 DUP1 CALLDATASIZE SUB DUP2 ADD SWAP1 PUSH2 0x86B SWAP2 SWAP1 PUSH2 0x4D0F JUMP JUMPDEST PUSH2 0x3459 JUMP JUMPDEST PUSH1 0x40 MLOAD PUSH2 0x87D SWAP2 SWAP1 PUSH2 0x5428 JUMP JUMPDEST PUSH1 0x40 MLOAD DUP1 SWAP2 SUB SWAP1 RETURN JUMPDEST PUSH2 0x8A0 PUSH1 0x4 DUP1 CALLDATASIZE SUB DUP2 ADD SWAP1 PUSH2 0x89B SWAP2 SWAP1 PUSH2 0x4A73 JUMP JUMPDEST PUSH2 0x34BC JUMP JUMPDEST STOP JUMPDEST PUSH2 0x8BC PUSH1 0x4 DUP1 CALLDATASIZE SUB DUP2 ADD SWAP1 PUSH2 0x8B7 SWAP2 SWAP1 PUSH2 0x4C2C JUMP JUMPDEST PUSH2 0x35A5 JUMP JUMPDEST STOP JUMPDEST PUSH2 0x8D8 PUSH1 0x4 DUP1 CALLDATASIZE SUB DUP2 ADD SWAP1 PUSH2 0x8D3 SWAP2 SWAP1 PUSH2 0x49F3 JUMP JUMPDEST PUSH2 0x35CE JUMP JUMPDEST PUSH1 0x40 MLOAD PUSH2 0x8E5 SWAP2 SWAP1 PUSH2 0x545E JUMP JUMPDEST PUSH1 0x40 MLOAD DUP1 SWAP2 SUB SWAP1 RETURN JUMPDEST PUSH2 0x908 PUSH1 0x4 DUP1 CALLDATASIZE SUB DUP2 ADD SWAP1 PUSH2 0x903 SWAP2 SWAP1 PUSH2 0x49F3 JUMP JUMPDEST PUSH2 0x37A1 JUMP JUMPDEST PUSH1 0x40 MLOAD PUSH2 0x915 SWAP2 SWAP1 PUSH2 0x545E JUMP JUMPDEST PUSH1 0x40 MLOAD DUP1 SWAP2 SUB SWAP1 RETURN JUMPDEST PUSH2 0x938 PUSH1 0x4 DUP1 CALLDATASIZE SUB DUP2 ADD SWAP1 PUSH2 0x933 SWAP2 SWAP1 PUSH2 0x49F3 JUMP JUMPDEST PUSH2 0x38B9 JUMP JUMPDEST PUSH1 0x40 MLOAD PUSH2 0x947 SWAP4 SWAP3 SWAP2 SWAP1 PUSH2 0x54B0 JUMP JUMPDEST PUSH1 0x40 MLOAD DUP1 SWAP2 SUB SWAP1 RETURN JUMPDEST PUSH2 0x96A PUSH1 0x4 DUP1 CALLDATASIZE SUB DUP2 ADD SWAP1 PUSH2 0x965 SWAP2 SWAP1 PUSH2 0x49F3 JUMP JUMPDEST PUSH2 0x3AD1 JUMP JUMPDEST PUSH1 0x40 MLOAD PUSH2 0x97B SWAP6 SWAP5 SWAP4 SWAP3 SWAP2 SWAP1 PUSH2 0x55A9 JUMP JUMPDEST PUSH1 0x40 MLOAD DUP1 SWAP2 SUB SWAP1 RETURN JUMPDEST PUSH2 0x98C PUSH2 0x3D7F JUMP JUMPDEST PUSH1 0x40 MLOAD PUSH2 0x999 SWAP2 SWAP1 PUSH2 0x56CE JUMP JUMPDEST PUSH1 0x40 MLOAD DUP1 SWAP2 SUB SWAP1 RETURN JUMPDEST PUSH2 0x9BC PUSH1 0x4 DUP1 CALLDATASIZE SUB DUP2 ADD SWAP1 PUSH2 0x9B7 SWAP2 SWAP1 PUSH2 0x4B65 JUMP JUMPDEST PUSH2 0x3D90 JUMP JUMPDEST PUSH1 0x40 MLOAD PUSH2 0x9C9 SWAP2 SWAP1 PUSH2 0x568A JUMP JUMPDEST PUSH1 0x40 MLOAD DUP1 SWAP2 SUB SWAP1 RETURN JUMPDEST PUSH2 0x9EC PUSH1 0x4 DUP1 CALLDATASIZE SUB DUP2 ADD SWAP1 PUSH2 0x9E7 SWAP2 SWAP1 PUSH2 0x4D6B JUMP JUMPDEST PUSH2 0x3EB5 JUMP JUMPDEST PUSH1 0x40 MLOAD PUSH2 0x9F9 SWAP2 SWAP1 PUSH2 0x5428 JUMP JUMPDEST PUSH1 0x40 MLOAD DUP1 SWAP2 SUB SWAP1 RETURN JUMPDEST PUSH2 0xA0A PUSH2 0x4249 JUMP JUMPDEST PUSH1 0x40 MLOAD PUSH2 0xA17 SWAP2 SWAP1 PUSH2 0x56CE JUMP JUMPDEST PUSH1 0x40 MLOAD DUP1 SWAP2 SUB SWAP1 RETURN JUMPDEST PUSH1 0x0 PUSH32 0x7965DB0B00000000000000000000000000000000000000000000000000000000 PUSH28 0xFFFFFFFFFFFFFFFFFFFFFFFFFFFFFFFFFFFFFFFFFFFFFFFFFFFFFFFF NOT AND DUP3 PUSH28 0xFFFFFFFFFFFFFFFFFFFFFFFFFFFFFFFFFFFFFFFFFFFFFFFFFFFFFFFF NOT AND EQ DUP1 PUSH2 0xA93 JUMPI POP PUSH2 0xA92 DUP3 PUSH2 0x425A JUMP JUMPDEST JUMPDEST SWAP1 POP SWAP2 SWAP1 POP JUMP JUMPDEST PUSH1 0x0 DUP1 DUP3 SWAP1 POP PUSH1 0x0 DUP2 MLOAD EQ ISZERO PUSH2 0xAB6 JUMPI PUSH1 0x0 DUP1 SHL SWAP2 POP POP PUSH2 0xABF JUMP JUMPDEST PUSH1 0x20 DUP4 ADD MLOAD SWAP2 POP POP JUMPDEST SWAP2 SWAP1 POP JUMP JUMPDEST PUSH1 0x0 PUSH2 0xAD0 PUSH1 0x5 PUSH2 0x42C4 JUMP JUMPDEST SWAP1 POP SWAP1 JUMP JUMPDEST PUSH1 0x0 PUSH2 0xAE4 PUSH1 0x0 DUP1 SHL DUP4 PUSH2 0x2BBF JUMP JUMPDEST ISZERO PUSH2 0xB7C JUMPI ADDRESS PUSH20 0xFFFFFFFFFFFFFFFFFFFFFFFFFFFFFFFFFFFFFFFF AND PUSH4 0x5BF9C0E3 DUP5 DUP5 PUSH1 0x40 MLOAD DUP4 PUSH4 0xFFFFFFFF AND PUSH1 0xE0 SHL DUP2 MSTORE PUSH1 0x4 ADD PUSH2 0xB24 SWAP3 SWAP2 SWAP1 PUSH2 0x5480 JUMP JUMPDEST PUSH1 0x20 PUSH1 0x40 MLOAD DUP1 DUP4 SUB DUP2 PUSH1 0x0 DUP8 DUP1 EXTCODESIZE ISZERO DUP1 ISZERO PUSH2 0xB3E JUMPI PUSH1 0x0 DUP1 REVERT JUMPDEST POP GAS CALL ISZERO DUP1 ISZERO PUSH2 0xB52 JUMPI RETURNDATASIZE PUSH1 0x0 DUP1 RETURNDATACOPY RETURNDATASIZE PUSH1 0x0 REVERT JUMPDEST POP POP POP POP PUSH1 0x40 MLOAD RETURNDATASIZE PUSH1 0x1F NOT PUSH1 0x1F DUP3 ADD AND DUP3 ADD DUP1 PUSH1 0x40 MSTORE POP DUP2 ADD SWAP1 PUSH2 0xB76 SWAP2 SWAP1 PUSH2 0x4BA5 JUMP JUMPDEST POP PUSH2 0xD76 JUMP JUMPDEST PUSH2 0xB89 PUSH1 0x0 DUP1 SHL DUP4 PUSH2 0x42D2 JUMP JUMPDEST PUSH1 0x1 PUSH1 0x0 SWAP1 SLOAD SWAP1 PUSH2 0x100 EXP SWAP1 DIV PUSH20 0xFFFFFFFFFFFFFFFFFFFFFFFFFFFFFFFFFFFFFFFF AND PUSH20 0xFFFFFFFFFFFFFFFFFFFFFFFFFFFFFFFFFFFFFFFF AND PUSH4 0x95EA7B3 DUP4 PUSH3 0x186A0 PUSH1 0x40 MLOAD DUP4 PUSH4 0xFFFFFFFF AND PUSH1 0xE0 SHL DUP2 MSTORE PUSH1 0x4 ADD PUSH2 0xBE9 SWAP3 SWAP2 SWAP1 PUSH2 0x53FF JUMP JUMPDEST PUSH1 0x20 PUSH1 0x40 MLOAD DUP1 DUP4 SUB DUP2 PUSH1 0x0 DUP8 DUP1 EXTCODESIZE ISZERO DUP1 ISZERO PUSH2 0xC03 JUMPI PUSH1 0x0 DUP1 REVERT JUMPDEST POP GAS CALL ISZERO DUP1 ISZERO PUSH2 0xC17 JUMPI RETURNDATASIZE PUSH1 0x0 DUP1 RETURNDATACOPY RETURNDATASIZE PUSH1 0x0 REVERT JUMPDEST POP POP POP POP PUSH1 0x40 MLOAD RETURNDATASIZE PUSH1 0x1F NOT PUSH1 0x1F DUP3 ADD AND DUP3 ADD DUP1 PUSH1 0x40 MSTORE POP DUP2 ADD SWAP1 PUSH2 0xC3B SWAP2 SWAP1 PUSH2 0x4BA5 JUMP JUMPDEST POP DUP4 PUSH1 0x9 PUSH1 0x0 DUP5 PUSH20 0xFFFFFFFFFFFFFFFFFFFFFFFFFFFFFFFFFFFFFFFF AND PUSH20 0xFFFFFFFFFFFFFFFFFFFFFFFFFFFFFFFFFFFFFFFF AND DUP2 MSTORE PUSH1 0x20 ADD SWAP1 DUP2 MSTORE PUSH1 0x20 ADD PUSH1 0x0 KECCAK256 PUSH1 0x0 ADD SWAP1 DUP1 MLOAD SWAP1 PUSH1 0x20 ADD SWAP1 PUSH2 0xC92 SWAP3 SWAP2 SWAP1 PUSH2 0x47F4 JUMP JUMPDEST POP DUP2 PUSH1 0x9 PUSH1 0x0 DUP5 PUSH20 0xFFFFFFFFFFFFFFFFFFFFFFFFFFFFFFFFFFFFFFFF AND PUSH20 0xFFFFFFFFFFFFFFFFFFFFFFFFFFFFFFFFFFFFFFFF AND DUP2 MSTORE PUSH1 0x20 ADD SWAP1 DUP2 MSTORE PUSH1 0x20 ADD PUSH1 0x0 KECCAK256 PUSH1 0x2 ADD PUSH1 0x0 PUSH2 0x100 EXP DUP2 SLOAD DUP2 PUSH20 0xFFFFFFFFFFFFFFFFFFFFFFFFFFFFFFFFFFFFFFFF MUL NOT AND SWAP1 DUP4 PUSH20 0xFFFFFFFFFFFFFFFFFFFFFFFFFFFFFFFFFFFFFFFF AND MUL OR SWAP1 SSTORE POP DUP3 PUSH1 0x9 PUSH1 0x0 DUP5 PUSH20 0xFFFFFFFFFFFFFFFFFFFFFFFFFFFFFFFFFFFFFFFF AND PUSH20 0xFFFFFFFFFFFFFFFFFFFFFFFFFFFFFFFFFFFFFFFF AND DUP2 MSTORE PUSH1 0x20 ADD SWAP1 DUP2 MSTORE PUSH1 0x20 ADD PUSH1 0x0 KECCAK256 PUSH1 0x1 ADD SWAP1 DUP1 MLOAD SWAP1 PUSH1 0x20 ADD SWAP1 PUSH2 0xD6A SWAP3 SWAP2 SWAP1 PUSH2 0x47F4 JUMP JUMPDEST POP PUSH2 0xD75 PUSH1 0x4 PUSH2 0x42E0 JUMP JUMPDEST JUMPDEST PUSH1 0x1 SWAP1 POP SWAP4 SWAP3 POP POP POP JUMP JUMPDEST PUSH1 0x0 PUSH2 0xDAD PUSH32 0x56455249464945445F50415449454E5400000000000000000000000000000000 DUP4 PUSH2 0x2BBF JUMP JUMPDEST PUSH2 0xDEC JUMPI PUSH1 0x40 MLOAD PUSH32 0x8C379A000000000000000000000000000000000000000000000000000000000 DUP2 MSTORE PUSH1 0x4 ADD PUSH2 0xDE3 SWAP1 PUSH2 0x562A JUMP JUMPDEST PUSH1 0x40 MLOAD DUP1 SWAP2 SUB SWAP1 REVERT JUMPDEST PUSH1 0x6 PUSH1 0x0 DUP4 PUSH20 0xFFFFFFFFFFFFFFFFFFFFFFFFFFFFFFFFFFFFFFFF AND PUSH20 0xFFFFFFFFFFFFFFFFFFFFFFFFFFFFFFFFFFFFFFFF AND DUP2 MSTORE PUSH1 0x20 ADD SWAP1 DUP2 MSTORE PUSH1 0x20 ADD PUSH1 0x0 KECCAK256 PUSH1 0x5 ADD PUSH1 0x0 DUP2 SLOAD DUP1 SWAP3 SWAP2 SWAP1 PUSH2 0xE3F SWAP1 PUSH2 0x59DD JUMP JUMPDEST SWAP2 SWAP1 POP SSTORE POP PUSH1 0x6 PUSH1 0x0 DUP4 PUSH20 0xFFFFFFFFFFFFFFFFFFFFFFFFFFFFFFFFFFFFFFFF AND PUSH20 0xFFFFFFFFFFFFFFFFFFFFFFFFFFFFFFFFFFFFFFFF AND DUP2 MSTORE PUSH1 0x20 ADD SWAP1 DUP2 MSTORE PUSH1 0x20 ADD PUSH1 0x0 KECCAK256 PUSH1 0x5 ADD SLOAD PUSH1 0x6 PUSH1 0x0 DUP5 PUSH20 0xFFFFFFFFFFFFFFFFFFFFFFFFFFFFFFFFFFFFFFFF AND PUSH20 0xFFFFFFFFFFFFFFFFFFFFFFFFFFFFFFFFFFFFFFFF AND DUP2 MSTORE PUSH1 0x20 ADD SWAP1 DUP2 MSTORE PUSH1 0x20 ADD PUSH1 0x0 KECCAK256 PUSH1 0x5 ADD DUP2 SWAP1 SSTORE POP PUSH1 0x6 PUSH1 0x0 DUP4 PUSH20 0xFFFFFFFFFFFFFFFFFFFFFFFFFFFFFFFFFFFFFFFF AND PUSH20 0xFFFFFFFFFFFFFFFFFFFFFFFFFFFFFFFFFFFFFFFF AND DUP2 MSTORE PUSH1 0x20 ADD SWAP1 DUP2 MSTORE PUSH1 0x20 ADD PUSH1 0x0 KECCAK256 PUSH1 0x5 ADD SLOAD PUSH1 0x6 PUSH1 0x0 DUP5 PUSH20 0xFFFFFFFFFFFFFFFFFFFFFFFFFFFFFFFFFFFFFFFF AND PUSH20 0xFFFFFFFFFFFFFFFFFFFFFFFFFFFFFFFFFFFFFFFF AND DUP2 MSTORE PUSH1 0x20 ADD SWAP1 DUP2 MSTORE PUSH1 0x20 ADD PUSH1 0x0 KECCAK256 PUSH1 0x6 ADD PUSH1 0x0 PUSH1 0x6 PUSH1 0x0 DUP7 PUSH20 0xFFFFFFFFFFFFFFFFFFFFFFFFFFFFFFFFFFFFFFFF AND PUSH20 0xFFFFFFFFFFFFFFFFFFFFFFFFFFFFFFFFFFFFFFFF AND DUP2 MSTORE PUSH1 0x20 ADD SWAP1 DUP2 MSTORE PUSH1 0x20 ADD PUSH1 0x0 KECCAK256 PUSH1 0x5 ADD SLOAD DUP2 MSTORE PUSH1 0x20 ADD SWAP1 DUP2 MSTORE PUSH1 0x20 ADD PUSH1 0x0 KECCAK256 PUSH1 0x0 ADD DUP2 SWAP1 SSTORE POP DUP3 PUSH1 0x6 PUSH1 0x0 DUP5 PUSH20 0xFFFFFFFFFFFFFFFFFFFFFFFFFFFFFFFFFFFFFFFF AND PUSH20 0xFFFFFFFFFFFFFFFFFFFFFFFFFFFFFFFFFFFFFFFF AND DUP2 MSTORE PUSH1 0x20 ADD SWAP1 DUP2 MSTORE PUSH1 0x20 ADD PUSH1 0x0 KECCAK256 PUSH1 0x6 ADD PUSH1 0x0 PUSH1 0x6 PUSH1 0x0 DUP7 PUSH20 0xFFFFFFFFFFFFFFFFFFFFFFFFFFFFFFFFFFFFFFFF AND PUSH20 0xFFFFFFFFFFFFFFFFFFFFFFFFFFFFFFFFFFFFFFFF AND DUP2 MSTORE PUSH1 0x20 ADD SWAP1 DUP2 MSTORE PUSH1 0x20 ADD PUSH1 0x0 KECCAK256 PUSH1 0x5 ADD SLOAD DUP2 MSTORE PUSH1 0x20 ADD SWAP1 DUP2 MSTORE PUSH1 0x20 ADD PUSH1 0x0 KECCAK256 PUSH1 0x1 ADD SWAP1 DUP1 MLOAD SWAP1 PUSH1 0x20 ADD SWAP1 PUSH2 0x1058 SWAP3 SWAP2 SWAP1 PUSH2 0x47F4 JUMP JUMPDEST POP PUSH1 0x0 PUSH1 0x6 PUSH1 0x0 DUP5 PUSH20 0xFFFFFFFFFFFFFFFFFFFFFFFFFFFFFFFFFFFFFFFF AND PUSH20 0xFFFFFFFFFFFFFFFFFFFFFFFFFFFFFFFFFFFFFFFF AND DUP2 MSTORE PUSH1 0x20 ADD SWAP1 DUP2 MSTORE PUSH1 0x20 ADD PUSH1 0x0 KECCAK256 PUSH1 0x6 ADD PUSH1 0x0 PUSH1 0x6 PUSH1 0x0 DUP7 PUSH20 0xFFFFFFFFFFFFFFFFFFFFFFFFFFFFFFFFFFFFFFFF AND PUSH20 0xFFFFFFFFFFFFFFFFFFFFFFFFFFFFFFFFFFFFFFFF AND DUP2 MSTORE PUSH1 0x20 ADD SWAP1 DUP2 MSTORE PUSH1 0x20 ADD PUSH1 0x0 KECCAK256 PUSH1 0x5 ADD SLOAD DUP2 MSTORE PUSH1 0x20 ADD SWAP1 DUP2 MSTORE PUSH1 0x20 ADD PUSH1 0x0 KECCAK256 PUSH1 0x2 ADD PUSH1 0x0 PUSH2 0x100 EXP DUP2 SLOAD DUP2 PUSH1 0xFF MUL NOT AND SWAP1 DUP4 ISZERO ISZERO MUL OR SWAP1 SSTORE POP PUSH1 0x1 SWAP1 POP SWAP3 SWAP2 POP POP JUMP JUMPDEST PUSH1 0x60 DUP1 PUSH1 0x0 DUP1 PUSH1 0x6 PUSH1 0x0 DUP7 PUSH20 0xFFFFFFFFFFFFFFFFFFFFFFFFFFFFFFFFFFFFFFFF AND PUSH20 0xFFFFFFFFFFFFFFFFFFFFFFFFFFFFFFFFFFFFFFFF AND DUP2 MSTORE PUSH1 0x20 ADD SWAP1 DUP2 MSTORE PUSH1 0x20 ADD PUSH1 0x0 KECCAK256 PUSH1 0x0 ADD PUSH1 0x6 PUSH1 0x0 DUP8 PUSH20 0xFFFFFFFFFFFFFFFFFFFFFFFFFFFFFFFFFFFFFFFF AND PUSH20 0xFFFFFFFFFFFFFFFFFFFFFFFFFFFFFFFFFFFFFFFF AND DUP2 MSTORE PUSH1 0x20 ADD SWAP1 DUP2 MSTORE PUSH1 0x20 ADD PUSH1 0x0 KECCAK256 PUSH1 0x1 ADD PUSH1 0x6 PUSH1 0x0 DUP9 PUSH20 0xFFFFFFFFFFFFFFFFFFFFFFFFFFFFFFFFFFFFFFFF AND PUSH20 0xFFFFFFFFFFFFFFFFFFFFFFFFFFFFFFFFFFFFFFFF AND DUP2 MSTORE PUSH1 0x20 ADD SWAP1 DUP2 MSTORE PUSH1 0x20 ADD PUSH1 0x0 KECCAK256 PUSH1 0x3 ADD PUSH1 0x0 SWAP1 SLOAD SWAP1 PUSH2 0x100 EXP SWAP1 DIV PUSH20 0xFFFFFFFFFFFFFFFFFFFFFFFFFFFFFFFFFFFFFFFF AND PUSH1 0x6 PUSH1 0x0 DUP10 PUSH20 0xFFFFFFFFFFFFFFFFFFFFFFFFFFFFFFFFFFFFFFFF AND PUSH20 0xFFFFFFFFFFFFFFFFFFFFFFFFFFFFFFFFFFFFFFFF AND DUP2 MSTORE PUSH1 0x20 ADD SWAP1 DUP2 MSTORE PUSH1 0x20 ADD PUSH1 0x0 KECCAK256 PUSH1 0x2 ADD PUSH1 0x0 SWAP1 SLOAD SWAP1 PUSH2 0x100 EXP SWAP1 DIV PUSH20 0xFFFFFFFFFFFFFFFFFFFFFFFFFFFFFFFFFFFFFFFF AND DUP4 DUP1 SLOAD PUSH2 0x1270 SWAP1 PUSH2 0x597A JUMP JUMPDEST DUP1 PUSH1 0x1F ADD PUSH1 0x20 DUP1 SWAP2 DIV MUL PUSH1 0x20 ADD PUSH1 0x40 MLOAD SWAP1 DUP2 ADD PUSH1 0x40 MSTORE DUP1 SWAP3 SWAP2 SWAP1 DUP2 DUP2 MSTORE PUSH1 0x20 ADD DUP3 DUP1 SLOAD PUSH2 0x129C SWAP1 PUSH2 0x597A JUMP JUMPDEST DUP1 ISZERO PUSH2 0x12E9 JUMPI DUP1 PUSH1 0x1F LT PUSH2 0x12BE JUMPI PUSH2 0x100 DUP1 DUP4 SLOAD DIV MUL DUP4 MSTORE SWAP2 PUSH1 0x20 ADD SWAP2 PUSH2 0x12E9 JUMP JUMPDEST DUP3 ADD SWAP2 SWAP1 PUSH1 0x0 MSTORE PUSH1 0x20 PUSH1 0x0 KECCAK256 SWAP1 JUMPDEST DUP2 SLOAD DUP2 MSTORE SWAP1 PUSH1 0x1 ADD SWAP1 PUSH1 0x20 ADD DUP1 DUP4 GT PUSH2 0x12CC JUMPI DUP3 SWAP1 SUB PUSH1 0x1F AND DUP3 ADD SWAP2 JUMPDEST POP POP POP POP POP SWAP4 POP DUP3 DUP1 SLOAD PUSH2 0x12FC SWAP1 PUSH2 0x597A JUMP JUMPDEST DUP1 PUSH1 0x1F ADD PUSH1 0x20 DUP1 SWAP2 DIV MUL PUSH1 0x20 ADD PUSH1 0x40 MLOAD SWAP1 DUP2 ADD PUSH1 0x40 MSTORE DUP1 SWAP3 SWAP2 SWAP1 DUP2 DUP2 MSTORE PUSH1 0x20 ADD DUP3 DUP1 SLOAD PUSH2 0x1328 SWAP1 PUSH2 0x597A JUMP JUMPDEST DUP1 ISZERO PUSH2 0x1375 JUMPI DUP1 PUSH1 0x1F LT PUSH2 0x134A JUMPI PUSH2 0x100 DUP1 DUP4 SLOAD DIV MUL DUP4 MSTORE SWAP2 PUSH1 0x20 ADD SWAP2 PUSH2 0x1375 JUMP JUMPDEST DUP3 ADD SWAP2 SWAP1 PUSH1 0x0 MSTORE PUSH1 0x20 PUSH1 0x0 KECCAK256 SWAP1 JUMPDEST DUP2 SLOAD DUP2 MSTORE SWAP1 PUSH1 0x1 ADD SWAP1 PUSH1 0x20 ADD DUP1 DUP4 GT PUSH2 0x1358 JUMPI DUP3 SWAP1 SUB PUSH1 0x1F AND DUP3 ADD SWAP2 JUMPDEST POP POP POP POP POP SWAP3 POP SWAP4 POP SWAP4 POP SWAP4 POP SWAP4 POP SWAP2 SWAP4 POP SWAP2 SWAP4 JUMP JUMPDEST PUSH1 0x0 PUSH1 0x6 PUSH1 0x0 DUP4 PUSH20 0xFFFFFFFFFFFFFFFFFFFFFFFFFFFFFFFFFFFFFFFF AND PUSH20 0xFFFFFFFFFFFFFFFFFFFFFFFFFFFFFFFFFFFFFFFF AND DUP2 MSTORE PUSH1 0x20 ADD SWAP1 DUP2 MSTORE PUSH1 0x20 ADD PUSH1 0x0 KECCAK256 PUSH1 0x5 ADD SLOAD SWAP1 POP SWAP2 SWAP1 POP JUMP JUMPDEST PUSH1 0x0 DUP1 PUSH1 0x0 DUP4 DUP2 MSTORE PUSH1 0x20 ADD SWAP1 DUP2 MSTORE PUSH1 0x20 ADD PUSH1 0x0 KECCAK256 PUSH1 0x1 ADD SLOAD SWAP1 POP SWAP2 SWAP1 POP JUMP JUMPDEST PUSH1 0x0 PUSH2 0x1422 PUSH32 0x504841524D414359000000000000000000000000000000000000000000000000 DUP6 PUSH2 0x2BBF JUMP JUMPDEST PUSH2 0x1461 JUMPI PUSH1 0x40 MLOAD PUSH32 0x8C379A000000000000000000000000000000000000000000000000000000000 DUP2 MSTORE PUSH1 0x4 ADD PUSH2 0x1458 SWAP1 PUSH2 0x562A JUMP JUMPDEST PUSH1 0x40 MLOAD DUP1 SWAP2 SUB SWAP1 REVERT JUMPDEST DUP3 PUSH1 0x6 PUSH1 0x0 DUP8 PUSH20 0xFFFFFFFFFFFFFFFFFFFFFFFFFFFFFFFFFFFFFFFF AND PUSH20 0xFFFFFFFFFFFFFFFFFFFFFFFFFFFFFFFFFFFFFFFF AND DUP2 MSTORE PUSH1 0x20 ADD SWAP1 DUP2 MSTORE PUSH1 0x20 ADD PUSH1 0x0 KECCAK256 PUSH1 0x8 ADD PUSH1 0x0 DUP5 DUP2 MSTORE PUSH1 0x20 ADD SWAP1 DUP2 MSTORE PUSH1 0x20 ADD PUSH1 0x0 KECCAK256 PUSH1 0x1 ADD SWAP1 DUP1 MLOAD SWAP1 PUSH1 0x20 ADD SWAP1 PUSH2 0x14CB SWAP3 SWAP2 SWAP1 PUSH2 0x47F4 JUMP JUMPDEST POP PUSH1 0x1 SWAP1 POP SWAP5 SWAP4 POP POP POP POP JUMP JUMPDEST PUSH1 0x60 DUP1 PUSH1 0x0 DUP1 PUSH1 0x0 PUSH1 0x7 PUSH1 0x0 DUP8 PUSH20 0xFFFFFFFFFFFFFFFFFFFFFFFFFFFFFFFFFFFFFFFF AND PUSH20 0xFFFFFFFFFFFFFFFFFFFFFFFFFFFFFFFFFFFFFFFF AND DUP2 MSTORE PUSH1 0x20 ADD SWAP1 DUP2 MSTORE PUSH1 0x20 ADD PUSH1 0x0 KECCAK256 PUSH1 0x1 ADD PUSH1 0x7 PUSH1 0x0 DUP9 PUSH20 0xFFFFFFFFFFFFFFFFFFFFFFFFFFFFFFFFFFFFFFFF AND PUSH20 0xFFFFFFFFFFFFFFFFFFFFFFFFFFFFFFFFFFFFFFFF AND DUP2 MSTORE PUSH1 0x20 ADD SWAP1 DUP2 MSTORE PUSH1 0x20 ADD PUSH1 0x0 KECCAK256 PUSH1 0x2 ADD DUP8 PUSH2 0x15AF PUSH1 0x7 PUSH1 0x0 DUP12 PUSH20 0xFFFFFFFFFFFFFFFFFFFFFFFFFFFFFFFFFFFFFFFF AND PUSH20 0xFFFFFFFFFFFFFFFFFFFFFFFFFFFFFFFFFFFFFFFF AND DUP2 MSTORE PUSH1 0x20 ADD SWAP1 DUP2 MSTORE PUSH1 0x20 ADD PUSH1 0x0 KECCAK256 PUSH1 0x4 ADD PUSH2 0x42C4 JUMP JUMPDEST PUSH1 0x7 PUSH1 0x0 DUP12 PUSH20 0xFFFFFFFFFFFFFFFFFFFFFFFFFFFFFFFFFFFFFFFF AND PUSH20 0xFFFFFFFFFFFFFFFFFFFFFFFFFFFFFFFFFFFFFFFF AND DUP2 MSTORE PUSH1 0x20 ADD SWAP1 DUP2 MSTORE PUSH1 0x20 ADD PUSH1 0x0 KECCAK256 PUSH1 0x3 ADD PUSH1 0x0 SWAP1 SLOAD SWAP1 PUSH2 0x100 EXP SWAP1 DIV PUSH20 0xFFFFFFFFFFFFFFFFFFFFFFFFFFFFFFFFFFFFFFFF AND DUP5 DUP1 SLOAD PUSH2 0x161E SWAP1 PUSH2 0x597A JUMP JUMPDEST DUP1 PUSH1 0x1F ADD PUSH1 0x20 DUP1 SWAP2 DIV MUL PUSH1 0x20 ADD PUSH1 0x40 MLOAD SWAP1 DUP2 ADD PUSH1 0x40 MSTORE DUP1 SWAP3 SWAP2 SWAP1 DUP2 DUP2 MSTORE PUSH1 0x20 ADD DUP3 DUP1 SLOAD PUSH2 0x164A SWAP1 PUSH2 0x597A JUMP JUMPDEST DUP1 ISZERO PUSH2 0x1697 JUMPI DUP1 PUSH1 0x1F LT PUSH2 0x166C JUMPI PUSH2 0x100 DUP1 DUP4 SLOAD DIV MUL DUP4 MSTORE SWAP2 PUSH1 0x20 ADD SWAP2 PUSH2 0x1697 JUMP JUMPDEST DUP3 ADD SWAP2 SWAP1 PUSH1 0x0 MSTORE PUSH1 0x20 PUSH1 0x0 KECCAK256 SWAP1 JUMPDEST DUP2 SLOAD DUP2 MSTORE SWAP1 PUSH1 0x1 ADD SWAP1 PUSH1 0x20 ADD DUP1 DUP4 GT PUSH2 0x167A JUMPI DUP3 SWAP1 SUB PUSH1 0x1F AND DUP3 ADD SWAP2 JUMPDEST POP POP POP POP POP SWAP5 POP DUP4 DUP1 SLOAD PUSH2 0x16AA SWAP1 PUSH2 0x597A JUMP JUMPDEST DUP1 PUSH1 0x1F ADD PUSH1 0x20 DUP1 SWAP2 DIV MUL PUSH1 0x20 ADD PUSH1 0x40 MLOAD SWAP1 DUP2 ADD PUSH1 0x40 MSTORE DUP1 SWAP3 SWAP2 SWAP1 DUP2 DUP2 MSTORE PUSH1 0x20 ADD DUP3 DUP1 SLOAD PUSH2 0x16D6 SWAP1 PUSH2 0x597A JUMP JUMPDEST DUP1 ISZERO PUSH2 0x1723 JUMPI DUP1 PUSH1 0x1F LT PUSH2 0x16F8 JUMPI PUSH2 0x100 DUP1 DUP4 SLOAD DIV MUL DUP4 MSTORE SWAP2 PUSH1 0x20 ADD SWAP2 PUSH2 0x1723 JUMP JUMPDEST DUP3 ADD SWAP2 SWAP1 PUSH1 0x0 MSTORE PUSH1 0x20 PUSH1 0x0 KECCAK256 SWAP1 JUMPDEST DUP2 SLOAD DUP2 MSTORE SWAP1 PUSH1 0x1 ADD SWAP1 PUSH1 0x20 ADD DUP1 DUP4 GT PUSH2 0x1706 JUMPI DUP3 SWAP1 SUB PUSH1 0x1F AND DUP3 ADD SWAP2 JUMPDEST POP POP POP POP POP SWAP4 POP SWAP5 POP SWAP5 POP SWAP5 POP SWAP5 POP SWAP5 POP SWAP2 SWAP4 SWAP6 SWAP1 SWAP3 SWAP5 POP JUMP JUMPDEST PUSH2 0x1746 DUP3 PUSH2 0x13D7 JUMP JUMPDEST PUSH2 0x1757 DUP2 PUSH2 0x1752 PUSH2 0x42F6 JUMP JUMPDEST PUSH2 0x42FE JUMP JUMPDEST PUSH2 0x1761 DUP4 DUP4 PUSH2 0x439B JUMP JUMPDEST POP POP POP JUMP JUMPDEST PUSH2 0x176E PUSH2 0x42F6 JUMP JUMPDEST PUSH20 0xFFFFFFFFFFFFFFFFFFFFFFFFFFFFFFFFFFFFFFFF AND DUP2 PUSH20 0xFFFFFFFFFFFFFFFFFFFFFFFFFFFFFFFFFFFFFFFF AND EQ PUSH2 0x17DB JUMPI PUSH1 0x40 MLOAD PUSH32 0x8C379A000000000000000000000000000000000000000000000000000000000 DUP2 MSTORE PUSH1 0x4 ADD PUSH2 0x17D2 SWAP1 PUSH2 0x566A JUMP JUMPDEST PUSH1 0x40 MLOAD DUP1 SWAP2 SUB SWAP1 REVERT JUMPDEST PUSH2 0x17E5 DUP3 DUP3 PUSH2 0x447B JUMP JUMPDEST POP POP JUMP JUMPDEST DUP1 PUSH1 0x1 PUSH1 0x0 PUSH2 0x100 EXP DUP2 SLOAD DUP2 PUSH20 0xFFFFFFFFFFFFFFFFFFFFFFFFFFFFFFFFFFFFFFFF MUL NOT AND SWAP1 DUP4 PUSH20 0xFFFFFFFFFFFFFFFFFFFFFFFFFFFFFFFFFFFFFFFF AND MUL OR SWAP1 SSTORE POP POP JUMP JUMPDEST PUSH1 0x0 PUSH2 0x1859 PUSH32 0x56455249464945445F444F43544F520000000000000000000000000000000000 DUP5 PUSH2 0x2BBF JUMP JUMPDEST PUSH2 0x1898 JUMPI PUSH1 0x40 MLOAD PUSH32 0x8C379A000000000000000000000000000000000000000000000000000000000 DUP2 MSTORE PUSH1 0x4 ADD PUSH2 0x188F SWAP1 PUSH2 0x562A JUMP JUMPDEST PUSH1 0x40 MLOAD DUP1 SWAP2 SUB SWAP1 REVERT JUMPDEST DUP2 PUSH1 0x6 PUSH1 0x0 DUP7 PUSH20 0xFFFFFFFFFFFFFFFFFFFFFFFFFFFFFFFFFFFFFFFF AND PUSH20 0xFFFFFFFFFFFFFFFFFFFFFFFFFFFFFFFFFFFFFFFF AND DUP2 MSTORE PUSH1 0x20 ADD SWAP1 DUP2 MSTORE PUSH1 0x20 ADD PUSH1 0x0 KECCAK256 PUSH1 0x6 ADD PUSH1 0x0 DUP8 DUP2 MSTORE PUSH1 0x20 ADD SWAP1 DUP2 MSTORE PUSH1 0x20 ADD PUSH1 0x0 KECCAK256 PUSH1 0x1 ADD SWAP1 DUP1 MLOAD SWAP1 PUSH1 0x20 ADD SWAP1 PUSH2 0x1902 SWAP3 SWAP2 SWAP1 PUSH2 0x47F4 JUMP JUMPDEST POP PUSH1 0x1 PUSH1 0x6 PUSH1 0x0 DUP7 PUSH20 0xFFFFFFFFFFFFFFFFFFFFFFFFFFFFFFFFFFFFFFFF AND PUSH20 0xFFFFFFFFFFFFFFFFFFFFFFFFFFFFFFFFFFFFFFFF AND DUP2 MSTORE PUSH1 0x20 ADD SWAP1 DUP2 MSTORE PUSH1 0x20 ADD PUSH1 0x0 KECCAK256 PUSH1 0x6 ADD PUSH1 0x0 DUP8 DUP2 MSTORE PUSH1 0x20 ADD SWAP1 DUP2 MSTORE PUSH1 0x20 ADD PUSH1 0x0 KECCAK256 PUSH1 0x2 ADD PUSH1 0x0 PUSH2 0x100 EXP DUP2 SLOAD DUP2 PUSH1 0xFF MUL NOT AND SWAP1 DUP4 ISZERO ISZERO MUL OR SWAP1 SSTORE POP PUSH1 0x1 SWAP1 POP SWAP5 SWAP4 POP POP POP POP JUMP JUMPDEST PUSH1 0x0 PUSH2 0x19AA PUSH32 0x56455249464945445F50415449454E5400000000000000000000000000000000 DUP4 PUSH2 0x2BBF JUMP JUMPDEST PUSH2 0x19B3 JUMPI PUSH1 0x0 DUP1 REVERT JUMPDEST PUSH2 0x19FD PUSH1 0x9 PUSH1 0x0 DUP7 PUSH20 0xFFFFFFFFFFFFFFFFFFFFFFFFFFFFFFFFFFFFFFFF AND PUSH20 0xFFFFFFFFFFFFFFFFFFFFFFFFFFFFFFFFFFFFFFFF AND DUP2 MSTORE PUSH1 0x20 ADD SWAP1 DUP2 MSTORE PUSH1 0x20 ADD PUSH1 0x0 KECCAK256 PUSH1 0x3 ADD PUSH2 0x455C JUMP JUMPDEST DUP3 PUSH1 0x6 PUSH1 0x0 DUP5 PUSH20 0xFFFFFFFFFFFFFFFFFFFFFFFFFFFFFFFFFFFFFFFF AND PUSH20 0xFFFFFFFFFFFFFFFFFFFFFFFFFFFFFFFFFFFFFFFF AND DUP2 MSTORE PUSH1 0x20 ADD SWAP1 DUP2 MSTORE PUSH1 0x20 ADD PUSH1 0x0 KECCAK256 PUSH1 0x3 ADD PUSH1 0x0 PUSH2 0x100 EXP DUP2 SLOAD DUP2 PUSH20 0xFFFFFFFFFFFFFFFFFFFFFFFFFFFFFFFFFFFFFFFF MUL NOT AND SWAP1 DUP4 PUSH20 0xFFFFFFFFFFFFFFFFFFFFFFFFFFFFFFFFFFFFFFFF AND MUL OR SWAP1 SSTORE POP PUSH2 0x1AC8 PUSH1 0x9 PUSH1 0x0 DUP6 PUSH20 0xFFFFFFFFFFFFFFFFFFFFFFFFFFFFFFFFFFFFFFFF AND PUSH20 0xFFFFFFFFFFFFFFFFFFFFFFFFFFFFFFFFFFFFFFFF AND DUP2 MSTORE PUSH1 0x20 ADD SWAP1 DUP2 MSTORE PUSH1 0x20 ADD PUSH1 0x0 KECCAK256 PUSH1 0x3 ADD PUSH2 0x42E0 JUMP JUMPDEST PUSH1 0x1 SWAP1 POP SWAP4 SWAP3 POP POP POP JUMP JUMPDEST PUSH1 0x0 PUSH2 0x1AFF PUSH32 0x444F43544F520000000000000000000000000000000000000000000000000000 DUP4 PUSH2 0x2BBF JUMP JUMPDEST DUP1 PUSH2 0x1B30 JUMPI POP PUSH2 0x1B2F PUSH32 0x56455249464945445F444F43544F520000000000000000000000000000000000 DUP4 PUSH2 0x2BBF JUMP JUMPDEST JUMPDEST ISZERO PUSH2 0x1BC8 JUMPI ADDRESS PUSH20 0xFFFFFFFFFFFFFFFFFFFFFFFFFFFFFFFFFFFFFFFF AND PUSH4 0xCE65E5E3 DUP6 DUP5 PUSH1 0x40 MLOAD DUP4 PUSH4 0xFFFFFFFF AND PUSH1 0xE0 SHL DUP2 MSTORE PUSH1 0x4 ADD PUSH2 0x1B70 SWAP3 SWAP2 SWAP1 PUSH2 0x5480 JUMP JUMPDEST PUSH1 0x20 PUSH1 0x40 MLOAD DUP1 DUP4 SUB DUP2 PUSH1 0x0 DUP8 DUP1 EXTCODESIZE ISZERO DUP1 ISZERO PUSH2 0x1B8A JUMPI PUSH1 0x0 DUP1 REVERT JUMPDEST POP GAS CALL ISZERO DUP1 ISZERO PUSH2 0x1B9E JUMPI RETURNDATASIZE PUSH1 0x0 DUP1 RETURNDATACOPY RETURNDATASIZE PUSH1 0x0 REVERT JUMPDEST POP POP POP POP PUSH1 0x40 MLOAD RETURNDATASIZE PUSH1 0x1F NOT PUSH1 0x1F DUP3 ADD AND DUP3 ADD DUP1 PUSH1 0x40 MSTORE POP DUP2 ADD SWAP1 PUSH2 0x1BC2 SWAP2 SWAP1 PUSH2 0x4BA5 JUMP JUMPDEST POP PUSH2 0x1EAA JUMP JUMPDEST PUSH2 0x1BF2 PUSH32 0x444F43544F520000000000000000000000000000000000000000000000000000 DUP4 PUSH2 0x42D2 JUMP JUMPDEST PUSH1 0x1 PUSH1 0x0 SWAP1 SLOAD SWAP1 PUSH2 0x100 EXP SWAP1 DIV PUSH20 0xFFFFFFFFFFFFFFFFFFFFFFFFFFFFFFFFFFFFFFFF AND PUSH20 0xFFFFFFFFFFFFFFFFFFFFFFFFFFFFFFFFFFFFFFFF AND PUSH4 0x95EA7B3 DUP4 PUSH3 0x186A0 PUSH1 0x40 MLOAD DUP4 PUSH4 0xFFFFFFFF AND PUSH1 0xE0 SHL DUP2 MSTORE PUSH1 0x4 ADD PUSH2 0x1C52 SWAP3 SWAP2 SWAP1 PUSH2 0x53FF JUMP JUMPDEST PUSH1 0x20 PUSH1 0x40 MLOAD DUP1 DUP4 SUB DUP2 PUSH1 0x0 DUP8 DUP1 EXTCODESIZE ISZERO DUP1 ISZERO PUSH2 0x1C6C JUMPI PUSH1 0x0 DUP1 REVERT JUMPDEST POP GAS CALL ISZERO DUP1 ISZERO PUSH2 0x1C80 JUMPI RETURNDATASIZE PUSH1 0x0 DUP1 RETURNDATACOPY RETURNDATASIZE PUSH1 0x0 REVERT JUMPDEST POP POP POP POP PUSH1 0x40 MLOAD RETURNDATASIZE PUSH1 0x1F NOT PUSH1 0x1F DUP3 ADD AND DUP3 ADD DUP1 PUSH1 0x40 MSTORE POP DUP2 ADD SWAP1 PUSH2 0x1CA4 SWAP2 SWAP1 PUSH2 0x4BA5 JUMP JUMPDEST POP DUP5 PUSH1 0x7 PUSH1 0x0 DUP5 PUSH20 0xFFFFFFFFFFFFFFFFFFFFFFFFFFFFFFFFFFFFFFFF AND PUSH20 0xFFFFFFFFFFFFFFFFFFFFFFFFFFFFFFFFFFFFFFFF AND DUP2 MSTORE PUSH1 0x20 ADD SWAP1 DUP2 MSTORE PUSH1 0x20 ADD PUSH1 0x0 KECCAK256 PUSH1 0x1 ADD SWAP1 DUP1 MLOAD SWAP1 PUSH1 0x20 ADD SWAP1 PUSH2 0x1CFB SWAP3 SWAP2 SWAP1 PUSH2 0x47F4 JUMP JUMPDEST POP DUP2 PUSH1 0x7 PUSH1 0x0 DUP5 PUSH20 0xFFFFFFFFFFFFFFFFFFFFFFFFFFFFFFFFFFFFFFFF AND PUSH20 0xFFFFFFFFFFFFFFFFFFFFFFFFFFFFFFFFFFFFFFFF AND DUP2 MSTORE PUSH1 0x20 ADD SWAP1 DUP2 MSTORE PUSH1 0x20 ADD PUSH1 0x0 KECCAK256 PUSH1 0x0 ADD PUSH1 0x0 PUSH2 0x100 EXP DUP2 SLOAD DUP2 PUSH20 0xFFFFFFFFFFFFFFFFFFFFFFFFFFFFFFFFFFFFFFFF MUL NOT AND SWAP1 DUP4 PUSH20 0xFFFFFFFFFFFFFFFFFFFFFFFFFFFFFFFFFFFFFFFF AND MUL OR SWAP1 SSTORE POP DUP3 PUSH1 0x7 PUSH1 0x0 DUP5 PUSH20 0xFFFFFFFFFFFFFFFFFFFFFFFFFFFFFFFFFFFFFFFF AND PUSH20 0xFFFFFFFFFFFFFFFFFFFFFFFFFFFFFFFFFFFFFFFF AND DUP2 MSTORE PUSH1 0x20 ADD SWAP1 DUP2 MSTORE PUSH1 0x20 ADD PUSH1 0x0 KECCAK256 PUSH1 0x3 ADD PUSH1 0x0 PUSH2 0x100 EXP DUP2 SLOAD DUP2 PUSH20 0xFFFFFFFFFFFFFFFFFFFFFFFFFFFFFFFFFFFFFFFF MUL NOT AND SWAP1 DUP4 PUSH20 0xFFFFFFFFFFFFFFFFFFFFFFFFFFFFFFFFFFFFFFFF AND MUL OR SWAP1 SSTORE POP DUP4 PUSH1 0x7 PUSH1 0x0 DUP5 PUSH20 0xFFFFFFFFFFFFFFFFFFFFFFFFFFFFFFFFFFFFFFFF AND PUSH20 0xFFFFFFFFFFFFFFFFFFFFFFFFFFFFFFFFFFFFFFFF AND DUP2 MSTORE PUSH1 0x20 ADD SWAP1 DUP2 MSTORE PUSH1 0x20 ADD PUSH1 0x0 KECCAK256 PUSH1 0x2 ADD SWAP1 DUP1 MLOAD SWAP1 PUSH1 0x20 ADD SWAP1 PUSH2 0x1E54 SWAP3 SWAP2 SWAP1 PUSH2 0x47F4 JUMP JUMPDEST POP PUSH2 0x1E9F PUSH1 0x9 PUSH1 0x0 DUP6 PUSH20 0xFFFFFFFFFFFFFFFFFFFFFFFFFFFFFFFFFFFFFFFF AND PUSH20 0xFFFFFFFFFFFFFFFFFFFFFFFFFFFFFFFFFFFFFFFF AND DUP2 MSTORE PUSH1 0x20 ADD SWAP1 DUP2 MSTORE PUSH1 0x20 ADD PUSH1 0x0 KECCAK256 PUSH1 0x4 ADD PUSH2 0x42E0 JUMP JUMPDEST PUSH2 0x1EA9 PUSH1 0x3 PUSH2 0x42E0 JUMP JUMPDEST JUMPDEST PUSH1 0x1 SWAP1 POP SWAP5 SWAP4 POP POP POP POP JUMP JUMPDEST PUSH1 0x0 DUP3 PUSH1 0x6 PUSH1 0x0 DUP5 PUSH20 0xFFFFFFFFFFFFFFFFFFFFFFFFFFFFFFFFFFFFFFFF AND PUSH20 0xFFFFFFFFFFFFFFFFFFFFFFFFFFFFFFFFFFFFFFFF AND DUP2 MSTORE PUSH1 0x20 ADD SWAP1 DUP2 MSTORE PUSH1 0x20 ADD PUSH1 0x0 KECCAK256 PUSH1 0x1 ADD SWAP1 DUP1 MLOAD SWAP1 PUSH1 0x20 ADD SWAP1 PUSH2 0x1F0E SWAP3 SWAP2 SWAP1 PUSH2 0x47F4 JUMP JUMPDEST POP PUSH1 0x1 SWAP1 POP SWAP3 SWAP2 POP POP JUMP JUMPDEST PUSH1 0x0 PUSH2 0x1F45 PUSH32 0x56455249464945445F50415449454E5400000000000000000000000000000000 DUP4 PUSH2 0x2BBF JUMP JUMPDEST PUSH2 0x1F4E JUMPI PUSH1 0x0 DUP1 REVERT JUMPDEST PUSH2 0x1F98 PUSH1 0x7 PUSH1 0x0 DUP7 PUSH20 0xFFFFFFFFFFFFFFFFFFFFFFFFFFFFFFFFFFFFFFFF AND PUSH20 0xFFFFFFFFFFFFFFFFFFFFFFFFFFFFFFFFFFFFFFFF AND DUP2 MSTORE PUSH1 0x20 ADD SWAP1 DUP2 MSTORE PUSH1 0x20 ADD PUSH1 0x0 KECCAK256 PUSH1 0x4 ADD PUSH2 0x455C JUMP JUMPDEST DUP3 PUSH1 0x6 PUSH1 0x0 DUP5 PUSH20 0xFFFFFFFFFFFFFFFFFFFFFFFFFFFFFFFFFFFFFFFF AND PUSH20 0xFFFFFFFFFFFFFFFFFFFFFFFFFFFFFFFFFFFFFFFF AND DUP2 MSTORE PUSH1 0x20 ADD SWAP1 DUP2 MSTORE PUSH1 0x20 ADD PUSH1 0x0 KECCAK256 PUSH1 0x2 ADD PUSH1 0x0 PUSH2 0x100 EXP DUP2 SLOAD DUP2 PUSH20 0xFFFFFFFFFFFFFFFFFFFFFFFFFFFFFFFFFFFFFFFF MUL NOT AND SWAP1 DUP4 PUSH20 0xFFFFFFFFFFFFFFFFFFFFFFFFFFFFFFFFFFFFFFFF AND MUL OR SWAP1 SSTORE POP PUSH2 0x2063 PUSH1 0x7 PUSH1 0x0 DUP6 PUSH20 0xFFFFFFFFFFFFFFFFFFFFFFFFFFFFFFFFFFFFFFFF AND PUSH20 0xFFFFFFFFFFFFFFFFFFFFFFFFFFFFFFFFFFFFFFFF AND DUP2 MSTORE PUSH1 0x20 ADD SWAP1 DUP2 MSTORE PUSH1 0x20 ADD PUSH1 0x0 KECCAK256 PUSH1 0x4 ADD PUSH2 0x42E0 JUMP JUMPDEST PUSH1 0x1 SWAP1 POP SWAP4 SWAP3 POP POP POP JUMP JUMPDEST PUSH2 0x207B PUSH1 0x0 DUP1 SHL DUP5 PUSH2 0x2BBF JUMP JUMPDEST PUSH2 0x20BA JUMPI PUSH1 0x40 MLOAD PUSH32 0x8C379A000000000000000000000000000000000000000000000000000000000 DUP2 MSTORE PUSH1 0x4 ADD PUSH2 0x20B1 SWAP1 PUSH2 0x562A JUMP JUMPDEST PUSH1 0x40 MLOAD DUP1 SWAP2 SUB SWAP1 REVERT JUMPDEST PUSH1 0x0 ADDRESS PUSH20 0xFFFFFFFFFFFFFFFFFFFFFFFFFFFFFFFFFFFFFFFF AND PUSH4 0x27F66A1 DUP4 PUSH1 0x40 MLOAD DUP3 PUSH4 0xFFFFFFFF AND PUSH1 0xE0 SHL DUP2 MSTORE PUSH1 0x4 ADD PUSH2 0x20F5 SWAP2 SWAP1 PUSH2 0x545E JUMP JUMPDEST PUSH1 0x20 PUSH1 0x40 MLOAD DUP1 DUP4 SUB DUP2 DUP7 DUP1 EXTCODESIZE ISZERO DUP1 ISZERO PUSH2 0x210D JUMPI PUSH1 0x0 DUP1 REVERT JUMPDEST POP GAS STATICCALL ISZERO DUP1 ISZERO PUSH2 0x2121 JUMPI RETURNDATASIZE PUSH1 0x0 DUP1 RETURNDATACOPY RETURNDATASIZE PUSH1 0x0 REVERT JUMPDEST POP POP POP POP PUSH1 0x40 MLOAD RETURNDATASIZE PUSH1 0x1F NOT PUSH1 0x1F DUP3 ADD AND DUP3 ADD DUP1 PUSH1 0x40 MSTORE POP DUP2 ADD SWAP1 PUSH2 0x2145 SWAP2 SWAP1 PUSH2 0x4BFF JUMP JUMPDEST SWAP1 POP PUSH2 0x2151 DUP2 DUP5 PUSH2 0x173D JUMP JUMPDEST POP POP POP POP JUMP JUMPDEST PUSH1 0x0 DUP1 PUSH1 0x0 DUP1 PUSH2 0x2167 PUSH1 0x2 PUSH2 0x42C4 JUMP JUMPDEST PUSH2 0x2171 PUSH1 0x3 PUSH2 0x42C4 JUMP JUMPDEST PUSH2 0x217B PUSH1 0x4 PUSH2 0x42C4 JUMP JUMPDEST PUSH2 0x2185 PUSH1 0x5 PUSH2 0x42C4 JUMP JUMPDEST SWAP4 POP SWAP4 POP SWAP4 POP SWAP4 POP SWAP1 SWAP2 SWAP3 SWAP4 JUMP JUMPDEST PUSH1 0x0 PUSH2 0x219F PUSH1 0x2 PUSH2 0x42C4 JUMP JUMPDEST SWAP1 POP SWAP1 JUMP JUMPDEST PUSH1 0x0 PUSH2 0x21D0 PUSH32 0x50415449454E5400000000000000000000000000000000000000000000000000 DUP4 PUSH2 0x2BBF JUMP JUMPDEST DUP1 PUSH2 0x2201 JUMPI POP PUSH2 0x2200 PUSH32 0x56455249464945445F50415449454E5400000000000000000000000000000000 DUP4 PUSH2 0x2BBF JUMP JUMPDEST JUMPDEST ISZERO PUSH2 0x22F0 JUMPI DUP6 PUSH1 0x6 PUSH1 0x0 DUP5 PUSH20 0xFFFFFFFFFFFFFFFFFFFFFFFFFFFFFFFFFFFFFFFF AND PUSH20 0xFFFFFFFFFFFFFFFFFFFFFFFFFFFFFFFFFFFFFFFF AND DUP2 MSTORE PUSH1 0x20 ADD SWAP1 DUP2 MSTORE PUSH1 0x20 ADD PUSH1 0x0 KECCAK256 PUSH1 0x0 ADD SWAP1 DUP1 MLOAD SWAP1 PUSH1 0x20 ADD SWAP1 PUSH2 0x225C SWAP3 SWAP2 SWAP1 PUSH2 0x47F4 JUMP JUMPDEST POP ADDRESS PUSH20 0xFFFFFFFFFFFFFFFFFFFFFFFFFFFFFFFFFFFFFFFF AND PUSH4 0xA9909DB9 DUP7 DUP5 PUSH1 0x40 MLOAD DUP4 PUSH4 0xFFFFFFFF AND PUSH1 0xE0 SHL DUP2 MSTORE PUSH1 0x4 ADD PUSH2 0x2298 SWAP3 SWAP2 SWAP1 PUSH2 0x5480 JUMP JUMPDEST PUSH1 0x20 PUSH1 0x40 MLOAD DUP1 DUP4 SUB DUP2 PUSH1 0x0 DUP8 DUP1 EXTCODESIZE ISZERO DUP1 ISZERO PUSH2 0x22B2 JUMPI PUSH1 0x0 DUP1 REVERT JUMPDEST POP GAS CALL ISZERO DUP1 ISZERO PUSH2 0x22C6 JUMPI RETURNDATASIZE PUSH1 0x0 DUP1 RETURNDATACOPY RETURNDATASIZE PUSH1 0x0 REVERT JUMPDEST POP POP POP POP PUSH1 0x40 MLOAD RETURNDATASIZE PUSH1 0x1F NOT PUSH1 0x1F DUP3 ADD AND DUP3 ADD DUP1 PUSH1 0x40 MSTORE POP DUP2 ADD SWAP1 PUSH2 0x22EA SWAP2 SWAP1 PUSH2 0x4BA5 JUMP JUMPDEST POP PUSH2 0x269D JUMP JUMPDEST PUSH2 0x231A PUSH32 0x50415449454E5400000000000000000000000000000000000000000000000000 DUP4 PUSH2 0x42D2 JUMP JUMPDEST PUSH1 0x1 PUSH1 0x0 SWAP1 SLOAD SWAP1 PUSH2 0x100 EXP SWAP1 DIV PUSH20 0xFFFFFFFFFFFFFFFFFFFFFFFFFFFFFFFFFFFFFFFF AND PUSH20 0xFFFFFFFFFFFFFFFFFFFFFFFFFFFFFFFFFFFFFFFF AND PUSH4 0x95EA7B3 DUP4 PUSH3 0x186A0 PUSH1 0x40 MLOAD DUP4 PUSH4 0xFFFFFFFF AND PUSH1 0xE0 SHL DUP2 MSTORE PUSH1 0x4 ADD PUSH2 0x237A SWAP3 SWAP2 SWAP1 PUSH2 0x53FF JUMP JUMPDEST PUSH1 0x20 PUSH1 0x40 MLOAD DUP1 DUP4 SUB DUP2 PUSH1 0x0 DUP8 DUP1 EXTCODESIZE ISZERO DUP1 ISZERO PUSH2 0x2394 JUMPI PUSH1 0x0 DUP1 REVERT JUMPDEST POP GAS CALL ISZERO DUP1 ISZERO PUSH2 0x23A8 JUMPI RETURNDATASIZE PUSH1 0x0 DUP1 RETURNDATACOPY RETURNDATASIZE PUSH1 0x0 REVERT JUMPDEST POP POP POP POP PUSH1 0x40 MLOAD RETURNDATASIZE PUSH1 0x1F NOT PUSH1 0x1F DUP3 ADD AND DUP3 ADD DUP1 PUSH1 0x40 MSTORE POP DUP2 ADD SWAP1 PUSH2 0x23CC SWAP2 SWAP1 PUSH2 0x4BA5 JUMP JUMPDEST POP DUP6 PUSH1 0x6 PUSH1 0x0 DUP5 PUSH20 0xFFFFFFFFFFFFFFFFFFFFFFFFFFFFFFFFFFFFFFFF AND PUSH20 0xFFFFFFFFFFFFFFFFFFFFFFFFFFFFFFFFFFFFFFFF AND DUP2 MSTORE PUSH1 0x20 ADD SWAP1 DUP2 MSTORE PUSH1 0x20 ADD PUSH1 0x0 KECCAK256 PUSH1 0x0 ADD SWAP1 DUP1 MLOAD SWAP1 PUSH1 0x20 ADD SWAP1 PUSH2 0x2423 SWAP3 SWAP2 SWAP1 PUSH2 0x47F4 JUMP JUMPDEST POP DUP5 PUSH1 0x6 PUSH1 0x0 DUP5 PUSH20 0xFFFFFFFFFFFFFFFFFFFFFFFFFFFFFFFFFFFFFFFF AND PUSH20 0xFFFFFFFFFFFFFFFFFFFFFFFFFFFFFFFFFFFFFFFF AND DUP2 MSTORE PUSH1 0x20 ADD SWAP1 DUP2 MSTORE PUSH1 0x20 ADD PUSH1 0x0 KECCAK256 PUSH1 0x1 ADD SWAP1 DUP1 MLOAD SWAP1 PUSH1 0x20 ADD SWAP1 PUSH2 0x247A SWAP3 SWAP2 SWAP1 PUSH2 0x47F4 JUMP JUMPDEST POP DUP4 PUSH1 0x6 PUSH1 0x0 DUP5 PUSH20 0xFFFFFFFFFFFFFFFFFFFFFFFFFFFFFFFFFFFFFFFF AND PUSH20 0xFFFFFFFFFFFFFFFFFFFFFFFFFFFFFFFFFFFFFFFF AND DUP2 MSTORE PUSH1 0x20 ADD SWAP1 DUP2 MSTORE PUSH1 0x20 ADD PUSH1 0x0 KECCAK256 PUSH1 0x3 ADD PUSH1 0x0 PUSH2 0x100 EXP DUP2 SLOAD DUP2 PUSH20 0xFFFFFFFFFFFFFFFFFFFFFFFFFFFFFFFFFFFFFFFF MUL NOT AND SWAP1 DUP4 PUSH20 0xFFFFFFFFFFFFFFFFFFFFFFFFFFFFFFFFFFFFFFFF AND MUL OR SWAP1 SSTORE POP DUP2 PUSH1 0x6 PUSH1 0x0 DUP5 PUSH20 0xFFFFFFFFFFFFFFFFFFFFFFFFFFFFFFFFFFFFFFFF AND PUSH20 0xFFFFFFFFFFFFFFFFFFFFFFFFFFFFFFFFFFFFFFFF AND DUP2 MSTORE PUSH1 0x20 ADD SWAP1 DUP2 MSTORE PUSH1 0x20 ADD PUSH1 0x0 KECCAK256 PUSH1 0x4 ADD PUSH1 0x0 PUSH2 0x100 EXP DUP2 SLOAD DUP2 PUSH20 0xFFFFFFFFFFFFFFFFFFFFFFFFFFFFFFFFFFFFFFFF MUL NOT AND SWAP1 DUP4 PUSH20 0xFFFFFFFFFFFFFFFFFFFFFFFFFFFFFFFFFFFFFFFF AND MUL OR SWAP1 SSTORE POP DUP3 PUSH1 0x6 PUSH1 0x0 DUP5 PUSH20 0xFFFFFFFFFFFFFFFFFFFFFFFFFFFFFFFFFFFFFFFF AND PUSH20 0xFFFFFFFFFFFFFFFFFFFFFFFFFFFFFFFFFFFFFFFF AND DUP2 MSTORE PUSH1 0x20 ADD SWAP1 DUP2 MSTORE PUSH1 0x20 ADD PUSH1 0x0 KECCAK256 PUSH1 0x2 ADD PUSH1 0x0 PUSH2 0x100 EXP DUP2 SLOAD DUP2 PUSH20 0xFFFFFFFFFFFFFFFFFFFFFFFFFFFFFFFFFFFFFFFF MUL NOT AND SWAP1 DUP4 PUSH20 0xFFFFFFFFFFFFFFFFFFFFFFFFFFFFFFFFFFFFFFFF AND MUL OR SWAP1 SSTORE POP PUSH2 0x2648 PUSH1 0x7 PUSH1 0x0 DUP6 PUSH20 0xFFFFFFFFFFFFFFFFFFFFFFFFFFFFFFFFFFFFFFFF AND PUSH20 0xFFFFFFFFFFFFFFFFFFFFFFFFFFFFFFFFFFFFFFFF AND DUP2 MSTORE PUSH1 0x20 ADD SWAP1 DUP2 MSTORE PUSH1 0x20 ADD PUSH1 0x0 KECCAK256 PUSH1 0x4 ADD PUSH2 0x42E0 JUMP JUMPDEST PUSH2 0x2692 PUSH1 0x9 PUSH1 0x0 DUP7 PUSH20 0xFFFFFFFFFFFFFFFFFFFFFFFFFFFFFFFFFFFFFFFF AND PUSH20 0xFFFFFFFFFFFFFFFFFFFFFFFFFFFFFFFFFFFFFFFF AND DUP2 MSTORE PUSH1 0x20 ADD SWAP1 DUP2 MSTORE PUSH1 0x20 ADD PUSH1 0x0 KECCAK256 PUSH1 0x3 ADD PUSH2 0x42E0 JUMP JUMPDEST PUSH2 0x269C PUSH1 0x2 PUSH2 0x42E0 JUMP JUMPDEST JUMPDEST PUSH1 0x1 SWAP1 POP SWAP6 SWAP5 POP POP POP POP POP JUMP JUMPDEST PUSH1 0x0 PUSH2 0x26D6 PUSH32 0x56455249464945445F444F43544F520000000000000000000000000000000000 DUP6 PUSH2 0x2BBF JUMP JUMPDEST PUSH2 0x2715 JUMPI PUSH1 0x40 MLOAD PUSH32 0x8C379A000000000000000000000000000000000000000000000000000000000 DUP2 MSTORE PUSH1 0x4 ADD PUSH2 0x270C SWAP1 PUSH2 0x562A JUMP JUMPDEST PUSH1 0x40 MLOAD DUP1 SWAP2 SUB SWAP1 REVERT JUMPDEST PUSH1 0x6 PUSH1 0x0 DUP5 PUSH20 0xFFFFFFFFFFFFFFFFFFFFFFFFFFFFFFFFFFFFFFFF AND PUSH20 0xFFFFFFFFFFFFFFFFFFFFFFFFFFFFFFFFFFFFFFFF AND DUP2 MSTORE PUSH1 0x20 ADD SWAP1 DUP2 MSTORE PUSH1 0x20 ADD PUSH1 0x0 KECCAK256 PUSH1 0x7 ADD PUSH1 0x0 DUP2 SLOAD DUP1 SWAP3 SWAP2 SWAP1 PUSH2 0x2768 SWAP1 PUSH2 0x59DD JUMP JUMPDEST SWAP2 SWAP1 POP SSTORE POP PUSH1 0x6 PUSH1 0x0 DUP5 PUSH20 0xFFFFFFFFFFFFFFFFFFFFFFFFFFFFFFFFFFFFFFFF AND PUSH20 0xFFFFFFFFFFFFFFFFFFFFFFFFFFFFFFFFFFFFFFFF AND DUP2 MSTORE PUSH1 0x20 ADD SWAP1 DUP2 MSTORE PUSH1 0x20 ADD PUSH1 0x0 KECCAK256 PUSH1 0x7 ADD SLOAD PUSH1 0x6 PUSH1 0x0 DUP6 PUSH20 0xFFFFFFFFFFFFFFFFFFFFFFFFFFFFFFFFFFFFFFFF AND PUSH20 0xFFFFFFFFFFFFFFFFFFFFFFFFFFFFFFFFFFFFFFFF AND DUP2 MSTORE PUSH1 0x20 ADD SWAP1 DUP2 MSTORE PUSH1 0x20 ADD PUSH1 0x0 KECCAK256 PUSH1 0x7 ADD DUP2 SWAP1 SSTORE POP PUSH1 0x6 PUSH1 0x0 DUP5 PUSH20 0xFFFFFFFFFFFFFFFFFFFFFFFFFFFFFFFFFFFFFFFF AND PUSH20 0xFFFFFFFFFFFFFFFFFFFFFFFFFFFFFFFFFFFFFFFF AND DUP2 MSTORE PUSH1 0x20 ADD SWAP1 DUP2 MSTORE PUSH1 0x20 ADD PUSH1 0x0 KECCAK256 PUSH1 0x7 ADD SLOAD PUSH1 0x6 PUSH1 0x0 DUP6 PUSH20 0xFFFFFFFFFFFFFFFFFFFFFFFFFFFFFFFFFFFFFFFF AND PUSH20 0xFFFFFFFFFFFFFFFFFFFFFFFFFFFFFFFFFFFFFFFF AND DUP2 MSTORE PUSH1 0x20 ADD SWAP1 DUP2 MSTORE PUSH1 0x20 ADD PUSH1 0x0 KECCAK256 PUSH1 0x8 ADD PUSH1 0x0 PUSH1 0x6 PUSH1 0x0 DUP8 PUSH20 0xFFFFFFFFFFFFFFFFFFFFFFFFFFFFFFFFFFFFFFFF AND PUSH20 0xFFFFFFFFFFFFFFFFFFFFFFFFFFFFFFFFFFFFFFFF AND DUP2 MSTORE PUSH1 0x20 ADD SWAP1 DUP2 MSTORE PUSH1 0x20 ADD PUSH1 0x0 KECCAK256 PUSH1 0x7 ADD SLOAD DUP2 MSTORE PUSH1 0x20 ADD SWAP1 DUP2 MSTORE PUSH1 0x20 ADD PUSH1 0x0 KECCAK256 PUSH1 0x0 ADD DUP2 SWAP1 SSTORE POP DUP5 PUSH1 0x6 PUSH1 0x0 DUP6 PUSH20 0xFFFFFFFFFFFFFFFFFFFFFFFFFFFFFFFFFFFFFFFF AND PUSH20 0xFFFFFFFFFFFFFFFFFFFFFFFFFFFFFFFFFFFFFFFF AND DUP2 MSTORE PUSH1 0x20 ADD SWAP1 DUP2 MSTORE PUSH1 0x20 ADD PUSH1 0x0 KECCAK256 PUSH1 0x8 ADD PUSH1 0x0 PUSH1 0x6 PUSH1 0x0 DUP8 PUSH20 0xFFFFFFFFFFFFFFFFFFFFFFFFFFFFFFFFFFFFFFFF AND PUSH20 0xFFFFFFFFFFFFFFFFFFFFFFFFFFFFFFFFFFFFFFFF AND DUP2 MSTORE PUSH1 0x20 ADD SWAP1 DUP2 MSTORE PUSH1 0x20 ADD PUSH1 0x0 KECCAK256 PUSH1 0x7 ADD SLOAD DUP2 MSTORE PUSH1 0x20 ADD SWAP1 DUP2 MSTORE PUSH1 0x20 ADD PUSH1 0x0 KECCAK256 PUSH1 0x1 ADD SWAP1 DUP1 MLOAD SWAP1 PUSH1 0x20 ADD SWAP1 PUSH2 0x2981 SWAP3 SWAP2 SWAP1 PUSH2 0x47F4 JUMP JUMPDEST POP DUP2 PUSH1 0x6 PUSH1 0x0 DUP6 PUSH20 0xFFFFFFFFFFFFFFFFFFFFFFFFFFFFFFFFFFFFFFFF AND PUSH20 0xFFFFFFFFFFFFFFFFFFFFFFFFFFFFFFFFFFFFFFFF AND DUP2 MSTORE PUSH1 0x20 ADD SWAP1 DUP2 MSTORE PUSH1 0x20 ADD PUSH1 0x0 KECCAK256 PUSH1 0x8 ADD PUSH1 0x0 PUSH1 0x6 PUSH1 0x0 DUP8 PUSH20 0xFFFFFFFFFFFFFFFFFFFFFFFFFFFFFFFFFFFFFFFF AND PUSH20 0xFFFFFFFFFFFFFFFFFFFFFFFFFFFFFFFFFFFFFFFF AND DUP2 MSTORE PUSH1 0x20 ADD SWAP1 DUP2 MSTORE PUSH1 0x20 ADD PUSH1 0x0 KECCAK256 PUSH1 0x7 ADD SLOAD DUP2 MSTORE PUSH1 0x20 ADD SWAP1 DUP2 MSTORE PUSH1 0x20 ADD PUSH1 0x0 KECCAK256 PUSH1 0x2 ADD SWAP1 DUP1 MLOAD SWAP1 PUSH1 0x20 ADD SWAP1 PUSH2 0x2A2E SWAP3 SWAP2 SWAP1 PUSH2 0x47F4 JUMP JUMPDEST POP PUSH1 0x1 SWAP1 POP SWAP5 SWAP4 POP POP POP POP JUMP JUMPDEST PUSH1 0x0 PUSH1 0x6 PUSH1 0x0 DUP4 PUSH20 0xFFFFFFFFFFFFFFFFFFFFFFFFFFFFFFFFFFFFFFFF AND PUSH20 0xFFFFFFFFFFFFFFFFFFFFFFFFFFFFFFFFFFFFFFFF AND DUP2 MSTORE PUSH1 0x20 ADD SWAP1 DUP2 MSTORE PUSH1 0x20 ADD PUSH1 0x0 KECCAK256 PUSH1 0x7 ADD SLOAD SWAP1 POP SWAP2 SWAP1 POP JUMP JUMPDEST PUSH1 0x0 PUSH2 0x2AD3 PUSH1 0x9 PUSH1 0x0 DUP5 PUSH20 0xFFFFFFFFFFFFFFFFFFFFFFFFFFFFFFFFFFFFFFFF AND PUSH20 0xFFFFFFFFFFFFFFFFFFFFFFFFFFFFFFFFFFFFFFFF AND DUP2 MSTORE PUSH1 0x20 ADD SWAP1 DUP2 MSTORE PUSH1 0x20 ADD PUSH1 0x0 KECCAK256 PUSH1 0x3 ADD PUSH2 0x42C4 JUMP JUMPDEST SWAP1 POP SWAP2 SWAP1 POP JUMP JUMPDEST PUSH1 0x0 PUSH2 0x2B06 PUSH32 0x56455249464945445F444F43544F520000000000000000000000000000000000 DUP5 PUSH2 0x2BBF JUMP JUMPDEST PUSH2 0x2B45 JUMPI PUSH1 0x40 MLOAD PUSH32 0x8C379A000000000000000000000000000000000000000000000000000000000 DUP2 MSTORE PUSH1 0x4 ADD PUSH2 0x2B3C SWAP1 PUSH2 0x562A JUMP JUMPDEST PUSH1 0x40 MLOAD DUP1 SWAP2 SUB SWAP1 REVERT JUMPDEST DUP2 PUSH1 0x6 PUSH1 0x0 DUP7 PUSH20 0xFFFFFFFFFFFFFFFFFFFFFFFFFFFFFFFFFFFFFFFF AND PUSH20 0xFFFFFFFFFFFFFFFFFFFFFFFFFFFFFFFFFFFFFFFF AND DUP2 MSTORE PUSH1 0x20 ADD SWAP1 DUP2 MSTORE PUSH1 0x20 ADD PUSH1 0x0 KECCAK256 PUSH1 0x6 ADD PUSH1 0x0 DUP8 DUP2 MSTORE PUSH1 0x20 ADD SWAP1 DUP2 MSTORE PUSH1 0x20 ADD PUSH1 0x0 KECCAK256 PUSH1 0x2 ADD PUSH1 0x0 PUSH2 0x100 EXP DUP2 SLOAD DUP2 PUSH1 0xFF MUL NOT AND SWAP1 DUP4 ISZERO ISZERO MUL OR SWAP1 SSTORE POP PUSH1 0x1 SWAP1 POP SWAP5 SWAP4 POP POP POP POP JUMP JUMPDEST PUSH1 0x0 DUP1 PUSH1 0x0 DUP5 DUP2 MSTORE PUSH1 0x20 ADD SWAP1 DUP2 MSTORE PUSH1 0x20 ADD PUSH1 0x0 KECCAK256 PUSH1 0x0 ADD PUSH1 0x0 DUP4 PUSH20 0xFFFFFFFFFFFFFFFFFFFFFFFFFFFFFFFFFFFFFFFF AND PUSH20 0xFFFFFFFFFFFFFFFFFFFFFFFFFFFFFFFFFFFFFFFF AND DUP2 MSTORE PUSH1 0x20 ADD SWAP1 DUP2 MSTORE PUSH1 0x20 ADD PUSH1 0x0 KECCAK256 PUSH1 0x0 SWAP1 SLOAD SWAP1 PUSH2 0x100 EXP SWAP1 DIV PUSH1 0xFF AND SWAP1 POP SWAP3 SWAP2 POP POP JUMP JUMPDEST PUSH1 0x0 DUP1 SHL DUP2 JUMP JUMPDEST PUSH2 0x2C38 PUSH2 0x487A JUMP JUMPDEST PUSH1 0x6 PUSH1 0x0 DUP5 PUSH20 0xFFFFFFFFFFFFFFFFFFFFFFFFFFFFFFFFFFFFFFFF AND PUSH20 0xFFFFFFFFFFFFFFFFFFFFFFFFFFFFFFFFFFFFFFFF AND DUP2 MSTORE PUSH1 0x20 ADD SWAP1 DUP2 MSTORE PUSH1 0x20 ADD PUSH1 0x0 KECCAK256 PUSH1 0x8 ADD PUSH1 0x0 DUP4 DUP2 MSTORE PUSH1 0x20 ADD SWAP1 DUP2 MSTORE PUSH1 0x20 ADD PUSH1 0x0 KECCAK256 PUSH1 0x40 MLOAD DUP1 PUSH1 0x60 ADD PUSH1 0x40 MSTORE SWAP1 DUP2 PUSH1 0x0 DUP3 ADD SLOAD DUP2 MSTORE PUSH1 0x20 ADD PUSH1 0x1 DUP3 ADD DUP1 SLOAD PUSH2 0x2CB0 SWAP1 PUSH2 0x597A JUMP JUMPDEST DUP1 PUSH1 0x1F ADD PUSH1 0x20 DUP1 SWAP2 DIV MUL PUSH1 0x20 ADD PUSH1 0x40 MLOAD SWAP1 DUP2 ADD PUSH1 0x40 MSTORE DUP1 SWAP3 SWAP2 SWAP1 DUP2 DUP2 MSTORE PUSH1 0x20 ADD DUP3 DUP1 SLOAD PUSH2 0x2CDC SWAP1 PUSH2 0x597A JUMP JUMPDEST DUP1 ISZERO PUSH2 0x2D29 JUMPI DUP1 PUSH1 0x1F LT PUSH2 0x2CFE JUMPI PUSH2 0x100 DUP1 DUP4 SLOAD DIV MUL DUP4 MSTORE SWAP2 PUSH1 0x20 ADD SWAP2 PUSH2 0x2D29 JUMP JUMPDEST DUP3 ADD SWAP2 SWAP1 PUSH1 0x0 MSTORE PUSH1 0x20 PUSH1 0x0 KECCAK256 SWAP1 JUMPDEST DUP2 SLOAD DUP2 MSTORE SWAP1 PUSH1 0x1 ADD SWAP1 PUSH1 0x20 ADD DUP1 DUP4 GT PUSH2 0x2D0C JUMPI DUP3 SWAP1 SUB PUSH1 0x1F AND DUP3 ADD SWAP2 JUMPDEST POP POP POP POP POP DUP2 MSTORE PUSH1 0x20 ADD PUSH1 0x2 DUP3 ADD DUP1 SLOAD PUSH2 0x2D42 SWAP1 PUSH2 0x597A JUMP JUMPDEST DUP1 PUSH1 0x1F ADD PUSH1 0x20 DUP1 SWAP2 DIV MUL PUSH1 0x20 ADD PUSH1 0x40 MLOAD SWAP1 DUP2 ADD PUSH1 0x40 MSTORE DUP1 SWAP3 SWAP2 SWAP1 DUP2 DUP2 MSTORE PUSH1 0x20 ADD DUP3 DUP1 SLOAD PUSH2 0x2D6E SWAP1 PUSH2 0x597A JUMP JUMPDEST DUP1 ISZERO PUSH2 0x2DBB JUMPI DUP1 PUSH1 0x1F LT PUSH2 0x2D90 JUMPI PUSH2 0x100 DUP1 DUP4 SLOAD DIV MUL DUP4 MSTORE SWAP2 PUSH1 0x20 ADD SWAP2 PUSH2 0x2DBB JUMP JUMPDEST DUP3 ADD SWAP2 SWAP1 PUSH1 0x0 MSTORE PUSH1 0x20 PUSH1 0x0 KECCAK256 SWAP1 JUMPDEST DUP2 SLOAD DUP2 MSTORE SWAP1 PUSH1 0x1 ADD SWAP1 PUSH1 0x20 ADD DUP1 DUP4 GT PUSH2 0x2D9E JUMPI DUP3 SWAP1 SUB PUSH1 0x1F AND DUP3 ADD SWAP2 JUMPDEST POP POP POP POP POP DUP2 MSTORE POP POP SWAP1 POP SWAP3 SWAP2 POP POP JUMP JUMPDEST PUSH1 0x0 PUSH2 0x2DF8 PUSH32 0x56455249464945445F444F43544F520000000000000000000000000000000000 DUP4 PUSH2 0x2BBF JUMP JUMPDEST PUSH2 0x2E37 JUMPI PUSH1 0x40 MLOAD PUSH32 0x8C379A000000000000000000000000000000000000000000000000000000000 DUP2 MSTORE PUSH1 0x4 ADD PUSH2 0x2E2E SWAP1 PUSH2 0x562A JUMP JUMPDEST PUSH1 0x40 MLOAD DUP1 SWAP2 SUB SWAP1 REVERT JUMPDEST PUSH2 0x2E81 PUSH1 0x9 PUSH1 0x0 DUP7 PUSH20 0xFFFFFFFFFFFFFFFFFFFFFFFFFFFFFFFFFFFFFFFF AND PUSH20 0xFFFFFFFFFFFFFFFFFFFFFFFFFFFFFFFFFFFFFFFF AND DUP2 MSTORE PUSH1 0x20 ADD SWAP1 DUP2 MSTORE PUSH1 0x20 ADD PUSH1 0x0 KECCAK256 PUSH1 0x4 ADD PUSH2 0x455C JUMP JUMPDEST DUP3 PUSH1 0x7 PUSH1 0x0 DUP5 PUSH20 0xFFFFFFFFFFFFFFFFFFFFFFFFFFFFFFFFFFFFFFFF AND PUSH20 0xFFFFFFFFFFFFFFFFFFFFFFFFFFFFFFFFFFFFFFFF AND DUP2 MSTORE PUSH1 0x20 ADD SWAP1 DUP2 MSTORE PUSH1 0x20 ADD PUSH1 0x0 KECCAK256 PUSH1 0x3 ADD PUSH1 0x0 PUSH2 0x100 EXP DUP2 SLOAD DUP2 PUSH20 0xFFFFFFFFFFFFFFFFFFFFFFFFFFFFFFFFFFFFFFFF MUL NOT AND SWAP1 DUP4 PUSH20 0xFFFFFFFFFFFFFFFFFFFFFFFFFFFFFFFFFFFFFFFF AND MUL OR SWAP1 SSTORE POP PUSH2 0x2F4C PUSH1 0x9 PUSH1 0x0 DUP6 PUSH20 0xFFFFFFFFFFFFFFFFFFFFFFFFFFFFFFFFFFFFFFFF AND PUSH20 0xFFFFFFFFFFFFFFFFFFFFFFFFFFFFFFFFFFFFFFFF AND DUP2 MSTORE PUSH1 0x20 ADD SWAP1 DUP2 MSTORE PUSH1 0x20 ADD PUSH1 0x0 KECCAK256 PUSH1 0x4 ADD PUSH2 0x42E0 JUMP JUMPDEST PUSH1 0x1 SWAP1 POP SWAP4 SWAP3 POP POP POP JUMP JUMPDEST PUSH1 0x0 PUSH2 0x2F83 PUSH32 0x50415449454E5400000000000000000000000000000000000000000000000000 DUP4 PUSH2 0x2BBF JUMP JUMPDEST DUP1 PUSH2 0x2FB4 JUMPI POP PUSH2 0x2FB3 PUSH32 0x56455249464945445F50415449454E5400000000000000000000000000000000 DUP4 PUSH2 0x2BBF JUMP JUMPDEST JUMPDEST PUSH2 0x2FF3 JUMPI PUSH1 0x40 MLOAD PUSH32 0x8C379A000000000000000000000000000000000000000000000000000000000 DUP2 MSTORE PUSH1 0x4 ADD PUSH2 0x2FEA SWAP1 PUSH2 0x562A JUMP JUMPDEST PUSH1 0x40 MLOAD DUP1 SWAP2 SUB SWAP1 REVERT JUMPDEST DUP3 PUSH1 0x6 PUSH1 0x0 DUP5 PUSH20 0xFFFFFFFFFFFFFFFFFFFFFFFFFFFFFFFFFFFFFFFF AND PUSH20 0xFFFFFFFFFFFFFFFFFFFFFFFFFFFFFFFFFFFFFFFF AND DUP2 MSTORE PUSH1 0x20 ADD SWAP1 DUP2 MSTORE PUSH1 0x20 ADD PUSH1 0x0 KECCAK256 PUSH1 0x1 ADD SWAP1 DUP1 MLOAD SWAP1 PUSH1 0x20 ADD SWAP1 PUSH2 0x3049 SWAP3 SWAP2 SWAP1 PUSH2 0x47F4 JUMP JUMPDEST POP PUSH1 0x1 SWAP1 POP SWAP3 SWAP2 POP POP JUMP JUMPDEST PUSH1 0x0 PUSH2 0x30A0 PUSH1 0x9 PUSH1 0x0 DUP5 PUSH20 0xFFFFFFFFFFFFFFFFFFFFFFFFFFFFFFFFFFFFFFFF AND PUSH20 0xFFFFFFFFFFFFFFFFFFFFFFFFFFFFFFFFFFFFFFFF AND DUP2 MSTORE PUSH1 0x20 ADD SWAP1 DUP2 MSTORE PUSH1 0x20 ADD PUSH1 0x0 KECCAK256 PUSH1 0x4 ADD PUSH2 0x42C4 JUMP JUMPDEST SWAP1 POP SWAP2 SWAP1 POP JUMP JUMPDEST PUSH1 0x0 PUSH2 0x30D3 PUSH32 0x504841524D414359000000000000000000000000000000000000000000000000 DUP4 PUSH2 0x2BBF JUMP JUMPDEST ISZERO PUSH2 0x316B JUMPI ADDRESS PUSH20 0xFFFFFFFFFFFFFFFFFFFFFFFFFFFFFFFFFFFFFFFF AND PUSH4 0xCDCA8F7C DUP5 DUP5 PUSH1 0x40 MLOAD DUP4 PUSH4 0xFFFFFFFF AND PUSH1 0xE0 SHL DUP2 MSTORE PUSH1 0x4 ADD PUSH2 0x3113 SWAP3 SWAP2 SWAP1 PUSH2 0x5480 JUMP JUMPDEST PUSH1 0x20 PUSH1 0x40 MLOAD DUP1 DUP4 SUB DUP2 PUSH1 0x0 DUP8 DUP1 EXTCODESIZE ISZERO DUP1 ISZERO PUSH2 0x312D JUMPI PUSH1 0x0 DUP1 REVERT JUMPDEST POP GAS CALL ISZERO DUP1 ISZERO PUSH2 0x3141 JUMPI RETURNDATASIZE PUSH1 0x0 DUP1 RETURNDATACOPY RETURNDATASIZE PUSH1 0x0 REVERT JUMPDEST POP POP POP POP PUSH1 0x40 MLOAD RETURNDATASIZE PUSH1 0x1F NOT PUSH1 0x1F DUP3 ADD AND DUP3 ADD DUP1 PUSH1 0x40 MSTORE POP DUP2 ADD SWAP1 PUSH2 0x3165 SWAP2 SWAP1 PUSH2 0x4BA5 JUMP JUMPDEST POP PUSH2 0x3382 JUMP JUMPDEST PUSH2 0x3195 PUSH32 0x504841524D414359000000000000000000000000000000000000000000000000 DUP4 PUSH2 0x42D2 JUMP JUMPDEST PUSH1 0x1 PUSH1 0x0 SWAP1 SLOAD SWAP1 PUSH2 0x100 EXP SWAP1 DIV PUSH20 0xFFFFFFFFFFFFFFFFFFFFFFFFFFFFFFFFFFFFFFFF AND PUSH20 0xFFFFFFFFFFFFFFFFFFFFFFFFFFFFFFFFFFFFFFFF AND PUSH4 0x95EA7B3 DUP4 PUSH3 0x186A0 PUSH1 0x40 MLOAD DUP4 PUSH4 0xFFFFFFFF AND PUSH1 0xE0 SHL DUP2 MSTORE PUSH1 0x4 ADD PUSH2 0x31F5 SWAP3 SWAP2 SWAP1 PUSH2 0x53FF JUMP JUMPDEST PUSH1 0x20 PUSH1 0x40 MLOAD DUP1 DUP4 SUB DUP2 PUSH1 0x0 DUP8 DUP1 EXTCODESIZE ISZERO DUP1 ISZERO PUSH2 0x320F JUMPI PUSH1 0x0 DUP1 REVERT JUMPDEST POP GAS CALL ISZERO DUP1 ISZERO PUSH2 0x3223 JUMPI RETURNDATASIZE PUSH1 0x0 DUP1 RETURNDATACOPY RETURNDATASIZE PUSH1 0x0 REVERT JUMPDEST POP POP POP POP PUSH1 0x40 MLOAD RETURNDATASIZE PUSH1 0x1F NOT PUSH1 0x1F DUP3 ADD AND DUP3 ADD DUP1 PUSH1 0x40 MSTORE POP DUP2 ADD SWAP1 PUSH2 0x3247 SWAP2 SWAP1 PUSH2 0x4BA5 JUMP JUMPDEST POP DUP4 PUSH1 0x8 PUSH1 0x0 DUP5 PUSH20 0xFFFFFFFFFFFFFFFFFFFFFFFFFFFFFFFFFFFFFFFF AND PUSH20 0xFFFFFFFFFFFFFFFFFFFFFFFFFFFFFFFFFFFFFFFF AND DUP2 MSTORE PUSH1 0x20 ADD SWAP1 DUP2 MSTORE PUSH1 0x20 ADD PUSH1 0x0 KECCAK256 PUSH1 0x0 ADD SWAP1 DUP1 MLOAD SWAP1 PUSH1 0x20 ADD SWAP1 PUSH2 0x329E SWAP3 SWAP2 SWAP1 PUSH2 0x47F4 JUMP JUMPDEST POP DUP2 PUSH1 0x8 PUSH1 0x0 DUP5 PUSH20 0xFFFFFFFFFFFFFFFFFFFFFFFFFFFFFFFFFFFFFFFF AND PUSH20 0xFFFFFFFFFFFFFFFFFFFFFFFFFFFFFFFFFFFFFFFF AND DUP2 MSTORE PUSH1 0x20 ADD SWAP1 DUP2 MSTORE PUSH1 0x20 ADD PUSH1 0x0 KECCAK256 PUSH1 0x2 ADD PUSH1 0x0 PUSH2 0x100 EXP DUP2 SLOAD DUP2 PUSH20 0xFFFFFFFFFFFFFFFFFFFFFFFFFFFFFFFFFFFFFFFF MUL NOT AND SWAP1 DUP4 PUSH20 0xFFFFFFFFFFFFFFFFFFFFFFFFFFFFFFFFFFFFFFFF AND MUL OR SWAP1 SSTORE POP DUP3 PUSH1 0x8 PUSH1 0x0 DUP5 PUSH20 0xFFFFFFFFFFFFFFFFFFFFFFFFFFFFFFFFFFFFFFFF AND PUSH20 0xFFFFFFFFFFFFFFFFFFFFFFFFFFFFFFFFFFFFFFFF AND DUP2 MSTORE PUSH1 0x20 ADD SWAP1 DUP2 MSTORE PUSH1 0x20 ADD PUSH1 0x0 KECCAK256 PUSH1 0x1 ADD SWAP1 DUP1 MLOAD SWAP1 PUSH1 0x20 ADD SWAP1 PUSH2 0x3376 SWAP3 SWAP2 SWAP1 PUSH2 0x47F4 JUMP JUMPDEST POP PUSH2 0x3381 PUSH1 0x5 PUSH2 0x42E0 JUMP JUMPDEST JUMPDEST PUSH1 0x1 SWAP1 POP SWAP4 SWAP3 POP POP POP JUMP JUMPDEST PUSH1 0x0 PUSH2 0x33B9 PUSH32 0x504841524D414359000000000000000000000000000000000000000000000000 DUP4 PUSH2 0x2BBF JUMP JUMPDEST PUSH2 0x33F8 JUMPI PUSH1 0x40 MLOAD PUSH32 0x8C379A000000000000000000000000000000000000000000000000000000000 DUP2 MSTORE PUSH1 0x4 ADD PUSH2 0x33EF SWAP1 PUSH2 0x562A JUMP JUMPDEST PUSH1 0x40 MLOAD DUP1 SWAP2 SUB SWAP1 REVERT JUMPDEST DUP3 PUSH1 0x8 PUSH1 0x0 DUP5 PUSH20 0xFFFFFFFFFFFFFFFFFFFFFFFFFFFFFFFFFFFFFFFF AND PUSH20 0xFFFFFFFFFFFFFFFFFFFFFFFFFFFFFFFFFFFFFFFF AND DUP2 MSTORE PUSH1 0x20 ADD SWAP1 DUP2 MSTORE PUSH1 0x20 ADD PUSH1 0x0 KECCAK256 PUSH1 0x1 ADD SWAP1 DUP1 MLOAD SWAP1 PUSH1 0x20 ADD SWAP1 PUSH2 0x344E SWAP3 SWAP2 SWAP1 PUSH2 0x47F4 JUMP JUMPDEST POP PUSH1 0x1 SWAP1 POP SWAP3 SWAP2 POP POP JUMP JUMPDEST PUSH1 0x0 DUP3 PUSH1 0x7 PUSH1 0x0 DUP5 PUSH20 0xFFFFFFFFFFFFFFFFFFFFFFFFFFFFFFFFFFFFFFFF AND PUSH20 0xFFFFFFFFFFFFFFFFFFFFFFFFFFFFFFFFFFFFFFFF AND DUP2 MSTORE PUSH1 0x20 ADD SWAP1 DUP2 MSTORE PUSH1 0x20 ADD PUSH1 0x0 KECCAK256 PUSH1 0x2 ADD SWAP1 DUP1 MLOAD SWAP1 PUSH1 0x20 ADD SWAP1 PUSH2 0x34B1 SWAP3 SWAP2 SWAP1 PUSH2 0x47F4 JUMP JUMPDEST POP PUSH1 0x1 SWAP1 POP SWAP3 SWAP2 POP POP JUMP JUMPDEST PUSH1 0x0 ADDRESS PUSH20 0xFFFFFFFFFFFFFFFFFFFFFFFFFFFFFFFFFFFFFFFF AND PUSH4 0x27F66A1 DUP4 PUSH1 0x40 MLOAD DUP3 PUSH4 0xFFFFFFFF AND PUSH1 0xE0 SHL DUP2 MSTORE PUSH1 0x4 ADD PUSH2 0x34F7 SWAP2 SWAP1 PUSH2 0x545E JUMP JUMPDEST PUSH1 0x20 PUSH1 0x40 MLOAD DUP1 DUP4 SUB DUP2 DUP7 DUP1 EXTCODESIZE ISZERO DUP1 ISZERO PUSH2 0x350F JUMPI PUSH1 0x0 DUP1 REVERT JUMPDEST POP GAS STATICCALL ISZERO DUP1 ISZERO PUSH2 0x3523 JUMPI RETURNDATASIZE PUSH1 0x0 DUP1 RETURNDATACOPY RETURNDATASIZE PUSH1 0x0 REVERT JUMPDEST POP POP POP POP PUSH1 0x40 MLOAD RETURNDATASIZE PUSH1 0x1F NOT PUSH1 0x1F DUP3 ADD AND DUP3 ADD DUP1 PUSH1 0x40 MSTORE POP DUP2 ADD SWAP1 PUSH2 0x3547 SWAP2 SWAP1 PUSH2 0x4BFF JUMP JUMPDEST SWAP1 POP PUSH2 0x3556 PUSH1 0x0 DUP1 SHL DUP6 PUSH2 0x2BBF JUMP JUMPDEST PUSH2 0x3595 JUMPI PUSH1 0x40 MLOAD PUSH32 0x8C379A000000000000000000000000000000000000000000000000000000000 DUP2 MSTORE PUSH1 0x4 ADD PUSH2 0x358C SWAP1 PUSH2 0x562A JUMP JUMPDEST PUSH1 0x40 MLOAD DUP1 SWAP2 SUB SWAP1 REVERT JUMPDEST PUSH2 0x359F DUP2 DUP5 PUSH2 0x35A5 JUMP JUMPDEST POP POP POP POP JUMP JUMPDEST PUSH2 0x35AE DUP3 PUSH2 0x13D7 JUMP JUMPDEST PUSH2 0x35BF DUP2 PUSH2 0x35BA PUSH2 0x42F6 JUMP JUMPDEST PUSH2 0x42FE JUMP JUMPDEST PUSH2 0x35C9 DUP4 DUP4 PUSH2 0x447B JUMP JUMPDEST POP POP POP JUMP JUMPDEST PUSH1 0x60 PUSH2 0x35FA PUSH32 0x56455249464945445F50415449454E5400000000000000000000000000000000 DUP4 PUSH2 0x2BBF JUMP JUMPDEST ISZERO PUSH2 0x363C JUMPI PUSH1 0x40 MLOAD DUP1 PUSH1 0x40 ADD PUSH1 0x40 MSTORE DUP1 PUSH1 0x10 DUP2 MSTORE PUSH1 0x20 ADD PUSH32 0x56455249464945445F50415449454E5400000000000000000000000000000000 DUP2 MSTORE POP SWAP1 POP PUSH2 0x379C JUMP JUMPDEST PUSH2 0x3666 PUSH32 0x50415449454E5400000000000000000000000000000000000000000000000000 DUP4 PUSH2 0x2BBF JUMP JUMPDEST ISZERO PUSH2 0x36A8 JUMPI PUSH1 0x40 MLOAD DUP1 PUSH1 0x40 ADD PUSH1 0x40 MSTORE DUP1 PUSH1 0x7 DUP2 MSTORE PUSH1 0x20 ADD PUSH32 0x50415449454E5400000000000000000000000000000000000000000000000000 DUP2 MSTORE POP SWAP1 POP PUSH2 0x379C JUMP JUMPDEST PUSH2 0x36B5 PUSH1 0x0 DUP1 SHL DUP4 PUSH2 0x2BBF JUMP JUMPDEST ISZERO PUSH2 0x36F7 JUMPI PUSH1 0x40 MLOAD DUP1 PUSH1 0x40 ADD PUSH1 0x40 MSTORE DUP1 PUSH1 0x12 DUP2 MSTORE PUSH1 0x20 ADD PUSH32 0x44454641554C545F41444D494E5F524F4C450000000000000000000000000000 DUP2 MSTORE POP SWAP1 POP PUSH2 0x379C JUMP JUMPDEST PUSH2 0x3721 PUSH32 0x504841524D414359000000000000000000000000000000000000000000000000 DUP4 PUSH2 0x2BBF JUMP JUMPDEST ISZERO PUSH2 0x3763 JUMPI PUSH1 0x40 MLOAD DUP1 PUSH1 0x40 ADD PUSH1 0x40 MSTORE DUP1 PUSH1 0x8 DUP2 MSTORE PUSH1 0x20 ADD PUSH32 0x504841524D414359000000000000000000000000000000000000000000000000 DUP2 MSTORE POP SWAP1 POP PUSH2 0x379C JUMP JUMPDEST PUSH1 0x40 MLOAD DUP1 PUSH1 0x40 ADD PUSH1 0x40 MSTORE DUP1 PUSH1 0xA DUP2 MSTORE PUSH1 0x20 ADD PUSH32 0x554E564552494649454400000000000000000000000000000000000000000000 DUP2 MSTORE POP SWAP1 POP JUMPDEST SWAP2 SWAP1 POP JUMP JUMPDEST PUSH1 0x60 PUSH2 0x37CD PUSH32 0x56455249464945445F444F43544F520000000000000000000000000000000000 DUP4 PUSH2 0x2BBF JUMP JUMPDEST ISZERO PUSH2 0x380F JUMPI PUSH1 0x40 MLOAD DUP1 PUSH1 0x40 ADD PUSH1 0x40 MSTORE DUP1 PUSH1 0x1A DUP2 MSTORE PUSH1 0x20 ADD PUSH32 0x414343455353204752414E54454420425920484F53504954414C000000000000 DUP2 MSTORE POP SWAP1 POP PUSH2 0x38B4 JUMP JUMPDEST PUSH2 0x3839 PUSH32 0x444F43544F520000000000000000000000000000000000000000000000000000 DUP4 PUSH2 0x2BBF JUMP JUMPDEST ISZERO PUSH2 0x387B JUMPI PUSH1 0x40 MLOAD DUP1 PUSH1 0x40 ADD PUSH1 0x40 MSTORE DUP1 PUSH1 0x6 DUP2 MSTORE PUSH1 0x20 ADD PUSH32 0x444F43544F520000000000000000000000000000000000000000000000000000 DUP2 MSTORE POP SWAP1 POP PUSH2 0x38B4 JUMP JUMPDEST PUSH1 0x40 MLOAD DUP1 PUSH1 0x40 ADD PUSH1 0x40 MSTORE DUP1 PUSH1 0xA DUP2 MSTORE PUSH1 0x20 ADD PUSH32 0x554E564552494649454400000000000000000000000000000000000000000000 DUP2 MSTORE POP SWAP1 POP JUMPDEST SWAP2 SWAP1 POP JUMP JUMPDEST PUSH1 0x60 DUP1 PUSH1 0x0 PUSH2 0x38E8 PUSH32 0x504841524D414359000000000000000000000000000000000000000000000000 DUP6 PUSH2 0x2BBF JUMP JUMPDEST PUSH2 0x3927 JUMPI PUSH1 0x40 MLOAD PUSH32 0x8C379A000000000000000000000000000000000000000000000000000000000 DUP2 MSTORE PUSH1 0x4 ADD PUSH2 0x391E SWAP1 PUSH2 0x562A JUMP JUMPDEST PUSH1 0x40 MLOAD DUP1 SWAP2 SUB SWAP1 REVERT JUMPDEST PUSH1 0x8 PUSH1 0x0 DUP6 PUSH20 0xFFFFFFFFFFFFFFFFFFFFFFFFFFFFFFFFFFFFFFFF AND PUSH20 0xFFFFFFFFFFFFFFFFFFFFFFFFFFFFFFFFFFFFFFFF AND DUP2 MSTORE PUSH1 0x20 ADD SWAP1 DUP2 MSTORE PUSH1 0x20 ADD PUSH1 0x0 KECCAK256 PUSH1 0x0 ADD PUSH1 0x8 PUSH1 0x0 DUP7 PUSH20 0xFFFFFFFFFFFFFFFFFFFFFFFFFFFFFFFFFFFFFFFF AND PUSH20 0xFFFFFFFFFFFFFFFFFFFFFFFFFFFFFFFFFFFFFFFF AND DUP2 MSTORE PUSH1 0x20 ADD SWAP1 DUP2 MSTORE PUSH1 0x20 ADD PUSH1 0x0 KECCAK256 PUSH1 0x1 ADD DUP6 DUP3 DUP1 SLOAD PUSH2 0x39B8 SWAP1 PUSH2 0x597A JUMP JUMPDEST DUP1 PUSH1 0x1F ADD PUSH1 0x20 DUP1 SWAP2 DIV MUL PUSH1 0x20 ADD PUSH1 0x40 MLOAD SWAP1 DUP2 ADD PUSH1 0x40 MSTORE DUP1 SWAP3 SWAP2 SWAP1 DUP2 DUP2 MSTORE PUSH1 0x20 ADD DUP3 DUP1 SLOAD PUSH2 0x39E4 SWAP1 PUSH2 0x597A JUMP JUMPDEST DUP1 ISZERO PUSH2 0x3A31 JUMPI DUP1 PUSH1 0x1F LT PUSH2 0x3A06 JUMPI PUSH2 0x100 DUP1 DUP4 SLOAD DIV MUL DUP4 MSTORE SWAP2 PUSH1 0x20 ADD SWAP2 PUSH2 0x3A31 JUMP JUMPDEST DUP3 ADD SWAP2 SWAP1 PUSH1 0x0 MSTORE PUSH1 0x20 PUSH1 0x0 KECCAK256 SWAP1 JUMPDEST DUP2 SLOAD DUP2 MSTORE SWAP1 PUSH1 0x1 ADD SWAP1 PUSH1 0x20 ADD DUP1 DUP4 GT PUSH2 0x3A14 JUMPI DUP3 SWAP1 SUB PUSH1 0x1F AND DUP3 ADD SWAP2 JUMPDEST POP POP POP POP POP SWAP3 POP DUP2 DUP1 SLOAD PUSH2 0x3A44 SWAP1 PUSH2 0x597A JUMP JUMPDEST DUP1 PUSH1 0x1F ADD PUSH1 0x20 DUP1 SWAP2 DIV MUL PUSH1 0x20 ADD PUSH1 0x40 MLOAD SWAP1 DUP2 ADD PUSH1 0x40 MSTORE DUP1 SWAP3 SWAP2 SWAP1 DUP2 DUP2 MSTORE PUSH1 0x20 ADD DUP3 DUP1 SLOAD PUSH2 0x3A70 SWAP1 PUSH2 0x597A JUMP JUMPDEST DUP1 ISZERO PUSH2 0x3ABD JUMPI DUP1 PUSH1 0x1F LT PUSH2 0x3A92 JUMPI PUSH2 0x100 DUP1 DUP4 SLOAD DIV MUL DUP4 MSTORE SWAP2 PUSH1 0x20 ADD SWAP2 PUSH2 0x3ABD JUMP JUMPDEST DUP3 ADD SWAP2 SWAP1 PUSH1 0x0 MSTORE PUSH1 0x20 PUSH1 0x0 KECCAK256 SWAP1 JUMPDEST DUP2 SLOAD DUP2 MSTORE SWAP1 PUSH1 0x1 ADD SWAP1 PUSH1 0x20 ADD DUP1 DUP4 GT PUSH2 0x3AA0 JUMPI DUP3 SWAP1 SUB PUSH1 0x1F AND DUP3 ADD SWAP2 JUMPDEST POP POP POP POP POP SWAP2 POP SWAP3 POP SWAP3 POP SWAP3 POP SWAP2 SWAP4 SWAP1 SWAP3 POP JUMP JUMPDEST PUSH1 0x60 DUP1 PUSH1 0x0 DUP1 PUSH1 0x0 PUSH1 0x9 PUSH1 0x0 DUP8 PUSH20 0xFFFFFFFFFFFFFFFFFFFFFFFFFFFFFFFFFFFFFFFF AND PUSH20 0xFFFFFFFFFFFFFFFFFFFFFFFFFFFFFFFFFFFFFFFF AND DUP2 MSTORE PUSH1 0x20 ADD SWAP1 DUP2 MSTORE PUSH1 0x20 ADD PUSH1 0x0 KECCAK256 PUSH1 0x0 ADD PUSH1 0x9 PUSH1 0x0 DUP9 PUSH20 0xFFFFFFFFFFFFFFFFFFFFFFFFFFFFFFFFFFFFFFFF AND PUSH20 0xFFFFFFFFFFFFFFFFFFFFFFFFFFFFFFFFFFFFFFFF AND DUP2 MSTORE PUSH1 0x20 ADD SWAP1 DUP2 MSTORE PUSH1 0x20 ADD PUSH1 0x0 KECCAK256 PUSH1 0x1 ADD PUSH1 0x9 PUSH1 0x0 DUP10 PUSH20 0xFFFFFFFFFFFFFFFFFFFFFFFFFFFFFFFFFFFFFFFF AND PUSH20 0xFFFFFFFFFFFFFFFFFFFFFFFFFFFFFFFFFFFFFFFF AND DUP2 MSTORE PUSH1 0x20 ADD SWAP1 DUP2 MSTORE PUSH1 0x20 ADD PUSH1 0x0 KECCAK256 PUSH1 0x2 ADD PUSH1 0x0 SWAP1 SLOAD SWAP1 PUSH2 0x100 EXP SWAP1 DIV PUSH20 0xFFFFFFFFFFFFFFFFFFFFFFFFFFFFFFFFFFFFFFFF AND PUSH2 0x3C0A PUSH1 0x9 PUSH1 0x0 DUP12 PUSH20 0xFFFFFFFFFFFFFFFFFFFFFFFFFFFFFFFFFFFFFFFF AND PUSH20 0xFFFFFFFFFFFFFFFFFFFFFFFFFFFFFFFFFFFFFFFF AND DUP2 MSTORE PUSH1 0x20 ADD SWAP1 DUP2 MSTORE PUSH1 0x20 ADD PUSH1 0x0 KECCAK256 PUSH1 0x4 ADD PUSH2 0x42C4 JUMP JUMPDEST PUSH2 0x3C54 PUSH1 0x9 PUSH1 0x0 DUP13 PUSH20 0xFFFFFFFFFFFFFFFFFFFFFFFFFFFFFFFFFFFFFFFF AND PUSH20 0xFFFFFFFFFFFFFFFFFFFFFFFFFFFFFFFFFFFFFFFF AND DUP2 MSTORE PUSH1 0x20 ADD SWAP1 DUP2 MSTORE PUSH1 0x20 ADD PUSH1 0x0 KECCAK256 PUSH1 0x3 ADD PUSH2 0x42C4 JUMP JUMPDEST DUP5 DUP1 SLOAD PUSH2 0x3C60 SWAP1 PUSH2 0x597A JUMP JUMPDEST DUP1 PUSH1 0x1F ADD PUSH1 0x20 DUP1 SWAP2 DIV MUL PUSH1 0x20 ADD PUSH1 0x40 MLOAD SWAP1 DUP2 ADD PUSH1 0x40 MSTORE DUP1 SWAP3 SWAP2 SWAP1 DUP2 DUP2 MSTORE PUSH1 0x20 ADD DUP3 DUP1 SLOAD PUSH2 0x3C8C SWAP1 PUSH2 0x597A JUMP JUMPDEST DUP1 ISZERO PUSH2 0x3CD9 JUMPI DUP1 PUSH1 0x1F LT PUSH2 0x3CAE JUMPI PUSH2 0x100 DUP1 DUP4 SLOAD DIV MUL DUP4 MSTORE SWAP2 PUSH1 0x20 ADD SWAP2 PUSH2 0x3CD9 JUMP JUMPDEST DUP3 ADD SWAP2 SWAP1 PUSH1 0x0 MSTORE PUSH1 0x20 PUSH1 0x0 KECCAK256 SWAP1 JUMPDEST DUP2 SLOAD DUP2 MSTORE SWAP1 PUSH1 0x1 ADD SWAP1 PUSH1 0x20 ADD DUP1 DUP4 GT PUSH2 0x3CBC JUMPI DUP3 SWAP1 SUB PUSH1 0x1F AND DUP3 ADD SWAP2 JUMPDEST POP POP POP POP POP SWAP5 POP DUP4 DUP1 SLOAD PUSH2 0x3CEC SWAP1 PUSH2 0x597A JUMP JUMPDEST DUP1 PUSH1 0x1F ADD PUSH1 0x20 DUP1 SWAP2 DIV MUL PUSH1 0x20 ADD PUSH1 0x40 MLOAD SWAP1 DUP2 ADD PUSH1 0x40 MSTORE DUP1 SWAP3 SWAP2 SWAP1 DUP2 DUP2 MSTORE PUSH1 0x20 ADD DUP3 DUP1 SLOAD PUSH2 0x3D18 SWAP1 PUSH2 0x597A JUMP JUMPDEST DUP1 ISZERO PUSH2 0x3D65 JUMPI DUP1 PUSH1 0x1F LT PUSH2 0x3D3A JUMPI PUSH2 0x100 DUP1 DUP4 SLOAD DIV MUL DUP4 MSTORE SWAP2 PUSH1 0x20 ADD SWAP2 PUSH2 0x3D65 JUMP JUMPDEST DUP3 ADD SWAP2 SWAP1 PUSH1 0x0 MSTORE PUSH1 0x20 PUSH1 0x0 KECCAK256 SWAP1 JUMPDEST DUP2 SLOAD DUP2 MSTORE SWAP1 PUSH1 0x1 ADD SWAP1 PUSH1 0x20 ADD DUP1 DUP4 GT PUSH2 0x3D48 JUMPI DUP3 SWAP1 SUB PUSH1 0x1F AND DUP3 ADD SWAP2 JUMPDEST POP POP POP POP POP SWAP4 POP SWAP5 POP SWAP5 POP SWAP5 POP SWAP5 POP SWAP5 POP SWAP2 SWAP4 SWAP6 SWAP1 SWAP3 SWAP5 POP JUMP JUMPDEST PUSH1 0x0 PUSH2 0x3D8B PUSH1 0x3 PUSH2 0x42C4 JUMP JUMPDEST SWAP1 POP SWAP1 JUMP JUMPDEST PUSH2 0x3D98 PUSH2 0x489B JUMP JUMPDEST PUSH1 0x6 PUSH1 0x0 DUP5 PUSH20 0xFFFFFFFFFFFFFFFFFFFFFFFFFFFFFFFFFFFFFFFF AND PUSH20 0xFFFFFFFFFFFFFFFFFFFFFFFFFFFFFFFFFFFFFFFF AND DUP2 MSTORE PUSH1 0x20 ADD SWAP1 DUP2 MSTORE PUSH1 0x20 ADD PUSH1 0x0 KECCAK256 PUSH1 0x6 ADD PUSH1 0x0 DUP4 DUP2 MSTORE PUSH1 0x20 ADD SWAP1 DUP2 MSTORE PUSH1 0x20 ADD PUSH1 0x0 KECCAK256 PUSH1 0x40 MLOAD DUP1 PUSH1 0x60 ADD PUSH1 0x40 MSTORE SWAP1 DUP2 PUSH1 0x0 DUP3 ADD SLOAD DUP2 MSTORE PUSH1 0x20 ADD PUSH1 0x1 DUP3 ADD DUP1 SLOAD PUSH2 0x3E10 SWAP1 PUSH2 0x597A JUMP JUMPDEST DUP1 PUSH1 0x1F ADD PUSH1 0x20 DUP1 SWAP2 DIV MUL PUSH1 0x20 ADD PUSH1 0x40 MLOAD SWAP1 DUP2 ADD PUSH1 0x40 MSTORE DUP1 SWAP3 SWAP2 SWAP1 DUP2 DUP2 MSTORE PUSH1 0x20 ADD DUP3 DUP1 SLOAD PUSH2 0x3E3C SWAP1 PUSH2 0x597A JUMP JUMPDEST DUP1 ISZERO PUSH2 0x3E89 JUMPI DUP1 PUSH1 0x1F LT PUSH2 0x3E5E JUMPI PUSH2 0x100 DUP1 DUP4 SLOAD DIV MUL DUP4 MSTORE SWAP2 PUSH1 0x20 ADD SWAP2 PUSH2 0x3E89 JUMP JUMPDEST DUP3 ADD SWAP2 SWAP1 PUSH1 0x0 MSTORE PUSH1 0x20 PUSH1 0x0 KECCAK256 SWAP1 JUMPDEST DUP2 SLOAD DUP2 MSTORE SWAP1 PUSH1 0x1 ADD SWAP1 PUSH1 0x20 ADD DUP1 DUP4 GT PUSH2 0x3E6C JUMPI DUP3 SWAP1 SUB PUSH1 0x1F AND DUP3 ADD SWAP2 JUMPDEST POP POP POP POP POP DUP2 MSTORE PUSH1 0x20 ADD PUSH1 0x2 DUP3 ADD PUSH1 0x0 SWAP1 SLOAD SWAP1 PUSH2 0x100 EXP SWAP1 DIV PUSH1 0xFF AND ISZERO ISZERO ISZERO ISZERO DUP2 MSTORE POP POP SWAP1 POP SWAP3 SWAP2 POP POP JUMP JUMPDEST PUSH1 0x0 PUSH2 0x3EE1 PUSH32 0x56455249464945445F444F43544F520000000000000000000000000000000000 DUP4 PUSH2 0x2BBF JUMP JUMPDEST PUSH2 0x3F20 JUMPI PUSH1 0x40 MLOAD PUSH32 0x8C379A000000000000000000000000000000000000000000000000000000000 DUP2 MSTORE PUSH1 0x4 ADD PUSH2 0x3F17 SWAP1 PUSH2 0x562A JUMP JUMPDEST PUSH1 0x40 MLOAD DUP1 SWAP2 SUB SWAP1 REVERT JUMPDEST PUSH1 0x6 PUSH1 0x0 DUP5 PUSH20 0xFFFFFFFFFFFFFFFFFFFFFFFFFFFFFFFFFFFFFFFF AND PUSH20 0xFFFFFFFFFFFFFFFFFFFFFFFFFFFFFFFFFFFFFFFF AND DUP2 MSTORE PUSH1 0x20 ADD SWAP1 DUP2 MSTORE PUSH1 0x20 ADD PUSH1 0x0 KECCAK256 PUSH1 0x5 ADD PUSH1 0x0 DUP2 SLOAD DUP1 SWAP3 SWAP2 SWAP1 PUSH2 0x3F73 SWAP1 PUSH2 0x59DD JUMP JUMPDEST SWAP2 SWAP1 POP SSTORE POP PUSH1 0x6 PUSH1 0x0 DUP5 PUSH20 0xFFFFFFFFFFFFFFFFFFFFFFFFFFFFFFFFFFFFFFFF AND PUSH20 0xFFFFFFFFFFFFFFFFFFFFFFFFFFFFFFFFFFFFFFFF AND DUP2 MSTORE PUSH1 0x20 ADD SWAP1 DUP2 MSTORE PUSH1 0x20 ADD PUSH1 0x0 KECCAK256 PUSH1 0x5 ADD SLOAD PUSH1 0x6 PUSH1 0x0 DUP6 PUSH20 0xFFFFFFFFFFFFFFFFFFFFFFFFFFFFFFFFFFFFFFFF AND PUSH20 0xFFFFFFFFFFFFFFFFFFFFFFFFFFFFFFFFFFFFFFFF AND DUP2 MSTORE PUSH1 0x20 ADD SWAP1 DUP2 MSTORE PUSH1 0x20 ADD PUSH1 0x0 KECCAK256 PUSH1 0x5 ADD DUP2 SWAP1 SSTORE POP PUSH1 0x6 PUSH1 0x0 DUP5 PUSH20 0xFFFFFFFFFFFFFFFFFFFFFFFFFFFFFFFFFFFFFFFF AND PUSH20 0xFFFFFFFFFFFFFFFFFFFFFFFFFFFFFFFFFFFFFFFF AND DUP2 MSTORE PUSH1 0x20 ADD SWAP1 DUP2 MSTORE PUSH1 0x20 ADD PUSH1 0x0 KECCAK256 PUSH1 0x5 ADD SLOAD PUSH1 0x6 PUSH1 0x0 DUP6 PUSH20 0xFFFFFFFFFFFFFFFFFFFFFFFFFFFFFFFFFFFFFFFF AND PUSH20 0xFFFFFFFFFFFFFFFFFFFFFFFFFFFFFFFFFFFFFFFF AND DUP2 MSTORE PUSH1 0x20 ADD SWAP1 DUP2 MSTORE PUSH1 0x20 ADD PUSH1 0x0 KECCAK256 PUSH1 0x6 ADD PUSH1 0x0 PUSH1 0x6 PUSH1 0x0 DUP8 PUSH20 0xFFFFFFFFFFFFFFFFFFFFFFFFFFFFFFFFFFFFFFFF AND PUSH20 0xFFFFFFFFFFFFFFFFFFFFFFFFFFFFFFFFFFFFFFFF AND DUP2 MSTORE PUSH1 0x20 ADD SWAP1 DUP2 MSTORE PUSH1 0x20 ADD PUSH1 0x0 KECCAK256 PUSH1 0x5 ADD SLOAD DUP2 MSTORE PUSH1 0x20 ADD SWAP1 DUP2 MSTORE PUSH1 0x20 ADD PUSH1 0x0 KECCAK256 PUSH1 0x0 ADD DUP2 SWAP1 SSTORE POP DUP4 PUSH1 0x6 PUSH1 0x0 DUP6 PUSH20 0xFFFFFFFFFFFFFFFFFFFFFFFFFFFFFFFFFFFFFFFF AND PUSH20 0xFFFFFFFFFFFFFFFFFFFFFFFFFFFFFFFFFFFFFFFF AND DUP2 MSTORE PUSH1 0x20 ADD SWAP1 DUP2 MSTORE PUSH1 0x20 ADD PUSH1 0x0 KECCAK256 PUSH1 0x6 ADD PUSH1 0x0 PUSH1 0x6 PUSH1 0x0 DUP8 PUSH20 0xFFFFFFFFFFFFFFFFFFFFFFFFFFFFFFFFFFFFFFFF AND PUSH20 0xFFFFFFFFFFFFFFFFFFFFFFFFFFFFFFFFFFFFFFFF AND DUP2 MSTORE PUSH1 0x20 ADD SWAP1 DUP2 MSTORE PUSH1 0x20 ADD PUSH1 0x0 KECCAK256 PUSH1 0x5 ADD SLOAD DUP2 MSTORE PUSH1 0x20 ADD SWAP1 DUP2 MSTORE PUSH1 0x20 ADD PUSH1 0x0 KECCAK256 PUSH1 0x1 ADD SWAP1 DUP1 MLOAD SWAP1 PUSH1 0x20 ADD SWAP1 PUSH2 0x418C SWAP3 SWAP2 SWAP1 PUSH2 0x47F4 JUMP JUMPDEST POP PUSH1 0x1 PUSH1 0x6 PUSH1 0x0 DUP6 PUSH20 0xFFFFFFFFFFFFFFFFFFFFFFFFFFFFFFFFFFFFFFFF AND PUSH20 0xFFFFFFFFFFFFFFFFFFFFFFFFFFFFFFFFFFFFFFFF AND DUP2 MSTORE PUSH1 0x20 ADD SWAP1 DUP2 MSTORE PUSH1 0x20 ADD PUSH1 0x0 KECCAK256 PUSH1 0x6 ADD PUSH1 0x0 PUSH1 0x6 PUSH1 0x0 DUP8 PUSH20 0xFFFFFFFFFFFFFFFFFFFFFFFFFFFFFFFFFFFFFFFF AND PUSH20 0xFFFFFFFFFFFFFFFFFFFFFFFFFFFFFFFFFFFFFFFF AND DUP2 MSTORE PUSH1 0x20 ADD SWAP1 DUP2 MSTORE PUSH1 0x20 ADD PUSH1 0x0 KECCAK256 PUSH1 0x5 ADD SLOAD DUP2 MSTORE PUSH1 0x20 ADD SWAP1 DUP2 MSTORE PUSH1 0x20 ADD PUSH1 0x0 KECCAK256 PUSH1 0x2 ADD PUSH1 0x0 PUSH2 0x100 EXP DUP2 SLOAD DUP2 PUSH1 0xFF MUL NOT AND SWAP1 DUP4 ISZERO ISZERO MUL OR SWAP1 SSTORE POP PUSH1 0x1 SWAP1 POP SWAP4 SWAP3 POP POP POP JUMP JUMPDEST PUSH1 0x0 PUSH2 0x4255 PUSH1 0x4 PUSH2 0x42C4 JUMP JUMPDEST SWAP1 POP SWAP1 JUMP JUMPDEST PUSH1 0x0 PUSH32 0x1FFC9A700000000000000000000000000000000000000000000000000000000 PUSH28 0xFFFFFFFFFFFFFFFFFFFFFFFFFFFFFFFFFFFFFFFFFFFFFFFFFFFFFFFF NOT AND DUP3 PUSH28 0xFFFFFFFFFFFFFFFFFFFFFFFFFFFFFFFFFFFFFFFFFFFFFFFFFFFFFFFF NOT AND EQ SWAP1 POP SWAP2 SWAP1 POP JUMP JUMPDEST PUSH1 0x0 DUP2 PUSH1 0x0 ADD SLOAD SWAP1 POP SWAP2 SWAP1 POP JUMP JUMPDEST PUSH2 0x42DC DUP3 DUP3 PUSH2 0x439B JUMP JUMPDEST POP POP JUMP JUMPDEST PUSH1 0x1 DUP2 PUSH1 0x0 ADD PUSH1 0x0 DUP3 DUP3 SLOAD ADD SWAP3 POP POP DUP2 SWAP1 SSTORE POP POP JUMP JUMPDEST PUSH1 0x0 CALLER SWAP1 POP SWAP1 JUMP JUMPDEST PUSH2 0x4308 DUP3 DUP3 PUSH2 0x2BBF JUMP JUMPDEST PUSH2 0x4397 JUMPI PUSH2 0x432D DUP2 PUSH20 0xFFFFFFFFFFFFFFFFFFFFFFFFFFFFFFFFFFFFFFFF AND PUSH1 0x14 PUSH2 0x45B8 JUMP JUMPDEST PUSH2 0x433B DUP4 PUSH1 0x0 SHR PUSH1 0x20 PUSH2 0x45B8 JUMP JUMPDEST PUSH1 0x40 MLOAD PUSH1 0x20 ADD PUSH2 0x434C SWAP3 SWAP2 SWAP1 PUSH2 0x53C5 JUMP JUMPDEST PUSH1 0x40 MLOAD PUSH1 0x20 DUP2 DUP4 SUB SUB DUP2 MSTORE SWAP1 PUSH1 0x40 MSTORE PUSH1 0x40 MLOAD PUSH32 0x8C379A000000000000000000000000000000000000000000000000000000000 DUP2 MSTORE PUSH1 0x4 ADD PUSH2 0x438E SWAP2 SWAP1 PUSH2 0x545E JUMP JUMPDEST PUSH1 0x40 MLOAD DUP1 SWAP2 SUB SWAP1 REVERT JUMPDEST POP POP JUMP JUMPDEST PUSH2 0x43A5 DUP3 DUP3 PUSH2 0x2BBF JUMP JUMPDEST PUSH2 0x4477 JUMPI PUSH1 0x1 PUSH1 0x0 DUP1 DUP5 DUP2 MSTORE PUSH1 0x20 ADD SWAP1 DUP2 MSTORE PUSH1 0x20 ADD PUSH1 0x0 KECCAK256 PUSH1 0x0 ADD PUSH1 0x0 DUP4 PUSH20 0xFFFFFFFFFFFFFFFFFFFFFFFFFFFFFFFFFFFFFFFF AND PUSH20 0xFFFFFFFFFFFFFFFFFFFFFFFFFFFFFFFFFFFFFFFF AND DUP2 MSTORE PUSH1 0x20 ADD SWAP1 DUP2 MSTORE PUSH1 0x20 ADD PUSH1 0x0 KECCAK256 PUSH1 0x0 PUSH2 0x100 EXP DUP2 SLOAD DUP2 PUSH1 0xFF MUL NOT AND SWAP1 DUP4 ISZERO ISZERO MUL OR SWAP1 SSTORE POP PUSH2 0x441C PUSH2 0x42F6 JUMP JUMPDEST PUSH20 0xFFFFFFFFFFFFFFFFFFFFFFFFFFFFFFFFFFFFFFFF AND DUP2 PUSH20 0xFFFFFFFFFFFFFFFFFFFFFFFFFFFFFFFFFFFFFFFF AND DUP4 PUSH32 0x2F8788117E7EFF1D82E926EC794901D17C78024A50270940304540A733656F0D PUSH1 0x40 MLOAD PUSH1 0x40 MLOAD DUP1 SWAP2 SUB SWAP1 LOG4 JUMPDEST POP POP JUMP JUMPDEST PUSH2 0x4485 DUP3 DUP3 PUSH2 0x2BBF JUMP JUMPDEST ISZERO PUSH2 0x4558 JUMPI PUSH1 0x0 DUP1 PUSH1 0x0 DUP5 DUP2 MSTORE PUSH1 0x20 ADD SWAP1 DUP2 MSTORE PUSH1 0x20 ADD PUSH1 0x0 KECCAK256 PUSH1 0x0 ADD PUSH1 0x0 DUP4 PUSH20 0xFFFFFFFFFFFFFFFFFFFFFFFFFFFFFFFFFFFFFFFF AND PUSH20 0xFFFFFFFFFFFFFFFFFFFFFFFFFFFFFFFFFFFFFFFF AND DUP2 MSTORE PUSH1 0x20 ADD SWAP1 DUP2 MSTORE PUSH1 0x20 ADD PUSH1 0x0 KECCAK256 PUSH1 0x0 PUSH2 0x100 EXP DUP2 SLOAD DUP2 PUSH1 0xFF MUL NOT AND SWAP1 DUP4 ISZERO ISZERO MUL OR SWAP1 SSTORE POP PUSH2 0x44FD PUSH2 0x42F6 JUMP JUMPDEST PUSH20 0xFFFFFFFFFFFFFFFFFFFFFFFFFFFFFFFFFFFFFFFF AND DUP2 PUSH20 0xFFFFFFFFFFFFFFFFFFFFFFFFFFFFFFFFFFFFFFFF AND DUP4 PUSH32 0xF6391F5C32D9C69D2A47EA670B442974B53935D1EDC7FD64EB21E047A839171B PUSH1 0x40 MLOAD PUSH1 0x40 MLOAD DUP1 SWAP2 SUB SWAP1 LOG4 JUMPDEST POP POP JUMP JUMPDEST PUSH1 0x0 DUP2 PUSH1 0x0 ADD SLOAD SWAP1 POP PUSH1 0x0 DUP2 GT PUSH2 0x45A8 JUMPI PUSH1 0x40 MLOAD PUSH32 0x8C379A000000000000000000000000000000000000000000000000000000000 DUP2 MSTORE PUSH1 0x4 ADD PUSH2 0x459F SWAP1 PUSH2 0x564A JUMP JUMPDEST PUSH1 0x40 MLOAD DUP1 SWAP2 SUB SWAP1 REVERT JUMPDEST PUSH1 0x1 DUP2 SUB DUP3 PUSH1 0x0 ADD DUP2 SWAP1 SSTORE POP POP POP JUMP JUMPDEST PUSH1 0x60 PUSH1 0x0 PUSH1 0x2 DUP4 PUSH1 0x2 PUSH2 0x45CB SWAP2 SWAP1 PUSH2 0x5812 JUMP JUMPDEST PUSH2 0x45D5 SWAP2 SWAP1 PUSH2 0x57BC JUMP JUMPDEST PUSH8 0xFFFFFFFFFFFFFFFF DUP2 GT ISZERO PUSH2 0x45EE JUMPI PUSH2 0x45ED PUSH2 0x5AB3 JUMP JUMPDEST JUMPDEST PUSH1 0x40 MLOAD SWAP1 DUP1 DUP3 MSTORE DUP1 PUSH1 0x1F ADD PUSH1 0x1F NOT AND PUSH1 0x20 ADD DUP3 ADD PUSH1 0x40 MSTORE DUP1 ISZERO PUSH2 0x4620 JUMPI DUP2 PUSH1 0x20 ADD PUSH1 0x1 DUP3 MUL DUP1 CALLDATASIZE DUP4 CALLDATACOPY DUP1 DUP3 ADD SWAP2 POP POP SWAP1 POP JUMPDEST POP SWAP1 POP PUSH32 0x3000000000000000000000000000000000000000000000000000000000000000 DUP2 PUSH1 0x0 DUP2 MLOAD DUP2 LT PUSH2 0x4658 JUMPI PUSH2 0x4657 PUSH2 0x5A84 JUMP JUMPDEST JUMPDEST PUSH1 0x20 ADD ADD SWAP1 PUSH31 0xFFFFFFFFFFFFFFFFFFFFFFFFFFFFFFFFFFFFFFFFFFFFFFFFFFFFFFFFFFFFFF NOT AND SWAP1 DUP2 PUSH1 0x0 BYTE SWAP1 MSTORE8 POP PUSH32 0x7800000000000000000000000000000000000000000000000000000000000000 DUP2 PUSH1 0x1 DUP2 MLOAD DUP2 LT PUSH2 0x46BC JUMPI PUSH2 0x46BB PUSH2 0x5A84 JUMP JUMPDEST JUMPDEST PUSH1 0x20 ADD ADD SWAP1 PUSH31 0xFFFFFFFFFFFFFFFFFFFFFFFFFFFFFFFFFFFFFFFFFFFFFFFFFFFFFFFFFFFFFF NOT AND SWAP1 DUP2 PUSH1 0x0 BYTE SWAP1 MSTORE8 POP PUSH1 0x0 PUSH1 0x1 DUP5 PUSH1 0x2 PUSH2 0x46FC SWAP2 SWAP1 PUSH2 0x5812 JUMP JUMPDEST PUSH2 0x4706 SWAP2 SWAP1 PUSH2 0x57BC JUMP JUMPDEST SWAP1 POP JUMPDEST PUSH1 0x1 DUP2 GT ISZERO PUSH2 0x47A6 JUMPI PUSH32 0x3031323334353637383961626364656600000000000000000000000000000000 PUSH1 0xF DUP7 AND PUSH1 0x10 DUP2 LT PUSH2 0x4748 JUMPI PUSH2 0x4747 PUSH2 0x5A84 JUMP JUMPDEST JUMPDEST BYTE PUSH1 0xF8 SHL DUP3 DUP3 DUP2 MLOAD DUP2 LT PUSH2 0x475F JUMPI PUSH2 0x475E PUSH2 0x5A84 JUMP JUMPDEST JUMPDEST PUSH1 0x20 ADD ADD SWAP1 PUSH31 0xFFFFFFFFFFFFFFFFFFFFFFFFFFFFFFFFFFFFFFFFFFFFFFFFFFFFFFFFFFFFFF NOT AND SWAP1 DUP2 PUSH1 0x0 BYTE SWAP1 MSTORE8 POP PUSH1 0x4 DUP6 SWAP1 SHR SWAP5 POP DUP1 PUSH2 0x479F SWAP1 PUSH2 0x5950 JUMP JUMPDEST SWAP1 POP PUSH2 0x4709 JUMP JUMPDEST POP PUSH1 0x0 DUP5 EQ PUSH2 0x47EA JUMPI PUSH1 0x40 MLOAD PUSH32 0x8C379A000000000000000000000000000000000000000000000000000000000 DUP2 MSTORE PUSH1 0x4 ADD PUSH2 0x47E1 SWAP1 PUSH2 0x560A JUMP JUMPDEST PUSH1 0x40 MLOAD DUP1 SWAP2 SUB SWAP1 REVERT JUMPDEST DUP1 SWAP2 POP POP SWAP3 SWAP2 POP POP JUMP JUMPDEST DUP3 DUP1 SLOAD PUSH2 0x4800 SWAP1 PUSH2 0x597A JUMP JUMPDEST SWAP1 PUSH1 0x0 MSTORE PUSH1 0x20 PUSH1 0x0 KECCAK256 SWAP1 PUSH1 0x1F ADD PUSH1 0x20 SWAP1 DIV DUP2 ADD SWAP3 DUP3 PUSH2 0x4822 JUMPI PUSH1 0x0 DUP6 SSTORE PUSH2 0x4869 JUMP JUMPDEST DUP3 PUSH1 0x1F LT PUSH2 0x483B JUMPI DUP1 MLOAD PUSH1 0xFF NOT AND DUP4 DUP1 ADD OR DUP6 SSTORE PUSH2 0x4869 JUMP JUMPDEST DUP3 DUP1 ADD PUSH1 0x1 ADD DUP6 SSTORE DUP3 ISZERO PUSH2 0x4869 JUMPI SWAP2 DUP3 ADD JUMPDEST DUP3 DUP2 GT ISZERO PUSH2 0x4868 JUMPI DUP3 MLOAD DUP3 SSTORE SWAP2 PUSH1 0x20 ADD SWAP2 SWAP1 PUSH1 0x1 ADD SWAP1 PUSH2 0x484D JUMP JUMPDEST JUMPDEST POP SWAP1 POP PUSH2 0x4876 SWAP2 SWAP1 PUSH2 0x48BE JUMP JUMPDEST POP SWAP1 JUMP JUMPDEST PUSH1 0x40 MLOAD DUP1 PUSH1 0x60 ADD PUSH1 0x40 MSTORE DUP1 PUSH1 0x0 DUP2 MSTORE PUSH1 0x20 ADD PUSH1 0x60 DUP2 MSTORE PUSH1 0x20 ADD PUSH1 0x60 DUP2 MSTORE POP SWAP1 JUMP JUMPDEST PUSH1 0x40 MLOAD DUP1 PUSH1 0x60 ADD PUSH1 0x40 MSTORE DUP1 PUSH1 0x0 DUP2 MSTORE PUSH1 0x20 ADD PUSH1 0x60 DUP2 MSTORE PUSH1 0x20 ADD PUSH1 0x0 ISZERO ISZERO DUP2 MSTORE POP SWAP1 JUMP JUMPDEST JUMPDEST DUP1 DUP3 GT ISZERO PUSH2 0x48D7 JUMPI PUSH1 0x0 DUP2 PUSH1 0x0 SWAP1 SSTORE POP PUSH1 0x1 ADD PUSH2 0x48BF JUMP JUMPDEST POP SWAP1 JUMP JUMPDEST PUSH1 0x0 PUSH2 0x48EE PUSH2 0x48E9 DUP5 PUSH2 0x5753 JUMP JUMPDEST PUSH2 0x572E JUMP JUMPDEST SWAP1 POP DUP3 DUP2 MSTORE PUSH1 0x20 DUP2 ADD DUP5 DUP5 DUP5 ADD GT ISZERO PUSH2 0x490A JUMPI PUSH2 0x4909 PUSH2 0x5AE7 JUMP JUMPDEST JUMPDEST PUSH2 0x4915 DUP5 DUP3 DUP6 PUSH2 0x590E JUMP JUMPDEST POP SWAP4 SWAP3 POP POP POP JUMP JUMPDEST PUSH1 0x0 DUP2 CALLDATALOAD SWAP1 POP PUSH2 0x492C DUP2 PUSH2 0x5C23 JUMP JUMPDEST SWAP3 SWAP2 POP POP JUMP JUMPDEST PUSH1 0x0 DUP2 CALLDATALOAD SWAP1 POP PUSH2 0x4941 DUP2 PUSH2 0x5C3A JUMP JUMPDEST SWAP3 SWAP2 POP POP JUMP JUMPDEST PUSH1 0x0 DUP2 MLOAD SWAP1 POP PUSH2 0x4956 DUP2 PUSH2 0x5C3A JUMP JUMPDEST SWAP3 SWAP2 POP POP JUMP JUMPDEST PUSH1 0x0 DUP2 CALLDATALOAD SWAP1 POP PUSH2 0x496B DUP2 PUSH2 0x5C51 JUMP JUMPDEST SWAP3 SWAP2 POP POP JUMP JUMPDEST PUSH1 0x0 DUP2 MLOAD SWAP1 POP PUSH2 0x4980 DUP2 PUSH2 0x5C51 JUMP JUMPDEST SWAP3 SWAP2 POP POP JUMP JUMPDEST PUSH1 0x0 DUP2 CALLDATALOAD SWAP1 POP PUSH2 0x4995 DUP2 PUSH2 0x5C68 JUMP JUMPDEST SWAP3 SWAP2 POP POP JUMP JUMPDEST PUSH1 0x0 DUP2 CALLDATALOAD SWAP1 POP PUSH2 0x49AA DUP2 PUSH2 0x5C7F JUMP JUMPDEST SWAP3 SWAP2 POP POP JUMP JUMPDEST PUSH1 0x0 DUP3 PUSH1 0x1F DUP4 ADD SLT PUSH2 0x49C5 JUMPI PUSH2 0x49C4 PUSH2 0x5AE2 JUMP JUMPDEST JUMPDEST DUP2 CALLDATALOAD PUSH2 0x49D5 DUP5 DUP3 PUSH1 0x20 DUP7 ADD PUSH2 0x48DB JUMP JUMPDEST SWAP2 POP POP SWAP3 SWAP2 POP POP JUMP JUMPDEST PUSH1 0x0 DUP2 CALLDATALOAD SWAP1 POP PUSH2 0x49ED DUP2 PUSH2 0x5C96 JUMP JUMPDEST SWAP3 SWAP2 POP POP JUMP JUMPDEST PUSH1 0x0 PUSH1 0x20 DUP3 DUP5 SUB SLT ISZERO PUSH2 0x4A09 JUMPI PUSH2 0x4A08 PUSH2 0x5AF1 JUMP JUMPDEST JUMPDEST PUSH1 0x0 PUSH2 0x4A17 DUP5 DUP3 DUP6 ADD PUSH2 0x491D JUMP JUMPDEST SWAP2 POP POP SWAP3 SWAP2 POP POP JUMP JUMPDEST PUSH1 0x0 DUP1 PUSH1 0x0 PUSH1 0x60 DUP5 DUP7 SUB SLT ISZERO PUSH2 0x4A39 JUMPI PUSH2 0x4A38 PUSH2 0x5AF1 JUMP JUMPDEST JUMPDEST PUSH1 0x0 PUSH2 0x4A47 DUP7 DUP3 DUP8 ADD PUSH2 0x491D JUMP JUMPDEST SWAP4 POP POP PUSH1 0x20 PUSH2 0x4A58 DUP7 DUP3 DUP8 ADD PUSH2 0x491D JUMP JUMPDEST SWAP3 POP POP PUSH1 0x40 PUSH2 0x4A69 DUP7 DUP3 DUP8 ADD PUSH2 0x491D JUMP JUMPDEST SWAP2 POP POP SWAP3 POP SWAP3 POP SWAP3 JUMP JUMPDEST PUSH1 0x0 DUP1 PUSH1 0x0 PUSH1 0x60 DUP5 DUP7 SUB SLT ISZERO PUSH2 0x4A8C JUMPI PUSH2 0x4A8B PUSH2 0x5AF1 JUMP JUMPDEST JUMPDEST PUSH1 0x0 PUSH2 0x4A9A DUP7 DUP3 DUP8 ADD PUSH2 0x491D JUMP JUMPDEST SWAP4 POP POP PUSH1 0x20 PUSH2 0x4AAB DUP7 DUP3 DUP8 ADD PUSH2 0x491D JUMP JUMPDEST SWAP3 POP POP PUSH1 0x40 DUP5 ADD CALLDATALOAD PUSH8 0xFFFFFFFFFFFFFFFF DUP2 GT ISZERO PUSH2 0x4ACC JUMPI PUSH2 0x4ACB PUSH2 0x5AEC JUMP JUMPDEST JUMPDEST PUSH2 0x4AD8 DUP7 DUP3 DUP8 ADD PUSH2 0x49B0 JUMP JUMPDEST SWAP2 POP POP SWAP3 POP SWAP3 POP SWAP3 JUMP JUMPDEST PUSH1 0x0 DUP1 PUSH1 0x0 DUP1 PUSH1 0x80 DUP6 DUP8 SUB SLT ISZERO PUSH2 0x4AFC JUMPI PUSH2 0x4AFB PUSH2 0x5AF1 JUMP JUMPDEST JUMPDEST PUSH1 0x0 PUSH2 0x4B0A DUP8 DUP3 DUP9 ADD PUSH2 0x491D JUMP JUMPDEST SWAP5 POP POP PUSH1 0x20 PUSH2 0x4B1B DUP8 DUP3 DUP9 ADD PUSH2 0x491D JUMP JUMPDEST SWAP4 POP POP PUSH1 0x40 DUP6 ADD CALLDATALOAD PUSH8 0xFFFFFFFFFFFFFFFF DUP2 GT ISZERO PUSH2 0x4B3C JUMPI PUSH2 0x4B3B PUSH2 0x5AEC JUMP JUMPDEST JUMPDEST PUSH2 0x4B48 DUP8 DUP3 DUP9 ADD PUSH2 0x49B0 JUMP JUMPDEST SWAP3 POP POP PUSH1 0x60 PUSH2 0x4B59 DUP8 DUP3 DUP9 ADD PUSH2 0x49DE JUMP JUMPDEST SWAP2 POP POP SWAP3 SWAP6 SWAP2 SWAP5 POP SWAP3 POP JUMP JUMPDEST PUSH1 0x0 DUP1 PUSH1 0x40 DUP4 DUP6 SUB SLT ISZERO PUSH2 0x4B7C JUMPI PUSH2 0x4B7B PUSH2 0x5AF1 JUMP JUMPDEST JUMPDEST PUSH1 0x0 PUSH2 0x4B8A DUP6 DUP3 DUP7 ADD PUSH2 0x491D JUMP JUMPDEST SWAP3 POP POP PUSH1 0x20 PUSH2 0x4B9B DUP6 DUP3 DUP7 ADD PUSH2 0x49DE JUMP JUMPDEST SWAP2 POP POP SWAP3 POP SWAP3 SWAP1 POP JUMP JUMPDEST PUSH1 0x0 PUSH1 0x20 DUP3 DUP5 SUB SLT ISZERO PUSH2 0x4BBB JUMPI PUSH2 0x4BBA PUSH2 0x5AF1 JUMP JUMPDEST JUMPDEST PUSH1 0x0 PUSH2 0x4BC9 DUP5 DUP3 DUP6 ADD PUSH2 0x4947 JUMP JUMPDEST SWAP2 POP POP SWAP3 SWAP2 POP POP JUMP JUMPDEST PUSH1 0x0 PUSH1 0x20 DUP3 DUP5 SUB SLT ISZERO PUSH2 0x4BE8 JUMPI PUSH2 0x4BE7 PUSH2 0x5AF1 JUMP JUMPDEST JUMPDEST PUSH1 0x0 PUSH2 0x4BF6 DUP5 DUP3 DUP6 ADD PUSH2 0x495C JUMP JUMPDEST SWAP2 POP POP SWAP3 SWAP2 POP POP JUMP JUMPDEST PUSH1 0x0 PUSH1 0x20 DUP3 DUP5 SUB SLT ISZERO PUSH2 0x4C15 JUMPI PUSH2 0x4C14 PUSH2 0x5AF1 JUMP JUMPDEST JUMPDEST PUSH1 0x0 PUSH2 0x4C23 DUP5 DUP3 DUP6 ADD PUSH2 0x4971 JUMP JUMPDEST SWAP2 POP POP SWAP3 SWAP2 POP POP JUMP JUMPDEST PUSH1 0x0 DUP1 PUSH1 0x40 DUP4 DUP6 SUB SLT ISZERO PUSH2 0x4C43 JUMPI PUSH2 0x4C42 PUSH2 0x5AF1 JUMP JUMPDEST JUMPDEST PUSH1 0x0 PUSH2 0x4C51 DUP6 DUP3 DUP7 ADD PUSH2 0x495C JUMP JUMPDEST SWAP3 POP POP PUSH1 0x20 PUSH2 0x4C62 DUP6 DUP3 DUP7 ADD PUSH2 0x491D JUMP JUMPDEST SWAP2 POP POP SWAP3 POP SWAP3 SWAP1 POP JUMP JUMPDEST PUSH1 0x0 PUSH1 0x20 DUP3 DUP5 SUB SLT ISZERO PUSH2 0x4C82 JUMPI PUSH2 0x4C81 PUSH2 0x5AF1 JUMP JUMPDEST JUMPDEST PUSH1 0x0 PUSH2 0x4C90 DUP5 DUP3 DUP6 ADD PUSH2 0x4986 JUMP JUMPDEST SWAP2 POP POP SWAP3 SWAP2 POP POP JUMP JUMPDEST PUSH1 0x0 PUSH1 0x20 DUP3 DUP5 SUB SLT ISZERO PUSH2 0x4CAF JUMPI PUSH2 0x4CAE PUSH2 0x5AF1 JUMP JUMPDEST JUMPDEST PUSH1 0x0 PUSH2 0x4CBD DUP5 DUP3 DUP6 ADD PUSH2 0x499B JUMP JUMPDEST SWAP2 POP POP SWAP3 SWAP2 POP POP JUMP JUMPDEST PUSH1 0x0 PUSH1 0x20 DUP3 DUP5 SUB SLT ISZERO PUSH2 0x4CDC JUMPI PUSH2 0x4CDB PUSH2 0x5AF1 JUMP JUMPDEST JUMPDEST PUSH1 0x0 DUP3 ADD CALLDATALOAD PUSH8 0xFFFFFFFFFFFFFFFF DUP2 GT ISZERO PUSH2 0x4CFA JUMPI PUSH2 0x4CF9 PUSH2 0x5AEC JUMP JUMPDEST JUMPDEST PUSH2 0x4D06 DUP5 DUP3 DUP6 ADD PUSH2 0x49B0 JUMP JUMPDEST SWAP2 POP POP SWAP3 SWAP2 POP POP JUMP JUMPDEST PUSH1 0x0 DUP1 PUSH1 0x40 DUP4 DUP6 SUB SLT ISZERO PUSH2 0x4D26 JUMPI PUSH2 0x4D25 PUSH2 0x5AF1 JUMP JUMPDEST JUMPDEST PUSH1 0x0 DUP4 ADD CALLDATALOAD PUSH8 0xFFFFFFFFFFFFFFFF DUP2 GT ISZERO PUSH2 0x4D44 JUMPI PUSH2 0x4D43 PUSH2 0x5AEC JUMP JUMPDEST JUMPDEST PUSH2 0x4D50 DUP6 DUP3 DUP7 ADD PUSH2 0x49B0 JUMP JUMPDEST SWAP3 POP POP PUSH1 0x20 PUSH2 0x4D61 DUP6 DUP3 DUP7 ADD PUSH2 0x491D JUMP JUMPDEST SWAP2 POP POP SWAP3 POP SWAP3 SWAP1 POP JUMP JUMPDEST PUSH1 0x0 DUP1 PUSH1 0x0 PUSH1 0x60 DUP5 DUP7 SUB SLT ISZERO PUSH2 0x4D84 JUMPI PUSH2 0x4D83 PUSH2 0x5AF1 JUMP JUMPDEST JUMPDEST PUSH1 0x0 DUP5 ADD CALLDATALOAD PUSH8 0xFFFFFFFFFFFFFFFF DUP2 GT ISZERO PUSH2 0x4DA2 JUMPI PUSH2 0x4DA1 PUSH2 0x5AEC JUMP JUMPDEST JUMPDEST PUSH2 0x4DAE DUP7 DUP3 DUP8 ADD PUSH2 0x49B0 JUMP JUMPDEST SWAP4 POP POP PUSH1 0x20 PUSH2 0x4DBF DUP7 DUP3 DUP8 ADD PUSH2 0x491D JUMP JUMPDEST SWAP3 POP POP PUSH1 0x40 PUSH2 0x4DD0 DUP7 DUP3 DUP8 ADD PUSH2 0x491D JUMP JUMPDEST SWAP2 POP POP SWAP3 POP SWAP3 POP SWAP3 JUMP JUMPDEST PUSH1 0x0 DUP1 PUSH1 0x0 DUP1 PUSH1 0x80 DUP6 DUP8 SUB SLT ISZERO PUSH2 0x4DF4 JUMPI PUSH2 0x4DF3 PUSH2 0x5AF1 JUMP JUMPDEST JUMPDEST PUSH1 0x0 DUP6 ADD CALLDATALOAD PUSH8 0xFFFFFFFFFFFFFFFF DUP2 GT ISZERO PUSH2 0x4E12 JUMPI PUSH2 0x4E11 PUSH2 0x5AEC JUMP JUMPDEST JUMPDEST PUSH2 0x4E1E DUP8 DUP3 DUP9 ADD PUSH2 0x49B0 JUMP JUMPDEST SWAP5 POP POP PUSH1 0x20 PUSH2 0x4E2F DUP8 DUP3 DUP9 ADD PUSH2 0x491D JUMP JUMPDEST SWAP4 POP POP PUSH1 0x40 PUSH2 0x4E40 DUP8 DUP3 DUP9 ADD PUSH2 0x491D JUMP JUMPDEST SWAP3 POP POP PUSH1 0x60 DUP6 ADD CALLDATALOAD PUSH8 0xFFFFFFFFFFFFFFFF DUP2 GT ISZERO PUSH2 0x4E61 JUMPI PUSH2 0x4E60 PUSH2 0x5AEC JUMP JUMPDEST JUMPDEST PUSH2 0x4E6D DUP8 DUP3 DUP9 ADD PUSH2 0x49B0 JUMP JUMPDEST SWAP2 POP POP SWAP3 SWAP6 SWAP2 SWAP5 POP SWAP3 POP JUMP JUMPDEST PUSH1 0x0 DUP1 PUSH1 0x0 PUSH1 0x60 DUP5 DUP7 SUB SLT ISZERO PUSH2 0x4E92 JUMPI PUSH2 0x4E91 PUSH2 0x5AF1 JUMP JUMPDEST JUMPDEST PUSH1 0x0 DUP5 ADD CALLDATALOAD PUSH8 0xFFFFFFFFFFFFFFFF DUP2 GT ISZERO PUSH2 0x4EB0 JUMPI PUSH2 0x4EAF PUSH2 0x5AEC JUMP JUMPDEST JUMPDEST PUSH2 0x4EBC DUP7 DUP3 DUP8 ADD PUSH2 0x49B0 JUMP JUMPDEST SWAP4 POP POP PUSH1 0x20 DUP5 ADD CALLDATALOAD PUSH8 0xFFFFFFFFFFFFFFFF DUP2 GT ISZERO PUSH2 0x4EDD JUMPI PUSH2 0x4EDC PUSH2 0x5AEC JUMP JUMPDEST JUMPDEST PUSH2 0x4EE9 DUP7 DUP3 DUP8 ADD PUSH2 0x49B0 JUMP JUMPDEST SWAP3 POP POP PUSH1 0x40 PUSH2 0x4EFA DUP7 DUP3 DUP8 ADD PUSH2 0x491D JUMP JUMPDEST SWAP2 POP POP SWAP3 POP SWAP3 POP SWAP3 JUMP JUMPDEST PUSH1 0x0 DUP1 PUSH1 0x0 DUP1 PUSH1 0x80 DUP6 DUP8 SUB SLT ISZERO PUSH2 0x4F1E JUMPI PUSH2 0x4F1D PUSH2 0x5AF1 JUMP JUMPDEST JUMPDEST PUSH1 0x0 DUP6 ADD CALLDATALOAD PUSH8 0xFFFFFFFFFFFFFFFF DUP2 GT ISZERO PUSH2 0x4F3C JUMPI PUSH2 0x4F3B PUSH2 0x5AEC JUMP JUMPDEST JUMPDEST PUSH2 0x4F48 DUP8 DUP3 DUP9 ADD PUSH2 0x49B0 JUMP JUMPDEST SWAP5 POP POP PUSH1 0x20 DUP6 ADD CALLDATALOAD PUSH8 0xFFFFFFFFFFFFFFFF DUP2 GT ISZERO PUSH2 0x4F69 JUMPI PUSH2 0x4F68 PUSH2 0x5AEC JUMP JUMPDEST JUMPDEST PUSH2 0x4F75 DUP8 DUP3 DUP9 ADD PUSH2 0x49B0 JUMP JUMPDEST SWAP4 POP POP PUSH1 0x40 PUSH2 0x4F86 DUP8 DUP3 DUP9 ADD PUSH2 0x491D JUMP JUMPDEST SWAP3 POP POP PUSH1 0x60 PUSH2 0x4F97 DUP8 DUP3 DUP9 ADD PUSH2 0x491D JUMP JUMPDEST SWAP2 POP POP SWAP3 SWAP6 SWAP2 SWAP5 POP SWAP3 POP JUMP JUMPDEST PUSH1 0x0 DUP1 PUSH1 0x0 DUP1 PUSH1 0x0 PUSH1 0xA0 DUP7 DUP9 SUB SLT ISZERO PUSH2 0x4FBF JUMPI PUSH2 0x4FBE PUSH2 0x5AF1 JUMP JUMPDEST JUMPDEST PUSH1 0x0 DUP7 ADD CALLDATALOAD PUSH8 0xFFFFFFFFFFFFFFFF DUP2 GT ISZERO PUSH2 0x4FDD JUMPI PUSH2 0x4FDC PUSH2 0x5AEC JUMP JUMPDEST JUMPDEST PUSH2 0x4FE9 DUP9 DUP3 DUP10 ADD PUSH2 0x49B0 JUMP JUMPDEST SWAP6 POP POP PUSH1 0x20 DUP7 ADD CALLDATALOAD PUSH8 0xFFFFFFFFFFFFFFFF DUP2 GT ISZERO PUSH2 0x500A JUMPI PUSH2 0x5009 PUSH2 0x5AEC JUMP JUMPDEST JUMPDEST PUSH2 0x5016 DUP9 DUP3 DUP10 ADD PUSH2 0x49B0 JUMP JUMPDEST SWAP5 POP POP PUSH1 0x40 PUSH2 0x5027 DUP9 DUP3 DUP10 ADD PUSH2 0x491D JUMP JUMPDEST SWAP4 POP POP PUSH1 0x60 PUSH2 0x5038 DUP9 DUP3 DUP10 ADD PUSH2 0x491D JUMP JUMPDEST SWAP3 POP POP PUSH1 0x80 PUSH2 0x5049 DUP9 DUP3 DUP10 ADD PUSH2 0x491D JUMP JUMPDEST SWAP2 POP POP SWAP3 SWAP6 POP SWAP3 SWAP6 SWAP1 SWAP4 POP JUMP JUMPDEST PUSH1 0x0 DUP1 PUSH1 0x0 DUP1 PUSH1 0x80 DUP6 DUP8 SUB SLT ISZERO PUSH2 0x5070 JUMPI PUSH2 0x506F PUSH2 0x5AF1 JUMP JUMPDEST JUMPDEST PUSH1 0x0 PUSH2 0x507E DUP8 DUP3 DUP9 ADD PUSH2 0x49DE JUMP JUMPDEST SWAP5 POP POP PUSH1 0x20 PUSH2 0x508F DUP8 DUP3 DUP9 ADD PUSH2 0x491D JUMP JUMPDEST SWAP4 POP POP PUSH1 0x40 PUSH2 0x50A0 DUP8 DUP3 DUP9 ADD PUSH2 0x491D JUMP JUMPDEST SWAP3 POP POP PUSH1 0x60 PUSH2 0x50B1 DUP8 DUP3 DUP9 ADD PUSH2 0x4932 JUMP JUMPDEST SWAP2 POP POP SWAP3 SWAP6 SWAP2 SWAP5 POP SWAP3 POP JUMP JUMPDEST PUSH1 0x0 DUP1 PUSH1 0x0 DUP1 PUSH1 0x80 DUP6 DUP8 SUB SLT ISZERO PUSH2 0x50D7 JUMPI PUSH2 0x50D6 PUSH2 0x5AF1 JUMP JUMPDEST JUMPDEST PUSH1 0x0 PUSH2 0x50E5 DUP8 DUP3 DUP9 ADD PUSH2 0x49DE JUMP JUMPDEST SWAP5 POP POP PUSH1 0x20 PUSH2 0x50F6 DUP8 DUP3 DUP9 ADD PUSH2 0x491D JUMP JUMPDEST SWAP4 POP POP PUSH1 0x40 PUSH2 0x5107 DUP8 DUP3 DUP9 ADD PUSH2 0x491D JUMP JUMPDEST SWAP3 POP POP PUSH1 0x60 DUP6 ADD CALLDATALOAD PUSH8 0xFFFFFFFFFFFFFFFF DUP2 GT ISZERO PUSH2 0x5128 JUMPI PUSH2 0x5127 PUSH2 0x5AEC JUMP JUMPDEST JUMPDEST PUSH2 0x5134 DUP8 DUP3 DUP9 ADD PUSH2 0x49B0 JUMP JUMPDEST SWAP2 POP POP SWAP3 SWAP6 SWAP2 SWAP5 POP SWAP3 POP JUMP JUMPDEST PUSH2 0x5149 DUP2 PUSH2 0x586C JUMP JUMPDEST DUP3 MSTORE POP POP JUMP JUMPDEST PUSH2 0x5158 DUP2 PUSH2 0x587E JUMP JUMPDEST DUP3 MSTORE POP POP JUMP JUMPDEST PUSH2 0x5167 DUP2 PUSH2 0x587E JUMP JUMPDEST DUP3 MSTORE POP POP JUMP JUMPDEST PUSH2 0x5176 DUP2 PUSH2 0x588A JUMP JUMPDEST DUP3 MSTORE POP POP JUMP JUMPDEST PUSH2 0x5185 DUP2 PUSH2 0x58FC JUMP JUMPDEST DUP3 MSTORE POP POP JUMP JUMPDEST PUSH1 0x0 PUSH2 0x5196 DUP3 PUSH2 0x5784 JUMP JUMPDEST PUSH2 0x51A0 DUP2 DUP6 PUSH2 0x578F JUMP JUMPDEST SWAP4 POP PUSH2 0x51B0 DUP2 DUP6 PUSH1 0x20 DUP7 ADD PUSH2 0x591D JUMP JUMPDEST PUSH2 0x51B9 DUP2 PUSH2 0x5AF6 JUMP JUMPDEST DUP5 ADD SWAP2 POP POP SWAP3 SWAP2 POP POP JUMP JUMPDEST PUSH1 0x0 PUSH2 0x51CF DUP3 PUSH2 0x5784 JUMP JUMPDEST PUSH2 0x51D9 DUP2 DUP6 PUSH2 0x57A0 JUMP JUMPDEST SWAP4 POP PUSH2 0x51E9 DUP2 DUP6 PUSH1 0x20 DUP7 ADD PUSH2 0x591D JUMP JUMPDEST PUSH2 0x51F2 DUP2 PUSH2 0x5AF6 JUMP JUMPDEST DUP5 ADD SWAP2 POP POP SWAP3 SWAP2 POP POP JUMP JUMPDEST PUSH1 0x0 PUSH2 0x5208 DUP3 PUSH2 0x5784 JUMP JUMPDEST PUSH2 0x5212 DUP2 DUP6 PUSH2 0x57B1 JUMP JUMPDEST SWAP4 POP PUSH2 0x5222 DUP2 DUP6 PUSH1 0x20 DUP7 ADD PUSH2 0x591D JUMP JUMPDEST DUP1 DUP5 ADD SWAP2 POP POP SWAP3 SWAP2 POP POP JUMP JUMPDEST PUSH1 0x0 PUSH2 0x523B PUSH1 0x20 DUP4 PUSH2 0x57A0 JUMP JUMPDEST SWAP2 POP PUSH2 0x5246 DUP3 PUSH2 0x5B07 JUMP JUMPDEST PUSH1 0x20 DUP3 ADD SWAP1 POP SWAP2 SWAP1 POP JUMP JUMPDEST PUSH1 0x0 PUSH2 0x525E PUSH1 0x3 DUP4 PUSH2 0x57A0 JUMP JUMPDEST SWAP2 POP PUSH2 0x5269 DUP3 PUSH2 0x5B30 JUMP JUMPDEST PUSH1 0x20 DUP3 ADD SWAP1 POP SWAP2 SWAP1 POP JUMP JUMPDEST PUSH1 0x0 PUSH2 0x5281 PUSH1 0x1B DUP4 PUSH2 0x57A0 JUMP JUMPDEST SWAP2 POP PUSH2 0x528C DUP3 PUSH2 0x5B59 JUMP JUMPDEST PUSH1 0x20 DUP3 ADD SWAP1 POP SWAP2 SWAP1 POP JUMP JUMPDEST PUSH1 0x0 PUSH2 0x52A4 PUSH1 0x17 DUP4 PUSH2 0x57B1 JUMP JUMPDEST SWAP2 POP PUSH2 0x52AF DUP3 PUSH2 0x5B82 JUMP JUMPDEST PUSH1 0x17 DUP3 ADD SWAP1 POP SWAP2 SWAP1 POP JUMP JUMPDEST PUSH1 0x0 PUSH2 0x52C7 PUSH1 0x11 DUP4 PUSH2 0x57B1 JUMP JUMPDEST SWAP2 POP PUSH2 0x52D2 DUP3 PUSH2 0x5BAB JUMP JUMPDEST PUSH1 0x11 DUP3 ADD SWAP1 POP SWAP2 SWAP1 POP JUMP JUMPDEST PUSH1 0x0 PUSH2 0x52EA PUSH1 0x2F DUP4 PUSH2 0x57A0 JUMP JUMPDEST SWAP2 POP PUSH2 0x52F5 DUP3 PUSH2 0x5BD4 JUMP JUMPDEST PUSH1 0x40 DUP3 ADD SWAP1 POP SWAP2 SWAP1 POP JUMP JUMPDEST PUSH1 0x0 PUSH1 0x60 DUP4 ADD PUSH1 0x0 DUP4 ADD MLOAD PUSH2 0x5318 PUSH1 0x0 DUP7 ADD DUP3 PUSH2 0x53A7 JUMP JUMPDEST POP PUSH1 0x20 DUP4 ADD MLOAD DUP5 DUP3 SUB PUSH1 0x20 DUP7 ADD MSTORE PUSH2 0x5330 DUP3 DUP3 PUSH2 0x518B JUMP JUMPDEST SWAP2 POP POP PUSH1 0x40 DUP4 ADD MLOAD PUSH2 0x5345 PUSH1 0x40 DUP7 ADD DUP3 PUSH2 0x514F JUMP JUMPDEST POP DUP1 SWAP2 POP POP SWAP3 SWAP2 POP POP JUMP JUMPDEST PUSH1 0x0 PUSH1 0x60 DUP4 ADD PUSH1 0x0 DUP4 ADD MLOAD PUSH2 0x5368 PUSH1 0x0 DUP7 ADD DUP3 PUSH2 0x53A7 JUMP JUMPDEST POP PUSH1 0x20 DUP4 ADD MLOAD DUP5 DUP3 SUB PUSH1 0x20 DUP7 ADD MSTORE PUSH2 0x5380 DUP3 DUP3 PUSH2 0x518B JUMP JUMPDEST SWAP2 POP POP PUSH1 0x40 DUP4 ADD MLOAD DUP5 DUP3 SUB PUSH1 0x40 DUP7 ADD MSTORE PUSH2 0x539A DUP3 DUP3 PUSH2 0x518B JUMP JUMPDEST SWAP2 POP POP DUP1 SWAP2 POP POP SWAP3 SWAP2 POP POP JUMP JUMPDEST PUSH2 0x53B0 DUP2 PUSH2 0x58F2 JUMP JUMPDEST DUP3 MSTORE POP POP JUMP JUMPDEST PUSH2 0x53BF DUP2 PUSH2 0x58F2 JUMP JUMPDEST DUP3 MSTORE POP POP JUMP JUMPDEST PUSH1 0x0 PUSH2 0x53D0 DUP3 PUSH2 0x5297 JUMP JUMPDEST SWAP2 POP PUSH2 0x53DC DUP3 DUP6 PUSH2 0x51FD JUMP JUMPDEST SWAP2 POP PUSH2 0x53E7 DUP3 PUSH2 0x52BA JUMP JUMPDEST SWAP2 POP PUSH2 0x53F3 DUP3 DUP5 PUSH2 0x51FD JUMP JUMPDEST SWAP2 POP DUP2 SWAP1 POP SWAP4 SWAP3 POP POP POP JUMP JUMPDEST PUSH1 0x0 PUSH1 0x40 DUP3 ADD SWAP1 POP PUSH2 0x5414 PUSH1 0x0 DUP4 ADD DUP6 PUSH2 0x5140 JUMP JUMPDEST PUSH2 0x5421 PUSH1 0x20 DUP4 ADD DUP5 PUSH2 0x517C JUMP JUMPDEST SWAP4 SWAP3 POP POP POP JUMP JUMPDEST PUSH1 0x0 PUSH1 0x20 DUP3 ADD SWAP1 POP PUSH2 0x543D PUSH1 0x0 DUP4 ADD DUP5 PUSH2 0x515E JUMP JUMPDEST SWAP3 SWAP2 POP POP JUMP JUMPDEST PUSH1 0x0 PUSH1 0x20 DUP3 ADD SWAP1 POP PUSH2 0x5458 PUSH1 0x0 DUP4 ADD DUP5 PUSH2 0x516D JUMP JUMPDEST SWAP3 SWAP2 POP POP JUMP JUMPDEST PUSH1 0x0 PUSH1 0x20 DUP3 ADD SWAP1 POP DUP2 DUP2 SUB PUSH1 0x0 DUP4 ADD MSTORE PUSH2 0x5478 DUP2 DUP5 PUSH2 0x51C4 JUMP JUMPDEST SWAP1 POP SWAP3 SWAP2 POP POP JUMP JUMPDEST PUSH1 0x0 PUSH1 0x40 DUP3 ADD SWAP1 POP DUP2 DUP2 SUB PUSH1 0x0 DUP4 ADD MSTORE PUSH2 0x549A DUP2 DUP6 PUSH2 0x51C4 JUMP JUMPDEST SWAP1 POP PUSH2 0x54A9 PUSH1 0x20 DUP4 ADD DUP5 PUSH2 0x5140 JUMP JUMPDEST SWAP4 SWAP3 POP POP POP JUMP JUMPDEST PUSH1 0x0 PUSH1 0x60 DUP3 ADD SWAP1 POP DUP2 DUP2 SUB PUSH1 0x0 DUP4 ADD MSTORE PUSH2 0x54CA DUP2 DUP7 PUSH2 0x51C4 JUMP JUMPDEST SWAP1 POP DUP2 DUP2 SUB PUSH1 0x20 DUP4 ADD MSTORE PUSH2 0x54DE DUP2 DUP6 PUSH2 0x51C4 JUMP JUMPDEST SWAP1 POP PUSH2 0x54ED PUSH1 0x40 DUP4 ADD DUP5 PUSH2 0x5140 JUMP JUMPDEST SWAP5 SWAP4 POP POP POP POP JUMP JUMPDEST PUSH1 0x0 PUSH1 0x80 DUP3 ADD SWAP1 POP DUP2 DUP2 SUB PUSH1 0x0 DUP4 ADD MSTORE PUSH2 0x550F DUP2 DUP8 PUSH2 0x51C4 JUMP JUMPDEST SWAP1 POP DUP2 DUP2 SUB PUSH1 0x20 DUP4 ADD MSTORE PUSH2 0x5523 DUP2 DUP7 PUSH2 0x51C4 JUMP JUMPDEST SWAP1 POP PUSH2 0x5532 PUSH1 0x40 DUP4 ADD DUP6 PUSH2 0x5140 JUMP JUMPDEST PUSH2 0x553F PUSH1 0x60 DUP4 ADD DUP5 PUSH2 0x5140 JUMP JUMPDEST SWAP6 SWAP5 POP POP POP POP POP JUMP JUMPDEST PUSH1 0x0 PUSH1 0xA0 DUP3 ADD SWAP1 POP DUP2 DUP2 SUB PUSH1 0x0 DUP4 ADD MSTORE PUSH2 0x5562 DUP2 DUP9 PUSH2 0x51C4 JUMP JUMPDEST SWAP1 POP DUP2 DUP2 SUB PUSH1 0x20 DUP4 ADD MSTORE PUSH2 0x5576 DUP2 DUP8 PUSH2 0x51C4 JUMP JUMPDEST SWAP1 POP PUSH2 0x5585 PUSH1 0x40 DUP4 ADD DUP7 PUSH2 0x5140 JUMP JUMPDEST PUSH2 0x5592 PUSH1 0x60 DUP4 ADD DUP6 PUSH2 0x53B6 JUMP JUMPDEST PUSH2 0x559F PUSH1 0x80 DUP4 ADD DUP5 PUSH2 0x5140 JUMP JUMPDEST SWAP7 SWAP6 POP POP POP POP POP POP JUMP JUMPDEST PUSH1 0x0 PUSH1 0xA0 DUP3 ADD SWAP1 POP DUP2 DUP2 SUB PUSH1 0x0 DUP4 ADD MSTORE PUSH2 0x55C3 DUP2 DUP9 PUSH2 0x51C4 JUMP JUMPDEST SWAP1 POP DUP2 DUP2 SUB PUSH1 0x20 DUP4 ADD MSTORE PUSH2 0x55D7 DUP2 DUP8 PUSH2 0x51C4 JUMP JUMPDEST SWAP1 POP PUSH2 0x55E6 PUSH1 0x40 DUP4 ADD DUP7 PUSH2 0x5140 JUMP JUMPDEST PUSH2 0x55F3 PUSH1 0x60 DUP4 ADD DUP6 PUSH2 0x53B6 JUMP JUMPDEST PUSH2 0x5600 PUSH1 0x80 DUP4 ADD DUP5 PUSH2 0x53B6 JUMP JUMPDEST SWAP7 SWAP6 POP POP POP POP POP POP JUMP JUMPDEST PUSH1 0x0 PUSH1 0x20 DUP3 ADD SWAP1 POP DUP2 DUP2 SUB PUSH1 0x0 DUP4 ADD MSTORE PUSH2 0x5623 DUP2 PUSH2 0x522E JUMP JUMPDEST SWAP1 POP SWAP2 SWAP1 POP JUMP JUMPDEST PUSH1 0x0 PUSH1 0x20 DUP3 ADD SWAP1 POP DUP2 DUP2 SUB PUSH1 0x0 DUP4 ADD MSTORE PUSH2 0x5643 DUP2 PUSH2 0x5251 JUMP JUMPDEST SWAP1 POP SWAP2 SWAP1 POP JUMP JUMPDEST PUSH1 0x0 PUSH1 0x20 DUP3 ADD SWAP1 POP DUP2 DUP2 SUB PUSH1 0x0 DUP4 ADD MSTORE PUSH2 0x5663 DUP2 PUSH2 0x5274 JUMP JUMPDEST SWAP1 POP SWAP2 SWAP1 POP JUMP JUMPDEST PUSH1 0x0 PUSH1 0x20 DUP3 ADD SWAP1 POP DUP2 DUP2 SUB PUSH1 0x0 DUP4 ADD MSTORE PUSH2 0x5683 DUP2 PUSH2 0x52DD JUMP JUMPDEST SWAP1 POP SWAP2 SWAP1 POP JUMP JUMPDEST PUSH1 0x0 PUSH1 0x20 DUP3 ADD SWAP1 POP DUP2 DUP2 SUB PUSH1 0x0 DUP4 ADD MSTORE PUSH2 0x56A4 DUP2 DUP5 PUSH2 0x5300 JUMP JUMPDEST SWAP1 POP SWAP3 SWAP2 POP POP JUMP JUMPDEST PUSH1 0x0 PUSH1 0x20 DUP3 ADD SWAP1 POP DUP2 DUP2 SUB PUSH1 0x0 DUP4 ADD MSTORE PUSH2 0x56C6 DUP2 DUP5 PUSH2 0x5350 JUMP JUMPDEST SWAP1 POP SWAP3 SWAP2 POP POP JUMP JUMPDEST PUSH1 0x0 PUSH1 0x20 DUP3 ADD SWAP1 POP PUSH2 0x56E3 PUSH1 0x0 DUP4 ADD DUP5 PUSH2 0x53B6 JUMP JUMPDEST SWAP3 SWAP2 POP POP JUMP JUMPDEST PUSH1 0x0 PUSH1 0x80 DUP3 ADD SWAP1 POP PUSH2 0x56FE PUSH1 0x0 DUP4 ADD DUP8 PUSH2 0x53B6 JUMP JUMPDEST PUSH2 0x570B PUSH1 0x20 DUP4 ADD DUP7 PUSH2 0x53B6 JUMP JUMPDEST PUSH2 0x5718 PUSH1 0x40 DUP4 ADD DUP6 PUSH2 0x53B6 JUMP JUMPDEST PUSH2 0x5725 PUSH1 0x60 DUP4 ADD DUP5 PUSH2 0x53B6 JUMP JUMPDEST SWAP6 SWAP5 POP POP POP POP POP JUMP JUMPDEST PUSH1 0x0 PUSH2 0x5738 PUSH2 0x5749 JUMP JUMPDEST SWAP1 POP PUSH2 0x5744 DUP3 DUP3 PUSH2 0x59AC JUMP JUMPDEST SWAP2 SWAP1 POP JUMP JUMPDEST PUSH1 0x0 PUSH1 0x40 MLOAD SWAP1 POP SWAP1 JUMP JUMPDEST PUSH1 0x0 PUSH8 0xFFFFFFFFFFFFFFFF DUP3 GT ISZERO PUSH2 0x576E JUMPI PUSH2 0x576D PUSH2 0x5AB3 JUMP JUMPDEST JUMPDEST PUSH2 0x5777 DUP3 PUSH2 0x5AF6 JUMP JUMPDEST SWAP1 POP PUSH1 0x20 DUP2 ADD SWAP1 POP SWAP2 SWAP1 POP JUMP JUMPDEST PUSH1 0x0 DUP2 MLOAD SWAP1 POP SWAP2 SWAP1 POP JUMP JUMPDEST PUSH1 0x0 DUP3 DUP3 MSTORE PUSH1 0x20 DUP3 ADD SWAP1 POP SWAP3 SWAP2 POP POP JUMP JUMPDEST PUSH1 0x0 DUP3 DUP3 MSTORE PUSH1 0x20 DUP3 ADD SWAP1 POP SWAP3 SWAP2 POP POP JUMP JUMPDEST PUSH1 0x0 DUP2 SWAP1 POP SWAP3 SWAP2 POP POP JUMP JUMPDEST PUSH1 0x0 PUSH2 0x57C7 DUP3 PUSH2 0x58F2 JUMP JUMPDEST SWAP2 POP PUSH2 0x57D2 DUP4 PUSH2 0x58F2 JUMP JUMPDEST SWAP3 POP DUP3 PUSH32 0xFFFFFFFFFFFFFFFFFFFFFFFFFFFFFFFFFFFFFFFFFFFFFFFFFFFFFFFFFFFFFFFF SUB DUP3 GT ISZERO PUSH2 0x5807 JUMPI PUSH2 0x5806 PUSH2 0x5A26 JUMP JUMPDEST JUMPDEST DUP3 DUP3 ADD SWAP1 POP SWAP3 SWAP2 POP POP JUMP JUMPDEST PUSH1 0x0 PUSH2 0x581D DUP3 PUSH2 0x58F2 JUMP JUMPDEST SWAP2 POP PUSH2 0x5828 DUP4 PUSH2 0x58F2 JUMP JUMPDEST SWAP3 POP DUP2 PUSH32 0xFFFFFFFFFFFFFFFFFFFFFFFFFFFFFFFFFFFFFFFFFFFFFFFFFFFFFFFFFFFFFFFF DIV DUP4 GT DUP3 ISZERO ISZERO AND ISZERO PUSH2 0x5861 JUMPI PUSH2 0x5860 PUSH2 0x5A26 JUMP JUMPDEST JUMPDEST DUP3 DUP3 MUL SWAP1 POP SWAP3 SWAP2 POP POP JUMP JUMPDEST PUSH1 0x0 PUSH2 0x5877 DUP3 PUSH2 0x58D2 JUMP JUMPDEST SWAP1 POP SWAP2 SWAP1 POP JUMP JUMPDEST PUSH1 0x0 DUP2 ISZERO ISZERO SWAP1 POP SWAP2 SWAP1 POP JUMP JUMPDEST PUSH1 0x0 DUP2 SWAP1 POP SWAP2 SWAP1 POP JUMP JUMPDEST PUSH1 0x0 PUSH32 0xFFFFFFFF00000000000000000000000000000000000000000000000000000000 DUP3 AND SWAP1 POP SWAP2 SWAP1 POP JUMP JUMPDEST PUSH1 0x0 PUSH2 0x58CB DUP3 PUSH2 0x586C JUMP JUMPDEST SWAP1 POP SWAP2 SWAP1 POP JUMP JUMPDEST PUSH1 0x0 PUSH20 0xFFFFFFFFFFFFFFFFFFFFFFFFFFFFFFFFFFFFFFFF DUP3 AND SWAP1 POP SWAP2 SWAP1 POP JUMP JUMPDEST PUSH1 0x0 DUP2 SWAP1 POP SWAP2 SWAP1 POP JUMP JUMPDEST PUSH1 0x0 PUSH2 0x5907 DUP3 PUSH2 0x58F2 JUMP JUMPDEST SWAP1 POP SWAP2 SWAP1 POP JUMP JUMPDEST DUP3 DUP2 DUP4 CALLDATACOPY PUSH1 0x0 DUP4 DUP4 ADD MSTORE POP POP POP JUMP JUMPDEST PUSH1 0x0 JUMPDEST DUP4 DUP2 LT ISZERO PUSH2 0x593B JUMPI DUP1 DUP3 ADD MLOAD DUP2 DUP5 ADD MSTORE PUSH1 0x20 DUP2 ADD SWAP1 POP PUSH2 0x5920 JUMP JUMPDEST DUP4 DUP2 GT ISZERO PUSH2 0x594A JUMPI PUSH1 0x0 DUP5 DUP5 ADD MSTORE JUMPDEST POP POP POP POP JUMP JUMPDEST PUSH1 0x0 PUSH2 0x595B DUP3 PUSH2 0x58F2 JUMP JUMPDEST SWAP2 POP PUSH1 0x0 DUP3 EQ ISZERO PUSH2 0x596F JUMPI PUSH2 0x596E PUSH2 0x5A26 JUMP JUMPDEST JUMPDEST PUSH1 0x1 DUP3 SUB SWAP1 POP SWAP2 SWAP1 POP JUMP JUMPDEST PUSH1 0x0 PUSH1 0x2 DUP3 DIV SWAP1 POP PUSH1 0x1 DUP3 AND DUP1 PUSH2 0x5992 JUMPI PUSH1 0x7F DUP3 AND SWAP2 POP JUMPDEST PUSH1 0x20 DUP3 LT DUP2 EQ ISZERO PUSH2 0x59A6 JUMPI PUSH2 0x59A5 PUSH2 0x5A55 JUMP JUMPDEST JUMPDEST POP SWAP2 SWAP1 POP JUMP JUMPDEST PUSH2 0x59B5 DUP3 PUSH2 0x5AF6 JUMP JUMPDEST DUP2 ADD DUP2 DUP2 LT PUSH8 0xFFFFFFFFFFFFFFFF DUP3 GT OR ISZERO PUSH2 0x59D4 JUMPI PUSH2 0x59D3 PUSH2 0x5AB3 JUMP JUMPDEST JUMPDEST DUP1 PUSH1 0x40 MSTORE POP POP POP JUMP JUMPDEST PUSH1 0x0 PUSH2 0x59E8 DUP3 PUSH2 0x58F2 JUMP JUMPDEST SWAP2 POP PUSH32 0xFFFFFFFFFFFFFFFFFFFFFFFFFFFFFFFFFFFFFFFFFFFFFFFFFFFFFFFFFFFFFFFF DUP3 EQ ISZERO PUSH2 0x5A1B JUMPI PUSH2 0x5A1A PUSH2 0x5A26 JUMP JUMPDEST JUMPDEST PUSH1 0x1 DUP3 ADD SWAP1 POP SWAP2 SWAP1 POP JUMP JUMPDEST PUSH32 0x4E487B7100000000000000000000000000000000000000000000000000000000 PUSH1 0x0 MSTORE PUSH1 0x11 PUSH1 0x4 MSTORE PUSH1 0x24 PUSH1 0x0 REVERT JUMPDEST PUSH32 0x4E487B7100000000000000000000000000000000000000000000000000000000 PUSH1 0x0 MSTORE PUSH1 0x22 PUSH1 0x4 MSTORE PUSH1 0x24 PUSH1 0x0 REVERT JUMPDEST PUSH32 0x4E487B7100000000000000000000000000000000000000000000000000000000 PUSH1 0x0 MSTORE PUSH1 0x32 PUSH1 0x4 MSTORE PUSH1 0x24 PUSH1 0x0 REVERT JUMPDEST PUSH32 0x4E487B7100000000000000000000000000000000000000000000000000000000 PUSH1 0x0 MSTORE PUSH1 0x41 PUSH1 0x4 MSTORE PUSH1 0x24 PUSH1 0x0 REVERT JUMPDEST PUSH1 0x0 DUP1 REVERT JUMPDEST PUSH1 0x0 DUP1 REVERT JUMPDEST PUSH1 0x0 DUP1 REVERT JUMPDEST PUSH1 0x0 DUP1 REVERT JUMPDEST PUSH1 0x0 PUSH1 0x1F NOT PUSH1 0x1F DUP4 ADD AND SWAP1 POP SWAP2 SWAP1 POP JUMP JUMPDEST PUSH32 0x537472696E67733A20686578206C656E67746820696E73756666696369656E74 PUSH1 0x0 DUP3 ADD MSTORE POP JUMP JUMPDEST PUSH32 0x524E470000000000000000000000000000000000000000000000000000000000 PUSH1 0x0 DUP3 ADD MSTORE POP JUMP JUMPDEST PUSH32 0x436F756E7465723A2064656372656D656E74206F766572666C6F770000000000 PUSH1 0x0 DUP3 ADD MSTORE POP JUMP JUMPDEST PUSH32 0x416363657373436F6E74726F6C3A206163636F756E7420000000000000000000 PUSH1 0x0 DUP3 ADD MSTORE POP JUMP JUMPDEST PUSH32 0x206973206D697373696E6720726F6C6520000000000000000000000000000000 PUSH1 0x0 DUP3 ADD MSTORE POP JUMP JUMPDEST PUSH32 0x416363657373436F6E74726F6C3A2063616E206F6E6C792072656E6F756E6365 PUSH1 0x0 DUP3 ADD MSTORE PUSH32 0x20726F6C657320666F722073656C660000000000000000000000000000000000 PUSH1 0x20 DUP3 ADD MSTORE POP JUMP JUMPDEST PUSH2 0x5C2C DUP2 PUSH2 0x586C JUMP JUMPDEST DUP2 EQ PUSH2 0x5C37 JUMPI PUSH1 0x0 DUP1 REVERT JUMPDEST POP JUMP JUMPDEST PUSH2 0x5C43 DUP2 PUSH2 0x587E JUMP JUMPDEST DUP2 EQ PUSH2 0x5C4E JUMPI PUSH1 0x0 DUP1 REVERT JUMPDEST POP JUMP JUMPDEST PUSH2 0x5C5A DUP2 PUSH2 0x588A JUMP JUMPDEST DUP2 EQ PUSH2 0x5C65 JUMPI PUSH1 0x0 DUP1 REVERT JUMPDEST POP JUMP JUMPDEST PUSH2 0x5C71 DUP2 PUSH2 0x5894 JUMP JUMPDEST DUP2 EQ PUSH2 0x5C7C JUMPI PUSH1 0x0 DUP1 REVERT JUMPDEST POP JUMP JUMPDEST PUSH2 0x5C88 DUP2 PUSH2 0x58C0 JUMP JUMPDEST DUP2 EQ PUSH2 0x5C93 JUMPI PUSH1 0x0 DUP1 REVERT JUMPDEST POP JUMP JUMPDEST PUSH2 0x5C9F DUP2 PUSH2 0x58F2 JUMP JUMPDEST DUP2 EQ PUSH2 0x5CAA JUMPI PUSH1 0x0 DUP1 REVERT JUMPDEST POP JUMP INVALID LOG2 PUSH5 0x6970667358 0x22 SLT KECCAK256 MUL RETURNDATACOPY DUP12 DELEGATECALL 0xD1 PC 0x4D 0x2B 0xBB AND CALLVALUE 0xAF DUP12 0xD9 INVALID 0xFC 0xDD PUSH21 0x487FCAB5A4E2227E76A389AF0BD364736F6C634300 ADDMOD SMOD STOP CALLER "
		},
		"gasEstimates": {
			"creation": {
				"codeDepositCost": "4755800",
				"executionCost": "infinite",
				"totalCost": "infinite"
			},
			"external": {
				"DEFAULT_ADMIN_ROLE()": "380",
				"changeDoctorForPatient(address,address,address)": "infinite",
				"changeHospitalForDoctor(address,address,address)": "infinite",
				"changeHospitalForPatient(address,address,address)": "infinite",
				"convertRoleFromStringToBytes(string)": "infinite",
				"getDoctorData(address)": "infinite",
				"getHospitalData(address)": "infinite",
				"getMedicalRecord(address,uint256)": "infinite",
				"getMedicalRecordCountForPatient(address)": "2915",
				"getPharmacyData(address)": "infinite",
				"getPrescriptions(address,uint256)": "infinite",
				"getPrescriptionsCountForPatient(address)": "2915",
				"getRoleAdmin(bytes32)": "infinite",
				"getRoleForDoctors(address)": "infinite",
				"getRoleForUser(address)": "infinite",
				"grantRole(bytes32,address)": "infinite",
				"grantRoleFromHospital(address,address,string)": "infinite",
				"hasRole(bytes32,address)": "3274",
				"renounceRole(bytes32,address)": "infinite",
				"resetPrescriptionRecord(address,address,string,uint256)": "infinite",
				"retrieveCountForEntities()": "infinite",
				"retrieveDoctorCount()": "2574",
				"retrieveHospitalCount()": "2640",
				"retrieveHospitalSpecificCountOfDoctors(address)": "3029",
				"retrieveHospitalSpecificCountOfPatients(address)": "2986",
				"retrievePatientCount()": "2619",
				"retrievePatientData(address)": "infinite",
				"retrievePharmacyCount()": "2577",
				"revokeRole(bytes32,address)": "infinite",
				"revokeRoleFromHospital(address,address,string)": "infinite",
				"setContractAddresss(address)": "24833",
				"setMedicalRecordByDoctor(string,address,address)": "infinite",
				"setMedicalRecordByPatient(string,address)": "infinite",
				"setMedicalRecordVerificationStatus(uint256,address,address,bool)": "infinite",
				"setPrescriptionRecordByDoctor(string,address,address,string)": "infinite",
				"storeDoctor(string,string,address,address)": "infinite",
				"storeHospital(string,string,address)": "infinite",
				"storePatient(string,string,address,address,address)": "infinite",
				"storePharmacy(string,string,address)": "infinite",
				"supportsInterface(bytes4)": "774",
				"updateDoctorPersonalDetailHash(string,address)": "infinite",
				"updateHospitalPersonalDetailHash(string,address)": "infinite",
				"updatePatientPersonalDetailHash(string,address)": "infinite",
				"updatePharmacyPersonalDetailHash(string,address)": "infinite",
				"updatedMedicalRecordHashByDoctor(uint256,address,address,string)": "infinite"
			}
		},
		"methodIdentifiers": {
			"DEFAULT_ADMIN_ROLE()": "a217fddf",
			"changeDoctorForPatient(address,address,address)": "5c7231ef",
			"changeHospitalForDoctor(address,address,address)": "a84ceab7",
			"changeHospitalForPatient(address,address,address)": "45118d8e",
			"convertRoleFromStringToBytes(string)": "027f66a1",
			"getDoctorData(address)": "2e8ff13c",
			"getHospitalData(address)": "e8300b1d",
			"getMedicalRecord(address,uint256)": "eea9c37b",
			"getMedicalRecordCountForPatient(address)": "247e99a8",
			"getPharmacyData(address)": "e21eadcc",
			"getPrescriptions(address,uint256)": "a4be9e6a",
			"getPrescriptionsCountForPatient(address)": "8a15d9df",
			"getRoleAdmin(bytes32)": "248a9ca3",
			"getRoleForDoctors(address)": "dfa1645e",
			"getRoleForUser(address)": "d6e7b3f0",
			"grantRole(bytes32,address)": "2f2ff15d",
			"grantRoleFromHospital(address,address,string)": "60587e59",
			"hasRole(bytes32,address)": "91d14854",
			"renounceRole(bytes32,address)": "36568abe",
			"resetPrescriptionRecord(address,address,string,uint256)": "28702668",
			"retrieveCountForEntities()": "6daca1ee",
			"retrieveDoctorCount()": "edae7fb5",
			"retrieveHospitalCount()": "f98d5d25",
			"retrieveHospitalSpecificCountOfDoctors(address)": "c12878c3",
			"retrieveHospitalSpecificCountOfPatients(address)": "8b55befc",
			"retrievePatientCount()": "73e830b4",
			"retrievePatientData(address)": "16d8b45b",
			"retrievePharmacyCount()": "0a086b15",
			"revokeRole(bytes32,address)": "d547741f",
			"revokeRoleFromHospital(address,address,string)": "d3a77308",
			"setContractAddresss(address)": "396c07ae",
			"setMedicalRecordByDoctor(string,address,address)": "f1628e9e",
			"setMedicalRecordByPatient(string,address)": "149e1957",
			"setMedicalRecordVerificationStatus(uint256,address,address,bool)": "8efc2838",
			"setPrescriptionRecordByDoctor(string,address,address,string)": "7f8354f8",
			"storeDoctor(string,string,address,address)": "4edf897f",
			"storeHospital(string,string,address)": "0b600345",
			"storePatient(string,string,address,address,address)": "7d379853",
			"storePharmacy(string,string,address)": "c99ead64",
			"supportsInterface(bytes4)": "01ffc9a7",
			"updateDoctorPersonalDetailHash(string,address)": "ce65e5e3",
			"updateHospitalPersonalDetailHash(string,address)": "5bf9c0e3",
			"updatePatientPersonalDetailHash(string,address)": "a9909db9",
			"updatePharmacyPersonalDetailHash(string,address)": "cdca8f7c",
			"updatedMedicalRecordHashByDoctor(uint256,address,address,string)": "3e99344a"
		}
	},
	"abi": [
		{
			"inputs": [],
			"stateMutability": "nonpayable",
			"type": "constructor"
		},
		{
			"anonymous": false,
			"inputs": [
				{
					"indexed": true,
					"internalType": "bytes32",
					"name": "role",
					"type": "bytes32"
				},
				{
					"indexed": true,
					"internalType": "bytes32",
					"name": "previousAdminRole",
					"type": "bytes32"
				},
				{
					"indexed": true,
					"internalType": "bytes32",
					"name": "newAdminRole",
					"type": "bytes32"
				}
			],
			"name": "RoleAdminChanged",
			"type": "event"
		},
		{
			"anonymous": false,
			"inputs": [
				{
					"indexed": true,
					"internalType": "bytes32",
					"name": "role",
					"type": "bytes32"
				},
				{
					"indexed": true,
					"internalType": "address",
					"name": "account",
					"type": "address"
				},
				{
					"indexed": true,
					"internalType": "address",
					"name": "sender",
					"type": "address"
				}
			],
			"name": "RoleGranted",
			"type": "event"
		},
		{
			"anonymous": false,
			"inputs": [
				{
					"indexed": true,
					"internalType": "bytes32",
					"name": "role",
					"type": "bytes32"
				},
				{
					"indexed": true,
					"internalType": "address",
					"name": "account",
					"type": "address"
				},
				{
					"indexed": true,
					"internalType": "address",
					"name": "sender",
					"type": "address"
				}
			],
			"name": "RoleRevoked",
			"type": "event"
		},
		{
			"inputs": [],
			"name": "DEFAULT_ADMIN_ROLE",
			"outputs": [
				{
					"internalType": "bytes32",
					"name": "",
					"type": "bytes32"
				}
			],
			"stateMutability": "view",
			"type": "function"
		},
		{
			"inputs": [
				{
					"internalType": "address",
					"name": "_previousDoctorAddress",
					"type": "address"
				},
				{
					"internalType": "address",
					"name": "_newDoctorAddress",
					"type": "address"
				},
				{
					"internalType": "address",
					"name": "_walletAddress",
					"type": "address"
				}
			],
			"name": "changeDoctorForPatient",
			"outputs": [
				{
					"internalType": "bool",
					"name": "status",
					"type": "bool"
				}
			],
			"stateMutability": "nonpayable",
			"type": "function"
		},
		{
			"inputs": [
				{
					"internalType": "address",
					"name": "_previousHospitalAddress",
					"type": "address"
				},
				{
					"internalType": "address",
					"name": "_newHospitalAddress",
					"type": "address"
				},
				{
					"internalType": "address",
					"name": "_walletAddress",
					"type": "address"
				}
			],
			"name": "changeHospitalForDoctor",
			"outputs": [
				{
					"internalType": "bool",
					"name": "status",
					"type": "bool"
				}
			],
			"stateMutability": "nonpayable",
			"type": "function"
		},
		{
			"inputs": [
				{
					"internalType": "address",
					"name": "_previousHospitalAddress",
					"type": "address"
				},
				{
					"internalType": "address",
					"name": "_newHospitalAddress",
					"type": "address"
				},
				{
					"internalType": "address",
					"name": "_walletAddress",
					"type": "address"
				}
			],
			"name": "changeHospitalForPatient",
			"outputs": [
				{
					"internalType": "bool",
					"name": "status",
					"type": "bool"
				}
			],
			"stateMutability": "nonpayable",
			"type": "function"
		},
		{
			"inputs": [
				{
					"internalType": "string",
					"name": "source",
					"type": "string"
				}
			],
			"name": "convertRoleFromStringToBytes",
			"outputs": [
				{
					"internalType": "bytes32",
					"name": "result",
					"type": "bytes32"
				}
			],
			"stateMutability": "pure",
			"type": "function"
		},
		{
			"inputs": [
				{
					"internalType": "address",
					"name": "_doctorAddress",
					"type": "address"
				}
			],
			"name": "getDoctorData",
			"outputs": [
				{
					"internalType": "string",
					"name": "name",
					"type": "string"
				},
				{
					"internalType": "string",
					"name": "doctorDetails",
					"type": "string"
				},
				{
					"internalType": "address",
					"name": "walletAddress",
					"type": "address"
				},
				{
					"internalType": "uint256",
					"name": "patientCount",
					"type": "uint256"
				},
				{
					"internalType": "address",
					"name": "hospitalAddress",
					"type": "address"
				}
			],
			"stateMutability": "view",
			"type": "function"
		},
		{
			"inputs": [
				{
					"internalType": "address",
					"name": "_hospitalAddress",
					"type": "address"
				}
			],
			"name": "getHospitalData",
			"outputs": [
				{
					"internalType": "string",
					"name": "nameAdmin",
					"type": "string"
				},
				{
					"internalType": "string",
					"name": "hospitalDetails",
					"type": "string"
				},
				{
					"internalType": "address",
					"name": "walletAddress",
					"type": "address"
				},
				{
					"internalType": "uint256",
					"name": "doctorCountInHospital",
					"type": "uint256"
				},
				{
					"internalType": "uint256",
					"name": "patientCountInHospital",
					"type": "uint256"
				}
			],
			"stateMutability": "view",
			"type": "function"
		},
		{
			"inputs": [
				{
					"internalType": "address",
					"name": "_walletAddress",
					"type": "address"
				},
				{
					"internalType": "uint256",
					"name": "_recordPosition",
					"type": "uint256"
				}
			],
			"name": "getMedicalRecord",
			"outputs": [
				{
					"components": [
						{
							"internalType": "uint256",
							"name": "index",
							"type": "uint256"
						},
						{
							"internalType": "string",
							"name": "patientRecordHash",
							"type": "string"
						},
						{
							"internalType": "bool",
							"name": "verified",
							"type": "bool"
						}
					],
					"internalType": "struct MainContract.MedicalRecord",
					"name": "value",
					"type": "tuple"
				}
			],
			"stateMutability": "view",
			"type": "function"
		},
		{
			"inputs": [
				{
					"internalType": "address",
					"name": "_walletAddress",
					"type": "address"
				}
			],
			"name": "getMedicalRecordCountForPatient",
			"outputs": [
				{
					"internalType": "uint256",
					"name": "medicalRecordCount",
					"type": "uint256"
				}
			],
			"stateMutability": "view",
			"type": "function"
		},
		{
			"inputs": [
				{
					"internalType": "address",
					"name": "_walletAddress",
					"type": "address"
				}
			],
			"name": "getPharmacyData",
			"outputs": [
				{
					"internalType": "string",
					"name": "name",
					"type": "string"
				},
				{
					"internalType": "string",
					"name": "pharmacyDetails",
					"type": "string"
				},
				{
					"internalType": "address",
					"name": "walletAddress",
					"type": "address"
				}
			],
			"stateMutability": "view",
			"type": "function"
		},
		{
			"inputs": [
				{
					"internalType": "address",
					"name": "_patientWalletAddress",
					"type": "address"
				},
				{
					"internalType": "uint256",
					"name": "_recordPosition",
					"type": "uint256"
				}
			],
			"name": "getPrescriptions",
			"outputs": [
				{
					"components": [
						{
							"internalType": "uint256",
							"name": "index",
							"type": "uint256"
						},
						{
							"internalType": "string",
							"name": "prescriptionHash",
							"type": "string"
						},
						{
							"internalType": "string",
							"name": "prescriptionExpiryDateTime",
							"type": "string"
						}
					],
					"internalType": "struct MainContract.Prescription",
					"name": "value",
					"type": "tuple"
				}
			],
			"stateMutability": "view",
			"type": "function"
		},
		{
			"inputs": [
				{
					"internalType": "address",
					"name": "_patientWalletAddress",
					"type": "address"
				}
			],
			"name": "getPrescriptionsCountForPatient",
			"outputs": [
				{
					"internalType": "uint256",
					"name": "prescriptionsCountForPatient",
					"type": "uint256"
				}
			],
			"stateMutability": "view",
			"type": "function"
		},
		{
			"inputs": [
				{
					"internalType": "bytes32",
					"name": "role",
					"type": "bytes32"
				}
			],
			"name": "getRoleAdmin",
			"outputs": [
				{
					"internalType": "bytes32",
					"name": "",
					"type": "bytes32"
				}
			],
			"stateMutability": "view",
			"type": "function"
		},
		{
			"inputs": [
				{
					"internalType": "address",
					"name": "_walletAddress",
					"type": "address"
				}
			],
			"name": "getRoleForDoctors",
			"outputs": [
				{
					"internalType": "string",
					"name": "role",
					"type": "string"
				}
			],
			"stateMutability": "view",
			"type": "function"
		},
		{
			"inputs": [
				{
					"internalType": "address",
					"name": "_walletAddress",
					"type": "address"
				}
			],
			"name": "getRoleForUser",
			"outputs": [
				{
					"internalType": "string",
					"name": "role",
					"type": "string"
				}
			],
			"stateMutability": "view",
			"type": "function"
		},
		{
			"inputs": [
				{
					"internalType": "bytes32",
					"name": "role",
					"type": "bytes32"
				},
				{
					"internalType": "address",
					"name": "account",
					"type": "address"
				}
			],
			"name": "grantRole",
			"outputs": [],
			"stateMutability": "nonpayable",
			"type": "function"
		},
		{
			"inputs": [
				{
					"internalType": "address",
					"name": "hospitalAddress",
					"type": "address"
				},
				{
					"internalType": "address",
					"name": "_walletAddress",
					"type": "address"
				},
				{
					"internalType": "string",
					"name": "_customRole",
					"type": "string"
				}
			],
			"name": "grantRoleFromHospital",
			"outputs": [],
			"stateMutability": "nonpayable",
			"type": "function"
		},
		{
			"inputs": [
				{
					"internalType": "bytes32",
					"name": "role",
					"type": "bytes32"
				},
				{
					"internalType": "address",
					"name": "account",
					"type": "address"
				}
			],
			"name": "hasRole",
			"outputs": [
				{
					"internalType": "bool",
					"name": "",
					"type": "bool"
				}
			],
			"stateMutability": "view",
			"type": "function"
		},
		{
			"inputs": [
				{
					"internalType": "bytes32",
					"name": "role",
					"type": "bytes32"
				},
				{
					"internalType": "address",
					"name": "account",
					"type": "address"
				}
			],
			"name": "renounceRole",
			"outputs": [],
			"stateMutability": "nonpayable",
			"type": "function"
		},
		{
			"inputs": [
				{
					"internalType": "address",
					"name": "_patientWalletAddress",
					"type": "address"
				},
				{
					"internalType": "address",
					"name": "_pharmacyWalletAddress",
					"type": "address"
				},
				{
					"internalType": "string",
					"name": "_prescriptionRecordHash",
					"type": "string"
				},
				{
					"internalType": "uint256",
					"name": "_prescriptionIndex",
					"type": "uint256"
				}
			],
			"name": "resetPrescriptionRecord",
			"outputs": [
				{
					"internalType": "bool",
					"name": "status",
					"type": "bool"
				}
			],
			"stateMutability": "nonpayable",
			"type": "function"
		},
		{
			"inputs": [],
			"name": "retrieveCountForEntities",
			"outputs": [
				{
					"internalType": "uint256",
					"name": "patientCount",
					"type": "uint256"
				},
				{
					"internalType": "uint256",
					"name": "doctorCount",
					"type": "uint256"
				},
				{
					"internalType": "uint256",
					"name": "hospitalCount",
					"type": "uint256"
				},
				{
					"internalType": "uint256",
					"name": "pharmacyCount",
					"type": "uint256"
				}
			],
			"stateMutability": "view",
			"type": "function"
		},
		{
			"inputs": [],
			"name": "retrieveDoctorCount",
			"outputs": [
				{
					"internalType": "uint256",
					"name": "doctorCount",
					"type": "uint256"
				}
			],
			"stateMutability": "view",
			"type": "function"
		},
		{
			"inputs": [],
			"name": "retrieveHospitalCount",
			"outputs": [
				{
					"internalType": "uint256",
					"name": "hospitalCount",
					"type": "uint256"
				}
			],
			"stateMutability": "view",
			"type": "function"
		},
		{
			"inputs": [
				{
					"internalType": "address",
					"name": "_hospitalAddress",
					"type": "address"
				}
			],
			"name": "retrieveHospitalSpecificCountOfDoctors",
			"outputs": [
				{
					"internalType": "uint256",
					"name": "doctorCountInHospital",
					"type": "uint256"
				}
			],
			"stateMutability": "view",
			"type": "function"
		},
		{
			"inputs": [
				{
					"internalType": "address",
					"name": "_hospitalAddress",
					"type": "address"
				}
			],
			"name": "retrieveHospitalSpecificCountOfPatients",
			"outputs": [
				{
					"internalType": "uint256",
					"name": "patientCountInHospital",
					"type": "uint256"
				}
			],
			"stateMutability": "view",
			"type": "function"
		},
		{
			"inputs": [],
			"name": "retrievePatientCount",
			"outputs": [
				{
					"internalType": "uint256",
					"name": "patientCount",
					"type": "uint256"
				}
			],
			"stateMutability": "view",
			"type": "function"
		},
		{
			"inputs": [
				{
					"internalType": "address",
					"name": "_walletAddress",
					"type": "address"
				}
			],
			"name": "retrievePatientData",
			"outputs": [
				{
					"internalType": "string",
					"name": "name",
					"type": "string"
				},
				{
					"internalType": "string",
					"name": "personalDetails",
					"type": "string"
				},
				{
					"internalType": "address",
					"name": "hospitalAddress",
					"type": "address"
				},
				{
					"internalType": "address",
					"name": "doctorAddress",
					"type": "address"
				}
			],
			"stateMutability": "view",
			"type": "function"
		},
		{
			"inputs": [],
			"name": "retrievePharmacyCount",
			"outputs": [
				{
					"internalType": "uint256",
					"name": "pharmacyCount",
					"type": "uint256"
				}
			],
			"stateMutability": "view",
			"type": "function"
		},
		{
			"inputs": [
				{
					"internalType": "bytes32",
					"name": "role",
					"type": "bytes32"
				},
				{
					"internalType": "address",
					"name": "account",
					"type": "address"
				}
			],
			"name": "revokeRole",
			"outputs": [],
			"stateMutability": "nonpayable",
			"type": "function"
		},
		{
			"inputs": [
				{
					"internalType": "address",
					"name": "hospitalAddress",
					"type": "address"
				},
				{
					"internalType": "address",
					"name": "_walletAddress",
					"type": "address"
				},
				{
					"internalType": "string",
					"name": "_customRole",
					"type": "string"
				}
			],
			"name": "revokeRoleFromHospital",
			"outputs": [],
			"stateMutability": "nonpayable",
			"type": "function"
		},
		{
			"inputs": [
				{
					"internalType": "contract IERC20",
					"name": "_token",
					"type": "address"
				}
			],
			"name": "setContractAddresss",
			"outputs": [],
			"stateMutability": "nonpayable",
			"type": "function"
		},
		{
			"inputs": [
				{
					"internalType": "string",
					"name": "_medicalRecordHash",
					"type": "string"
				},
				{
					"internalType": "address",
					"name": "_walletAddress",
					"type": "address"
				},
				{
					"internalType": "address",
					"name": "_doctorWalletAddress",
					"type": "address"
				}
			],
			"name": "setMedicalRecordByDoctor",
			"outputs": [
				{
					"internalType": "bool",
					"name": "status",
					"type": "bool"
				}
			],
			"stateMutability": "nonpayable",
			"type": "function"
		},
		{
			"inputs": [
				{
					"internalType": "string",
					"name": "_medicalRecordHash",
					"type": "string"
				},
				{
					"internalType": "address",
					"name": "_walletAddress",
					"type": "address"
				}
			],
			"name": "setMedicalRecordByPatient",
			"outputs": [
				{
					"internalType": "bool",
					"name": "status",
					"type": "bool"
				}
			],
			"stateMutability": "nonpayable",
			"type": "function"
		},
		{
			"inputs": [
				{
					"internalType": "uint256",
					"name": "index",
					"type": "uint256"
				},
				{
					"internalType": "address",
					"name": "_patientWalletAddress",
					"type": "address"
				},
				{
					"internalType": "address",
					"name": "_doctorWalletAddress",
					"type": "address"
				},
				{
					"internalType": "bool",
					"name": "_verified",
					"type": "bool"
				}
			],
			"name": "setMedicalRecordVerificationStatus",
			"outputs": [
				{
					"internalType": "bool",
					"name": "status",
					"type": "bool"
				}
			],
			"stateMutability": "nonpayable",
			"type": "function"
		},
		{
			"inputs": [
				{
					"internalType": "string",
					"name": "_prescriptionRecordHash",
					"type": "string"
				},
				{
					"internalType": "address",
					"name": "_walletAddress",
					"type": "address"
				},
				{
					"internalType": "address",
					"name": "_patientWalletAddress",
					"type": "address"
				},
				{
					"internalType": "string",
					"name": "_prescriptionExpiryDateTime",
					"type": "string"
				}
			],
			"name": "setPrescriptionRecordByDoctor",
			"outputs": [
				{
					"internalType": "bool",
					"name": "status",
					"type": "bool"
				}
			],
			"stateMutability": "nonpayable",
			"type": "function"
		},
		{
			"inputs": [
				{
					"internalType": "string",
					"name": "name",
					"type": "string"
				},
				{
					"internalType": "string",
					"name": "_personalDetails",
					"type": "string"
				},
				{
					"internalType": "address",
					"name": "_hospitalAddress",
					"type": "address"
				},
				{
					"internalType": "address",
					"name": "_walletAddress",
					"type": "address"
				}
			],
			"name": "storeDoctor",
			"outputs": [
				{
					"internalType": "bool",
					"name": "status",
					"type": "bool"
				}
			],
			"stateMutability": "nonpayable",
			"type": "function"
		},
		{
			"inputs": [
				{
					"internalType": "string",
					"name": "_name",
					"type": "string"
				},
				{
					"internalType": "string",
					"name": "_hospitalDetails",
					"type": "string"
				},
				{
					"internalType": "address",
					"name": "_walletAddress",
					"type": "address"
				}
			],
			"name": "storeHospital",
			"outputs": [
				{
					"internalType": "bool",
					"name": "status",
					"type": "bool"
				}
			],
			"stateMutability": "nonpayable",
			"type": "function"
		},
		{
			"inputs": [
				{
					"internalType": "string",
					"name": "_name",
					"type": "string"
				},
				{
					"internalType": "string",
					"name": "_personalDetails",
					"type": "string"
				},
				{
					"internalType": "address",
					"name": "_hospitalAddress",
					"type": "address"
				},
				{
					"internalType": "address",
					"name": "_doctorAddress",
					"type": "address"
				},
				{
					"internalType": "address",
					"name": "_walletAddress",
					"type": "address"
				}
			],
			"name": "storePatient",
			"outputs": [
				{
					"internalType": "bool",
					"name": "status",
					"type": "bool"
				}
			],
			"stateMutability": "nonpayable",
			"type": "function"
		},
		{
			"inputs": [
				{
					"internalType": "string",
					"name": "name",
					"type": "string"
				},
				{
					"internalType": "string",
					"name": "_personalDetails",
					"type": "string"
				},
				{
					"internalType": "address",
					"name": "_walletAddress",
					"type": "address"
				}
			],
			"name": "storePharmacy",
			"outputs": [
				{
					"internalType": "bool",
					"name": "status",
					"type": "bool"
				}
			],
			"stateMutability": "nonpayable",
			"type": "function"
		},
		{
			"inputs": [
				{
					"internalType": "bytes4",
					"name": "interfaceId",
					"type": "bytes4"
				}
			],
			"name": "supportsInterface",
			"outputs": [
				{
					"internalType": "bool",
					"name": "",
					"type": "bool"
				}
			],
			"stateMutability": "view",
			"type": "function"
		},
		{
			"inputs": [
				{
					"internalType": "string",
					"name": "_personalDetails",
					"type": "string"
				},
				{
					"internalType": "address",
					"name": "_walletAddress",
					"type": "address"
				}
			],
			"name": "updateDoctorPersonalDetailHash",
			"outputs": [
				{
					"internalType": "bool",
					"name": "status",
					"type": "bool"
				}
			],
			"stateMutability": "nonpayable",
			"type": "function"
		},
		{
			"inputs": [
				{
					"internalType": "string",
					"name": "_personalDetails",
					"type": "string"
				},
				{
					"internalType": "address",
					"name": "_walletAddress",
					"type": "address"
				}
			],
			"name": "updateHospitalPersonalDetailHash",
			"outputs": [
				{
					"internalType": "bool",
					"name": "status",
					"type": "bool"
				}
			],
			"stateMutability": "nonpayable",
			"type": "function"
		},
		{
			"inputs": [
				{
					"internalType": "string",
					"name": "_personalDetails",
					"type": "string"
				},
				{
					"internalType": "address",
					"name": "_walletAddress",
					"type": "address"
				}
			],
			"name": "updatePatientPersonalDetailHash",
			"outputs": [
				{
					"internalType": "bool",
					"name": "status",
					"type": "bool"
				}
			],
			"stateMutability": "nonpayable",
			"type": "function"
		},
		{
			"inputs": [
				{
					"internalType": "string",
					"name": "_personalDetails",
					"type": "string"
				},
				{
					"internalType": "address",
					"name": "_walletAddress",
					"type": "address"
				}
			],
			"name": "updatePharmacyPersonalDetailHash",
			"outputs": [
				{
					"internalType": "bool",
					"name": "status",
					"type": "bool"
				}
			],
			"stateMutability": "nonpayable",
			"type": "function"
		},
		{
			"inputs": [
				{
					"internalType": "uint256",
					"name": "index",
					"type": "uint256"
				},
				{
					"internalType": "address",
					"name": "_patientWalletAddress",
					"type": "address"
				},
				{
					"internalType": "address",
					"name": "_doctorWalletAddress",
					"type": "address"
				},
				{
					"internalType": "string",
					"name": "_medicalRecordHash",
					"type": "string"
				}
			],
			"name": "updatedMedicalRecordHashByDoctor",
			"outputs": [
				{
					"internalType": "bool",
					"name": "status",
					"type": "bool"
				}
			],
			"stateMutability": "nonpayable",
			"type": "function"
		}
	]
}