{
	"data": {
		"bytecode": {
			"linkReferences": {},
			"object": "60806040523480156200001157600080fd5b50620000447f484f53504954414c5f41444d494e000000000000000000000000000000000000806200010360201b60201c565b620000967f444f43544f5200000000000000000000000000000000000000000000000000007f484f53504954414c5f41444d494e0000000000000000000000000000000000006200010360201b60201c565b620000e87f50415449454e54000000000000000000000000000000000000000000000000007f484f53504954414c5f41444d494e0000000000000000000000000000000000006200010360201b60201c565b620000fd6000801b336200016660201b60201c565b620002fe565b600062000116836200017c60201b60201c565b905081600080858152602001908152602001600020600101819055508181847fbd79b86ffe0ab8e8776151514217cd7cacd52c909f66475c3af44e129f0b00ff60405160405180910390a4505050565b6200017882826200019b60201b60201c565b5050565b6000806000838152602001908152602001600020600101549050919050565b620001ad82826200028c60201b60201c565b6200028857600160008084815260200190815260200160002060000160008373ffffffffffffffffffffffffffffffffffffffff1673ffffffffffffffffffffffffffffffffffffffff16815260200190815260200160002060006101000a81548160ff0219169083151502179055506200022d620002f660201b60201c565b73ffffffffffffffffffffffffffffffffffffffff168173ffffffffffffffffffffffffffffffffffffffff16837f2f8788117e7eff1d82e926ec794901d17c78024a50270940304540a733656f0d60405160405180910390a45b5050565b600080600084815260200190815260200160002060000160008373ffffffffffffffffffffffffffffffffffffffff1673ffffffffffffffffffffffffffffffffffffffff16815260200190815260200160002060009054906101000a900460ff16905092915050565b600033905090565b61575f806200030e6000396000f3fe608060405234801561001057600080fd5b50600436106102535760003560e01c8063974eecb511610146578063cfb51928116100c3578063e3c3ee6411610087578063e3c3ee6414610870578063e8300b1d146108a0578063edae7fb5146108d4578063eea9c37b146108f2578063f1628e9e14610923578063f98d5d251461095357610253565b8063cfb5192814610792578063d547741f146107c2578063d6e7b3f0146107de578063e21eadcc1461080e578063e37e96961461084057610253565b8063b9a47e901161010a578063b9a47e90146106a2578063c12878c3146106d2578063c99ead6414610702578063cdca8f7c14610732578063ce65e5e31461076257610253565b8063974eecb5146105c3578063a217fddf146105f3578063a4be9e6a14610611578063a84ceab714610642578063a9909db91461067257610253565b80634edf897f116101d457806373e830b41161019857806373e830b4146104e55780637d379853146105035780638b55befc146105335780638efc28381461056357806391d148541461059357610253565b80634edf897f14610404578063593d34bb146104345780635bf9c0e3146104645780635c7231ef146104945780636daca1ee146104c457610253565b8063248a9ca31161021b578063248a9ca3146103395780632e8ff13c146103695780632f2ff15d1461039c57806336568abe146103b857806345118d8e146103d457610253565b806301ffc9a7146102585780630a086b15146102885780630b600345146102a6578063149e1957146102d657806316d8b45b14610306575b600080fd5b610272600480360381019061026d91906148bc565b610971565b60405161027f9190614f4a565b60405180910390f35b6102906109eb565b60405161029d91906151ae565b60405180910390f35b6102c060048036038101906102bb91906149fd565b6109fc565b6040516102cd9190614f4a565b60405180910390f35b6102f060048036038101906102eb9190614932565b610cd0565b6040516102fd9190614f4a565b60405180910390f35b610320600480360381019061031b91906146f3565b61105b565b6040516103309493929190614fe7565b60405180910390f35b610353600480360381019061034e919061484f565b611270565b6040516103609190614f65565b60405180910390f35b610383600480360381019061037e91906146f3565b61128f565b604051610393949392919061503a565b60405180910390f35b6103b660048036038101906103b1919061487c565b61148b565b005b6103d260048036038101906103cd919061487c565b6114b4565b005b6103ee60048036038101906103e99190614760565b611537565b6040516103fb9190614f4a565b60405180910390f35b61041e60048036038101906104199190614a88565b61168e565b60405161042b9190614f4a565b60405180910390f35b61044e6004803603810190610449919061498e565b611ad9565b60405161045b9190614f4a565b60405180910390f35b61047e60048036038101906104799190614932565b611e65565b60405161048b9190614f4a565b60405180910390f35b6104ae60048036038101906104a99190614760565b611ef8565b6040516104bb9190614f4a565b60405180910390f35b6104cc61204f565b6040516104dc94939291906151c9565b60405180910390f35b6104ed61208b565b6040516104fa91906151ae565b60405180910390f35b61051d60048036038101906105189190614b27565b61209c565b60405161052a9190614f4a565b60405180910390f35b61054d600480360381019061054891906146f3565b61260a565b60405161055a91906151ae565b60405180910390f35b61057d60048036038101906105789190614bda565b61265d565b60405161058a9190614f4a565b60405180910390f35b6105ad60048036038101906105a8919061487c565b61273a565b6040516105ba9190614f4a565b60405180910390f35b6105dd60048036038101906105d891906147b3565b6127a4565b6040516105ea9190614f4a565b60405180910390f35b6105fb612807565b6040516106089190614f65565b60405180910390f35b61062b6004803603810190610626919061480f565b61280e565b60405161063992919061517e565b60405180910390f35b61065c60048036038101906106579190614760565b612a15565b6040516106699190614f4a565b60405180910390f35b61068c60048036038101906106879190614932565b612b37565b6040516106999190614f4a565b60405180910390f35b6106bc60048036038101906106b79190614720565b612bca565b6040516106c99190614f4a565b60405180910390f35b6106ec60048036038101906106e791906146f3565b612c97565b6040516106f991906151ae565b60405180910390f35b61071c600480360381019061071791906149fd565b612cea565b6040516107299190614f4a565b60405180910390f35b61074c60048036038101906107479190614932565b612fbe565b6040516107599190614f4a565b60405180910390f35b61077c60048036038101906107779190614932565b613054565b6040516107899190614f4a565b60405180910390f35b6107ac60048036038101906107a791906148e9565b6130f0565b6040516107b99190614f65565b60405180910390f35b6107dc60048036038101906107d7919061487c565b61311a565b005b6107f860048036038101906107f391906146f3565b613143565b6040516108059190614f80565b60405180910390f35b610828600480360381019061082391906146f3565b61340b565b60405161083793929190614fa2565b60405180910390f35b61085a60048036038101906108559190614720565b6135ed565b6040516108679190614f4a565b60405180910390f35b61088a60048036038101906108859190614c41565b613689565b6040516108979190614f4a565b60405180910390f35b6108ba60048036038101906108b591906146f3565b613732565b6040516108cb95949392919061508d565b60405180910390f35b6108dc613a13565b6040516108e991906151ae565b60405180910390f35b61090c6004803603810190610907919061480f565b613a24565b60405161091a92919061514e565b60405180910390f35b61093d6004803603810190610938919061498e565b613bfa565b60405161094a9190614f4a565b60405180910390f35b61095b613f86565b60405161096891906151ae565b60405180910390f35b60007f7965db0b000000000000000000000000000000000000000000000000000000007bffffffffffffffffffffffffffffffffffffffffffffffffffffffff1916827bffffffffffffffffffffffffffffffffffffffffffffffffffffffff191614806109e457506109e382613f97565b5b9050919050565b60006109f76004614001565b905090565b6000610a287f484f53504954414c5f41444d494e0000000000000000000000000000000000008361273a565b15610b615783600860008473ffffffffffffffffffffffffffffffffffffffff1673ffffffffffffffffffffffffffffffffffffffff1681526020019081526020016000206000019080519060200190610a83929190614531565b5081600860008473ffffffffffffffffffffffffffffffffffffffff1673ffffffffffffffffffffffffffffffffffffffff16815260200190815260200160002060020160006101000a81548173ffffffffffffffffffffffffffffffffffffffff021916908373ffffffffffffffffffffffffffffffffffffffff16021790555082600860008473ffffffffffffffffffffffffffffffffffffffff1673ffffffffffffffffffffffffffffffffffffffff1681526020019081526020016000206001019080519060200190610b5b929190614531565b50610cc5565b610b8b7f484f53504954414c5f41444d494e0000000000000000000000000000000000008361400f565b83600860008473ffffffffffffffffffffffffffffffffffffffff1673ffffffffffffffffffffffffffffffffffffffff1681526020019081526020016000206000019080519060200190610be1929190614531565b5081600860008473ffffffffffffffffffffffffffffffffffffffff1673ffffffffffffffffffffffffffffffffffffffff16815260200190815260200160002060020160006101000a81548173ffffffffffffffffffffffffffffffffffffffff021916908373ffffffffffffffffffffffffffffffffffffffff16021790555082600860008473ffffffffffffffffffffffffffffffffffffffff1673ffffffffffffffffffffffffffffffffffffffff1681526020019081526020016000206001019080519060200190610cb9929190614531565b50610cc4600361401d565b5b600190509392505050565b6000610cfc7f50415449454e54000000000000000000000000000000000000000000000000008361273a565b80610d2d5750610d2c7f56455249464945445f50415449454e54000000000000000000000000000000008361273a565b5b1561105157600560008373ffffffffffffffffffffffffffffffffffffffff1673ffffffffffffffffffffffffffffffffffffffff1681526020019081526020016000206005016000815480929190610d8590615499565b9190505550600560008373ffffffffffffffffffffffffffffffffffffffff1673ffffffffffffffffffffffffffffffffffffffff16815260200190815260200160002060050154600560008473ffffffffffffffffffffffffffffffffffffffff1673ffffffffffffffffffffffffffffffffffffffff16815260200190815260200160002060050181905550600560008373ffffffffffffffffffffffffffffffffffffffff1673ffffffffffffffffffffffffffffffffffffffff16815260200190815260200160002060050154600560008473ffffffffffffffffffffffffffffffffffffffff1673ffffffffffffffffffffffffffffffffffffffff1681526020019081526020016000206006016000600560008673ffffffffffffffffffffffffffffffffffffffff1673ffffffffffffffffffffffffffffffffffffffff1681526020019081526020016000206005015481526020019081526020016000206000018190555082600560008473ffffffffffffffffffffffffffffffffffffffff1673ffffffffffffffffffffffffffffffffffffffff1681526020019081526020016000206006016000600560008673ffffffffffffffffffffffffffffffffffffffff1673ffffffffffffffffffffffffffffffffffffffff1681526020019081526020016000206005015481526020019081526020016000206001019080519060200190610f9e929190614531565b506000600560008473ffffffffffffffffffffffffffffffffffffffff1673ffffffffffffffffffffffffffffffffffffffff1681526020019081526020016000206006016000600560008673ffffffffffffffffffffffffffffffffffffffff1673ffffffffffffffffffffffffffffffffffffffff16815260200190815260200160002060050154815260200190815260200160002060020160006101000a81548160ff0219169083151502179055505b6001905092915050565b606080600080600560008673ffffffffffffffffffffffffffffffffffffffff1673ffffffffffffffffffffffffffffffffffffffff168152602001908152602001600020600001600560008773ffffffffffffffffffffffffffffffffffffffff1673ffffffffffffffffffffffffffffffffffffffff168152602001908152602001600020600101600560008873ffffffffffffffffffffffffffffffffffffffff1673ffffffffffffffffffffffffffffffffffffffff16815260200190815260200160002060030160009054906101000a900473ffffffffffffffffffffffffffffffffffffffff168783805461115590615436565b80601f016020809104026020016040519081016040528092919081815260200182805461118190615436565b80156111ce5780601f106111a3576101008083540402835291602001916111ce565b820191906000526020600020905b8154815290600101906020018083116111b157829003601f168201915b505050505093508280546111e190615436565b80601f016020809104026020016040519081016040528092919081815260200182805461120d90615436565b801561125a5780601f1061122f5761010080835404028352916020019161125a565b820191906000526020600020905b81548152906001019060200180831161123d57829003601f168201915b5050505050925093509350935093509193509193565b6000806000838152602001908152602001600020600101549050919050565b606080600080600660008673ffffffffffffffffffffffffffffffffffffffff1673ffffffffffffffffffffffffffffffffffffffff168152602001908152602001600020600101600660008773ffffffffffffffffffffffffffffffffffffffff1673ffffffffffffffffffffffffffffffffffffffff16815260200190815260200160002060020186611364600660008a73ffffffffffffffffffffffffffffffffffffffff1673ffffffffffffffffffffffffffffffffffffffff168152602001908152602001600020600401614001565b83805461137090615436565b80601f016020809104026020016040519081016040528092919081815260200182805461139c90615436565b80156113e95780601f106113be576101008083540402835291602001916113e9565b820191906000526020600020905b8154815290600101906020018083116113cc57829003601f168201915b505050505093508280546113fc90615436565b80601f016020809104026020016040519081016040528092919081815260200182805461142890615436565b80156114755780601f1061144a57610100808354040283529160200191611475565b820191906000526020600020905b81548152906001019060200180831161145857829003601f168201915b5050505050925093509350935093509193509193565b61149482611270565b6114a5816114a0614033565b61403b565b6114af83836140d8565b505050565b6114bc614033565b73ffffffffffffffffffffffffffffffffffffffff168173ffffffffffffffffffffffffffffffffffffffff1614611529576040517f08c379a00000000000000000000000000000000000000000000000000000000081526004016115209061512e565b60405180910390fd5b61153382826141b8565b5050565b60006115637f56455249464945445f50415449454e54000000000000000000000000000000008361273a565b15611686576115b2600860008673ffffffffffffffffffffffffffffffffffffffff1673ffffffffffffffffffffffffffffffffffffffff168152602001908152602001600020600301614299565b82600560008473ffffffffffffffffffffffffffffffffffffffff1673ffffffffffffffffffffffffffffffffffffffff16815260200190815260200160002060030160006101000a81548173ffffffffffffffffffffffffffffffffffffffff021916908373ffffffffffffffffffffffffffffffffffffffff16021790555061167d600860008573ffffffffffffffffffffffffffffffffffffffff1673ffffffffffffffffffffffffffffffffffffffff16815260200190815260200160002060030161401d565b60019050611687565b5b9392505050565b60006116ba7f444f43544f5200000000000000000000000000000000000000000000000000008361273a565b1561189e576116e97f444f43544f5200000000000000000000000000000000000000000000000000008361400f565b84600660008473ffffffffffffffffffffffffffffffffffffffff1673ffffffffffffffffffffffffffffffffffffffff168152602001908152602001600020600101908051906020019061173f929190614531565b5081600660008473ffffffffffffffffffffffffffffffffffffffff1673ffffffffffffffffffffffffffffffffffffffff16815260200190815260200160002060000160006101000a81548173ffffffffffffffffffffffffffffffffffffffff021916908373ffffffffffffffffffffffffffffffffffffffff16021790555082600660008473ffffffffffffffffffffffffffffffffffffffff1673ffffffffffffffffffffffffffffffffffffffff16815260200190815260200160002060030160006101000a81548173ffffffffffffffffffffffffffffffffffffffff021916908373ffffffffffffffffffffffffffffffffffffffff16021790555083600660008473ffffffffffffffffffffffffffffffffffffffff1673ffffffffffffffffffffffffffffffffffffffff1681526020019081526020016000206002019080519060200190611898929190614531565b50611acd565b6118c87f444f43544f5200000000000000000000000000000000000000000000000000008361400f565b84600660008473ffffffffffffffffffffffffffffffffffffffff1673ffffffffffffffffffffffffffffffffffffffff168152602001908152602001600020600101908051906020019061191e929190614531565b5081600660008473ffffffffffffffffffffffffffffffffffffffff1673ffffffffffffffffffffffffffffffffffffffff16815260200190815260200160002060000160006101000a81548173ffffffffffffffffffffffffffffffffffffffff021916908373ffffffffffffffffffffffffffffffffffffffff16021790555082600660008473ffffffffffffffffffffffffffffffffffffffff1673ffffffffffffffffffffffffffffffffffffffff16815260200190815260200160002060030160006101000a81548173ffffffffffffffffffffffffffffffffffffffff021916908373ffffffffffffffffffffffffffffffffffffffff16021790555083600660008473ffffffffffffffffffffffffffffffffffffffff1673ffffffffffffffffffffffffffffffffffffffff1681526020019081526020016000206002019080519060200190611a77929190614531565b50611ac2600860008573ffffffffffffffffffffffffffffffffffffffff1673ffffffffffffffffffffffffffffffffffffffff16815260200190815260200160002060040161401d565b611acc600261401d565b5b60019050949350505050565b6000611b057f444f43544f5200000000000000000000000000000000000000000000000000008361273a565b80611b365750611b357f56455249464945445f444f43544f5200000000000000000000000000000000008361273a565b5b15611e5a57600560008473ffffffffffffffffffffffffffffffffffffffff1673ffffffffffffffffffffffffffffffffffffffff1681526020019081526020016000206007016000815480929190611b8e90615499565b9190505550600560008473ffffffffffffffffffffffffffffffffffffffff1673ffffffffffffffffffffffffffffffffffffffff16815260200190815260200160002060070154600560008573ffffffffffffffffffffffffffffffffffffffff1673ffffffffffffffffffffffffffffffffffffffff16815260200190815260200160002060070181905550600560008473ffffffffffffffffffffffffffffffffffffffff1673ffffffffffffffffffffffffffffffffffffffff16815260200190815260200160002060070154600560008573ffffffffffffffffffffffffffffffffffffffff1673ffffffffffffffffffffffffffffffffffffffff1681526020019081526020016000206008016000600560008773ffffffffffffffffffffffffffffffffffffffff1673ffffffffffffffffffffffffffffffffffffffff1681526020019081526020016000206007015481526020019081526020016000206000018190555083600560008573ffffffffffffffffffffffffffffffffffffffff1673ffffffffffffffffffffffffffffffffffffffff1681526020019081526020016000206008016000600560008773ffffffffffffffffffffffffffffffffffffffff1673ffffffffffffffffffffffffffffffffffffffff1681526020019081526020016000206007015481526020019081526020016000206001019080519060200190611da7929190614531565b506001600560008573ffffffffffffffffffffffffffffffffffffffff1673ffffffffffffffffffffffffffffffffffffffff1681526020019081526020016000206008016000600560008773ffffffffffffffffffffffffffffffffffffffff1673ffffffffffffffffffffffffffffffffffffffff16815260200190815260200160002060070154815260200190815260200160002060020160006101000a81548160ff0219169083151502179055505b600190509392505050565b6000611e917f484f53504954414c5f41444d494e0000000000000000000000000000000000008361273a565b15611eee5782600560008473ffffffffffffffffffffffffffffffffffffffff1673ffffffffffffffffffffffffffffffffffffffff1681526020019081526020016000206001019080519060200190611eec929190614531565b505b6001905092915050565b6000611f247f56455249464945445f50415449454e54000000000000000000000000000000008361273a565b1561204757611f73600660008673ffffffffffffffffffffffffffffffffffffffff1673ffffffffffffffffffffffffffffffffffffffff168152602001908152602001600020600401614299565b82600560008473ffffffffffffffffffffffffffffffffffffffff1673ffffffffffffffffffffffffffffffffffffffff16815260200190815260200160002060020160006101000a81548173ffffffffffffffffffffffffffffffffffffffff021916908373ffffffffffffffffffffffffffffffffffffffff16021790555061203e600660008573ffffffffffffffffffffffffffffffffffffffff1673ffffffffffffffffffffffffffffffffffffffff16815260200190815260200160002060040161401d565b60019050612048565b5b9392505050565b60008060008061205f6001614001565b6120696002614001565b6120736003614001565b61207d6004614001565b935093509350935090919293565b60006120976001614001565b905090565b60006120c87f50415449454e54000000000000000000000000000000000000000000000000008361273a565b156123035785600560008473ffffffffffffffffffffffffffffffffffffffff1673ffffffffffffffffffffffffffffffffffffffff1681526020019081526020016000206000019080519060200190612123929190614531565b5084600560008473ffffffffffffffffffffffffffffffffffffffff1673ffffffffffffffffffffffffffffffffffffffff168152602001908152602001600020600101908051906020019061217a929190614531565b5083600560008473ffffffffffffffffffffffffffffffffffffffff1673ffffffffffffffffffffffffffffffffffffffff16815260200190815260200160002060030160006101000a81548173ffffffffffffffffffffffffffffffffffffffff021916908373ffffffffffffffffffffffffffffffffffffffff16021790555082600560008473ffffffffffffffffffffffffffffffffffffffff1673ffffffffffffffffffffffffffffffffffffffff16815260200190815260200160002060020160006101000a81548173ffffffffffffffffffffffffffffffffffffffff021916908373ffffffffffffffffffffffffffffffffffffffff16021790555081600560008473ffffffffffffffffffffffffffffffffffffffff1673ffffffffffffffffffffffffffffffffffffffff16815260200190815260200160002060040160006101000a81548173ffffffffffffffffffffffffffffffffffffffff021916908373ffffffffffffffffffffffffffffffffffffffff1602179055506125fd565b61232d7f50415449454e54000000000000000000000000000000000000000000000000008361400f565b85600560008473ffffffffffffffffffffffffffffffffffffffff1673ffffffffffffffffffffffffffffffffffffffff1681526020019081526020016000206000019080519060200190612383929190614531565b5084600560008473ffffffffffffffffffffffffffffffffffffffff1673ffffffffffffffffffffffffffffffffffffffff16815260200190815260200160002060010190805190602001906123da929190614531565b5083600560008473ffffffffffffffffffffffffffffffffffffffff1673ffffffffffffffffffffffffffffffffffffffff16815260200190815260200160002060030160006101000a81548173ffffffffffffffffffffffffffffffffffffffff021916908373ffffffffffffffffffffffffffffffffffffffff16021790555081600560008473ffffffffffffffffffffffffffffffffffffffff1673ffffffffffffffffffffffffffffffffffffffff16815260200190815260200160002060040160006101000a81548173ffffffffffffffffffffffffffffffffffffffff021916908373ffffffffffffffffffffffffffffffffffffffff16021790555082600560008473ffffffffffffffffffffffffffffffffffffffff1673ffffffffffffffffffffffffffffffffffffffff16815260200190815260200160002060020160006101000a81548173ffffffffffffffffffffffffffffffffffffffff021916908373ffffffffffffffffffffffffffffffffffffffff1602179055506125a8600660008573ffffffffffffffffffffffffffffffffffffffff1673ffffffffffffffffffffffffffffffffffffffff16815260200190815260200160002060040161401d565b6125f2600860008673ffffffffffffffffffffffffffffffffffffffff1673ffffffffffffffffffffffffffffffffffffffff16815260200190815260200160002060030161401d565b6125fc600161401d565b5b6001905095945050505050565b6000612656600860008473ffffffffffffffffffffffffffffffffffffffff1673ffffffffffffffffffffffffffffffffffffffff168152602001908152602001600020600301614001565b9050919050565b60006126897f444f43544f5200000000000000000000000000000000000000000000000000008461273a565b806126ba57506126b97f56455249464945445f444f43544f5200000000000000000000000000000000008461273a565b5b1561272e5781600560008673ffffffffffffffffffffffffffffffffffffffff1673ffffffffffffffffffffffffffffffffffffffff168152602001908152602001600020600601600087815260200190815260200160002060020160006101000a81548160ff0219169083151502179055505b60019050949350505050565b600080600084815260200190815260200160002060000160008373ffffffffffffffffffffffffffffffffffffffff1673ffffffffffffffffffffffffffffffffffffffff16815260200190815260200160002060009054906101000a900460ff16905092915050565b600081600560008573ffffffffffffffffffffffffffffffffffffffff1673ffffffffffffffffffffffffffffffffffffffff16815260200190815260200160002060010190805190602001906127fc929190614531565b506001905092915050565b6000801b81565b6128166145b7565b60006128427f50415449454e54000000000000000000000000000000000000000000000000008561273a565b8061287357506128727f56455249464945445f50415449454e54000000000000000000000000000000008561273a565b5b806128a457506128a37f504841524d4143590000000000000000000000000000000000000000000000008561273a565b5b15612a0d57600560008573ffffffffffffffffffffffffffffffffffffffff1673ffffffffffffffffffffffffffffffffffffffff1681526020019081526020016000206008016000848152602001908152602001600020600560008673ffffffffffffffffffffffffffffffffffffffff1673ffffffffffffffffffffffffffffffffffffffff16815260200190815260200160002060070154816040518060600160405290816000820154815260200160018201805461296590615436565b80601f016020809104026020016040519081016040528092919081815260200182805461299190615436565b80156129de5780601f106129b3576101008083540402835291602001916129de565b820191906000526020600020905b8154815290600101906020018083116129c157829003601f168201915b505050505081526020016002820160009054906101000a900460ff161515151581525050915091509150612a0e565b5b9250929050565b6000612a61600860008673ffffffffffffffffffffffffffffffffffffffff1673ffffffffffffffffffffffffffffffffffffffff168152602001908152602001600020600401614299565b82600660008473ffffffffffffffffffffffffffffffffffffffff1673ffffffffffffffffffffffffffffffffffffffff16815260200190815260200160002060030160006101000a81548173ffffffffffffffffffffffffffffffffffffffff021916908373ffffffffffffffffffffffffffffffffffffffff160217905550612b2c600860008573ffffffffffffffffffffffffffffffffffffffff1673ffffffffffffffffffffffffffffffffffffffff16815260200190815260200160002060040161401d565b600190509392505050565b6000612b637f56455249464945445f50415449454e54000000000000000000000000000000008361273a565b15612bc05782600560008473ffffffffffffffffffffffffffffffffffffffff1673ffffffffffffffffffffffffffffffffffffffff1681526020019081526020016000206001019080519060200190612bbe929190614531565b505b6001905092915050565b6000612bf67f484f53504954414c5f41444d494e0000000000000000000000000000000000008461273a565b80612c275750612c267f56455249464945445f444f43544f5200000000000000000000000000000000008461273a565b5b612c3057600080fd5b612c5a7f50415449454e54000000000000000000000000000000000000000000000000008361273a565b612c6357600080fd5b612c8d7f56455249464945445f50415449454e54000000000000000000000000000000008361148b565b6001905092915050565b6000612ce3600860008473ffffffffffffffffffffffffffffffffffffffff1673ffffffffffffffffffffffffffffffffffffffff168152602001908152602001600020600401614001565b9050919050565b6000612d167f504841524d4143590000000000000000000000000000000000000000000000008361273a565b15612e4f5783600760008473ffffffffffffffffffffffffffffffffffffffff1673ffffffffffffffffffffffffffffffffffffffff1681526020019081526020016000206000019080519060200190612d71929190614531565b5081600760008473ffffffffffffffffffffffffffffffffffffffff1673ffffffffffffffffffffffffffffffffffffffff16815260200190815260200160002060020160006101000a81548173ffffffffffffffffffffffffffffffffffffffff021916908373ffffffffffffffffffffffffffffffffffffffff16021790555082600760008473ffffffffffffffffffffffffffffffffffffffff1673ffffffffffffffffffffffffffffffffffffffff1681526020019081526020016000206001019080519060200190612e49929190614531565b50612fb3565b612e797f504841524d4143590000000000000000000000000000000000000000000000008361400f565b83600760008473ffffffffffffffffffffffffffffffffffffffff1673ffffffffffffffffffffffffffffffffffffffff1681526020019081526020016000206000019080519060200190612ecf929190614531565b5081600760008473ffffffffffffffffffffffffffffffffffffffff1673ffffffffffffffffffffffffffffffffffffffff16815260200190815260200160002060020160006101000a81548173ffffffffffffffffffffffffffffffffffffffff021916908373ffffffffffffffffffffffffffffffffffffffff16021790555082600760008473ffffffffffffffffffffffffffffffffffffffff1673ffffffffffffffffffffffffffffffffffffffff1681526020019081526020016000206001019080519060200190612fa7929190614531565b50612fb2600461401d565b5b600190509392505050565b6000612fea7f504841524d4143590000000000000000000000000000000000000000000000008361273a565b612ff357600080fd5b82600760008473ffffffffffffffffffffffffffffffffffffffff1673ffffffffffffffffffffffffffffffffffffffff1681526020019081526020016000206001019080519060200190613049929190614531565b506001905092915050565b60006130807f56455249464945445f444f43544f5200000000000000000000000000000000008361273a565b156130e55782600660008473ffffffffffffffffffffffffffffffffffffffff1673ffffffffffffffffffffffffffffffffffffffff16815260200190815260200160002060020190805190602001906130db929190614531565b50600190506130ea565b600090505b92915050565b60008082905060008151141561310c576000801b915050613115565b60208301519150505b919050565b61312382611270565b6131348161312f614033565b61403b565b61313e83836141b8565b505050565b606061316f7f50415449454e54000000000000000000000000000000000000000000000000008361273a565b156131b1576040518060400160405280600781526020017f50415449454e54000000000000000000000000000000000000000000000000008152509050613406565b6131db7f56455249464945445f50415449454e54000000000000000000000000000000008361273a565b1561321d576040518060400160405280601081526020017f56455249464945445f50415449454e54000000000000000000000000000000008152509050613406565b6132477f444f43544f5200000000000000000000000000000000000000000000000000008361273a565b15613289576040518060400160405280600681526020017f444f43544f5200000000000000000000000000000000000000000000000000008152509050613406565b6132b37f56455249464945445f444f43544f5200000000000000000000000000000000008361273a565b156132f5576040518060400160405280600f81526020017f56455249464945445f444f43544f5200000000000000000000000000000000008152509050613406565b61331f7f484f53504954414c5f41444d494e0000000000000000000000000000000000008361273a565b15613361576040518060400160405280600e81526020017f484f53504954414c5f41444d494e0000000000000000000000000000000000008152509050613406565b61338b7f504841524d4143590000000000000000000000000000000000000000000000008361273a565b156133cd576040518060400160405280600881526020017f504841524d4143590000000000000000000000000000000000000000000000008152509050613406565b6040518060400160405280600a81526020017f554e56455249464945440000000000000000000000000000000000000000000081525090505b919050565b606080600061343a7f504841524d4143590000000000000000000000000000000000000000000000008561273a565b61344357600080fd5b600760008573ffffffffffffffffffffffffffffffffffffffff1673ffffffffffffffffffffffffffffffffffffffff168152602001908152602001600020600001600760008673ffffffffffffffffffffffffffffffffffffffff1673ffffffffffffffffffffffffffffffffffffffff168152602001908152602001600020600101858280546134d490615436565b80601f016020809104026020016040519081016040528092919081815260200182805461350090615436565b801561354d5780601f106135225761010080835404028352916020019161354d565b820191906000526020600020905b81548152906001019060200180831161353057829003601f168201915b5050505050925081805461356090615436565b80601f016020809104026020016040519081016040528092919081815260200182805461358c90615436565b80156135d95780601f106135ae576101008083540402835291602001916135d9565b820191906000526020600020905b8154815290600101906020018083116135bc57829003601f168201915b505050505091509250925092509193909250565b60006136197f484f53504954414c5f41444d494e0000000000000000000000000000000000008461273a565b61362257600080fd5b61364c7f444f43544f5200000000000000000000000000000000000000000000000000008361273a565b61365557600080fd5b61367f7f56455249464945445f444f43544f5200000000000000000000000000000000008361148b565b6001905092915050565b60006136b57f504841524d4143590000000000000000000000000000000000000000000000008461273a565b156137265781600560008673ffffffffffffffffffffffffffffffffffffffff1673ffffffffffffffffffffffffffffffffffffffff16815260200190815260200160002060080160008781526020019081526020016000206001019080519060200190613724929190614531565b505b60019050949350505050565b60608060008060006137647f484f53504954414c5f41444d494e0000000000000000000000000000000000008761273a565b61376d57600080fd5b600860008773ffffffffffffffffffffffffffffffffffffffff1673ffffffffffffffffffffffffffffffffffffffff168152602001908152602001600020600001600860008873ffffffffffffffffffffffffffffffffffffffff1673ffffffffffffffffffffffffffffffffffffffff168152602001908152602001600020600101600860008973ffffffffffffffffffffffffffffffffffffffff1673ffffffffffffffffffffffffffffffffffffffff16815260200190815260200160002060020160009054906101000a900473ffffffffffffffffffffffffffffffffffffffff1661389e600860008b73ffffffffffffffffffffffffffffffffffffffff1673ffffffffffffffffffffffffffffffffffffffff168152602001908152602001600020600401614001565b6138e8600860008c73ffffffffffffffffffffffffffffffffffffffff1673ffffffffffffffffffffffffffffffffffffffff168152602001908152602001600020600301614001565b8480546138f490615436565b80601f016020809104026020016040519081016040528092919081815260200182805461392090615436565b801561396d5780601f106139425761010080835404028352916020019161396d565b820191906000526020600020905b81548152906001019060200180831161395057829003601f168201915b5050505050945083805461398090615436565b80601f01602080910402602001604051908101604052809291908181526020018280546139ac90615436565b80156139f95780601f106139ce576101008083540402835291602001916139f9565b820191906000526020600020905b8154815290600101906020018083116139dc57829003601f168201915b505050505093509450945094509450945091939590929450565b6000613a1f6002614001565b905090565b613a2c6145da565b6000613a587f50415449454e54000000000000000000000000000000000000000000000000008561273a565b80613a895750613a887f56455249464945445f50415449454e54000000000000000000000000000000008561273a565b5b15613bf257600560008573ffffffffffffffffffffffffffffffffffffffff1673ffffffffffffffffffffffffffffffffffffffff1681526020019081526020016000206006016000848152602001908152602001600020600560008673ffffffffffffffffffffffffffffffffffffffff1673ffffffffffffffffffffffffffffffffffffffff168152602001908152602001600020600501548160405180606001604052908160008201548152602001600182018054613b4a90615436565b80601f0160208091040260200160405190810160405280929190818152602001828054613b7690615436565b8015613bc35780601f10613b9857610100808354040283529160200191613bc3565b820191906000526020600020905b815481529060010190602001808311613ba657829003601f168201915b505050505081526020016002820160009054906101000a900460ff161515151581525050915091509150613bf3565b5b9250929050565b6000613c267f444f43544f5200000000000000000000000000000000000000000000000000008361273a565b80613c575750613c567f56455249464945445f444f43544f5200000000000000000000000000000000008361273a565b5b15613f7b57600560008473ffffffffffffffffffffffffffffffffffffffff1673ffffffffffffffffffffffffffffffffffffffff1681526020019081526020016000206005016000815480929190613caf90615499565b9190505550600560008473ffffffffffffffffffffffffffffffffffffffff1673ffffffffffffffffffffffffffffffffffffffff16815260200190815260200160002060050154600560008573ffffffffffffffffffffffffffffffffffffffff1673ffffffffffffffffffffffffffffffffffffffff16815260200190815260200160002060050181905550600560008473ffffffffffffffffffffffffffffffffffffffff1673ffffffffffffffffffffffffffffffffffffffff16815260200190815260200160002060050154600560008573ffffffffffffffffffffffffffffffffffffffff1673ffffffffffffffffffffffffffffffffffffffff1681526020019081526020016000206006016000600560008773ffffffffffffffffffffffffffffffffffffffff1673ffffffffffffffffffffffffffffffffffffffff1681526020019081526020016000206005015481526020019081526020016000206000018190555083600560008573ffffffffffffffffffffffffffffffffffffffff1673ffffffffffffffffffffffffffffffffffffffff1681526020019081526020016000206006016000600560008773ffffffffffffffffffffffffffffffffffffffff1673ffffffffffffffffffffffffffffffffffffffff1681526020019081526020016000206005015481526020019081526020016000206001019080519060200190613ec8929190614531565b506001600560008573ffffffffffffffffffffffffffffffffffffffff1673ffffffffffffffffffffffffffffffffffffffff1681526020019081526020016000206006016000600560008773ffffffffffffffffffffffffffffffffffffffff1673ffffffffffffffffffffffffffffffffffffffff16815260200190815260200160002060050154815260200190815260200160002060020160006101000a81548160ff0219169083151502179055505b600190509392505050565b6000613f926003614001565b905090565b60007f01ffc9a7000000000000000000000000000000000000000000000000000000007bffffffffffffffffffffffffffffffffffffffffffffffffffffffff1916827bffffffffffffffffffffffffffffffffffffffffffffffffffffffff1916149050919050565b600081600001549050919050565b61401982826140d8565b5050565b6001816000016000828254019250508190555050565b600033905090565b614045828261273a565b6140d45761406a8173ffffffffffffffffffffffffffffffffffffffff1660146142f5565b6140788360001c60206142f5565b604051602001614089929190614f10565b6040516020818303038152906040526040517f08c379a00000000000000000000000000000000000000000000000000000000081526004016140cb9190614f80565b60405180910390fd5b5050565b6140e2828261273a565b6141b457600160008084815260200190815260200160002060000160008373ffffffffffffffffffffffffffffffffffffffff1673ffffffffffffffffffffffffffffffffffffffff16815260200190815260200160002060006101000a81548160ff021916908315150217905550614159614033565b73ffffffffffffffffffffffffffffffffffffffff168173ffffffffffffffffffffffffffffffffffffffff16837f2f8788117e7eff1d82e926ec794901d17c78024a50270940304540a733656f0d60405160405180910390a45b5050565b6141c2828261273a565b1561429557600080600084815260200190815260200160002060000160008373ffffffffffffffffffffffffffffffffffffffff1673ffffffffffffffffffffffffffffffffffffffff16815260200190815260200160002060006101000a81548160ff02191690831515021790555061423a614033565b73ffffffffffffffffffffffffffffffffffffffff168173ffffffffffffffffffffffffffffffffffffffff16837ff6391f5c32d9c69d2a47ea670b442974b53935d1edc7fd64eb21e047a839171b60405160405180910390a45b5050565b600081600001549050600081116142e5576040517f08c379a00000000000000000000000000000000000000000000000000000000081526004016142dc9061510e565b60405180910390fd5b6001810382600001819055505050565b60606000600283600261430891906152f2565b614312919061529c565b67ffffffffffffffff81111561432b5761432a61556f565b5b6040519080825280601f01601f19166020018201604052801561435d5781602001600182028036833780820191505090505b5090507f30000000000000000000000000000000000000000000000000000000000000008160008151811061439557614394615540565b5b60200101907effffffffffffffffffffffffffffffffffffffffffffffffffffffffffffff1916908160001a9053507f7800000000000000000000000000000000000000000000000000000000000000816001815181106143f9576143f8615540565b5b60200101907effffffffffffffffffffffffffffffffffffffffffffffffffffffffffffff1916908160001a9053506000600184600261443991906152f2565b614443919061529c565b90505b60018111156144e3577f3031323334353637383961626364656600000000000000000000000000000000600f86166010811061448557614484615540565b5b1a60f81b82828151811061449c5761449b615540565b5b60200101907effffffffffffffffffffffffffffffffffffffffffffffffffffffffffffff1916908160001a905350600485901c9450806144dc9061540c565b9050614446565b5060008414614527576040517f08c379a000000000000000000000000000000000000000000000000000000000815260040161451e906150ee565b60405180910390fd5b8091505092915050565b82805461453d90615436565b90600052602060002090601f01602090048101928261455f57600085556145a6565b82601f1061457857805160ff19168380011785556145a6565b828001600101855582156145a6579182015b828111156145a557825182559160200191906001019061458a565b5b5090506145b391906145fd565b5090565b604051806060016040528060008152602001606081526020016000151581525090565b604051806060016040528060008152602001606081526020016000151581525090565b5b808211156146165760008160009055506001016145fe565b5090565b600061462d61462884615233565b61520e565b905082815260208101848484011115614649576146486155a3565b5b6146548482856153ca565b509392505050565b60008135905061466b816156b6565b92915050565b600081359050614680816156cd565b92915050565b600081359050614695816156e4565b92915050565b6000813590506146aa816156fb565b92915050565b600082601f8301126146c5576146c461559e565b5b81356146d584826020860161461a565b91505092915050565b6000813590506146ed81615712565b92915050565b600060208284031215614709576147086155ad565b5b60006147178482850161465c565b91505092915050565b60008060408385031215614737576147366155ad565b5b60006147458582860161465c565b92505060206147568582860161465c565b9150509250929050565b600080600060608486031215614779576147786155ad565b5b60006147878682870161465c565b93505060206147988682870161465c565b92505060406147a98682870161465c565b9150509250925092565b600080604083850312156147ca576147c96155ad565b5b60006147d88582860161465c565b925050602083013567ffffffffffffffff8111156147f9576147f86155a8565b5b614805858286016146b0565b9150509250929050565b60008060408385031215614826576148256155ad565b5b60006148348582860161465c565b9250506020614845858286016146de565b9150509250929050565b600060208284031215614865576148646155ad565b5b600061487384828501614686565b91505092915050565b60008060408385031215614893576148926155ad565b5b60006148a185828601614686565b92505060206148b28582860161465c565b9150509250929050565b6000602082840312156148d2576148d16155ad565b5b60006148e08482850161469b565b91505092915050565b6000602082840312156148ff576148fe6155ad565b5b600082013567ffffffffffffffff81111561491d5761491c6155a8565b5b614929848285016146b0565b91505092915050565b60008060408385031215614949576149486155ad565b5b600083013567ffffffffffffffff811115614967576149666155a8565b5b614973858286016146b0565b92505060206149848582860161465c565b9150509250929050565b6000806000606084860312156149a7576149a66155ad565b5b600084013567ffffffffffffffff8111156149c5576149c46155a8565b5b6149d1868287016146b0565b93505060206149e28682870161465c565b92505060406149f38682870161465c565b9150509250925092565b600080600060608486031215614a1657614a156155ad565b5b600084013567ffffffffffffffff811115614a3457614a336155a8565b5b614a40868287016146b0565b935050602084013567ffffffffffffffff811115614a6157614a606155a8565b5b614a6d868287016146b0565b9250506040614a7e8682870161465c565b9150509250925092565b60008060008060808587031215614aa257614aa16155ad565b5b600085013567ffffffffffffffff811115614ac057614abf6155a8565b5b614acc878288016146b0565b945050602085013567ffffffffffffffff811115614aed57614aec6155a8565b5b614af9878288016146b0565b9350506040614b0a8782880161465c565b9250506060614b1b8782880161465c565b91505092959194509250565b600080600080600060a08688031215614b4357614b426155ad565b5b600086013567ffffffffffffffff811115614b6157614b606155a8565b5b614b6d888289016146b0565b955050602086013567ffffffffffffffff811115614b8e57614b8d6155a8565b5b614b9a888289016146b0565b9450506040614bab8882890161465c565b9350506060614bbc8882890161465c565b9250506080614bcd8882890161465c565b9150509295509295909350565b60008060008060808587031215614bf457614bf36155ad565b5b6000614c02878288016146de565b9450506020614c138782880161465c565b9350506040614c248782880161465c565b9250506060614c3587828801614671565b91505092959194509250565b60008060008060808587031215614c5b57614c5a6155ad565b5b6000614c69878288016146de565b9450506020614c7a8782880161465c565b9350506040614c8b8782880161465c565b925050606085013567ffffffffffffffff811115614cac57614cab6155a8565b5b614cb8878288016146b0565b91505092959194509250565b614ccd8161534c565b82525050565b614cdc8161535e565b82525050565b614ceb8161535e565b82525050565b614cfa8161536a565b82525050565b6000614d0b82615264565b614d15818561526f565b9350614d258185602086016153d9565b614d2e816155b2565b840191505092915050565b6000614d4482615264565b614d4e8185615280565b9350614d5e8185602086016153d9565b614d67816155b2565b840191505092915050565b6000614d7d82615264565b614d878185615291565b9350614d978185602086016153d9565b80840191505092915050565b6000614db0602083615280565b9150614dbb826155c3565b602082019050919050565b6000614dd3601b83615280565b9150614dde826155ec565b602082019050919050565b6000614df6601783615291565b9150614e0182615615565b601782019050919050565b6000614e19601183615291565b9150614e248261563e565b601182019050919050565b6000614e3c602f83615280565b9150614e4782615667565b604082019050919050565b6000606083016000830151614e6a6000860182614ef2565b5060208301518482036020860152614e828282614d00565b9150506040830151614e976040860182614cd3565b508091505092915050565b6000606083016000830151614eba6000860182614ef2565b5060208301518482036020860152614ed28282614d00565b9150506040830151614ee76040860182614cd3565b508091505092915050565b614efb816153c0565b82525050565b614f0a816153c0565b82525050565b6000614f1b82614de9565b9150614f278285614d72565b9150614f3282614e0c565b9150614f3e8284614d72565b91508190509392505050565b6000602082019050614f5f6000830184614ce2565b92915050565b6000602082019050614f7a6000830184614cf1565b92915050565b60006020820190508181036000830152614f9a8184614d39565b905092915050565b60006060820190508181036000830152614fbc8186614d39565b90508181036020830152614fd08185614d39565b9050614fdf6040830184614cc4565b949350505050565b600060808201905081810360008301526150018187614d39565b905081810360208301526150158186614d39565b90506150246040830185614cc4565b6150316060830184614cc4565b95945050505050565b600060808201905081810360008301526150548187614d39565b905081810360208301526150688186614d39565b90506150776040830185614cc4565b6150846060830184614f01565b95945050505050565b600060a08201905081810360008301526150a78188614d39565b905081810360208301526150bb8187614d39565b90506150ca6040830186614cc4565b6150d76060830185614f01565b6150e46080830184614f01565b9695505050505050565b6000602082019050818103600083015261510781614da3565b9050919050565b6000602082019050818103600083015261512781614dc6565b9050919050565b6000602082019050818103600083015261514781614e2f565b9050919050565b600060408201905081810360008301526151688185614e52565b90506151776020830184614f01565b9392505050565b600060408201905081810360008301526151988185614ea2565b90506151a76020830184614f01565b9392505050565b60006020820190506151c36000830184614f01565b92915050565b60006080820190506151de6000830187614f01565b6151eb6020830186614f01565b6151f86040830185614f01565b6152056060830184614f01565b95945050505050565b6000615218615229565b90506152248282615468565b919050565b6000604051905090565b600067ffffffffffffffff82111561524e5761524d61556f565b5b615257826155b2565b9050602081019050919050565b600081519050919050565b600082825260208201905092915050565b600082825260208201905092915050565b600081905092915050565b60006152a7826153c0565b91506152b2836153c0565b9250827fffffffffffffffffffffffffffffffffffffffffffffffffffffffffffffffff038211156152e7576152e66154e2565b5b828201905092915050565b60006152fd826153c0565b9150615308836153c0565b9250817fffffffffffffffffffffffffffffffffffffffffffffffffffffffffffffffff0483118215151615615341576153406154e2565b5b828202905092915050565b6000615357826153a0565b9050919050565b60008115159050919050565b6000819050919050565b60007fffffffff0000000000000000000000000000000000000000000000000000000082169050919050565b600073ffffffffffffffffffffffffffffffffffffffff82169050919050565b6000819050919050565b82818337600083830152505050565b60005b838110156153f75780820151818401526020810190506153dc565b83811115615406576000848401525b50505050565b6000615417826153c0565b9150600082141561542b5761542a6154e2565b5b600182039050919050565b6000600282049050600182168061544e57607f821691505b6020821081141561546257615461615511565b5b50919050565b615471826155b2565b810181811067ffffffffffffffff821117156154905761548f61556f565b5b80604052505050565b60006154a4826153c0565b91507fffffffffffffffffffffffffffffffffffffffffffffffffffffffffffffffff8214156154d7576154d66154e2565b5b600182019050919050565b7f4e487b7100000000000000000000000000000000000000000000000000000000600052601160045260246000fd5b7f4e487b7100000000000000000000000000000000000000000000000000000000600052602260045260246000fd5b7f4e487b7100000000000000000000000000000000000000000000000000000000600052603260045260246000fd5b7f4e487b7100000000000000000000000000000000000000000000000000000000600052604160045260246000fd5b600080fd5b600080fd5b600080fd5b600080fd5b6000601f19601f8301169050919050565b7f537472696e67733a20686578206c656e67746820696e73756666696369656e74600082015250565b7f436f756e7465723a2064656372656d656e74206f766572666c6f770000000000600082015250565b7f416363657373436f6e74726f6c3a206163636f756e7420000000000000000000600082015250565b7f206973206d697373696e6720726f6c6520000000000000000000000000000000600082015250565b7f416363657373436f6e74726f6c3a2063616e206f6e6c792072656e6f756e636560008201527f20726f6c657320666f722073656c660000000000000000000000000000000000602082015250565b6156bf8161534c565b81146156ca57600080fd5b50565b6156d68161535e565b81146156e157600080fd5b50565b6156ed8161536a565b81146156f857600080fd5b50565b61570481615374565b811461570f57600080fd5b50565b61571b816153c0565b811461572657600080fd5b5056fea2646970667358221220cd29a52a8772eb7513539917c2f5f22afe4c294c7dddb0dcc3be11fd8c6984fc64736f6c63430008070033",
			"opcodes": "PUSH1 0x80 PUSH1 0x40 MSTORE CALLVALUE DUP1 ISZERO PUSH3 0x11 JUMPI PUSH1 0x0 DUP1 REVERT JUMPDEST POP PUSH3 0x44 PUSH32 0x484F53504954414C5F41444D494E000000000000000000000000000000000000 DUP1 PUSH3 0x103 PUSH1 0x20 SHL PUSH1 0x20 SHR JUMP JUMPDEST PUSH3 0x96 PUSH32 0x444F43544F520000000000000000000000000000000000000000000000000000 PUSH32 0x484F53504954414C5F41444D494E000000000000000000000000000000000000 PUSH3 0x103 PUSH1 0x20 SHL PUSH1 0x20 SHR JUMP JUMPDEST PUSH3 0xE8 PUSH32 0x50415449454E5400000000000000000000000000000000000000000000000000 PUSH32 0x484F53504954414C5F41444D494E000000000000000000000000000000000000 PUSH3 0x103 PUSH1 0x20 SHL PUSH1 0x20 SHR JUMP JUMPDEST PUSH3 0xFD PUSH1 0x0 DUP1 SHL CALLER PUSH3 0x166 PUSH1 0x20 SHL PUSH1 0x20 SHR JUMP JUMPDEST PUSH3 0x2FE JUMP JUMPDEST PUSH1 0x0 PUSH3 0x116 DUP4 PUSH3 0x17C PUSH1 0x20 SHL PUSH1 0x20 SHR JUMP JUMPDEST SWAP1 POP DUP2 PUSH1 0x0 DUP1 DUP6 DUP2 MSTORE PUSH1 0x20 ADD SWAP1 DUP2 MSTORE PUSH1 0x20 ADD PUSH1 0x0 KECCAK256 PUSH1 0x1 ADD DUP2 SWAP1 SSTORE POP DUP2 DUP2 DUP5 PUSH32 0xBD79B86FFE0AB8E8776151514217CD7CACD52C909F66475C3AF44E129F0B00FF PUSH1 0x40 MLOAD PUSH1 0x40 MLOAD DUP1 SWAP2 SUB SWAP1 LOG4 POP POP POP JUMP JUMPDEST PUSH3 0x178 DUP3 DUP3 PUSH3 0x19B PUSH1 0x20 SHL PUSH1 0x20 SHR JUMP JUMPDEST POP POP JUMP JUMPDEST PUSH1 0x0 DUP1 PUSH1 0x0 DUP4 DUP2 MSTORE PUSH1 0x20 ADD SWAP1 DUP2 MSTORE PUSH1 0x20 ADD PUSH1 0x0 KECCAK256 PUSH1 0x1 ADD SLOAD SWAP1 POP SWAP2 SWAP1 POP JUMP JUMPDEST PUSH3 0x1AD DUP3 DUP3 PUSH3 0x28C PUSH1 0x20 SHL PUSH1 0x20 SHR JUMP JUMPDEST PUSH3 0x288 JUMPI PUSH1 0x1 PUSH1 0x0 DUP1 DUP5 DUP2 MSTORE PUSH1 0x20 ADD SWAP1 DUP2 MSTORE PUSH1 0x20 ADD PUSH1 0x0 KECCAK256 PUSH1 0x0 ADD PUSH1 0x0 DUP4 PUSH20 0xFFFFFFFFFFFFFFFFFFFFFFFFFFFFFFFFFFFFFFFF AND PUSH20 0xFFFFFFFFFFFFFFFFFFFFFFFFFFFFFFFFFFFFFFFF AND DUP2 MSTORE PUSH1 0x20 ADD SWAP1 DUP2 MSTORE PUSH1 0x20 ADD PUSH1 0x0 KECCAK256 PUSH1 0x0 PUSH2 0x100 EXP DUP2 SLOAD DUP2 PUSH1 0xFF MUL NOT AND SWAP1 DUP4 ISZERO ISZERO MUL OR SWAP1 SSTORE POP PUSH3 0x22D PUSH3 0x2F6 PUSH1 0x20 SHL PUSH1 0x20 SHR JUMP JUMPDEST PUSH20 0xFFFFFFFFFFFFFFFFFFFFFFFFFFFFFFFFFFFFFFFF AND DUP2 PUSH20 0xFFFFFFFFFFFFFFFFFFFFFFFFFFFFFFFFFFFFFFFF AND DUP4 PUSH32 0x2F8788117E7EFF1D82E926EC794901D17C78024A50270940304540A733656F0D PUSH1 0x40 MLOAD PUSH1 0x40 MLOAD DUP1 SWAP2 SUB SWAP1 LOG4 JUMPDEST POP POP JUMP JUMPDEST PUSH1 0x0 DUP1 PUSH1 0x0 DUP5 DUP2 MSTORE PUSH1 0x20 ADD SWAP1 DUP2 MSTORE PUSH1 0x20 ADD PUSH1 0x0 KECCAK256 PUSH1 0x0 ADD PUSH1 0x0 DUP4 PUSH20 0xFFFFFFFFFFFFFFFFFFFFFFFFFFFFFFFFFFFFFFFF AND PUSH20 0xFFFFFFFFFFFFFFFFFFFFFFFFFFFFFFFFFFFFFFFF AND DUP2 MSTORE PUSH1 0x20 ADD SWAP1 DUP2 MSTORE PUSH1 0x20 ADD PUSH1 0x0 KECCAK256 PUSH1 0x0 SWAP1 SLOAD SWAP1 PUSH2 0x100 EXP SWAP1 DIV PUSH1 0xFF AND SWAP1 POP SWAP3 SWAP2 POP POP JUMP JUMPDEST PUSH1 0x0 CALLER SWAP1 POP SWAP1 JUMP JUMPDEST PUSH2 0x575F DUP1 PUSH3 0x30E PUSH1 0x0 CODECOPY PUSH1 0x0 RETURN INVALID PUSH1 0x80 PUSH1 0x40 MSTORE CALLVALUE DUP1 ISZERO PUSH2 0x10 JUMPI PUSH1 0x0 DUP1 REVERT JUMPDEST POP PUSH1 0x4 CALLDATASIZE LT PUSH2 0x253 JUMPI PUSH1 0x0 CALLDATALOAD PUSH1 0xE0 SHR DUP1 PUSH4 0x974EECB5 GT PUSH2 0x146 JUMPI DUP1 PUSH4 0xCFB51928 GT PUSH2 0xC3 JUMPI DUP1 PUSH4 0xE3C3EE64 GT PUSH2 0x87 JUMPI DUP1 PUSH4 0xE3C3EE64 EQ PUSH2 0x870 JUMPI DUP1 PUSH4 0xE8300B1D EQ PUSH2 0x8A0 JUMPI DUP1 PUSH4 0xEDAE7FB5 EQ PUSH2 0x8D4 JUMPI DUP1 PUSH4 0xEEA9C37B EQ PUSH2 0x8F2 JUMPI DUP1 PUSH4 0xF1628E9E EQ PUSH2 0x923 JUMPI DUP1 PUSH4 0xF98D5D25 EQ PUSH2 0x953 JUMPI PUSH2 0x253 JUMP JUMPDEST DUP1 PUSH4 0xCFB51928 EQ PUSH2 0x792 JUMPI DUP1 PUSH4 0xD547741F EQ PUSH2 0x7C2 JUMPI DUP1 PUSH4 0xD6E7B3F0 EQ PUSH2 0x7DE JUMPI DUP1 PUSH4 0xE21EADCC EQ PUSH2 0x80E JUMPI DUP1 PUSH4 0xE37E9696 EQ PUSH2 0x840 JUMPI PUSH2 0x253 JUMP JUMPDEST DUP1 PUSH4 0xB9A47E90 GT PUSH2 0x10A JUMPI DUP1 PUSH4 0xB9A47E90 EQ PUSH2 0x6A2 JUMPI DUP1 PUSH4 0xC12878C3 EQ PUSH2 0x6D2 JUMPI DUP1 PUSH4 0xC99EAD64 EQ PUSH2 0x702 JUMPI DUP1 PUSH4 0xCDCA8F7C EQ PUSH2 0x732 JUMPI DUP1 PUSH4 0xCE65E5E3 EQ PUSH2 0x762 JUMPI PUSH2 0x253 JUMP JUMPDEST DUP1 PUSH4 0x974EECB5 EQ PUSH2 0x5C3 JUMPI DUP1 PUSH4 0xA217FDDF EQ PUSH2 0x5F3 JUMPI DUP1 PUSH4 0xA4BE9E6A EQ PUSH2 0x611 JUMPI DUP1 PUSH4 0xA84CEAB7 EQ PUSH2 0x642 JUMPI DUP1 PUSH4 0xA9909DB9 EQ PUSH2 0x672 JUMPI PUSH2 0x253 JUMP JUMPDEST DUP1 PUSH4 0x4EDF897F GT PUSH2 0x1D4 JUMPI DUP1 PUSH4 0x73E830B4 GT PUSH2 0x198 JUMPI DUP1 PUSH4 0x73E830B4 EQ PUSH2 0x4E5 JUMPI DUP1 PUSH4 0x7D379853 EQ PUSH2 0x503 JUMPI DUP1 PUSH4 0x8B55BEFC EQ PUSH2 0x533 JUMPI DUP1 PUSH4 0x8EFC2838 EQ PUSH2 0x563 JUMPI DUP1 PUSH4 0x91D14854 EQ PUSH2 0x593 JUMPI PUSH2 0x253 JUMP JUMPDEST DUP1 PUSH4 0x4EDF897F EQ PUSH2 0x404 JUMPI DUP1 PUSH4 0x593D34BB EQ PUSH2 0x434 JUMPI DUP1 PUSH4 0x5BF9C0E3 EQ PUSH2 0x464 JUMPI DUP1 PUSH4 0x5C7231EF EQ PUSH2 0x494 JUMPI DUP1 PUSH4 0x6DACA1EE EQ PUSH2 0x4C4 JUMPI PUSH2 0x253 JUMP JUMPDEST DUP1 PUSH4 0x248A9CA3 GT PUSH2 0x21B JUMPI DUP1 PUSH4 0x248A9CA3 EQ PUSH2 0x339 JUMPI DUP1 PUSH4 0x2E8FF13C EQ PUSH2 0x369 JUMPI DUP1 PUSH4 0x2F2FF15D EQ PUSH2 0x39C JUMPI DUP1 PUSH4 0x36568ABE EQ PUSH2 0x3B8 JUMPI DUP1 PUSH4 0x45118D8E EQ PUSH2 0x3D4 JUMPI PUSH2 0x253 JUMP JUMPDEST DUP1 PUSH4 0x1FFC9A7 EQ PUSH2 0x258 JUMPI DUP1 PUSH4 0xA086B15 EQ PUSH2 0x288 JUMPI DUP1 PUSH4 0xB600345 EQ PUSH2 0x2A6 JUMPI DUP1 PUSH4 0x149E1957 EQ PUSH2 0x2D6 JUMPI DUP1 PUSH4 0x16D8B45B EQ PUSH2 0x306 JUMPI JUMPDEST PUSH1 0x0 DUP1 REVERT JUMPDEST PUSH2 0x272 PUSH1 0x4 DUP1 CALLDATASIZE SUB DUP2 ADD SWAP1 PUSH2 0x26D SWAP2 SWAP1 PUSH2 0x48BC JUMP JUMPDEST PUSH2 0x971 JUMP JUMPDEST PUSH1 0x40 MLOAD PUSH2 0x27F SWAP2 SWAP1 PUSH2 0x4F4A JUMP JUMPDEST PUSH1 0x40 MLOAD DUP1 SWAP2 SUB SWAP1 RETURN JUMPDEST PUSH2 0x290 PUSH2 0x9EB JUMP JUMPDEST PUSH1 0x40 MLOAD PUSH2 0x29D SWAP2 SWAP1 PUSH2 0x51AE JUMP JUMPDEST PUSH1 0x40 MLOAD DUP1 SWAP2 SUB SWAP1 RETURN JUMPDEST PUSH2 0x2C0 PUSH1 0x4 DUP1 CALLDATASIZE SUB DUP2 ADD SWAP1 PUSH2 0x2BB SWAP2 SWAP1 PUSH2 0x49FD JUMP JUMPDEST PUSH2 0x9FC JUMP JUMPDEST PUSH1 0x40 MLOAD PUSH2 0x2CD SWAP2 SWAP1 PUSH2 0x4F4A JUMP JUMPDEST PUSH1 0x40 MLOAD DUP1 SWAP2 SUB SWAP1 RETURN JUMPDEST PUSH2 0x2F0 PUSH1 0x4 DUP1 CALLDATASIZE SUB DUP2 ADD SWAP1 PUSH2 0x2EB SWAP2 SWAP1 PUSH2 0x4932 JUMP JUMPDEST PUSH2 0xCD0 JUMP JUMPDEST PUSH1 0x40 MLOAD PUSH2 0x2FD SWAP2 SWAP1 PUSH2 0x4F4A JUMP JUMPDEST PUSH1 0x40 MLOAD DUP1 SWAP2 SUB SWAP1 RETURN JUMPDEST PUSH2 0x320 PUSH1 0x4 DUP1 CALLDATASIZE SUB DUP2 ADD SWAP1 PUSH2 0x31B SWAP2 SWAP1 PUSH2 0x46F3 JUMP JUMPDEST PUSH2 0x105B JUMP JUMPDEST PUSH1 0x40 MLOAD PUSH2 0x330 SWAP5 SWAP4 SWAP3 SWAP2 SWAP1 PUSH2 0x4FE7 JUMP JUMPDEST PUSH1 0x40 MLOAD DUP1 SWAP2 SUB SWAP1 RETURN JUMPDEST PUSH2 0x353 PUSH1 0x4 DUP1 CALLDATASIZE SUB DUP2 ADD SWAP1 PUSH2 0x34E SWAP2 SWAP1 PUSH2 0x484F JUMP JUMPDEST PUSH2 0x1270 JUMP JUMPDEST PUSH1 0x40 MLOAD PUSH2 0x360 SWAP2 SWAP1 PUSH2 0x4F65 JUMP JUMPDEST PUSH1 0x40 MLOAD DUP1 SWAP2 SUB SWAP1 RETURN JUMPDEST PUSH2 0x383 PUSH1 0x4 DUP1 CALLDATASIZE SUB DUP2 ADD SWAP1 PUSH2 0x37E SWAP2 SWAP1 PUSH2 0x46F3 JUMP JUMPDEST PUSH2 0x128F JUMP JUMPDEST PUSH1 0x40 MLOAD PUSH2 0x393 SWAP5 SWAP4 SWAP3 SWAP2 SWAP1 PUSH2 0x503A JUMP JUMPDEST PUSH1 0x40 MLOAD DUP1 SWAP2 SUB SWAP1 RETURN JUMPDEST PUSH2 0x3B6 PUSH1 0x4 DUP1 CALLDATASIZE SUB DUP2 ADD SWAP1 PUSH2 0x3B1 SWAP2 SWAP1 PUSH2 0x487C JUMP JUMPDEST PUSH2 0x148B JUMP JUMPDEST STOP JUMPDEST PUSH2 0x3D2 PUSH1 0x4 DUP1 CALLDATASIZE SUB DUP2 ADD SWAP1 PUSH2 0x3CD SWAP2 SWAP1 PUSH2 0x487C JUMP JUMPDEST PUSH2 0x14B4 JUMP JUMPDEST STOP JUMPDEST PUSH2 0x3EE PUSH1 0x4 DUP1 CALLDATASIZE SUB DUP2 ADD SWAP1 PUSH2 0x3E9 SWAP2 SWAP1 PUSH2 0x4760 JUMP JUMPDEST PUSH2 0x1537 JUMP JUMPDEST PUSH1 0x40 MLOAD PUSH2 0x3FB SWAP2 SWAP1 PUSH2 0x4F4A JUMP JUMPDEST PUSH1 0x40 MLOAD DUP1 SWAP2 SUB SWAP1 RETURN JUMPDEST PUSH2 0x41E PUSH1 0x4 DUP1 CALLDATASIZE SUB DUP2 ADD SWAP1 PUSH2 0x419 SWAP2 SWAP1 PUSH2 0x4A88 JUMP JUMPDEST PUSH2 0x168E JUMP JUMPDEST PUSH1 0x40 MLOAD PUSH2 0x42B SWAP2 SWAP1 PUSH2 0x4F4A JUMP JUMPDEST PUSH1 0x40 MLOAD DUP1 SWAP2 SUB SWAP1 RETURN JUMPDEST PUSH2 0x44E PUSH1 0x4 DUP1 CALLDATASIZE SUB DUP2 ADD SWAP1 PUSH2 0x449 SWAP2 SWAP1 PUSH2 0x498E JUMP JUMPDEST PUSH2 0x1AD9 JUMP JUMPDEST PUSH1 0x40 MLOAD PUSH2 0x45B SWAP2 SWAP1 PUSH2 0x4F4A JUMP JUMPDEST PUSH1 0x40 MLOAD DUP1 SWAP2 SUB SWAP1 RETURN JUMPDEST PUSH2 0x47E PUSH1 0x4 DUP1 CALLDATASIZE SUB DUP2 ADD SWAP1 PUSH2 0x479 SWAP2 SWAP1 PUSH2 0x4932 JUMP JUMPDEST PUSH2 0x1E65 JUMP JUMPDEST PUSH1 0x40 MLOAD PUSH2 0x48B SWAP2 SWAP1 PUSH2 0x4F4A JUMP JUMPDEST PUSH1 0x40 MLOAD DUP1 SWAP2 SUB SWAP1 RETURN JUMPDEST PUSH2 0x4AE PUSH1 0x4 DUP1 CALLDATASIZE SUB DUP2 ADD SWAP1 PUSH2 0x4A9 SWAP2 SWAP1 PUSH2 0x4760 JUMP JUMPDEST PUSH2 0x1EF8 JUMP JUMPDEST PUSH1 0x40 MLOAD PUSH2 0x4BB SWAP2 SWAP1 PUSH2 0x4F4A JUMP JUMPDEST PUSH1 0x40 MLOAD DUP1 SWAP2 SUB SWAP1 RETURN JUMPDEST PUSH2 0x4CC PUSH2 0x204F JUMP JUMPDEST PUSH1 0x40 MLOAD PUSH2 0x4DC SWAP5 SWAP4 SWAP3 SWAP2 SWAP1 PUSH2 0x51C9 JUMP JUMPDEST PUSH1 0x40 MLOAD DUP1 SWAP2 SUB SWAP1 RETURN JUMPDEST PUSH2 0x4ED PUSH2 0x208B JUMP JUMPDEST PUSH1 0x40 MLOAD PUSH2 0x4FA SWAP2 SWAP1 PUSH2 0x51AE JUMP JUMPDEST PUSH1 0x40 MLOAD DUP1 SWAP2 SUB SWAP1 RETURN JUMPDEST PUSH2 0x51D PUSH1 0x4 DUP1 CALLDATASIZE SUB DUP2 ADD SWAP1 PUSH2 0x518 SWAP2 SWAP1 PUSH2 0x4B27 JUMP JUMPDEST PUSH2 0x209C JUMP JUMPDEST PUSH1 0x40 MLOAD PUSH2 0x52A SWAP2 SWAP1 PUSH2 0x4F4A JUMP JUMPDEST PUSH1 0x40 MLOAD DUP1 SWAP2 SUB SWAP1 RETURN JUMPDEST PUSH2 0x54D PUSH1 0x4 DUP1 CALLDATASIZE SUB DUP2 ADD SWAP1 PUSH2 0x548 SWAP2 SWAP1 PUSH2 0x46F3 JUMP JUMPDEST PUSH2 0x260A JUMP JUMPDEST PUSH1 0x40 MLOAD PUSH2 0x55A SWAP2 SWAP1 PUSH2 0x51AE JUMP JUMPDEST PUSH1 0x40 MLOAD DUP1 SWAP2 SUB SWAP1 RETURN JUMPDEST PUSH2 0x57D PUSH1 0x4 DUP1 CALLDATASIZE SUB DUP2 ADD SWAP1 PUSH2 0x578 SWAP2 SWAP1 PUSH2 0x4BDA JUMP JUMPDEST PUSH2 0x265D JUMP JUMPDEST PUSH1 0x40 MLOAD PUSH2 0x58A SWAP2 SWAP1 PUSH2 0x4F4A JUMP JUMPDEST PUSH1 0x40 MLOAD DUP1 SWAP2 SUB SWAP1 RETURN JUMPDEST PUSH2 0x5AD PUSH1 0x4 DUP1 CALLDATASIZE SUB DUP2 ADD SWAP1 PUSH2 0x5A8 SWAP2 SWAP1 PUSH2 0x487C JUMP JUMPDEST PUSH2 0x273A JUMP JUMPDEST PUSH1 0x40 MLOAD PUSH2 0x5BA SWAP2 SWAP1 PUSH2 0x4F4A JUMP JUMPDEST PUSH1 0x40 MLOAD DUP1 SWAP2 SUB SWAP1 RETURN JUMPDEST PUSH2 0x5DD PUSH1 0x4 DUP1 CALLDATASIZE SUB DUP2 ADD SWAP1 PUSH2 0x5D8 SWAP2 SWAP1 PUSH2 0x47B3 JUMP JUMPDEST PUSH2 0x27A4 JUMP JUMPDEST PUSH1 0x40 MLOAD PUSH2 0x5EA SWAP2 SWAP1 PUSH2 0x4F4A JUMP JUMPDEST PUSH1 0x40 MLOAD DUP1 SWAP2 SUB SWAP1 RETURN JUMPDEST PUSH2 0x5FB PUSH2 0x2807 JUMP JUMPDEST PUSH1 0x40 MLOAD PUSH2 0x608 SWAP2 SWAP1 PUSH2 0x4F65 JUMP JUMPDEST PUSH1 0x40 MLOAD DUP1 SWAP2 SUB SWAP1 RETURN JUMPDEST PUSH2 0x62B PUSH1 0x4 DUP1 CALLDATASIZE SUB DUP2 ADD SWAP1 PUSH2 0x626 SWAP2 SWAP1 PUSH2 0x480F JUMP JUMPDEST PUSH2 0x280E JUMP JUMPDEST PUSH1 0x40 MLOAD PUSH2 0x639 SWAP3 SWAP2 SWAP1 PUSH2 0x517E JUMP JUMPDEST PUSH1 0x40 MLOAD DUP1 SWAP2 SUB SWAP1 RETURN JUMPDEST PUSH2 0x65C PUSH1 0x4 DUP1 CALLDATASIZE SUB DUP2 ADD SWAP1 PUSH2 0x657 SWAP2 SWAP1 PUSH2 0x4760 JUMP JUMPDEST PUSH2 0x2A15 JUMP JUMPDEST PUSH1 0x40 MLOAD PUSH2 0x669 SWAP2 SWAP1 PUSH2 0x4F4A JUMP JUMPDEST PUSH1 0x40 MLOAD DUP1 SWAP2 SUB SWAP1 RETURN JUMPDEST PUSH2 0x68C PUSH1 0x4 DUP1 CALLDATASIZE SUB DUP2 ADD SWAP1 PUSH2 0x687 SWAP2 SWAP1 PUSH2 0x4932 JUMP JUMPDEST PUSH2 0x2B37 JUMP JUMPDEST PUSH1 0x40 MLOAD PUSH2 0x699 SWAP2 SWAP1 PUSH2 0x4F4A JUMP JUMPDEST PUSH1 0x40 MLOAD DUP1 SWAP2 SUB SWAP1 RETURN JUMPDEST PUSH2 0x6BC PUSH1 0x4 DUP1 CALLDATASIZE SUB DUP2 ADD SWAP1 PUSH2 0x6B7 SWAP2 SWAP1 PUSH2 0x4720 JUMP JUMPDEST PUSH2 0x2BCA JUMP JUMPDEST PUSH1 0x40 MLOAD PUSH2 0x6C9 SWAP2 SWAP1 PUSH2 0x4F4A JUMP JUMPDEST PUSH1 0x40 MLOAD DUP1 SWAP2 SUB SWAP1 RETURN JUMPDEST PUSH2 0x6EC PUSH1 0x4 DUP1 CALLDATASIZE SUB DUP2 ADD SWAP1 PUSH2 0x6E7 SWAP2 SWAP1 PUSH2 0x46F3 JUMP JUMPDEST PUSH2 0x2C97 JUMP JUMPDEST PUSH1 0x40 MLOAD PUSH2 0x6F9 SWAP2 SWAP1 PUSH2 0x51AE JUMP JUMPDEST PUSH1 0x40 MLOAD DUP1 SWAP2 SUB SWAP1 RETURN JUMPDEST PUSH2 0x71C PUSH1 0x4 DUP1 CALLDATASIZE SUB DUP2 ADD SWAP1 PUSH2 0x717 SWAP2 SWAP1 PUSH2 0x49FD JUMP JUMPDEST PUSH2 0x2CEA JUMP JUMPDEST PUSH1 0x40 MLOAD PUSH2 0x729 SWAP2 SWAP1 PUSH2 0x4F4A JUMP JUMPDEST PUSH1 0x40 MLOAD DUP1 SWAP2 SUB SWAP1 RETURN JUMPDEST PUSH2 0x74C PUSH1 0x4 DUP1 CALLDATASIZE SUB DUP2 ADD SWAP1 PUSH2 0x747 SWAP2 SWAP1 PUSH2 0x4932 JUMP JUMPDEST PUSH2 0x2FBE JUMP JUMPDEST PUSH1 0x40 MLOAD PUSH2 0x759 SWAP2 SWAP1 PUSH2 0x4F4A JUMP JUMPDEST PUSH1 0x40 MLOAD DUP1 SWAP2 SUB SWAP1 RETURN JUMPDEST PUSH2 0x77C PUSH1 0x4 DUP1 CALLDATASIZE SUB DUP2 ADD SWAP1 PUSH2 0x777 SWAP2 SWAP1 PUSH2 0x4932 JUMP JUMPDEST PUSH2 0x3054 JUMP JUMPDEST PUSH1 0x40 MLOAD PUSH2 0x789 SWAP2 SWAP1 PUSH2 0x4F4A JUMP JUMPDEST PUSH1 0x40 MLOAD DUP1 SWAP2 SUB SWAP1 RETURN JUMPDEST PUSH2 0x7AC PUSH1 0x4 DUP1 CALLDATASIZE SUB DUP2 ADD SWAP1 PUSH2 0x7A7 SWAP2 SWAP1 PUSH2 0x48E9 JUMP JUMPDEST PUSH2 0x30F0 JUMP JUMPDEST PUSH1 0x40 MLOAD PUSH2 0x7B9 SWAP2 SWAP1 PUSH2 0x4F65 JUMP JUMPDEST PUSH1 0x40 MLOAD DUP1 SWAP2 SUB SWAP1 RETURN JUMPDEST PUSH2 0x7DC PUSH1 0x4 DUP1 CALLDATASIZE SUB DUP2 ADD SWAP1 PUSH2 0x7D7 SWAP2 SWAP1 PUSH2 0x487C JUMP JUMPDEST PUSH2 0x311A JUMP JUMPDEST STOP JUMPDEST PUSH2 0x7F8 PUSH1 0x4 DUP1 CALLDATASIZE SUB DUP2 ADD SWAP1 PUSH2 0x7F3 SWAP2 SWAP1 PUSH2 0x46F3 JUMP JUMPDEST PUSH2 0x3143 JUMP JUMPDEST PUSH1 0x40 MLOAD PUSH2 0x805 SWAP2 SWAP1 PUSH2 0x4F80 JUMP JUMPDEST PUSH1 0x40 MLOAD DUP1 SWAP2 SUB SWAP1 RETURN JUMPDEST PUSH2 0x828 PUSH1 0x4 DUP1 CALLDATASIZE SUB DUP2 ADD SWAP1 PUSH2 0x823 SWAP2 SWAP1 PUSH2 0x46F3 JUMP JUMPDEST PUSH2 0x340B JUMP JUMPDEST PUSH1 0x40 MLOAD PUSH2 0x837 SWAP4 SWAP3 SWAP2 SWAP1 PUSH2 0x4FA2 JUMP JUMPDEST PUSH1 0x40 MLOAD DUP1 SWAP2 SUB SWAP1 RETURN JUMPDEST PUSH2 0x85A PUSH1 0x4 DUP1 CALLDATASIZE SUB DUP2 ADD SWAP1 PUSH2 0x855 SWAP2 SWAP1 PUSH2 0x4720 JUMP JUMPDEST PUSH2 0x35ED JUMP JUMPDEST PUSH1 0x40 MLOAD PUSH2 0x867 SWAP2 SWAP1 PUSH2 0x4F4A JUMP JUMPDEST PUSH1 0x40 MLOAD DUP1 SWAP2 SUB SWAP1 RETURN JUMPDEST PUSH2 0x88A PUSH1 0x4 DUP1 CALLDATASIZE SUB DUP2 ADD SWAP1 PUSH2 0x885 SWAP2 SWAP1 PUSH2 0x4C41 JUMP JUMPDEST PUSH2 0x3689 JUMP JUMPDEST PUSH1 0x40 MLOAD PUSH2 0x897 SWAP2 SWAP1 PUSH2 0x4F4A JUMP JUMPDEST PUSH1 0x40 MLOAD DUP1 SWAP2 SUB SWAP1 RETURN JUMPDEST PUSH2 0x8BA PUSH1 0x4 DUP1 CALLDATASIZE SUB DUP2 ADD SWAP1 PUSH2 0x8B5 SWAP2 SWAP1 PUSH2 0x46F3 JUMP JUMPDEST PUSH2 0x3732 JUMP JUMPDEST PUSH1 0x40 MLOAD PUSH2 0x8CB SWAP6 SWAP5 SWAP4 SWAP3 SWAP2 SWAP1 PUSH2 0x508D JUMP JUMPDEST PUSH1 0x40 MLOAD DUP1 SWAP2 SUB SWAP1 RETURN JUMPDEST PUSH2 0x8DC PUSH2 0x3A13 JUMP JUMPDEST PUSH1 0x40 MLOAD PUSH2 0x8E9 SWAP2 SWAP1 PUSH2 0x51AE JUMP JUMPDEST PUSH1 0x40 MLOAD DUP1 SWAP2 SUB SWAP1 RETURN JUMPDEST PUSH2 0x90C PUSH1 0x4 DUP1 CALLDATASIZE SUB DUP2 ADD SWAP1 PUSH2 0x907 SWAP2 SWAP1 PUSH2 0x480F JUMP JUMPDEST PUSH2 0x3A24 JUMP JUMPDEST PUSH1 0x40 MLOAD PUSH2 0x91A SWAP3 SWAP2 SWAP1 PUSH2 0x514E JUMP JUMPDEST PUSH1 0x40 MLOAD DUP1 SWAP2 SUB SWAP1 RETURN JUMPDEST PUSH2 0x93D PUSH1 0x4 DUP1 CALLDATASIZE SUB DUP2 ADD SWAP1 PUSH2 0x938 SWAP2 SWAP1 PUSH2 0x498E JUMP JUMPDEST PUSH2 0x3BFA JUMP JUMPDEST PUSH1 0x40 MLOAD PUSH2 0x94A SWAP2 SWAP1 PUSH2 0x4F4A JUMP JUMPDEST PUSH1 0x40 MLOAD DUP1 SWAP2 SUB SWAP1 RETURN JUMPDEST PUSH2 0x95B PUSH2 0x3F86 JUMP JUMPDEST PUSH1 0x40 MLOAD PUSH2 0x968 SWAP2 SWAP1 PUSH2 0x51AE JUMP JUMPDEST PUSH1 0x40 MLOAD DUP1 SWAP2 SUB SWAP1 RETURN JUMPDEST PUSH1 0x0 PUSH32 0x7965DB0B00000000000000000000000000000000000000000000000000000000 PUSH28 0xFFFFFFFFFFFFFFFFFFFFFFFFFFFFFFFFFFFFFFFFFFFFFFFFFFFFFFFF NOT AND DUP3 PUSH28 0xFFFFFFFFFFFFFFFFFFFFFFFFFFFFFFFFFFFFFFFFFFFFFFFFFFFFFFFF NOT AND EQ DUP1 PUSH2 0x9E4 JUMPI POP PUSH2 0x9E3 DUP3 PUSH2 0x3F97 JUMP JUMPDEST JUMPDEST SWAP1 POP SWAP2 SWAP1 POP JUMP JUMPDEST PUSH1 0x0 PUSH2 0x9F7 PUSH1 0x4 PUSH2 0x4001 JUMP JUMPDEST SWAP1 POP SWAP1 JUMP JUMPDEST PUSH1 0x0 PUSH2 0xA28 PUSH32 0x484F53504954414C5F41444D494E000000000000000000000000000000000000 DUP4 PUSH2 0x273A JUMP JUMPDEST ISZERO PUSH2 0xB61 JUMPI DUP4 PUSH1 0x8 PUSH1 0x0 DUP5 PUSH20 0xFFFFFFFFFFFFFFFFFFFFFFFFFFFFFFFFFFFFFFFF AND PUSH20 0xFFFFFFFFFFFFFFFFFFFFFFFFFFFFFFFFFFFFFFFF AND DUP2 MSTORE PUSH1 0x20 ADD SWAP1 DUP2 MSTORE PUSH1 0x20 ADD PUSH1 0x0 KECCAK256 PUSH1 0x0 ADD SWAP1 DUP1 MLOAD SWAP1 PUSH1 0x20 ADD SWAP1 PUSH2 0xA83 SWAP3 SWAP2 SWAP1 PUSH2 0x4531 JUMP JUMPDEST POP DUP2 PUSH1 0x8 PUSH1 0x0 DUP5 PUSH20 0xFFFFFFFFFFFFFFFFFFFFFFFFFFFFFFFFFFFFFFFF AND PUSH20 0xFFFFFFFFFFFFFFFFFFFFFFFFFFFFFFFFFFFFFFFF AND DUP2 MSTORE PUSH1 0x20 ADD SWAP1 DUP2 MSTORE PUSH1 0x20 ADD PUSH1 0x0 KECCAK256 PUSH1 0x2 ADD PUSH1 0x0 PUSH2 0x100 EXP DUP2 SLOAD DUP2 PUSH20 0xFFFFFFFFFFFFFFFFFFFFFFFFFFFFFFFFFFFFFFFF MUL NOT AND SWAP1 DUP4 PUSH20 0xFFFFFFFFFFFFFFFFFFFFFFFFFFFFFFFFFFFFFFFF AND MUL OR SWAP1 SSTORE POP DUP3 PUSH1 0x8 PUSH1 0x0 DUP5 PUSH20 0xFFFFFFFFFFFFFFFFFFFFFFFFFFFFFFFFFFFFFFFF AND PUSH20 0xFFFFFFFFFFFFFFFFFFFFFFFFFFFFFFFFFFFFFFFF AND DUP2 MSTORE PUSH1 0x20 ADD SWAP1 DUP2 MSTORE PUSH1 0x20 ADD PUSH1 0x0 KECCAK256 PUSH1 0x1 ADD SWAP1 DUP1 MLOAD SWAP1 PUSH1 0x20 ADD SWAP1 PUSH2 0xB5B SWAP3 SWAP2 SWAP1 PUSH2 0x4531 JUMP JUMPDEST POP PUSH2 0xCC5 JUMP JUMPDEST PUSH2 0xB8B PUSH32 0x484F53504954414C5F41444D494E000000000000000000000000000000000000 DUP4 PUSH2 0x400F JUMP JUMPDEST DUP4 PUSH1 0x8 PUSH1 0x0 DUP5 PUSH20 0xFFFFFFFFFFFFFFFFFFFFFFFFFFFFFFFFFFFFFFFF AND PUSH20 0xFFFFFFFFFFFFFFFFFFFFFFFFFFFFFFFFFFFFFFFF AND DUP2 MSTORE PUSH1 0x20 ADD SWAP1 DUP2 MSTORE PUSH1 0x20 ADD PUSH1 0x0 KECCAK256 PUSH1 0x0 ADD SWAP1 DUP1 MLOAD SWAP1 PUSH1 0x20 ADD SWAP1 PUSH2 0xBE1 SWAP3 SWAP2 SWAP1 PUSH2 0x4531 JUMP JUMPDEST POP DUP2 PUSH1 0x8 PUSH1 0x0 DUP5 PUSH20 0xFFFFFFFFFFFFFFFFFFFFFFFFFFFFFFFFFFFFFFFF AND PUSH20 0xFFFFFFFFFFFFFFFFFFFFFFFFFFFFFFFFFFFFFFFF AND DUP2 MSTORE PUSH1 0x20 ADD SWAP1 DUP2 MSTORE PUSH1 0x20 ADD PUSH1 0x0 KECCAK256 PUSH1 0x2 ADD PUSH1 0x0 PUSH2 0x100 EXP DUP2 SLOAD DUP2 PUSH20 0xFFFFFFFFFFFFFFFFFFFFFFFFFFFFFFFFFFFFFFFF MUL NOT AND SWAP1 DUP4 PUSH20 0xFFFFFFFFFFFFFFFFFFFFFFFFFFFFFFFFFFFFFFFF AND MUL OR SWAP1 SSTORE POP DUP3 PUSH1 0x8 PUSH1 0x0 DUP5 PUSH20 0xFFFFFFFFFFFFFFFFFFFFFFFFFFFFFFFFFFFFFFFF AND PUSH20 0xFFFFFFFFFFFFFFFFFFFFFFFFFFFFFFFFFFFFFFFF AND DUP2 MSTORE PUSH1 0x20 ADD SWAP1 DUP2 MSTORE PUSH1 0x20 ADD PUSH1 0x0 KECCAK256 PUSH1 0x1 ADD SWAP1 DUP1 MLOAD SWAP1 PUSH1 0x20 ADD SWAP1 PUSH2 0xCB9 SWAP3 SWAP2 SWAP1 PUSH2 0x4531 JUMP JUMPDEST POP PUSH2 0xCC4 PUSH1 0x3 PUSH2 0x401D JUMP JUMPDEST JUMPDEST PUSH1 0x1 SWAP1 POP SWAP4 SWAP3 POP POP POP JUMP JUMPDEST PUSH1 0x0 PUSH2 0xCFC PUSH32 0x50415449454E5400000000000000000000000000000000000000000000000000 DUP4 PUSH2 0x273A JUMP JUMPDEST DUP1 PUSH2 0xD2D JUMPI POP PUSH2 0xD2C PUSH32 0x56455249464945445F50415449454E5400000000000000000000000000000000 DUP4 PUSH2 0x273A JUMP JUMPDEST JUMPDEST ISZERO PUSH2 0x1051 JUMPI PUSH1 0x5 PUSH1 0x0 DUP4 PUSH20 0xFFFFFFFFFFFFFFFFFFFFFFFFFFFFFFFFFFFFFFFF AND PUSH20 0xFFFFFFFFFFFFFFFFFFFFFFFFFFFFFFFFFFFFFFFF AND DUP2 MSTORE PUSH1 0x20 ADD SWAP1 DUP2 MSTORE PUSH1 0x20 ADD PUSH1 0x0 KECCAK256 PUSH1 0x5 ADD PUSH1 0x0 DUP2 SLOAD DUP1 SWAP3 SWAP2 SWAP1 PUSH2 0xD85 SWAP1 PUSH2 0x5499 JUMP JUMPDEST SWAP2 SWAP1 POP SSTORE POP PUSH1 0x5 PUSH1 0x0 DUP4 PUSH20 0xFFFFFFFFFFFFFFFFFFFFFFFFFFFFFFFFFFFFFFFF AND PUSH20 0xFFFFFFFFFFFFFFFFFFFFFFFFFFFFFFFFFFFFFFFF AND DUP2 MSTORE PUSH1 0x20 ADD SWAP1 DUP2 MSTORE PUSH1 0x20 ADD PUSH1 0x0 KECCAK256 PUSH1 0x5 ADD SLOAD PUSH1 0x5 PUSH1 0x0 DUP5 PUSH20 0xFFFFFFFFFFFFFFFFFFFFFFFFFFFFFFFFFFFFFFFF AND PUSH20 0xFFFFFFFFFFFFFFFFFFFFFFFFFFFFFFFFFFFFFFFF AND DUP2 MSTORE PUSH1 0x20 ADD SWAP1 DUP2 MSTORE PUSH1 0x20 ADD PUSH1 0x0 KECCAK256 PUSH1 0x5 ADD DUP2 SWAP1 SSTORE POP PUSH1 0x5 PUSH1 0x0 DUP4 PUSH20 0xFFFFFFFFFFFFFFFFFFFFFFFFFFFFFFFFFFFFFFFF AND PUSH20 0xFFFFFFFFFFFFFFFFFFFFFFFFFFFFFFFFFFFFFFFF AND DUP2 MSTORE PUSH1 0x20 ADD SWAP1 DUP2 MSTORE PUSH1 0x20 ADD PUSH1 0x0 KECCAK256 PUSH1 0x5 ADD SLOAD PUSH1 0x5 PUSH1 0x0 DUP5 PUSH20 0xFFFFFFFFFFFFFFFFFFFFFFFFFFFFFFFFFFFFFFFF AND PUSH20 0xFFFFFFFFFFFFFFFFFFFFFFFFFFFFFFFFFFFFFFFF AND DUP2 MSTORE PUSH1 0x20 ADD SWAP1 DUP2 MSTORE PUSH1 0x20 ADD PUSH1 0x0 KECCAK256 PUSH1 0x6 ADD PUSH1 0x0 PUSH1 0x5 PUSH1 0x0 DUP7 PUSH20 0xFFFFFFFFFFFFFFFFFFFFFFFFFFFFFFFFFFFFFFFF AND PUSH20 0xFFFFFFFFFFFFFFFFFFFFFFFFFFFFFFFFFFFFFFFF AND DUP2 MSTORE PUSH1 0x20 ADD SWAP1 DUP2 MSTORE PUSH1 0x20 ADD PUSH1 0x0 KECCAK256 PUSH1 0x5 ADD SLOAD DUP2 MSTORE PUSH1 0x20 ADD SWAP1 DUP2 MSTORE PUSH1 0x20 ADD PUSH1 0x0 KECCAK256 PUSH1 0x0 ADD DUP2 SWAP1 SSTORE POP DUP3 PUSH1 0x5 PUSH1 0x0 DUP5 PUSH20 0xFFFFFFFFFFFFFFFFFFFFFFFFFFFFFFFFFFFFFFFF AND PUSH20 0xFFFFFFFFFFFFFFFFFFFFFFFFFFFFFFFFFFFFFFFF AND DUP2 MSTORE PUSH1 0x20 ADD SWAP1 DUP2 MSTORE PUSH1 0x20 ADD PUSH1 0x0 KECCAK256 PUSH1 0x6 ADD PUSH1 0x0 PUSH1 0x5 PUSH1 0x0 DUP7 PUSH20 0xFFFFFFFFFFFFFFFFFFFFFFFFFFFFFFFFFFFFFFFF AND PUSH20 0xFFFFFFFFFFFFFFFFFFFFFFFFFFFFFFFFFFFFFFFF AND DUP2 MSTORE PUSH1 0x20 ADD SWAP1 DUP2 MSTORE PUSH1 0x20 ADD PUSH1 0x0 KECCAK256 PUSH1 0x5 ADD SLOAD DUP2 MSTORE PUSH1 0x20 ADD SWAP1 DUP2 MSTORE PUSH1 0x20 ADD PUSH1 0x0 KECCAK256 PUSH1 0x1 ADD SWAP1 DUP1 MLOAD SWAP1 PUSH1 0x20 ADD SWAP1 PUSH2 0xF9E SWAP3 SWAP2 SWAP1 PUSH2 0x4531 JUMP JUMPDEST POP PUSH1 0x0 PUSH1 0x5 PUSH1 0x0 DUP5 PUSH20 0xFFFFFFFFFFFFFFFFFFFFFFFFFFFFFFFFFFFFFFFF AND PUSH20 0xFFFFFFFFFFFFFFFFFFFFFFFFFFFFFFFFFFFFFFFF AND DUP2 MSTORE PUSH1 0x20 ADD SWAP1 DUP2 MSTORE PUSH1 0x20 ADD PUSH1 0x0 KECCAK256 PUSH1 0x6 ADD PUSH1 0x0 PUSH1 0x5 PUSH1 0x0 DUP7 PUSH20 0xFFFFFFFFFFFFFFFFFFFFFFFFFFFFFFFFFFFFFFFF AND PUSH20 0xFFFFFFFFFFFFFFFFFFFFFFFFFFFFFFFFFFFFFFFF AND DUP2 MSTORE PUSH1 0x20 ADD SWAP1 DUP2 MSTORE PUSH1 0x20 ADD PUSH1 0x0 KECCAK256 PUSH1 0x5 ADD SLOAD DUP2 MSTORE PUSH1 0x20 ADD SWAP1 DUP2 MSTORE PUSH1 0x20 ADD PUSH1 0x0 KECCAK256 PUSH1 0x2 ADD PUSH1 0x0 PUSH2 0x100 EXP DUP2 SLOAD DUP2 PUSH1 0xFF MUL NOT AND SWAP1 DUP4 ISZERO ISZERO MUL OR SWAP1 SSTORE POP JUMPDEST PUSH1 0x1 SWAP1 POP SWAP3 SWAP2 POP POP JUMP JUMPDEST PUSH1 0x60 DUP1 PUSH1 0x0 DUP1 PUSH1 0x5 PUSH1 0x0 DUP7 PUSH20 0xFFFFFFFFFFFFFFFFFFFFFFFFFFFFFFFFFFFFFFFF AND PUSH20 0xFFFFFFFFFFFFFFFFFFFFFFFFFFFFFFFFFFFFFFFF AND DUP2 MSTORE PUSH1 0x20 ADD SWAP1 DUP2 MSTORE PUSH1 0x20 ADD PUSH1 0x0 KECCAK256 PUSH1 0x0 ADD PUSH1 0x5 PUSH1 0x0 DUP8 PUSH20 0xFFFFFFFFFFFFFFFFFFFFFFFFFFFFFFFFFFFFFFFF AND PUSH20 0xFFFFFFFFFFFFFFFFFFFFFFFFFFFFFFFFFFFFFFFF AND DUP2 MSTORE PUSH1 0x20 ADD SWAP1 DUP2 MSTORE PUSH1 0x20 ADD PUSH1 0x0 KECCAK256 PUSH1 0x1 ADD PUSH1 0x5 PUSH1 0x0 DUP9 PUSH20 0xFFFFFFFFFFFFFFFFFFFFFFFFFFFFFFFFFFFFFFFF AND PUSH20 0xFFFFFFFFFFFFFFFFFFFFFFFFFFFFFFFFFFFFFFFF AND DUP2 MSTORE PUSH1 0x20 ADD SWAP1 DUP2 MSTORE PUSH1 0x20 ADD PUSH1 0x0 KECCAK256 PUSH1 0x3 ADD PUSH1 0x0 SWAP1 SLOAD SWAP1 PUSH2 0x100 EXP SWAP1 DIV PUSH20 0xFFFFFFFFFFFFFFFFFFFFFFFFFFFFFFFFFFFFFFFF AND DUP8 DUP4 DUP1 SLOAD PUSH2 0x1155 SWAP1 PUSH2 0x5436 JUMP JUMPDEST DUP1 PUSH1 0x1F ADD PUSH1 0x20 DUP1 SWAP2 DIV MUL PUSH1 0x20 ADD PUSH1 0x40 MLOAD SWAP1 DUP2 ADD PUSH1 0x40 MSTORE DUP1 SWAP3 SWAP2 SWAP1 DUP2 DUP2 MSTORE PUSH1 0x20 ADD DUP3 DUP1 SLOAD PUSH2 0x1181 SWAP1 PUSH2 0x5436 JUMP JUMPDEST DUP1 ISZERO PUSH2 0x11CE JUMPI DUP1 PUSH1 0x1F LT PUSH2 0x11A3 JUMPI PUSH2 0x100 DUP1 DUP4 SLOAD DIV MUL DUP4 MSTORE SWAP2 PUSH1 0x20 ADD SWAP2 PUSH2 0x11CE JUMP JUMPDEST DUP3 ADD SWAP2 SWAP1 PUSH1 0x0 MSTORE PUSH1 0x20 PUSH1 0x0 KECCAK256 SWAP1 JUMPDEST DUP2 SLOAD DUP2 MSTORE SWAP1 PUSH1 0x1 ADD SWAP1 PUSH1 0x20 ADD DUP1 DUP4 GT PUSH2 0x11B1 JUMPI DUP3 SWAP1 SUB PUSH1 0x1F AND DUP3 ADD SWAP2 JUMPDEST POP POP POP POP POP SWAP4 POP DUP3 DUP1 SLOAD PUSH2 0x11E1 SWAP1 PUSH2 0x5436 JUMP JUMPDEST DUP1 PUSH1 0x1F ADD PUSH1 0x20 DUP1 SWAP2 DIV MUL PUSH1 0x20 ADD PUSH1 0x40 MLOAD SWAP1 DUP2 ADD PUSH1 0x40 MSTORE DUP1 SWAP3 SWAP2 SWAP1 DUP2 DUP2 MSTORE PUSH1 0x20 ADD DUP3 DUP1 SLOAD PUSH2 0x120D SWAP1 PUSH2 0x5436 JUMP JUMPDEST DUP1 ISZERO PUSH2 0x125A JUMPI DUP1 PUSH1 0x1F LT PUSH2 0x122F JUMPI PUSH2 0x100 DUP1 DUP4 SLOAD DIV MUL DUP4 MSTORE SWAP2 PUSH1 0x20 ADD SWAP2 PUSH2 0x125A JUMP JUMPDEST DUP3 ADD SWAP2 SWAP1 PUSH1 0x0 MSTORE PUSH1 0x20 PUSH1 0x0 KECCAK256 SWAP1 JUMPDEST DUP2 SLOAD DUP2 MSTORE SWAP1 PUSH1 0x1 ADD SWAP1 PUSH1 0x20 ADD DUP1 DUP4 GT PUSH2 0x123D JUMPI DUP3 SWAP1 SUB PUSH1 0x1F AND DUP3 ADD SWAP2 JUMPDEST POP POP POP POP POP SWAP3 POP SWAP4 POP SWAP4 POP SWAP4 POP SWAP4 POP SWAP2 SWAP4 POP SWAP2 SWAP4 JUMP JUMPDEST PUSH1 0x0 DUP1 PUSH1 0x0 DUP4 DUP2 MSTORE PUSH1 0x20 ADD SWAP1 DUP2 MSTORE PUSH1 0x20 ADD PUSH1 0x0 KECCAK256 PUSH1 0x1 ADD SLOAD SWAP1 POP SWAP2 SWAP1 POP JUMP JUMPDEST PUSH1 0x60 DUP1 PUSH1 0x0 DUP1 PUSH1 0x6 PUSH1 0x0 DUP7 PUSH20 0xFFFFFFFFFFFFFFFFFFFFFFFFFFFFFFFFFFFFFFFF AND PUSH20 0xFFFFFFFFFFFFFFFFFFFFFFFFFFFFFFFFFFFFFFFF AND DUP2 MSTORE PUSH1 0x20 ADD SWAP1 DUP2 MSTORE PUSH1 0x20 ADD PUSH1 0x0 KECCAK256 PUSH1 0x1 ADD PUSH1 0x6 PUSH1 0x0 DUP8 PUSH20 0xFFFFFFFFFFFFFFFFFFFFFFFFFFFFFFFFFFFFFFFF AND PUSH20 0xFFFFFFFFFFFFFFFFFFFFFFFFFFFFFFFFFFFFFFFF AND DUP2 MSTORE PUSH1 0x20 ADD SWAP1 DUP2 MSTORE PUSH1 0x20 ADD PUSH1 0x0 KECCAK256 PUSH1 0x2 ADD DUP7 PUSH2 0x1364 PUSH1 0x6 PUSH1 0x0 DUP11 PUSH20 0xFFFFFFFFFFFFFFFFFFFFFFFFFFFFFFFFFFFFFFFF AND PUSH20 0xFFFFFFFFFFFFFFFFFFFFFFFFFFFFFFFFFFFFFFFF AND DUP2 MSTORE PUSH1 0x20 ADD SWAP1 DUP2 MSTORE PUSH1 0x20 ADD PUSH1 0x0 KECCAK256 PUSH1 0x4 ADD PUSH2 0x4001 JUMP JUMPDEST DUP4 DUP1 SLOAD PUSH2 0x1370 SWAP1 PUSH2 0x5436 JUMP JUMPDEST DUP1 PUSH1 0x1F ADD PUSH1 0x20 DUP1 SWAP2 DIV MUL PUSH1 0x20 ADD PUSH1 0x40 MLOAD SWAP1 DUP2 ADD PUSH1 0x40 MSTORE DUP1 SWAP3 SWAP2 SWAP1 DUP2 DUP2 MSTORE PUSH1 0x20 ADD DUP3 DUP1 SLOAD PUSH2 0x139C SWAP1 PUSH2 0x5436 JUMP JUMPDEST DUP1 ISZERO PUSH2 0x13E9 JUMPI DUP1 PUSH1 0x1F LT PUSH2 0x13BE JUMPI PUSH2 0x100 DUP1 DUP4 SLOAD DIV MUL DUP4 MSTORE SWAP2 PUSH1 0x20 ADD SWAP2 PUSH2 0x13E9 JUMP JUMPDEST DUP3 ADD SWAP2 SWAP1 PUSH1 0x0 MSTORE PUSH1 0x20 PUSH1 0x0 KECCAK256 SWAP1 JUMPDEST DUP2 SLOAD DUP2 MSTORE SWAP1 PUSH1 0x1 ADD SWAP1 PUSH1 0x20 ADD DUP1 DUP4 GT PUSH2 0x13CC JUMPI DUP3 SWAP1 SUB PUSH1 0x1F AND DUP3 ADD SWAP2 JUMPDEST POP POP POP POP POP SWAP4 POP DUP3 DUP1 SLOAD PUSH2 0x13FC SWAP1 PUSH2 0x5436 JUMP JUMPDEST DUP1 PUSH1 0x1F ADD PUSH1 0x20 DUP1 SWAP2 DIV MUL PUSH1 0x20 ADD PUSH1 0x40 MLOAD SWAP1 DUP2 ADD PUSH1 0x40 MSTORE DUP1 SWAP3 SWAP2 SWAP1 DUP2 DUP2 MSTORE PUSH1 0x20 ADD DUP3 DUP1 SLOAD PUSH2 0x1428 SWAP1 PUSH2 0x5436 JUMP JUMPDEST DUP1 ISZERO PUSH2 0x1475 JUMPI DUP1 PUSH1 0x1F LT PUSH2 0x144A JUMPI PUSH2 0x100 DUP1 DUP4 SLOAD DIV MUL DUP4 MSTORE SWAP2 PUSH1 0x20 ADD SWAP2 PUSH2 0x1475 JUMP JUMPDEST DUP3 ADD SWAP2 SWAP1 PUSH1 0x0 MSTORE PUSH1 0x20 PUSH1 0x0 KECCAK256 SWAP1 JUMPDEST DUP2 SLOAD DUP2 MSTORE SWAP1 PUSH1 0x1 ADD SWAP1 PUSH1 0x20 ADD DUP1 DUP4 GT PUSH2 0x1458 JUMPI DUP3 SWAP1 SUB PUSH1 0x1F AND DUP3 ADD SWAP2 JUMPDEST POP POP POP POP POP SWAP3 POP SWAP4 POP SWAP4 POP SWAP4 POP SWAP4 POP SWAP2 SWAP4 POP SWAP2 SWAP4 JUMP JUMPDEST PUSH2 0x1494 DUP3 PUSH2 0x1270 JUMP JUMPDEST PUSH2 0x14A5 DUP2 PUSH2 0x14A0 PUSH2 0x4033 JUMP JUMPDEST PUSH2 0x403B JUMP JUMPDEST PUSH2 0x14AF DUP4 DUP4 PUSH2 0x40D8 JUMP JUMPDEST POP POP POP JUMP JUMPDEST PUSH2 0x14BC PUSH2 0x4033 JUMP JUMPDEST PUSH20 0xFFFFFFFFFFFFFFFFFFFFFFFFFFFFFFFFFFFFFFFF AND DUP2 PUSH20 0xFFFFFFFFFFFFFFFFFFFFFFFFFFFFFFFFFFFFFFFF AND EQ PUSH2 0x1529 JUMPI PUSH1 0x40 MLOAD PUSH32 0x8C379A000000000000000000000000000000000000000000000000000000000 DUP2 MSTORE PUSH1 0x4 ADD PUSH2 0x1520 SWAP1 PUSH2 0x512E JUMP JUMPDEST PUSH1 0x40 MLOAD DUP1 SWAP2 SUB SWAP1 REVERT JUMPDEST PUSH2 0x1533 DUP3 DUP3 PUSH2 0x41B8 JUMP JUMPDEST POP POP JUMP JUMPDEST PUSH1 0x0 PUSH2 0x1563 PUSH32 0x56455249464945445F50415449454E5400000000000000000000000000000000 DUP4 PUSH2 0x273A JUMP JUMPDEST ISZERO PUSH2 0x1686 JUMPI PUSH2 0x15B2 PUSH1 0x8 PUSH1 0x0 DUP7 PUSH20 0xFFFFFFFFFFFFFFFFFFFFFFFFFFFFFFFFFFFFFFFF AND PUSH20 0xFFFFFFFFFFFFFFFFFFFFFFFFFFFFFFFFFFFFFFFF AND DUP2 MSTORE PUSH1 0x20 ADD SWAP1 DUP2 MSTORE PUSH1 0x20 ADD PUSH1 0x0 KECCAK256 PUSH1 0x3 ADD PUSH2 0x4299 JUMP JUMPDEST DUP3 PUSH1 0x5 PUSH1 0x0 DUP5 PUSH20 0xFFFFFFFFFFFFFFFFFFFFFFFFFFFFFFFFFFFFFFFF AND PUSH20 0xFFFFFFFFFFFFFFFFFFFFFFFFFFFFFFFFFFFFFFFF AND DUP2 MSTORE PUSH1 0x20 ADD SWAP1 DUP2 MSTORE PUSH1 0x20 ADD PUSH1 0x0 KECCAK256 PUSH1 0x3 ADD PUSH1 0x0 PUSH2 0x100 EXP DUP2 SLOAD DUP2 PUSH20 0xFFFFFFFFFFFFFFFFFFFFFFFFFFFFFFFFFFFFFFFF MUL NOT AND SWAP1 DUP4 PUSH20 0xFFFFFFFFFFFFFFFFFFFFFFFFFFFFFFFFFFFFFFFF AND MUL OR SWAP1 SSTORE POP PUSH2 0x167D PUSH1 0x8 PUSH1 0x0 DUP6 PUSH20 0xFFFFFFFFFFFFFFFFFFFFFFFFFFFFFFFFFFFFFFFF AND PUSH20 0xFFFFFFFFFFFFFFFFFFFFFFFFFFFFFFFFFFFFFFFF AND DUP2 MSTORE PUSH1 0x20 ADD SWAP1 DUP2 MSTORE PUSH1 0x20 ADD PUSH1 0x0 KECCAK256 PUSH1 0x3 ADD PUSH2 0x401D JUMP JUMPDEST PUSH1 0x1 SWAP1 POP PUSH2 0x1687 JUMP JUMPDEST JUMPDEST SWAP4 SWAP3 POP POP POP JUMP JUMPDEST PUSH1 0x0 PUSH2 0x16BA PUSH32 0x444F43544F520000000000000000000000000000000000000000000000000000 DUP4 PUSH2 0x273A JUMP JUMPDEST ISZERO PUSH2 0x189E JUMPI PUSH2 0x16E9 PUSH32 0x444F43544F520000000000000000000000000000000000000000000000000000 DUP4 PUSH2 0x400F JUMP JUMPDEST DUP5 PUSH1 0x6 PUSH1 0x0 DUP5 PUSH20 0xFFFFFFFFFFFFFFFFFFFFFFFFFFFFFFFFFFFFFFFF AND PUSH20 0xFFFFFFFFFFFFFFFFFFFFFFFFFFFFFFFFFFFFFFFF AND DUP2 MSTORE PUSH1 0x20 ADD SWAP1 DUP2 MSTORE PUSH1 0x20 ADD PUSH1 0x0 KECCAK256 PUSH1 0x1 ADD SWAP1 DUP1 MLOAD SWAP1 PUSH1 0x20 ADD SWAP1 PUSH2 0x173F SWAP3 SWAP2 SWAP1 PUSH2 0x4531 JUMP JUMPDEST POP DUP2 PUSH1 0x6 PUSH1 0x0 DUP5 PUSH20 0xFFFFFFFFFFFFFFFFFFFFFFFFFFFFFFFFFFFFFFFF AND PUSH20 0xFFFFFFFFFFFFFFFFFFFFFFFFFFFFFFFFFFFFFFFF AND DUP2 MSTORE PUSH1 0x20 ADD SWAP1 DUP2 MSTORE PUSH1 0x20 ADD PUSH1 0x0 KECCAK256 PUSH1 0x0 ADD PUSH1 0x0 PUSH2 0x100 EXP DUP2 SLOAD DUP2 PUSH20 0xFFFFFFFFFFFFFFFFFFFFFFFFFFFFFFFFFFFFFFFF MUL NOT AND SWAP1 DUP4 PUSH20 0xFFFFFFFFFFFFFFFFFFFFFFFFFFFFFFFFFFFFFFFF AND MUL OR SWAP1 SSTORE POP DUP3 PUSH1 0x6 PUSH1 0x0 DUP5 PUSH20 0xFFFFFFFFFFFFFFFFFFFFFFFFFFFFFFFFFFFFFFFF AND PUSH20 0xFFFFFFFFFFFFFFFFFFFFFFFFFFFFFFFFFFFFFFFF AND DUP2 MSTORE PUSH1 0x20 ADD SWAP1 DUP2 MSTORE PUSH1 0x20 ADD PUSH1 0x0 KECCAK256 PUSH1 0x3 ADD PUSH1 0x0 PUSH2 0x100 EXP DUP2 SLOAD DUP2 PUSH20 0xFFFFFFFFFFFFFFFFFFFFFFFFFFFFFFFFFFFFFFFF MUL NOT AND SWAP1 DUP4 PUSH20 0xFFFFFFFFFFFFFFFFFFFFFFFFFFFFFFFFFFFFFFFF AND MUL OR SWAP1 SSTORE POP DUP4 PUSH1 0x6 PUSH1 0x0 DUP5 PUSH20 0xFFFFFFFFFFFFFFFFFFFFFFFFFFFFFFFFFFFFFFFF AND PUSH20 0xFFFFFFFFFFFFFFFFFFFFFFFFFFFFFFFFFFFFFFFF AND DUP2 MSTORE PUSH1 0x20 ADD SWAP1 DUP2 MSTORE PUSH1 0x20 ADD PUSH1 0x0 KECCAK256 PUSH1 0x2 ADD SWAP1 DUP1 MLOAD SWAP1 PUSH1 0x20 ADD SWAP1 PUSH2 0x1898 SWAP3 SWAP2 SWAP1 PUSH2 0x4531 JUMP JUMPDEST POP PUSH2 0x1ACD JUMP JUMPDEST PUSH2 0x18C8 PUSH32 0x444F43544F520000000000000000000000000000000000000000000000000000 DUP4 PUSH2 0x400F JUMP JUMPDEST DUP5 PUSH1 0x6 PUSH1 0x0 DUP5 PUSH20 0xFFFFFFFFFFFFFFFFFFFFFFFFFFFFFFFFFFFFFFFF AND PUSH20 0xFFFFFFFFFFFFFFFFFFFFFFFFFFFFFFFFFFFFFFFF AND DUP2 MSTORE PUSH1 0x20 ADD SWAP1 DUP2 MSTORE PUSH1 0x20 ADD PUSH1 0x0 KECCAK256 PUSH1 0x1 ADD SWAP1 DUP1 MLOAD SWAP1 PUSH1 0x20 ADD SWAP1 PUSH2 0x191E SWAP3 SWAP2 SWAP1 PUSH2 0x4531 JUMP JUMPDEST POP DUP2 PUSH1 0x6 PUSH1 0x0 DUP5 PUSH20 0xFFFFFFFFFFFFFFFFFFFFFFFFFFFFFFFFFFFFFFFF AND PUSH20 0xFFFFFFFFFFFFFFFFFFFFFFFFFFFFFFFFFFFFFFFF AND DUP2 MSTORE PUSH1 0x20 ADD SWAP1 DUP2 MSTORE PUSH1 0x20 ADD PUSH1 0x0 KECCAK256 PUSH1 0x0 ADD PUSH1 0x0 PUSH2 0x100 EXP DUP2 SLOAD DUP2 PUSH20 0xFFFFFFFFFFFFFFFFFFFFFFFFFFFFFFFFFFFFFFFF MUL NOT AND SWAP1 DUP4 PUSH20 0xFFFFFFFFFFFFFFFFFFFFFFFFFFFFFFFFFFFFFFFF AND MUL OR SWAP1 SSTORE POP DUP3 PUSH1 0x6 PUSH1 0x0 DUP5 PUSH20 0xFFFFFFFFFFFFFFFFFFFFFFFFFFFFFFFFFFFFFFFF AND PUSH20 0xFFFFFFFFFFFFFFFFFFFFFFFFFFFFFFFFFFFFFFFF AND DUP2 MSTORE PUSH1 0x20 ADD SWAP1 DUP2 MSTORE PUSH1 0x20 ADD PUSH1 0x0 KECCAK256 PUSH1 0x3 ADD PUSH1 0x0 PUSH2 0x100 EXP DUP2 SLOAD DUP2 PUSH20 0xFFFFFFFFFFFFFFFFFFFFFFFFFFFFFFFFFFFFFFFF MUL NOT AND SWAP1 DUP4 PUSH20 0xFFFFFFFFFFFFFFFFFFFFFFFFFFFFFFFFFFFFFFFF AND MUL OR SWAP1 SSTORE POP DUP4 PUSH1 0x6 PUSH1 0x0 DUP5 PUSH20 0xFFFFFFFFFFFFFFFFFFFFFFFFFFFFFFFFFFFFFFFF AND PUSH20 0xFFFFFFFFFFFFFFFFFFFFFFFFFFFFFFFFFFFFFFFF AND DUP2 MSTORE PUSH1 0x20 ADD SWAP1 DUP2 MSTORE PUSH1 0x20 ADD PUSH1 0x0 KECCAK256 PUSH1 0x2 ADD SWAP1 DUP1 MLOAD SWAP1 PUSH1 0x20 ADD SWAP1 PUSH2 0x1A77 SWAP3 SWAP2 SWAP1 PUSH2 0x4531 JUMP JUMPDEST POP PUSH2 0x1AC2 PUSH1 0x8 PUSH1 0x0 DUP6 PUSH20 0xFFFFFFFFFFFFFFFFFFFFFFFFFFFFFFFFFFFFFFFF AND PUSH20 0xFFFFFFFFFFFFFFFFFFFFFFFFFFFFFFFFFFFFFFFF AND DUP2 MSTORE PUSH1 0x20 ADD SWAP1 DUP2 MSTORE PUSH1 0x20 ADD PUSH1 0x0 KECCAK256 PUSH1 0x4 ADD PUSH2 0x401D JUMP JUMPDEST PUSH2 0x1ACC PUSH1 0x2 PUSH2 0x401D JUMP JUMPDEST JUMPDEST PUSH1 0x1 SWAP1 POP SWAP5 SWAP4 POP POP POP POP JUMP JUMPDEST PUSH1 0x0 PUSH2 0x1B05 PUSH32 0x444F43544F520000000000000000000000000000000000000000000000000000 DUP4 PUSH2 0x273A JUMP JUMPDEST DUP1 PUSH2 0x1B36 JUMPI POP PUSH2 0x1B35 PUSH32 0x56455249464945445F444F43544F520000000000000000000000000000000000 DUP4 PUSH2 0x273A JUMP JUMPDEST JUMPDEST ISZERO PUSH2 0x1E5A JUMPI PUSH1 0x5 PUSH1 0x0 DUP5 PUSH20 0xFFFFFFFFFFFFFFFFFFFFFFFFFFFFFFFFFFFFFFFF AND PUSH20 0xFFFFFFFFFFFFFFFFFFFFFFFFFFFFFFFFFFFFFFFF AND DUP2 MSTORE PUSH1 0x20 ADD SWAP1 DUP2 MSTORE PUSH1 0x20 ADD PUSH1 0x0 KECCAK256 PUSH1 0x7 ADD PUSH1 0x0 DUP2 SLOAD DUP1 SWAP3 SWAP2 SWAP1 PUSH2 0x1B8E SWAP1 PUSH2 0x5499 JUMP JUMPDEST SWAP2 SWAP1 POP SSTORE POP PUSH1 0x5 PUSH1 0x0 DUP5 PUSH20 0xFFFFFFFFFFFFFFFFFFFFFFFFFFFFFFFFFFFFFFFF AND PUSH20 0xFFFFFFFFFFFFFFFFFFFFFFFFFFFFFFFFFFFFFFFF AND DUP2 MSTORE PUSH1 0x20 ADD SWAP1 DUP2 MSTORE PUSH1 0x20 ADD PUSH1 0x0 KECCAK256 PUSH1 0x7 ADD SLOAD PUSH1 0x5 PUSH1 0x0 DUP6 PUSH20 0xFFFFFFFFFFFFFFFFFFFFFFFFFFFFFFFFFFFFFFFF AND PUSH20 0xFFFFFFFFFFFFFFFFFFFFFFFFFFFFFFFFFFFFFFFF AND DUP2 MSTORE PUSH1 0x20 ADD SWAP1 DUP2 MSTORE PUSH1 0x20 ADD PUSH1 0x0 KECCAK256 PUSH1 0x7 ADD DUP2 SWAP1 SSTORE POP PUSH1 0x5 PUSH1 0x0 DUP5 PUSH20 0xFFFFFFFFFFFFFFFFFFFFFFFFFFFFFFFFFFFFFFFF AND PUSH20 0xFFFFFFFFFFFFFFFFFFFFFFFFFFFFFFFFFFFFFFFF AND DUP2 MSTORE PUSH1 0x20 ADD SWAP1 DUP2 MSTORE PUSH1 0x20 ADD PUSH1 0x0 KECCAK256 PUSH1 0x7 ADD SLOAD PUSH1 0x5 PUSH1 0x0 DUP6 PUSH20 0xFFFFFFFFFFFFFFFFFFFFFFFFFFFFFFFFFFFFFFFF AND PUSH20 0xFFFFFFFFFFFFFFFFFFFFFFFFFFFFFFFFFFFFFFFF AND DUP2 MSTORE PUSH1 0x20 ADD SWAP1 DUP2 MSTORE PUSH1 0x20 ADD PUSH1 0x0 KECCAK256 PUSH1 0x8 ADD PUSH1 0x0 PUSH1 0x5 PUSH1 0x0 DUP8 PUSH20 0xFFFFFFFFFFFFFFFFFFFFFFFFFFFFFFFFFFFFFFFF AND PUSH20 0xFFFFFFFFFFFFFFFFFFFFFFFFFFFFFFFFFFFFFFFF AND DUP2 MSTORE PUSH1 0x20 ADD SWAP1 DUP2 MSTORE PUSH1 0x20 ADD PUSH1 0x0 KECCAK256 PUSH1 0x7 ADD SLOAD DUP2 MSTORE PUSH1 0x20 ADD SWAP1 DUP2 MSTORE PUSH1 0x20 ADD PUSH1 0x0 KECCAK256 PUSH1 0x0 ADD DUP2 SWAP1 SSTORE POP DUP4 PUSH1 0x5 PUSH1 0x0 DUP6 PUSH20 0xFFFFFFFFFFFFFFFFFFFFFFFFFFFFFFFFFFFFFFFF AND PUSH20 0xFFFFFFFFFFFFFFFFFFFFFFFFFFFFFFFFFFFFFFFF AND DUP2 MSTORE PUSH1 0x20 ADD SWAP1 DUP2 MSTORE PUSH1 0x20 ADD PUSH1 0x0 KECCAK256 PUSH1 0x8 ADD PUSH1 0x0 PUSH1 0x5 PUSH1 0x0 DUP8 PUSH20 0xFFFFFFFFFFFFFFFFFFFFFFFFFFFFFFFFFFFFFFFF AND PUSH20 0xFFFFFFFFFFFFFFFFFFFFFFFFFFFFFFFFFFFFFFFF AND DUP2 MSTORE PUSH1 0x20 ADD SWAP1 DUP2 MSTORE PUSH1 0x20 ADD PUSH1 0x0 KECCAK256 PUSH1 0x7 ADD SLOAD DUP2 MSTORE PUSH1 0x20 ADD SWAP1 DUP2 MSTORE PUSH1 0x20 ADD PUSH1 0x0 KECCAK256 PUSH1 0x1 ADD SWAP1 DUP1 MLOAD SWAP1 PUSH1 0x20 ADD SWAP1 PUSH2 0x1DA7 SWAP3 SWAP2 SWAP1 PUSH2 0x4531 JUMP JUMPDEST POP PUSH1 0x1 PUSH1 0x5 PUSH1 0x0 DUP6 PUSH20 0xFFFFFFFFFFFFFFFFFFFFFFFFFFFFFFFFFFFFFFFF AND PUSH20 0xFFFFFFFFFFFFFFFFFFFFFFFFFFFFFFFFFFFFFFFF AND DUP2 MSTORE PUSH1 0x20 ADD SWAP1 DUP2 MSTORE PUSH1 0x20 ADD PUSH1 0x0 KECCAK256 PUSH1 0x8 ADD PUSH1 0x0 PUSH1 0x5 PUSH1 0x0 DUP8 PUSH20 0xFFFFFFFFFFFFFFFFFFFFFFFFFFFFFFFFFFFFFFFF AND PUSH20 0xFFFFFFFFFFFFFFFFFFFFFFFFFFFFFFFFFFFFFFFF AND DUP2 MSTORE PUSH1 0x20 ADD SWAP1 DUP2 MSTORE PUSH1 0x20 ADD PUSH1 0x0 KECCAK256 PUSH1 0x7 ADD SLOAD DUP2 MSTORE PUSH1 0x20 ADD SWAP1 DUP2 MSTORE PUSH1 0x20 ADD PUSH1 0x0 KECCAK256 PUSH1 0x2 ADD PUSH1 0x0 PUSH2 0x100 EXP DUP2 SLOAD DUP2 PUSH1 0xFF MUL NOT AND SWAP1 DUP4 ISZERO ISZERO MUL OR SWAP1 SSTORE POP JUMPDEST PUSH1 0x1 SWAP1 POP SWAP4 SWAP3 POP POP POP JUMP JUMPDEST PUSH1 0x0 PUSH2 0x1E91 PUSH32 0x484F53504954414C5F41444D494E000000000000000000000000000000000000 DUP4 PUSH2 0x273A JUMP JUMPDEST ISZERO PUSH2 0x1EEE JUMPI DUP3 PUSH1 0x5 PUSH1 0x0 DUP5 PUSH20 0xFFFFFFFFFFFFFFFFFFFFFFFFFFFFFFFFFFFFFFFF AND PUSH20 0xFFFFFFFFFFFFFFFFFFFFFFFFFFFFFFFFFFFFFFFF AND DUP2 MSTORE PUSH1 0x20 ADD SWAP1 DUP2 MSTORE PUSH1 0x20 ADD PUSH1 0x0 KECCAK256 PUSH1 0x1 ADD SWAP1 DUP1 MLOAD SWAP1 PUSH1 0x20 ADD SWAP1 PUSH2 0x1EEC SWAP3 SWAP2 SWAP1 PUSH2 0x4531 JUMP JUMPDEST POP JUMPDEST PUSH1 0x1 SWAP1 POP SWAP3 SWAP2 POP POP JUMP JUMPDEST PUSH1 0x0 PUSH2 0x1F24 PUSH32 0x56455249464945445F50415449454E5400000000000000000000000000000000 DUP4 PUSH2 0x273A JUMP JUMPDEST ISZERO PUSH2 0x2047 JUMPI PUSH2 0x1F73 PUSH1 0x6 PUSH1 0x0 DUP7 PUSH20 0xFFFFFFFFFFFFFFFFFFFFFFFFFFFFFFFFFFFFFFFF AND PUSH20 0xFFFFFFFFFFFFFFFFFFFFFFFFFFFFFFFFFFFFFFFF AND DUP2 MSTORE PUSH1 0x20 ADD SWAP1 DUP2 MSTORE PUSH1 0x20 ADD PUSH1 0x0 KECCAK256 PUSH1 0x4 ADD PUSH2 0x4299 JUMP JUMPDEST DUP3 PUSH1 0x5 PUSH1 0x0 DUP5 PUSH20 0xFFFFFFFFFFFFFFFFFFFFFFFFFFFFFFFFFFFFFFFF AND PUSH20 0xFFFFFFFFFFFFFFFFFFFFFFFFFFFFFFFFFFFFFFFF AND DUP2 MSTORE PUSH1 0x20 ADD SWAP1 DUP2 MSTORE PUSH1 0x20 ADD PUSH1 0x0 KECCAK256 PUSH1 0x2 ADD PUSH1 0x0 PUSH2 0x100 EXP DUP2 SLOAD DUP2 PUSH20 0xFFFFFFFFFFFFFFFFFFFFFFFFFFFFFFFFFFFFFFFF MUL NOT AND SWAP1 DUP4 PUSH20 0xFFFFFFFFFFFFFFFFFFFFFFFFFFFFFFFFFFFFFFFF AND MUL OR SWAP1 SSTORE POP PUSH2 0x203E PUSH1 0x6 PUSH1 0x0 DUP6 PUSH20 0xFFFFFFFFFFFFFFFFFFFFFFFFFFFFFFFFFFFFFFFF AND PUSH20 0xFFFFFFFFFFFFFFFFFFFFFFFFFFFFFFFFFFFFFFFF AND DUP2 MSTORE PUSH1 0x20 ADD SWAP1 DUP2 MSTORE PUSH1 0x20 ADD PUSH1 0x0 KECCAK256 PUSH1 0x4 ADD PUSH2 0x401D JUMP JUMPDEST PUSH1 0x1 SWAP1 POP PUSH2 0x2048 JUMP JUMPDEST JUMPDEST SWAP4 SWAP3 POP POP POP JUMP JUMPDEST PUSH1 0x0 DUP1 PUSH1 0x0 DUP1 PUSH2 0x205F PUSH1 0x1 PUSH2 0x4001 JUMP JUMPDEST PUSH2 0x2069 PUSH1 0x2 PUSH2 0x4001 JUMP JUMPDEST PUSH2 0x2073 PUSH1 0x3 PUSH2 0x4001 JUMP JUMPDEST PUSH2 0x207D PUSH1 0x4 PUSH2 0x4001 JUMP JUMPDEST SWAP4 POP SWAP4 POP SWAP4 POP SWAP4 POP SWAP1 SWAP2 SWAP3 SWAP4 JUMP JUMPDEST PUSH1 0x0 PUSH2 0x2097 PUSH1 0x1 PUSH2 0x4001 JUMP JUMPDEST SWAP1 POP SWAP1 JUMP JUMPDEST PUSH1 0x0 PUSH2 0x20C8 PUSH32 0x50415449454E5400000000000000000000000000000000000000000000000000 DUP4 PUSH2 0x273A JUMP JUMPDEST ISZERO PUSH2 0x2303 JUMPI DUP6 PUSH1 0x5 PUSH1 0x0 DUP5 PUSH20 0xFFFFFFFFFFFFFFFFFFFFFFFFFFFFFFFFFFFFFFFF AND PUSH20 0xFFFFFFFFFFFFFFFFFFFFFFFFFFFFFFFFFFFFFFFF AND DUP2 MSTORE PUSH1 0x20 ADD SWAP1 DUP2 MSTORE PUSH1 0x20 ADD PUSH1 0x0 KECCAK256 PUSH1 0x0 ADD SWAP1 DUP1 MLOAD SWAP1 PUSH1 0x20 ADD SWAP1 PUSH2 0x2123 SWAP3 SWAP2 SWAP1 PUSH2 0x4531 JUMP JUMPDEST POP DUP5 PUSH1 0x5 PUSH1 0x0 DUP5 PUSH20 0xFFFFFFFFFFFFFFFFFFFFFFFFFFFFFFFFFFFFFFFF AND PUSH20 0xFFFFFFFFFFFFFFFFFFFFFFFFFFFFFFFFFFFFFFFF AND DUP2 MSTORE PUSH1 0x20 ADD SWAP1 DUP2 MSTORE PUSH1 0x20 ADD PUSH1 0x0 KECCAK256 PUSH1 0x1 ADD SWAP1 DUP1 MLOAD SWAP1 PUSH1 0x20 ADD SWAP1 PUSH2 0x217A SWAP3 SWAP2 SWAP1 PUSH2 0x4531 JUMP JUMPDEST POP DUP4 PUSH1 0x5 PUSH1 0x0 DUP5 PUSH20 0xFFFFFFFFFFFFFFFFFFFFFFFFFFFFFFFFFFFFFFFF AND PUSH20 0xFFFFFFFFFFFFFFFFFFFFFFFFFFFFFFFFFFFFFFFF AND DUP2 MSTORE PUSH1 0x20 ADD SWAP1 DUP2 MSTORE PUSH1 0x20 ADD PUSH1 0x0 KECCAK256 PUSH1 0x3 ADD PUSH1 0x0 PUSH2 0x100 EXP DUP2 SLOAD DUP2 PUSH20 0xFFFFFFFFFFFFFFFFFFFFFFFFFFFFFFFFFFFFFFFF MUL NOT AND SWAP1 DUP4 PUSH20 0xFFFFFFFFFFFFFFFFFFFFFFFFFFFFFFFFFFFFFFFF AND MUL OR SWAP1 SSTORE POP DUP3 PUSH1 0x5 PUSH1 0x0 DUP5 PUSH20 0xFFFFFFFFFFFFFFFFFFFFFFFFFFFFFFFFFFFFFFFF AND PUSH20 0xFFFFFFFFFFFFFFFFFFFFFFFFFFFFFFFFFFFFFFFF AND DUP2 MSTORE PUSH1 0x20 ADD SWAP1 DUP2 MSTORE PUSH1 0x20 ADD PUSH1 0x0 KECCAK256 PUSH1 0x2 ADD PUSH1 0x0 PUSH2 0x100 EXP DUP2 SLOAD DUP2 PUSH20 0xFFFFFFFFFFFFFFFFFFFFFFFFFFFFFFFFFFFFFFFF MUL NOT AND SWAP1 DUP4 PUSH20 0xFFFFFFFFFFFFFFFFFFFFFFFFFFFFFFFFFFFFFFFF AND MUL OR SWAP1 SSTORE POP DUP2 PUSH1 0x5 PUSH1 0x0 DUP5 PUSH20 0xFFFFFFFFFFFFFFFFFFFFFFFFFFFFFFFFFFFFFFFF AND PUSH20 0xFFFFFFFFFFFFFFFFFFFFFFFFFFFFFFFFFFFFFFFF AND DUP2 MSTORE PUSH1 0x20 ADD SWAP1 DUP2 MSTORE PUSH1 0x20 ADD PUSH1 0x0 KECCAK256 PUSH1 0x4 ADD PUSH1 0x0 PUSH2 0x100 EXP DUP2 SLOAD DUP2 PUSH20 0xFFFFFFFFFFFFFFFFFFFFFFFFFFFFFFFFFFFFFFFF MUL NOT AND SWAP1 DUP4 PUSH20 0xFFFFFFFFFFFFFFFFFFFFFFFFFFFFFFFFFFFFFFFF AND MUL OR SWAP1 SSTORE POP PUSH2 0x25FD JUMP JUMPDEST PUSH2 0x232D PUSH32 0x50415449454E5400000000000000000000000000000000000000000000000000 DUP4 PUSH2 0x400F JUMP JUMPDEST DUP6 PUSH1 0x5 PUSH1 0x0 DUP5 PUSH20 0xFFFFFFFFFFFFFFFFFFFFFFFFFFFFFFFFFFFFFFFF AND PUSH20 0xFFFFFFFFFFFFFFFFFFFFFFFFFFFFFFFFFFFFFFFF AND DUP2 MSTORE PUSH1 0x20 ADD SWAP1 DUP2 MSTORE PUSH1 0x20 ADD PUSH1 0x0 KECCAK256 PUSH1 0x0 ADD SWAP1 DUP1 MLOAD SWAP1 PUSH1 0x20 ADD SWAP1 PUSH2 0x2383 SWAP3 SWAP2 SWAP1 PUSH2 0x4531 JUMP JUMPDEST POP DUP5 PUSH1 0x5 PUSH1 0x0 DUP5 PUSH20 0xFFFFFFFFFFFFFFFFFFFFFFFFFFFFFFFFFFFFFFFF AND PUSH20 0xFFFFFFFFFFFFFFFFFFFFFFFFFFFFFFFFFFFFFFFF AND DUP2 MSTORE PUSH1 0x20 ADD SWAP1 DUP2 MSTORE PUSH1 0x20 ADD PUSH1 0x0 KECCAK256 PUSH1 0x1 ADD SWAP1 DUP1 MLOAD SWAP1 PUSH1 0x20 ADD SWAP1 PUSH2 0x23DA SWAP3 SWAP2 SWAP1 PUSH2 0x4531 JUMP JUMPDEST POP DUP4 PUSH1 0x5 PUSH1 0x0 DUP5 PUSH20 0xFFFFFFFFFFFFFFFFFFFFFFFFFFFFFFFFFFFFFFFF AND PUSH20 0xFFFFFFFFFFFFFFFFFFFFFFFFFFFFFFFFFFFFFFFF AND DUP2 MSTORE PUSH1 0x20 ADD SWAP1 DUP2 MSTORE PUSH1 0x20 ADD PUSH1 0x0 KECCAK256 PUSH1 0x3 ADD PUSH1 0x0 PUSH2 0x100 EXP DUP2 SLOAD DUP2 PUSH20 0xFFFFFFFFFFFFFFFFFFFFFFFFFFFFFFFFFFFFFFFF MUL NOT AND SWAP1 DUP4 PUSH20 0xFFFFFFFFFFFFFFFFFFFFFFFFFFFFFFFFFFFFFFFF AND MUL OR SWAP1 SSTORE POP DUP2 PUSH1 0x5 PUSH1 0x0 DUP5 PUSH20 0xFFFFFFFFFFFFFFFFFFFFFFFFFFFFFFFFFFFFFFFF AND PUSH20 0xFFFFFFFFFFFFFFFFFFFFFFFFFFFFFFFFFFFFFFFF AND DUP2 MSTORE PUSH1 0x20 ADD SWAP1 DUP2 MSTORE PUSH1 0x20 ADD PUSH1 0x0 KECCAK256 PUSH1 0x4 ADD PUSH1 0x0 PUSH2 0x100 EXP DUP2 SLOAD DUP2 PUSH20 0xFFFFFFFFFFFFFFFFFFFFFFFFFFFFFFFFFFFFFFFF MUL NOT AND SWAP1 DUP4 PUSH20 0xFFFFFFFFFFFFFFFFFFFFFFFFFFFFFFFFFFFFFFFF AND MUL OR SWAP1 SSTORE POP DUP3 PUSH1 0x5 PUSH1 0x0 DUP5 PUSH20 0xFFFFFFFFFFFFFFFFFFFFFFFFFFFFFFFFFFFFFFFF AND PUSH20 0xFFFFFFFFFFFFFFFFFFFFFFFFFFFFFFFFFFFFFFFF AND DUP2 MSTORE PUSH1 0x20 ADD SWAP1 DUP2 MSTORE PUSH1 0x20 ADD PUSH1 0x0 KECCAK256 PUSH1 0x2 ADD PUSH1 0x0 PUSH2 0x100 EXP DUP2 SLOAD DUP2 PUSH20 0xFFFFFFFFFFFFFFFFFFFFFFFFFFFFFFFFFFFFFFFF MUL NOT AND SWAP1 DUP4 PUSH20 0xFFFFFFFFFFFFFFFFFFFFFFFFFFFFFFFFFFFFFFFF AND MUL OR SWAP1 SSTORE POP PUSH2 0x25A8 PUSH1 0x6 PUSH1 0x0 DUP6 PUSH20 0xFFFFFFFFFFFFFFFFFFFFFFFFFFFFFFFFFFFFFFFF AND PUSH20 0xFFFFFFFFFFFFFFFFFFFFFFFFFFFFFFFFFFFFFFFF AND DUP2 MSTORE PUSH1 0x20 ADD SWAP1 DUP2 MSTORE PUSH1 0x20 ADD PUSH1 0x0 KECCAK256 PUSH1 0x4 ADD PUSH2 0x401D JUMP JUMPDEST PUSH2 0x25F2 PUSH1 0x8 PUSH1 0x0 DUP7 PUSH20 0xFFFFFFFFFFFFFFFFFFFFFFFFFFFFFFFFFFFFFFFF AND PUSH20 0xFFFFFFFFFFFFFFFFFFFFFFFFFFFFFFFFFFFFFFFF AND DUP2 MSTORE PUSH1 0x20 ADD SWAP1 DUP2 MSTORE PUSH1 0x20 ADD PUSH1 0x0 KECCAK256 PUSH1 0x3 ADD PUSH2 0x401D JUMP JUMPDEST PUSH2 0x25FC PUSH1 0x1 PUSH2 0x401D JUMP JUMPDEST JUMPDEST PUSH1 0x1 SWAP1 POP SWAP6 SWAP5 POP POP POP POP POP JUMP JUMPDEST PUSH1 0x0 PUSH2 0x2656 PUSH1 0x8 PUSH1 0x0 DUP5 PUSH20 0xFFFFFFFFFFFFFFFFFFFFFFFFFFFFFFFFFFFFFFFF AND PUSH20 0xFFFFFFFFFFFFFFFFFFFFFFFFFFFFFFFFFFFFFFFF AND DUP2 MSTORE PUSH1 0x20 ADD SWAP1 DUP2 MSTORE PUSH1 0x20 ADD PUSH1 0x0 KECCAK256 PUSH1 0x3 ADD PUSH2 0x4001 JUMP JUMPDEST SWAP1 POP SWAP2 SWAP1 POP JUMP JUMPDEST PUSH1 0x0 PUSH2 0x2689 PUSH32 0x444F43544F520000000000000000000000000000000000000000000000000000 DUP5 PUSH2 0x273A JUMP JUMPDEST DUP1 PUSH2 0x26BA JUMPI POP PUSH2 0x26B9 PUSH32 0x56455249464945445F444F43544F520000000000000000000000000000000000 DUP5 PUSH2 0x273A JUMP JUMPDEST JUMPDEST ISZERO PUSH2 0x272E JUMPI DUP2 PUSH1 0x5 PUSH1 0x0 DUP7 PUSH20 0xFFFFFFFFFFFFFFFFFFFFFFFFFFFFFFFFFFFFFFFF AND PUSH20 0xFFFFFFFFFFFFFFFFFFFFFFFFFFFFFFFFFFFFFFFF AND DUP2 MSTORE PUSH1 0x20 ADD SWAP1 DUP2 MSTORE PUSH1 0x20 ADD PUSH1 0x0 KECCAK256 PUSH1 0x6 ADD PUSH1 0x0 DUP8 DUP2 MSTORE PUSH1 0x20 ADD SWAP1 DUP2 MSTORE PUSH1 0x20 ADD PUSH1 0x0 KECCAK256 PUSH1 0x2 ADD PUSH1 0x0 PUSH2 0x100 EXP DUP2 SLOAD DUP2 PUSH1 0xFF MUL NOT AND SWAP1 DUP4 ISZERO ISZERO MUL OR SWAP1 SSTORE POP JUMPDEST PUSH1 0x1 SWAP1 POP SWAP5 SWAP4 POP POP POP POP JUMP JUMPDEST PUSH1 0x0 DUP1 PUSH1 0x0 DUP5 DUP2 MSTORE PUSH1 0x20 ADD SWAP1 DUP2 MSTORE PUSH1 0x20 ADD PUSH1 0x0 KECCAK256 PUSH1 0x0 ADD PUSH1 0x0 DUP4 PUSH20 0xFFFFFFFFFFFFFFFFFFFFFFFFFFFFFFFFFFFFFFFF AND PUSH20 0xFFFFFFFFFFFFFFFFFFFFFFFFFFFFFFFFFFFFFFFF AND DUP2 MSTORE PUSH1 0x20 ADD SWAP1 DUP2 MSTORE PUSH1 0x20 ADD PUSH1 0x0 KECCAK256 PUSH1 0x0 SWAP1 SLOAD SWAP1 PUSH2 0x100 EXP SWAP1 DIV PUSH1 0xFF AND SWAP1 POP SWAP3 SWAP2 POP POP JUMP JUMPDEST PUSH1 0x0 DUP2 PUSH1 0x5 PUSH1 0x0 DUP6 PUSH20 0xFFFFFFFFFFFFFFFFFFFFFFFFFFFFFFFFFFFFFFFF AND PUSH20 0xFFFFFFFFFFFFFFFFFFFFFFFFFFFFFFFFFFFFFFFF AND DUP2 MSTORE PUSH1 0x20 ADD SWAP1 DUP2 MSTORE PUSH1 0x20 ADD PUSH1 0x0 KECCAK256 PUSH1 0x1 ADD SWAP1 DUP1 MLOAD SWAP1 PUSH1 0x20 ADD SWAP1 PUSH2 0x27FC SWAP3 SWAP2 SWAP1 PUSH2 0x4531 JUMP JUMPDEST POP PUSH1 0x1 SWAP1 POP SWAP3 SWAP2 POP POP JUMP JUMPDEST PUSH1 0x0 DUP1 SHL DUP2 JUMP JUMPDEST PUSH2 0x2816 PUSH2 0x45B7 JUMP JUMPDEST PUSH1 0x0 PUSH2 0x2842 PUSH32 0x50415449454E5400000000000000000000000000000000000000000000000000 DUP6 PUSH2 0x273A JUMP JUMPDEST DUP1 PUSH2 0x2873 JUMPI POP PUSH2 0x2872 PUSH32 0x56455249464945445F50415449454E5400000000000000000000000000000000 DUP6 PUSH2 0x273A JUMP JUMPDEST JUMPDEST DUP1 PUSH2 0x28A4 JUMPI POP PUSH2 0x28A3 PUSH32 0x504841524D414359000000000000000000000000000000000000000000000000 DUP6 PUSH2 0x273A JUMP JUMPDEST JUMPDEST ISZERO PUSH2 0x2A0D JUMPI PUSH1 0x5 PUSH1 0x0 DUP6 PUSH20 0xFFFFFFFFFFFFFFFFFFFFFFFFFFFFFFFFFFFFFFFF AND PUSH20 0xFFFFFFFFFFFFFFFFFFFFFFFFFFFFFFFFFFFFFFFF AND DUP2 MSTORE PUSH1 0x20 ADD SWAP1 DUP2 MSTORE PUSH1 0x20 ADD PUSH1 0x0 KECCAK256 PUSH1 0x8 ADD PUSH1 0x0 DUP5 DUP2 MSTORE PUSH1 0x20 ADD SWAP1 DUP2 MSTORE PUSH1 0x20 ADD PUSH1 0x0 KECCAK256 PUSH1 0x5 PUSH1 0x0 DUP7 PUSH20 0xFFFFFFFFFFFFFFFFFFFFFFFFFFFFFFFFFFFFFFFF AND PUSH20 0xFFFFFFFFFFFFFFFFFFFFFFFFFFFFFFFFFFFFFFFF AND DUP2 MSTORE PUSH1 0x20 ADD SWAP1 DUP2 MSTORE PUSH1 0x20 ADD PUSH1 0x0 KECCAK256 PUSH1 0x7 ADD SLOAD DUP2 PUSH1 0x40 MLOAD DUP1 PUSH1 0x60 ADD PUSH1 0x40 MSTORE SWAP1 DUP2 PUSH1 0x0 DUP3 ADD SLOAD DUP2 MSTORE PUSH1 0x20 ADD PUSH1 0x1 DUP3 ADD DUP1 SLOAD PUSH2 0x2965 SWAP1 PUSH2 0x5436 JUMP JUMPDEST DUP1 PUSH1 0x1F ADD PUSH1 0x20 DUP1 SWAP2 DIV MUL PUSH1 0x20 ADD PUSH1 0x40 MLOAD SWAP1 DUP2 ADD PUSH1 0x40 MSTORE DUP1 SWAP3 SWAP2 SWAP1 DUP2 DUP2 MSTORE PUSH1 0x20 ADD DUP3 DUP1 SLOAD PUSH2 0x2991 SWAP1 PUSH2 0x5436 JUMP JUMPDEST DUP1 ISZERO PUSH2 0x29DE JUMPI DUP1 PUSH1 0x1F LT PUSH2 0x29B3 JUMPI PUSH2 0x100 DUP1 DUP4 SLOAD DIV MUL DUP4 MSTORE SWAP2 PUSH1 0x20 ADD SWAP2 PUSH2 0x29DE JUMP JUMPDEST DUP3 ADD SWAP2 SWAP1 PUSH1 0x0 MSTORE PUSH1 0x20 PUSH1 0x0 KECCAK256 SWAP1 JUMPDEST DUP2 SLOAD DUP2 MSTORE SWAP1 PUSH1 0x1 ADD SWAP1 PUSH1 0x20 ADD DUP1 DUP4 GT PUSH2 0x29C1 JUMPI DUP3 SWAP1 SUB PUSH1 0x1F AND DUP3 ADD SWAP2 JUMPDEST POP POP POP POP POP DUP2 MSTORE PUSH1 0x20 ADD PUSH1 0x2 DUP3 ADD PUSH1 0x0 SWAP1 SLOAD SWAP1 PUSH2 0x100 EXP SWAP1 DIV PUSH1 0xFF AND ISZERO ISZERO ISZERO ISZERO DUP2 MSTORE POP POP SWAP2 POP SWAP2 POP SWAP2 POP PUSH2 0x2A0E JUMP JUMPDEST JUMPDEST SWAP3 POP SWAP3 SWAP1 POP JUMP JUMPDEST PUSH1 0x0 PUSH2 0x2A61 PUSH1 0x8 PUSH1 0x0 DUP7 PUSH20 0xFFFFFFFFFFFFFFFFFFFFFFFFFFFFFFFFFFFFFFFF AND PUSH20 0xFFFFFFFFFFFFFFFFFFFFFFFFFFFFFFFFFFFFFFFF AND DUP2 MSTORE PUSH1 0x20 ADD SWAP1 DUP2 MSTORE PUSH1 0x20 ADD PUSH1 0x0 KECCAK256 PUSH1 0x4 ADD PUSH2 0x4299 JUMP JUMPDEST DUP3 PUSH1 0x6 PUSH1 0x0 DUP5 PUSH20 0xFFFFFFFFFFFFFFFFFFFFFFFFFFFFFFFFFFFFFFFF AND PUSH20 0xFFFFFFFFFFFFFFFFFFFFFFFFFFFFFFFFFFFFFFFF AND DUP2 MSTORE PUSH1 0x20 ADD SWAP1 DUP2 MSTORE PUSH1 0x20 ADD PUSH1 0x0 KECCAK256 PUSH1 0x3 ADD PUSH1 0x0 PUSH2 0x100 EXP DUP2 SLOAD DUP2 PUSH20 0xFFFFFFFFFFFFFFFFFFFFFFFFFFFFFFFFFFFFFFFF MUL NOT AND SWAP1 DUP4 PUSH20 0xFFFFFFFFFFFFFFFFFFFFFFFFFFFFFFFFFFFFFFFF AND MUL OR SWAP1 SSTORE POP PUSH2 0x2B2C PUSH1 0x8 PUSH1 0x0 DUP6 PUSH20 0xFFFFFFFFFFFFFFFFFFFFFFFFFFFFFFFFFFFFFFFF AND PUSH20 0xFFFFFFFFFFFFFFFFFFFFFFFFFFFFFFFFFFFFFFFF AND DUP2 MSTORE PUSH1 0x20 ADD SWAP1 DUP2 MSTORE PUSH1 0x20 ADD PUSH1 0x0 KECCAK256 PUSH1 0x4 ADD PUSH2 0x401D JUMP JUMPDEST PUSH1 0x1 SWAP1 POP SWAP4 SWAP3 POP POP POP JUMP JUMPDEST PUSH1 0x0 PUSH2 0x2B63 PUSH32 0x56455249464945445F50415449454E5400000000000000000000000000000000 DUP4 PUSH2 0x273A JUMP JUMPDEST ISZERO PUSH2 0x2BC0 JUMPI DUP3 PUSH1 0x5 PUSH1 0x0 DUP5 PUSH20 0xFFFFFFFFFFFFFFFFFFFFFFFFFFFFFFFFFFFFFFFF AND PUSH20 0xFFFFFFFFFFFFFFFFFFFFFFFFFFFFFFFFFFFFFFFF AND DUP2 MSTORE PUSH1 0x20 ADD SWAP1 DUP2 MSTORE PUSH1 0x20 ADD PUSH1 0x0 KECCAK256 PUSH1 0x1 ADD SWAP1 DUP1 MLOAD SWAP1 PUSH1 0x20 ADD SWAP1 PUSH2 0x2BBE SWAP3 SWAP2 SWAP1 PUSH2 0x4531 JUMP JUMPDEST POP JUMPDEST PUSH1 0x1 SWAP1 POP SWAP3 SWAP2 POP POP JUMP JUMPDEST PUSH1 0x0 PUSH2 0x2BF6 PUSH32 0x484F53504954414C5F41444D494E000000000000000000000000000000000000 DUP5 PUSH2 0x273A JUMP JUMPDEST DUP1 PUSH2 0x2C27 JUMPI POP PUSH2 0x2C26 PUSH32 0x56455249464945445F444F43544F520000000000000000000000000000000000 DUP5 PUSH2 0x273A JUMP JUMPDEST JUMPDEST PUSH2 0x2C30 JUMPI PUSH1 0x0 DUP1 REVERT JUMPDEST PUSH2 0x2C5A PUSH32 0x50415449454E5400000000000000000000000000000000000000000000000000 DUP4 PUSH2 0x273A JUMP JUMPDEST PUSH2 0x2C63 JUMPI PUSH1 0x0 DUP1 REVERT JUMPDEST PUSH2 0x2C8D PUSH32 0x56455249464945445F50415449454E5400000000000000000000000000000000 DUP4 PUSH2 0x148B JUMP JUMPDEST PUSH1 0x1 SWAP1 POP SWAP3 SWAP2 POP POP JUMP JUMPDEST PUSH1 0x0 PUSH2 0x2CE3 PUSH1 0x8 PUSH1 0x0 DUP5 PUSH20 0xFFFFFFFFFFFFFFFFFFFFFFFFFFFFFFFFFFFFFFFF AND PUSH20 0xFFFFFFFFFFFFFFFFFFFFFFFFFFFFFFFFFFFFFFFF AND DUP2 MSTORE PUSH1 0x20 ADD SWAP1 DUP2 MSTORE PUSH1 0x20 ADD PUSH1 0x0 KECCAK256 PUSH1 0x4 ADD PUSH2 0x4001 JUMP JUMPDEST SWAP1 POP SWAP2 SWAP1 POP JUMP JUMPDEST PUSH1 0x0 PUSH2 0x2D16 PUSH32 0x504841524D414359000000000000000000000000000000000000000000000000 DUP4 PUSH2 0x273A JUMP JUMPDEST ISZERO PUSH2 0x2E4F JUMPI DUP4 PUSH1 0x7 PUSH1 0x0 DUP5 PUSH20 0xFFFFFFFFFFFFFFFFFFFFFFFFFFFFFFFFFFFFFFFF AND PUSH20 0xFFFFFFFFFFFFFFFFFFFFFFFFFFFFFFFFFFFFFFFF AND DUP2 MSTORE PUSH1 0x20 ADD SWAP1 DUP2 MSTORE PUSH1 0x20 ADD PUSH1 0x0 KECCAK256 PUSH1 0x0 ADD SWAP1 DUP1 MLOAD SWAP1 PUSH1 0x20 ADD SWAP1 PUSH2 0x2D71 SWAP3 SWAP2 SWAP1 PUSH2 0x4531 JUMP JUMPDEST POP DUP2 PUSH1 0x7 PUSH1 0x0 DUP5 PUSH20 0xFFFFFFFFFFFFFFFFFFFFFFFFFFFFFFFFFFFFFFFF AND PUSH20 0xFFFFFFFFFFFFFFFFFFFFFFFFFFFFFFFFFFFFFFFF AND DUP2 MSTORE PUSH1 0x20 ADD SWAP1 DUP2 MSTORE PUSH1 0x20 ADD PUSH1 0x0 KECCAK256 PUSH1 0x2 ADD PUSH1 0x0 PUSH2 0x100 EXP DUP2 SLOAD DUP2 PUSH20 0xFFFFFFFFFFFFFFFFFFFFFFFFFFFFFFFFFFFFFFFF MUL NOT AND SWAP1 DUP4 PUSH20 0xFFFFFFFFFFFFFFFFFFFFFFFFFFFFFFFFFFFFFFFF AND MUL OR SWAP1 SSTORE POP DUP3 PUSH1 0x7 PUSH1 0x0 DUP5 PUSH20 0xFFFFFFFFFFFFFFFFFFFFFFFFFFFFFFFFFFFFFFFF AND PUSH20 0xFFFFFFFFFFFFFFFFFFFFFFFFFFFFFFFFFFFFFFFF AND DUP2 MSTORE PUSH1 0x20 ADD SWAP1 DUP2 MSTORE PUSH1 0x20 ADD PUSH1 0x0 KECCAK256 PUSH1 0x1 ADD SWAP1 DUP1 MLOAD SWAP1 PUSH1 0x20 ADD SWAP1 PUSH2 0x2E49 SWAP3 SWAP2 SWAP1 PUSH2 0x4531 JUMP JUMPDEST POP PUSH2 0x2FB3 JUMP JUMPDEST PUSH2 0x2E79 PUSH32 0x504841524D414359000000000000000000000000000000000000000000000000 DUP4 PUSH2 0x400F JUMP JUMPDEST DUP4 PUSH1 0x7 PUSH1 0x0 DUP5 PUSH20 0xFFFFFFFFFFFFFFFFFFFFFFFFFFFFFFFFFFFFFFFF AND PUSH20 0xFFFFFFFFFFFFFFFFFFFFFFFFFFFFFFFFFFFFFFFF AND DUP2 MSTORE PUSH1 0x20 ADD SWAP1 DUP2 MSTORE PUSH1 0x20 ADD PUSH1 0x0 KECCAK256 PUSH1 0x0 ADD SWAP1 DUP1 MLOAD SWAP1 PUSH1 0x20 ADD SWAP1 PUSH2 0x2ECF SWAP3 SWAP2 SWAP1 PUSH2 0x4531 JUMP JUMPDEST POP DUP2 PUSH1 0x7 PUSH1 0x0 DUP5 PUSH20 0xFFFFFFFFFFFFFFFFFFFFFFFFFFFFFFFFFFFFFFFF AND PUSH20 0xFFFFFFFFFFFFFFFFFFFFFFFFFFFFFFFFFFFFFFFF AND DUP2 MSTORE PUSH1 0x20 ADD SWAP1 DUP2 MSTORE PUSH1 0x20 ADD PUSH1 0x0 KECCAK256 PUSH1 0x2 ADD PUSH1 0x0 PUSH2 0x100 EXP DUP2 SLOAD DUP2 PUSH20 0xFFFFFFFFFFFFFFFFFFFFFFFFFFFFFFFFFFFFFFFF MUL NOT AND SWAP1 DUP4 PUSH20 0xFFFFFFFFFFFFFFFFFFFFFFFFFFFFFFFFFFFFFFFF AND MUL OR SWAP1 SSTORE POP DUP3 PUSH1 0x7 PUSH1 0x0 DUP5 PUSH20 0xFFFFFFFFFFFFFFFFFFFFFFFFFFFFFFFFFFFFFFFF AND PUSH20 0xFFFFFFFFFFFFFFFFFFFFFFFFFFFFFFFFFFFFFFFF AND DUP2 MSTORE PUSH1 0x20 ADD SWAP1 DUP2 MSTORE PUSH1 0x20 ADD PUSH1 0x0 KECCAK256 PUSH1 0x1 ADD SWAP1 DUP1 MLOAD SWAP1 PUSH1 0x20 ADD SWAP1 PUSH2 0x2FA7 SWAP3 SWAP2 SWAP1 PUSH2 0x4531 JUMP JUMPDEST POP PUSH2 0x2FB2 PUSH1 0x4 PUSH2 0x401D JUMP JUMPDEST JUMPDEST PUSH1 0x1 SWAP1 POP SWAP4 SWAP3 POP POP POP JUMP JUMPDEST PUSH1 0x0 PUSH2 0x2FEA PUSH32 0x504841524D414359000000000000000000000000000000000000000000000000 DUP4 PUSH2 0x273A JUMP JUMPDEST PUSH2 0x2FF3 JUMPI PUSH1 0x0 DUP1 REVERT JUMPDEST DUP3 PUSH1 0x7 PUSH1 0x0 DUP5 PUSH20 0xFFFFFFFFFFFFFFFFFFFFFFFFFFFFFFFFFFFFFFFF AND PUSH20 0xFFFFFFFFFFFFFFFFFFFFFFFFFFFFFFFFFFFFFFFF AND DUP2 MSTORE PUSH1 0x20 ADD SWAP1 DUP2 MSTORE PUSH1 0x20 ADD PUSH1 0x0 KECCAK256 PUSH1 0x1 ADD SWAP1 DUP1 MLOAD SWAP1 PUSH1 0x20 ADD SWAP1 PUSH2 0x3049 SWAP3 SWAP2 SWAP1 PUSH2 0x4531 JUMP JUMPDEST POP PUSH1 0x1 SWAP1 POP SWAP3 SWAP2 POP POP JUMP JUMPDEST PUSH1 0x0 PUSH2 0x3080 PUSH32 0x56455249464945445F444F43544F520000000000000000000000000000000000 DUP4 PUSH2 0x273A JUMP JUMPDEST ISZERO PUSH2 0x30E5 JUMPI DUP3 PUSH1 0x6 PUSH1 0x0 DUP5 PUSH20 0xFFFFFFFFFFFFFFFFFFFFFFFFFFFFFFFFFFFFFFFF AND PUSH20 0xFFFFFFFFFFFFFFFFFFFFFFFFFFFFFFFFFFFFFFFF AND DUP2 MSTORE PUSH1 0x20 ADD SWAP1 DUP2 MSTORE PUSH1 0x20 ADD PUSH1 0x0 KECCAK256 PUSH1 0x2 ADD SWAP1 DUP1 MLOAD SWAP1 PUSH1 0x20 ADD SWAP1 PUSH2 0x30DB SWAP3 SWAP2 SWAP1 PUSH2 0x4531 JUMP JUMPDEST POP PUSH1 0x1 SWAP1 POP PUSH2 0x30EA JUMP JUMPDEST PUSH1 0x0 SWAP1 POP JUMPDEST SWAP3 SWAP2 POP POP JUMP JUMPDEST PUSH1 0x0 DUP1 DUP3 SWAP1 POP PUSH1 0x0 DUP2 MLOAD EQ ISZERO PUSH2 0x310C JUMPI PUSH1 0x0 DUP1 SHL SWAP2 POP POP PUSH2 0x3115 JUMP JUMPDEST PUSH1 0x20 DUP4 ADD MLOAD SWAP2 POP POP JUMPDEST SWAP2 SWAP1 POP JUMP JUMPDEST PUSH2 0x3123 DUP3 PUSH2 0x1270 JUMP JUMPDEST PUSH2 0x3134 DUP2 PUSH2 0x312F PUSH2 0x4033 JUMP JUMPDEST PUSH2 0x403B JUMP JUMPDEST PUSH2 0x313E DUP4 DUP4 PUSH2 0x41B8 JUMP JUMPDEST POP POP POP JUMP JUMPDEST PUSH1 0x60 PUSH2 0x316F PUSH32 0x50415449454E5400000000000000000000000000000000000000000000000000 DUP4 PUSH2 0x273A JUMP JUMPDEST ISZERO PUSH2 0x31B1 JUMPI PUSH1 0x40 MLOAD DUP1 PUSH1 0x40 ADD PUSH1 0x40 MSTORE DUP1 PUSH1 0x7 DUP2 MSTORE PUSH1 0x20 ADD PUSH32 0x50415449454E5400000000000000000000000000000000000000000000000000 DUP2 MSTORE POP SWAP1 POP PUSH2 0x3406 JUMP JUMPDEST PUSH2 0x31DB PUSH32 0x56455249464945445F50415449454E5400000000000000000000000000000000 DUP4 PUSH2 0x273A JUMP JUMPDEST ISZERO PUSH2 0x321D JUMPI PUSH1 0x40 MLOAD DUP1 PUSH1 0x40 ADD PUSH1 0x40 MSTORE DUP1 PUSH1 0x10 DUP2 MSTORE PUSH1 0x20 ADD PUSH32 0x56455249464945445F50415449454E5400000000000000000000000000000000 DUP2 MSTORE POP SWAP1 POP PUSH2 0x3406 JUMP JUMPDEST PUSH2 0x3247 PUSH32 0x444F43544F520000000000000000000000000000000000000000000000000000 DUP4 PUSH2 0x273A JUMP JUMPDEST ISZERO PUSH2 0x3289 JUMPI PUSH1 0x40 MLOAD DUP1 PUSH1 0x40 ADD PUSH1 0x40 MSTORE DUP1 PUSH1 0x6 DUP2 MSTORE PUSH1 0x20 ADD PUSH32 0x444F43544F520000000000000000000000000000000000000000000000000000 DUP2 MSTORE POP SWAP1 POP PUSH2 0x3406 JUMP JUMPDEST PUSH2 0x32B3 PUSH32 0x56455249464945445F444F43544F520000000000000000000000000000000000 DUP4 PUSH2 0x273A JUMP JUMPDEST ISZERO PUSH2 0x32F5 JUMPI PUSH1 0x40 MLOAD DUP1 PUSH1 0x40 ADD PUSH1 0x40 MSTORE DUP1 PUSH1 0xF DUP2 MSTORE PUSH1 0x20 ADD PUSH32 0x56455249464945445F444F43544F520000000000000000000000000000000000 DUP2 MSTORE POP SWAP1 POP PUSH2 0x3406 JUMP JUMPDEST PUSH2 0x331F PUSH32 0x484F53504954414C5F41444D494E000000000000000000000000000000000000 DUP4 PUSH2 0x273A JUMP JUMPDEST ISZERO PUSH2 0x3361 JUMPI PUSH1 0x40 MLOAD DUP1 PUSH1 0x40 ADD PUSH1 0x40 MSTORE DUP1 PUSH1 0xE DUP2 MSTORE PUSH1 0x20 ADD PUSH32 0x484F53504954414C5F41444D494E000000000000000000000000000000000000 DUP2 MSTORE POP SWAP1 POP PUSH2 0x3406 JUMP JUMPDEST PUSH2 0x338B PUSH32 0x504841524D414359000000000000000000000000000000000000000000000000 DUP4 PUSH2 0x273A JUMP JUMPDEST ISZERO PUSH2 0x33CD JUMPI PUSH1 0x40 MLOAD DUP1 PUSH1 0x40 ADD PUSH1 0x40 MSTORE DUP1 PUSH1 0x8 DUP2 MSTORE PUSH1 0x20 ADD PUSH32 0x504841524D414359000000000000000000000000000000000000000000000000 DUP2 MSTORE POP SWAP1 POP PUSH2 0x3406 JUMP JUMPDEST PUSH1 0x40 MLOAD DUP1 PUSH1 0x40 ADD PUSH1 0x40 MSTORE DUP1 PUSH1 0xA DUP2 MSTORE PUSH1 0x20 ADD PUSH32 0x554E564552494649454400000000000000000000000000000000000000000000 DUP2 MSTORE POP SWAP1 POP JUMPDEST SWAP2 SWAP1 POP JUMP JUMPDEST PUSH1 0x60 DUP1 PUSH1 0x0 PUSH2 0x343A PUSH32 0x504841524D414359000000000000000000000000000000000000000000000000 DUP6 PUSH2 0x273A JUMP JUMPDEST PUSH2 0x3443 JUMPI PUSH1 0x0 DUP1 REVERT JUMPDEST PUSH1 0x7 PUSH1 0x0 DUP6 PUSH20 0xFFFFFFFFFFFFFFFFFFFFFFFFFFFFFFFFFFFFFFFF AND PUSH20 0xFFFFFFFFFFFFFFFFFFFFFFFFFFFFFFFFFFFFFFFF AND DUP2 MSTORE PUSH1 0x20 ADD SWAP1 DUP2 MSTORE PUSH1 0x20 ADD PUSH1 0x0 KECCAK256 PUSH1 0x0 ADD PUSH1 0x7 PUSH1 0x0 DUP7 PUSH20 0xFFFFFFFFFFFFFFFFFFFFFFFFFFFFFFFFFFFFFFFF AND PUSH20 0xFFFFFFFFFFFFFFFFFFFFFFFFFFFFFFFFFFFFFFFF AND DUP2 MSTORE PUSH1 0x20 ADD SWAP1 DUP2 MSTORE PUSH1 0x20 ADD PUSH1 0x0 KECCAK256 PUSH1 0x1 ADD DUP6 DUP3 DUP1 SLOAD PUSH2 0x34D4 SWAP1 PUSH2 0x5436 JUMP JUMPDEST DUP1 PUSH1 0x1F ADD PUSH1 0x20 DUP1 SWAP2 DIV MUL PUSH1 0x20 ADD PUSH1 0x40 MLOAD SWAP1 DUP2 ADD PUSH1 0x40 MSTORE DUP1 SWAP3 SWAP2 SWAP1 DUP2 DUP2 MSTORE PUSH1 0x20 ADD DUP3 DUP1 SLOAD PUSH2 0x3500 SWAP1 PUSH2 0x5436 JUMP JUMPDEST DUP1 ISZERO PUSH2 0x354D JUMPI DUP1 PUSH1 0x1F LT PUSH2 0x3522 JUMPI PUSH2 0x100 DUP1 DUP4 SLOAD DIV MUL DUP4 MSTORE SWAP2 PUSH1 0x20 ADD SWAP2 PUSH2 0x354D JUMP JUMPDEST DUP3 ADD SWAP2 SWAP1 PUSH1 0x0 MSTORE PUSH1 0x20 PUSH1 0x0 KECCAK256 SWAP1 JUMPDEST DUP2 SLOAD DUP2 MSTORE SWAP1 PUSH1 0x1 ADD SWAP1 PUSH1 0x20 ADD DUP1 DUP4 GT PUSH2 0x3530 JUMPI DUP3 SWAP1 SUB PUSH1 0x1F AND DUP3 ADD SWAP2 JUMPDEST POP POP POP POP POP SWAP3 POP DUP2 DUP1 SLOAD PUSH2 0x3560 SWAP1 PUSH2 0x5436 JUMP JUMPDEST DUP1 PUSH1 0x1F ADD PUSH1 0x20 DUP1 SWAP2 DIV MUL PUSH1 0x20 ADD PUSH1 0x40 MLOAD SWAP1 DUP2 ADD PUSH1 0x40 MSTORE DUP1 SWAP3 SWAP2 SWAP1 DUP2 DUP2 MSTORE PUSH1 0x20 ADD DUP3 DUP1 SLOAD PUSH2 0x358C SWAP1 PUSH2 0x5436 JUMP JUMPDEST DUP1 ISZERO PUSH2 0x35D9 JUMPI DUP1 PUSH1 0x1F LT PUSH2 0x35AE JUMPI PUSH2 0x100 DUP1 DUP4 SLOAD DIV MUL DUP4 MSTORE SWAP2 PUSH1 0x20 ADD SWAP2 PUSH2 0x35D9 JUMP JUMPDEST DUP3 ADD SWAP2 SWAP1 PUSH1 0x0 MSTORE PUSH1 0x20 PUSH1 0x0 KECCAK256 SWAP1 JUMPDEST DUP2 SLOAD DUP2 MSTORE SWAP1 PUSH1 0x1 ADD SWAP1 PUSH1 0x20 ADD DUP1 DUP4 GT PUSH2 0x35BC JUMPI DUP3 SWAP1 SUB PUSH1 0x1F AND DUP3 ADD SWAP2 JUMPDEST POP POP POP POP POP SWAP2 POP SWAP3 POP SWAP3 POP SWAP3 POP SWAP2 SWAP4 SWAP1 SWAP3 POP JUMP JUMPDEST PUSH1 0x0 PUSH2 0x3619 PUSH32 0x484F53504954414C5F41444D494E000000000000000000000000000000000000 DUP5 PUSH2 0x273A JUMP JUMPDEST PUSH2 0x3622 JUMPI PUSH1 0x0 DUP1 REVERT JUMPDEST PUSH2 0x364C PUSH32 0x444F43544F520000000000000000000000000000000000000000000000000000 DUP4 PUSH2 0x273A JUMP JUMPDEST PUSH2 0x3655 JUMPI PUSH1 0x0 DUP1 REVERT JUMPDEST PUSH2 0x367F PUSH32 0x56455249464945445F444F43544F520000000000000000000000000000000000 DUP4 PUSH2 0x148B JUMP JUMPDEST PUSH1 0x1 SWAP1 POP SWAP3 SWAP2 POP POP JUMP JUMPDEST PUSH1 0x0 PUSH2 0x36B5 PUSH32 0x504841524D414359000000000000000000000000000000000000000000000000 DUP5 PUSH2 0x273A JUMP JUMPDEST ISZERO PUSH2 0x3726 JUMPI DUP2 PUSH1 0x5 PUSH1 0x0 DUP7 PUSH20 0xFFFFFFFFFFFFFFFFFFFFFFFFFFFFFFFFFFFFFFFF AND PUSH20 0xFFFFFFFFFFFFFFFFFFFFFFFFFFFFFFFFFFFFFFFF AND DUP2 MSTORE PUSH1 0x20 ADD SWAP1 DUP2 MSTORE PUSH1 0x20 ADD PUSH1 0x0 KECCAK256 PUSH1 0x8 ADD PUSH1 0x0 DUP8 DUP2 MSTORE PUSH1 0x20 ADD SWAP1 DUP2 MSTORE PUSH1 0x20 ADD PUSH1 0x0 KECCAK256 PUSH1 0x1 ADD SWAP1 DUP1 MLOAD SWAP1 PUSH1 0x20 ADD SWAP1 PUSH2 0x3724 SWAP3 SWAP2 SWAP1 PUSH2 0x4531 JUMP JUMPDEST POP JUMPDEST PUSH1 0x1 SWAP1 POP SWAP5 SWAP4 POP POP POP POP JUMP JUMPDEST PUSH1 0x60 DUP1 PUSH1 0x0 DUP1 PUSH1 0x0 PUSH2 0x3764 PUSH32 0x484F53504954414C5F41444D494E000000000000000000000000000000000000 DUP8 PUSH2 0x273A JUMP JUMPDEST PUSH2 0x376D JUMPI PUSH1 0x0 DUP1 REVERT JUMPDEST PUSH1 0x8 PUSH1 0x0 DUP8 PUSH20 0xFFFFFFFFFFFFFFFFFFFFFFFFFFFFFFFFFFFFFFFF AND PUSH20 0xFFFFFFFFFFFFFFFFFFFFFFFFFFFFFFFFFFFFFFFF AND DUP2 MSTORE PUSH1 0x20 ADD SWAP1 DUP2 MSTORE PUSH1 0x20 ADD PUSH1 0x0 KECCAK256 PUSH1 0x0 ADD PUSH1 0x8 PUSH1 0x0 DUP9 PUSH20 0xFFFFFFFFFFFFFFFFFFFFFFFFFFFFFFFFFFFFFFFF AND PUSH20 0xFFFFFFFFFFFFFFFFFFFFFFFFFFFFFFFFFFFFFFFF AND DUP2 MSTORE PUSH1 0x20 ADD SWAP1 DUP2 MSTORE PUSH1 0x20 ADD PUSH1 0x0 KECCAK256 PUSH1 0x1 ADD PUSH1 0x8 PUSH1 0x0 DUP10 PUSH20 0xFFFFFFFFFFFFFFFFFFFFFFFFFFFFFFFFFFFFFFFF AND PUSH20 0xFFFFFFFFFFFFFFFFFFFFFFFFFFFFFFFFFFFFFFFF AND DUP2 MSTORE PUSH1 0x20 ADD SWAP1 DUP2 MSTORE PUSH1 0x20 ADD PUSH1 0x0 KECCAK256 PUSH1 0x2 ADD PUSH1 0x0 SWAP1 SLOAD SWAP1 PUSH2 0x100 EXP SWAP1 DIV PUSH20 0xFFFFFFFFFFFFFFFFFFFFFFFFFFFFFFFFFFFFFFFF AND PUSH2 0x389E PUSH1 0x8 PUSH1 0x0 DUP12 PUSH20 0xFFFFFFFFFFFFFFFFFFFFFFFFFFFFFFFFFFFFFFFF AND PUSH20 0xFFFFFFFFFFFFFFFFFFFFFFFFFFFFFFFFFFFFFFFF AND DUP2 MSTORE PUSH1 0x20 ADD SWAP1 DUP2 MSTORE PUSH1 0x20 ADD PUSH1 0x0 KECCAK256 PUSH1 0x4 ADD PUSH2 0x4001 JUMP JUMPDEST PUSH2 0x38E8 PUSH1 0x8 PUSH1 0x0 DUP13 PUSH20 0xFFFFFFFFFFFFFFFFFFFFFFFFFFFFFFFFFFFFFFFF AND PUSH20 0xFFFFFFFFFFFFFFFFFFFFFFFFFFFFFFFFFFFFFFFF AND DUP2 MSTORE PUSH1 0x20 ADD SWAP1 DUP2 MSTORE PUSH1 0x20 ADD PUSH1 0x0 KECCAK256 PUSH1 0x3 ADD PUSH2 0x4001 JUMP JUMPDEST DUP5 DUP1 SLOAD PUSH2 0x38F4 SWAP1 PUSH2 0x5436 JUMP JUMPDEST DUP1 PUSH1 0x1F ADD PUSH1 0x20 DUP1 SWAP2 DIV MUL PUSH1 0x20 ADD PUSH1 0x40 MLOAD SWAP1 DUP2 ADD PUSH1 0x40 MSTORE DUP1 SWAP3 SWAP2 SWAP1 DUP2 DUP2 MSTORE PUSH1 0x20 ADD DUP3 DUP1 SLOAD PUSH2 0x3920 SWAP1 PUSH2 0x5436 JUMP JUMPDEST DUP1 ISZERO PUSH2 0x396D JUMPI DUP1 PUSH1 0x1F LT PUSH2 0x3942 JUMPI PUSH2 0x100 DUP1 DUP4 SLOAD DIV MUL DUP4 MSTORE SWAP2 PUSH1 0x20 ADD SWAP2 PUSH2 0x396D JUMP JUMPDEST DUP3 ADD SWAP2 SWAP1 PUSH1 0x0 MSTORE PUSH1 0x20 PUSH1 0x0 KECCAK256 SWAP1 JUMPDEST DUP2 SLOAD DUP2 MSTORE SWAP1 PUSH1 0x1 ADD SWAP1 PUSH1 0x20 ADD DUP1 DUP4 GT PUSH2 0x3950 JUMPI DUP3 SWAP1 SUB PUSH1 0x1F AND DUP3 ADD SWAP2 JUMPDEST POP POP POP POP POP SWAP5 POP DUP4 DUP1 SLOAD PUSH2 0x3980 SWAP1 PUSH2 0x5436 JUMP JUMPDEST DUP1 PUSH1 0x1F ADD PUSH1 0x20 DUP1 SWAP2 DIV MUL PUSH1 0x20 ADD PUSH1 0x40 MLOAD SWAP1 DUP2 ADD PUSH1 0x40 MSTORE DUP1 SWAP3 SWAP2 SWAP1 DUP2 DUP2 MSTORE PUSH1 0x20 ADD DUP3 DUP1 SLOAD PUSH2 0x39AC SWAP1 PUSH2 0x5436 JUMP JUMPDEST DUP1 ISZERO PUSH2 0x39F9 JUMPI DUP1 PUSH1 0x1F LT PUSH2 0x39CE JUMPI PUSH2 0x100 DUP1 DUP4 SLOAD DIV MUL DUP4 MSTORE SWAP2 PUSH1 0x20 ADD SWAP2 PUSH2 0x39F9 JUMP JUMPDEST DUP3 ADD SWAP2 SWAP1 PUSH1 0x0 MSTORE PUSH1 0x20 PUSH1 0x0 KECCAK256 SWAP1 JUMPDEST DUP2 SLOAD DUP2 MSTORE SWAP1 PUSH1 0x1 ADD SWAP1 PUSH1 0x20 ADD DUP1 DUP4 GT PUSH2 0x39DC JUMPI DUP3 SWAP1 SUB PUSH1 0x1F AND DUP3 ADD SWAP2 JUMPDEST POP POP POP POP POP SWAP4 POP SWAP5 POP SWAP5 POP SWAP5 POP SWAP5 POP SWAP5 POP SWAP2 SWAP4 SWAP6 SWAP1 SWAP3 SWAP5 POP JUMP JUMPDEST PUSH1 0x0 PUSH2 0x3A1F PUSH1 0x2 PUSH2 0x4001 JUMP JUMPDEST SWAP1 POP SWAP1 JUMP JUMPDEST PUSH2 0x3A2C PUSH2 0x45DA JUMP JUMPDEST PUSH1 0x0 PUSH2 0x3A58 PUSH32 0x50415449454E5400000000000000000000000000000000000000000000000000 DUP6 PUSH2 0x273A JUMP JUMPDEST DUP1 PUSH2 0x3A89 JUMPI POP PUSH2 0x3A88 PUSH32 0x56455249464945445F50415449454E5400000000000000000000000000000000 DUP6 PUSH2 0x273A JUMP JUMPDEST JUMPDEST ISZERO PUSH2 0x3BF2 JUMPI PUSH1 0x5 PUSH1 0x0 DUP6 PUSH20 0xFFFFFFFFFFFFFFFFFFFFFFFFFFFFFFFFFFFFFFFF AND PUSH20 0xFFFFFFFFFFFFFFFFFFFFFFFFFFFFFFFFFFFFFFFF AND DUP2 MSTORE PUSH1 0x20 ADD SWAP1 DUP2 MSTORE PUSH1 0x20 ADD PUSH1 0x0 KECCAK256 PUSH1 0x6 ADD PUSH1 0x0 DUP5 DUP2 MSTORE PUSH1 0x20 ADD SWAP1 DUP2 MSTORE PUSH1 0x20 ADD PUSH1 0x0 KECCAK256 PUSH1 0x5 PUSH1 0x0 DUP7 PUSH20 0xFFFFFFFFFFFFFFFFFFFFFFFFFFFFFFFFFFFFFFFF AND PUSH20 0xFFFFFFFFFFFFFFFFFFFFFFFFFFFFFFFFFFFFFFFF AND DUP2 MSTORE PUSH1 0x20 ADD SWAP1 DUP2 MSTORE PUSH1 0x20 ADD PUSH1 0x0 KECCAK256 PUSH1 0x5 ADD SLOAD DUP2 PUSH1 0x40 MLOAD DUP1 PUSH1 0x60 ADD PUSH1 0x40 MSTORE SWAP1 DUP2 PUSH1 0x0 DUP3 ADD SLOAD DUP2 MSTORE PUSH1 0x20 ADD PUSH1 0x1 DUP3 ADD DUP1 SLOAD PUSH2 0x3B4A SWAP1 PUSH2 0x5436 JUMP JUMPDEST DUP1 PUSH1 0x1F ADD PUSH1 0x20 DUP1 SWAP2 DIV MUL PUSH1 0x20 ADD PUSH1 0x40 MLOAD SWAP1 DUP2 ADD PUSH1 0x40 MSTORE DUP1 SWAP3 SWAP2 SWAP1 DUP2 DUP2 MSTORE PUSH1 0x20 ADD DUP3 DUP1 SLOAD PUSH2 0x3B76 SWAP1 PUSH2 0x5436 JUMP JUMPDEST DUP1 ISZERO PUSH2 0x3BC3 JUMPI DUP1 PUSH1 0x1F LT PUSH2 0x3B98 JUMPI PUSH2 0x100 DUP1 DUP4 SLOAD DIV MUL DUP4 MSTORE SWAP2 PUSH1 0x20 ADD SWAP2 PUSH2 0x3BC3 JUMP JUMPDEST DUP3 ADD SWAP2 SWAP1 PUSH1 0x0 MSTORE PUSH1 0x20 PUSH1 0x0 KECCAK256 SWAP1 JUMPDEST DUP2 SLOAD DUP2 MSTORE SWAP1 PUSH1 0x1 ADD SWAP1 PUSH1 0x20 ADD DUP1 DUP4 GT PUSH2 0x3BA6 JUMPI DUP3 SWAP1 SUB PUSH1 0x1F AND DUP3 ADD SWAP2 JUMPDEST POP POP POP POP POP DUP2 MSTORE PUSH1 0x20 ADD PUSH1 0x2 DUP3 ADD PUSH1 0x0 SWAP1 SLOAD SWAP1 PUSH2 0x100 EXP SWAP1 DIV PUSH1 0xFF AND ISZERO ISZERO ISZERO ISZERO DUP2 MSTORE POP POP SWAP2 POP SWAP2 POP SWAP2 POP PUSH2 0x3BF3 JUMP JUMPDEST JUMPDEST SWAP3 POP SWAP3 SWAP1 POP JUMP JUMPDEST PUSH1 0x0 PUSH2 0x3C26 PUSH32 0x444F43544F520000000000000000000000000000000000000000000000000000 DUP4 PUSH2 0x273A JUMP JUMPDEST DUP1 PUSH2 0x3C57 JUMPI POP PUSH2 0x3C56 PUSH32 0x56455249464945445F444F43544F520000000000000000000000000000000000 DUP4 PUSH2 0x273A JUMP JUMPDEST JUMPDEST ISZERO PUSH2 0x3F7B JUMPI PUSH1 0x5 PUSH1 0x0 DUP5 PUSH20 0xFFFFFFFFFFFFFFFFFFFFFFFFFFFFFFFFFFFFFFFF AND PUSH20 0xFFFFFFFFFFFFFFFFFFFFFFFFFFFFFFFFFFFFFFFF AND DUP2 MSTORE PUSH1 0x20 ADD SWAP1 DUP2 MSTORE PUSH1 0x20 ADD PUSH1 0x0 KECCAK256 PUSH1 0x5 ADD PUSH1 0x0 DUP2 SLOAD DUP1 SWAP3 SWAP2 SWAP1 PUSH2 0x3CAF SWAP1 PUSH2 0x5499 JUMP JUMPDEST SWAP2 SWAP1 POP SSTORE POP PUSH1 0x5 PUSH1 0x0 DUP5 PUSH20 0xFFFFFFFFFFFFFFFFFFFFFFFFFFFFFFFFFFFFFFFF AND PUSH20 0xFFFFFFFFFFFFFFFFFFFFFFFFFFFFFFFFFFFFFFFF AND DUP2 MSTORE PUSH1 0x20 ADD SWAP1 DUP2 MSTORE PUSH1 0x20 ADD PUSH1 0x0 KECCAK256 PUSH1 0x5 ADD SLOAD PUSH1 0x5 PUSH1 0x0 DUP6 PUSH20 0xFFFFFFFFFFFFFFFFFFFFFFFFFFFFFFFFFFFFFFFF AND PUSH20 0xFFFFFFFFFFFFFFFFFFFFFFFFFFFFFFFFFFFFFFFF AND DUP2 MSTORE PUSH1 0x20 ADD SWAP1 DUP2 MSTORE PUSH1 0x20 ADD PUSH1 0x0 KECCAK256 PUSH1 0x5 ADD DUP2 SWAP1 SSTORE POP PUSH1 0x5 PUSH1 0x0 DUP5 PUSH20 0xFFFFFFFFFFFFFFFFFFFFFFFFFFFFFFFFFFFFFFFF AND PUSH20 0xFFFFFFFFFFFFFFFFFFFFFFFFFFFFFFFFFFFFFFFF AND DUP2 MSTORE PUSH1 0x20 ADD SWAP1 DUP2 MSTORE PUSH1 0x20 ADD PUSH1 0x0 KECCAK256 PUSH1 0x5 ADD SLOAD PUSH1 0x5 PUSH1 0x0 DUP6 PUSH20 0xFFFFFFFFFFFFFFFFFFFFFFFFFFFFFFFFFFFFFFFF AND PUSH20 0xFFFFFFFFFFFFFFFFFFFFFFFFFFFFFFFFFFFFFFFF AND DUP2 MSTORE PUSH1 0x20 ADD SWAP1 DUP2 MSTORE PUSH1 0x20 ADD PUSH1 0x0 KECCAK256 PUSH1 0x6 ADD PUSH1 0x0 PUSH1 0x5 PUSH1 0x0 DUP8 PUSH20 0xFFFFFFFFFFFFFFFFFFFFFFFFFFFFFFFFFFFFFFFF AND PUSH20 0xFFFFFFFFFFFFFFFFFFFFFFFFFFFFFFFFFFFFFFFF AND DUP2 MSTORE PUSH1 0x20 ADD SWAP1 DUP2 MSTORE PUSH1 0x20 ADD PUSH1 0x0 KECCAK256 PUSH1 0x5 ADD SLOAD DUP2 MSTORE PUSH1 0x20 ADD SWAP1 DUP2 MSTORE PUSH1 0x20 ADD PUSH1 0x0 KECCAK256 PUSH1 0x0 ADD DUP2 SWAP1 SSTORE POP DUP4 PUSH1 0x5 PUSH1 0x0 DUP6 PUSH20 0xFFFFFFFFFFFFFFFFFFFFFFFFFFFFFFFFFFFFFFFF AND PUSH20 0xFFFFFFFFFFFFFFFFFFFFFFFFFFFFFFFFFFFFFFFF AND DUP2 MSTORE PUSH1 0x20 ADD SWAP1 DUP2 MSTORE PUSH1 0x20 ADD PUSH1 0x0 KECCAK256 PUSH1 0x6 ADD PUSH1 0x0 PUSH1 0x5 PUSH1 0x0 DUP8 PUSH20 0xFFFFFFFFFFFFFFFFFFFFFFFFFFFFFFFFFFFFFFFF AND PUSH20 0xFFFFFFFFFFFFFFFFFFFFFFFFFFFFFFFFFFFFFFFF AND DUP2 MSTORE PUSH1 0x20 ADD SWAP1 DUP2 MSTORE PUSH1 0x20 ADD PUSH1 0x0 KECCAK256 PUSH1 0x5 ADD SLOAD DUP2 MSTORE PUSH1 0x20 ADD SWAP1 DUP2 MSTORE PUSH1 0x20 ADD PUSH1 0x0 KECCAK256 PUSH1 0x1 ADD SWAP1 DUP1 MLOAD SWAP1 PUSH1 0x20 ADD SWAP1 PUSH2 0x3EC8 SWAP3 SWAP2 SWAP1 PUSH2 0x4531 JUMP JUMPDEST POP PUSH1 0x1 PUSH1 0x5 PUSH1 0x0 DUP6 PUSH20 0xFFFFFFFFFFFFFFFFFFFFFFFFFFFFFFFFFFFFFFFF AND PUSH20 0xFFFFFFFFFFFFFFFFFFFFFFFFFFFFFFFFFFFFFFFF AND DUP2 MSTORE PUSH1 0x20 ADD SWAP1 DUP2 MSTORE PUSH1 0x20 ADD PUSH1 0x0 KECCAK256 PUSH1 0x6 ADD PUSH1 0x0 PUSH1 0x5 PUSH1 0x0 DUP8 PUSH20 0xFFFFFFFFFFFFFFFFFFFFFFFFFFFFFFFFFFFFFFFF AND PUSH20 0xFFFFFFFFFFFFFFFFFFFFFFFFFFFFFFFFFFFFFFFF AND DUP2 MSTORE PUSH1 0x20 ADD SWAP1 DUP2 MSTORE PUSH1 0x20 ADD PUSH1 0x0 KECCAK256 PUSH1 0x5 ADD SLOAD DUP2 MSTORE PUSH1 0x20 ADD SWAP1 DUP2 MSTORE PUSH1 0x20 ADD PUSH1 0x0 KECCAK256 PUSH1 0x2 ADD PUSH1 0x0 PUSH2 0x100 EXP DUP2 SLOAD DUP2 PUSH1 0xFF MUL NOT AND SWAP1 DUP4 ISZERO ISZERO MUL OR SWAP1 SSTORE POP JUMPDEST PUSH1 0x1 SWAP1 POP SWAP4 SWAP3 POP POP POP JUMP JUMPDEST PUSH1 0x0 PUSH2 0x3F92 PUSH1 0x3 PUSH2 0x4001 JUMP JUMPDEST SWAP1 POP SWAP1 JUMP JUMPDEST PUSH1 0x0 PUSH32 0x1FFC9A700000000000000000000000000000000000000000000000000000000 PUSH28 0xFFFFFFFFFFFFFFFFFFFFFFFFFFFFFFFFFFFFFFFFFFFFFFFFFFFFFFFF NOT AND DUP3 PUSH28 0xFFFFFFFFFFFFFFFFFFFFFFFFFFFFFFFFFFFFFFFFFFFFFFFFFFFFFFFF NOT AND EQ SWAP1 POP SWAP2 SWAP1 POP JUMP JUMPDEST PUSH1 0x0 DUP2 PUSH1 0x0 ADD SLOAD SWAP1 POP SWAP2 SWAP1 POP JUMP JUMPDEST PUSH2 0x4019 DUP3 DUP3 PUSH2 0x40D8 JUMP JUMPDEST POP POP JUMP JUMPDEST PUSH1 0x1 DUP2 PUSH1 0x0 ADD PUSH1 0x0 DUP3 DUP3 SLOAD ADD SWAP3 POP POP DUP2 SWAP1 SSTORE POP POP JUMP JUMPDEST PUSH1 0x0 CALLER SWAP1 POP SWAP1 JUMP JUMPDEST PUSH2 0x4045 DUP3 DUP3 PUSH2 0x273A JUMP JUMPDEST PUSH2 0x40D4 JUMPI PUSH2 0x406A DUP2 PUSH20 0xFFFFFFFFFFFFFFFFFFFFFFFFFFFFFFFFFFFFFFFF AND PUSH1 0x14 PUSH2 0x42F5 JUMP JUMPDEST PUSH2 0x4078 DUP4 PUSH1 0x0 SHR PUSH1 0x20 PUSH2 0x42F5 JUMP JUMPDEST PUSH1 0x40 MLOAD PUSH1 0x20 ADD PUSH2 0x4089 SWAP3 SWAP2 SWAP1 PUSH2 0x4F10 JUMP JUMPDEST PUSH1 0x40 MLOAD PUSH1 0x20 DUP2 DUP4 SUB SUB DUP2 MSTORE SWAP1 PUSH1 0x40 MSTORE PUSH1 0x40 MLOAD PUSH32 0x8C379A000000000000000000000000000000000000000000000000000000000 DUP2 MSTORE PUSH1 0x4 ADD PUSH2 0x40CB SWAP2 SWAP1 PUSH2 0x4F80 JUMP JUMPDEST PUSH1 0x40 MLOAD DUP1 SWAP2 SUB SWAP1 REVERT JUMPDEST POP POP JUMP JUMPDEST PUSH2 0x40E2 DUP3 DUP3 PUSH2 0x273A JUMP JUMPDEST PUSH2 0x41B4 JUMPI PUSH1 0x1 PUSH1 0x0 DUP1 DUP5 DUP2 MSTORE PUSH1 0x20 ADD SWAP1 DUP2 MSTORE PUSH1 0x20 ADD PUSH1 0x0 KECCAK256 PUSH1 0x0 ADD PUSH1 0x0 DUP4 PUSH20 0xFFFFFFFFFFFFFFFFFFFFFFFFFFFFFFFFFFFFFFFF AND PUSH20 0xFFFFFFFFFFFFFFFFFFFFFFFFFFFFFFFFFFFFFFFF AND DUP2 MSTORE PUSH1 0x20 ADD SWAP1 DUP2 MSTORE PUSH1 0x20 ADD PUSH1 0x0 KECCAK256 PUSH1 0x0 PUSH2 0x100 EXP DUP2 SLOAD DUP2 PUSH1 0xFF MUL NOT AND SWAP1 DUP4 ISZERO ISZERO MUL OR SWAP1 SSTORE POP PUSH2 0x4159 PUSH2 0x4033 JUMP JUMPDEST PUSH20 0xFFFFFFFFFFFFFFFFFFFFFFFFFFFFFFFFFFFFFFFF AND DUP2 PUSH20 0xFFFFFFFFFFFFFFFFFFFFFFFFFFFFFFFFFFFFFFFF AND DUP4 PUSH32 0x2F8788117E7EFF1D82E926EC794901D17C78024A50270940304540A733656F0D PUSH1 0x40 MLOAD PUSH1 0x40 MLOAD DUP1 SWAP2 SUB SWAP1 LOG4 JUMPDEST POP POP JUMP JUMPDEST PUSH2 0x41C2 DUP3 DUP3 PUSH2 0x273A JUMP JUMPDEST ISZERO PUSH2 0x4295 JUMPI PUSH1 0x0 DUP1 PUSH1 0x0 DUP5 DUP2 MSTORE PUSH1 0x20 ADD SWAP1 DUP2 MSTORE PUSH1 0x20 ADD PUSH1 0x0 KECCAK256 PUSH1 0x0 ADD PUSH1 0x0 DUP4 PUSH20 0xFFFFFFFFFFFFFFFFFFFFFFFFFFFFFFFFFFFFFFFF AND PUSH20 0xFFFFFFFFFFFFFFFFFFFFFFFFFFFFFFFFFFFFFFFF AND DUP2 MSTORE PUSH1 0x20 ADD SWAP1 DUP2 MSTORE PUSH1 0x20 ADD PUSH1 0x0 KECCAK256 PUSH1 0x0 PUSH2 0x100 EXP DUP2 SLOAD DUP2 PUSH1 0xFF MUL NOT AND SWAP1 DUP4 ISZERO ISZERO MUL OR SWAP1 SSTORE POP PUSH2 0x423A PUSH2 0x4033 JUMP JUMPDEST PUSH20 0xFFFFFFFFFFFFFFFFFFFFFFFFFFFFFFFFFFFFFFFF AND DUP2 PUSH20 0xFFFFFFFFFFFFFFFFFFFFFFFFFFFFFFFFFFFFFFFF AND DUP4 PUSH32 0xF6391F5C32D9C69D2A47EA670B442974B53935D1EDC7FD64EB21E047A839171B PUSH1 0x40 MLOAD PUSH1 0x40 MLOAD DUP1 SWAP2 SUB SWAP1 LOG4 JUMPDEST POP POP JUMP JUMPDEST PUSH1 0x0 DUP2 PUSH1 0x0 ADD SLOAD SWAP1 POP PUSH1 0x0 DUP2 GT PUSH2 0x42E5 JUMPI PUSH1 0x40 MLOAD PUSH32 0x8C379A000000000000000000000000000000000000000000000000000000000 DUP2 MSTORE PUSH1 0x4 ADD PUSH2 0x42DC SWAP1 PUSH2 0x510E JUMP JUMPDEST PUSH1 0x40 MLOAD DUP1 SWAP2 SUB SWAP1 REVERT JUMPDEST PUSH1 0x1 DUP2 SUB DUP3 PUSH1 0x0 ADD DUP2 SWAP1 SSTORE POP POP POP JUMP JUMPDEST PUSH1 0x60 PUSH1 0x0 PUSH1 0x2 DUP4 PUSH1 0x2 PUSH2 0x4308 SWAP2 SWAP1 PUSH2 0x52F2 JUMP JUMPDEST PUSH2 0x4312 SWAP2 SWAP1 PUSH2 0x529C JUMP JUMPDEST PUSH8 0xFFFFFFFFFFFFFFFF DUP2 GT ISZERO PUSH2 0x432B JUMPI PUSH2 0x432A PUSH2 0x556F JUMP JUMPDEST JUMPDEST PUSH1 0x40 MLOAD SWAP1 DUP1 DUP3 MSTORE DUP1 PUSH1 0x1F ADD PUSH1 0x1F NOT AND PUSH1 0x20 ADD DUP3 ADD PUSH1 0x40 MSTORE DUP1 ISZERO PUSH2 0x435D JUMPI DUP2 PUSH1 0x20 ADD PUSH1 0x1 DUP3 MUL DUP1 CALLDATASIZE DUP4 CALLDATACOPY DUP1 DUP3 ADD SWAP2 POP POP SWAP1 POP JUMPDEST POP SWAP1 POP PUSH32 0x3000000000000000000000000000000000000000000000000000000000000000 DUP2 PUSH1 0x0 DUP2 MLOAD DUP2 LT PUSH2 0x4395 JUMPI PUSH2 0x4394 PUSH2 0x5540 JUMP JUMPDEST JUMPDEST PUSH1 0x20 ADD ADD SWAP1 PUSH31 0xFFFFFFFFFFFFFFFFFFFFFFFFFFFFFFFFFFFFFFFFFFFFFFFFFFFFFFFFFFFFFF NOT AND SWAP1 DUP2 PUSH1 0x0 BYTE SWAP1 MSTORE8 POP PUSH32 0x7800000000000000000000000000000000000000000000000000000000000000 DUP2 PUSH1 0x1 DUP2 MLOAD DUP2 LT PUSH2 0x43F9 JUMPI PUSH2 0x43F8 PUSH2 0x5540 JUMP JUMPDEST JUMPDEST PUSH1 0x20 ADD ADD SWAP1 PUSH31 0xFFFFFFFFFFFFFFFFFFFFFFFFFFFFFFFFFFFFFFFFFFFFFFFFFFFFFFFFFFFFFF NOT AND SWAP1 DUP2 PUSH1 0x0 BYTE SWAP1 MSTORE8 POP PUSH1 0x0 PUSH1 0x1 DUP5 PUSH1 0x2 PUSH2 0x4439 SWAP2 SWAP1 PUSH2 0x52F2 JUMP JUMPDEST PUSH2 0x4443 SWAP2 SWAP1 PUSH2 0x529C JUMP JUMPDEST SWAP1 POP JUMPDEST PUSH1 0x1 DUP2 GT ISZERO PUSH2 0x44E3 JUMPI PUSH32 0x3031323334353637383961626364656600000000000000000000000000000000 PUSH1 0xF DUP7 AND PUSH1 0x10 DUP2 LT PUSH2 0x4485 JUMPI PUSH2 0x4484 PUSH2 0x5540 JUMP JUMPDEST JUMPDEST BYTE PUSH1 0xF8 SHL DUP3 DUP3 DUP2 MLOAD DUP2 LT PUSH2 0x449C JUMPI PUSH2 0x449B PUSH2 0x5540 JUMP JUMPDEST JUMPDEST PUSH1 0x20 ADD ADD SWAP1 PUSH31 0xFFFFFFFFFFFFFFFFFFFFFFFFFFFFFFFFFFFFFFFFFFFFFFFFFFFFFFFFFFFFFF NOT AND SWAP1 DUP2 PUSH1 0x0 BYTE SWAP1 MSTORE8 POP PUSH1 0x4 DUP6 SWAP1 SHR SWAP5 POP DUP1 PUSH2 0x44DC SWAP1 PUSH2 0x540C JUMP JUMPDEST SWAP1 POP PUSH2 0x4446 JUMP JUMPDEST POP PUSH1 0x0 DUP5 EQ PUSH2 0x4527 JUMPI PUSH1 0x40 MLOAD PUSH32 0x8C379A000000000000000000000000000000000000000000000000000000000 DUP2 MSTORE PUSH1 0x4 ADD PUSH2 0x451E SWAP1 PUSH2 0x50EE JUMP JUMPDEST PUSH1 0x40 MLOAD DUP1 SWAP2 SUB SWAP1 REVERT JUMPDEST DUP1 SWAP2 POP POP SWAP3 SWAP2 POP POP JUMP JUMPDEST DUP3 DUP1 SLOAD PUSH2 0x453D SWAP1 PUSH2 0x5436 JUMP JUMPDEST SWAP1 PUSH1 0x0 MSTORE PUSH1 0x20 PUSH1 0x0 KECCAK256 SWAP1 PUSH1 0x1F ADD PUSH1 0x20 SWAP1 DIV DUP2 ADD SWAP3 DUP3 PUSH2 0x455F JUMPI PUSH1 0x0 DUP6 SSTORE PUSH2 0x45A6 JUMP JUMPDEST DUP3 PUSH1 0x1F LT PUSH2 0x4578 JUMPI DUP1 MLOAD PUSH1 0xFF NOT AND DUP4 DUP1 ADD OR DUP6 SSTORE PUSH2 0x45A6 JUMP JUMPDEST DUP3 DUP1 ADD PUSH1 0x1 ADD DUP6 SSTORE DUP3 ISZERO PUSH2 0x45A6 JUMPI SWAP2 DUP3 ADD JUMPDEST DUP3 DUP2 GT ISZERO PUSH2 0x45A5 JUMPI DUP3 MLOAD DUP3 SSTORE SWAP2 PUSH1 0x20 ADD SWAP2 SWAP1 PUSH1 0x1 ADD SWAP1 PUSH2 0x458A JUMP JUMPDEST JUMPDEST POP SWAP1 POP PUSH2 0x45B3 SWAP2 SWAP1 PUSH2 0x45FD JUMP JUMPDEST POP SWAP1 JUMP JUMPDEST PUSH1 0x40 MLOAD DUP1 PUSH1 0x60 ADD PUSH1 0x40 MSTORE DUP1 PUSH1 0x0 DUP2 MSTORE PUSH1 0x20 ADD PUSH1 0x60 DUP2 MSTORE PUSH1 0x20 ADD PUSH1 0x0 ISZERO ISZERO DUP2 MSTORE POP SWAP1 JUMP JUMPDEST PUSH1 0x40 MLOAD DUP1 PUSH1 0x60 ADD PUSH1 0x40 MSTORE DUP1 PUSH1 0x0 DUP2 MSTORE PUSH1 0x20 ADD PUSH1 0x60 DUP2 MSTORE PUSH1 0x20 ADD PUSH1 0x0 ISZERO ISZERO DUP2 MSTORE POP SWAP1 JUMP JUMPDEST JUMPDEST DUP1 DUP3 GT ISZERO PUSH2 0x4616 JUMPI PUSH1 0x0 DUP2 PUSH1 0x0 SWAP1 SSTORE POP PUSH1 0x1 ADD PUSH2 0x45FE JUMP JUMPDEST POP SWAP1 JUMP JUMPDEST PUSH1 0x0 PUSH2 0x462D PUSH2 0x4628 DUP5 PUSH2 0x5233 JUMP JUMPDEST PUSH2 0x520E JUMP JUMPDEST SWAP1 POP DUP3 DUP2 MSTORE PUSH1 0x20 DUP2 ADD DUP5 DUP5 DUP5 ADD GT ISZERO PUSH2 0x4649 JUMPI PUSH2 0x4648 PUSH2 0x55A3 JUMP JUMPDEST JUMPDEST PUSH2 0x4654 DUP5 DUP3 DUP6 PUSH2 0x53CA JUMP JUMPDEST POP SWAP4 SWAP3 POP POP POP JUMP JUMPDEST PUSH1 0x0 DUP2 CALLDATALOAD SWAP1 POP PUSH2 0x466B DUP2 PUSH2 0x56B6 JUMP JUMPDEST SWAP3 SWAP2 POP POP JUMP JUMPDEST PUSH1 0x0 DUP2 CALLDATALOAD SWAP1 POP PUSH2 0x4680 DUP2 PUSH2 0x56CD JUMP JUMPDEST SWAP3 SWAP2 POP POP JUMP JUMPDEST PUSH1 0x0 DUP2 CALLDATALOAD SWAP1 POP PUSH2 0x4695 DUP2 PUSH2 0x56E4 JUMP JUMPDEST SWAP3 SWAP2 POP POP JUMP JUMPDEST PUSH1 0x0 DUP2 CALLDATALOAD SWAP1 POP PUSH2 0x46AA DUP2 PUSH2 0x56FB JUMP JUMPDEST SWAP3 SWAP2 POP POP JUMP JUMPDEST PUSH1 0x0 DUP3 PUSH1 0x1F DUP4 ADD SLT PUSH2 0x46C5 JUMPI PUSH2 0x46C4 PUSH2 0x559E JUMP JUMPDEST JUMPDEST DUP2 CALLDATALOAD PUSH2 0x46D5 DUP5 DUP3 PUSH1 0x20 DUP7 ADD PUSH2 0x461A JUMP JUMPDEST SWAP2 POP POP SWAP3 SWAP2 POP POP JUMP JUMPDEST PUSH1 0x0 DUP2 CALLDATALOAD SWAP1 POP PUSH2 0x46ED DUP2 PUSH2 0x5712 JUMP JUMPDEST SWAP3 SWAP2 POP POP JUMP JUMPDEST PUSH1 0x0 PUSH1 0x20 DUP3 DUP5 SUB SLT ISZERO PUSH2 0x4709 JUMPI PUSH2 0x4708 PUSH2 0x55AD JUMP JUMPDEST JUMPDEST PUSH1 0x0 PUSH2 0x4717 DUP5 DUP3 DUP6 ADD PUSH2 0x465C JUMP JUMPDEST SWAP2 POP POP SWAP3 SWAP2 POP POP JUMP JUMPDEST PUSH1 0x0 DUP1 PUSH1 0x40 DUP4 DUP6 SUB SLT ISZERO PUSH2 0x4737 JUMPI PUSH2 0x4736 PUSH2 0x55AD JUMP JUMPDEST JUMPDEST PUSH1 0x0 PUSH2 0x4745 DUP6 DUP3 DUP7 ADD PUSH2 0x465C JUMP JUMPDEST SWAP3 POP POP PUSH1 0x20 PUSH2 0x4756 DUP6 DUP3 DUP7 ADD PUSH2 0x465C JUMP JUMPDEST SWAP2 POP POP SWAP3 POP SWAP3 SWAP1 POP JUMP JUMPDEST PUSH1 0x0 DUP1 PUSH1 0x0 PUSH1 0x60 DUP5 DUP7 SUB SLT ISZERO PUSH2 0x4779 JUMPI PUSH2 0x4778 PUSH2 0x55AD JUMP JUMPDEST JUMPDEST PUSH1 0x0 PUSH2 0x4787 DUP7 DUP3 DUP8 ADD PUSH2 0x465C JUMP JUMPDEST SWAP4 POP POP PUSH1 0x20 PUSH2 0x4798 DUP7 DUP3 DUP8 ADD PUSH2 0x465C JUMP JUMPDEST SWAP3 POP POP PUSH1 0x40 PUSH2 0x47A9 DUP7 DUP3 DUP8 ADD PUSH2 0x465C JUMP JUMPDEST SWAP2 POP POP SWAP3 POP SWAP3 POP SWAP3 JUMP JUMPDEST PUSH1 0x0 DUP1 PUSH1 0x40 DUP4 DUP6 SUB SLT ISZERO PUSH2 0x47CA JUMPI PUSH2 0x47C9 PUSH2 0x55AD JUMP JUMPDEST JUMPDEST PUSH1 0x0 PUSH2 0x47D8 DUP6 DUP3 DUP7 ADD PUSH2 0x465C JUMP JUMPDEST SWAP3 POP POP PUSH1 0x20 DUP4 ADD CALLDATALOAD PUSH8 0xFFFFFFFFFFFFFFFF DUP2 GT ISZERO PUSH2 0x47F9 JUMPI PUSH2 0x47F8 PUSH2 0x55A8 JUMP JUMPDEST JUMPDEST PUSH2 0x4805 DUP6 DUP3 DUP7 ADD PUSH2 0x46B0 JUMP JUMPDEST SWAP2 POP POP SWAP3 POP SWAP3 SWAP1 POP JUMP JUMPDEST PUSH1 0x0 DUP1 PUSH1 0x40 DUP4 DUP6 SUB SLT ISZERO PUSH2 0x4826 JUMPI PUSH2 0x4825 PUSH2 0x55AD JUMP JUMPDEST JUMPDEST PUSH1 0x0 PUSH2 0x4834 DUP6 DUP3 DUP7 ADD PUSH2 0x465C JUMP JUMPDEST SWAP3 POP POP PUSH1 0x20 PUSH2 0x4845 DUP6 DUP3 DUP7 ADD PUSH2 0x46DE JUMP JUMPDEST SWAP2 POP POP SWAP3 POP SWAP3 SWAP1 POP JUMP JUMPDEST PUSH1 0x0 PUSH1 0x20 DUP3 DUP5 SUB SLT ISZERO PUSH2 0x4865 JUMPI PUSH2 0x4864 PUSH2 0x55AD JUMP JUMPDEST JUMPDEST PUSH1 0x0 PUSH2 0x4873 DUP5 DUP3 DUP6 ADD PUSH2 0x4686 JUMP JUMPDEST SWAP2 POP POP SWAP3 SWAP2 POP POP JUMP JUMPDEST PUSH1 0x0 DUP1 PUSH1 0x40 DUP4 DUP6 SUB SLT ISZERO PUSH2 0x4893 JUMPI PUSH2 0x4892 PUSH2 0x55AD JUMP JUMPDEST JUMPDEST PUSH1 0x0 PUSH2 0x48A1 DUP6 DUP3 DUP7 ADD PUSH2 0x4686 JUMP JUMPDEST SWAP3 POP POP PUSH1 0x20 PUSH2 0x48B2 DUP6 DUP3 DUP7 ADD PUSH2 0x465C JUMP JUMPDEST SWAP2 POP POP SWAP3 POP SWAP3 SWAP1 POP JUMP JUMPDEST PUSH1 0x0 PUSH1 0x20 DUP3 DUP5 SUB SLT ISZERO PUSH2 0x48D2 JUMPI PUSH2 0x48D1 PUSH2 0x55AD JUMP JUMPDEST JUMPDEST PUSH1 0x0 PUSH2 0x48E0 DUP5 DUP3 DUP6 ADD PUSH2 0x469B JUMP JUMPDEST SWAP2 POP POP SWAP3 SWAP2 POP POP JUMP JUMPDEST PUSH1 0x0 PUSH1 0x20 DUP3 DUP5 SUB SLT ISZERO PUSH2 0x48FF JUMPI PUSH2 0x48FE PUSH2 0x55AD JUMP JUMPDEST JUMPDEST PUSH1 0x0 DUP3 ADD CALLDATALOAD PUSH8 0xFFFFFFFFFFFFFFFF DUP2 GT ISZERO PUSH2 0x491D JUMPI PUSH2 0x491C PUSH2 0x55A8 JUMP JUMPDEST JUMPDEST PUSH2 0x4929 DUP5 DUP3 DUP6 ADD PUSH2 0x46B0 JUMP JUMPDEST SWAP2 POP POP SWAP3 SWAP2 POP POP JUMP JUMPDEST PUSH1 0x0 DUP1 PUSH1 0x40 DUP4 DUP6 SUB SLT ISZERO PUSH2 0x4949 JUMPI PUSH2 0x4948 PUSH2 0x55AD JUMP JUMPDEST JUMPDEST PUSH1 0x0 DUP4 ADD CALLDATALOAD PUSH8 0xFFFFFFFFFFFFFFFF DUP2 GT ISZERO PUSH2 0x4967 JUMPI PUSH2 0x4966 PUSH2 0x55A8 JUMP JUMPDEST JUMPDEST PUSH2 0x4973 DUP6 DUP3 DUP7 ADD PUSH2 0x46B0 JUMP JUMPDEST SWAP3 POP POP PUSH1 0x20 PUSH2 0x4984 DUP6 DUP3 DUP7 ADD PUSH2 0x465C JUMP JUMPDEST SWAP2 POP POP SWAP3 POP SWAP3 SWAP1 POP JUMP JUMPDEST PUSH1 0x0 DUP1 PUSH1 0x0 PUSH1 0x60 DUP5 DUP7 SUB SLT ISZERO PUSH2 0x49A7 JUMPI PUSH2 0x49A6 PUSH2 0x55AD JUMP JUMPDEST JUMPDEST PUSH1 0x0 DUP5 ADD CALLDATALOAD PUSH8 0xFFFFFFFFFFFFFFFF DUP2 GT ISZERO PUSH2 0x49C5 JUMPI PUSH2 0x49C4 PUSH2 0x55A8 JUMP JUMPDEST JUMPDEST PUSH2 0x49D1 DUP7 DUP3 DUP8 ADD PUSH2 0x46B0 JUMP JUMPDEST SWAP4 POP POP PUSH1 0x20 PUSH2 0x49E2 DUP7 DUP3 DUP8 ADD PUSH2 0x465C JUMP JUMPDEST SWAP3 POP POP PUSH1 0x40 PUSH2 0x49F3 DUP7 DUP3 DUP8 ADD PUSH2 0x465C JUMP JUMPDEST SWAP2 POP POP SWAP3 POP SWAP3 POP SWAP3 JUMP JUMPDEST PUSH1 0x0 DUP1 PUSH1 0x0 PUSH1 0x60 DUP5 DUP7 SUB SLT ISZERO PUSH2 0x4A16 JUMPI PUSH2 0x4A15 PUSH2 0x55AD JUMP JUMPDEST JUMPDEST PUSH1 0x0 DUP5 ADD CALLDATALOAD PUSH8 0xFFFFFFFFFFFFFFFF DUP2 GT ISZERO PUSH2 0x4A34 JUMPI PUSH2 0x4A33 PUSH2 0x55A8 JUMP JUMPDEST JUMPDEST PUSH2 0x4A40 DUP7 DUP3 DUP8 ADD PUSH2 0x46B0 JUMP JUMPDEST SWAP4 POP POP PUSH1 0x20 DUP5 ADD CALLDATALOAD PUSH8 0xFFFFFFFFFFFFFFFF DUP2 GT ISZERO PUSH2 0x4A61 JUMPI PUSH2 0x4A60 PUSH2 0x55A8 JUMP JUMPDEST JUMPDEST PUSH2 0x4A6D DUP7 DUP3 DUP8 ADD PUSH2 0x46B0 JUMP JUMPDEST SWAP3 POP POP PUSH1 0x40 PUSH2 0x4A7E DUP7 DUP3 DUP8 ADD PUSH2 0x465C JUMP JUMPDEST SWAP2 POP POP SWAP3 POP SWAP3 POP SWAP3 JUMP JUMPDEST PUSH1 0x0 DUP1 PUSH1 0x0 DUP1 PUSH1 0x80 DUP6 DUP8 SUB SLT ISZERO PUSH2 0x4AA2 JUMPI PUSH2 0x4AA1 PUSH2 0x55AD JUMP JUMPDEST JUMPDEST PUSH1 0x0 DUP6 ADD CALLDATALOAD PUSH8 0xFFFFFFFFFFFFFFFF DUP2 GT ISZERO PUSH2 0x4AC0 JUMPI PUSH2 0x4ABF PUSH2 0x55A8 JUMP JUMPDEST JUMPDEST PUSH2 0x4ACC DUP8 DUP3 DUP9 ADD PUSH2 0x46B0 JUMP JUMPDEST SWAP5 POP POP PUSH1 0x20 DUP6 ADD CALLDATALOAD PUSH8 0xFFFFFFFFFFFFFFFF DUP2 GT ISZERO PUSH2 0x4AED JUMPI PUSH2 0x4AEC PUSH2 0x55A8 JUMP JUMPDEST JUMPDEST PUSH2 0x4AF9 DUP8 DUP3 DUP9 ADD PUSH2 0x46B0 JUMP JUMPDEST SWAP4 POP POP PUSH1 0x40 PUSH2 0x4B0A DUP8 DUP3 DUP9 ADD PUSH2 0x465C JUMP JUMPDEST SWAP3 POP POP PUSH1 0x60 PUSH2 0x4B1B DUP8 DUP3 DUP9 ADD PUSH2 0x465C JUMP JUMPDEST SWAP2 POP POP SWAP3 SWAP6 SWAP2 SWAP5 POP SWAP3 POP JUMP JUMPDEST PUSH1 0x0 DUP1 PUSH1 0x0 DUP1 PUSH1 0x0 PUSH1 0xA0 DUP7 DUP9 SUB SLT ISZERO PUSH2 0x4B43 JUMPI PUSH2 0x4B42 PUSH2 0x55AD JUMP JUMPDEST JUMPDEST PUSH1 0x0 DUP7 ADD CALLDATALOAD PUSH8 0xFFFFFFFFFFFFFFFF DUP2 GT ISZERO PUSH2 0x4B61 JUMPI PUSH2 0x4B60 PUSH2 0x55A8 JUMP JUMPDEST JUMPDEST PUSH2 0x4B6D DUP9 DUP3 DUP10 ADD PUSH2 0x46B0 JUMP JUMPDEST SWAP6 POP POP PUSH1 0x20 DUP7 ADD CALLDATALOAD PUSH8 0xFFFFFFFFFFFFFFFF DUP2 GT ISZERO PUSH2 0x4B8E JUMPI PUSH2 0x4B8D PUSH2 0x55A8 JUMP JUMPDEST JUMPDEST PUSH2 0x4B9A DUP9 DUP3 DUP10 ADD PUSH2 0x46B0 JUMP JUMPDEST SWAP5 POP POP PUSH1 0x40 PUSH2 0x4BAB DUP9 DUP3 DUP10 ADD PUSH2 0x465C JUMP JUMPDEST SWAP4 POP POP PUSH1 0x60 PUSH2 0x4BBC DUP9 DUP3 DUP10 ADD PUSH2 0x465C JUMP JUMPDEST SWAP3 POP POP PUSH1 0x80 PUSH2 0x4BCD DUP9 DUP3 DUP10 ADD PUSH2 0x465C JUMP JUMPDEST SWAP2 POP POP SWAP3 SWAP6 POP SWAP3 SWAP6 SWAP1 SWAP4 POP JUMP JUMPDEST PUSH1 0x0 DUP1 PUSH1 0x0 DUP1 PUSH1 0x80 DUP6 DUP8 SUB SLT ISZERO PUSH2 0x4BF4 JUMPI PUSH2 0x4BF3 PUSH2 0x55AD JUMP JUMPDEST JUMPDEST PUSH1 0x0 PUSH2 0x4C02 DUP8 DUP3 DUP9 ADD PUSH2 0x46DE JUMP JUMPDEST SWAP5 POP POP PUSH1 0x20 PUSH2 0x4C13 DUP8 DUP3 DUP9 ADD PUSH2 0x465C JUMP JUMPDEST SWAP4 POP POP PUSH1 0x40 PUSH2 0x4C24 DUP8 DUP3 DUP9 ADD PUSH2 0x465C JUMP JUMPDEST SWAP3 POP POP PUSH1 0x60 PUSH2 0x4C35 DUP8 DUP3 DUP9 ADD PUSH2 0x4671 JUMP JUMPDEST SWAP2 POP POP SWAP3 SWAP6 SWAP2 SWAP5 POP SWAP3 POP JUMP JUMPDEST PUSH1 0x0 DUP1 PUSH1 0x0 DUP1 PUSH1 0x80 DUP6 DUP8 SUB SLT ISZERO PUSH2 0x4C5B JUMPI PUSH2 0x4C5A PUSH2 0x55AD JUMP JUMPDEST JUMPDEST PUSH1 0x0 PUSH2 0x4C69 DUP8 DUP3 DUP9 ADD PUSH2 0x46DE JUMP JUMPDEST SWAP5 POP POP PUSH1 0x20 PUSH2 0x4C7A DUP8 DUP3 DUP9 ADD PUSH2 0x465C JUMP JUMPDEST SWAP4 POP POP PUSH1 0x40 PUSH2 0x4C8B DUP8 DUP3 DUP9 ADD PUSH2 0x465C JUMP JUMPDEST SWAP3 POP POP PUSH1 0x60 DUP6 ADD CALLDATALOAD PUSH8 0xFFFFFFFFFFFFFFFF DUP2 GT ISZERO PUSH2 0x4CAC JUMPI PUSH2 0x4CAB PUSH2 0x55A8 JUMP JUMPDEST JUMPDEST PUSH2 0x4CB8 DUP8 DUP3 DUP9 ADD PUSH2 0x46B0 JUMP JUMPDEST SWAP2 POP POP SWAP3 SWAP6 SWAP2 SWAP5 POP SWAP3 POP JUMP JUMPDEST PUSH2 0x4CCD DUP2 PUSH2 0x534C JUMP JUMPDEST DUP3 MSTORE POP POP JUMP JUMPDEST PUSH2 0x4CDC DUP2 PUSH2 0x535E JUMP JUMPDEST DUP3 MSTORE POP POP JUMP JUMPDEST PUSH2 0x4CEB DUP2 PUSH2 0x535E JUMP JUMPDEST DUP3 MSTORE POP POP JUMP JUMPDEST PUSH2 0x4CFA DUP2 PUSH2 0x536A JUMP JUMPDEST DUP3 MSTORE POP POP JUMP JUMPDEST PUSH1 0x0 PUSH2 0x4D0B DUP3 PUSH2 0x5264 JUMP JUMPDEST PUSH2 0x4D15 DUP2 DUP6 PUSH2 0x526F JUMP JUMPDEST SWAP4 POP PUSH2 0x4D25 DUP2 DUP6 PUSH1 0x20 DUP7 ADD PUSH2 0x53D9 JUMP JUMPDEST PUSH2 0x4D2E DUP2 PUSH2 0x55B2 JUMP JUMPDEST DUP5 ADD SWAP2 POP POP SWAP3 SWAP2 POP POP JUMP JUMPDEST PUSH1 0x0 PUSH2 0x4D44 DUP3 PUSH2 0x5264 JUMP JUMPDEST PUSH2 0x4D4E DUP2 DUP6 PUSH2 0x5280 JUMP JUMPDEST SWAP4 POP PUSH2 0x4D5E DUP2 DUP6 PUSH1 0x20 DUP7 ADD PUSH2 0x53D9 JUMP JUMPDEST PUSH2 0x4D67 DUP2 PUSH2 0x55B2 JUMP JUMPDEST DUP5 ADD SWAP2 POP POP SWAP3 SWAP2 POP POP JUMP JUMPDEST PUSH1 0x0 PUSH2 0x4D7D DUP3 PUSH2 0x5264 JUMP JUMPDEST PUSH2 0x4D87 DUP2 DUP6 PUSH2 0x5291 JUMP JUMPDEST SWAP4 POP PUSH2 0x4D97 DUP2 DUP6 PUSH1 0x20 DUP7 ADD PUSH2 0x53D9 JUMP JUMPDEST DUP1 DUP5 ADD SWAP2 POP POP SWAP3 SWAP2 POP POP JUMP JUMPDEST PUSH1 0x0 PUSH2 0x4DB0 PUSH1 0x20 DUP4 PUSH2 0x5280 JUMP JUMPDEST SWAP2 POP PUSH2 0x4DBB DUP3 PUSH2 0x55C3 JUMP JUMPDEST PUSH1 0x20 DUP3 ADD SWAP1 POP SWAP2 SWAP1 POP JUMP JUMPDEST PUSH1 0x0 PUSH2 0x4DD3 PUSH1 0x1B DUP4 PUSH2 0x5280 JUMP JUMPDEST SWAP2 POP PUSH2 0x4DDE DUP3 PUSH2 0x55EC JUMP JUMPDEST PUSH1 0x20 DUP3 ADD SWAP1 POP SWAP2 SWAP1 POP JUMP JUMPDEST PUSH1 0x0 PUSH2 0x4DF6 PUSH1 0x17 DUP4 PUSH2 0x5291 JUMP JUMPDEST SWAP2 POP PUSH2 0x4E01 DUP3 PUSH2 0x5615 JUMP JUMPDEST PUSH1 0x17 DUP3 ADD SWAP1 POP SWAP2 SWAP1 POP JUMP JUMPDEST PUSH1 0x0 PUSH2 0x4E19 PUSH1 0x11 DUP4 PUSH2 0x5291 JUMP JUMPDEST SWAP2 POP PUSH2 0x4E24 DUP3 PUSH2 0x563E JUMP JUMPDEST PUSH1 0x11 DUP3 ADD SWAP1 POP SWAP2 SWAP1 POP JUMP JUMPDEST PUSH1 0x0 PUSH2 0x4E3C PUSH1 0x2F DUP4 PUSH2 0x5280 JUMP JUMPDEST SWAP2 POP PUSH2 0x4E47 DUP3 PUSH2 0x5667 JUMP JUMPDEST PUSH1 0x40 DUP3 ADD SWAP1 POP SWAP2 SWAP1 POP JUMP JUMPDEST PUSH1 0x0 PUSH1 0x60 DUP4 ADD PUSH1 0x0 DUP4 ADD MLOAD PUSH2 0x4E6A PUSH1 0x0 DUP7 ADD DUP3 PUSH2 0x4EF2 JUMP JUMPDEST POP PUSH1 0x20 DUP4 ADD MLOAD DUP5 DUP3 SUB PUSH1 0x20 DUP7 ADD MSTORE PUSH2 0x4E82 DUP3 DUP3 PUSH2 0x4D00 JUMP JUMPDEST SWAP2 POP POP PUSH1 0x40 DUP4 ADD MLOAD PUSH2 0x4E97 PUSH1 0x40 DUP7 ADD DUP3 PUSH2 0x4CD3 JUMP JUMPDEST POP DUP1 SWAP2 POP POP SWAP3 SWAP2 POP POP JUMP JUMPDEST PUSH1 0x0 PUSH1 0x60 DUP4 ADD PUSH1 0x0 DUP4 ADD MLOAD PUSH2 0x4EBA PUSH1 0x0 DUP7 ADD DUP3 PUSH2 0x4EF2 JUMP JUMPDEST POP PUSH1 0x20 DUP4 ADD MLOAD DUP5 DUP3 SUB PUSH1 0x20 DUP7 ADD MSTORE PUSH2 0x4ED2 DUP3 DUP3 PUSH2 0x4D00 JUMP JUMPDEST SWAP2 POP POP PUSH1 0x40 DUP4 ADD MLOAD PUSH2 0x4EE7 PUSH1 0x40 DUP7 ADD DUP3 PUSH2 0x4CD3 JUMP JUMPDEST POP DUP1 SWAP2 POP POP SWAP3 SWAP2 POP POP JUMP JUMPDEST PUSH2 0x4EFB DUP2 PUSH2 0x53C0 JUMP JUMPDEST DUP3 MSTORE POP POP JUMP JUMPDEST PUSH2 0x4F0A DUP2 PUSH2 0x53C0 JUMP JUMPDEST DUP3 MSTORE POP POP JUMP JUMPDEST PUSH1 0x0 PUSH2 0x4F1B DUP3 PUSH2 0x4DE9 JUMP JUMPDEST SWAP2 POP PUSH2 0x4F27 DUP3 DUP6 PUSH2 0x4D72 JUMP JUMPDEST SWAP2 POP PUSH2 0x4F32 DUP3 PUSH2 0x4E0C JUMP JUMPDEST SWAP2 POP PUSH2 0x4F3E DUP3 DUP5 PUSH2 0x4D72 JUMP JUMPDEST SWAP2 POP DUP2 SWAP1 POP SWAP4 SWAP3 POP POP POP JUMP JUMPDEST PUSH1 0x0 PUSH1 0x20 DUP3 ADD SWAP1 POP PUSH2 0x4F5F PUSH1 0x0 DUP4 ADD DUP5 PUSH2 0x4CE2 JUMP JUMPDEST SWAP3 SWAP2 POP POP JUMP JUMPDEST PUSH1 0x0 PUSH1 0x20 DUP3 ADD SWAP1 POP PUSH2 0x4F7A PUSH1 0x0 DUP4 ADD DUP5 PUSH2 0x4CF1 JUMP JUMPDEST SWAP3 SWAP2 POP POP JUMP JUMPDEST PUSH1 0x0 PUSH1 0x20 DUP3 ADD SWAP1 POP DUP2 DUP2 SUB PUSH1 0x0 DUP4 ADD MSTORE PUSH2 0x4F9A DUP2 DUP5 PUSH2 0x4D39 JUMP JUMPDEST SWAP1 POP SWAP3 SWAP2 POP POP JUMP JUMPDEST PUSH1 0x0 PUSH1 0x60 DUP3 ADD SWAP1 POP DUP2 DUP2 SUB PUSH1 0x0 DUP4 ADD MSTORE PUSH2 0x4FBC DUP2 DUP7 PUSH2 0x4D39 JUMP JUMPDEST SWAP1 POP DUP2 DUP2 SUB PUSH1 0x20 DUP4 ADD MSTORE PUSH2 0x4FD0 DUP2 DUP6 PUSH2 0x4D39 JUMP JUMPDEST SWAP1 POP PUSH2 0x4FDF PUSH1 0x40 DUP4 ADD DUP5 PUSH2 0x4CC4 JUMP JUMPDEST SWAP5 SWAP4 POP POP POP POP JUMP JUMPDEST PUSH1 0x0 PUSH1 0x80 DUP3 ADD SWAP1 POP DUP2 DUP2 SUB PUSH1 0x0 DUP4 ADD MSTORE PUSH2 0x5001 DUP2 DUP8 PUSH2 0x4D39 JUMP JUMPDEST SWAP1 POP DUP2 DUP2 SUB PUSH1 0x20 DUP4 ADD MSTORE PUSH2 0x5015 DUP2 DUP7 PUSH2 0x4D39 JUMP JUMPDEST SWAP1 POP PUSH2 0x5024 PUSH1 0x40 DUP4 ADD DUP6 PUSH2 0x4CC4 JUMP JUMPDEST PUSH2 0x5031 PUSH1 0x60 DUP4 ADD DUP5 PUSH2 0x4CC4 JUMP JUMPDEST SWAP6 SWAP5 POP POP POP POP POP JUMP JUMPDEST PUSH1 0x0 PUSH1 0x80 DUP3 ADD SWAP1 POP DUP2 DUP2 SUB PUSH1 0x0 DUP4 ADD MSTORE PUSH2 0x5054 DUP2 DUP8 PUSH2 0x4D39 JUMP JUMPDEST SWAP1 POP DUP2 DUP2 SUB PUSH1 0x20 DUP4 ADD MSTORE PUSH2 0x5068 DUP2 DUP7 PUSH2 0x4D39 JUMP JUMPDEST SWAP1 POP PUSH2 0x5077 PUSH1 0x40 DUP4 ADD DUP6 PUSH2 0x4CC4 JUMP JUMPDEST PUSH2 0x5084 PUSH1 0x60 DUP4 ADD DUP5 PUSH2 0x4F01 JUMP JUMPDEST SWAP6 SWAP5 POP POP POP POP POP JUMP JUMPDEST PUSH1 0x0 PUSH1 0xA0 DUP3 ADD SWAP1 POP DUP2 DUP2 SUB PUSH1 0x0 DUP4 ADD MSTORE PUSH2 0x50A7 DUP2 DUP9 PUSH2 0x4D39 JUMP JUMPDEST SWAP1 POP DUP2 DUP2 SUB PUSH1 0x20 DUP4 ADD MSTORE PUSH2 0x50BB DUP2 DUP8 PUSH2 0x4D39 JUMP JUMPDEST SWAP1 POP PUSH2 0x50CA PUSH1 0x40 DUP4 ADD DUP7 PUSH2 0x4CC4 JUMP JUMPDEST PUSH2 0x50D7 PUSH1 0x60 DUP4 ADD DUP6 PUSH2 0x4F01 JUMP JUMPDEST PUSH2 0x50E4 PUSH1 0x80 DUP4 ADD DUP5 PUSH2 0x4F01 JUMP JUMPDEST SWAP7 SWAP6 POP POP POP POP POP POP JUMP JUMPDEST PUSH1 0x0 PUSH1 0x20 DUP3 ADD SWAP1 POP DUP2 DUP2 SUB PUSH1 0x0 DUP4 ADD MSTORE PUSH2 0x5107 DUP2 PUSH2 0x4DA3 JUMP JUMPDEST SWAP1 POP SWAP2 SWAP1 POP JUMP JUMPDEST PUSH1 0x0 PUSH1 0x20 DUP3 ADD SWAP1 POP DUP2 DUP2 SUB PUSH1 0x0 DUP4 ADD MSTORE PUSH2 0x5127 DUP2 PUSH2 0x4DC6 JUMP JUMPDEST SWAP1 POP SWAP2 SWAP1 POP JUMP JUMPDEST PUSH1 0x0 PUSH1 0x20 DUP3 ADD SWAP1 POP DUP2 DUP2 SUB PUSH1 0x0 DUP4 ADD MSTORE PUSH2 0x5147 DUP2 PUSH2 0x4E2F JUMP JUMPDEST SWAP1 POP SWAP2 SWAP1 POP JUMP JUMPDEST PUSH1 0x0 PUSH1 0x40 DUP3 ADD SWAP1 POP DUP2 DUP2 SUB PUSH1 0x0 DUP4 ADD MSTORE PUSH2 0x5168 DUP2 DUP6 PUSH2 0x4E52 JUMP JUMPDEST SWAP1 POP PUSH2 0x5177 PUSH1 0x20 DUP4 ADD DUP5 PUSH2 0x4F01 JUMP JUMPDEST SWAP4 SWAP3 POP POP POP JUMP JUMPDEST PUSH1 0x0 PUSH1 0x40 DUP3 ADD SWAP1 POP DUP2 DUP2 SUB PUSH1 0x0 DUP4 ADD MSTORE PUSH2 0x5198 DUP2 DUP6 PUSH2 0x4EA2 JUMP JUMPDEST SWAP1 POP PUSH2 0x51A7 PUSH1 0x20 DUP4 ADD DUP5 PUSH2 0x4F01 JUMP JUMPDEST SWAP4 SWAP3 POP POP POP JUMP JUMPDEST PUSH1 0x0 PUSH1 0x20 DUP3 ADD SWAP1 POP PUSH2 0x51C3 PUSH1 0x0 DUP4 ADD DUP5 PUSH2 0x4F01 JUMP JUMPDEST SWAP3 SWAP2 POP POP JUMP JUMPDEST PUSH1 0x0 PUSH1 0x80 DUP3 ADD SWAP1 POP PUSH2 0x51DE PUSH1 0x0 DUP4 ADD DUP8 PUSH2 0x4F01 JUMP JUMPDEST PUSH2 0x51EB PUSH1 0x20 DUP4 ADD DUP7 PUSH2 0x4F01 JUMP JUMPDEST PUSH2 0x51F8 PUSH1 0x40 DUP4 ADD DUP6 PUSH2 0x4F01 JUMP JUMPDEST PUSH2 0x5205 PUSH1 0x60 DUP4 ADD DUP5 PUSH2 0x4F01 JUMP JUMPDEST SWAP6 SWAP5 POP POP POP POP POP JUMP JUMPDEST PUSH1 0x0 PUSH2 0x5218 PUSH2 0x5229 JUMP JUMPDEST SWAP1 POP PUSH2 0x5224 DUP3 DUP3 PUSH2 0x5468 JUMP JUMPDEST SWAP2 SWAP1 POP JUMP JUMPDEST PUSH1 0x0 PUSH1 0x40 MLOAD SWAP1 POP SWAP1 JUMP JUMPDEST PUSH1 0x0 PUSH8 0xFFFFFFFFFFFFFFFF DUP3 GT ISZERO PUSH2 0x524E JUMPI PUSH2 0x524D PUSH2 0x556F JUMP JUMPDEST JUMPDEST PUSH2 0x5257 DUP3 PUSH2 0x55B2 JUMP JUMPDEST SWAP1 POP PUSH1 0x20 DUP2 ADD SWAP1 POP SWAP2 SWAP1 POP JUMP JUMPDEST PUSH1 0x0 DUP2 MLOAD SWAP1 POP SWAP2 SWAP1 POP JUMP JUMPDEST PUSH1 0x0 DUP3 DUP3 MSTORE PUSH1 0x20 DUP3 ADD SWAP1 POP SWAP3 SWAP2 POP POP JUMP JUMPDEST PUSH1 0x0 DUP3 DUP3 MSTORE PUSH1 0x20 DUP3 ADD SWAP1 POP SWAP3 SWAP2 POP POP JUMP JUMPDEST PUSH1 0x0 DUP2 SWAP1 POP SWAP3 SWAP2 POP POP JUMP JUMPDEST PUSH1 0x0 PUSH2 0x52A7 DUP3 PUSH2 0x53C0 JUMP JUMPDEST SWAP2 POP PUSH2 0x52B2 DUP4 PUSH2 0x53C0 JUMP JUMPDEST SWAP3 POP DUP3 PUSH32 0xFFFFFFFFFFFFFFFFFFFFFFFFFFFFFFFFFFFFFFFFFFFFFFFFFFFFFFFFFFFFFFFF SUB DUP3 GT ISZERO PUSH2 0x52E7 JUMPI PUSH2 0x52E6 PUSH2 0x54E2 JUMP JUMPDEST JUMPDEST DUP3 DUP3 ADD SWAP1 POP SWAP3 SWAP2 POP POP JUMP JUMPDEST PUSH1 0x0 PUSH2 0x52FD DUP3 PUSH2 0x53C0 JUMP JUMPDEST SWAP2 POP PUSH2 0x5308 DUP4 PUSH2 0x53C0 JUMP JUMPDEST SWAP3 POP DUP2 PUSH32 0xFFFFFFFFFFFFFFFFFFFFFFFFFFFFFFFFFFFFFFFFFFFFFFFFFFFFFFFFFFFFFFFF DIV DUP4 GT DUP3 ISZERO ISZERO AND ISZERO PUSH2 0x5341 JUMPI PUSH2 0x5340 PUSH2 0x54E2 JUMP JUMPDEST JUMPDEST DUP3 DUP3 MUL SWAP1 POP SWAP3 SWAP2 POP POP JUMP JUMPDEST PUSH1 0x0 PUSH2 0x5357 DUP3 PUSH2 0x53A0 JUMP JUMPDEST SWAP1 POP SWAP2 SWAP1 POP JUMP JUMPDEST PUSH1 0x0 DUP2 ISZERO ISZERO SWAP1 POP SWAP2 SWAP1 POP JUMP JUMPDEST PUSH1 0x0 DUP2 SWAP1 POP SWAP2 SWAP1 POP JUMP JUMPDEST PUSH1 0x0 PUSH32 0xFFFFFFFF00000000000000000000000000000000000000000000000000000000 DUP3 AND SWAP1 POP SWAP2 SWAP1 POP JUMP JUMPDEST PUSH1 0x0 PUSH20 0xFFFFFFFFFFFFFFFFFFFFFFFFFFFFFFFFFFFFFFFF DUP3 AND SWAP1 POP SWAP2 SWAP1 POP JUMP JUMPDEST PUSH1 0x0 DUP2 SWAP1 POP SWAP2 SWAP1 POP JUMP JUMPDEST DUP3 DUP2 DUP4 CALLDATACOPY PUSH1 0x0 DUP4 DUP4 ADD MSTORE POP POP POP JUMP JUMPDEST PUSH1 0x0 JUMPDEST DUP4 DUP2 LT ISZERO PUSH2 0x53F7 JUMPI DUP1 DUP3 ADD MLOAD DUP2 DUP5 ADD MSTORE PUSH1 0x20 DUP2 ADD SWAP1 POP PUSH2 0x53DC JUMP JUMPDEST DUP4 DUP2 GT ISZERO PUSH2 0x5406 JUMPI PUSH1 0x0 DUP5 DUP5 ADD MSTORE JUMPDEST POP POP POP POP JUMP JUMPDEST PUSH1 0x0 PUSH2 0x5417 DUP3 PUSH2 0x53C0 JUMP JUMPDEST SWAP2 POP PUSH1 0x0 DUP3 EQ ISZERO PUSH2 0x542B JUMPI PUSH2 0x542A PUSH2 0x54E2 JUMP JUMPDEST JUMPDEST PUSH1 0x1 DUP3 SUB SWAP1 POP SWAP2 SWAP1 POP JUMP JUMPDEST PUSH1 0x0 PUSH1 0x2 DUP3 DIV SWAP1 POP PUSH1 0x1 DUP3 AND DUP1 PUSH2 0x544E JUMPI PUSH1 0x7F DUP3 AND SWAP2 POP JUMPDEST PUSH1 0x20 DUP3 LT DUP2 EQ ISZERO PUSH2 0x5462 JUMPI PUSH2 0x5461 PUSH2 0x5511 JUMP JUMPDEST JUMPDEST POP SWAP2 SWAP1 POP JUMP JUMPDEST PUSH2 0x5471 DUP3 PUSH2 0x55B2 JUMP JUMPDEST DUP2 ADD DUP2 DUP2 LT PUSH8 0xFFFFFFFFFFFFFFFF DUP3 GT OR ISZERO PUSH2 0x5490 JUMPI PUSH2 0x548F PUSH2 0x556F JUMP JUMPDEST JUMPDEST DUP1 PUSH1 0x40 MSTORE POP POP POP JUMP JUMPDEST PUSH1 0x0 PUSH2 0x54A4 DUP3 PUSH2 0x53C0 JUMP JUMPDEST SWAP2 POP PUSH32 0xFFFFFFFFFFFFFFFFFFFFFFFFFFFFFFFFFFFFFFFFFFFFFFFFFFFFFFFFFFFFFFFF DUP3 EQ ISZERO PUSH2 0x54D7 JUMPI PUSH2 0x54D6 PUSH2 0x54E2 JUMP JUMPDEST JUMPDEST PUSH1 0x1 DUP3 ADD SWAP1 POP SWAP2 SWAP1 POP JUMP JUMPDEST PUSH32 0x4E487B7100000000000000000000000000000000000000000000000000000000 PUSH1 0x0 MSTORE PUSH1 0x11 PUSH1 0x4 MSTORE PUSH1 0x24 PUSH1 0x0 REVERT JUMPDEST PUSH32 0x4E487B7100000000000000000000000000000000000000000000000000000000 PUSH1 0x0 MSTORE PUSH1 0x22 PUSH1 0x4 MSTORE PUSH1 0x24 PUSH1 0x0 REVERT JUMPDEST PUSH32 0x4E487B7100000000000000000000000000000000000000000000000000000000 PUSH1 0x0 MSTORE PUSH1 0x32 PUSH1 0x4 MSTORE PUSH1 0x24 PUSH1 0x0 REVERT JUMPDEST PUSH32 0x4E487B7100000000000000000000000000000000000000000000000000000000 PUSH1 0x0 MSTORE PUSH1 0x41 PUSH1 0x4 MSTORE PUSH1 0x24 PUSH1 0x0 REVERT JUMPDEST PUSH1 0x0 DUP1 REVERT JUMPDEST PUSH1 0x0 DUP1 REVERT JUMPDEST PUSH1 0x0 DUP1 REVERT JUMPDEST PUSH1 0x0 DUP1 REVERT JUMPDEST PUSH1 0x0 PUSH1 0x1F NOT PUSH1 0x1F DUP4 ADD AND SWAP1 POP SWAP2 SWAP1 POP JUMP JUMPDEST PUSH32 0x537472696E67733A20686578206C656E67746820696E73756666696369656E74 PUSH1 0x0 DUP3 ADD MSTORE POP JUMP JUMPDEST PUSH32 0x436F756E7465723A2064656372656D656E74206F766572666C6F770000000000 PUSH1 0x0 DUP3 ADD MSTORE POP JUMP JUMPDEST PUSH32 0x416363657373436F6E74726F6C3A206163636F756E7420000000000000000000 PUSH1 0x0 DUP3 ADD MSTORE POP JUMP JUMPDEST PUSH32 0x206973206D697373696E6720726F6C6520000000000000000000000000000000 PUSH1 0x0 DUP3 ADD MSTORE POP JUMP JUMPDEST PUSH32 0x416363657373436F6E74726F6C3A2063616E206F6E6C792072656E6F756E6365 PUSH1 0x0 DUP3 ADD MSTORE PUSH32 0x20726F6C657320666F722073656C660000000000000000000000000000000000 PUSH1 0x20 DUP3 ADD MSTORE POP JUMP JUMPDEST PUSH2 0x56BF DUP2 PUSH2 0x534C JUMP JUMPDEST DUP2 EQ PUSH2 0x56CA JUMPI PUSH1 0x0 DUP1 REVERT JUMPDEST POP JUMP JUMPDEST PUSH2 0x56D6 DUP2 PUSH2 0x535E JUMP JUMPDEST DUP2 EQ PUSH2 0x56E1 JUMPI PUSH1 0x0 DUP1 REVERT JUMPDEST POP JUMP JUMPDEST PUSH2 0x56ED DUP2 PUSH2 0x536A JUMP JUMPDEST DUP2 EQ PUSH2 0x56F8 JUMPI PUSH1 0x0 DUP1 REVERT JUMPDEST POP JUMP JUMPDEST PUSH2 0x5704 DUP2 PUSH2 0x5374 JUMP JUMPDEST DUP2 EQ PUSH2 0x570F JUMPI PUSH1 0x0 DUP1 REVERT JUMPDEST POP JUMP JUMPDEST PUSH2 0x571B DUP2 PUSH2 0x53C0 JUMP JUMPDEST DUP2 EQ PUSH2 0x5726 JUMPI PUSH1 0x0 DUP1 REVERT JUMPDEST POP JUMP INVALID LOG2 PUSH5 0x6970667358 0x22 SLT KECCAK256 0xCD 0x29 0xA5 0x2A DUP8 PUSH19 0xEB7513539917C2F5F22AFE4C294C7DDDB0DCC3 0xBE GT REVERT DUP13 PUSH10 0x84FC64736F6C63430008 SMOD STOP CALLER "
		},
		"gasEstimates": {
			"creation": {
				"codeDepositCost": "4473400",
				"executionCost": "infinite",
				"totalCost": "infinite"
			},
			"external": {
				"DEFAULT_ADMIN_ROLE()": "403",
				"changeDoctorForPatient(address,address,address)": "infinite",
				"changeHospitalForDoctor(address,address,address)": "infinite",
				"changeHospitalForPatient(address,address,address)": "infinite",
				"getDoctorData(address)": "infinite",
				"getHospitalData(address)": "infinite",
				"getMedicalRecord(address,uint256)": "infinite",
				"getPharmacyData(address)": "infinite",
				"getPrescriptions(address,uint256)": "infinite",
				"getRoleAdmin(bytes32)": "infinite",
				"getRoleForUser(address)": "infinite",
				"grantRole(bytes32,address)": "infinite",
				"grantRoleVerifiedDoctor(address,address)": "infinite",
				"grantRoleVerifiedPatient(address,address)": "infinite",
				"hasRole(bytes32,address)": "3273",
				"renounceRole(bytes32,address)": "infinite",
				"resetPatientPersonalDetailHash(address,string)": "infinite",
				"resetPrescriptionHash(uint256,address,address,string)": "infinite",
				"retrieveCountForEntities()": "infinite",
				"retrieveDoctorCount()": "2574",
				"retrieveHospitalCount()": "2640",
				"retrieveHospitalSpecificCountOfDoctors(address)": "2963",
				"retrieveHospitalSpecificCountOfPatients(address)": "2985",
				"retrievePatientCount()": "2531",
				"retrievePatientData(address)": "infinite",
				"retrievePharmacyCount()": "2555",
				"revokeRole(bytes32,address)": "infinite",
				"setMedicalRecordByDoctor(string,address,address)": "infinite",
				"setMedicalRecordByPatient(string,address)": "infinite",
				"setMedicalRecordVerificationStatus(uint256,address,address,bool)": "infinite",
				"setPrescriptionRecordByDoctor(string,address,address)": "infinite",
				"storeDoctor(string,string,address,address)": "infinite",
				"storeHospital(string,string,address)": "infinite",
				"storePatient(string,string,address,address,address)": "infinite",
				"storePharmacy(string,string,address)": "infinite",
				"stringToBytes32(string)": "infinite",
				"supportsInterface(bytes4)": "774",
				"updateDoctorPersonalDetailHash(string,address)": "infinite",
				"updateHospitalPersonalDetailHash(string,address)": "infinite",
				"updatePatientPersonalDetailHash(string,address)": "infinite",
				"updatePharmacyPersonalDetailHash(string,address)": "infinite"
			}
		},
		"methodIdentifiers": {
			"DEFAULT_ADMIN_ROLE()": "a217fddf",
			"changeDoctorForPatient(address,address,address)": "5c7231ef",
			"changeHospitalForDoctor(address,address,address)": "a84ceab7",
			"changeHospitalForPatient(address,address,address)": "45118d8e",
			"getDoctorData(address)": "2e8ff13c",
			"getHospitalData(address)": "e8300b1d",
			"getMedicalRecord(address,uint256)": "eea9c37b",
			"getPharmacyData(address)": "e21eadcc",
			"getPrescriptions(address,uint256)": "a4be9e6a",
			"getRoleAdmin(bytes32)": "248a9ca3",
			"getRoleForUser(address)": "d6e7b3f0",
			"grantRole(bytes32,address)": "2f2ff15d",
			"grantRoleVerifiedDoctor(address,address)": "e37e9696",
			"grantRoleVerifiedPatient(address,address)": "b9a47e90",
			"hasRole(bytes32,address)": "91d14854",
			"renounceRole(bytes32,address)": "36568abe",
			"resetPatientPersonalDetailHash(address,string)": "974eecb5",
			"resetPrescriptionHash(uint256,address,address,string)": "e3c3ee64",
			"retrieveCountForEntities()": "6daca1ee",
			"retrieveDoctorCount()": "edae7fb5",
			"retrieveHospitalCount()": "f98d5d25",
			"retrieveHospitalSpecificCountOfDoctors(address)": "c12878c3",
			"retrieveHospitalSpecificCountOfPatients(address)": "8b55befc",
			"retrievePatientCount()": "73e830b4",
			"retrievePatientData(address)": "16d8b45b",
			"retrievePharmacyCount()": "0a086b15",
			"revokeRole(bytes32,address)": "d547741f",
			"setMedicalRecordByDoctor(string,address,address)": "f1628e9e",
			"setMedicalRecordByPatient(string,address)": "149e1957",
			"setMedicalRecordVerificationStatus(uint256,address,address,bool)": "8efc2838",
			"setPrescriptionRecordByDoctor(string,address,address)": "593d34bb",
			"storeDoctor(string,string,address,address)": "4edf897f",
			"storeHospital(string,string,address)": "0b600345",
			"storePatient(string,string,address,address,address)": "7d379853",
			"storePharmacy(string,string,address)": "c99ead64",
			"stringToBytes32(string)": "cfb51928",
			"supportsInterface(bytes4)": "01ffc9a7",
			"updateDoctorPersonalDetailHash(string,address)": "ce65e5e3",
			"updateHospitalPersonalDetailHash(string,address)": "5bf9c0e3",
			"updatePatientPersonalDetailHash(string,address)": "a9909db9",
			"updatePharmacyPersonalDetailHash(string,address)": "cdca8f7c"
		}
	},
	"abi": [
		{
			"inputs": [],
			"stateMutability": "nonpayable",
			"type": "constructor"
		},
		{
			"anonymous": false,
			"inputs": [
				{
					"indexed": true,
					"internalType": "bytes32",
					"name": "role",
					"type": "bytes32"
				},
				{
					"indexed": true,
					"internalType": "bytes32",
					"name": "previousAdminRole",
					"type": "bytes32"
				},
				{
					"indexed": true,
					"internalType": "bytes32",
					"name": "newAdminRole",
					"type": "bytes32"
				}
			],
			"name": "RoleAdminChanged",
			"type": "event"
		},
		{
			"anonymous": false,
			"inputs": [
				{
					"indexed": true,
					"internalType": "bytes32",
					"name": "role",
					"type": "bytes32"
				},
				{
					"indexed": true,
					"internalType": "address",
					"name": "account",
					"type": "address"
				},
				{
					"indexed": true,
					"internalType": "address",
					"name": "sender",
					"type": "address"
				}
			],
			"name": "RoleGranted",
			"type": "event"
		},
		{
			"anonymous": false,
			"inputs": [
				{
					"indexed": true,
					"internalType": "bytes32",
					"name": "role",
					"type": "bytes32"
				},
				{
					"indexed": true,
					"internalType": "address",
					"name": "account",
					"type": "address"
				},
				{
					"indexed": true,
					"internalType": "address",
					"name": "sender",
					"type": "address"
				}
			],
			"name": "RoleRevoked",
			"type": "event"
		},
		{
			"inputs": [],
			"name": "DEFAULT_ADMIN_ROLE",
			"outputs": [
				{
					"internalType": "bytes32",
					"name": "",
					"type": "bytes32"
				}
			],
			"stateMutability": "view",
			"type": "function"
		},
		{
			"inputs": [
				{
					"internalType": "address",
					"name": "_previousDoctorAddress",
					"type": "address"
				},
				{
					"internalType": "address",
					"name": "_newDoctorAddress",
					"type": "address"
				},
				{
					"internalType": "address",
					"name": "_walletAddress",
					"type": "address"
				}
			],
			"name": "changeDoctorForPatient",
			"outputs": [
				{
					"internalType": "bool",
					"name": "status",
					"type": "bool"
				}
			],
			"stateMutability": "nonpayable",
			"type": "function"
		},
		{
			"inputs": [
				{
					"internalType": "address",
					"name": "_previousHospitalAddress",
					"type": "address"
				},
				{
					"internalType": "address",
					"name": "_newHospitalAddress",
					"type": "address"
				},
				{
					"internalType": "address",
					"name": "_walletAddress",
					"type": "address"
				}
			],
			"name": "changeHospitalForDoctor",
			"outputs": [
				{
					"internalType": "bool",
					"name": "status",
					"type": "bool"
				}
			],
			"stateMutability": "nonpayable",
			"type": "function"
		},
		{
			"inputs": [
				{
					"internalType": "address",
					"name": "_previousHospitalAddress",
					"type": "address"
				},
				{
					"internalType": "address",
					"name": "_newHospitalAddress",
					"type": "address"
				},
				{
					"internalType": "address",
					"name": "_walletAddress",
					"type": "address"
				}
			],
			"name": "changeHospitalForPatient",
			"outputs": [
				{
					"internalType": "bool",
					"name": "status",
					"type": "bool"
				}
			],
			"stateMutability": "nonpayable",
			"type": "function"
		},
		{
			"inputs": [
				{
					"internalType": "address",
					"name": "_doctorAddress",
					"type": "address"
				}
			],
			"name": "getDoctorData",
			"outputs": [
				{
					"internalType": "string",
					"name": "name",
					"type": "string"
				},
				{
					"internalType": "string",
					"name": "doctorDetails",
					"type": "string"
				},
				{
					"internalType": "address",
					"name": "walletAddress",
					"type": "address"
				},
				{
					"internalType": "uint256",
					"name": "patientCount",
					"type": "uint256"
				}
			],
			"stateMutability": "view",
			"type": "function"
		},
		{
			"inputs": [
				{
					"internalType": "address",
					"name": "_hospitalAddress",
					"type": "address"
				}
			],
			"name": "getHospitalData",
			"outputs": [
				{
					"internalType": "string",
					"name": "nameAdmin",
					"type": "string"
				},
				{
					"internalType": "string",
					"name": "hospitalDetails",
					"type": "string"
				},
				{
					"internalType": "address",
					"name": "walletAddress",
					"type": "address"
				},
				{
					"internalType": "uint256",
					"name": "doctorCountInHospital",
					"type": "uint256"
				},
				{
					"internalType": "uint256",
					"name": "patientCountInHospital",
					"type": "uint256"
				}
			],
			"stateMutability": "view",
			"type": "function"
		},
		{
			"inputs": [
				{
					"internalType": "address",
					"name": "_walletAddress",
					"type": "address"
				},
				{
					"internalType": "uint256",
					"name": "_recordPosition",
					"type": "uint256"
				}
			],
			"name": "getMedicalRecord",
			"outputs": [
				{
					"components": [
						{
							"internalType": "uint256",
							"name": "index",
							"type": "uint256"
						},
						{
							"internalType": "string",
							"name": "patientRecordHash",
							"type": "string"
						},
						{
							"internalType": "bool",
							"name": "verified",
							"type": "bool"
						}
					],
					"internalType": "struct MainContract.MedicalRecord",
					"name": "value",
					"type": "tuple"
				},
				{
					"internalType": "uint256",
					"name": "medicalRecordCount",
					"type": "uint256"
				}
			],
			"stateMutability": "view",
			"type": "function"
		},
		{
			"inputs": [
				{
					"internalType": "address",
					"name": "_walletAddress",
					"type": "address"
				}
			],
			"name": "getPharmacyData",
			"outputs": [
				{
					"internalType": "string",
					"name": "name",
					"type": "string"
				},
				{
					"internalType": "string",
					"name": "pharmacyDetails",
					"type": "string"
				},
				{
					"internalType": "address",
					"name": "walletAddress",
					"type": "address"
				}
			],
			"stateMutability": "view",
			"type": "function"
		},
		{
			"inputs": [
				{
					"internalType": "address",
					"name": "_walletAddress",
					"type": "address"
				},
				{
					"internalType": "uint256",
					"name": "_recordPosition",
					"type": "uint256"
				}
			],
			"name": "getPrescriptions",
			"outputs": [
				{
					"components": [
						{
							"internalType": "uint256",
							"name": "index",
							"type": "uint256"
						},
						{
							"internalType": "string",
							"name": "prescriptionHash",
							"type": "string"
						},
						{
							"internalType": "bool",
							"name": "verified",
							"type": "bool"
						}
					],
					"internalType": "struct MainContract.Prescription",
					"name": "value",
					"type": "tuple"
				},
				{
					"internalType": "uint256",
					"name": "medicalRecordCount",
					"type": "uint256"
				}
			],
			"stateMutability": "view",
			"type": "function"
		},
		{
			"inputs": [
				{
					"internalType": "bytes32",
					"name": "role",
					"type": "bytes32"
				}
			],
			"name": "getRoleAdmin",
			"outputs": [
				{
					"internalType": "bytes32",
					"name": "",
					"type": "bytes32"
				}
			],
			"stateMutability": "view",
			"type": "function"
		},
		{
			"inputs": [
				{
					"internalType": "address",
					"name": "_walletAddress",
					"type": "address"
				}
			],
			"name": "getRoleForUser",
			"outputs": [
				{
					"internalType": "string",
					"name": "role",
					"type": "string"
				}
			],
			"stateMutability": "view",
			"type": "function"
		},
		{
			"inputs": [
				{
					"internalType": "bytes32",
					"name": "role",
					"type": "bytes32"
				},
				{
					"internalType": "address",
					"name": "account",
					"type": "address"
				}
			],
			"name": "grantRole",
			"outputs": [],
			"stateMutability": "nonpayable",
			"type": "function"
		},
		{
			"inputs": [
				{
					"internalType": "address",
					"name": "_addressOfHospitalAdmin",
					"type": "address"
				},
				{
					"internalType": "address",
					"name": "_addressOfDoctor",
					"type": "address"
				}
			],
			"name": "grantRoleVerifiedDoctor",
			"outputs": [
				{
					"internalType": "bool",
					"name": "success",
					"type": "bool"
				}
			],
			"stateMutability": "nonpayable",
			"type": "function"
		},
		{
			"inputs": [
				{
					"internalType": "address",
					"name": "_addressOfAdmin",
					"type": "address"
				},
				{
					"internalType": "address",
					"name": "_addressOfPatient",
					"type": "address"
				}
			],
			"name": "grantRoleVerifiedPatient",
			"outputs": [
				{
					"internalType": "bool",
					"name": "success",
					"type": "bool"
				}
			],
			"stateMutability": "nonpayable",
			"type": "function"
		},
		{
			"inputs": [
				{
					"internalType": "bytes32",
					"name": "role",
					"type": "bytes32"
				},
				{
					"internalType": "address",
					"name": "account",
					"type": "address"
				}
			],
			"name": "hasRole",
			"outputs": [
				{
					"internalType": "bool",
					"name": "",
					"type": "bool"
				}
			],
			"stateMutability": "view",
			"type": "function"
		},
		{
			"inputs": [
				{
					"internalType": "bytes32",
					"name": "role",
					"type": "bytes32"
				},
				{
					"internalType": "address",
					"name": "account",
					"type": "address"
				}
			],
			"name": "renounceRole",
			"outputs": [],
			"stateMutability": "nonpayable",
			"type": "function"
		},
		{
			"inputs": [
				{
					"internalType": "address",
					"name": "_walletAddress",
					"type": "address"
				},
				{
					"internalType": "string",
					"name": "_personalDetails",
					"type": "string"
				}
			],
			"name": "resetPatientPersonalDetailHash",
			"outputs": [
				{
					"internalType": "bool",
					"name": "success",
					"type": "bool"
				}
			],
			"stateMutability": "nonpayable",
			"type": "function"
		},
		{
			"inputs": [
				{
					"internalType": "uint256",
					"name": "index",
					"type": "uint256"
				},
				{
					"internalType": "address",
					"name": "_patientWalletAddress",
					"type": "address"
				},
				{
					"internalType": "address",
					"name": "_pharmacyWalletAddress",
					"type": "address"
				},
				{
					"internalType": "string",
					"name": "_medicalRecordHash",
					"type": "string"
				}
			],
			"name": "resetPrescriptionHash",
			"outputs": [
				{
					"internalType": "bool",
					"name": "status",
					"type": "bool"
				}
			],
			"stateMutability": "nonpayable",
			"type": "function"
		},
		{
			"inputs": [],
			"name": "retrieveCountForEntities",
			"outputs": [
				{
					"internalType": "uint256",
					"name": "patientCount",
					"type": "uint256"
				},
				{
					"internalType": "uint256",
					"name": "doctorCount",
					"type": "uint256"
				},
				{
					"internalType": "uint256",
					"name": "hospitalCount",
					"type": "uint256"
				},
				{
					"internalType": "uint256",
					"name": "pharmacyCount",
					"type": "uint256"
				}
			],
			"stateMutability": "view",
			"type": "function"
		},
		{
			"inputs": [],
			"name": "retrieveDoctorCount",
			"outputs": [
				{
					"internalType": "uint256",
					"name": "doctorCount",
					"type": "uint256"
				}
			],
			"stateMutability": "view",
			"type": "function"
		},
		{
			"inputs": [],
			"name": "retrieveHospitalCount",
			"outputs": [
				{
					"internalType": "uint256",
					"name": "hospitalCount",
					"type": "uint256"
				}
			],
			"stateMutability": "view",
			"type": "function"
		},
		{
			"inputs": [
				{
					"internalType": "address",
					"name": "_hospitalAddress",
					"type": "address"
				}
			],
			"name": "retrieveHospitalSpecificCountOfDoctors",
			"outputs": [
				{
					"internalType": "uint256",
					"name": "doctorCountInHospital",
					"type": "uint256"
				}
			],
			"stateMutability": "view",
			"type": "function"
		},
		{
			"inputs": [
				{
					"internalType": "address",
					"name": "_hospitalAddress",
					"type": "address"
				}
			],
			"name": "retrieveHospitalSpecificCountOfPatients",
			"outputs": [
				{
					"internalType": "uint256",
					"name": "patientCountInHospital",
					"type": "uint256"
				}
			],
			"stateMutability": "view",
			"type": "function"
		},
		{
			"inputs": [],
			"name": "retrievePatientCount",
			"outputs": [
				{
					"internalType": "uint256",
					"name": "patientCount",
					"type": "uint256"
				}
			],
			"stateMutability": "view",
			"type": "function"
		},
		{
			"inputs": [
				{
					"internalType": "address",
					"name": "_walletAddress",
					"type": "address"
				}
			],
			"name": "retrievePatientData",
			"outputs": [
				{
					"internalType": "string",
					"name": "name",
					"type": "string"
				},
				{
					"internalType": "string",
					"name": "personalDetails",
					"type": "string"
				},
				{
					"internalType": "address",
					"name": "hospitalAddress",
					"type": "address"
				},
				{
					"internalType": "address",
					"name": "walletAddress",
					"type": "address"
				}
			],
			"stateMutability": "view",
			"type": "function"
		},
		{
			"inputs": [],
			"name": "retrievePharmacyCount",
			"outputs": [
				{
					"internalType": "uint256",
					"name": "pharmacyCount",
					"type": "uint256"
				}
			],
			"stateMutability": "view",
			"type": "function"
		},
		{
			"inputs": [
				{
					"internalType": "bytes32",
					"name": "role",
					"type": "bytes32"
				},
				{
					"internalType": "address",
					"name": "account",
					"type": "address"
				}
			],
			"name": "revokeRole",
			"outputs": [],
			"stateMutability": "nonpayable",
			"type": "function"
		},
		{
			"inputs": [
				{
					"internalType": "string",
					"name": "_medicalRecordHash",
					"type": "string"
				},
				{
					"internalType": "address",
					"name": "_walletAddress",
					"type": "address"
				},
				{
					"internalType": "address",
					"name": "_doctorWalletAddress",
					"type": "address"
				}
			],
			"name": "setMedicalRecordByDoctor",
			"outputs": [
				{
					"internalType": "bool",
					"name": "status",
					"type": "bool"
				}
			],
			"stateMutability": "nonpayable",
			"type": "function"
		},
		{
			"inputs": [
				{
					"internalType": "string",
					"name": "_medicalRecordHash",
					"type": "string"
				},
				{
					"internalType": "address",
					"name": "_walletAddress",
					"type": "address"
				}
			],
			"name": "setMedicalRecordByPatient",
			"outputs": [
				{
					"internalType": "bool",
					"name": "status",
					"type": "bool"
				}
			],
			"stateMutability": "nonpayable",
			"type": "function"
		},
		{
			"inputs": [
				{
					"internalType": "uint256",
					"name": "index",
					"type": "uint256"
				},
				{
					"internalType": "address",
					"name": "_patientWalletAddress",
					"type": "address"
				},
				{
					"internalType": "address",
					"name": "_doctorWalletAddress",
					"type": "address"
				},
				{
					"internalType": "bool",
					"name": "_verified",
					"type": "bool"
				}
			],
			"name": "setMedicalRecordVerificationStatus",
			"outputs": [
				{
					"internalType": "bool",
					"name": "status",
					"type": "bool"
				}
			],
			"stateMutability": "nonpayable",
			"type": "function"
		},
		{
			"inputs": [
				{
					"internalType": "string",
					"name": "_prescriptionRecordHash",
					"type": "string"
				},
				{
					"internalType": "address",
					"name": "_walletAddress",
					"type": "address"
				},
				{
					"internalType": "address",
					"name": "_doctorWalletAddress",
					"type": "address"
				}
			],
			"name": "setPrescriptionRecordByDoctor",
			"outputs": [
				{
					"internalType": "bool",
					"name": "status",
					"type": "bool"
				}
			],
			"stateMutability": "nonpayable",
			"type": "function"
		},
		{
			"inputs": [
				{
					"internalType": "string",
					"name": "name",
					"type": "string"
				},
				{
					"internalType": "string",
					"name": "_personalDetails",
					"type": "string"
				},
				{
					"internalType": "address",
					"name": "_hospitalAddress",
					"type": "address"
				},
				{
					"internalType": "address",
					"name": "_walletAddress",
					"type": "address"
				}
			],
			"name": "storeDoctor",
			"outputs": [
				{
					"internalType": "bool",
					"name": "status",
					"type": "bool"
				}
			],
			"stateMutability": "nonpayable",
			"type": "function"
		},
		{
			"inputs": [
				{
					"internalType": "string",
					"name": "_name",
					"type": "string"
				},
				{
					"internalType": "string",
					"name": "_hospitalDetails",
					"type": "string"
				},
				{
					"internalType": "address",
					"name": "_walletAddress",
					"type": "address"
				}
			],
			"name": "storeHospital",
			"outputs": [
				{
					"internalType": "bool",
					"name": "status",
					"type": "bool"
				}
			],
			"stateMutability": "nonpayable",
			"type": "function"
		},
		{
			"inputs": [
				{
					"internalType": "string",
					"name": "_name",
					"type": "string"
				},
				{
					"internalType": "string",
					"name": "_personalDetails",
					"type": "string"
				},
				{
					"internalType": "address",
					"name": "_hospitalAddress",
					"type": "address"
				},
				{
					"internalType": "address",
					"name": "_doctorAddress",
					"type": "address"
				},
				{
					"internalType": "address",
					"name": "_walletAddress",
					"type": "address"
				}
			],
			"name": "storePatient",
			"outputs": [
				{
					"internalType": "bool",
					"name": "status",
					"type": "bool"
				}
			],
			"stateMutability": "nonpayable",
			"type": "function"
		},
		{
			"inputs": [
				{
					"internalType": "string",
					"name": "name",
					"type": "string"
				},
				{
					"internalType": "string",
					"name": "_personalDetails",
					"type": "string"
				},
				{
					"internalType": "address",
					"name": "_walletAddress",
					"type": "address"
				}
			],
			"name": "storePharmacy",
			"outputs": [
				{
					"internalType": "bool",
					"name": "status",
					"type": "bool"
				}
			],
			"stateMutability": "nonpayable",
			"type": "function"
		},
		{
			"inputs": [
				{
					"internalType": "string",
					"name": "source",
					"type": "string"
				}
			],
			"name": "stringToBytes32",
			"outputs": [
				{
					"internalType": "bytes32",
					"name": "result",
					"type": "bytes32"
				}
			],
			"stateMutability": "pure",
			"type": "function"
		},
		{
			"inputs": [
				{
					"internalType": "bytes4",
					"name": "interfaceId",
					"type": "bytes4"
				}
			],
			"name": "supportsInterface",
			"outputs": [
				{
					"internalType": "bool",
					"name": "",
					"type": "bool"
				}
			],
			"stateMutability": "view",
			"type": "function"
		},
		{
			"inputs": [
				{
					"internalType": "string",
					"name": "_personalDetails",
					"type": "string"
				},
				{
					"internalType": "address",
					"name": "_walletAddress",
					"type": "address"
				}
			],
			"name": "updateDoctorPersonalDetailHash",
			"outputs": [
				{
					"internalType": "bool",
					"name": "status",
					"type": "bool"
				}
			],
			"stateMutability": "nonpayable",
			"type": "function"
		},
		{
			"inputs": [
				{
					"internalType": "string",
					"name": "_personalDetails",
					"type": "string"
				},
				{
					"internalType": "address",
					"name": "_walletAddress",
					"type": "address"
				}
			],
			"name": "updateHospitalPersonalDetailHash",
			"outputs": [
				{
					"internalType": "bool",
					"name": "status",
					"type": "bool"
				}
			],
			"stateMutability": "nonpayable",
			"type": "function"
		},
		{
			"inputs": [
				{
					"internalType": "string",
					"name": "_personalDetails",
					"type": "string"
				},
				{
					"internalType": "address",
					"name": "_walletAddress",
					"type": "address"
				}
			],
			"name": "updatePatientPersonalDetailHash",
			"outputs": [
				{
					"internalType": "bool",
					"name": "status",
					"type": "bool"
				}
			],
			"stateMutability": "nonpayable",
			"type": "function"
		},
		{
			"inputs": [
				{
					"internalType": "string",
					"name": "_personalDetails",
					"type": "string"
				},
				{
					"internalType": "address",
					"name": "_walletAddress",
					"type": "address"
				}
			],
			"name": "updatePharmacyPersonalDetailHash",
			"outputs": [
				{
					"internalType": "bool",
					"name": "status",
					"type": "bool"
				}
			],
			"stateMutability": "nonpayable",
			"type": "function"
		}
	]
}