{
  "contractName": "Doctor",
  "abi": [
    {
      "anonymous": false,
      "inputs": [
        {
          "indexed": false,
          "internalType": "string",
          "name": "name",
          "type": "string"
        },
        {
          "indexed": false,
          "internalType": "uint256",
          "name": "empIdIndex",
          "type": "uint256"
        }
      ],
      "name": "LogDeleteDoctor",
      "type": "event"
    },
    {
      "anonymous": false,
      "inputs": [
        {
          "indexed": false,
          "internalType": "string",
          "name": "name",
          "type": "string"
        },
        {
          "indexed": false,
          "internalType": "string",
          "name": "personalDetails",
          "type": "string"
        },
        {
          "indexed": false,
          "internalType": "address",
          "name": "owner",
          "type": "address"
        }
      ],
      "name": "LogDoctor",
      "type": "event"
    },
    {
      "anonymous": false,
      "inputs": [
        {
          "indexed": false,
          "internalType": "string",
          "name": "name",
          "type": "string"
        },
        {
          "indexed": false,
          "internalType": "string",
          "name": "personalDetails",
          "type": "string"
        }
      ],
      "name": "LogUpdateDoctor",
      "type": "event"
    },
    {
      "anonymous": false,
      "inputs": [
        {
          "indexed": true,
          "internalType": "bytes32",
          "name": "role",
          "type": "bytes32"
        },
        {
          "indexed": true,
          "internalType": "bytes32",
          "name": "previousAdminRole",
          "type": "bytes32"
        },
        {
          "indexed": true,
          "internalType": "bytes32",
          "name": "newAdminRole",
          "type": "bytes32"
        }
      ],
      "name": "RoleAdminChanged",
      "type": "event"
    },
    {
      "anonymous": false,
      "inputs": [
        {
          "indexed": true,
          "internalType": "bytes32",
          "name": "role",
          "type": "bytes32"
        },
        {
          "indexed": true,
          "internalType": "address",
          "name": "account",
          "type": "address"
        },
        {
          "indexed": true,
          "internalType": "address",
          "name": "sender",
          "type": "address"
        }
      ],
      "name": "RoleGranted",
      "type": "event"
    },
    {
      "anonymous": false,
      "inputs": [
        {
          "indexed": true,
          "internalType": "bytes32",
          "name": "role",
          "type": "bytes32"
        },
        {
          "indexed": true,
          "internalType": "address",
          "name": "account",
          "type": "address"
        },
        {
          "indexed": true,
          "internalType": "address",
          "name": "sender",
          "type": "address"
        }
      ],
      "name": "RoleRevoked",
      "type": "event"
    },
    {
      "inputs": [],
      "name": "DEFAULT_ADMIN_ROLE",
      "outputs": [
        {
          "internalType": "bytes32",
          "name": "",
          "type": "bytes32"
        }
      ],
      "stateMutability": "view",
      "type": "function",
      "constant": true
    },
    {
      "inputs": [
        {
          "internalType": "bytes32",
          "name": "role",
          "type": "bytes32"
        }
      ],
      "name": "getRoleAdmin",
      "outputs": [
        {
          "internalType": "bytes32",
          "name": "",
          "type": "bytes32"
        }
      ],
      "stateMutability": "view",
      "type": "function",
      "constant": true
    },
    {
      "inputs": [
        {
          "internalType": "bytes32",
          "name": "role",
          "type": "bytes32"
        },
        {
          "internalType": "address",
          "name": "account",
          "type": "address"
        }
      ],
      "name": "grantRole",
      "outputs": [],
      "stateMutability": "nonpayable",
      "type": "function"
    },
    {
      "inputs": [
        {
          "internalType": "bytes32",
          "name": "role",
          "type": "bytes32"
        },
        {
          "internalType": "address",
          "name": "account",
          "type": "address"
        }
      ],
      "name": "hasRole",
      "outputs": [
        {
          "internalType": "bool",
          "name": "",
          "type": "bool"
        }
      ],
      "stateMutability": "view",
      "type": "function",
      "constant": true
    },
    {
      "inputs": [
        {
          "internalType": "bytes32",
          "name": "role",
          "type": "bytes32"
        },
        {
          "internalType": "address",
          "name": "account",
          "type": "address"
        }
      ],
      "name": "renounceRole",
      "outputs": [],
      "stateMutability": "nonpayable",
      "type": "function"
    },
    {
      "inputs": [
        {
          "internalType": "bytes32",
          "name": "role",
          "type": "bytes32"
        },
        {
          "internalType": "address",
          "name": "account",
          "type": "address"
        }
      ],
      "name": "revokeRole",
      "outputs": [],
      "stateMutability": "nonpayable",
      "type": "function"
    },
    {
      "inputs": [
        {
          "internalType": "bytes4",
          "name": "interfaceId",
          "type": "bytes4"
        }
      ],
      "name": "supportsInterface",
      "outputs": [
        {
          "internalType": "bool",
          "name": "",
          "type": "bool"
        }
      ],
      "stateMutability": "view",
      "type": "function",
      "constant": true
    },
    {
      "inputs": [
        {
          "internalType": "string",
          "name": "name",
          "type": "string"
        },
        {
          "internalType": "string",
          "name": "_personalDetails",
          "type": "string"
        },
        {
          "internalType": "address",
          "name": "_hospitalAddress",
          "type": "address"
        },
        {
          "internalType": "address",
          "name": "_walletAddress",
          "type": "address"
        }
      ],
      "name": "registerDoctor",
      "outputs": [
        {
          "internalType": "string",
          "name": "status",
          "type": "string"
        }
      ],
      "stateMutability": "nonpayable",
      "type": "function"
    },
    {
      "inputs": [
        {
          "internalType": "address",
          "name": "_walletAddress",
          "type": "address"
        },
        {
          "internalType": "address",
          "name": "_addressOfHigherAuthority",
          "type": "address"
        }
      ],
      "name": "getDoctorData",
      "outputs": [
        {
          "internalType": "string",
          "name": "name",
          "type": "string"
        },
        {
          "internalType": "string",
          "name": "personalDetails",
          "type": "string"
        },
        {
          "internalType": "address",
          "name": "hospitalAddress",
          "type": "address"
        }
      ],
      "stateMutability": "view",
      "type": "function",
      "constant": true
    }
  ],
  "bytecode": "0x608060405234801561001057600080fd5b50610e21806100206000396000f3fe608060405234801561001057600080fd5b50600436106100935760003560e01c80634160549c116100665780634160549c146101095780638808511e1461012b57806391d148541461014b578063a217fddf1461015e578063d547741f1461016657610093565b806301ffc9a714610098578063248a9ca3146100c15780632f2ff15d146100e157806336568abe146100f6575b600080fd5b6100ab6100a6366004610a00565b610179565b6040516100b89190610bec565b60405180910390f35b6100d46100cf3660046109c6565b6101a6565b6040516100b89190610bf7565b6100f46100ef3660046109de565b6101bb565b005b6100f46101043660046109de565b6101e4565b61011c610117366004610994565b610233565b6040516100b893929190610c13565b61013e610139366004610a28565b610384565b6040516100b89190610c00565b6100ab6101593660046109de565b6104ca565b6100d46104f3565b6100f46101743660046109de565b6104f8565b60006001600160e01b03198216637965db0b60e01b148061019e575061019e82610517565b90505b919050565b60009081526020819052604090206001015490565b6101c4826101a6565b6101d5816101d0610530565b610534565b6101df8383610598565b505050565b6101ec610530565b6001600160a01b0316816001600160a01b0316146102255760405162461bcd60e51b815260040161021c90610cab565b60405180910390fd5b61022f828261061d565b5050565b6001600160a01b0380831660009081526001602081905260408220600281015481546060958695948401921690839061026b90610d84565b80601f016020809104026020016040519081016040528092919081815260200182805461029790610d84565b80156102e45780601f106102b9576101008083540402835291602001916102e4565b820191906000526020600020905b8154815290600101906020018083116102c757829003601f168201915b505050505092508180546102f790610d84565b80601f016020809104026020016040519081016040528092919081815260200182805461032390610d84565b80156103705780601f1061034557610100808354040283529160200191610370565b820191906000526020600020905b81548152906001019060200180831161035357829003601f168201915b505050505091509250925092509250925092565b60606103b07fc9c8e67a61d2e7371df46522b44051b955c16bf4b713ef44e1373b25bfcd80b2836106a0565b6001600160a01b038216600090815260016020908152604090912086516103d992880190610863565b506001600160a01b0382811660008181526001602081815260409092206003810180546001600160a01b03199081169095179055600281018054909416948816949094179092558651610433939092019190870190610863565b506001600160a01b03821660009081526001602081905260409182902091517fea96d2980603e9de4ec8d8ebe610863ae5d1c74dca75f4b5d6450c5ac4c3176692610485929091908201908690610c51565b60405180910390a15060408051808201909152601e81527f444f43544f525f524547495354455245445f5355434345535346554c4c5900006020820152949350505050565b6000918252602082815260408084206001600160a01b0393909316845291905290205460ff1690565b600081565b610501826101a6565b61050d816101d0610530565b6101df838361061d565b6001600160e01b031981166301ffc9a760e01b14919050565b3390565b61053e82826104ca565b61022f57610556816001600160a01b031660146106aa565b6105618360206106aa565b604051602001610572929190610b77565b60408051601f198184030181529082905262461bcd60e51b825261021c91600401610c00565b6105a282826104ca565b61022f576000828152602081815260408083206001600160a01b03851684529091529020805460ff191660011790556105d9610530565b6001600160a01b0316816001600160a01b0316837f2f8788117e7eff1d82e926ec794901d17c78024a50270940304540a733656f0d60405160405180910390a45050565b61062782826104ca565b1561022f576000828152602081815260408083206001600160a01b03851684529091529020805460ff1916905561065c610530565b6001600160a01b0316816001600160a01b0316837ff6391f5c32d9c69d2a47ea670b442974b53935d1edc7fd64eb21e047a839171b60405160405180910390a45050565b61022f8282610598565b606060006106b9836002610d1e565b6106c4906002610d06565b67ffffffffffffffff8111156106ea57634e487b7160e01b600052604160045260246000fd5b6040519080825280601f01601f191660200182016040528015610714576020820181803683370190505b509050600360fc1b8160008151811061073d57634e487b7160e01b600052603260045260246000fd5b60200101906001600160f81b031916908160001a905350600f60fb1b8160018151811061077a57634e487b7160e01b600052603260045260246000fd5b60200101906001600160f81b031916908160001a905350600061079e846002610d1e565b6107a9906001610d06565b90505b600181111561083d576f181899199a1a9b1b9c1cb0b131b232b360811b85600f16601081106107eb57634e487b7160e01b600052603260045260246000fd5b1a60f81b82828151811061080f57634e487b7160e01b600052603260045260246000fd5b60200101906001600160f81b031916908160001a90535060049490941c9361083681610d6d565b90506107ac565b50831561085c5760405162461bcd60e51b815260040161021c90610c76565b9392505050565b82805461086f90610d84565b90600052602060002090601f01602090048101928261089157600085556108d7565b82601f106108aa57805160ff19168380011785556108d7565b828001600101855582156108d7579182015b828111156108d75782518255916020019190600101906108bc565b506108e39291506108e7565b5090565b5b808211156108e357600081556001016108e8565b80356001600160a01b03811681146101a157600080fd5b600082601f830112610923578081fd5b813567ffffffffffffffff8082111561093e5761093e610dd5565b604051601f8301601f19168101602001828111828210171561096257610962610dd5565b604052828152848301602001861015610979578384fd5b82602086016020830137918201602001929092529392505050565b600080604083850312156109a6578182fd5b6109af836108fc565b91506109bd602084016108fc565b90509250929050565b6000602082840312156109d7578081fd5b5035919050565b600080604083850312156109f0578182fd5b823591506109bd602084016108fc565b600060208284031215610a11578081fd5b81356001600160e01b03198116811461085c578182fd5b60008060008060808587031215610a3d578182fd5b843567ffffffffffffffff80821115610a54578384fd5b610a6088838901610913565b95506020870135915080821115610a75578384fd5b50610a8287828801610913565b935050610a91604086016108fc565b9150610a9f606086016108fc565b905092959194509250565b60008151808452610ac2816020860160208601610d3d565b601f01601f19169290920160200192915050565b805460009060028104600180831680610af057607f831692505b6020808410821415610b1057634e487b7160e01b86526022600452602486fd5b610b1a8489610bf7565b828015610b2e5760018114610b3f57610b6a565b60ff19871682528282019750610b6a565b610b4889610cfa565b60005b87811015610b6457815484820152908601908401610b4b565b83019850505b5050505050505092915050565b60007f416363657373436f6e74726f6c3a206163636f756e742000000000000000000082528351610baf816017850160208801610d3d565b7001034b99036b4b9b9b4b733903937b6329607d1b6017918401918201528351610be0816028840160208801610d3d565b01602801949350505050565b901515815260200190565b90815260200190565b60006020825261085c6020830184610aaa565b600060608252610c266060830186610aaa565b8281036020840152610c388186610aaa565b91505060018060a01b0383166040830152949350505050565b600060608252610c646060830186610ad6565b8281036020840152610c388186610ad6565b6020808252818101527f537472696e67733a20686578206c656e67746820696e73756666696369656e74604082015260600190565b6020808252602f908201527f416363657373436f6e74726f6c3a2063616e206f6e6c792072656e6f756e636560408201526e103937b632b9903337b91039b2b63360891b606082015260800190565b60009081526020902090565b60008219821115610d1957610d19610dbf565b500190565b6000816000190483118215151615610d3857610d38610dbf565b500290565b60005b83811015610d58578181015183820152602001610d40565b83811115610d67576000848401525b50505050565b600081610d7c57610d7c610dbf565b506000190190565b600281046001821680610d9857607f821691505b60208210811415610db957634e487b7160e01b600052602260045260246000fd5b50919050565b634e487b7160e01b600052601160045260246000fd5b634e487b7160e01b600052604160045260246000fdfea264697066735822122099ab0c50d58de81e484049ce64a2edbae0072e3c6ee19c052be51b7f15d3339364736f6c63430008000033",
  "immutableReferences": {},
  "source": "pragma solidity ^0.8.0;\r\n\r\n//SPDX-License-Identifier: MIT\r\n\r\nimport \"./access/AccessControlEnumerable.sol\";\r\nimport \"./Roles.sol\";\r\nimport \"./Patient.sol\";\r\n\r\ncontract Doctor is AccessControl {\r\n    struct doctorRecord {\r\n        string name;\r\n        string personalDetails;\r\n        address hospitalAddress;\r\n        address walletAddress;\r\n    }\r\n\r\n    event LogDoctor(string name, string personalDetails, address owner);\r\n    event LogUpdateDoctor(string name, string personalDetails);\r\n    event LogDeleteDoctor(string name, uint256 empIdIndex);\r\n\r\n    //: DOCTOR DATABASE\r\n    mapping(address => doctorRecord) doctorDatabase;\r\n\r\n    function registerDoctor(\r\n        string memory name,\r\n        string memory _personalDetails,\r\n        address _hospitalAddress,\r\n        address _walletAddress\r\n    ) external returns (string memory status) {\r\n        _setupRole(DOCTOR, _walletAddress);\r\n        doctorDatabase[_walletAddress].name = name;\r\n        doctorDatabase[_walletAddress].walletAddress = _walletAddress;\r\n        doctorDatabase[_walletAddress].hospitalAddress = _hospitalAddress;\r\n        doctorDatabase[_walletAddress].personalDetails = _personalDetails;\r\n\r\n        emit LogDoctor(\r\n            doctorDatabase[_walletAddress].name,\r\n            doctorDatabase[_walletAddress].personalDetails,\r\n            _walletAddress\r\n        );\r\n\r\n        return \"DOCTOR_REGISTERED_SUCCESSFULLY\";\r\n    }\r\n\r\n    function getDoctorData(\r\n        address _walletAddress,\r\n        address _addressOfHigherAuthority\r\n    )\r\n        public\r\n        view\r\n        returns (\r\n            string memory name,\r\n            string memory personalDetails,\r\n            address hospitalAddress\r\n        )\r\n    {\r\n        return (\r\n            doctorDatabase[_walletAddress].name,\r\n            doctorDatabase[_walletAddress].personalDetails,\r\n            doctorDatabase[_walletAddress].hospitalAddress\r\n        );\r\n    }\r\n}\r\n",
  "sourcePath": "C:\\Users\\Ankita\\AndroidStudioProjects\\blockchain_in_healthcare\\contracts\\Doctor.sol",
  "compiler": {
    "name": "solc",
    "version": "0.8.0+commit.c7dfd78e.Emscripten.clang"
  },
  "schemaVersion": "3.4.3",
  "updatedAt": "2022-01-04T14:08:08.314Z",
  "networkType": "ethereum",
  "devdoc": {
    "kind": "dev",
    "methods": {
      "getRoleAdmin(bytes32)": {
        "details": "Returns the admin role that controls `role`. See {grantRole} and {revokeRole}. To change a role's admin, use {_setRoleAdmin}."
      },
      "grantRole(bytes32,address)": {
        "details": "Grants `role` to `account`. If `account` had not been already granted `role`, emits a {RoleGranted} event. Requirements: - the caller must have ``role``'s admin role."
      },
      "hasRole(bytes32,address)": {
        "details": "Returns `true` if `account` has been granted `role`."
      },
      "renounceRole(bytes32,address)": {
        "details": "Revokes `role` from the calling account. Roles are often managed via {grantRole} and {revokeRole}: this function's purpose is to provide a mechanism for accounts to lose their privileges if they are compromised (such as when a trusted device is misplaced). If the calling account had been granted `role`, emits a {RoleRevoked} event. Requirements: - the caller must be `account`."
      },
      "revokeRole(bytes32,address)": {
        "details": "Revokes `role` from `account`. If `account` had been granted `role`, emits a {RoleRevoked} event. Requirements: - the caller must have ``role``'s admin role."
      },
      "supportsInterface(bytes4)": {
        "details": "See {IERC165-supportsInterface}."
      }
    },
    "version": 1
  },
  "userdoc": {
    "kind": "user",
    "methods": {},
    "version": 1
  }
}