{
  "contractName": "MainContract",
  "abi": [
    {
      "inputs": [],
      "stateMutability": "nonpayable",
      "type": "constructor"
    },
    {
      "anonymous": false,
      "inputs": [
        {
          "indexed": false,
          "internalType": "string",
          "name": "name",
          "type": "string"
        },
        {
          "indexed": false,
          "internalType": "uint256",
          "name": "empIdIndex",
          "type": "uint256"
        }
      ],
      "name": "LogDeleteDoctor",
      "type": "event"
    },
    {
      "anonymous": false,
      "inputs": [
        {
          "indexed": false,
          "internalType": "string",
          "name": "name",
          "type": "string"
        },
        {
          "indexed": false,
          "internalType": "uint256",
          "name": "empIdIndex",
          "type": "uint256"
        }
      ],
      "name": "LogDeleteHospital",
      "type": "event"
    },
    {
      "anonymous": false,
      "inputs": [
        {
          "indexed": false,
          "internalType": "string",
          "name": "name",
          "type": "string"
        },
        {
          "indexed": false,
          "internalType": "string",
          "name": "personalDetails",
          "type": "string"
        },
        {
          "indexed": false,
          "internalType": "address",
          "name": "owner",
          "type": "address"
        }
      ],
      "name": "LogGetPharmacy",
      "type": "event"
    },
    {
      "anonymous": false,
      "inputs": [
        {
          "indexed": false,
          "internalType": "string",
          "name": "name",
          "type": "string"
        },
        {
          "indexed": false,
          "internalType": "string",
          "name": "_hospitalDetails",
          "type": "string"
        },
        {
          "indexed": false,
          "internalType": "address",
          "name": "walletAddress",
          "type": "address"
        }
      ],
      "name": "LogHospital",
      "type": "event"
    },
    {
      "anonymous": false,
      "inputs": [
        {
          "indexed": false,
          "internalType": "string",
          "name": "name",
          "type": "string"
        },
        {
          "indexed": false,
          "internalType": "string",
          "name": "personalDetails",
          "type": "string"
        },
        {
          "indexed": false,
          "internalType": "address",
          "name": "walletAddress",
          "type": "address"
        }
      ],
      "name": "LogStoreDoctor",
      "type": "event"
    },
    {
      "anonymous": false,
      "inputs": [
        {
          "indexed": false,
          "internalType": "string",
          "name": "name",
          "type": "string"
        },
        {
          "indexed": false,
          "internalType": "address",
          "name": "hospitalAddress",
          "type": "address"
        },
        {
          "indexed": false,
          "internalType": "string",
          "name": "_personalDetails",
          "type": "string"
        },
        {
          "indexed": false,
          "internalType": "address",
          "name": "owner",
          "type": "address"
        }
      ],
      "name": "LogStorePatient",
      "type": "event"
    },
    {
      "anonymous": false,
      "inputs": [
        {
          "indexed": false,
          "internalType": "string",
          "name": "name",
          "type": "string"
        },
        {
          "indexed": false,
          "internalType": "string",
          "name": "personalDetails",
          "type": "string"
        },
        {
          "indexed": false,
          "internalType": "address",
          "name": "owner",
          "type": "address"
        }
      ],
      "name": "LogStorePharmacy",
      "type": "event"
    },
    {
      "anonymous": false,
      "inputs": [
        {
          "indexed": false,
          "internalType": "address",
          "name": "_to",
          "type": "address"
        },
        {
          "indexed": false,
          "internalType": "address",
          "name": "_from",
          "type": "address"
        }
      ],
      "name": "LogTransferEther",
      "type": "event"
    },
    {
      "anonymous": false,
      "inputs": [
        {
          "indexed": false,
          "internalType": "string",
          "name": "name",
          "type": "string"
        },
        {
          "indexed": false,
          "internalType": "string",
          "name": "personalDetails",
          "type": "string"
        }
      ],
      "name": "LogUpdateDoctor",
      "type": "event"
    },
    {
      "anonymous": false,
      "inputs": [
        {
          "indexed": false,
          "internalType": "string",
          "name": "name",
          "type": "string"
        },
        {
          "indexed": false,
          "internalType": "string",
          "name": "dateOfBirth",
          "type": "string"
        }
      ],
      "name": "LogUpdateHospital",
      "type": "event"
    },
    {
      "anonymous": false,
      "inputs": [
        {
          "indexed": false,
          "internalType": "string",
          "name": "_personalDetails",
          "type": "string"
        }
      ],
      "name": "LogUpdatePatientPersonalDetails",
      "type": "event"
    },
    {
      "anonymous": false,
      "inputs": [
        {
          "indexed": true,
          "internalType": "bytes32",
          "name": "role",
          "type": "bytes32"
        },
        {
          "indexed": true,
          "internalType": "bytes32",
          "name": "previousAdminRole",
          "type": "bytes32"
        },
        {
          "indexed": true,
          "internalType": "bytes32",
          "name": "newAdminRole",
          "type": "bytes32"
        }
      ],
      "name": "RoleAdminChanged",
      "type": "event"
    },
    {
      "anonymous": false,
      "inputs": [
        {
          "indexed": true,
          "internalType": "bytes32",
          "name": "role",
          "type": "bytes32"
        },
        {
          "indexed": true,
          "internalType": "address",
          "name": "account",
          "type": "address"
        },
        {
          "indexed": true,
          "internalType": "address",
          "name": "sender",
          "type": "address"
        }
      ],
      "name": "RoleGranted",
      "type": "event"
    },
    {
      "anonymous": false,
      "inputs": [
        {
          "indexed": true,
          "internalType": "bytes32",
          "name": "role",
          "type": "bytes32"
        },
        {
          "indexed": true,
          "internalType": "address",
          "name": "account",
          "type": "address"
        },
        {
          "indexed": true,
          "internalType": "address",
          "name": "sender",
          "type": "address"
        }
      ],
      "name": "RoleRevoked",
      "type": "event"
    },
    {
      "inputs": [],
      "name": "DEFAULT_ADMIN_ROLE",
      "outputs": [
        {
          "internalType": "bytes32",
          "name": "",
          "type": "bytes32"
        }
      ],
      "stateMutability": "view",
      "type": "function",
      "constant": true
    },
    {
      "inputs": [
        {
          "internalType": "bytes32",
          "name": "role",
          "type": "bytes32"
        }
      ],
      "name": "getRoleAdmin",
      "outputs": [
        {
          "internalType": "bytes32",
          "name": "",
          "type": "bytes32"
        }
      ],
      "stateMutability": "view",
      "type": "function",
      "constant": true
    },
    {
      "inputs": [
        {
          "internalType": "bytes32",
          "name": "role",
          "type": "bytes32"
        },
        {
          "internalType": "address",
          "name": "account",
          "type": "address"
        }
      ],
      "name": "grantRole",
      "outputs": [],
      "stateMutability": "nonpayable",
      "type": "function"
    },
    {
      "inputs": [
        {
          "internalType": "bytes32",
          "name": "role",
          "type": "bytes32"
        },
        {
          "internalType": "address",
          "name": "account",
          "type": "address"
        }
      ],
      "name": "hasRole",
      "outputs": [
        {
          "internalType": "bool",
          "name": "",
          "type": "bool"
        }
      ],
      "stateMutability": "view",
      "type": "function",
      "constant": true
    },
    {
      "inputs": [
        {
          "internalType": "bytes32",
          "name": "role",
          "type": "bytes32"
        },
        {
          "internalType": "address",
          "name": "account",
          "type": "address"
        }
      ],
      "name": "renounceRole",
      "outputs": [],
      "stateMutability": "nonpayable",
      "type": "function"
    },
    {
      "inputs": [
        {
          "internalType": "bytes32",
          "name": "role",
          "type": "bytes32"
        },
        {
          "internalType": "address",
          "name": "account",
          "type": "address"
        }
      ],
      "name": "revokeRole",
      "outputs": [],
      "stateMutability": "nonpayable",
      "type": "function"
    },
    {
      "inputs": [
        {
          "internalType": "bytes4",
          "name": "interfaceId",
          "type": "bytes4"
        }
      ],
      "name": "supportsInterface",
      "outputs": [
        {
          "internalType": "bool",
          "name": "",
          "type": "bool"
        }
      ],
      "stateMutability": "view",
      "type": "function",
      "constant": true
    },
    {
      "inputs": [
        {
          "internalType": "address payable",
          "name": "_To",
          "type": "address"
        }
      ],
      "name": "transferEther",
      "outputs": [
        {
          "internalType": "bool",
          "name": "",
          "type": "bool"
        }
      ],
      "stateMutability": "payable",
      "type": "function",
      "payable": true
    },
    {
      "inputs": [
        {
          "internalType": "string",
          "name": "source",
          "type": "string"
        }
      ],
      "name": "stringToBytes32",
      "outputs": [
        {
          "internalType": "bytes32",
          "name": "result",
          "type": "bytes32"
        }
      ],
      "stateMutability": "pure",
      "type": "function",
      "constant": true
    },
    {
      "inputs": [
        {
          "internalType": "string",
          "name": "_name",
          "type": "string"
        },
        {
          "internalType": "string",
          "name": "_personalDetails",
          "type": "string"
        },
        {
          "internalType": "address",
          "name": "_hospitalAddress",
          "type": "address"
        },
        {
          "internalType": "address",
          "name": "_doctorAddress",
          "type": "address"
        },
        {
          "internalType": "address",
          "name": "_walletAddress",
          "type": "address"
        }
      ],
      "name": "storePatient",
      "outputs": [
        {
          "internalType": "bool",
          "name": "status",
          "type": "bool"
        }
      ],
      "stateMutability": "nonpayable",
      "type": "function"
    },
    {
      "inputs": [
        {
          "internalType": "string",
          "name": "_personalDetails",
          "type": "string"
        },
        {
          "internalType": "address",
          "name": "_walletAddress",
          "type": "address"
        }
      ],
      "name": "updatePatientPersonalDetailHash",
      "outputs": [
        {
          "internalType": "bool",
          "name": "status",
          "type": "bool"
        }
      ],
      "stateMutability": "nonpayable",
      "type": "function"
    },
    {
      "inputs": [
        {
          "internalType": "string",
          "name": "newPatientPrescriptionHashes",
          "type": "string"
        },
        {
          "internalType": "address",
          "name": "_walletAddress",
          "type": "address"
        }
      ],
      "name": "updatePatientPrescriptionHash",
      "outputs": [
        {
          "internalType": "bool",
          "name": "status",
          "type": "bool"
        }
      ],
      "stateMutability": "nonpayable",
      "type": "function"
    },
    {
      "inputs": [
        {
          "internalType": "address",
          "name": "_previousHospitalAddress",
          "type": "address"
        },
        {
          "internalType": "address",
          "name": "_newHospitalAddress",
          "type": "address"
        },
        {
          "internalType": "address",
          "name": "_walletAddress",
          "type": "address"
        }
      ],
      "name": "changeHospitalForPatient",
      "outputs": [
        {
          "internalType": "bool",
          "name": "status",
          "type": "bool"
        }
      ],
      "stateMutability": "nonpayable",
      "type": "function"
    },
    {
      "inputs": [
        {
          "internalType": "address",
          "name": "_previousDoctorAddress",
          "type": "address"
        },
        {
          "internalType": "address",
          "name": "_newDoctorAddress",
          "type": "address"
        },
        {
          "internalType": "address",
          "name": "_walletAddress",
          "type": "address"
        }
      ],
      "name": "changeDoctorForPatient",
      "outputs": [
        {
          "internalType": "bool",
          "name": "status",
          "type": "bool"
        }
      ],
      "stateMutability": "nonpayable",
      "type": "function"
    },
    {
      "inputs": [],
      "name": "retrievePatientCount",
      "outputs": [
        {
          "internalType": "uint256",
          "name": "patientCount",
          "type": "uint256"
        }
      ],
      "stateMutability": "view",
      "type": "function",
      "constant": true
    },
    {
      "inputs": [
        {
          "internalType": "address",
          "name": "_walletAddress",
          "type": "address"
        }
      ],
      "name": "retrievePatientData",
      "outputs": [
        {
          "internalType": "string",
          "name": "name",
          "type": "string"
        },
        {
          "internalType": "string",
          "name": "personalDetails",
          "type": "string"
        },
        {
          "internalType": "address",
          "name": "hospitalAddress",
          "type": "address"
        },
        {
          "internalType": "address",
          "name": "walletAddress",
          "type": "address"
        }
      ],
      "stateMutability": "view",
      "type": "function",
      "constant": true
    },
    {
      "inputs": [
        {
          "internalType": "address",
          "name": "_walletAddress",
          "type": "address"
        },
        {
          "internalType": "string",
          "name": "_personalDetails",
          "type": "string"
        }
      ],
      "name": "updatePatientPersonalData",
      "outputs": [
        {
          "internalType": "bool",
          "name": "success",
          "type": "bool"
        }
      ],
      "stateMutability": "nonpayable",
      "type": "function"
    },
    {
      "inputs": [
        {
          "internalType": "address",
          "name": "_walletAddress",
          "type": "address"
        },
        {
          "internalType": "string",
          "name": "medicalRecordHash",
          "type": "string"
        }
      ],
      "name": "updatePatientMedicalRecords",
      "outputs": [
        {
          "internalType": "bool",
          "name": "status",
          "type": "bool"
        }
      ],
      "stateMutability": "nonpayable",
      "type": "function"
    },
    {
      "inputs": [
        {
          "internalType": "address",
          "name": "_walletAddress",
          "type": "address"
        },
        {
          "internalType": "string",
          "name": "prescriptionHash",
          "type": "string"
        }
      ],
      "name": "updatePatientPrescription",
      "outputs": [
        {
          "internalType": "bool",
          "name": "status",
          "type": "bool"
        }
      ],
      "stateMutability": "nonpayable",
      "type": "function"
    },
    {
      "inputs": [
        {
          "internalType": "address",
          "name": "_patientAddress",
          "type": "address"
        }
      ],
      "name": "getNewPrescription",
      "outputs": [
        {
          "internalType": "string",
          "name": "status",
          "type": "string"
        }
      ],
      "stateMutability": "view",
      "type": "function",
      "constant": true
    },
    {
      "inputs": [
        {
          "internalType": "address",
          "name": "_patientAddress",
          "type": "address"
        }
      ],
      "name": "getMultiplePrescription",
      "outputs": [
        {
          "internalType": "string[]",
          "name": "status",
          "type": "string[]"
        }
      ],
      "stateMutability": "view",
      "type": "function",
      "constant": true
    },
    {
      "inputs": [
        {
          "internalType": "address",
          "name": "_patientAddress",
          "type": "address"
        }
      ],
      "name": "getNewRecords",
      "outputs": [
        {
          "internalType": "string",
          "name": "status",
          "type": "string"
        }
      ],
      "stateMutability": "view",
      "type": "function",
      "constant": true
    },
    {
      "inputs": [
        {
          "internalType": "address",
          "name": "_patientAddress",
          "type": "address"
        }
      ],
      "name": "getMultipleRecords",
      "outputs": [
        {
          "internalType": "string[]",
          "name": "status",
          "type": "string[]"
        }
      ],
      "stateMutability": "view",
      "type": "function",
      "constant": true
    },
    {
      "inputs": [
        {
          "internalType": "string",
          "name": "name",
          "type": "string"
        },
        {
          "internalType": "string",
          "name": "_personalDetails",
          "type": "string"
        },
        {
          "internalType": "address",
          "name": "_hospitalAddress",
          "type": "address"
        },
        {
          "internalType": "address",
          "name": "_walletAddress",
          "type": "address"
        }
      ],
      "name": "storeDoctor",
      "outputs": [
        {
          "internalType": "bool",
          "name": "status",
          "type": "bool"
        }
      ],
      "stateMutability": "nonpayable",
      "type": "function"
    },
    {
      "inputs": [
        {
          "internalType": "string",
          "name": "_personalDetails",
          "type": "string"
        },
        {
          "internalType": "address",
          "name": "_walletAddress",
          "type": "address"
        }
      ],
      "name": "updateDoctorPersonalDetailHash",
      "outputs": [
        {
          "internalType": "bool",
          "name": "status",
          "type": "bool"
        }
      ],
      "stateMutability": "nonpayable",
      "type": "function"
    },
    {
      "inputs": [
        {
          "internalType": "address",
          "name": "_previousHospitalAddress",
          "type": "address"
        },
        {
          "internalType": "address",
          "name": "_newHospitalAddress",
          "type": "address"
        },
        {
          "internalType": "address",
          "name": "_walletAddress",
          "type": "address"
        }
      ],
      "name": "changeHospitalForDoctor",
      "outputs": [
        {
          "internalType": "bool",
          "name": "status",
          "type": "bool"
        }
      ],
      "stateMutability": "nonpayable",
      "type": "function"
    },
    {
      "inputs": [],
      "name": "retrieveDoctorCount",
      "outputs": [
        {
          "internalType": "uint256",
          "name": "doctorCount",
          "type": "uint256"
        }
      ],
      "stateMutability": "view",
      "type": "function",
      "constant": true
    },
    {
      "inputs": [
        {
          "internalType": "address",
          "name": "_walletAddress",
          "type": "address"
        }
      ],
      "name": "getDoctorData",
      "outputs": [
        {
          "internalType": "string",
          "name": "name",
          "type": "string"
        },
        {
          "internalType": "string",
          "name": "doctorDetails",
          "type": "string"
        },
        {
          "internalType": "address",
          "name": "walletAddress",
          "type": "address"
        }
      ],
      "stateMutability": "view",
      "type": "function",
      "constant": true
    },
    {
      "inputs": [
        {
          "internalType": "address",
          "name": "_walletAddress",
          "type": "address"
        }
      ],
      "name": "retrieveDoctorData",
      "outputs": [
        {
          "internalType": "string",
          "name": "name",
          "type": "string"
        },
        {
          "internalType": "string",
          "name": "personalDetails",
          "type": "string"
        },
        {
          "internalType": "address",
          "name": "hospitalAddress",
          "type": "address"
        }
      ],
      "stateMutability": "view",
      "type": "function",
      "constant": true
    },
    {
      "inputs": [
        {
          "internalType": "string",
          "name": "name",
          "type": "string"
        },
        {
          "internalType": "string",
          "name": "_personalDetails",
          "type": "string"
        },
        {
          "internalType": "address",
          "name": "_walletAddress",
          "type": "address"
        }
      ],
      "name": "storePharmacy",
      "outputs": [
        {
          "internalType": "bool",
          "name": "status",
          "type": "bool"
        }
      ],
      "stateMutability": "nonpayable",
      "type": "function"
    },
    {
      "inputs": [
        {
          "internalType": "string",
          "name": "_personalDetails",
          "type": "string"
        },
        {
          "internalType": "address",
          "name": "_walletAddress",
          "type": "address"
        }
      ],
      "name": "updatePharmacyPersonalDetailHash",
      "outputs": [
        {
          "internalType": "bool",
          "name": "status",
          "type": "bool"
        }
      ],
      "stateMutability": "nonpayable",
      "type": "function"
    },
    {
      "inputs": [],
      "name": "retrievePharmacyCount",
      "outputs": [
        {
          "internalType": "uint256",
          "name": "pharmacyCount",
          "type": "uint256"
        }
      ],
      "stateMutability": "view",
      "type": "function",
      "constant": true
    },
    {
      "inputs": [
        {
          "internalType": "address",
          "name": "_walletAddress",
          "type": "address"
        }
      ],
      "name": "getPharmacyData",
      "outputs": [
        {
          "internalType": "string",
          "name": "name",
          "type": "string"
        },
        {
          "internalType": "string",
          "name": "pharmacyDetails",
          "type": "string"
        },
        {
          "internalType": "address",
          "name": "walletAddress",
          "type": "address"
        }
      ],
      "stateMutability": "view",
      "type": "function",
      "constant": true
    },
    {
      "inputs": [
        {
          "internalType": "string",
          "name": "_name",
          "type": "string"
        },
        {
          "internalType": "string",
          "name": "_hospitalDetails",
          "type": "string"
        },
        {
          "internalType": "address",
          "name": "_walletAddress",
          "type": "address"
        }
      ],
      "name": "storeHospital",
      "outputs": [
        {
          "internalType": "bool",
          "name": "status",
          "type": "bool"
        }
      ],
      "stateMutability": "nonpayable",
      "type": "function"
    },
    {
      "inputs": [
        {
          "internalType": "string",
          "name": "_personalDetails",
          "type": "string"
        },
        {
          "internalType": "address",
          "name": "_walletAddress",
          "type": "address"
        }
      ],
      "name": "updateHospitalPersonalDetailHash",
      "outputs": [
        {
          "internalType": "bool",
          "name": "status",
          "type": "bool"
        }
      ],
      "stateMutability": "nonpayable",
      "type": "function"
    },
    {
      "inputs": [],
      "name": "retrieveHospitalCount",
      "outputs": [
        {
          "internalType": "uint256",
          "name": "hospitalCount",
          "type": "uint256"
        }
      ],
      "stateMutability": "view",
      "type": "function",
      "constant": true
    },
    {
      "inputs": [
        {
          "internalType": "address",
          "name": "_hospitalAddress",
          "type": "address"
        }
      ],
      "name": "retrieveHospitalSpecificCountOfDoctors",
      "outputs": [
        {
          "internalType": "uint256",
          "name": "doctorCountInHospital",
          "type": "uint256"
        }
      ],
      "stateMutability": "view",
      "type": "function",
      "constant": true
    },
    {
      "inputs": [
        {
          "internalType": "address",
          "name": "_hospitalAddress",
          "type": "address"
        }
      ],
      "name": "retrieveHospitalSpecificCountOfPatients",
      "outputs": [
        {
          "internalType": "uint256",
          "name": "patientCountInHospital",
          "type": "uint256"
        }
      ],
      "stateMutability": "view",
      "type": "function",
      "constant": true
    },
    {
      "inputs": [
        {
          "internalType": "address",
          "name": "addressOfUser",
          "type": "address"
        }
      ],
      "name": "getHospitalData",
      "outputs": [
        {
          "internalType": "string",
          "name": "_nameAdmin",
          "type": "string"
        },
        {
          "internalType": "string",
          "name": "hospitalDetails",
          "type": "string"
        },
        {
          "internalType": "address",
          "name": "walletAddress",
          "type": "address"
        }
      ],
      "stateMutability": "view",
      "type": "function",
      "constant": true
    },
    {
      "inputs": [
        {
          "internalType": "address",
          "name": "_addressOfAdmin",
          "type": "address"
        },
        {
          "internalType": "address",
          "name": "_addressOfPatient",
          "type": "address"
        }
      ],
      "name": "grantRoleVerifiedPatient",
      "outputs": [
        {
          "internalType": "bool",
          "name": "success",
          "type": "bool"
        }
      ],
      "stateMutability": "nonpayable",
      "type": "function"
    },
    {
      "inputs": [
        {
          "internalType": "address",
          "name": "_addressOfAdmin",
          "type": "address"
        },
        {
          "internalType": "address",
          "name": "_addressOfDoctor",
          "type": "address"
        }
      ],
      "name": "grantRoleVerifiedDoctor",
      "outputs": [
        {
          "internalType": "bool",
          "name": "success",
          "type": "bool"
        }
      ],
      "stateMutability": "nonpayable",
      "type": "function"
    }
  ],
  "bytecode": "0x60806040523480156200001157600080fd5b506200002f6d2427a9a824aa20a62fa0a226a4a760911b806200008f565b62000055652227a1aa27a960d11b6d2427a9a824aa20a62fa0a226a4a760911b6200008f565b6200007c661410551251539560ca1b6d2427a9a824aa20a62fa0a226a4a760911b6200008f565b62000089600033620000e4565b620001c0565b60006200009c83620000f4565b600084815260208190526040808220600101859055519192508391839186917fbd79b86ffe0ab8e8776151514217cd7cacd52c909f66475c3af44e129f0b00ff9190a4505050565b620000f0828262000109565b5050565b60009081526020819052604090206001015490565b62000115828262000193565b620000f0576000828152602081815260408083206001600160a01b03851684529091529020805460ff191660011790556200014f620001bc565b6001600160a01b0316816001600160a01b0316837f2f8788117e7eff1d82e926ec794901d17c78024a50270940304540a733656f0d60405160405180910390a45050565b6000918252602082815260408084206001600160a01b0393909316845291905290205460ff1690565b3390565b61295380620001d06000396000f3fe6080604052600436106102465760003560e01c80637d37985311610139578063cdca8f7c116100b6578063e37e96961161007a578063e37e9696146106bb578063e8300b1d146106db578063edae7fb5146106fb578063f98d5d2514610710578063fcd4014b14610725578063fffaff421461074557610246565b8063cdca8f7c1461063b578063ce65e5e31461065b578063cfb519281461067b578063d547741f1461069b578063e21eadcc1461036057610246565b8063a9909db9116100fd578063a9909db91461059b578063ac291867146105bb578063b9a47e90146105db578063c12878c3146105fb578063c99ead641461061b57610246565b80637d379853146105065780638b55befc1461052657806391d1485414610546578063a217fddf14610566578063a84ceab71461057b57610246565b8063389e3894116101c75780635c7231ef1161018b5780635c7231ef146104715780636b55e9911461049157806373e830b4146104a45780637799c049146104b957806377aee292146104e657610246565b8063389e3894146103d15780633f9c1090146103f157806345118d8e146104115780634edf897f146104315780635bf9c0e31461045157610246565b8063248a9ca31161020e578063248a9ca314610320578063259a49a5146103405780632e8ff13c146103605780632f2ff15d1461038f57806336568abe146103b157610246565b806301ffc9a71461024b5780630a086b15146102815780630b600345146102a357806316d8b45b146102c3578063224ccd0f146102f3575b600080fd5b34801561025757600080fd5b5061026b6102663660046121fd565b610765565b6040516102789190612634565b60405180910390f35b34801561028d57600080fd5b50610296610792565b604051610278919061263f565b3480156102af57600080fd5b5061026b6102be3660046122a5565b6107a3565b3480156102cf57600080fd5b506102e36102de3660046120d5565b61087e565b6040516102789493929190612699565b3480156102ff57600080fd5b5061031361030e3660046120d5565b6109da565b60405161027891906125d4565b34801561032c57600080fd5b5061029661033b3660046121c1565b610acc565b34801561034c57600080fd5b5061026b61035b366004612260565b610ae1565b34801561036c57600080fd5b5061038061037b3660046120d5565b610b40565b6040516102789392919061265b565b34801561039b57600080fd5b506103af6103aa3660046121d9565b610ca5565b005b3480156103bd57600080fd5b506103af6103cc3660046121d9565b610cce565b3480156103dd57600080fd5b506103806103ec3660046120d5565b610d1d565b3480156103fd57600080fd5b5061026b61040c366004612173565b610d5c565b34801561041d57600080fd5b5061026b61042c366004612129565b610d8a565b34801561043d57600080fd5b5061026b61044c36600461230f565b610e23565b34801561045d57600080fd5b5061026b61046c366004612260565b611005565b34801561047d57600080fd5b5061026b61048c366004612129565b611056565b61026b61049f3660046120d5565b6110e5565b3480156104b057600080fd5b5061029661115e565b3480156104c557600080fd5b506104d96104d43660046120d5565b61116a565b6040516102789190612648565b3480156104f257600080fd5b506103136105013660046120d5565b611219565b34801561051257600080fd5b5061026b610521366004612395565b6112ff565b34801561053257600080fd5b506102966105413660046120d5565b611535565b34801561055257600080fd5b5061026b6105613660046121d9565b611559565b34801561057257600080fd5b50610296611582565b34801561058757600080fd5b5061026b610596366004612129565b611587565b3480156105a757600080fd5b5061026b6105b6366004612260565b6115fe565b3480156105c757600080fd5b506104d96105d63660046120d5565b6116b9565b3480156105e757600080fd5b5061026b6105f63660046120f1565b6116e3565b34801561060757600080fd5b506102966106163660046120d5565b611765565b34801561062757600080fd5b5061026b6106363660046122a5565b611789565b34801561064757600080fd5b5061026b610656366004612260565b61186d565b34801561066757600080fd5b5061026b610676366004612260565b611884565b34801561068757600080fd5b50610296610696366004612225565b6118a2565b3480156106a757600080fd5b506103af6106b63660046121d9565b6118c0565b3480156106c757600080fd5b5061026b6106d63660046120f1565b6118df565b3480156106e757600080fd5b506103806106f63660046120d5565b61193d565b34801561070757600080fd5b50610296611977565b34801561071c57600080fd5b50610296611983565b34801561073157600080fd5b5061026b610740366004612173565b61198f565b34801561075157600080fd5b5061026b610760366004612173565b611aaf565b60006001600160e01b03198216637965db0b60e01b148061078a575061078a82611bc7565b90505b919050565b600061079e6004611be0565b905090565b60006107c06d2427a9a824aa20a62fa0a226a4a760911b83611be4565b6001600160a01b038216600090815260086020908152604090912085516107e992870190611f40565b506001600160a01b03821660008181526008602090815260409091206002810180546001600160a01b031916909317909255845161082d9260010191860190611f40565b506108386003611bee565b7ff1ed66ce17e814997c731a53029e891da3b3665c7d89fd2a257363990098c1be84848460405161086b9392919061265b565b60405180910390a15060015b9392505050565b6001600160a01b038082166000908152600560205260408120600381015481546060948594938493909260018401929190911690889084906108bf9061289e565b80601f01602080910402602001604051908101604052809291908181526020018280546108eb9061289e565b80156109385780601f1061090d57610100808354040283529160200191610938565b820191906000526020600020905b81548152906001019060200180831161091b57829003601f168201915b5050505050935082805461094b9061289e565b80601f01602080910402602001604051908101604052809291908181526020018280546109779061289e565b80156109c45780601f10610999576101008083540402835291602001916109c4565b820191906000526020600020905b8154815290600101906020018083116109a757829003601f168201915b5050505050925093509350935093509193509193565b6001600160a01b0381166000908152600560209081526040808320600701805482518185028101850190935280835260609492939192909184015b82821015610ac1578382906000526020600020018054610a349061289e565b80601f0160208091040260200160405190810160405280929190818152602001828054610a609061289e565b8015610aad5780601f10610a8257610100808354040283529160200191610aad565b820191906000526020600020905b815481529060010190602001808311610a9057829003601f168201915b505050505081526020019060010190610a15565b505050509050919050565b60009081526020819052604090206001015490565b6000610b006f159154925192515117d410551251539560821b83611559565b15610b36576001600160a01b03821660009081526005602090815260409091208451610b3492600890920191860190611f40565b505b5060015b92915050565b6060806000610b5a67504841524d41435960c01b85611559565b15610c9e576001600160a01b03841660009081526007602052604090208054600182019086908390610b8b9061289e565b80601f0160208091040260200160405190810160405280929190818152602001828054610bb79061289e565b8015610c045780601f10610bd957610100808354040283529160200191610c04565b820191906000526020600020905b815481529060010190602001808311610be757829003601f168201915b50505050509250818054610c179061289e565b80601f0160208091040260200160405190810160405280929190818152602001828054610c439061289e565b8015610c905780601f10610c6557610100808354040283529160200191610c90565b820191906000526020600020905b815481529060010190602001808311610c7357829003601f168201915b505050505091509250925092505b9193909250565b610cae82610acc565b610cbf81610cba611bf7565b611bfb565b610cc98383611c5f565b505050565b610cd6611bf7565b6001600160a01b0316816001600160a01b031614610d0f5760405162461bcd60e51b8152600401610d06906127d1565b60405180910390fd5b610d198282611ce4565b5050565b6001600160a01b0380821660009081526006602052604081206004810154600182018054606095869594929360029093019216908390610b8b9061289e565b6001600160a01b038216600090815260056020908152604082208351610b3492600190920191850190611f40565b6000610da96f159154925192515117d410551251539560821b83611559565b15610877576001600160a01b0384166000908152600860205260409020610dd290600301611d67565b6001600160a01b038281166000908152600560209081526040808320600390810180546001600160a01b031916958916958617905593835260089091529020610e1b9101611bee565b506001610877565b6000610e38652227a1aa27a960d11b83611559565b15610eda57610e50652227a1aa27a960d11b83611be4565b6001600160a01b03821660009081526006602090815260409091208651610e7f92600190920191880190611f40565b506001600160a01b03828116600081815260066020908152604090912080546001600160a01b03199081169093178155600481018054909316938716939093179091558551610ed49260020191870190611f40565b50610fa0565b610eed652227a1aa27a960d11b83611be4565b6001600160a01b03821660009081526006602090815260409091208651610f1c92600190920191880190611f40565b506001600160a01b03828116600081815260066020908152604090912080546001600160a01b03199081169093178155600481018054909316938716939093179091558551610f719260020191870190611f40565b506001600160a01b0383166000908152600860205260409020610f9690600401611bee565b610fa06002611bee565b6001600160a01b0382166000908152600660205260409081902090517f094f9e983e464406960b58ac311309ef38583f6e33af8d47f93b0c048e60c7cf91610ff2916001820191600201908690612740565b60405180910390a1506001949350505050565b60006110226d2427a9a824aa20a62fa0a226a4a760911b83611559565b15610b36576001600160a01b03821660009081526005602090815260409091208451610b3492600190920191860190611f40565b60006110756f159154925192515117d410551251539560821b83611559565b15610877576001600160a01b038416600090815260066020526040902061109e90600501611d67565b6001600160a01b03828116600090815260056020818152604080842060020180546001600160a01b031916958916958617905593835260069052919020610e1b9101611bee565b6040516000906001600160a01b038316903480156108fc029184818181858888f1935050505015801561111c573d6000803e3d6000fd5b507f435c57b8f6de1d660f4f5f24c6aa446e498a3f23268497667680c4862928d488823360405161114e9291906125ba565b60405180910390a1506001919050565b600061079e6001611be0565b6001600160a01b03811660009081526005602052604090206006018054606091906111949061289e565b80601f01602080910402602001604051908101604052809291908181526020018280546111c09061289e565b801561120d5780601f106111e25761010080835404028352916020019161120d565b820191906000526020600020905b8154815290600101906020018083116111f057829003601f168201915b50505050509050919050565b6001600160a01b03811660009081526005602081815260408084209092018054835181840281018401909452808452606094919290919084015b82821015610ac15783829060005260206000200180546112729061289e565b80601f016020809104026020016040519081016040528092919081815260200182805461129e9061289e565b80156112eb5780601f106112c0576101008083540402835291602001916112eb565b820191906000526020600020905b8154815290600101906020018083116112ce57829003601f168201915b505050505081526020019060010190611253565b6000611315661410551251539560ca1b83611559565b156113c8576001600160a01b0382166000908152600560209081526040909120875161134392890190611f40565b506001600160a01b0382166000908152600560209081526040909120865161137392600190920191880190611f40565b506001600160a01b0382811660008181526005602052604090206003810180546001600160a01b03199081168986161790915560028201805482169488169490941790935560040180549092161790556114cb565b6113dc661410551251539560ca1b83611be4565b6001600160a01b0382166000908152600560209081526040909120875161140592890190611f40565b506001600160a01b0382166000908152600560209081526040909120865161143592600190920191880190611f40565b506001600160a01b038083166000818152600560208181526040808420600381018054888d166001600160a01b03199182161790915560048201805482169097179096556002018054968a1696909516861790945593825260069093522061149d9101611bee565b6001600160a01b03841660009081526008602052604090206114c190600301611bee565b6114cb6001611bee565b6001600160a01b0380831660009081526005602052604090819020600381015491517f3b8a83fdecb2b3e9bf160eeb2f3112ba4bdad2159cb6783bc884ab9712bb58b493611521931690600183019087906126f6565b60405180910390a150600195945050505050565b6001600160a01b038116600090815260086020526040812061078a90600301611be0565b6000918252602082815260408084206001600160a01b0393909316845291905290205460ff1690565b600081565b6001600160a01b03831660009081526008602052604081206115ab90600401611d67565b6001600160a01b038281166000908152600660209081526040808320600490810180546001600160a01b0319169589169586179055938352600890915290206115f49101611bee565b5060019392505050565b600061161d6f159154925192515117d410551251539560821b83611559565b15610b36576001600160a01b0382166000908152600560209081526040909120845161165192600190920191860190611f40565b507f6cf77aa8d9dc244ce6e0c9f000638b1474de4e19cb94dc7615edc4e60a9bbea260056000846001600160a01b03166001600160a01b031681526020019081526020016000206001016040516116a891906126e3565b60405180910390a150600192915050565b6001600160a01b03811660009081526005602052604090206008018054606091906111949061289e565b60006117006d2427a9a824aa20a62fa0a226a4a760911b84611559565b8061172257506117226e2b22a924a324a2a22fa227a1aa27a960891b84611559565b61172b57600080fd5b61173f661410551251539560ca1b83611559565b61174857600080fd5b610b366f159154925192515117d410551251539560821b83610ca5565b6001600160a01b038116600090815260086020526040812061078a90600401611be0565b60006117a067504841524d41435960c01b83611be4565b6001600160a01b038216600090815260076020908152604090912085516117c992870190611f40565b506001600160a01b03821660008181526007602090815260409091206002810180546001600160a01b031916909317909255845161180d9260010191860190611f40565b506118186004611bee565b6001600160a01b0380831660009081526007602052604090819020600281015491517ff143a46358d668a0fe39cbb22e990687e6cb90e04015f286fad8531dcb9715c09361086b936001840192911690612740565b600061102267504841524d41435960c01b83611559565b60006110226e2b22a924a324a2a22fa227a1aa27a960891b83611559565b805160009082906118b757506000905061078d565b50506020015190565b6118c982610acc565b6118d581610cba611bf7565b610cc98383611ce4565b60006118fc6d2427a9a824aa20a62fa0a226a4a760911b84611559565b61190557600080fd5b611918652227a1aa27a960d11b83611559565b61192157600080fd5b610b366e2b22a924a324a2a22fa227a1aa27a960891b83610ca5565b6001600160a01b038082166000908152600860205260408120600281015481546060948594939260018401929116908390610b8b9061289e565b600061079e6002611be0565b600061079e6003611be0565b60006040516020016119a090612542565b60408051601f1981840301815282825280516020918201206001600160a01b0387166000908152600583529290922091926119df9260060191016124d3565b604051602081830303815290604052805190602001201415611a34576001600160a01b03831660009081526005602090815260409091208351611a2a92600690920191850190611f40565b5060019050610b3a565b6001600160a01b038316600090815260056020818152604083209182018054600181018255908452922060069091018054919092019190611a749061289e565b611a7f929190611fc4565b506001600160a01b03831660009081526005602090815260409091208351611a2a92600690920191850190611f40565b6000604051602001611ac090612542565b60408051601f1981840301815282825280516020918201206001600160a01b038716600090815260058352929092209192611aff9260080191016124d3565b604051602081830303815290604052805190602001201415611b4a576001600160a01b03831660009081526005602090815260409091208351611a2a92600890920191850190611f40565b6001600160a01b0383166000908152600560209081526040822060078101805460018101825590845291909220600890920180549290910191611b8c9061289e565b611b97929190611fc4565b506001600160a01b03831660009081526005602090815260409091208351611a2a92600890920191850190611f40565b6001600160e01b031981166301ffc9a760e01b14919050565b5490565b610d198282611c5f565b80546001019055565b3390565b611c058282611559565b610d1957611c1d816001600160a01b03166014611d8e565b611c28836020611d8e565b604051602001611c39929190612545565b60408051601f198184030181529082905262461bcd60e51b8252610d0691600401612648565b611c698282611559565b610d19576000828152602081815260408083206001600160a01b03851684529091529020805460ff19166001179055611ca0611bf7565b6001600160a01b0316816001600160a01b0316837f2f8788117e7eff1d82e926ec794901d17c78024a50270940304540a733656f0d60405160405180910390a45050565b611cee8282611559565b15610d19576000828152602081815260408083206001600160a01b03851684529091529020805460ff19169055611d23611bf7565b6001600160a01b0316816001600160a01b0316837ff6391f5c32d9c69d2a47ea670b442974b53935d1edc7fd64eb21e047a839171b60405160405180910390a45050565b805480611d865760405162461bcd60e51b8152600401610d069061279a565b600019019055565b60606000611d9d836002612838565b611da8906002612820565b67ffffffffffffffff811115611dce57634e487b7160e01b600052604160045260246000fd5b6040519080825280601f01601f191660200182016040528015611df8576020820181803683370190505b509050600360fc1b81600081518110611e2157634e487b7160e01b600052603260045260246000fd5b60200101906001600160f81b031916908160001a905350600f60fb1b81600181518110611e5e57634e487b7160e01b600052603260045260246000fd5b60200101906001600160f81b031916908160001a9053506000611e82846002612838565b611e8d906001612820565b90505b6001811115611f21576f181899199a1a9b1b9c1cb0b131b232b360811b85600f1660108110611ecf57634e487b7160e01b600052603260045260246000fd5b1a60f81b828281518110611ef357634e487b7160e01b600052603260045260246000fd5b60200101906001600160f81b031916908160001a90535060049490941c93611f1a81612887565b9050611e90565b5083156108775760405162461bcd60e51b8152600401610d0690612765565b828054611f4c9061289e565b90600052602060002090601f016020900481019282611f6e5760008555611fb4565b82601f10611f8757805160ff1916838001178555611fb4565b82800160010185558215611fb4579182015b82811115611fb4578251825591602001919060010190611f99565b50611fc092915061203f565b5090565b828054611fd09061289e565b90600052602060002090601f016020900481019282611ff25760008555611fb4565b82601f106120035780548555611fb4565b82800160010185558215611fb457600052602060002091601f016020900482015b82811115611fb4578254825591600101919060010190612024565b5b80821115611fc05760008155600101612040565b600082601f830112612064578081fd5b813567ffffffffffffffff8082111561207f5761207f6128ef565b604051601f8301601f1916810160200182811182821017156120a3576120a36128ef565b6040528281528483016020018610156120ba578384fd5b82602086016020830137918201602001929092529392505050565b6000602082840312156120e6578081fd5b813561087781612905565b60008060408385031215612103578081fd5b823561210e81612905565b9150602083013561211e81612905565b809150509250929050565b60008060006060848603121561213d578081fd5b833561214881612905565b9250602084013561215881612905565b9150604084013561216881612905565b809150509250925092565b60008060408385031215612185578182fd5b823561219081612905565b9150602083013567ffffffffffffffff8111156121ab578182fd5b6121b785828601612054565b9150509250929050565b6000602082840312156121d2578081fd5b5035919050565b600080604083850312156121eb578182fd5b82359150602083013561211e81612905565b60006020828403121561220e578081fd5b81356001600160e01b031981168114610877578182fd5b600060208284031215612236578081fd5b813567ffffffffffffffff81111561224c578182fd5b61225884828501612054565b949350505050565b60008060408385031215612272578182fd5b823567ffffffffffffffff811115612288578283fd5b61229485828601612054565b925050602083013561211e81612905565b6000806000606084860312156122b9578283fd5b833567ffffffffffffffff808211156122d0578485fd5b6122dc87838801612054565b945060208601359150808211156122f1578384fd5b506122fe86828701612054565b925050604084013561216881612905565b60008060008060808587031215612324578081fd5b843567ffffffffffffffff8082111561233b578283fd5b61234788838901612054565b9550602087013591508082111561235c578283fd5b5061236987828801612054565b935050604085013561237a81612905565b9150606085013561238a81612905565b939692955090935050565b600080600080600060a086880312156123ac578081fd5b853567ffffffffffffffff808211156123c3578283fd5b6123cf89838a01612054565b965060208801359150808211156123e4578283fd5b506123f188828901612054565b945050604086013561240281612905565b9250606086013561241281612905565b9150608086013561242281612905565b809150509295509295909350565b60008151808452612448816020860160208601612857565b601f01601f19169290920160200192915050565b600081546124698161289e565b808552602060018381168015612486576001811461249a576124c8565b60ff198516888401526040880195506124c8565b866000528260002060005b858110156124c05781548a82018601529083019084016124a5565b890184019650505b505050505092915050565b60008083546124e18161289e565b600182811680156124f9576001811461250a57612536565b60ff19841687528287019450612536565b8786526020808720875b8581101561252d5781548a820152908401908201612514565b50505082870194505b50929695505050505050565b90565b60007f416363657373436f6e74726f6c3a206163636f756e74200000000000000000008252835161257d816017850160208801612857565b7001034b99036b4b9b9b4b733903937b6329607d1b60179184019182015283516125ae816028840160208801612857565b01602801949350505050565b6001600160a01b0392831681529116602082015260400190565b6000602080830181845280855180835260408601915060408482028701019250838701855b8281101561262757603f19888603018452612615858351612430565b945092850192908501906001016125f9565b5092979650505050505050565b901515815260200190565b90815260200190565b6000602082526108776020830184612430565b60006060825261266e6060830186612430565b82810360208401526126808186612430565b91505060018060a01b0383166040830152949350505050565b6000608082526126ac6080830187612430565b82810360208401526126be8187612430565b6001600160a01b03958616604085015293909416606090920191909152509392505050565b600060208252610877602083018461245c565b600060808252612709608083018761245c565b6001600160a01b038681166020850152838203604085015261272b828761245c565b92508085166060850152505095945050505050565b600060608252612753606083018661245c565b8281036020840152612680818661245c565b6020808252818101527f537472696e67733a20686578206c656e67746820696e73756666696369656e74604082015260600190565b6020808252601b908201527f436f756e7465723a2064656372656d656e74206f766572666c6f770000000000604082015260600190565b6020808252602f908201527f416363657373436f6e74726f6c3a2063616e206f6e6c792072656e6f756e636560408201526e103937b632b9903337b91039b2b63360891b606082015260800190565b60008219821115612833576128336128d9565b500190565b6000816000190483118215151615612852576128526128d9565b500290565b60005b8381101561287257818101518382015260200161285a565b83811115612881576000848401525b50505050565b600081612896576128966128d9565b506000190190565b6002810460018216806128b257607f821691505b602082108114156128d357634e487b7160e01b600052602260045260246000fd5b50919050565b634e487b7160e01b600052601160045260246000fd5b634e487b7160e01b600052604160045260246000fd5b6001600160a01b038116811461291a57600080fd5b5056fea264697066735822122029e52d13e6b6b46f2a5d514544a713cf03f0d21e1767a71d295bcd1c1578357e64736f6c63430008000033",
  "immutableReferences": {},
  "source": "pragma solidity ^0.8.0;\r\n\r\n//SPDX-License-Identifier: MIT\r\n\r\nimport \"./openzeppelin/contracts/utils/Counters.sol\";\r\nimport \"./openzeppelin/contracts/access/AccessControl.sol\";\r\n\r\nbytes32 constant PATIENT = \"PATIENT\";\r\nbytes32 constant VERIFIED_PATIENT = \"VERIFIED_PATIENT\";\r\n\r\nbytes32 constant DOCTOR = \"DOCTOR\";\r\nbytes32 constant VERIFIED_DOCTOR = \"VERIFIED_DOCTOR\";\r\n\r\nbytes32 constant PHARMACY = \"PHARMACY\";\r\n\r\nbytes32 constant HOSPITAL_ADMIN = \"HOSPITAL_ADMIN\";\r\n\r\ncontract MainContract is AccessControl {\r\n    using Counters for Counters.Counter;\r\n\r\n    struct patientRecord {\r\n        string name;\r\n        string personalDetails;\r\n        address doctorAddress;\r\n        address hospitalAddress;\r\n        address walletAddress;\r\n        string[] previousPatientRecordHashes;\r\n        string newMedicalRecordHash;\r\n        string[] previousPatientPrescriptionHashes;\r\n        string newPatientPrescriptionHashes;\r\n    }\r\n\r\n    struct doctorRecord {\r\n        address walletAddress;\r\n        string name;\r\n        string personalDetails;\r\n        string docSpecialization;\r\n        address hospitalAddress;\r\n        Counters.Counter patientCount;\r\n    }\r\n\r\n    struct pharmacyRecord {\r\n        string name;\r\n        string personalDetails;\r\n        address walletAddress;\r\n    }\r\n\r\n    struct hospitalRecord {\r\n        string name;\r\n        string hospitalDetails;\r\n        address walletAddress;\r\n        Counters.Counter patientInHospital;\r\n        Counters.Counter doctorInHospital;\r\n    }\r\n\r\n    Counters.Counter patientCounter;\r\n    Counters.Counter doctorCounter;\r\n    Counters.Counter hospitalCounter;\r\n    Counters.Counter pharmacyCounter;\r\n\r\n    //: Constructor\r\n    constructor() {\r\n        _setRoleAdmin(HOSPITAL_ADMIN, HOSPITAL_ADMIN);\r\n        _setRoleAdmin(DOCTOR, HOSPITAL_ADMIN);\r\n        _setRoleAdmin(PATIENT, HOSPITAL_ADMIN);\r\n\r\n        // default role of contract deployer\r\n        _setupRole(DEFAULT_ADMIN_ROLE, msg.sender);\r\n    }\r\n\r\n    event LogTransferEther(address _to,address _from);\r\n    \r\n    function transferEther(address payable _To )public payable returns (bool)\r\n    {\r\n     _To.transfer(msg.value);\r\n    emit LogTransferEther(_To,msg.sender);\r\n     return true;\r\n    }\r\n\r\n    function stringToBytes32(string memory source)\r\n        public\r\n        pure\r\n        returns (bytes32 result)\r\n    {\r\n        bytes memory tempEmptyStringTest = bytes(source);\r\n        if (tempEmptyStringTest.length == 0) {\r\n            return 0x0;\r\n        }\r\n\r\n        assembly {\r\n            result := mload(add(source, 32))\r\n        }\r\n    }\r\n\r\n    // function getRoleForUser(address _walletAddress) external view return(String role) {\r\n    //     if (hasRole(PATIENT,_walletAddress)) {\r\n    //         return \"PATIENT\";\r\n    //     } else if (hasRole(VERIFIED_PATIENT,_walletAddress)) {\r\n    //         return \"VERIFIED_PATIENT\";\r\n    //     } else if (hasRole(DOCTOR,_walletAddress)) {\r\n    //         return \"DOCTOR\";\r\n    //     } else if (hasRole(VERIFIED_DOCTOR,_walletAddress)) {\r\n    //         return \"VERIFIED_DOCTOR\";\r\n    //     } else if (hasRole(HOSPITAL,_walletAddress)) {\r\n    //         return \"HOSPITAL\";\r\n    //     } else if (hasRole(PHARMACY,_walletAddress)) {\r\n    //         return \"PHARMACY\";\r\n    //     }\r\n    // }\r\n\r\n    event LogStorePatient(\r\n        string name,\r\n        address hospitalAddress,\r\n        string _personalDetails,\r\n        address owner\r\n    );\r\n    event LogUpdatePatientPersonalDetails(string _personalDetails);\r\n\r\n    //: PATIENT DATABASE\r\n    mapping(address => patientRecord) patientDatabase;\r\n\r\n    function storePatient(\r\n        string memory _name,\r\n        string memory _personalDetails,\r\n        address _hospitalAddress,\r\n        address _doctorAddress,\r\n        address _walletAddress\r\n    ) external returns (bool status) {\r\n        if (hasRole(PATIENT, _walletAddress)) {\r\n            patientDatabase[_walletAddress].name = _name;\r\n            patientDatabase[_walletAddress].personalDetails = _personalDetails;\r\n            patientDatabase[_walletAddress].hospitalAddress = _hospitalAddress;\r\n            patientDatabase[_walletAddress].doctorAddress = _doctorAddress;\r\n            patientDatabase[_walletAddress].walletAddress = _walletAddress;\r\n        } else {\r\n            _setupRole(PATIENT, _walletAddress);\r\n            patientDatabase[_walletAddress].name = _name;\r\n            patientDatabase[_walletAddress].personalDetails = _personalDetails;\r\n            patientDatabase[_walletAddress].hospitalAddress = _hospitalAddress;\r\n            patientDatabase[_walletAddress].walletAddress = _walletAddress;\r\n            patientDatabase[_walletAddress].doctorAddress = _doctorAddress;\r\n\r\n            doctorDatabase[_doctorAddress].patientCount.increment();\r\n\r\n            hospitalDatabase[_hospitalAddress].patientInHospital.increment();\r\n            patientCounter.increment();\r\n        }\r\n\r\n        emit LogStorePatient(\r\n            patientDatabase[_walletAddress].name,\r\n            patientDatabase[_walletAddress].hospitalAddress,\r\n            patientDatabase[_walletAddress].personalDetails,\r\n            _walletAddress\r\n        );\r\n        return true;\r\n    }\r\n\r\n    // RHEA:- MAKE FUNCTIONS BELOW FOR ALL ENTITIES\r\n    function updatePatientPersonalDetailHash(\r\n        string memory _personalDetails,\r\n        address _walletAddress\r\n    ) external returns (bool status) {\r\n        if (hasRole(VERIFIED_PATIENT, _walletAddress)) {\r\n            patientDatabase[_walletAddress].personalDetails = _personalDetails;\r\n            emit LogUpdatePatientPersonalDetails(\r\n                patientDatabase[_walletAddress].personalDetails\r\n            );\r\n        }\r\n\r\n        return true;\r\n    }\r\n\r\n    function updatePatientPrescriptionHash(\r\n        string memory newPatientPrescriptionHashes,\r\n        address _walletAddress\r\n    ) external returns (bool status) {\r\n        if (hasRole(VERIFIED_PATIENT, _walletAddress)) {\r\n            patientDatabase[_walletAddress]\r\n                .newPatientPrescriptionHashes = newPatientPrescriptionHashes;\r\n        }\r\n\r\n        return true;\r\n    }\r\n\r\n    function changeHospitalForPatient(\r\n        address _previousHospitalAddress,\r\n        address _newHospitalAddress,\r\n        address _walletAddress\r\n    ) external returns (bool status) {\r\n        if (hasRole(VERIFIED_PATIENT, _walletAddress)) {\r\n            hospitalDatabase[_previousHospitalAddress]\r\n                .patientInHospital\r\n                .decrement();\r\n\r\n            patientDatabase[_walletAddress]\r\n                .hospitalAddress = _newHospitalAddress;\r\n\r\n            hospitalDatabase[_newHospitalAddress].patientInHospital.increment();\r\n            return true;\r\n        }\r\n    }\r\n\r\n    function changeDoctorForPatient(\r\n        address _previousDoctorAddress,\r\n        address _newDoctorAddress,\r\n        address _walletAddress\r\n    ) external returns (bool status) {\r\n        if (hasRole(VERIFIED_PATIENT, _walletAddress)) {\r\n            doctorDatabase[_previousDoctorAddress].patientCount.decrement();\r\n\r\n            patientDatabase[_walletAddress].doctorAddress = _newDoctorAddress;\r\n\r\n            doctorDatabase[_newDoctorAddress].patientCount.increment();\r\n            return true;\r\n        }\r\n    }\r\n\r\n    function retrievePatientCount()\r\n        external\r\n        view\r\n        returns (uint256 patientCount)\r\n    {\r\n        return patientCounter.current();\r\n    }\r\n\r\n    function retrievePatientData(address _walletAddress)\r\n        external\r\n        view\r\n        returns (\r\n            string memory name,\r\n            string memory personalDetails,\r\n            address hospitalAddress,\r\n            address walletAddress\r\n        )\r\n    {\r\n        return (\r\n            patientDatabase[_walletAddress].name,\r\n            patientDatabase[_walletAddress].personalDetails,\r\n            patientDatabase[_walletAddress].hospitalAddress,\r\n            _walletAddress\r\n        );\r\n    }\r\n\r\n    function updatePatientPersonalData(\r\n        address _walletAddress,\r\n        string memory _personalDetails\r\n    ) public returns (bool success) {\r\n        patientDatabase[_walletAddress].personalDetails = _personalDetails;\r\n\r\n        return true;\r\n    }\r\n\r\n    function updatePatientMedicalRecords(\r\n        address _walletAddress,\r\n        string memory medicalRecordHash\r\n    ) external returns (bool status) {\r\n        if (\r\n            keccak256(\r\n                abi.encodePacked(\r\n                    patientDatabase[_walletAddress].newMedicalRecordHash\r\n                )\r\n            ) == keccak256(abi.encodePacked(\"\"))\r\n        ) {\r\n            patientDatabase[_walletAddress]\r\n                .newMedicalRecordHash = medicalRecordHash;\r\n            return true;\r\n        } else {\r\n            patientDatabase[_walletAddress].previousPatientRecordHashes.push(\r\n                patientDatabase[_walletAddress].newMedicalRecordHash\r\n            );\r\n            patientDatabase[_walletAddress]\r\n                .newMedicalRecordHash = medicalRecordHash;\r\n            return true;\r\n        }\r\n    }\r\n\r\n    function updatePatientPrescription(\r\n        address _walletAddress,\r\n        string memory prescriptionHash\r\n    ) external returns (bool status) {\r\n        if (\r\n            keccak256(\r\n                abi.encodePacked(\r\n                    patientDatabase[_walletAddress].newPatientPrescriptionHashes\r\n                )\r\n            ) == keccak256(abi.encodePacked(\"\"))\r\n        ) {\r\n            patientDatabase[_walletAddress]\r\n                .newPatientPrescriptionHashes = prescriptionHash;\r\n            return true;\r\n        } else {\r\n            patientDatabase[_walletAddress]\r\n                .previousPatientPrescriptionHashes\r\n                .push(\r\n                    patientDatabase[_walletAddress].newPatientPrescriptionHashes\r\n                );\r\n            patientDatabase[_walletAddress]\r\n                .newPatientPrescriptionHashes = prescriptionHash;\r\n            return true;\r\n        }\r\n    }\r\n\r\n    function getNewPrescription(address _patientAddress)\r\n        external\r\n        view\r\n        returns (string memory status)\r\n    {\r\n        return patientDatabase[_patientAddress].newPatientPrescriptionHashes;\r\n    }\r\n\r\n    function getMultiplePrescription(address _patientAddress)\r\n        external\r\n        view\r\n        returns (string[] memory status)\r\n    {\r\n        return\r\n            patientDatabase[_patientAddress].previousPatientPrescriptionHashes;\r\n    }\r\n\r\n    function getNewRecords(address _patientAddress)\r\n        external\r\n        view\r\n        returns (string memory status)\r\n    {\r\n        return patientDatabase[_patientAddress].newMedicalRecordHash;\r\n    }\r\n\r\n    function getMultipleRecords(address _patientAddress)\r\n        external\r\n        view\r\n        returns (string[] memory status)\r\n    {\r\n        return patientDatabase[_patientAddress].previousPatientRecordHashes;\r\n    }\r\n\r\n    event LogStoreDoctor(\r\n        string name,\r\n        string personalDetails,\r\n        address walletAddress\r\n    );\r\n    event LogUpdateDoctor(string name, string personalDetails);\r\n    event LogDeleteDoctor(string name, uint256 empIdIndex);\r\n\r\n    //: DOCTOR DATABASE\r\n    mapping(address => doctorRecord) doctorDatabase;\r\n\r\n    function storeDoctor(\r\n        string memory name,\r\n        string memory _personalDetails,\r\n        address _hospitalAddress,\r\n        address _walletAddress\r\n    ) external returns (bool status) {\r\n        if (hasRole(DOCTOR, _walletAddress)) {\r\n            _setupRole(DOCTOR, _walletAddress);\r\n            doctorDatabase[_walletAddress].name = name;\r\n            doctorDatabase[_walletAddress].walletAddress = _walletAddress;\r\n            doctorDatabase[_walletAddress].hospitalAddress = _hospitalAddress;\r\n            doctorDatabase[_walletAddress].personalDetails = _personalDetails;\r\n        } else {\r\n            _setupRole(DOCTOR, _walletAddress);\r\n            doctorDatabase[_walletAddress].name = name;\r\n            doctorDatabase[_walletAddress].walletAddress = _walletAddress;\r\n            doctorDatabase[_walletAddress].hospitalAddress = _hospitalAddress;\r\n            doctorDatabase[_walletAddress].personalDetails = _personalDetails;\r\n\r\n            hospitalDatabase[_hospitalAddress].doctorInHospital.increment();\r\n            doctorCounter.increment();\r\n        }\r\n\r\n        emit LogStoreDoctor(\r\n            doctorDatabase[_walletAddress].name,\r\n            doctorDatabase[_walletAddress].personalDetails,\r\n            _walletAddress\r\n        );\r\n\r\n        return true;\r\n    }\r\n\r\n    //updated function.\r\n    function updateDoctorPersonalDetailHash(\r\n        string memory _personalDetails,\r\n        address _walletAddress\r\n    ) external returns (bool status) {\r\n        if (hasRole(VERIFIED_DOCTOR, _walletAddress)) {\r\n            patientDatabase[_walletAddress].personalDetails = _personalDetails;\r\n        }\r\n\r\n        return true;\r\n    }\r\n\r\n    function changeHospitalForDoctor(\r\n        address _previousHospitalAddress,\r\n        address _newHospitalAddress,\r\n        address _walletAddress\r\n    ) external returns (bool status) {\r\n        hospitalDatabase[_previousHospitalAddress].doctorInHospital.decrement();\r\n\r\n        doctorDatabase[_walletAddress].hospitalAddress = _newHospitalAddress;\r\n\r\n        hospitalDatabase[_newHospitalAddress].doctorInHospital.increment();\r\n\r\n        return true;\r\n    }\r\n\r\n    function retrieveDoctorCount() external view returns (uint256 doctorCount) {\r\n        return doctorCounter.current();\r\n    }\r\n\r\n    function getDoctorData(address _walletAddress)\r\n        public\r\n        view\r\n        returns (\r\n            string memory name,\r\n            string memory doctorDetails,\r\n            address walletAddress\r\n        )\r\n    {\r\n        if (hasRole(PHARMACY, _walletAddress)) {\r\n            return (\r\n                pharmacyDatabase[_walletAddress].name,\r\n                pharmacyDatabase[_walletAddress].personalDetails,\r\n                _walletAddress\r\n            );\r\n        }\r\n    }\r\n\r\n    function retrieveDoctorData(address _walletAddress)\r\n        public\r\n        view\r\n        returns (\r\n            string memory name,\r\n            string memory personalDetails,\r\n            address hospitalAddress\r\n        )\r\n    {\r\n        return (\r\n            doctorDatabase[_walletAddress].name,\r\n            doctorDatabase[_walletAddress].personalDetails,\r\n            doctorDatabase[_walletAddress].hospitalAddress\r\n        );\r\n    }\r\n\r\n    event LogStorePharmacy(string name, string personalDetails, address owner);\r\n    event LogGetPharmacy(string name, string personalDetails, address owner);\r\n\r\n    //: Pharmacy DATABASE\r\n    mapping(address => pharmacyRecord) pharmacyDatabase;\r\n\r\n    function storePharmacy(\r\n        string memory name,\r\n        string memory _personalDetails,\r\n        address _walletAddress\r\n    ) external returns (bool status) {\r\n        _setupRole(PHARMACY, _walletAddress);\r\n        pharmacyDatabase[_walletAddress].name = name;\r\n        pharmacyDatabase[_walletAddress].walletAddress = _walletAddress;\r\n        pharmacyDatabase[_walletAddress].personalDetails = _personalDetails;\r\n        pharmacyCounter.increment();\r\n\r\n        emit LogStorePharmacy(\r\n            pharmacyDatabase[_walletAddress].name,\r\n            pharmacyDatabase[_walletAddress].personalDetails,\r\n            pharmacyDatabase[_walletAddress].walletAddress\r\n        );\r\n\r\n        return true;\r\n    }\r\n\r\n    //updated function.\r\n    function updatePharmacyPersonalDetailHash(\r\n        string memory _personalDetails,\r\n        address _walletAddress\r\n    ) external returns (bool status) {\r\n        if (hasRole(PHARMACY, _walletAddress)) {\r\n            patientDatabase[_walletAddress].personalDetails = _personalDetails;\r\n        }\r\n\r\n        return true;\r\n    }\r\n\r\n    function retrievePharmacyCount()\r\n        external\r\n        view\r\n        returns (uint256 pharmacyCount)\r\n    {\r\n        return pharmacyCounter.current();\r\n    }\r\n\r\n    function getPharmacyData(address _walletAddress)\r\n        public\r\n        view\r\n        returns (\r\n            string memory name,\r\n            string memory pharmacyDetails,\r\n            address walletAddress\r\n        )\r\n    {\r\n        if (hasRole(PHARMACY, _walletAddress)) {\r\n            return (\r\n                pharmacyDatabase[_walletAddress].name,\r\n                pharmacyDatabase[_walletAddress].personalDetails,\r\n                _walletAddress\r\n            );\r\n        }\r\n    }\r\n\r\n    event LogHospital(\r\n        string name,\r\n        string _hospitalDetails,\r\n        address walletAddress\r\n    );\r\n    event LogUpdateHospital(string name, string dateOfBirth);\r\n    event LogDeleteHospital(string name, uint256 empIdIndex);\r\n\r\n    //: HOSPITAL DATABASE\r\n    mapping(address => hospitalRecord) hospitalDatabase;\r\n\r\n    function storeHospital(\r\n        string memory _name,\r\n        string memory _hospitalDetails,\r\n        address _walletAddress\r\n    ) external returns (bool status) {\r\n        _setupRole(HOSPITAL_ADMIN, _walletAddress);\r\n        hospitalDatabase[_walletAddress].name = _name;\r\n        hospitalDatabase[_walletAddress].walletAddress = _walletAddress;\r\n        hospitalDatabase[_walletAddress].hospitalDetails = _hospitalDetails;\r\n        hospitalCounter.increment();\r\n\r\n        emit LogHospital(_name, _hospitalDetails, _walletAddress);\r\n\r\n        return true;\r\n    }\r\n\r\n    //updated function\r\n    function updateHospitalPersonalDetailHash(\r\n        string memory _personalDetails,\r\n        address _walletAddress\r\n    ) external returns (bool status) {\r\n        if (hasRole(HOSPITAL_ADMIN, _walletAddress)) {\r\n            patientDatabase[_walletAddress].personalDetails = _personalDetails;\r\n        }\r\n\r\n        return true;\r\n    }\r\n\r\n    function retrieveHospitalCount()\r\n        external\r\n        view\r\n        returns (uint256 hospitalCount)\r\n    {\r\n        return hospitalCounter.current();\r\n    }\r\n\r\n    function retrieveHospitalSpecificCountOfDoctors(address _hospitalAddress)\r\n        external\r\n        view\r\n        returns (uint256 doctorCountInHospital)\r\n    {\r\n        return hospitalDatabase[_hospitalAddress].doctorInHospital.current();\r\n    }\r\n\r\n    function retrieveHospitalSpecificCountOfPatients(address _hospitalAddress)\r\n        external\r\n        view\r\n        returns (uint256 patientCountInHospital)\r\n    {\r\n        return hospitalDatabase[_hospitalAddress].patientInHospital.current();\r\n    }\r\n\r\n    function getHospitalData(address addressOfUser)\r\n        public\r\n        view\r\n        returns (\r\n            string memory _nameAdmin,\r\n            string memory hospitalDetails,\r\n            address walletAddress\r\n        )\r\n    {\r\n        return (\r\n            hospitalDatabase[addressOfUser].name,\r\n            hospitalDatabase[addressOfUser].hospitalDetails,\r\n            hospitalDatabase[addressOfUser].walletAddress\r\n        );\r\n    }\r\n\r\n    // Grant Role VERIFIED_PATIENT To Patient\r\n    function grantRoleVerifiedPatient(\r\n        address _addressOfAdmin,\r\n        address _addressOfPatient\r\n    ) public returns (bool success) {\r\n        require(\r\n            hasRole(HOSPITAL_ADMIN, _addressOfAdmin) ||\r\n                hasRole(VERIFIED_DOCTOR, _addressOfAdmin)\r\n        );\r\n        require(hasRole(PATIENT, _addressOfPatient));\r\n        grantRole(VERIFIED_PATIENT, _addressOfPatient);\r\n        return true;\r\n    }\r\n\r\n    // Grant Role VERIFIED_DOCTOR to Doctor\r\n    function grantRoleVerifiedDoctor(\r\n        address _addressOfAdmin,\r\n        address _addressOfDoctor\r\n    ) public returns (bool success) {\r\n        require(hasRole(HOSPITAL_ADMIN, _addressOfAdmin));\r\n        require(hasRole(DOCTOR, _addressOfDoctor));\r\n        grantRole(VERIFIED_DOCTOR, _addressOfDoctor);\r\n        return true;\r\n    }\r\n}\r\n",
  "sourcePath": "C:\\Users\\reube\\Documents\\blockchain_in_healthcare\\contracts\\MainContract.sol",
  "compiler": {
    "name": "solc",
    "version": "0.8.0+commit.c7dfd78e.Emscripten.clang"
  },
  "schemaVersion": "3.4.4",
  "updatedAt": "2022-01-13T09:33:13.436Z",
  "networkType": "ethereum",
  "devdoc": {
    "kind": "dev",
    "methods": {
      "getRoleAdmin(bytes32)": {
        "details": "Returns the admin role that controls `role`. See {grantRole} and {revokeRole}. To change a role's admin, use {_setRoleAdmin}."
      },
      "grantRole(bytes32,address)": {
        "details": "Grants `role` to `account`. If `account` had not been already granted `role`, emits a {RoleGranted} event. Requirements: - the caller must have ``role``'s admin role."
      },
      "hasRole(bytes32,address)": {
        "details": "Returns `true` if `account` has been granted `role`."
      },
      "renounceRole(bytes32,address)": {
        "details": "Revokes `role` from the calling account. Roles are often managed via {grantRole} and {revokeRole}: this function's purpose is to provide a mechanism for accounts to lose their privileges if they are compromised (such as when a trusted device is misplaced). If the calling account had been revoked `role`, emits a {RoleRevoked} event. Requirements: - the caller must be `account`."
      },
      "revokeRole(bytes32,address)": {
        "details": "Revokes `role` from `account`. If `account` had been granted `role`, emits a {RoleRevoked} event. Requirements: - the caller must have ``role``'s admin role."
      },
      "supportsInterface(bytes4)": {
        "details": "See {IERC165-supportsInterface}."
      }
    },
    "version": 1
  },
  "userdoc": {
    "kind": "user",
    "methods": {},
    "version": 1
  }
}