{
  "contractName": "MainContract",
  "abi": [
    {
      "inputs": [],
      "stateMutability": "nonpayable",
      "type": "constructor"
    },
    {
      "anonymous": false,
      "inputs": [
        {
          "indexed": false,
          "internalType": "string",
          "name": "name",
          "type": "string"
        },
        {
          "indexed": false,
          "internalType": "uint256",
          "name": "empIdIndex",
          "type": "uint256"
        }
      ],
      "name": "LogDeleteDoctor",
      "type": "event"
    },
    {
      "anonymous": false,
      "inputs": [
        {
          "indexed": false,
          "internalType": "string",
          "name": "name",
          "type": "string"
        },
        {
          "indexed": false,
          "internalType": "uint256",
          "name": "empIdIndex",
          "type": "uint256"
        }
      ],
      "name": "LogDeleteHospital",
      "type": "event"
    },
    {
      "anonymous": false,
      "inputs": [
        {
          "indexed": false,
          "internalType": "string",
          "name": "name",
          "type": "string"
        },
        {
          "indexed": false,
          "internalType": "string",
          "name": "_hospitalDetails",
          "type": "string"
        },
        {
          "indexed": false,
          "internalType": "address",
          "name": "walletAddress",
          "type": "address"
        }
      ],
      "name": "LogHospital",
      "type": "event"
    },
    {
      "anonymous": false,
      "inputs": [
        {
          "indexed": false,
          "internalType": "string",
          "name": "name",
          "type": "string"
        },
        {
          "indexed": false,
          "internalType": "string",
          "name": "personalDetails",
          "type": "string"
        },
        {
          "indexed": false,
          "internalType": "address",
          "name": "owner",
          "type": "address"
        }
      ],
      "name": "LogPharmacy",
      "type": "event"
    },
    {
      "anonymous": false,
      "inputs": [
        {
          "indexed": false,
          "internalType": "string",
          "name": "name",
          "type": "string"
        },
        {
          "indexed": false,
          "internalType": "string",
          "name": "personalDetails",
          "type": "string"
        },
        {
          "indexed": false,
          "internalType": "address",
          "name": "owner",
          "type": "address"
        }
      ],
      "name": "LogStoreDoctor",
      "type": "event"
    },
    {
      "anonymous": false,
      "inputs": [
        {
          "indexed": false,
          "internalType": "string",
          "name": "name",
          "type": "string"
        },
        {
          "indexed": false,
          "internalType": "address",
          "name": "hospitalAddress",
          "type": "address"
        },
        {
          "indexed": false,
          "internalType": "string",
          "name": "_personalDetails",
          "type": "string"
        },
        {
          "indexed": false,
          "internalType": "address",
          "name": "owner",
          "type": "address"
        }
      ],
      "name": "LogStorePatient",
      "type": "event"
    },
    {
      "anonymous": false,
      "inputs": [
        {
          "indexed": false,
          "internalType": "string",
          "name": "name",
          "type": "string"
        },
        {
          "indexed": false,
          "internalType": "string",
          "name": "personalDetails",
          "type": "string"
        }
      ],
      "name": "LogUpdateDoctor",
      "type": "event"
    },
    {
      "anonymous": false,
      "inputs": [
        {
          "indexed": false,
          "internalType": "string",
          "name": "name",
          "type": "string"
        },
        {
          "indexed": false,
          "internalType": "string",
          "name": "dateOfBirth",
          "type": "string"
        }
      ],
      "name": "LogUpdateHospital",
      "type": "event"
    },
    {
      "anonymous": false,
      "inputs": [
        {
          "indexed": false,
          "internalType": "string",
          "name": "name",
          "type": "string"
        },
        {
          "indexed": false,
          "internalType": "string",
          "name": "_personalDetails",
          "type": "string"
        }
      ],
      "name": "LogUpdatePatientPersonalDetails",
      "type": "event"
    },
    {
      "anonymous": false,
      "inputs": [
        {
          "indexed": true,
          "internalType": "bytes32",
          "name": "role",
          "type": "bytes32"
        },
        {
          "indexed": true,
          "internalType": "bytes32",
          "name": "previousAdminRole",
          "type": "bytes32"
        },
        {
          "indexed": true,
          "internalType": "bytes32",
          "name": "newAdminRole",
          "type": "bytes32"
        }
      ],
      "name": "RoleAdminChanged",
      "type": "event"
    },
    {
      "anonymous": false,
      "inputs": [
        {
          "indexed": true,
          "internalType": "bytes32",
          "name": "role",
          "type": "bytes32"
        },
        {
          "indexed": true,
          "internalType": "address",
          "name": "account",
          "type": "address"
        },
        {
          "indexed": true,
          "internalType": "address",
          "name": "sender",
          "type": "address"
        }
      ],
      "name": "RoleGranted",
      "type": "event"
    },
    {
      "anonymous": false,
      "inputs": [
        {
          "indexed": true,
          "internalType": "bytes32",
          "name": "role",
          "type": "bytes32"
        },
        {
          "indexed": true,
          "internalType": "address",
          "name": "account",
          "type": "address"
        },
        {
          "indexed": true,
          "internalType": "address",
          "name": "sender",
          "type": "address"
        }
      ],
      "name": "RoleRevoked",
      "type": "event"
    },
    {
      "inputs": [],
      "name": "DEFAULT_ADMIN_ROLE",
      "outputs": [
        {
          "internalType": "bytes32",
          "name": "",
          "type": "bytes32"
        }
      ],
      "stateMutability": "view",
      "type": "function"
    },
    {
      "inputs": [
        {
          "internalType": "bytes32",
          "name": "role",
          "type": "bytes32"
        }
      ],
      "name": "getRoleAdmin",
      "outputs": [
        {
          "internalType": "bytes32",
          "name": "",
          "type": "bytes32"
        }
      ],
      "stateMutability": "view",
      "type": "function"
    },
    {
      "inputs": [
        {
          "internalType": "bytes32",
          "name": "role",
          "type": "bytes32"
        },
        {
          "internalType": "address",
          "name": "account",
          "type": "address"
        }
      ],
      "name": "grantRole",
      "outputs": [],
      "stateMutability": "nonpayable",
      "type": "function"
    },
    {
      "inputs": [
        {
          "internalType": "bytes32",
          "name": "role",
          "type": "bytes32"
        },
        {
          "internalType": "address",
          "name": "account",
          "type": "address"
        }
      ],
      "name": "hasRole",
      "outputs": [
        {
          "internalType": "bool",
          "name": "",
          "type": "bool"
        }
      ],
      "stateMutability": "view",
      "type": "function"
    },
    {
      "inputs": [
        {
          "internalType": "bytes32",
          "name": "role",
          "type": "bytes32"
        },
        {
          "internalType": "address",
          "name": "account",
          "type": "address"
        }
      ],
      "name": "renounceRole",
      "outputs": [],
      "stateMutability": "nonpayable",
      "type": "function"
    },
    {
      "inputs": [
        {
          "internalType": "bytes32",
          "name": "role",
          "type": "bytes32"
        },
        {
          "internalType": "address",
          "name": "account",
          "type": "address"
        }
      ],
      "name": "revokeRole",
      "outputs": [],
      "stateMutability": "nonpayable",
      "type": "function"
    },
    {
      "inputs": [
        {
          "internalType": "bytes4",
          "name": "interfaceId",
          "type": "bytes4"
        }
      ],
      "name": "supportsInterface",
      "outputs": [
        {
          "internalType": "bool",
          "name": "",
          "type": "bool"
        }
      ],
      "stateMutability": "view",
      "type": "function"
    },
    {
      "inputs": [
        {
          "internalType": "string",
          "name": "_name",
          "type": "string"
        },
        {
          "internalType": "string",
          "name": "_personalDetails",
          "type": "string"
        },
        {
          "internalType": "address",
          "name": "_hospitalAddress",
          "type": "address"
        },
        {
          "internalType": "address",
          "name": "_walletAddress",
          "type": "address"
        }
      ],
      "name": "storePatient",
      "outputs": [
        {
          "internalType": "bool",
          "name": "status",
          "type": "bool"
        }
      ],
      "stateMutability": "nonpayable",
      "type": "function"
    },
    {
      "inputs": [
        {
          "internalType": "address",
          "name": "_previousHospitalAddress",
          "type": "address"
        },
        {
          "internalType": "address",
          "name": "_newHospitalAddress",
          "type": "address"
        },
        {
          "internalType": "address",
          "name": "_walletAddress",
          "type": "address"
        }
      ],
      "name": "changeHospitalForPatient",
      "outputs": [
        {
          "internalType": "bool",
          "name": "status",
          "type": "bool"
        }
      ],
      "stateMutability": "nonpayable",
      "type": "function"
    },
    {
      "inputs": [],
      "name": "retrievePatientCount",
      "outputs": [
        {
          "internalType": "uint256",
          "name": "patientCount",
          "type": "uint256"
        }
      ],
      "stateMutability": "view",
      "type": "function"
    },
    {
      "inputs": [
        {
          "internalType": "address",
          "name": "_walletAddress",
          "type": "address"
        }
      ],
      "name": "retrievePatientData",
      "outputs": [
        {
          "internalType": "string",
          "name": "name",
          "type": "string"
        },
        {
          "internalType": "string",
          "name": "personalDetails",
          "type": "string"
        },
        {
          "internalType": "address",
          "name": "hospitalAddress",
          "type": "address"
        },
        {
          "internalType": "address",
          "name": "walletAddress",
          "type": "address"
        }
      ],
      "stateMutability": "view",
      "type": "function"
    },
    {
      "inputs": [
        {
          "internalType": "address",
          "name": "_walletAddress",
          "type": "address"
        },
        {
          "internalType": "string",
          "name": "_personalDetails",
          "type": "string"
        }
      ],
      "name": "updatePatientPersonalData",
      "outputs": [
        {
          "internalType": "bool",
          "name": "success",
          "type": "bool"
        }
      ],
      "stateMutability": "nonpayable",
      "type": "function"
    },
    {
      "inputs": [
        {
          "internalType": "address",
          "name": "_walletAddress",
          "type": "address"
        },
        {
          "internalType": "string",
          "name": "medicalRecordHash",
          "type": "string"
        }
      ],
      "name": "updatePatientMedicalRecords",
      "outputs": [
        {
          "internalType": "bool",
          "name": "status",
          "type": "bool"
        }
      ],
      "stateMutability": "nonpayable",
      "type": "function"
    },
    {
      "inputs": [
        {
          "internalType": "address",
          "name": "_walletAddress",
          "type": "address"
        },
        {
          "internalType": "string",
          "name": "prescriptionHash",
          "type": "string"
        }
      ],
      "name": "updatePatientPrescription",
      "outputs": [
        {
          "internalType": "string",
          "name": "status",
          "type": "string"
        }
      ],
      "stateMutability": "nonpayable",
      "type": "function"
    },
    {
      "inputs": [
        {
          "internalType": "address",
          "name": "_patientAddress",
          "type": "address"
        }
      ],
      "name": "getNewPrescription",
      "outputs": [
        {
          "internalType": "string",
          "name": "status",
          "type": "string"
        }
      ],
      "stateMutability": "view",
      "type": "function"
    },
    {
      "inputs": [
        {
          "internalType": "address",
          "name": "_patientAddress",
          "type": "address"
        }
      ],
      "name": "getMultiplePrescription",
      "outputs": [
        {
          "internalType": "string[]",
          "name": "status",
          "type": "string[]"
        }
      ],
      "stateMutability": "view",
      "type": "function"
    },
    {
      "inputs": [
        {
          "internalType": "address",
          "name": "_patientAddress",
          "type": "address"
        }
      ],
      "name": "getNewRecords",
      "outputs": [
        {
          "internalType": "string",
          "name": "status",
          "type": "string"
        }
      ],
      "stateMutability": "view",
      "type": "function"
    },
    {
      "inputs": [
        {
          "internalType": "address",
          "name": "_patientAddress",
          "type": "address"
        }
      ],
      "name": "getMultipleRecords",
      "outputs": [
        {
          "internalType": "string[]",
          "name": "status",
          "type": "string[]"
        }
      ],
      "stateMutability": "view",
      "type": "function"
    },
    {
      "inputs": [
        {
          "internalType": "string",
          "name": "name",
          "type": "string"
        },
        {
          "internalType": "string",
          "name": "_personalDetails",
          "type": "string"
        },
        {
          "internalType": "address",
          "name": "_hospitalAddress",
          "type": "address"
        },
        {
          "internalType": "address",
          "name": "_walletAddress",
          "type": "address"
        }
      ],
      "name": "storeDoctor",
      "outputs": [
        {
          "internalType": "bool",
          "name": "status",
          "type": "bool"
        }
      ],
      "stateMutability": "nonpayable",
      "type": "function"
    },
    {
      "inputs": [],
      "name": "retrieveDoctorCount",
      "outputs": [
        {
          "internalType": "uint256",
          "name": "doctorCount",
          "type": "uint256"
        }
      ],
      "stateMutability": "view",
      "type": "function"
    },
    {
      "inputs": [
        {
          "internalType": "address",
          "name": "_walletAddress",
          "type": "address"
        }
      ],
      "name": "retrieveDoctorData",
      "outputs": [
        {
          "internalType": "string",
          "name": "name",
          "type": "string"
        },
        {
          "internalType": "string",
          "name": "personalDetails",
          "type": "string"
        },
        {
          "internalType": "address",
          "name": "hospitalAddress",
          "type": "address"
        }
      ],
      "stateMutability": "view",
      "type": "function"
    },
    {
      "inputs": [
        {
          "internalType": "string",
          "name": "name",
          "type": "string"
        },
        {
          "internalType": "string",
          "name": "_personalDetails",
          "type": "string"
        },
        {
          "internalType": "address",
          "name": "_walletAddress",
          "type": "address"
        }
      ],
      "name": "storePharmacy",
      "outputs": [
        {
          "internalType": "bool",
          "name": "status",
          "type": "bool"
        }
      ],
      "stateMutability": "nonpayable",
      "type": "function"
    },
    {
      "inputs": [],
      "name": "retrievePharmacyCount",
      "outputs": [
        {
          "internalType": "uint256",
          "name": "pharmacyCount",
          "type": "uint256"
        }
      ],
      "stateMutability": "view",
      "type": "function"
    },
    {
      "inputs": [
        {
          "internalType": "address",
          "name": "_walletAddress",
          "type": "address"
        }
      ],
      "name": "getPharmacyData",
      "outputs": [
        {
          "internalType": "string",
          "name": "name",
          "type": "string"
        },
        {
          "internalType": "string",
          "name": "pharmacyDetails",
          "type": "string"
        },
        {
          "internalType": "address",
          "name": "walletAddress",
          "type": "address"
        }
      ],
      "stateMutability": "view",
      "type": "function"
    },
    {
      "inputs": [
        {
          "internalType": "string",
          "name": "_name",
          "type": "string"
        },
        {
          "internalType": "string",
          "name": "_hospitalDetails",
          "type": "string"
        },
        {
          "internalType": "address",
          "name": "_walletAddress",
          "type": "address"
        }
      ],
      "name": "storeHospital",
      "outputs": [
        {
          "internalType": "bool",
          "name": "status",
          "type": "bool"
        }
      ],
      "stateMutability": "nonpayable",
      "type": "function"
    },
    {
      "inputs": [],
      "name": "retrieveHospitalCount",
      "outputs": [
        {
          "internalType": "uint256",
          "name": "hospitalCount",
          "type": "uint256"
        }
      ],
      "stateMutability": "view",
      "type": "function"
    },
    {
      "inputs": [
        {
          "internalType": "address",
          "name": "_hospitalAddress",
          "type": "address"
        }
      ],
      "name": "retrieveHospitalSpecificCountOfDoctors",
      "outputs": [
        {
          "internalType": "uint256",
          "name": "doctorCountInHospital",
          "type": "uint256"
        }
      ],
      "stateMutability": "view",
      "type": "function"
    },
    {
      "inputs": [
        {
          "internalType": "address",
          "name": "_hospitalAddress",
          "type": "address"
        }
      ],
      "name": "retrieveHospitalSpecificCountOfPatients",
      "outputs": [
        {
          "internalType": "uint256",
          "name": "patientCountInHospital",
          "type": "uint256"
        }
      ],
      "stateMutability": "view",
      "type": "function"
    },
    {
      "inputs": [
        {
          "internalType": "address",
          "name": "addressOfUser",
          "type": "address"
        }
      ],
      "name": "getHospitalData",
      "outputs": [
        {
          "internalType": "string",
          "name": "_nameAdmin",
          "type": "string"
        },
        {
          "internalType": "string",
          "name": "hospitalDetails",
          "type": "string"
        },
        {
          "internalType": "address",
          "name": "walletAddress",
          "type": "address"
        }
      ],
      "stateMutability": "view",
      "type": "function"
    },
    {
      "inputs": [
        {
          "internalType": "address",
          "name": "_addressOfAdmin",
          "type": "address"
        },
        {
          "internalType": "address",
          "name": "_addressOfPatient",
          "type": "address"
        }
      ],
      "name": "grantRoleVerifiedPatient",
      "outputs": [
        {
          "internalType": "bool",
          "name": "success",
          "type": "bool"
        }
      ],
      "stateMutability": "nonpayable",
      "type": "function"
    },
    {
      "inputs": [
        {
          "internalType": "address",
          "name": "_addressOfAdmin",
          "type": "address"
        },
        {
          "internalType": "address",
          "name": "_addressOfDoctor",
          "type": "address"
        }
      ],
      "name": "grantRoleVerifiedDoctor",
      "outputs": [
        {
          "internalType": "bool",
          "name": "success",
          "type": "bool"
        }
      ],
      "stateMutability": "nonpayable",
      "type": "function"
    }
  ],
  "bytecode": "0x60806040523480156200001157600080fd5b506200002d600080516020620024ef83398151915280620000b6565b620000687fc9c8e67a61d2e7371df46522b44051b955c16bf4b713ef44e1373b25bfcd80b2600080516020620024ef833981519152620000b6565b620000a37fe5786ee6f50ab1a5567cb3f3f6840a2f4ddbafdf4a35cb2c52d5b732b1e84a32600080516020620024ef833981519152620000b6565b620000b06000336200010b565b620001e7565b6000620000c3836200011b565b600084815260208190526040808220600101859055519192508391839186917fbd79b86ffe0ab8e8776151514217cd7cacd52c909f66475c3af44e129f0b00ff9190a4505050565b62000117828262000130565b5050565b60009081526020819052604090206001015490565b6200013c8282620001ba565b62000117576000828152602081815260408083206001600160a01b03851684529091529020805460ff1916600117905562000176620001e3565b6001600160a01b0316816001600160a01b0316837f2f8788117e7eff1d82e926ec794901d17c78024a50270940304540a733656f0d60405160405180910390a45050565b6000918252602082815260408084206001600160a01b0393909316845291905290205460ff1690565b3390565b6122f880620001f76000396000f3fe608060405234801561001057600080fd5b50600436106101e55760003560e01c806377aee2921161010f578063d547741f116100a2578063edae7fb511610071578063edae7fb514610428578063f98d5d2514610430578063fcd4014b14610438578063fffaff421461044b576101e5565b8063d547741f146103dc578063e21eadcc146103ef578063e37e969614610402578063e8300b1d14610415576101e5565b8063ac291867116100de578063ac29186714610390578063b9a47e90146103a3578063c12878c3146103b6578063c99ead64146103c9576101e5565b806377aee2921461034f5780638b55befc1461036257806391d1485414610375578063a217fddf14610388576101e5565b806336568abe116101875780634edf897f116101565780634edf897f146103015780635d9c45cd1461031457806373e830b4146103275780637799c0491461032f576101e5565b806336568abe146102a6578063389e3894146102b95780633f9c1090146102db57806345118d8e146102ee576101e5565b806316d8b45b116101c357806316d8b45b1461023b578063224ccd0f1461025e578063248a9ca31461027e5780632f2ff15d14610291576101e5565b806301ffc9a7146101ea5780630a086b15146102135780630b60034514610228575b600080fd5b6101fd6101f8366004611cba565b61045e565b60405161020a9190611fb6565b60405180910390f35b61021b61048b565b60405161020a9190611fc1565b6101fd610236366004611ce2565b61049c565b61024e610249366004611ba6565b610585565b60405161020a949392919061201b565b61027161026c366004611ba6565b6106e1565b60405161020a9190611f56565b61021b61028c366004611c80565b6107d3565b6102a461029f366004611c98565b6107e8565b005b6102a46102b4366004611c98565b610811565b6102cc6102c7366004611ba6565b610860565b60405161020a93929190611fdd565b6101fd6102e9366004611c34565b6109b3565b6101fd6102fc366004611bf2565b610a40565b6101fd61030f366004611d4a565b610ab5565b6101fd610322366004611d4a565b610c9e565b61021b610ea6565b61034261033d366004611ba6565b610eb2565b60405161020a9190611fca565b61027161035d366004611ba6565b610f62565b61021b610370366004611ba6565b611049565b6101fd610383366004611c98565b61106d565b61021b611096565b61034261039e366004611ba6565b61109b565b6101fd6103b1366004611bc0565b6110c5565b61021b6103c4366004611ba6565b611190565b6101fd6103d7366004611ce2565b6111b4565b6102a46103ea366004611c98565b6112a6565b6102cc6103fd366004611ba6565b6112c5565b6101fd610410366004611bc0565b6112f8565b6102cc610423366004611ba6565b611378565b61021b6113b2565b61021b6113be565b6101fd610446366004611c34565b6113ca565b610342610459366004611c34565b6114ec565b60006001600160e01b03198216637965db0b60e01b148061048357506104838261167a565b90505b919050565b60006104976004611693565b905090565b60006104c87f47a8a9b8917c993d90f37744bb40dfb774c4593d1a1660ed38db000e3315650283611697565b6001600160a01b038216600090815260086020908152604090912085516104f1928701906119fa565b506001600160a01b03821660008181526008602090815260409091206002810180546001600160a01b031916909317909255845161053592600101918601906119fa565b5061054060036116a1565b7ff1ed66ce17e814997c731a53029e891da3b3665c7d89fd2a257363990098c1be84848460405161057393929190611fdd565b60405180910390a15060019392505050565b6001600160a01b038082166000908152600560205260408120600281015481546060948594938493909260018401929190911690889084906105c69061223b565b80601f01602080910402602001604051908101604052809291908181526020018280546105f29061223b565b801561063f5780601f106106145761010080835404028352916020019161063f565b820191906000526020600020905b81548152906001019060200180831161062257829003601f168201915b505050505093508280546106529061223b565b80601f016020809104026020016040519081016040528092919081815260200182805461067e9061223b565b80156106cb5780601f106106a0576101008083540402835291602001916106cb565b820191906000526020600020905b8154815290600101906020018083116106ae57829003601f168201915b5050505050925093509350935093509193509193565b6001600160a01b0381166000908152600560209081526040808320600601805482518185028101850190935280835260609492939192909184015b828210156107c857838290600052602060002001805461073b9061223b565b80601f01602080910402602001604051908101604052809291908181526020018280546107679061223b565b80156107b45780601f10610789576101008083540402835291602001916107b4565b820191906000526020600020905b81548152906001019060200180831161079757829003601f168201915b50505050508152602001906001019061071c565b505050509050919050565b60009081526020819052604090206001015490565b6107f1826107d3565b610802816107fd6116aa565b6116ae565b61080c8383611712565b505050565b6108196116aa565b6001600160a01b0316816001600160a01b0316146108525760405162461bcd60e51b81526004016108499061216e565b60405180910390fd5b61085c8282611797565b5050565b6001600160a01b03808216600090815260066020526040812060028101548154606094859493926001840192911690839061089a9061223b565b80601f01602080910402602001604051908101604052809291908181526020018280546108c69061223b565b80156109135780601f106108e857610100808354040283529160200191610913565b820191906000526020600020905b8154815290600101906020018083116108f657829003601f168201915b505050505092508180546109269061223b565b80601f01602080910402602001604051908101604052809291908181526020018280546109529061223b565b801561099f5780601f106109745761010080835404028352916020019161099f565b820191906000526020600020905b81548152906001019060200180831161098257829003601f168201915b505050505091509250925092509193909250565b6001600160a01b0382166000908152600560209081526040822083516109e1926001909201918501906119fa565b506001600160a01b0383166000908152600560205260409081902090517f9a0b4af72c5a4121f816c4ea663db0d61662cb63fe54ee51ef4bf50d4911bae591610a2e9160018201906120af565b60405180910390a15060015b92915050565b6001600160a01b0383166000908152600860205260408120610a649060030161181a565b6001600160a01b03828116600090815260056020908152604080832060020180546001600160a01b03191694881694851790559282526008905220610aab906003016116a1565b5060019392505050565b6000610acf6000805160206122a38339815191528361106d565b15610b7457610aec6000805160206122a383398151915283611697565b6001600160a01b03821660009081526006602090815260409091208651610b15928801906119fa565b506001600160a01b0382811660008181526006602090815260409091206003810180546001600160a01b03199081169094179055600281018054909316938716939093179091558551610b6e92600101918701906119fa565b50610c3d565b610b8c6000805160206122a383398151915283611697565b6001600160a01b03821660009081526006602090815260409091208651610bb5928801906119fa565b506001600160a01b0382811660008181526006602090815260409091206003810180546001600160a01b03199081169094179055600281018054909316938716939093179091558551610c0e92600101918701906119fa565b506001600160a01b0383166000908152600860205260409020610c33906004016116a1565b610c3d60026116a1565b6001600160a01b0382166000908152600660205260409081902090517f094f9e983e464406960b58ac311309ef38583f6e33af8d47f93b0c048e60c7cf91610c8b91600182019086906120dd565b60405180910390a1506001949350505050565b6000610cca7fe5786ee6f50ab1a5567cb3f3f6840a2f4ddbafdf4a35cb2c52d5b732b1e84a328361106d565b15610d6a576001600160a01b03821660009081526005602090815260409091208651610cf8928801906119fa565b506001600160a01b03821660009081526005602090815260409091208551610d28926001909201918701906119fa565b506001600160a01b0380831660008181526005602052604090206002810180549387166001600160a01b03199485161790556003018054909216179055610e50565b610d947fe5786ee6f50ab1a5567cb3f3f6840a2f4ddbafdf4a35cb2c52d5b732b1e84a3283611697565b6001600160a01b03821660009081526005602090815260409091208651610dbd928801906119fa565b506001600160a01b03821660009081526005602090815260409091208551610ded926001909201918701906119fa565b506001600160a01b038083166000818152600560209081526040808320600281018054968a166001600160a01b03199788168117909155600391820180549097169095179095559282526008905220610e4691016116a1565b610e5060016116a1565b6001600160a01b0380831660009081526005602052604090819020600281015491517f3b8a83fdecb2b3e9bf160eeb2f3112ba4bdad2159cb6783bc884ab9712bb58b493610c8b93169060018301908790612065565b60006104976001611693565b6001600160a01b038116600090815260056020819052604090912001805460609190610edd9061223b565b80601f0160208091040260200160405190810160405280929190818152602001828054610f099061223b565b8015610f565780601f10610f2b57610100808354040283529160200191610f56565b820191906000526020600020905b815481529060010190602001808311610f3957829003601f168201915b50505050509050919050565b6001600160a01b0381166000908152600560209081526040808320600401805482518185028101850190935280835260609492939192909184015b828210156107c8578382906000526020600020018054610fbc9061223b565b80601f0160208091040260200160405190810160405280929190818152602001828054610fe89061223b565b80156110355780601f1061100a57610100808354040283529160200191611035565b820191906000526020600020905b81548152906001019060200180831161101857829003601f168201915b505050505081526020019060010190610f9d565b6001600160a01b038116600090815260086020526040812061048390600301611693565b6000918252602082815260408084206001600160a01b0393909316845291905290205460ff1690565b600081565b6001600160a01b0381166000908152600560205260409020600701805460609190610edd9061223b565b60006110f17f47a8a9b8917c993d90f37744bb40dfb774c4593d1a1660ed38db000e331565028461106d565b8061112157506111217faa5dabedfa16172c67f74bf2293d462402d380790ac2275169499fcded0d78058461106d565b61112a57600080fd5b6111547fe5786ee6f50ab1a5567cb3f3f6840a2f4ddbafdf4a35cb2c52d5b732b1e84a328361106d565b61115d57600080fd5b6111877f0e55d2d590eb481461be8bfa869367231c671a31d6401bfeaf2d5cb5787ff252836107e8565b50600192915050565b6001600160a01b038116600090815260086020526040812061048390600401611693565b60006111e07f6d960d3aada907633a701143a0c8a0657b9ed1e77b6d2d8b56e5d8813982e10c83611697565b6001600160a01b03821660009081526007602090815260409091208551611209928701906119fa565b506001600160a01b03821660008181526007602090815260409091206002810180546001600160a01b031916909317909255845161124d92600101918601906119fa565b5061125860046116a1565b6001600160a01b0382166000908152600760205260409081902090517f2fc29db602a5f7179d31b6051279d19e64007dc3eaff8031f3198e0faa1560589161057391600182019086906120dd565b6112af826107d3565b6112bb816107fd6116aa565b61080c8383611797565b6001600160a01b038116600090815260076020526040812080546060928392909160018201908690839061089a9061223b565b60006113247f47a8a9b8917c993d90f37744bb40dfb774c4593d1a1660ed38db000e331565028461106d565b61132d57600080fd5b6113456000805160206122a38339815191528361106d565b61134e57600080fd5b6111877faa5dabedfa16172c67f74bf2293d462402d380790ac2275169499fcded0d7805836107e8565b6001600160a01b03808216600090815260086020526040812060028101548154606094859493926001840192911690839061089a9061223b565b60006104976002611693565b60006104976003611693565b60006040516020016113db90611ede565b60408051601f1981840301815282825280516020918201206001600160a01b03871660009081526005808452939020909361141b93919091019101611e6f565b604051602081830303815290604052805190602001201415611470576001600160a01b03831660009081526005602081815260409092208451611466939190920191908501906119fa565b5060019050610a3a565b6001600160a01b038316600090815260056020818152604083206004810180546001810182559085529190932092909101805492909101916114b19061223b565b6114bc929190611a7e565b506001600160a01b03831660009081526005602081815260409092208451611466939190920191908501906119fa565b60606040516020016114fd90611ede565b60408051601f1981840301815282825280516020918201206001600160a01b03871660009081526005835292909220919261153c926007019101611e6f565b6040516020818303038152906040528051906020012014156115c2576001600160a01b03831660009081526005602090815260409091208351611587926007909201918501906119fa565b505060408051808201909152601e81527f454e5445524544204f4e434520505245534352495054494f4e204f4e4c5900006020820152610a3a565b6001600160a01b03831660009081526005602090815260408220600681018054600181018255908452919092206007909201805492909101916116049061223b565b61160f929190611a7e565b506001600160a01b0383166000908152600560209081526040909120835161163f926007909201918501906119fa565b505060408051808201909152601f81527f454e544552454420545749434520505245534352495054494f4e204f4e4c59006020820152610a3a565b6001600160e01b031981166301ffc9a760e01b14919050565b5490565b61085c8282611712565b80546001019055565b3390565b6116b8828261106d565b61085c576116d0816001600160a01b03166014611841565b6116db836020611841565b6040516020016116ec929190611ee1565b60408051601f198184030181529082905262461bcd60e51b825261084991600401611fca565b61171c828261106d565b61085c576000828152602081815260408083206001600160a01b03851684529091529020805460ff191660011790556117536116aa565b6001600160a01b0316816001600160a01b0316837f2f8788117e7eff1d82e926ec794901d17c78024a50270940304540a733656f0d60405160405180910390a45050565b6117a1828261106d565b1561085c576000828152602081815260408083206001600160a01b03851684529091529020805460ff191690556117d66116aa565b6001600160a01b0316816001600160a01b0316837ff6391f5c32d9c69d2a47ea670b442974b53935d1edc7fd64eb21e047a839171b60405160405180910390a45050565b8054806118395760405162461bcd60e51b815260040161084990612137565b600019019055565b606060006118508360026121d5565b61185b9060026121bd565b67ffffffffffffffff81111561188157634e487b7160e01b600052604160045260246000fd5b6040519080825280601f01601f1916602001820160405280156118ab576020820181803683370190505b509050600360fc1b816000815181106118d457634e487b7160e01b600052603260045260246000fd5b60200101906001600160f81b031916908160001a905350600f60fb1b8160018151811061191157634e487b7160e01b600052603260045260246000fd5b60200101906001600160f81b031916908160001a90535060006119358460026121d5565b6119409060016121bd565b90505b60018111156119d4576f181899199a1a9b1b9c1cb0b131b232b360811b85600f166010811061198257634e487b7160e01b600052603260045260246000fd5b1a60f81b8282815181106119a657634e487b7160e01b600052603260045260246000fd5b60200101906001600160f81b031916908160001a90535060049490941c936119cd81612224565b9050611943565b5083156119f35760405162461bcd60e51b815260040161084990612102565b9392505050565b828054611a069061223b565b90600052602060002090601f016020900481019282611a285760008555611a6e565b82601f10611a4157805160ff1916838001178555611a6e565b82800160010185558215611a6e579182015b82811115611a6e578251825591602001919060010190611a53565b50611a7a929150611af9565b5090565b828054611a8a9061223b565b90600052602060002090601f016020900481019282611aac5760008555611a6e565b82601f10611abd5780548555611a6e565b82800160010185558215611a6e57600052602060002091601f016020900482015b82811115611a6e578254825591600101919060010190611ade565b5b80821115611a7a5760008155600101611afa565b80356001600160a01b038116811461048657600080fd5b600082601f830112611b35578081fd5b813567ffffffffffffffff80821115611b5057611b5061228c565b604051601f8301601f191681016020018281118282101715611b7457611b7461228c565b604052828152848301602001861015611b8b578384fd5b82602086016020830137918201602001929092529392505050565b600060208284031215611bb7578081fd5b6119f382611b0e565b60008060408385031215611bd2578081fd5b611bdb83611b0e565b9150611be960208401611b0e565b90509250929050565b600080600060608486031215611c06578081fd5b611c0f84611b0e565b9250611c1d60208501611b0e565b9150611c2b60408501611b0e565b90509250925092565b60008060408385031215611c46578182fd5b611c4f83611b0e565b9150602083013567ffffffffffffffff811115611c6a578182fd5b611c7685828601611b25565b9150509250929050565b600060208284031215611c91578081fd5b5035919050565b60008060408385031215611caa578182fd5b82359150611be960208401611b0e565b600060208284031215611ccb578081fd5b81356001600160e01b0319811681146119f3578182fd5b600080600060608486031215611cf6578283fd5b833567ffffffffffffffff80821115611d0d578485fd5b611d1987838801611b25565b94506020860135915080821115611d2e578384fd5b50611d3b86828701611b25565b925050611c2b60408501611b0e565b60008060008060808587031215611d5f578081fd5b843567ffffffffffffffff80821115611d76578283fd5b611d8288838901611b25565b95506020870135915080821115611d97578283fd5b50611da487828801611b25565b935050611db360408601611b0e565b9150611dc160608601611b0e565b905092959194509250565b60008151808452611de48160208601602086016121f4565b601f01601f19169290920160200192915050565b60008154611e058161223b565b808552602060018381168015611e225760018114611e3657611e64565b60ff19851688840152604088019550611e64565b866000528260002060005b85811015611e5c5781548a8201860152908301908401611e41565b890184019650505b505050505092915050565b6000808354611e7d8161223b565b60018281168015611e955760018114611ea657611ed2565b60ff19841687528287019450611ed2565b8786526020808720875b85811015611ec95781548a820152908401908201611eb0565b50505082870194505b50929695505050505050565b90565b60007f416363657373436f6e74726f6c3a206163636f756e742000000000000000000082528351611f198160178501602088016121f4565b7001034b99036b4b9b9b4b733903937b6329607d1b6017918401918201528351611f4a8160288401602088016121f4565b01602801949350505050565b6000602080830181845280855180835260408601915060408482028701019250838701855b82811015611fa957603f19888603018452611f97858351611dcc565b94509285019290850190600101611f7b565b5092979650505050505050565b901515815260200190565b90815260200190565b6000602082526119f36020830184611dcc565b600060608252611ff06060830186611dcc565b82810360208401526120028186611dcc565b91505060018060a01b0383166040830152949350505050565b60006080825261202e6080830187611dcc565b82810360208401526120408187611dcc565b6001600160a01b03958616604085015293909416606090920191909152509392505050565b6000608082526120786080830187611df8565b6001600160a01b038681166020850152838203604085015261209a8287611df8565b92508085166060850152505095945050505050565b6000604082526120c26040830185611df8565b82810360208401526120d48185611df8565b95945050505050565b6000606082526120f06060830186611df8565b82810360208401526120028186611df8565b6020808252818101527f537472696e67733a20686578206c656e67746820696e73756666696369656e74604082015260600190565b6020808252601b908201527f436f756e7465723a2064656372656d656e74206f766572666c6f770000000000604082015260600190565b6020808252602f908201527f416363657373436f6e74726f6c3a2063616e206f6e6c792072656e6f756e636560408201526e103937b632b9903337b91039b2b63360891b606082015260800190565b600082198211156121d0576121d0612276565b500190565b60008160001904831182151516156121ef576121ef612276565b500290565b60005b8381101561220f5781810151838201526020016121f7565b8381111561221e576000848401525b50505050565b60008161223357612233612276565b506000190190565b60028104600182168061224f57607f821691505b6020821081141561227057634e487b7160e01b600052602260045260246000fd5b50919050565b634e487b7160e01b600052601160045260246000fd5b634e487b7160e01b600052604160045260246000fdfec9c8e67a61d2e7371df46522b44051b955c16bf4b713ef44e1373b25bfcd80b2a2646970667358221220669c2bdc0755de4fc1385b10b3381c5b04fe3aa180c1d1ec4bad26eba421648664736f6c6343000800003347a8a9b8917c993d90f37744bb40dfb774c4593d1a1660ed38db000e33156502",
  "immutableReferences": {},
  "source": "pragma solidity ^0.8.0;\r\n\r\n//SPDX-License-Identifier: MIT\r\nimport \"./access/AccessControlEnumerable.sol\";\r\nimport \"./Roles.sol\";\r\nimport \"./openzeppelin/contracts/utils/Counters.sol\";\r\n\r\nstruct patientRecord {\r\n    string name;\r\n    string personalDetails;\r\n    address hospitalAddress;\r\n    address walletAddress;\r\n    string[] previousPatientRecordHashes;\r\n    string newMedicalRecordHash;\r\n    string[] previousPatientPrescriptionHashes;\r\n    string newPatientPrescriptionHashes;\r\n}\r\n\r\nstruct doctorRecord {\r\n    string name;\r\n    string personalDetails;\r\n    address hospitalAddress;\r\n    address walletAddress;\r\n}\r\n\r\nstruct pharmacyRecord {\r\n    string name;\r\n    string personalDetails;\r\n    address walletAddress;\r\n}\r\n\r\ncontract MainContract is AccessControl {\r\n    using Counters for Counters.Counter;\r\n\r\n    struct hospitalRecord {\r\n        string name;\r\n        string hospitalDetails;\r\n        address walletAddress;\r\n        Counters.Counter patientInHospital;\r\n        Counters.Counter doctorInHospital;\r\n    }\r\n\r\n    Counters.Counter patientCounter;\r\n    Counters.Counter doctorCounter;\r\n    Counters.Counter hospitalCounter;\r\n    Counters.Counter pharmacyCounter;\r\n\r\n    //: Constructor\r\n    constructor() {\r\n        _setRoleAdmin(HOSPITAL_ADMIN, HOSPITAL_ADMIN);\r\n        _setRoleAdmin(DOCTOR, HOSPITAL_ADMIN);\r\n        _setRoleAdmin(PATIENT, HOSPITAL_ADMIN);\r\n\r\n        // default role of contract deployer\r\n        _setupRole(DEFAULT_ADMIN_ROLE, msg.sender);\r\n    }\r\n\r\n    event LogStorePatient(\r\n        string name,\r\n        address hospitalAddress,\r\n        string _personalDetails,\r\n        address owner\r\n    );\r\n    event LogUpdatePatientPersonalDetails(string name, string _personalDetails);\r\n\r\n    //: PATIENT DATABASE\r\n    mapping(address => patientRecord) patientDatabase;\r\n\r\n    function storePatient(\r\n        string memory _name,\r\n        string memory _personalDetails,\r\n        address _hospitalAddress,\r\n        address _walletAddress\r\n    ) external returns (bool status) {\r\n        if (hasRole(PATIENT, _walletAddress)) {\r\n            patientDatabase[_walletAddress].name = _name;\r\n            patientDatabase[_walletAddress].personalDetails = _personalDetails;\r\n            patientDatabase[_walletAddress].hospitalAddress = _hospitalAddress;\r\n            patientDatabase[_walletAddress].walletAddress = _walletAddress;\r\n        } else {\r\n            _setupRole(PATIENT, _walletAddress);\r\n\r\n            patientDatabase[_walletAddress].name = _name;\r\n            patientDatabase[_walletAddress].personalDetails = _personalDetails;\r\n            patientDatabase[_walletAddress].hospitalAddress = _hospitalAddress;\r\n            patientDatabase[_walletAddress].walletAddress = _walletAddress;\r\n            hospitalDatabase[_hospitalAddress].patientInHospital.increment();\r\n            patientCounter.increment();\r\n        }\r\n\r\n        emit LogStorePatient(\r\n            patientDatabase[_walletAddress].name,\r\n            patientDatabase[_walletAddress].hospitalAddress,\r\n            patientDatabase[_walletAddress].personalDetails,\r\n            _walletAddress\r\n        );\r\n\r\n        return true;\r\n    }\r\n\r\n    function changeHospitalForPatient(\r\n        address _previousHospitalAddress,\r\n        address _newHospitalAddress,\r\n        address _walletAddress\r\n    ) external returns (bool status) {\r\n        hospitalDatabase[_previousHospitalAddress].patientInHospital.decrement();\r\n\r\n        patientDatabase[_walletAddress].hospitalAddress = _newHospitalAddress;\r\n\r\n        hospitalDatabase[_newHospitalAddress].patientInHospital.increment();\r\n\r\n        return true;\r\n    }\r\n\r\n    function retrievePatientCount()\r\n        external\r\n        view\r\n        returns (uint256 patientCount)\r\n    {\r\n        return patientCounter.current();\r\n    }\r\n\r\n    function retrievePatientData(address _walletAddress)\r\n        external\r\n        view\r\n        returns (\r\n            string memory name,\r\n            string memory personalDetails,\r\n            address hospitalAddress,\r\n            address walletAddress\r\n        )\r\n    {\r\n        return (\r\n            patientDatabase[_walletAddress].name,\r\n            patientDatabase[_walletAddress].personalDetails,\r\n            patientDatabase[_walletAddress].hospitalAddress,\r\n            _walletAddress\r\n        );\r\n    }\r\n\r\n    function updatePatientPersonalData(\r\n        address _walletAddress,\r\n        string memory _personalDetails\r\n    ) public returns (bool success) {\r\n        patientDatabase[_walletAddress].personalDetails = _personalDetails;\r\n\r\n        emit LogUpdatePatientPersonalDetails(\r\n            patientDatabase[_walletAddress].name,\r\n            patientDatabase[_walletAddress].personalDetails\r\n        );\r\n\r\n        return true;\r\n    }\r\n\r\n    function updatePatientMedicalRecords(\r\n        address _walletAddress,\r\n        string memory medicalRecordHash\r\n    ) external returns (bool status) {\r\n        if (\r\n            keccak256(\r\n                abi.encodePacked(\r\n                    patientDatabase[_walletAddress].newMedicalRecordHash\r\n                )\r\n            ) == keccak256(abi.encodePacked(\"\"))\r\n        ) {\r\n            patientDatabase[_walletAddress]\r\n                .newMedicalRecordHash = medicalRecordHash;\r\n            return true;\r\n        } else {\r\n            patientDatabase[_walletAddress].previousPatientRecordHashes.push(\r\n                patientDatabase[_walletAddress].newMedicalRecordHash\r\n            );\r\n            patientDatabase[_walletAddress]\r\n                .newMedicalRecordHash = medicalRecordHash;\r\n            return true;\r\n        }\r\n    }\r\n\r\n    function updatePatientPrescription(\r\n        address _walletAddress,\r\n        string memory prescriptionHash\r\n    ) external returns (string memory status) {\r\n        if (\r\n            keccak256(\r\n                abi.encodePacked(\r\n                    patientDatabase[_walletAddress].newPatientPrescriptionHashes\r\n                )\r\n            ) == keccak256(abi.encodePacked(\"\"))\r\n        ) {\r\n            patientDatabase[_walletAddress]\r\n                .newPatientPrescriptionHashes = prescriptionHash;\r\n            return \"ENTERED ONCE PRESCRIPTION ONLY\";\r\n        } else {\r\n            patientDatabase[_walletAddress]\r\n                .previousPatientPrescriptionHashes\r\n                .push(\r\n                    patientDatabase[_walletAddress].newPatientPrescriptionHashes\r\n                );\r\n            patientDatabase[_walletAddress]\r\n                .newPatientPrescriptionHashes = prescriptionHash;\r\n            return \"ENTERED TWICE PRESCRIPTION ONLY\";\r\n        }\r\n    }\r\n\r\n    function getNewPrescription(address _patientAddress)\r\n        external\r\n        view\r\n        returns (string memory status)\r\n    {\r\n        return patientDatabase[_patientAddress].newPatientPrescriptionHashes;\r\n    }\r\n\r\n    function getMultiplePrescription(address _patientAddress)\r\n        external\r\n        view\r\n        returns (string[] memory status)\r\n    {\r\n        return\r\n            patientDatabase[_patientAddress].previousPatientPrescriptionHashes;\r\n    }\r\n\r\n    function getNewRecords(address _patientAddress)\r\n        external\r\n        view\r\n        returns (string memory status)\r\n    {\r\n        return patientDatabase[_patientAddress].newMedicalRecordHash;\r\n    }\r\n\r\n    function getMultipleRecords(address _patientAddress)\r\n        external\r\n        view\r\n        returns (string[] memory status)\r\n    {\r\n        return patientDatabase[_patientAddress].previousPatientRecordHashes;\r\n    }\r\n\r\n    event LogStoreDoctor(string name, string personalDetails, address owner);\r\n    event LogUpdateDoctor(string name, string personalDetails);\r\n    event LogDeleteDoctor(string name, uint256 empIdIndex);\r\n\r\n    //: DOCTOR DATABASE\r\n    mapping(address => doctorRecord) doctorDatabase;\r\n\r\n    function storeDoctor(\r\n        string memory name,\r\n        string memory _personalDetails,\r\n        address _hospitalAddress,\r\n        address _walletAddress\r\n    ) external returns (bool status) {\r\n        if (hasRole(DOCTOR, _walletAddress)) {\r\n            _setupRole(DOCTOR, _walletAddress);\r\n            doctorDatabase[_walletAddress].name = name;\r\n            doctorDatabase[_walletAddress].walletAddress = _walletAddress;\r\n            doctorDatabase[_walletAddress].hospitalAddress = _hospitalAddress;\r\n            doctorDatabase[_walletAddress].personalDetails = _personalDetails;\r\n        } else {\r\n            _setupRole(DOCTOR, _walletAddress);\r\n            doctorDatabase[_walletAddress].name = name;\r\n            doctorDatabase[_walletAddress].walletAddress = _walletAddress;\r\n            doctorDatabase[_walletAddress].hospitalAddress = _hospitalAddress;\r\n            doctorDatabase[_walletAddress].personalDetails = _personalDetails;\r\n            hospitalDatabase[_hospitalAddress].doctorInHospital.increment();\r\n            doctorCounter.increment();\r\n        }\r\n\r\n        emit LogStoreDoctor(\r\n            doctorDatabase[_walletAddress].name,\r\n            doctorDatabase[_walletAddress].personalDetails,\r\n            _walletAddress\r\n        );\r\n\r\n        return true;\r\n    }\r\n\r\n    function retrieveDoctorCount() external view returns (uint256 doctorCount) {\r\n        return doctorCounter.current();\r\n    }\r\n\r\n    function retrieveDoctorData(address _walletAddress)\r\n        public\r\n        view\r\n        returns (\r\n            string memory name,\r\n            string memory personalDetails,\r\n            address hospitalAddress\r\n        )\r\n    {\r\n        return (\r\n            doctorDatabase[_walletAddress].name,\r\n            doctorDatabase[_walletAddress].personalDetails,\r\n            doctorDatabase[_walletAddress].hospitalAddress\r\n        );\r\n    }\r\n\r\n    event LogPharmacy(string name, string personalDetails, address owner);\r\n\r\n    //: Pharmacy DATABASE\r\n    mapping(address => pharmacyRecord) pharmacyDatabase;\r\n\r\n    function storePharmacy(\r\n        string memory name,\r\n        string memory _personalDetails,\r\n        address _walletAddress\r\n    ) external returns (bool status) {\r\n        _setupRole(PHARMACY, _walletAddress);\r\n        pharmacyDatabase[_walletAddress].name = name;\r\n        pharmacyDatabase[_walletAddress].walletAddress = _walletAddress;\r\n        pharmacyDatabase[_walletAddress].personalDetails = _personalDetails;\r\n        pharmacyCounter.increment();\r\n        emit LogPharmacy(\r\n            pharmacyDatabase[_walletAddress].name,\r\n            pharmacyDatabase[_walletAddress].personalDetails,\r\n            _walletAddress\r\n        );\r\n\r\n        return true;\r\n    }\r\n\r\n    function retrievePharmacyCount()\r\n        external\r\n        view\r\n        returns (uint256 pharmacyCount)\r\n    {\r\n        return pharmacyCounter.current();\r\n    }\r\n\r\n    function getPharmacyData(address _walletAddress)\r\n        public\r\n        view\r\n        returns (\r\n            string memory name,\r\n            string memory pharmacyDetails,\r\n            address walletAddress\r\n        )\r\n    {\r\n        return (\r\n            pharmacyDatabase[_walletAddress].name,\r\n            pharmacyDatabase[_walletAddress].personalDetails,\r\n            _walletAddress\r\n        );\r\n    }\r\n\r\n    event LogHospital(\r\n        string name,\r\n        string _hospitalDetails,\r\n        address walletAddress\r\n    );\r\n    event LogUpdateHospital(string name, string dateOfBirth);\r\n    event LogDeleteHospital(string name, uint256 empIdIndex);\r\n\r\n    //: HOSPITAL DATABASE\r\n    mapping(address => hospitalRecord) hospitalDatabase;\r\n\r\n    function storeHospital(\r\n        string memory _name,\r\n        string memory _hospitalDetails,\r\n        address _walletAddress\r\n    ) external returns (bool status) {\r\n        _setupRole(HOSPITAL_ADMIN, _walletAddress);\r\n        hospitalDatabase[_walletAddress].name = _name;\r\n        hospitalDatabase[_walletAddress].walletAddress = _walletAddress;\r\n        hospitalDatabase[_walletAddress].hospitalDetails = _hospitalDetails;\r\n        hospitalCounter.increment();\r\n\r\n        emit LogHospital(_name, _hospitalDetails, _walletAddress);\r\n\r\n        return true;\r\n    }\r\n\r\n    function retrieveHospitalCount()\r\n        external\r\n        view\r\n        returns (uint256 hospitalCount)\r\n    {\r\n        return hospitalCounter.current();\r\n    }\r\n\r\n    function retrieveHospitalSpecificCountOfDoctors(address _hospitalAddress)\r\n        external\r\n        view\r\n        returns (uint256 doctorCountInHospital)\r\n    {\r\n        return hospitalDatabase[_hospitalAddress].doctorInHospital.current();\r\n    }\r\n\r\n    function retrieveHospitalSpecificCountOfPatients(address _hospitalAddress)\r\n        external\r\n        view\r\n        returns (uint256 patientCountInHospital)\r\n    {\r\n        return hospitalDatabase[_hospitalAddress].patientInHospital.current();\r\n    }\r\n\r\n    function getHospitalData(address addressOfUser)\r\n        public\r\n        view\r\n        returns (\r\n            string memory _nameAdmin,\r\n            string memory hospitalDetails,\r\n            address walletAddress\r\n        )\r\n    {\r\n        return (\r\n            hospitalDatabase[addressOfUser].name,\r\n            hospitalDatabase[addressOfUser].hospitalDetails,\r\n            hospitalDatabase[addressOfUser].walletAddress\r\n        );\r\n    }\r\n\r\n      // Grant Role VERIFIED_PATIENT To Patient\r\n    function grantRoleVerifiedPatient(\r\n        address _addressOfAdmin,\r\n        address _addressOfPatient\r\n    ) public returns (bool success) {\r\n        require(\r\n            hasRole(HOSPITAL_ADMIN, _addressOfAdmin) ||\r\n                hasRole(VERIFIED_DOCTOR, _addressOfAdmin)\r\n        );\r\n        require(hasRole(PATIENT, _addressOfPatient));\r\n        grantRole(VERIFIED_PATIENT, _addressOfPatient);\r\n        return true;\r\n    }\r\n\r\n    // Grant Role VERIFIED_DOCTOR to Doctor\r\n    function grantRoleVerifiedDoctor(\r\n        address _addressOfAdmin,\r\n        address _addressOfDoctor\r\n    ) public returns (bool success) {\r\n        require(hasRole(HOSPITAL_ADMIN, _addressOfAdmin));\r\n        require(hasRole(DOCTOR, _addressOfDoctor));\r\n        grantRole(VERIFIED_DOCTOR, _addressOfDoctor);\r\n        return true;\r\n    }\r\n}\r\n",
  "sourcePath": "C:\\Users\\Ankita\\AndroidStudioProjects\\blockchain_in_healthcare\\contracts\\MainContract.sol",
  "compiler": {
    "name": "solc",
    "version": "0.8.0+commit.c7dfd78e.Emscripten.clang"
  },
  "schemaVersion": "3.4.3",
  "updatedAt": "2022-01-04T14:08:00.905Z",
  "devdoc": {
    "kind": "dev",
    "methods": {
      "getRoleAdmin(bytes32)": {
        "details": "Returns the admin role that controls `role`. See {grantRole} and {revokeRole}. To change a role's admin, use {_setRoleAdmin}."
      },
      "grantRole(bytes32,address)": {
        "details": "Grants `role` to `account`. If `account` had not been already granted `role`, emits a {RoleGranted} event. Requirements: - the caller must have ``role``'s admin role."
      },
      "hasRole(bytes32,address)": {
        "details": "Returns `true` if `account` has been granted `role`."
      },
      "renounceRole(bytes32,address)": {
        "details": "Revokes `role` from the calling account. Roles are often managed via {grantRole} and {revokeRole}: this function's purpose is to provide a mechanism for accounts to lose their privileges if they are compromised (such as when a trusted device is misplaced). If the calling account had been granted `role`, emits a {RoleRevoked} event. Requirements: - the caller must be `account`."
      },
      "revokeRole(bytes32,address)": {
        "details": "Revokes `role` from `account`. If `account` had been granted `role`, emits a {RoleRevoked} event. Requirements: - the caller must have ``role``'s admin role."
      },
      "supportsInterface(bytes4)": {
        "details": "See {IERC165-supportsInterface}."
      }
    },
    "version": 1
  },
  "userdoc": {
    "kind": "user",
    "methods": {},
    "version": 1
  }
}