{
  "contractName": "MainContract",
  "abi": [
    {
      "inputs": [],
      "stateMutability": "nonpayable",
      "type": "constructor"
    },
    {
      "anonymous": false,
      "inputs": [
        {
          "indexed": false,
          "internalType": "string",
          "name": "name",
          "type": "string"
        },
        {
          "indexed": false,
          "internalType": "uint256",
          "name": "empIdIndex",
          "type": "uint256"
        }
      ],
      "name": "LogDeleteDoctor",
      "type": "event"
    },
    {
      "anonymous": false,
      "inputs": [
        {
          "indexed": false,
          "internalType": "string",
          "name": "name",
          "type": "string"
        },
        {
          "indexed": false,
          "internalType": "uint256",
          "name": "empIdIndex",
          "type": "uint256"
        }
      ],
      "name": "LogDeleteHospital",
      "type": "event"
    },
    {
      "anonymous": false,
      "inputs": [
        {
          "indexed": false,
          "internalType": "string",
          "name": "name",
          "type": "string"
        },
        {
          "indexed": false,
          "internalType": "string",
          "name": "_hospitalDetails",
          "type": "string"
        },
        {
          "indexed": false,
          "internalType": "address",
          "name": "walletAddress",
          "type": "address"
        }
      ],
      "name": "LogHospital",
      "type": "event"
    },
    {
      "anonymous": false,
      "inputs": [
        {
          "indexed": false,
          "internalType": "string",
          "name": "name",
          "type": "string"
        },
        {
          "indexed": false,
          "internalType": "string",
          "name": "personalDetails",
          "type": "string"
        },
        {
          "indexed": false,
          "internalType": "address",
          "name": "owner",
          "type": "address"
        }
      ],
      "name": "LogPharmacy",
      "type": "event"
    },
    {
      "anonymous": false,
      "inputs": [
        {
          "indexed": false,
          "internalType": "string",
          "name": "name",
          "type": "string"
        },
        {
          "indexed": false,
          "internalType": "string",
          "name": "personalDetails",
          "type": "string"
        },
        {
          "indexed": false,
          "internalType": "address",
          "name": "owner",
          "type": "address"
        }
      ],
      "name": "LogStoreDoctor",
      "type": "event"
    },
    {
      "anonymous": false,
      "inputs": [
        {
          "indexed": false,
          "internalType": "string",
          "name": "name",
          "type": "string"
        },
        {
          "indexed": false,
          "internalType": "address",
          "name": "hospitalAddress",
          "type": "address"
        },
        {
          "indexed": false,
          "internalType": "string",
          "name": "_personalDetails",
          "type": "string"
        },
        {
          "indexed": false,
          "internalType": "address",
          "name": "owner",
          "type": "address"
        }
      ],
      "name": "LogStorePatient",
      "type": "event"
    },
    {
      "anonymous": false,
      "inputs": [
        {
          "indexed": false,
          "internalType": "string",
          "name": "name",
          "type": "string"
        },
        {
          "indexed": false,
          "internalType": "string",
          "name": "personalDetails",
          "type": "string"
        }
      ],
      "name": "LogUpdateDoctor",
      "type": "event"
    },
    {
      "anonymous": false,
      "inputs": [
        {
          "indexed": false,
          "internalType": "string",
          "name": "name",
          "type": "string"
        },
        {
          "indexed": false,
          "internalType": "string",
          "name": "dateOfBirth",
          "type": "string"
        }
      ],
      "name": "LogUpdateHospital",
      "type": "event"
    },
    {
      "anonymous": false,
      "inputs": [
        {
          "indexed": false,
          "internalType": "string",
          "name": "name",
          "type": "string"
        },
        {
          "indexed": false,
          "internalType": "string",
          "name": "_personalDetails",
          "type": "string"
        }
      ],
      "name": "LogUpdatePatientPersonalDetails",
      "type": "event"
    },
    {
      "anonymous": false,
      "inputs": [
        {
          "indexed": true,
          "internalType": "bytes32",
          "name": "role",
          "type": "bytes32"
        },
        {
          "indexed": true,
          "internalType": "bytes32",
          "name": "previousAdminRole",
          "type": "bytes32"
        },
        {
          "indexed": true,
          "internalType": "bytes32",
          "name": "newAdminRole",
          "type": "bytes32"
        }
      ],
      "name": "RoleAdminChanged",
      "type": "event"
    },
    {
      "anonymous": false,
      "inputs": [
        {
          "indexed": true,
          "internalType": "bytes32",
          "name": "role",
          "type": "bytes32"
        },
        {
          "indexed": true,
          "internalType": "address",
          "name": "account",
          "type": "address"
        },
        {
          "indexed": true,
          "internalType": "address",
          "name": "sender",
          "type": "address"
        }
      ],
      "name": "RoleGranted",
      "type": "event"
    },
    {
      "anonymous": false,
      "inputs": [
        {
          "indexed": true,
          "internalType": "bytes32",
          "name": "role",
          "type": "bytes32"
        },
        {
          "indexed": true,
          "internalType": "address",
          "name": "account",
          "type": "address"
        },
        {
          "indexed": true,
          "internalType": "address",
          "name": "sender",
          "type": "address"
        }
      ],
      "name": "RoleRevoked",
      "type": "event"
    },
    {
      "inputs": [],
      "name": "DEFAULT_ADMIN_ROLE",
      "outputs": [
        {
          "internalType": "bytes32",
          "name": "",
          "type": "bytes32"
        }
      ],
      "stateMutability": "view",
      "type": "function",
      "constant": true
    },
    {
      "inputs": [
        {
          "internalType": "bytes32",
          "name": "role",
          "type": "bytes32"
        }
      ],
      "name": "getRoleAdmin",
      "outputs": [
        {
          "internalType": "bytes32",
          "name": "",
          "type": "bytes32"
        }
      ],
      "stateMutability": "view",
      "type": "function",
      "constant": true
    },
    {
      "inputs": [
        {
          "internalType": "bytes32",
          "name": "role",
          "type": "bytes32"
        },
        {
          "internalType": "address",
          "name": "account",
          "type": "address"
        }
      ],
      "name": "grantRole",
      "outputs": [],
      "stateMutability": "nonpayable",
      "type": "function"
    },
    {
      "inputs": [
        {
          "internalType": "bytes32",
          "name": "role",
          "type": "bytes32"
        },
        {
          "internalType": "address",
          "name": "account",
          "type": "address"
        }
      ],
      "name": "hasRole",
      "outputs": [
        {
          "internalType": "bool",
          "name": "",
          "type": "bool"
        }
      ],
      "stateMutability": "view",
      "type": "function",
      "constant": true
    },
    {
      "inputs": [
        {
          "internalType": "bytes32",
          "name": "role",
          "type": "bytes32"
        },
        {
          "internalType": "address",
          "name": "account",
          "type": "address"
        }
      ],
      "name": "renounceRole",
      "outputs": [],
      "stateMutability": "nonpayable",
      "type": "function"
    },
    {
      "inputs": [
        {
          "internalType": "bytes32",
          "name": "role",
          "type": "bytes32"
        },
        {
          "internalType": "address",
          "name": "account",
          "type": "address"
        }
      ],
      "name": "revokeRole",
      "outputs": [],
      "stateMutability": "nonpayable",
      "type": "function"
    },
    {
      "inputs": [
        {
          "internalType": "bytes4",
          "name": "interfaceId",
          "type": "bytes4"
        }
      ],
      "name": "supportsInterface",
      "outputs": [
        {
          "internalType": "bool",
          "name": "",
          "type": "bool"
        }
      ],
      "stateMutability": "view",
      "type": "function",
      "constant": true
    },
    {
      "inputs": [
        {
          "internalType": "string",
          "name": "_name",
          "type": "string"
        },
        {
          "internalType": "string",
          "name": "_personalDetails",
          "type": "string"
        },
        {
          "internalType": "address",
          "name": "_hospitalAddress",
          "type": "address"
        },
        {
          "internalType": "address",
          "name": "_walletAddress",
          "type": "address"
        }
      ],
      "name": "storePatient",
      "outputs": [
        {
          "internalType": "bool",
          "name": "status",
          "type": "bool"
        }
      ],
      "stateMutability": "nonpayable",
      "type": "function"
    },
    {
      "inputs": [
        {
          "internalType": "string",
          "name": "_personalDetails",
          "type": "string"
        },
        {
          "internalType": "address",
          "name": "_walletAddress",
          "type": "address"
        }
      ],
      "name": "updatePatientPersonalDetailHash",
      "outputs": [
        {
          "internalType": "bool",
          "name": "status",
          "type": "bool"
        }
      ],
      "stateMutability": "nonpayable",
      "type": "function"
    },
    {
      "inputs": [
        {
          "internalType": "address",
          "name": "_previousHospitalAddress",
          "type": "address"
        },
        {
          "internalType": "address",
          "name": "_newHospitalAddress",
          "type": "address"
        },
        {
          "internalType": "address",
          "name": "_walletAddress",
          "type": "address"
        }
      ],
      "name": "changeHospitalForPatient",
      "outputs": [
        {
          "internalType": "bool",
          "name": "status",
          "type": "bool"
        }
      ],
      "stateMutability": "nonpayable",
      "type": "function"
    },
    {
      "inputs": [],
      "name": "retrievePatientCount",
      "outputs": [
        {
          "internalType": "uint256",
          "name": "patientCount",
          "type": "uint256"
        }
      ],
      "stateMutability": "view",
      "type": "function",
      "constant": true
    },
    {
      "inputs": [
        {
          "internalType": "address",
          "name": "_walletAddress",
          "type": "address"
        }
      ],
      "name": "retrievePatientData",
      "outputs": [
        {
          "internalType": "string",
          "name": "name",
          "type": "string"
        },
        {
          "internalType": "string",
          "name": "personalDetails",
          "type": "string"
        },
        {
          "internalType": "address",
          "name": "hospitalAddress",
          "type": "address"
        },
        {
          "internalType": "address",
          "name": "walletAddress",
          "type": "address"
        }
      ],
      "stateMutability": "view",
      "type": "function",
      "constant": true
    },
    {
      "inputs": [
        {
          "internalType": "address",
          "name": "_walletAddress",
          "type": "address"
        },
        {
          "internalType": "string",
          "name": "_personalDetails",
          "type": "string"
        }
      ],
      "name": "updatePatientPersonalData",
      "outputs": [
        {
          "internalType": "bool",
          "name": "success",
          "type": "bool"
        }
      ],
      "stateMutability": "nonpayable",
      "type": "function"
    },
    {
      "inputs": [
        {
          "internalType": "address",
          "name": "_walletAddress",
          "type": "address"
        },
        {
          "internalType": "string",
          "name": "medicalRecordHash",
          "type": "string"
        }
      ],
      "name": "updatePatientMedicalRecords",
      "outputs": [
        {
          "internalType": "bool",
          "name": "status",
          "type": "bool"
        }
      ],
      "stateMutability": "nonpayable",
      "type": "function"
    },
    {
      "inputs": [
        {
          "internalType": "address",
          "name": "_walletAddress",
          "type": "address"
        },
        {
          "internalType": "string",
          "name": "prescriptionHash",
          "type": "string"
        }
      ],
      "name": "updatePatientPrescription",
      "outputs": [
        {
          "internalType": "string",
          "name": "status",
          "type": "string"
        }
      ],
      "stateMutability": "nonpayable",
      "type": "function"
    },
    {
      "inputs": [
        {
          "internalType": "address",
          "name": "_patientAddress",
          "type": "address"
        }
      ],
      "name": "getNewPrescription",
      "outputs": [
        {
          "internalType": "string",
          "name": "status",
          "type": "string"
        }
      ],
      "stateMutability": "view",
      "type": "function",
      "constant": true
    },
    {
      "inputs": [
        {
          "internalType": "address",
          "name": "_patientAddress",
          "type": "address"
        }
      ],
      "name": "getMultiplePrescription",
      "outputs": [
        {
          "internalType": "string[]",
          "name": "status",
          "type": "string[]"
        }
      ],
      "stateMutability": "view",
      "type": "function",
      "constant": true
    },
    {
      "inputs": [
        {
          "internalType": "address",
          "name": "_patientAddress",
          "type": "address"
        }
      ],
      "name": "getNewRecords",
      "outputs": [
        {
          "internalType": "string",
          "name": "status",
          "type": "string"
        }
      ],
      "stateMutability": "view",
      "type": "function",
      "constant": true
    },
    {
      "inputs": [
        {
          "internalType": "address",
          "name": "_patientAddress",
          "type": "address"
        }
      ],
      "name": "getMultipleRecords",
      "outputs": [
        {
          "internalType": "string[]",
          "name": "status",
          "type": "string[]"
        }
      ],
      "stateMutability": "view",
      "type": "function",
      "constant": true
    },
    {
      "inputs": [
        {
          "internalType": "string",
          "name": "name",
          "type": "string"
        },
        {
          "internalType": "string",
          "name": "_personalDetails",
          "type": "string"
        },
        {
          "internalType": "address",
          "name": "_hospitalAddress",
          "type": "address"
        },
        {
          "internalType": "address",
          "name": "_walletAddress",
          "type": "address"
        }
      ],
      "name": "storeDoctor",
      "outputs": [
        {
          "internalType": "bool",
          "name": "status",
          "type": "bool"
        }
      ],
      "stateMutability": "nonpayable",
      "type": "function"
    },
    {
      "inputs": [
        {
          "internalType": "address",
          "name": "_previousHospitalAddress",
          "type": "address"
        },
        {
          "internalType": "address",
          "name": "_newHospitalAddress",
          "type": "address"
        },
        {
          "internalType": "address",
          "name": "_walletAddress",
          "type": "address"
        }
      ],
      "name": "changeHospitalForDoctor",
      "outputs": [
        {
          "internalType": "bool",
          "name": "status",
          "type": "bool"
        }
      ],
      "stateMutability": "nonpayable",
      "type": "function"
    },
    {
      "inputs": [],
      "name": "retrieveDoctorCount",
      "outputs": [
        {
          "internalType": "uint256",
          "name": "doctorCount",
          "type": "uint256"
        }
      ],
      "stateMutability": "view",
      "type": "function",
      "constant": true
    },
    {
      "inputs": [
        {
          "internalType": "address",
          "name": "_walletAddress",
          "type": "address"
        }
      ],
      "name": "retrieveDoctorData",
      "outputs": [
        {
          "internalType": "string",
          "name": "name",
          "type": "string"
        },
        {
          "internalType": "string",
          "name": "personalDetails",
          "type": "string"
        },
        {
          "internalType": "address",
          "name": "hospitalAddress",
          "type": "address"
        }
      ],
      "stateMutability": "view",
      "type": "function",
      "constant": true
    },
    {
      "inputs": [
        {
          "internalType": "string",
          "name": "name",
          "type": "string"
        },
        {
          "internalType": "string",
          "name": "_personalDetails",
          "type": "string"
        },
        {
          "internalType": "address",
          "name": "_walletAddress",
          "type": "address"
        }
      ],
      "name": "storePharmacy",
      "outputs": [
        {
          "internalType": "bool",
          "name": "status",
          "type": "bool"
        }
      ],
      "stateMutability": "nonpayable",
      "type": "function"
    },
    {
      "inputs": [],
      "name": "retrievePharmacyCount",
      "outputs": [
        {
          "internalType": "uint256",
          "name": "pharmacyCount",
          "type": "uint256"
        }
      ],
      "stateMutability": "view",
      "type": "function",
      "constant": true
    },
    {
      "inputs": [
        {
          "internalType": "address",
          "name": "_walletAddress",
          "type": "address"
        }
      ],
      "name": "getPharmacyData",
      "outputs": [
        {
          "internalType": "string",
          "name": "name",
          "type": "string"
        },
        {
          "internalType": "string",
          "name": "pharmacyDetails",
          "type": "string"
        },
        {
          "internalType": "address",
          "name": "walletAddress",
          "type": "address"
        }
      ],
      "stateMutability": "view",
      "type": "function",
      "constant": true
    },
    {
      "inputs": [
        {
          "internalType": "string",
          "name": "_name",
          "type": "string"
        },
        {
          "internalType": "string",
          "name": "_hospitalDetails",
          "type": "string"
        },
        {
          "internalType": "address",
          "name": "_walletAddress",
          "type": "address"
        }
      ],
      "name": "storeHospital",
      "outputs": [
        {
          "internalType": "bool",
          "name": "status",
          "type": "bool"
        }
      ],
      "stateMutability": "nonpayable",
      "type": "function"
    },
    {
      "inputs": [],
      "name": "retrieveHospitalCount",
      "outputs": [
        {
          "internalType": "uint256",
          "name": "hospitalCount",
          "type": "uint256"
        }
      ],
      "stateMutability": "view",
      "type": "function",
      "constant": true
    },
    {
      "inputs": [
        {
          "internalType": "address",
          "name": "_hospitalAddress",
          "type": "address"
        }
      ],
      "name": "retrieveHospitalSpecificCountOfDoctors",
      "outputs": [
        {
          "internalType": "uint256",
          "name": "doctorCountInHospital",
          "type": "uint256"
        }
      ],
      "stateMutability": "view",
      "type": "function",
      "constant": true
    },
    {
      "inputs": [
        {
          "internalType": "address",
          "name": "_hospitalAddress",
          "type": "address"
        }
      ],
      "name": "retrieveHospitalSpecificCountOfPatients",
      "outputs": [
        {
          "internalType": "uint256",
          "name": "patientCountInHospital",
          "type": "uint256"
        }
      ],
      "stateMutability": "view",
      "type": "function",
      "constant": true
    },
    {
      "inputs": [
        {
          "internalType": "address",
          "name": "addressOfUser",
          "type": "address"
        }
      ],
      "name": "getHospitalData",
      "outputs": [
        {
          "internalType": "string",
          "name": "_nameAdmin",
          "type": "string"
        },
        {
          "internalType": "string",
          "name": "hospitalDetails",
          "type": "string"
        },
        {
          "internalType": "address",
          "name": "walletAddress",
          "type": "address"
        }
      ],
      "stateMutability": "view",
      "type": "function",
      "constant": true
    },
    {
      "inputs": [
        {
          "internalType": "address",
          "name": "_addressOfAdmin",
          "type": "address"
        },
        {
          "internalType": "address",
          "name": "_addressOfPatient",
          "type": "address"
        }
      ],
      "name": "grantRoleVerifiedPatient",
      "outputs": [
        {
          "internalType": "bool",
          "name": "success",
          "type": "bool"
        }
      ],
      "stateMutability": "nonpayable",
      "type": "function"
    },
    {
      "inputs": [
        {
          "internalType": "address",
          "name": "_addressOfAdmin",
          "type": "address"
        },
        {
          "internalType": "address",
          "name": "_addressOfDoctor",
          "type": "address"
        }
      ],
      "name": "grantRoleVerifiedDoctor",
      "outputs": [
        {
          "internalType": "bool",
          "name": "success",
          "type": "bool"
        }
      ],
      "stateMutability": "nonpayable",
      "type": "function"
    }
  ],
  "bytecode": "0x60806040523480156200001157600080fd5b506200002d6000805160206200264a83398151915280620000b6565b620000687fc9c8e67a61d2e7371df46522b44051b955c16bf4b713ef44e1373b25bfcd80b26000805160206200264a833981519152620000b6565b620000a37fe5786ee6f50ab1a5567cb3f3f6840a2f4ddbafdf4a35cb2c52d5b732b1e84a326000805160206200264a833981519152620000b6565b620000b06000336200010b565b620001e7565b6000620000c3836200011b565b600084815260208190526040808220600101859055519192508391839186917fbd79b86ffe0ab8e8776151514217cd7cacd52c909f66475c3af44e129f0b00ff9190a4505050565b62000117828262000130565b5050565b60009081526020819052604090206001015490565b6200013c8282620001ba565b62000117576000828152602081815260408083206001600160a01b03851684529091529020805460ff1916600117905562000176620001e3565b6001600160a01b0316816001600160a01b0316837f2f8788117e7eff1d82e926ec794901d17c78024a50270940304540a733656f0d60405160405180910390a45050565b6000918252602082815260408084206001600160a01b0393909316845291905290205460ff1690565b3390565b61245380620001f76000396000f3fe608060405234801561001057600080fd5b50600436106101fb5760003560e01c80638b55befc1161011a578063c99ead64116100ad578063e8300b1d1161007c578063e8300b1d14610451578063edae7fb514610464578063f98d5d251461046c578063fcd4014b14610474578063fffaff4214610487576101fb565b8063c99ead6414610405578063d547741f14610418578063e21eadcc1461042b578063e37e96961461043e576101fb565b8063a9909db9116100e9578063a9909db9146103b9578063ac291867146103cc578063b9a47e90146103df578063c12878c3146103f2576101fb565b80638b55befc1461037857806391d148541461038b578063a217fddf1461039e578063a84ceab7146103a6576101fb565b8063389e3894116101925780635d9c45cd116101615780635d9c45cd1461032a57806373e830b41461033d5780637799c0491461034557806377aee29214610365576101fb565b8063389e3894146102cf5780633f9c1090146102f157806345118d8e146103045780634edf897f14610317576101fb565b8063224ccd0f116101ce578063224ccd0f14610274578063248a9ca3146102945780632f2ff15d146102a757806336568abe146102bc576101fb565b806301ffc9a7146102005780630a086b15146102295780630b6003451461023e57806316d8b45b14610251575b600080fd5b61021361020e366004611dd2565b61049a565b6040516102209190612111565b60405180910390f35b6102316104c7565b604051610220919061211c565b61021361024c366004611e3d565b6104d8565b61026461025f366004611cbe565b6105c1565b6040516102209493929190612176565b610287610282366004611cbe565b61071d565b60405161022091906120b1565b6102316102a2366004611d98565b61080f565b6102ba6102b5366004611db0565b610824565b005b6102ba6102ca366004611db0565b61084d565b6102e26102dd366004611cbe565b61089c565b60405161022093929190612138565b6102136102ff366004611d4c565b6109f4565b610213610312366004611d0a565b610a81565b610213610325366004611ea5565b610af6565b610213610338366004611ea5565b610ce7565b610231610eef565b610358610353366004611cbe565b610efb565b6040516102209190612125565b610287610373366004611cbe565b610fab565b610231610386366004611cbe565b611092565b610213610399366004611db0565b6110b6565b6102316110df565b6102136103b4366004611d0a565b6110e4565b6102136103c7366004611dfa565b611151565b6103586103da366004611cbe565b6111bc565b6102136103ed366004611cd8565b6111e6565b610231610400366004611cbe565b6112a8565b610213610413366004611e3d565b6112cc565b6102ba610426366004611db0565b6113be565b6102e2610439366004611cbe565b6113dd565b61021361044c366004611cd8565b611410565b6102e261045f366004611cbe565b611490565b6102316114ca565b6102316114d6565b610213610482366004611d4c565b6114e2565b610358610495366004611d4c565b611604565b60006001600160e01b03198216637965db0b60e01b14806104bf57506104bf82611792565b90505b919050565b60006104d360046117ab565b905090565b60006105047f47a8a9b8917c993d90f37744bb40dfb774c4593d1a1660ed38db000e33156502836117af565b6001600160a01b0382166000908152600860209081526040909120855161052d92870190611b12565b506001600160a01b03821660008181526008602090815260409091206002810180546001600160a01b03191690931790925584516105719260010191860190611b12565b5061057c60036117b9565b7ff1ed66ce17e814997c731a53029e891da3b3665c7d89fd2a257363990098c1be8484846040516105af93929190612138565b60405180910390a15060019392505050565b6001600160a01b0380821660009081526005602052604081206002810154815460609485949384939092600184019291909116908890849061060290612396565b80601f016020809104026020016040519081016040528092919081815260200182805461062e90612396565b801561067b5780601f106106505761010080835404028352916020019161067b565b820191906000526020600020905b81548152906001019060200180831161065e57829003601f168201915b5050505050935082805461068e90612396565b80601f01602080910402602001604051908101604052809291908181526020018280546106ba90612396565b80156107075780601f106106dc57610100808354040283529160200191610707565b820191906000526020600020905b8154815290600101906020018083116106ea57829003601f168201915b5050505050925093509350935093509193509193565b6001600160a01b0381166000908152600560209081526040808320600601805482518185028101850190935280835260609492939192909184015b8282101561080457838290600052602060002001805461077790612396565b80601f01602080910402602001604051908101604052809291908181526020018280546107a390612396565b80156107f05780601f106107c5576101008083540402835291602001916107f0565b820191906000526020600020905b8154815290600101906020018083116107d357829003601f168201915b505050505081526020019060010190610758565b505050509050919050565b60009081526020819052604090206001015490565b61082d8261080f565b61083e816108396117c2565b6117c6565b610848838361182a565b505050565b6108556117c2565b6001600160a01b0316816001600160a01b03161461088e5760405162461bcd60e51b8152600401610885906122c9565b60405180910390fd5b61089882826118af565b5050565b6001600160a01b03808216600090815260066020526040812060048101546001820180546060958695949293600290930192169083906108db90612396565b80601f016020809104026020016040519081016040528092919081815260200182805461090790612396565b80156109545780601f1061092957610100808354040283529160200191610954565b820191906000526020600020905b81548152906001019060200180831161093757829003601f168201915b5050505050925081805461096790612396565b80601f016020809104026020016040519081016040528092919081815260200182805461099390612396565b80156109e05780601f106109b5576101008083540402835291602001916109e0565b820191906000526020600020905b8154815290600101906020018083116109c357829003601f168201915b505050505091509250925092509193909250565b6001600160a01b038216600090815260056020908152604082208351610a2292600190920191850190611b12565b506001600160a01b0383166000908152600560205260409081902090517f9a0b4af72c5a4121f816c4ea663db0d61662cb63fe54ee51ef4bf50d4911bae591610a6f91600182019061220a565b60405180910390a15060015b92915050565b6001600160a01b0383166000908152600860205260408120610aa590600301611932565b6001600160a01b03828116600090815260056020908152604080832060020180546001600160a01b03191694881694851790559282526008905220610aec906003016117b9565b5060019392505050565b6000610b106000805160206123fe833981519152836110b6565b15610bb757610b2d6000805160206123fe833981519152836117af565b6001600160a01b03821660009081526006602090815260409091208651610b5c92600190920191880190611b12565b506001600160a01b03828116600081815260066020908152604090912080546001600160a01b03199081169093178155600481018054909316938716939093179091558551610bb19260020191870190611b12565b50610c82565b610bcf6000805160206123fe833981519152836117af565b6001600160a01b03821660009081526006602090815260409091208651610bfe92600190920191880190611b12565b506001600160a01b03828116600081815260066020908152604090912080546001600160a01b03199081169093178155600481018054909316938716939093179091558551610c539260020191870190611b12565b506001600160a01b0383166000908152600860205260409020610c78906004016117b9565b610c8260026117b9565b6001600160a01b0382166000908152600660205260409081902090517f094f9e983e464406960b58ac311309ef38583f6e33af8d47f93b0c048e60c7cf91610cd4916001820191600201908690612238565b60405180910390a1506001949350505050565b6000610d137fe5786ee6f50ab1a5567cb3f3f6840a2f4ddbafdf4a35cb2c52d5b732b1e84a32836110b6565b15610db3576001600160a01b03821660009081526005602090815260409091208651610d4192880190611b12565b506001600160a01b03821660009081526005602090815260409091208551610d7192600190920191870190611b12565b506001600160a01b0380831660008181526005602052604090206002810180549387166001600160a01b03199485161790556003018054909216179055610e99565b610ddd7fe5786ee6f50ab1a5567cb3f3f6840a2f4ddbafdf4a35cb2c52d5b732b1e84a32836117af565b6001600160a01b03821660009081526005602090815260409091208651610e0692880190611b12565b506001600160a01b03821660009081526005602090815260409091208551610e3692600190920191870190611b12565b506001600160a01b038083166000818152600560209081526040808320600281018054968a166001600160a01b03199788168117909155600391820180549097169095179095559282526008905220610e8f91016117b9565b610e9960016117b9565b6001600160a01b0380831660009081526005602052604090819020600281015491517f3b8a83fdecb2b3e9bf160eeb2f3112ba4bdad2159cb6783bc884ab9712bb58b493610cd4931690600183019087906121c0565b60006104d360016117ab565b6001600160a01b038116600090815260056020819052604090912001805460609190610f2690612396565b80601f0160208091040260200160405190810160405280929190818152602001828054610f5290612396565b8015610f9f5780601f10610f7457610100808354040283529160200191610f9f565b820191906000526020600020905b815481529060010190602001808311610f8257829003601f168201915b50505050509050919050565b6001600160a01b0381166000908152600560209081526040808320600401805482518185028101850190935280835260609492939192909184015b8282101561080457838290600052602060002001805461100590612396565b80601f016020809104026020016040519081016040528092919081815260200182805461103190612396565b801561107e5780601f106110535761010080835404028352916020019161107e565b820191906000526020600020905b81548152906001019060200180831161106157829003601f168201915b505050505081526020019060010190610fe6565b6001600160a01b03811660009081526008602052604081206104bf906003016117ab565b6000918252602082815260408084206001600160a01b0393909316845291905290205460ff1690565b600081565b6001600160a01b038316600090815260086020526040812061110890600401611932565b6001600160a01b038281166000908152600660209081526040808320600490810180546001600160a01b031916958916958617905593835260089091529020610aec91016117b9565b600061117d7f0e55d2d590eb481461be8bfa869367231c671a31d6401bfeaf2d5cb5787ff252836110b6565b156111b3576001600160a01b038216600090815260056020908152604090912084516111b192600190920191860190611b12565b505b50600192915050565b6001600160a01b0381166000908152600560205260409020600701805460609190610f2690612396565b60006112127f47a8a9b8917c993d90f37744bb40dfb774c4593d1a1660ed38db000e33156502846110b6565b8061124257506112427faa5dabedfa16172c67f74bf2293d462402d380790ac2275169499fcded0d7805846110b6565b61124b57600080fd5b6112757fe5786ee6f50ab1a5567cb3f3f6840a2f4ddbafdf4a35cb2c52d5b732b1e84a32836110b6565b61127e57600080fd5b6111b37f0e55d2d590eb481461be8bfa869367231c671a31d6401bfeaf2d5cb5787ff25283610824565b6001600160a01b03811660009081526008602052604081206104bf906004016117ab565b60006112f87f6d960d3aada907633a701143a0c8a0657b9ed1e77b6d2d8b56e5d8813982e10c836117af565b6001600160a01b0382166000908152600760209081526040909120855161132192870190611b12565b506001600160a01b03821660008181526007602090815260409091206002810180546001600160a01b03191690931790925584516113659260010191860190611b12565b5061137060046117b9565b6001600160a01b0382166000908152600760205260409081902090517f2fc29db602a5f7179d31b6051279d19e64007dc3eaff8031f3198e0faa156058916105af9160018201908690612238565b6113c78261080f565b6113d3816108396117c2565b61084883836118af565b6001600160a01b03811660009081526007602052604081208054606092839290916001820190869083906108db90612396565b600061143c7f47a8a9b8917c993d90f37744bb40dfb774c4593d1a1660ed38db000e33156502846110b6565b61144557600080fd5b61145d6000805160206123fe833981519152836110b6565b61146657600080fd5b6111b37faa5dabedfa16172c67f74bf2293d462402d380790ac2275169499fcded0d780583610824565b6001600160a01b0380821660009081526008602052604081206002810154815460609485949392600184019291169083906108db90612396565b60006104d360026117ab565b60006104d360036117ab565b60006040516020016114f390612039565b60408051601f1981840301815282825280516020918201206001600160a01b03871660009081526005808452939020909361153393919091019101611fca565b604051602081830303815290604052805190602001201415611588576001600160a01b0383166000908152600560208181526040909220845161157e93919092019190850190611b12565b5060019050610a7b565b6001600160a01b038316600090815260056020818152604083206004810180546001810182559085529190932092909101805492909101916115c990612396565b6115d4929190611b96565b506001600160a01b0383166000908152600560208181526040909220845161157e93919092019190850190611b12565b606060405160200161161590612039565b60408051601f1981840301815282825280516020918201206001600160a01b038716600090815260058352929092209192611654926007019101611fca565b6040516020818303038152906040528051906020012014156116da576001600160a01b0383166000908152600560209081526040909120835161169f92600790920191850190611b12565b505060408051808201909152601e81527f454e5445524544204f4e434520505245534352495054494f4e204f4e4c5900006020820152610a7b565b6001600160a01b038316600090815260056020908152604082206006810180546001810182559084529190922060079092018054929091019161171c90612396565b611727929190611b96565b506001600160a01b0383166000908152600560209081526040909120835161175792600790920191850190611b12565b505060408051808201909152601f81527f454e544552454420545749434520505245534352495054494f4e204f4e4c59006020820152610a7b565b6001600160e01b031981166301ffc9a760e01b14919050565b5490565b610898828261182a565b80546001019055565b3390565b6117d082826110b6565b610898576117e8816001600160a01b03166014611959565b6117f3836020611959565b60405160200161180492919061203c565b60408051601f198184030181529082905262461bcd60e51b825261088591600401612125565b61183482826110b6565b610898576000828152602081815260408083206001600160a01b03851684529091529020805460ff1916600117905561186b6117c2565b6001600160a01b0316816001600160a01b0316837f2f8788117e7eff1d82e926ec794901d17c78024a50270940304540a733656f0d60405160405180910390a45050565b6118b982826110b6565b15610898576000828152602081815260408083206001600160a01b03851684529091529020805460ff191690556118ee6117c2565b6001600160a01b0316816001600160a01b0316837ff6391f5c32d9c69d2a47ea670b442974b53935d1edc7fd64eb21e047a839171b60405160405180910390a45050565b8054806119515760405162461bcd60e51b815260040161088590612292565b600019019055565b60606000611968836002612330565b611973906002612318565b67ffffffffffffffff81111561199957634e487b7160e01b600052604160045260246000fd5b6040519080825280601f01601f1916602001820160405280156119c3576020820181803683370190505b509050600360fc1b816000815181106119ec57634e487b7160e01b600052603260045260246000fd5b60200101906001600160f81b031916908160001a905350600f60fb1b81600181518110611a2957634e487b7160e01b600052603260045260246000fd5b60200101906001600160f81b031916908160001a9053506000611a4d846002612330565b611a58906001612318565b90505b6001811115611aec576f181899199a1a9b1b9c1cb0b131b232b360811b85600f1660108110611a9a57634e487b7160e01b600052603260045260246000fd5b1a60f81b828281518110611abe57634e487b7160e01b600052603260045260246000fd5b60200101906001600160f81b031916908160001a90535060049490941c93611ae58161237f565b9050611a5b565b508315611b0b5760405162461bcd60e51b81526004016108859061225d565b9392505050565b828054611b1e90612396565b90600052602060002090601f016020900481019282611b405760008555611b86565b82601f10611b5957805160ff1916838001178555611b86565b82800160010185558215611b86579182015b82811115611b86578251825591602001919060010190611b6b565b50611b92929150611c11565b5090565b828054611ba290612396565b90600052602060002090601f016020900481019282611bc45760008555611b86565b82601f10611bd55780548555611b86565b82800160010185558215611b8657600052602060002091601f016020900482015b82811115611b86578254825591600101919060010190611bf6565b5b80821115611b925760008155600101611c12565b80356001600160a01b03811681146104c257600080fd5b600082601f830112611c4d578081fd5b813567ffffffffffffffff80821115611c6857611c686123e7565b604051601f8301601f191681016020018281118282101715611c8c57611c8c6123e7565b604052828152848301602001861015611ca3578384fd5b82602086016020830137918201602001929092529392505050565b600060208284031215611ccf578081fd5b611b0b82611c26565b60008060408385031215611cea578081fd5b611cf383611c26565b9150611d0160208401611c26565b90509250929050565b600080600060608486031215611d1e578081fd5b611d2784611c26565b9250611d3560208501611c26565b9150611d4360408501611c26565b90509250925092565b60008060408385031215611d5e578182fd5b611d6783611c26565b9150602083013567ffffffffffffffff811115611d82578182fd5b611d8e85828601611c3d565b9150509250929050565b600060208284031215611da9578081fd5b5035919050565b60008060408385031215611dc2578182fd5b82359150611d0160208401611c26565b600060208284031215611de3578081fd5b81356001600160e01b031981168114611b0b578182fd5b60008060408385031215611e0c578182fd5b823567ffffffffffffffff811115611e22578283fd5b611e2e85828601611c3d565b925050611d0160208401611c26565b600080600060608486031215611e51578283fd5b833567ffffffffffffffff80821115611e68578485fd5b611e7487838801611c3d565b94506020860135915080821115611e89578384fd5b50611e9686828701611c3d565b925050611d4360408501611c26565b60008060008060808587031215611eba578081fd5b843567ffffffffffffffff80821115611ed1578283fd5b611edd88838901611c3d565b95506020870135915080821115611ef2578283fd5b50611eff87828801611c3d565b935050611f0e60408601611c26565b9150611f1c60608601611c26565b905092959194509250565b60008151808452611f3f81602086016020860161234f565b601f01601f19169290920160200192915050565b60008154611f6081612396565b808552602060018381168015611f7d5760018114611f9157611fbf565b60ff19851688840152604088019550611fbf565b866000528260002060005b85811015611fb75781548a8201860152908301908401611f9c565b890184019650505b505050505092915050565b6000808354611fd881612396565b60018281168015611ff057600181146120015761202d565b60ff1984168752828701945061202d565b8786526020808720875b858110156120245781548a82015290840190820161200b565b50505082870194505b50929695505050505050565b90565b60007f416363657373436f6e74726f6c3a206163636f756e74200000000000000000008252835161207481601785016020880161234f565b7001034b99036b4b9b9b4b733903937b6329607d1b60179184019182015283516120a581602884016020880161234f565b01602801949350505050565b6000602080830181845280855180835260408601915060408482028701019250838701855b8281101561210457603f198886030184526120f2858351611f27565b945092850192908501906001016120d6565b5092979650505050505050565b901515815260200190565b90815260200190565b600060208252611b0b6020830184611f27565b60006060825261214b6060830186611f27565b828103602084015261215d8186611f27565b91505060018060a01b0383166040830152949350505050565b6000608082526121896080830187611f27565b828103602084015261219b8187611f27565b6001600160a01b03958616604085015293909416606090920191909152509392505050565b6000608082526121d36080830187611f53565b6001600160a01b03868116602085015283820360408501526121f58287611f53565b92508085166060850152505095945050505050565b60006040825261221d6040830185611f53565b828103602084015261222f8185611f53565b95945050505050565b60006060825261224b6060830186611f53565b828103602084015261215d8186611f53565b6020808252818101527f537472696e67733a20686578206c656e67746820696e73756666696369656e74604082015260600190565b6020808252601b908201527f436f756e7465723a2064656372656d656e74206f766572666c6f770000000000604082015260600190565b6020808252602f908201527f416363657373436f6e74726f6c3a2063616e206f6e6c792072656e6f756e636560408201526e103937b632b9903337b91039b2b63360891b606082015260800190565b6000821982111561232b5761232b6123d1565b500190565b600081600019048311821515161561234a5761234a6123d1565b500290565b60005b8381101561236a578181015183820152602001612352565b83811115612379576000848401525b50505050565b60008161238e5761238e6123d1565b506000190190565b6002810460018216806123aa57607f821691505b602082108114156123cb57634e487b7160e01b600052602260045260246000fd5b50919050565b634e487b7160e01b600052601160045260246000fd5b634e487b7160e01b600052604160045260246000fdfec9c8e67a61d2e7371df46522b44051b955c16bf4b713ef44e1373b25bfcd80b2a2646970667358221220358e95ccb87db9af9055e52da5327eaa00fd15a9ac6679f200b39bdb29a1cff364736f6c6343000800003347a8a9b8917c993d90f37744bb40dfb774c4593d1a1660ed38db000e33156502",
  "immutableReferences": {},
  "source": "pragma solidity ^0.8.0;\r\n\r\n//SPDX-License-Identifier: MIT\r\nimport \"./access/AccessControlEnumerable.sol\";\r\nimport \"./Roles.sol\";\r\nimport \"./openzeppelin/contracts/utils/Counters.sol\";\r\n\r\ncontract MainContract is AccessControl {\r\n    using Counters for Counters.Counter;\r\n\r\n    struct patientRecord {\r\n        string name;\r\n        string personalDetails;\r\n        address hospitalAddress;\r\n        address walletAddress;\r\n        string[] previousPatientRecordHashes;\r\n        string newMedicalRecordHash;\r\n        string[] previousPatientPrescriptionHashes;\r\n        string newPatientPrescriptionHashes;\r\n        prescriptionRecord[] prescriptions;\r\n       \r\n    }\r\n\r\n    struct prescriptionRecord {\r\n        uint256 id;\r\n        uint256 date;\r\n        string[] name;\r\n        uint8[] quantity;\r\n        \r\n    }\r\n\r\n\r\n    struct doctorRecord {\r\n        \r\n        address walletAddress;\r\n        string name;\r\n        string personalDetails;\r\n        string docSpecialization;\r\n        address hospitalAddress;\r\n        \r\n    }\r\n\r\n    struct pharmacyRecord {\r\n        string name;\r\n        string personalDetails;\r\n        address walletAddress;\r\n    }\r\n\r\n    struct hospitalRecord {\r\n        string name;\r\n        string hospitalDetails;\r\n        address walletAddress;\r\n        Counters.Counter patientInHospital;\r\n        Counters.Counter doctorInHospital;\r\n    }\r\n\r\n    Counters.Counter patientCounter;\r\n    Counters.Counter doctorCounter;\r\n    Counters.Counter hospitalCounter;\r\n    Counters.Counter pharmacyCounter;\r\n\r\n    //: Constructor\r\n    constructor() {\r\n        _setRoleAdmin(HOSPITAL_ADMIN, HOSPITAL_ADMIN);\r\n        _setRoleAdmin(DOCTOR, HOSPITAL_ADMIN);\r\n        _setRoleAdmin(PATIENT, HOSPITAL_ADMIN);\r\n\r\n        // default role of contract deployer\r\n        _setupRole(DEFAULT_ADMIN_ROLE, msg.sender);\r\n    }\r\n\r\n    event LogStorePatient(\r\n        string name,\r\n        address hospitalAddress,\r\n        string _personalDetails,\r\n        address owner\r\n    );\r\n    event LogUpdatePatientPersonalDetails(string name, string _personalDetails);\r\n\r\n    //: PATIENT DATABASE\r\n    mapping(address => patientRecord) patientDatabase;\r\n\r\n\r\n    function storePatient(\r\n        string memory _name,\r\n        string memory _personalDetails,\r\n        address _hospitalAddress,\r\n        address _walletAddress\r\n    ) external returns (bool status) {\r\n        if (hasRole(PATIENT, _walletAddress)) {\r\n            patientDatabase[_walletAddress].name = _name;\r\n            patientDatabase[_walletAddress].personalDetails = _personalDetails;\r\n            patientDatabase[_walletAddress].hospitalAddress = _hospitalAddress;\r\n            patientDatabase[_walletAddress].walletAddress = _walletAddress;\r\n        } else {\r\n            _setupRole(PATIENT, _walletAddress);\r\n            patientDatabase[_walletAddress].name = _name;\r\n            patientDatabase[_walletAddress].personalDetails = _personalDetails;\r\n            patientDatabase[_walletAddress].hospitalAddress = _hospitalAddress;\r\n            patientDatabase[_walletAddress].walletAddress = _walletAddress;\r\n            hospitalDatabase[_hospitalAddress].patientInHospital.increment();\r\n            patientCounter.increment();\r\n        }\r\n\r\n        emit LogStorePatient(\r\n            patientDatabase[_walletAddress].name,\r\n            patientDatabase[_walletAddress].hospitalAddress,\r\n            patientDatabase[_walletAddress].personalDetails,\r\n            _walletAddress\r\n        );\r\n        return true;\r\n    }\r\n\r\n\r\n    function updatePatientPersonalDetailHash(\r\n        string memory _personalDetails,\r\n        address _walletAddress\r\n    ) external returns (bool status) {\r\n        if (hasRole(VERIFIED_PATIENT, _walletAddress)) {\r\n\r\n            patientDatabase[_walletAddress].personalDetails = _personalDetails;\r\n        \r\n        }\r\n\r\n        return true;\r\n    }\r\n\r\n\r\n\r\n    function changeHospitalForPatient(\r\n        address _previousHospitalAddress,\r\n        address _newHospitalAddress,\r\n        address _walletAddress\r\n    ) external returns (bool status) {\r\n        hospitalDatabase[_previousHospitalAddress].patientInHospital.decrement();\r\n\r\n        patientDatabase[_walletAddress].hospitalAddress = _newHospitalAddress;\r\n\r\n        hospitalDatabase[_newHospitalAddress].patientInHospital.increment();\r\n\r\n        return true;\r\n    }\r\n\r\n   \r\n\r\n    function retrievePatientCount()\r\n        external\r\n        view\r\n        returns (uint256 patientCount)\r\n    {\r\n        return patientCounter.current();\r\n    }\r\n\r\n    function retrievePatientData(address _walletAddress)\r\n        external\r\n        view\r\n        returns (\r\n            string memory name,\r\n            string memory personalDetails,\r\n            address hospitalAddress,\r\n            address walletAddress\r\n        )\r\n    {\r\n        return (\r\n            patientDatabase[_walletAddress].name,\r\n            patientDatabase[_walletAddress].personalDetails,\r\n            patientDatabase[_walletAddress].hospitalAddress,\r\n            _walletAddress\r\n        );\r\n    }\r\n\r\n    function updatePatientPersonalData(\r\n        address _walletAddress,\r\n        string memory _personalDetails\r\n    ) public returns (bool success) {\r\n        patientDatabase[_walletAddress].personalDetails = _personalDetails;\r\n\r\n        emit LogUpdatePatientPersonalDetails(\r\n            patientDatabase[_walletAddress].name,\r\n            patientDatabase[_walletAddress].personalDetails\r\n        );\r\n\r\n        return true;\r\n    }\r\n\r\n    function updatePatientMedicalRecords(\r\n        address _walletAddress,\r\n        string memory medicalRecordHash\r\n    ) external returns (bool status) {\r\n        if (\r\n            keccak256(\r\n                abi.encodePacked(\r\n                    patientDatabase[_walletAddress].newMedicalRecordHash\r\n                )\r\n            ) == keccak256(abi.encodePacked(\"\"))\r\n        ) {\r\n            patientDatabase[_walletAddress]\r\n                .newMedicalRecordHash = medicalRecordHash;\r\n            return true;\r\n        } else {\r\n            patientDatabase[_walletAddress].previousPatientRecordHashes.push(\r\n                patientDatabase[_walletAddress].newMedicalRecordHash\r\n            );\r\n            patientDatabase[_walletAddress]\r\n                .newMedicalRecordHash = medicalRecordHash;\r\n            return true;\r\n        }\r\n    }\r\n\r\n    function updatePatientPrescription(\r\n        address _walletAddress,\r\n        string memory prescriptionHash\r\n    ) external returns (string memory status) {\r\n        if (\r\n            keccak256(\r\n                abi.encodePacked(\r\n                    patientDatabase[_walletAddress].newPatientPrescriptionHashes\r\n                )\r\n            ) == keccak256(abi.encodePacked(\"\"))\r\n        ) {\r\n            patientDatabase[_walletAddress]\r\n                .newPatientPrescriptionHashes = prescriptionHash;\r\n            return \"ENTERED ONCE PRESCRIPTION ONLY\";\r\n        } else {\r\n            patientDatabase[_walletAddress]\r\n                .previousPatientPrescriptionHashes\r\n                .push(\r\n                    patientDatabase[_walletAddress].newPatientPrescriptionHashes\r\n                );\r\n            patientDatabase[_walletAddress]\r\n                .newPatientPrescriptionHashes = prescriptionHash;\r\n            return \"ENTERED TWICE PRESCRIPTION ONLY\";\r\n        }\r\n    }\r\n\r\n    function getNewPrescription(address _patientAddress)\r\n        external\r\n        view\r\n        returns (string memory status)\r\n    {\r\n        return patientDatabase[_patientAddress].newPatientPrescriptionHashes;\r\n    }\r\n\r\n    function getMultiplePrescription(address _patientAddress)\r\n        external\r\n        view\r\n        returns (string[] memory status)\r\n    {\r\n        return\r\n            patientDatabase[_patientAddress].previousPatientPrescriptionHashes;\r\n    }\r\n\r\n    function getNewRecords(address _patientAddress)\r\n        external\r\n        view\r\n        returns (string memory status)\r\n    {\r\n        return patientDatabase[_patientAddress].newMedicalRecordHash;\r\n    }\r\n\r\n    function getMultipleRecords(address _patientAddress)\r\n        external\r\n        view\r\n        returns (string[] memory status)\r\n    {\r\n        return patientDatabase[_patientAddress].previousPatientRecordHashes;\r\n    }\r\n\r\n    event LogStoreDoctor(string name, string personalDetails, address owner);\r\n    event LogUpdateDoctor(string name, string personalDetails);\r\n    event LogDeleteDoctor(string name, uint256 empIdIndex);\r\n\r\n    //: DOCTOR DATABASE\r\n    mapping(address => doctorRecord) doctorDatabase;\r\n\r\n    function storeDoctor(\r\n        string memory name,\r\n        string memory _personalDetails,\r\n        address _hospitalAddress,\r\n        address _walletAddress\r\n    ) external returns (bool status) {\r\n        if (hasRole(DOCTOR, _walletAddress)) {\r\n            _setupRole(DOCTOR, _walletAddress);\r\n            doctorDatabase[_walletAddress].name = name;\r\n            doctorDatabase[_walletAddress].walletAddress = _walletAddress;\r\n            doctorDatabase[_walletAddress].hospitalAddress = _hospitalAddress;\r\n            doctorDatabase[_walletAddress].personalDetails = _personalDetails;\r\n        } else {\r\n            _setupRole(DOCTOR, _walletAddress);\r\n            doctorDatabase[_walletAddress].name = name;\r\n            doctorDatabase[_walletAddress].walletAddress = _walletAddress;\r\n            doctorDatabase[_walletAddress].hospitalAddress = _hospitalAddress;\r\n            doctorDatabase[_walletAddress].personalDetails = _personalDetails;\r\n            hospitalDatabase[_hospitalAddress].doctorInHospital.increment();\r\n            doctorCounter.increment();\r\n        }\r\n\r\n        emit LogStoreDoctor(\r\n            doctorDatabase[_walletAddress].name,\r\n            doctorDatabase[_walletAddress].personalDetails,\r\n            _walletAddress\r\n        );\r\n\r\n        return true;\r\n    }\r\n\r\n     function changeHospitalForDoctor(\r\n        address _previousHospitalAddress,\r\n        address _newHospitalAddress,\r\n        address _walletAddress\r\n    ) external returns (bool status) {\r\n        hospitalDatabase[_previousHospitalAddress].doctorInHospital.decrement();\r\n\r\n        doctorDatabase[_walletAddress].hospitalAddress = _newHospitalAddress;\r\n\r\n        hospitalDatabase[_newHospitalAddress].doctorInHospital.increment();\r\n\r\n        return true;\r\n    }\r\n\r\n    function retrieveDoctorCount() external view returns (uint256 doctorCount) {\r\n        return doctorCounter.current();\r\n    }\r\n\r\n    function retrieveDoctorData(address _walletAddress)\r\n        public\r\n        view\r\n        returns (\r\n            string memory name,\r\n            string memory personalDetails,\r\n            address hospitalAddress\r\n        )\r\n    {\r\n        return (\r\n            doctorDatabase[_walletAddress].name,\r\n            doctorDatabase[_walletAddress].personalDetails,\r\n            doctorDatabase[_walletAddress].hospitalAddress\r\n        );\r\n    }\r\n\r\n    event LogPharmacy(string name, string personalDetails, address owner);\r\n\r\n    //: Pharmacy DATABASE\r\n    mapping(address => pharmacyRecord) pharmacyDatabase;\r\n\r\n    function storePharmacy(\r\n        string memory name,\r\n        string memory _personalDetails,\r\n        address _walletAddress\r\n    ) external returns (bool status) {\r\n        _setupRole(PHARMACY, _walletAddress);\r\n        pharmacyDatabase[_walletAddress].name = name;\r\n        pharmacyDatabase[_walletAddress].walletAddress = _walletAddress;\r\n        pharmacyDatabase[_walletAddress].personalDetails = _personalDetails;\r\n        pharmacyCounter.increment();\r\n        emit LogPharmacy(\r\n            pharmacyDatabase[_walletAddress].name,\r\n            pharmacyDatabase[_walletAddress].personalDetails,\r\n            _walletAddress\r\n        );\r\n\r\n        return true;\r\n    }\r\n\r\n    function retrievePharmacyCount()\r\n        external\r\n        view\r\n        returns (uint256 pharmacyCount)\r\n    {\r\n        return pharmacyCounter.current();\r\n    }\r\n\r\n    function getPharmacyData(address _walletAddress)\r\n        public\r\n        view\r\n        returns (\r\n            string memory name,\r\n            string memory pharmacyDetails,\r\n            address walletAddress\r\n        )\r\n    {\r\n        return (\r\n            pharmacyDatabase[_walletAddress].name,\r\n            pharmacyDatabase[_walletAddress].personalDetails,\r\n            _walletAddress\r\n        );\r\n    }\r\n\r\n    event LogHospital(\r\n        string name,\r\n        string _hospitalDetails,\r\n        address walletAddress\r\n    );\r\n    event LogUpdateHospital(string name, string dateOfBirth);\r\n    event LogDeleteHospital(string name, uint256 empIdIndex);\r\n\r\n    //: HOSPITAL DATABASE\r\n    mapping(address => hospitalRecord) hospitalDatabase;\r\n\r\n    function storeHospital(\r\n        string memory _name,\r\n        string memory _hospitalDetails,\r\n        address _walletAddress\r\n    ) external returns (bool status) {\r\n        _setupRole(HOSPITAL_ADMIN, _walletAddress);\r\n        hospitalDatabase[_walletAddress].name = _name;\r\n        hospitalDatabase[_walletAddress].walletAddress = _walletAddress;\r\n        hospitalDatabase[_walletAddress].hospitalDetails = _hospitalDetails;\r\n        hospitalCounter.increment();\r\n\r\n        emit LogHospital(_name, _hospitalDetails, _walletAddress);\r\n\r\n        return true;\r\n    }\r\n\r\n    function retrieveHospitalCount()\r\n        external\r\n        view\r\n        returns (uint256 hospitalCount)\r\n    {\r\n        return hospitalCounter.current();\r\n    }\r\n\r\n    function retrieveHospitalSpecificCountOfDoctors(address _hospitalAddress)\r\n        external\r\n        view\r\n        returns (uint256 doctorCountInHospital)\r\n    {\r\n        return hospitalDatabase[_hospitalAddress].doctorInHospital.current();\r\n    }\r\n\r\n    function retrieveHospitalSpecificCountOfPatients(address _hospitalAddress)\r\n        external\r\n        view\r\n        returns (uint256 patientCountInHospital)\r\n    {\r\n        return hospitalDatabase[_hospitalAddress].patientInHospital.current();\r\n    }\r\n\r\n    function getHospitalData(address addressOfUser)\r\n        public\r\n        view\r\n        returns (\r\n            string memory _nameAdmin,\r\n            string memory hospitalDetails,\r\n            address walletAddress\r\n        )\r\n    {\r\n        return (\r\n            hospitalDatabase[addressOfUser].name,\r\n            hospitalDatabase[addressOfUser].hospitalDetails,\r\n            hospitalDatabase[addressOfUser].walletAddress\r\n        );\r\n    }\r\n\r\n    // Grant Role VERIFIED_PATIENT To Patient\r\n    function grantRoleVerifiedPatient(\r\n        address _addressOfAdmin,\r\n        address _addressOfPatient\r\n    ) public returns (bool success) {\r\n        require(\r\n            hasRole(HOSPITAL_ADMIN, _addressOfAdmin) ||\r\n                hasRole(VERIFIED_DOCTOR, _addressOfAdmin)\r\n        );\r\n        require(hasRole(PATIENT, _addressOfPatient));\r\n        grantRole(VERIFIED_PATIENT, _addressOfPatient);\r\n        return true;\r\n    }\r\n\r\n    // Grant Role VERIFIED_DOCTOR to Doctor\r\n    function grantRoleVerifiedDoctor(\r\n        address _addressOfAdmin,\r\n        address _addressOfDoctor\r\n    ) public returns (bool success) {\r\n        require(hasRole(HOSPITAL_ADMIN, _addressOfAdmin));\r\n        require(hasRole(DOCTOR, _addressOfDoctor));\r\n        grantRole(VERIFIED_DOCTOR, _addressOfDoctor);\r\n        return true;\r\n    }\r\n}\r\n",
  "sourcePath": "C:\\Users\\reube\\Documents\\blockchain_in_healthcare\\contracts\\MainContract.sol",
  "compiler": {
    "name": "solc",
    "version": "0.8.0+commit.c7dfd78e.Emscripten.clang"
  },
  "schemaVersion": "3.4.4",
  "updatedAt": "2022-01-07T17:40:26.352Z",
  "networkType": "ethereum",
  "devdoc": {
    "kind": "dev",
    "methods": {
      "getRoleAdmin(bytes32)": {
        "details": "Returns the admin role that controls `role`. See {grantRole} and {revokeRole}. To change a role's admin, use {_setRoleAdmin}."
      },
      "grantRole(bytes32,address)": {
        "details": "Grants `role` to `account`. If `account` had not been already granted `role`, emits a {RoleGranted} event. Requirements: - the caller must have ``role``'s admin role."
      },
      "hasRole(bytes32,address)": {
        "details": "Returns `true` if `account` has been granted `role`."
      },
      "renounceRole(bytes32,address)": {
        "details": "Revokes `role` from the calling account. Roles are often managed via {grantRole} and {revokeRole}: this function's purpose is to provide a mechanism for accounts to lose their privileges if they are compromised (such as when a trusted device is misplaced). If the calling account had been granted `role`, emits a {RoleRevoked} event. Requirements: - the caller must be `account`."
      },
      "revokeRole(bytes32,address)": {
        "details": "Revokes `role` from `account`. If `account` had been granted `role`, emits a {RoleRevoked} event. Requirements: - the caller must have ``role``'s admin role."
      },
      "supportsInterface(bytes4)": {
        "details": "See {IERC165-supportsInterface}."
      }
    },
    "version": 1
  },
  "userdoc": {
    "kind": "user",
    "methods": {},
    "version": 1
  }
}