{
  "contractName": "MainContract",
  "abi": [
    {
      "inputs": [],
      "stateMutability": "nonpayable",
      "type": "constructor"
    },
    {
      "anonymous": false,
      "inputs": [
        {
          "indexed": false,
          "internalType": "string",
          "name": "name",
          "type": "string"
        },
        {
          "indexed": false,
          "internalType": "uint256",
          "name": "empIdIndex",
          "type": "uint256"
        }
      ],
      "name": "LogDeleteDoctor",
      "type": "event"
    },
    {
      "anonymous": false,
      "inputs": [
        {
          "indexed": false,
          "internalType": "string",
          "name": "name",
          "type": "string"
        },
        {
          "indexed": false,
          "internalType": "uint256",
          "name": "empIdIndex",
          "type": "uint256"
        }
      ],
      "name": "LogDeleteHospital",
      "type": "event"
    },
    {
      "anonymous": false,
      "inputs": [
        {
          "indexed": false,
          "internalType": "string",
          "name": "name",
          "type": "string"
        },
        {
          "indexed": false,
          "internalType": "string",
          "name": "_hospitalDetails",
          "type": "string"
        },
        {
          "indexed": false,
          "internalType": "address",
          "name": "walletAddress",
          "type": "address"
        }
      ],
      "name": "LogHospital",
      "type": "event"
    },
    {
      "anonymous": false,
      "inputs": [
        {
          "indexed": false,
          "internalType": "string",
          "name": "name",
          "type": "string"
        },
        {
          "indexed": false,
          "internalType": "string",
          "name": "personalDetails",
          "type": "string"
        },
        {
          "indexed": false,
          "internalType": "address",
          "name": "owner",
          "type": "address"
        }
      ],
      "name": "LogPharmacy",
      "type": "event"
    },
    {
      "anonymous": false,
      "inputs": [
        {
          "indexed": false,
          "internalType": "string",
          "name": "name",
          "type": "string"
        },
        {
          "indexed": false,
          "internalType": "string",
          "name": "personalDetails",
          "type": "string"
        },
        {
          "indexed": false,
          "internalType": "address",
          "name": "owner",
          "type": "address"
        }
      ],
      "name": "LogStoreDoctor",
      "type": "event"
    },
    {
      "anonymous": false,
      "inputs": [
        {
          "indexed": false,
          "internalType": "string",
          "name": "name",
          "type": "string"
        },
        {
          "indexed": false,
          "internalType": "address",
          "name": "hospitalAddress",
          "type": "address"
        },
        {
          "indexed": false,
          "internalType": "string",
          "name": "_personalDetails",
          "type": "string"
        },
        {
          "indexed": false,
          "internalType": "address",
          "name": "owner",
          "type": "address"
        }
      ],
      "name": "LogStorePatient",
      "type": "event"
    },
    {
      "anonymous": false,
      "inputs": [
        {
          "indexed": false,
          "internalType": "string",
          "name": "name",
          "type": "string"
        },
        {
          "indexed": false,
          "internalType": "string",
          "name": "personalDetails",
          "type": "string"
        }
      ],
      "name": "LogUpdateDoctor",
      "type": "event"
    },
    {
      "anonymous": false,
      "inputs": [
        {
          "indexed": false,
          "internalType": "string",
          "name": "name",
          "type": "string"
        },
        {
          "indexed": false,
          "internalType": "string",
          "name": "dateOfBirth",
          "type": "string"
        }
      ],
      "name": "LogUpdateHospital",
      "type": "event"
    },
    {
      "anonymous": false,
      "inputs": [
        {
          "indexed": false,
          "internalType": "string",
          "name": "name",
          "type": "string"
        },
        {
          "indexed": false,
          "internalType": "string",
          "name": "_personalDetails",
          "type": "string"
        }
      ],
      "name": "LogUpdatePatientPersonalDetails",
      "type": "event"
    },
    {
      "anonymous": false,
      "inputs": [
        {
          "indexed": true,
          "internalType": "bytes32",
          "name": "role",
          "type": "bytes32"
        },
        {
          "indexed": true,
          "internalType": "bytes32",
          "name": "previousAdminRole",
          "type": "bytes32"
        },
        {
          "indexed": true,
          "internalType": "bytes32",
          "name": "newAdminRole",
          "type": "bytes32"
        }
      ],
      "name": "RoleAdminChanged",
      "type": "event"
    },
    {
      "anonymous": false,
      "inputs": [
        {
          "indexed": true,
          "internalType": "bytes32",
          "name": "role",
          "type": "bytes32"
        },
        {
          "indexed": true,
          "internalType": "address",
          "name": "account",
          "type": "address"
        },
        {
          "indexed": true,
          "internalType": "address",
          "name": "sender",
          "type": "address"
        }
      ],
      "name": "RoleGranted",
      "type": "event"
    },
    {
      "anonymous": false,
      "inputs": [
        {
          "indexed": true,
          "internalType": "bytes32",
          "name": "role",
          "type": "bytes32"
        },
        {
          "indexed": true,
          "internalType": "address",
          "name": "account",
          "type": "address"
        },
        {
          "indexed": true,
          "internalType": "address",
          "name": "sender",
          "type": "address"
        }
      ],
      "name": "RoleRevoked",
      "type": "event"
    },
    {
      "inputs": [],
      "name": "DEFAULT_ADMIN_ROLE",
      "outputs": [
        {
          "internalType": "bytes32",
          "name": "",
          "type": "bytes32"
        }
      ],
      "stateMutability": "view",
      "type": "function",
      "constant": true
    },
    {
      "inputs": [
        {
          "internalType": "bytes32",
          "name": "role",
          "type": "bytes32"
        }
      ],
      "name": "getRoleAdmin",
      "outputs": [
        {
          "internalType": "bytes32",
          "name": "",
          "type": "bytes32"
        }
      ],
      "stateMutability": "view",
      "type": "function",
      "constant": true
    },
    {
      "inputs": [
        {
          "internalType": "bytes32",
          "name": "role",
          "type": "bytes32"
        },
        {
          "internalType": "address",
          "name": "account",
          "type": "address"
        }
      ],
      "name": "grantRole",
      "outputs": [],
      "stateMutability": "nonpayable",
      "type": "function"
    },
    {
      "inputs": [
        {
          "internalType": "bytes32",
          "name": "role",
          "type": "bytes32"
        },
        {
          "internalType": "address",
          "name": "account",
          "type": "address"
        }
      ],
      "name": "hasRole",
      "outputs": [
        {
          "internalType": "bool",
          "name": "",
          "type": "bool"
        }
      ],
      "stateMutability": "view",
      "type": "function",
      "constant": true
    },
    {
      "inputs": [
        {
          "internalType": "bytes32",
          "name": "role",
          "type": "bytes32"
        },
        {
          "internalType": "address",
          "name": "account",
          "type": "address"
        }
      ],
      "name": "renounceRole",
      "outputs": [],
      "stateMutability": "nonpayable",
      "type": "function"
    },
    {
      "inputs": [
        {
          "internalType": "bytes32",
          "name": "role",
          "type": "bytes32"
        },
        {
          "internalType": "address",
          "name": "account",
          "type": "address"
        }
      ],
      "name": "revokeRole",
      "outputs": [],
      "stateMutability": "nonpayable",
      "type": "function"
    },
    {
      "inputs": [
        {
          "internalType": "bytes4",
          "name": "interfaceId",
          "type": "bytes4"
        }
      ],
      "name": "supportsInterface",
      "outputs": [
        {
          "internalType": "bool",
          "name": "",
          "type": "bool"
        }
      ],
      "stateMutability": "view",
      "type": "function",
      "constant": true
    },
    {
      "inputs": [
        {
          "internalType": "string",
          "name": "_name",
          "type": "string"
        },
        {
          "internalType": "string",
          "name": "_personalDetails",
          "type": "string"
        },
        {
          "internalType": "address",
          "name": "_hospitalAddress",
          "type": "address"
        },
        {
          "internalType": "address",
          "name": "_walletAddress",
          "type": "address"
        }
      ],
      "name": "storePatient",
      "outputs": [
        {
          "internalType": "bool",
          "name": "status",
          "type": "bool"
        }
      ],
      "stateMutability": "nonpayable",
      "type": "function"
    },
    {
      "inputs": [
        {
          "internalType": "string",
          "name": "_personalDetails",
          "type": "string"
        },
        {
          "internalType": "address",
          "name": "_walletAddress",
          "type": "address"
        }
      ],
      "name": "updatePatientPersonalDetailHash",
      "outputs": [
        {
          "internalType": "bool",
          "name": "status",
          "type": "bool"
        }
      ],
      "stateMutability": "nonpayable",
      "type": "function"
    },
    {
      "inputs": [
        {
          "internalType": "string",
          "name": "newPatientPrescriptionHashes",
          "type": "string"
        },
        {
          "internalType": "address",
          "name": "_walletAddress",
          "type": "address"
        }
      ],
      "name": "updatePatientPrescriptionHash",
      "outputs": [
        {
          "internalType": "bool",
          "name": "status",
          "type": "bool"
        }
      ],
      "stateMutability": "nonpayable",
      "type": "function"
    },
    {
      "inputs": [
        {
          "internalType": "address",
          "name": "_previousHospitalAddress",
          "type": "address"
        },
        {
          "internalType": "address",
          "name": "_newHospitalAddress",
          "type": "address"
        },
        {
          "internalType": "address",
          "name": "_walletAddress",
          "type": "address"
        }
      ],
      "name": "changeHospitalForPatient",
      "outputs": [
        {
          "internalType": "bool",
          "name": "status",
          "type": "bool"
        }
      ],
      "stateMutability": "nonpayable",
      "type": "function"
    },
    {
      "inputs": [],
      "name": "retrievePatientCount",
      "outputs": [
        {
          "internalType": "uint256",
          "name": "patientCount",
          "type": "uint256"
        }
      ],
      "stateMutability": "view",
      "type": "function",
      "constant": true
    },
    {
      "inputs": [
        {
          "internalType": "address",
          "name": "_walletAddress",
          "type": "address"
        }
      ],
      "name": "retrievePatientData",
      "outputs": [
        {
          "internalType": "string",
          "name": "name",
          "type": "string"
        },
        {
          "internalType": "string",
          "name": "personalDetails",
          "type": "string"
        },
        {
          "internalType": "address",
          "name": "hospitalAddress",
          "type": "address"
        },
        {
          "internalType": "address",
          "name": "walletAddress",
          "type": "address"
        }
      ],
      "stateMutability": "view",
      "type": "function",
      "constant": true
    },
    {
      "inputs": [
        {
          "internalType": "address",
          "name": "_walletAddress",
          "type": "address"
        },
        {
          "internalType": "string",
          "name": "_personalDetails",
          "type": "string"
        }
      ],
      "name": "updatePatientPersonalData",
      "outputs": [
        {
          "internalType": "bool",
          "name": "success",
          "type": "bool"
        }
      ],
      "stateMutability": "nonpayable",
      "type": "function"
    },
    {
      "inputs": [
        {
          "internalType": "address",
          "name": "_walletAddress",
          "type": "address"
        },
        {
          "internalType": "string",
          "name": "medicalRecordHash",
          "type": "string"
        }
      ],
      "name": "updatePatientMedicalRecords",
      "outputs": [
        {
          "internalType": "bool",
          "name": "status",
          "type": "bool"
        }
      ],
      "stateMutability": "nonpayable",
      "type": "function"
    },
    {
      "inputs": [
        {
          "internalType": "address",
          "name": "_walletAddress",
          "type": "address"
        },
        {
          "internalType": "string",
          "name": "prescriptionHash",
          "type": "string"
        }
      ],
      "name": "updatePatientPrescription",
      "outputs": [
        {
          "internalType": "string",
          "name": "status",
          "type": "string"
        }
      ],
      "stateMutability": "nonpayable",
      "type": "function"
    },
    {
      "inputs": [
        {
          "internalType": "address",
          "name": "_patientAddress",
          "type": "address"
        }
      ],
      "name": "getNewPrescription",
      "outputs": [
        {
          "internalType": "string",
          "name": "status",
          "type": "string"
        }
      ],
      "stateMutability": "view",
      "type": "function",
      "constant": true
    },
    {
      "inputs": [
        {
          "internalType": "address",
          "name": "_patientAddress",
          "type": "address"
        }
      ],
      "name": "getMultiplePrescription",
      "outputs": [
        {
          "internalType": "string[]",
          "name": "status",
          "type": "string[]"
        }
      ],
      "stateMutability": "view",
      "type": "function",
      "constant": true
    },
    {
      "inputs": [
        {
          "internalType": "address",
          "name": "_patientAddress",
          "type": "address"
        }
      ],
      "name": "getNewRecords",
      "outputs": [
        {
          "internalType": "string",
          "name": "status",
          "type": "string"
        }
      ],
      "stateMutability": "view",
      "type": "function",
      "constant": true
    },
    {
      "inputs": [
        {
          "internalType": "address",
          "name": "_patientAddress",
          "type": "address"
        }
      ],
      "name": "getMultipleRecords",
      "outputs": [
        {
          "internalType": "string[]",
          "name": "status",
          "type": "string[]"
        }
      ],
      "stateMutability": "view",
      "type": "function",
      "constant": true
    },
    {
      "inputs": [
        {
          "internalType": "string",
          "name": "name",
          "type": "string"
        },
        {
          "internalType": "string",
          "name": "_personalDetails",
          "type": "string"
        },
        {
          "internalType": "address",
          "name": "_hospitalAddress",
          "type": "address"
        },
        {
          "internalType": "address",
          "name": "_walletAddress",
          "type": "address"
        }
      ],
      "name": "storeDoctor",
      "outputs": [
        {
          "internalType": "bool",
          "name": "status",
          "type": "bool"
        }
      ],
      "stateMutability": "nonpayable",
      "type": "function"
    },
    {
      "inputs": [
        {
          "internalType": "string",
          "name": "_personalDetails",
          "type": "string"
        },
        {
          "internalType": "address",
          "name": "_walletAddress",
          "type": "address"
        }
      ],
      "name": "updateDoctorPersonalDetailHash",
      "outputs": [
        {
          "internalType": "bool",
          "name": "status",
          "type": "bool"
        }
      ],
      "stateMutability": "nonpayable",
      "type": "function"
    },
    {
      "inputs": [
        {
          "internalType": "address",
          "name": "_previousHospitalAddress",
          "type": "address"
        },
        {
          "internalType": "address",
          "name": "_newHospitalAddress",
          "type": "address"
        },
        {
          "internalType": "address",
          "name": "_walletAddress",
          "type": "address"
        }
      ],
      "name": "changeHospitalForDoctor",
      "outputs": [
        {
          "internalType": "bool",
          "name": "status",
          "type": "bool"
        }
      ],
      "stateMutability": "nonpayable",
      "type": "function"
    },
    {
      "inputs": [],
      "name": "retrieveDoctorCount",
      "outputs": [
        {
          "internalType": "uint256",
          "name": "doctorCount",
          "type": "uint256"
        }
      ],
      "stateMutability": "view",
      "type": "function",
      "constant": true
    },
    {
      "inputs": [
        {
          "internalType": "address",
          "name": "_walletAddress",
          "type": "address"
        }
      ],
      "name": "retrieveDoctorData",
      "outputs": [
        {
          "internalType": "string",
          "name": "name",
          "type": "string"
        },
        {
          "internalType": "string",
          "name": "personalDetails",
          "type": "string"
        },
        {
          "internalType": "address",
          "name": "hospitalAddress",
          "type": "address"
        }
      ],
      "stateMutability": "view",
      "type": "function",
      "constant": true
    },
    {
      "inputs": [
        {
          "internalType": "string",
          "name": "name",
          "type": "string"
        },
        {
          "internalType": "string",
          "name": "_personalDetails",
          "type": "string"
        },
        {
          "internalType": "address",
          "name": "_walletAddress",
          "type": "address"
        }
      ],
      "name": "storePharmacy",
      "outputs": [
        {
          "internalType": "bool",
          "name": "status",
          "type": "bool"
        }
      ],
      "stateMutability": "nonpayable",
      "type": "function"
    },
    {
      "inputs": [
        {
          "internalType": "string",
          "name": "_personalDetails",
          "type": "string"
        },
        {
          "internalType": "address",
          "name": "_walletAddress",
          "type": "address"
        }
      ],
      "name": "updatePharmacyPersonalDetailHash",
      "outputs": [
        {
          "internalType": "bool",
          "name": "status",
          "type": "bool"
        }
      ],
      "stateMutability": "nonpayable",
      "type": "function"
    },
    {
      "inputs": [],
      "name": "retrievePharmacyCount",
      "outputs": [
        {
          "internalType": "uint256",
          "name": "pharmacyCount",
          "type": "uint256"
        }
      ],
      "stateMutability": "view",
      "type": "function",
      "constant": true
    },
    {
      "inputs": [
        {
          "internalType": "address",
          "name": "_walletAddress",
          "type": "address"
        }
      ],
      "name": "getPharmacyData",
      "outputs": [
        {
          "internalType": "string",
          "name": "name",
          "type": "string"
        },
        {
          "internalType": "string",
          "name": "pharmacyDetails",
          "type": "string"
        },
        {
          "internalType": "address",
          "name": "walletAddress",
          "type": "address"
        }
      ],
      "stateMutability": "view",
      "type": "function",
      "constant": true
    },
    {
      "inputs": [
        {
          "internalType": "string",
          "name": "_name",
          "type": "string"
        },
        {
          "internalType": "string",
          "name": "_hospitalDetails",
          "type": "string"
        },
        {
          "internalType": "address",
          "name": "_walletAddress",
          "type": "address"
        }
      ],
      "name": "storeHospital",
      "outputs": [
        {
          "internalType": "bool",
          "name": "status",
          "type": "bool"
        }
      ],
      "stateMutability": "nonpayable",
      "type": "function"
    },
    {
      "inputs": [
        {
          "internalType": "string",
          "name": "_personalDetails",
          "type": "string"
        },
        {
          "internalType": "address",
          "name": "_walletAddress",
          "type": "address"
        }
      ],
      "name": "updateHospitalPersonalDetailHash",
      "outputs": [
        {
          "internalType": "bool",
          "name": "status",
          "type": "bool"
        }
      ],
      "stateMutability": "nonpayable",
      "type": "function"
    },
    {
      "inputs": [],
      "name": "retrieveHospitalCount",
      "outputs": [
        {
          "internalType": "uint256",
          "name": "hospitalCount",
          "type": "uint256"
        }
      ],
      "stateMutability": "view",
      "type": "function",
      "constant": true
    },
    {
      "inputs": [
        {
          "internalType": "address",
          "name": "_hospitalAddress",
          "type": "address"
        }
      ],
      "name": "retrieveHospitalSpecificCountOfDoctors",
      "outputs": [
        {
          "internalType": "uint256",
          "name": "doctorCountInHospital",
          "type": "uint256"
        }
      ],
      "stateMutability": "view",
      "type": "function",
      "constant": true
    },
    {
      "inputs": [
        {
          "internalType": "address",
          "name": "_hospitalAddress",
          "type": "address"
        }
      ],
      "name": "retrieveHospitalSpecificCountOfPatients",
      "outputs": [
        {
          "internalType": "uint256",
          "name": "patientCountInHospital",
          "type": "uint256"
        }
      ],
      "stateMutability": "view",
      "type": "function",
      "constant": true
    },
    {
      "inputs": [
        {
          "internalType": "address",
          "name": "addressOfUser",
          "type": "address"
        }
      ],
      "name": "getHospitalData",
      "outputs": [
        {
          "internalType": "string",
          "name": "_nameAdmin",
          "type": "string"
        },
        {
          "internalType": "string",
          "name": "hospitalDetails",
          "type": "string"
        },
        {
          "internalType": "address",
          "name": "walletAddress",
          "type": "address"
        }
      ],
      "stateMutability": "view",
      "type": "function",
      "constant": true
    },
    {
      "inputs": [
        {
          "internalType": "address",
          "name": "_addressOfAdmin",
          "type": "address"
        },
        {
          "internalType": "address",
          "name": "_addressOfPatient",
          "type": "address"
        }
      ],
      "name": "grantRoleVerifiedPatient",
      "outputs": [
        {
          "internalType": "bool",
          "name": "success",
          "type": "bool"
        }
      ],
      "stateMutability": "nonpayable",
      "type": "function"
    },
    {
      "inputs": [
        {
          "internalType": "address",
          "name": "_addressOfAdmin",
          "type": "address"
        },
        {
          "internalType": "address",
          "name": "_addressOfDoctor",
          "type": "address"
        }
      ],
      "name": "grantRoleVerifiedDoctor",
      "outputs": [
        {
          "internalType": "bool",
          "name": "success",
          "type": "bool"
        }
      ],
      "stateMutability": "nonpayable",
      "type": "function"
    }
  ],
  "bytecode": "0x60806040523480156200001157600080fd5b506200002d6000805160206200278783398151915280620000b6565b620000687fc9c8e67a61d2e7371df46522b44051b955c16bf4b713ef44e1373b25bfcd80b260008051602062002787833981519152620000b6565b620000a37fe5786ee6f50ab1a5567cb3f3f6840a2f4ddbafdf4a35cb2c52d5b732b1e84a3260008051602062002787833981519152620000b6565b620000b06000336200010b565b620001e7565b6000620000c3836200011b565b600084815260208190526040808220600101859055519192508391839186917fbd79b86ffe0ab8e8776151514217cd7cacd52c909f66475c3af44e129f0b00ff9190a4505050565b62000117828262000130565b5050565b60009081526020819052604090206001015490565b6200013c8282620001ba565b62000117576000828152602081815260408083206001600160a01b03851684529091529020805460ff1916600117905562000176620001e3565b6001600160a01b0316816001600160a01b0316837f2f8788117e7eff1d82e926ec794901d17c78024a50270940304540a733656f0d60405160405180910390a45050565b6000918252602082815260408084206001600160a01b0393909316845291905290205460ff1690565b3390565b61259080620001f76000396000f3fe608060405234801561001057600080fd5b50600436106102275760003560e01c80638b55befc11610130578063cdca8f7c116100b8578063e8300b1d1161007c578063e8300b1d146104c9578063edae7fb5146104dc578063f98d5d25146104e4578063fcd4014b146104ec578063fffaff42146104ff57610227565b8063cdca8f7c1461046a578063ce65e5e31461047d578063d547741f14610490578063e21eadcc146104a3578063e37e9696146104b657610227565b8063a9909db9116100ff578063a9909db91461040b578063ac2918671461041e578063b9a47e9014610431578063c12878c314610444578063c99ead641461045757610227565b80638b55befc146103ca57806391d14854146103dd578063a217fddf146103f0578063a84ceab7146103f857610227565b8063389e3894116101b35780635bf9c0e3116101825780635bf9c0e3146103695780635d9c45cd1461037c57806373e830b41461038f5780637799c0491461039757806377aee292146103b757610227565b8063389e38941461030e5780633f9c10901461033057806345118d8e146103435780634edf897f1461035657610227565b8063224ccd0f116101fa578063224ccd0f146102a0578063248a9ca3146102c0578063259a49a5146102d35780632f2ff15d146102e657806336568abe146102fb57610227565b806301ffc9a71461022c5780630a086b15146102555780630b6003451461026a57806316d8b45b1461027d575b600080fd5b61023f61023a366004611ecf565b610512565b60405161024c919061220e565b60405180910390f35b61025d61053f565b60405161024c9190612219565b61023f610278366004611f3a565b610550565b61029061028b366004611dbb565b610627565b60405161024c9493929190612273565b6102b36102ae366004611dbb565b610783565b60405161024c91906121ae565b61025d6102ce366004611e95565b610875565b61023f6102e1366004611ef7565b61088a565b6102f96102f4366004611ead565b6108e4565b005b6102f9610309366004611ead565b61090d565b61032161031c366004611dbb565b61095c565b60405161024c93929190612235565b61023f61033e366004611e49565b610ab4565b61023f610351366004611e07565b610b40565b61023f610364366004611fa2565b610bd4565b61023f610377366004611ef7565b610dc5565b61023f61038a366004611fa2565b610e13565b61025d61101b565b6103aa6103a5366004611dbb565b611027565b60405161024c9190612222565b6102b36103c5366004611dbb565b6110d7565b61025d6103d8366004611dbb565b6111be565b61023f6103eb366004611ead565b6111e2565b61025d61120b565b61023f610406366004611e07565b611210565b61023f610419366004611ef7565b61127d565b6103aa61042c366004611dbb565b611297565b61023f61043f366004611dd5565b6112c1565b61025d610452366004611dbb565b61135f565b61023f610465366004611f3a565b611383565b61023f610478366004611ef7565b611475565b61023f61048b366004611ef7565b6114a1565b6102f961049e366004611ead565b6114cd565b6103216104b1366004611dbb565b6114ec565b61023f6104c4366004611dd5565b61151f565b6103216104d7366004611dbb565b61158d565b61025d6115c7565b61025d6115d3565b61023f6104fa366004611e49565b6115df565b6103aa61050d366004611e49565b611701565b60006001600160e01b03198216637965db0b60e01b148061053757506105378261188f565b90505b919050565b600061054b60046118a8565b905090565b600061056a60008051602061253b833981519152836118ac565b6001600160a01b0382166000908152600860209081526040909120855161059392870190611c0f565b506001600160a01b03821660008181526008602090815260409091206002810180546001600160a01b03191690931790925584516105d79260010191860190611c0f565b506105e260036118b6565b7ff1ed66ce17e814997c731a53029e891da3b3665c7d89fd2a257363990098c1be84848460405161061593929190612235565b60405180910390a15060019392505050565b6001600160a01b0380821660009081526005602052604081206002810154815460609485949384939092600184019291909116908890849061066890612493565b80601f016020809104026020016040519081016040528092919081815260200182805461069490612493565b80156106e15780601f106106b6576101008083540402835291602001916106e1565b820191906000526020600020905b8154815290600101906020018083116106c457829003601f168201915b505050505093508280546106f490612493565b80601f016020809104026020016040519081016040528092919081815260200182805461072090612493565b801561076d5780601f106107425761010080835404028352916020019161076d565b820191906000526020600020905b81548152906001019060200180831161075057829003601f168201915b5050505050925093509350935093509193509193565b6001600160a01b0381166000908152600560209081526040808320600601805482518185028101850190935280835260609492939192909184015b8282101561086a5783829060005260206000200180546107dd90612493565b80601f016020809104026020016040519081016040528092919081815260200182805461080990612493565b80156108565780601f1061082b57610100808354040283529160200191610856565b820191906000526020600020905b81548152906001019060200180831161083957829003601f168201915b5050505050815260200190600101906107be565b505050509050919050565b60009081526020819052604090206001015490565b60006108a46000805160206124fb833981519152836111e2565b156108da576001600160a01b038216600090815260056020908152604090912084516108d892600790920191860190611c0f565b505b5060015b92915050565b6108ed82610875565b6108fe816108f96118bf565b6118c3565b6109088383611927565b505050565b6109156118bf565b6001600160a01b0316816001600160a01b03161461094e5760405162461bcd60e51b8152600401610945906123c6565b60405180910390fd5b61095882826119ac565b5050565b6001600160a01b038082166000908152600660205260408120600481015460018201805460609586959492936002909301921690839061099b90612493565b80601f01602080910402602001604051908101604052809291908181526020018280546109c790612493565b8015610a145780601f106109e957610100808354040283529160200191610a14565b820191906000526020600020905b8154815290600101906020018083116109f757829003601f168201915b50505050509250818054610a2790612493565b80601f0160208091040260200160405190810160405280929190818152602001828054610a5390612493565b8015610aa05780601f10610a7557610100808354040283529160200191610aa0565b820191906000526020600020905b815481529060010190602001808311610a8357829003601f168201915b505050505091509250925092509193909250565b6001600160a01b038216600090815260056020908152604082208351610ae292600190920191850190611c0f565b506001600160a01b0383166000908152600560205260409081902090517f9a0b4af72c5a4121f816c4ea663db0d61662cb63fe54ee51ef4bf50d4911bae591610b2f916001820190612307565b60405180910390a150600192915050565b6000610b5a6000805160206124fb833981519152836111e2565b15610bca576001600160a01b0384166000908152600860205260409020610b8390600301611a2f565b6001600160a01b03828116600090815260056020908152604080832060020180546001600160a01b03191694881694851790559282526008905220610bca906003016118b6565b5060019392505050565b6000610bee60008051602061251b833981519152836111e2565b15610c9557610c0b60008051602061251b833981519152836118ac565b6001600160a01b03821660009081526006602090815260409091208651610c3a92600190920191880190611c0f565b506001600160a01b03828116600081815260066020908152604090912080546001600160a01b03199081169093178155600481018054909316938716939093179091558551610c8f9260020191870190611c0f565b50610d60565b610cad60008051602061251b833981519152836118ac565b6001600160a01b03821660009081526006602090815260409091208651610cdc92600190920191880190611c0f565b506001600160a01b03828116600081815260066020908152604090912080546001600160a01b03199081169093178155600481018054909316938716939093179091558551610d319260020191870190611c0f565b506001600160a01b0383166000908152600860205260409020610d56906004016118b6565b610d6060026118b6565b6001600160a01b0382166000908152600660205260409081902090517f094f9e983e464406960b58ac311309ef38583f6e33af8d47f93b0c048e60c7cf91610db2916001820191600201908690612335565b60405180910390a1506001949350505050565b6000610ddf60008051602061253b833981519152836111e2565b156108da576001600160a01b038216600090815260056020908152604090912084516108d892600190920191860190611c0f565b6000610e3f7fe5786ee6f50ab1a5567cb3f3f6840a2f4ddbafdf4a35cb2c52d5b732b1e84a32836111e2565b15610edf576001600160a01b03821660009081526005602090815260409091208651610e6d92880190611c0f565b506001600160a01b03821660009081526005602090815260409091208551610e9d92600190920191870190611c0f565b506001600160a01b0380831660008181526005602052604090206002810180549387166001600160a01b03199485161790556003018054909216179055610fc5565b610f097fe5786ee6f50ab1a5567cb3f3f6840a2f4ddbafdf4a35cb2c52d5b732b1e84a32836118ac565b6001600160a01b03821660009081526005602090815260409091208651610f3292880190611c0f565b506001600160a01b03821660009081526005602090815260409091208551610f6292600190920191870190611c0f565b506001600160a01b038083166000818152600560209081526040808320600281018054968a166001600160a01b03199788168117909155600391820180549097169095179095559282526008905220610fbb91016118b6565b610fc560016118b6565b6001600160a01b0380831660009081526005602052604090819020600281015491517f3b8a83fdecb2b3e9bf160eeb2f3112ba4bdad2159cb6783bc884ab9712bb58b493610db2931690600183019087906122bd565b600061054b60016118a8565b6001600160a01b03811660009081526005602081905260409091200180546060919061105290612493565b80601f016020809104026020016040519081016040528092919081815260200182805461107e90612493565b80156110cb5780601f106110a0576101008083540402835291602001916110cb565b820191906000526020600020905b8154815290600101906020018083116110ae57829003601f168201915b50505050509050919050565b6001600160a01b0381166000908152600560209081526040808320600401805482518185028101850190935280835260609492939192909184015b8282101561086a57838290600052602060002001805461113190612493565b80601f016020809104026020016040519081016040528092919081815260200182805461115d90612493565b80156111aa5780601f1061117f576101008083540402835291602001916111aa565b820191906000526020600020905b81548152906001019060200180831161118d57829003601f168201915b505050505081526020019060010190611112565b6001600160a01b0381166000908152600860205260408120610537906003016118a8565b6000918252602082815260408084206001600160a01b0393909316845291905290205460ff1690565b600081565b6001600160a01b038316600090815260086020526040812061123490600401611a2f565b6001600160a01b038281166000908152600660209081526040808320600490810180546001600160a01b031916958916958617905593835260089091529020610bca91016118b6565b6000610ddf6000805160206124fb833981519152836111e2565b6001600160a01b038116600090815260056020526040902060070180546060919061105290612493565b60006112db60008051602061253b833981519152846111e2565b8061130b575061130b7faa5dabedfa16172c67f74bf2293d462402d380790ac2275169499fcded0d7805846111e2565b61131457600080fd5b61133e7fe5786ee6f50ab1a5567cb3f3f6840a2f4ddbafdf4a35cb2c52d5b732b1e84a32836111e2565b61134757600080fd5b6108da6000805160206124fb833981519152836108e4565b6001600160a01b0381166000908152600860205260408120610537906004016118a8565b60006113af7f6d960d3aada907633a701143a0c8a0657b9ed1e77b6d2d8b56e5d8813982e10c836118ac565b6001600160a01b038216600090815260076020908152604090912085516113d892870190611c0f565b506001600160a01b03821660008181526007602090815260409091206002810180546001600160a01b031916909317909255845161141c9260010191860190611c0f565b5061142760046118b6565b6001600160a01b0382166000908152600760205260409081902090517f2fc29db602a5f7179d31b6051279d19e64007dc3eaff8031f3198e0faa156058916106159160018201908690612335565b6000610ddf7f6d960d3aada907633a701143a0c8a0657b9ed1e77b6d2d8b56e5d8813982e10c836111e2565b6000610ddf7faa5dabedfa16172c67f74bf2293d462402d380790ac2275169499fcded0d7805836111e2565b6114d682610875565b6114e2816108f96118bf565b61090883836119ac565b6001600160a01b038116600090815260076020526040812080546060928392909160018201908690839061099b90612493565b600061153960008051602061253b833981519152846111e2565b61154257600080fd5b61155a60008051602061251b833981519152836111e2565b61156357600080fd5b6108da7faa5dabedfa16172c67f74bf2293d462402d380790ac2275169499fcded0d7805836108e4565b6001600160a01b03808216600090815260086020526040812060028101548154606094859493926001840192911690839061099b90612493565b600061054b60026118a8565b600061054b60036118a8565b60006040516020016115f090612136565b60408051601f1981840301815282825280516020918201206001600160a01b038716600090815260058084529390209093611630939190910191016120c7565b604051602081830303815290604052805190602001201415611685576001600160a01b0383166000908152600560208181526040909220845161167b93919092019190850190611c0f565b50600190506108de565b6001600160a01b038316600090815260056020818152604083206004810180546001810182559085529190932092909101805492909101916116c690612493565b6116d1929190611c93565b506001600160a01b0383166000908152600560208181526040909220845161167b93919092019190850190611c0f565b606060405160200161171290612136565b60408051601f1981840301815282825280516020918201206001600160a01b0387166000908152600583529290922091926117519260070191016120c7565b6040516020818303038152906040528051906020012014156117d7576001600160a01b0383166000908152600560209081526040909120835161179c92600790920191850190611c0f565b505060408051808201909152601e81527f454e5445524544204f4e434520505245534352495054494f4e204f4e4c59000060208201526108de565b6001600160a01b038316600090815260056020908152604082206006810180546001810182559084529190922060079092018054929091019161181990612493565b611824929190611c93565b506001600160a01b0383166000908152600560209081526040909120835161185492600790920191850190611c0f565b505060408051808201909152601f81527f454e544552454420545749434520505245534352495054494f4e204f4e4c590060208201526108de565b6001600160e01b031981166301ffc9a760e01b14919050565b5490565b6109588282611927565b80546001019055565b3390565b6118cd82826111e2565b610958576118e5816001600160a01b03166014611a56565b6118f0836020611a56565b604051602001611901929190612139565b60408051601f198184030181529082905262461bcd60e51b825261094591600401612222565b61193182826111e2565b610958576000828152602081815260408083206001600160a01b03851684529091529020805460ff191660011790556119686118bf565b6001600160a01b0316816001600160a01b0316837f2f8788117e7eff1d82e926ec794901d17c78024a50270940304540a733656f0d60405160405180910390a45050565b6119b682826111e2565b15610958576000828152602081815260408083206001600160a01b03851684529091529020805460ff191690556119eb6118bf565b6001600160a01b0316816001600160a01b0316837ff6391f5c32d9c69d2a47ea670b442974b53935d1edc7fd64eb21e047a839171b60405160405180910390a45050565b805480611a4e5760405162461bcd60e51b81526004016109459061238f565b600019019055565b60606000611a6583600261242d565b611a70906002612415565b67ffffffffffffffff811115611a9657634e487b7160e01b600052604160045260246000fd5b6040519080825280601f01601f191660200182016040528015611ac0576020820181803683370190505b509050600360fc1b81600081518110611ae957634e487b7160e01b600052603260045260246000fd5b60200101906001600160f81b031916908160001a905350600f60fb1b81600181518110611b2657634e487b7160e01b600052603260045260246000fd5b60200101906001600160f81b031916908160001a9053506000611b4a84600261242d565b611b55906001612415565b90505b6001811115611be9576f181899199a1a9b1b9c1cb0b131b232b360811b85600f1660108110611b9757634e487b7160e01b600052603260045260246000fd5b1a60f81b828281518110611bbb57634e487b7160e01b600052603260045260246000fd5b60200101906001600160f81b031916908160001a90535060049490941c93611be28161247c565b9050611b58565b508315611c085760405162461bcd60e51b81526004016109459061235a565b9392505050565b828054611c1b90612493565b90600052602060002090601f016020900481019282611c3d5760008555611c83565b82601f10611c5657805160ff1916838001178555611c83565b82800160010185558215611c83579182015b82811115611c83578251825591602001919060010190611c68565b50611c8f929150611d0e565b5090565b828054611c9f90612493565b90600052602060002090601f016020900481019282611cc15760008555611c83565b82601f10611cd25780548555611c83565b82800160010185558215611c8357600052602060002091601f016020900482015b82811115611c83578254825591600101919060010190611cf3565b5b80821115611c8f5760008155600101611d0f565b80356001600160a01b038116811461053a57600080fd5b600082601f830112611d4a578081fd5b813567ffffffffffffffff80821115611d6557611d656124e4565b604051601f8301601f191681016020018281118282101715611d8957611d896124e4565b604052828152848301602001861015611da0578384fd5b82602086016020830137918201602001929092529392505050565b600060208284031215611dcc578081fd5b611c0882611d23565b60008060408385031215611de7578081fd5b611df083611d23565b9150611dfe60208401611d23565b90509250929050565b600080600060608486031215611e1b578081fd5b611e2484611d23565b9250611e3260208501611d23565b9150611e4060408501611d23565b90509250925092565b60008060408385031215611e5b578182fd5b611e6483611d23565b9150602083013567ffffffffffffffff811115611e7f578182fd5b611e8b85828601611d3a565b9150509250929050565b600060208284031215611ea6578081fd5b5035919050565b60008060408385031215611ebf578182fd5b82359150611dfe60208401611d23565b600060208284031215611ee0578081fd5b81356001600160e01b031981168114611c08578182fd5b60008060408385031215611f09578182fd5b823567ffffffffffffffff811115611f1f578283fd5b611f2b85828601611d3a565b925050611dfe60208401611d23565b600080600060608486031215611f4e578283fd5b833567ffffffffffffffff80821115611f65578485fd5b611f7187838801611d3a565b94506020860135915080821115611f86578384fd5b50611f9386828701611d3a565b925050611e4060408501611d23565b60008060008060808587031215611fb7578081fd5b843567ffffffffffffffff80821115611fce578283fd5b611fda88838901611d3a565b95506020870135915080821115611fef578283fd5b50611ffc87828801611d3a565b93505061200b60408601611d23565b915061201960608601611d23565b905092959194509250565b6000815180845261203c81602086016020860161244c565b601f01601f19169290920160200192915050565b6000815461205d81612493565b80855260206001838116801561207a576001811461208e576120bc565b60ff198516888401526040880195506120bc565b866000528260002060005b858110156120b45781548a8201860152908301908401612099565b890184019650505b505050505092915050565b60008083546120d581612493565b600182811680156120ed57600181146120fe5761212a565b60ff1984168752828701945061212a565b8786526020808720875b858110156121215781548a820152908401908201612108565b50505082870194505b50929695505050505050565b90565b60007f416363657373436f6e74726f6c3a206163636f756e74200000000000000000008252835161217181601785016020880161244c565b7001034b99036b4b9b9b4b733903937b6329607d1b60179184019182015283516121a281602884016020880161244c565b01602801949350505050565b6000602080830181845280855180835260408601915060408482028701019250838701855b8281101561220157603f198886030184526121ef858351612024565b945092850192908501906001016121d3565b5092979650505050505050565b901515815260200190565b90815260200190565b600060208252611c086020830184612024565b6000606082526122486060830186612024565b828103602084015261225a8186612024565b91505060018060a01b0383166040830152949350505050565b6000608082526122866080830187612024565b82810360208401526122988187612024565b6001600160a01b03958616604085015293909416606090920191909152509392505050565b6000608082526122d06080830187612050565b6001600160a01b03868116602085015283820360408501526122f28287612050565b92508085166060850152505095945050505050565b60006040825261231a6040830185612050565b828103602084015261232c8185612050565b95945050505050565b6000606082526123486060830186612050565b828103602084015261225a8186612050565b6020808252818101527f537472696e67733a20686578206c656e67746820696e73756666696369656e74604082015260600190565b6020808252601b908201527f436f756e7465723a2064656372656d656e74206f766572666c6f770000000000604082015260600190565b6020808252602f908201527f416363657373436f6e74726f6c3a2063616e206f6e6c792072656e6f756e636560408201526e103937b632b9903337b91039b2b63360891b606082015260800190565b60008219821115612428576124286124ce565b500190565b6000816000190483118215151615612447576124476124ce565b500290565b60005b8381101561246757818101518382015260200161244f565b83811115612476576000848401525b50505050565b60008161248b5761248b6124ce565b506000190190565b6002810460018216806124a757607f821691505b602082108114156124c857634e487b7160e01b600052602260045260246000fd5b50919050565b634e487b7160e01b600052601160045260246000fd5b634e487b7160e01b600052604160045260246000fdfe0e55d2d590eb481461be8bfa869367231c671a31d6401bfeaf2d5cb5787ff252c9c8e67a61d2e7371df46522b44051b955c16bf4b713ef44e1373b25bfcd80b247a8a9b8917c993d90f37744bb40dfb774c4593d1a1660ed38db000e33156502a2646970667358221220b62dd338ca692ae215348f62ed9d25f87db9b3f320ae0a7e48565dce0dfdd0c964736f6c6343000800003347a8a9b8917c993d90f37744bb40dfb774c4593d1a1660ed38db000e33156502",
  "immutableReferences": {},
  "source": "pragma solidity ^0.8.0;\r\n\r\n//SPDX-License-Identifier: MIT\r\nimport \"./access/AccessControlEnumerable.sol\";\r\nimport \"./Roles.sol\";\r\nimport \"./openzeppelin/contracts/utils/Counters.sol\";\r\n\r\ncontract MainContract is AccessControl {\r\n    using Counters for Counters.Counter;\r\n\r\n    struct patientRecord {\r\n        string name;\r\n        string personalDetails;\r\n        address hospitalAddress;\r\n        address walletAddress;\r\n        string[] previousPatientRecordHashes;\r\n        string newMedicalRecordHash;\r\n\r\n        string[] previousPatientPrescriptionHashes;\r\n\r\n        // RHEA:- MAKE FUNCTIONS BELOW FOR THIS FIELD IMPORTANT\r\n        string newPatientPrescriptionHashes;\r\n        \r\n    }\r\n\r\n\r\n    struct doctorRecord {\r\n        \r\n        address walletAddress;\r\n        string name;\r\n        string personalDetails;\r\n        string docSpecialization;\r\n        address hospitalAddress;\r\n        \r\n    }\r\n\r\n    struct pharmacyRecord {\r\n        string name;\r\n        string personalDetails;\r\n        address walletAddress;\r\n    }\r\n\r\n    struct hospitalRecord {\r\n        string name;\r\n        string hospitalDetails;\r\n        address walletAddress;\r\n        Counters.Counter patientInHospital;\r\n        Counters.Counter doctorInHospital;\r\n    }\r\n\r\n    Counters.Counter patientCounter;\r\n    Counters.Counter doctorCounter;\r\n    Counters.Counter hospitalCounter;\r\n    Counters.Counter pharmacyCounter;\r\n\r\n    //: Constructor\r\n    constructor() {\r\n        _setRoleAdmin(HOSPITAL_ADMIN, HOSPITAL_ADMIN);\r\n        _setRoleAdmin(DOCTOR, HOSPITAL_ADMIN);\r\n        _setRoleAdmin(PATIENT, HOSPITAL_ADMIN);\r\n\r\n        // default role of contract deployer\r\n        _setupRole(DEFAULT_ADMIN_ROLE, msg.sender);\r\n    }\r\n\r\n    event LogStorePatient(\r\n        string name,\r\n        address hospitalAddress,\r\n        string _personalDetails,\r\n        address owner\r\n    );\r\n    event LogUpdatePatientPersonalDetails(string name, string _personalDetails);\r\n\r\n    //: PATIENT DATABASE\r\n    mapping(address => patientRecord) patientDatabase;\r\n\r\n\r\n    function storePatient(\r\n        string memory _name,\r\n        string memory _personalDetails,\r\n        address _hospitalAddress,\r\n        address _walletAddress\r\n    ) external returns (bool status) {\r\n        if (hasRole(PATIENT, _walletAddress)) {\r\n            patientDatabase[_walletAddress].name = _name;\r\n            patientDatabase[_walletAddress].personalDetails = _personalDetails;\r\n            patientDatabase[_walletAddress].hospitalAddress = _hospitalAddress;\r\n            patientDatabase[_walletAddress].walletAddress = _walletAddress;\r\n        } else {\r\n            _setupRole(PATIENT, _walletAddress);\r\n            patientDatabase[_walletAddress].name = _name;\r\n            patientDatabase[_walletAddress].personalDetails = _personalDetails;\r\n            patientDatabase[_walletAddress].hospitalAddress = _hospitalAddress;\r\n            patientDatabase[_walletAddress].walletAddress = _walletAddress;\r\n            hospitalDatabase[_hospitalAddress].patientInHospital.increment();\r\n            patientCounter.increment();\r\n        }\r\n\r\n        emit LogStorePatient(\r\n            patientDatabase[_walletAddress].name,\r\n            patientDatabase[_walletAddress].hospitalAddress,\r\n            patientDatabase[_walletAddress].personalDetails,\r\n            _walletAddress\r\n        );\r\n        return true;\r\n    }\r\n\r\n\r\n    // RHEA:- MAKE FUNCTIONS BELOW FOR ALL ENTITIES\r\n    function updatePatientPersonalDetailHash(\r\n        string memory _personalDetails,\r\n        address _walletAddress\r\n    ) external returns (bool status) {\r\n        if (hasRole(VERIFIED_PATIENT, _walletAddress)) {\r\n\r\n            patientDatabase[_walletAddress].personalDetails = _personalDetails;\r\n        \r\n        }\r\n\r\n        return true;\r\n    }\r\n function updatePatientPrescriptionHash(\r\n        string memory newPatientPrescriptionHashes,\r\n        address _walletAddress\r\n    ) external returns (bool status) {\r\n        if (hasRole(VERIFIED_PATIENT, _walletAddress)) {\r\n\r\n            patientDatabase[_walletAddress].newPatientPrescriptionHashes = newPatientPrescriptionHashes;\r\n        \r\n        }\r\n\r\n        return true;\r\n    }\r\n\r\n\r\n    function changeHospitalForPatient(\r\n        address _previousHospitalAddress,\r\n        address _newHospitalAddress,\r\n        address _walletAddress\r\n    ) external returns (bool status) {\r\n                if (hasRole(VERIFIED_PATIENT, _walletAddress)) {\r\n\r\n        hospitalDatabase[_previousHospitalAddress].patientInHospital.decrement();\r\n\r\n        patientDatabase[_walletAddress].hospitalAddress = _newHospitalAddress;\r\n\r\n        hospitalDatabase[_newHospitalAddress].patientInHospital.increment();\r\n                }\r\n        return true;\r\n    }\r\n\r\n   \r\n\r\n    function retrievePatientCount()\r\n        external\r\n        view\r\n        returns (uint256 patientCount)\r\n    {\r\n        return patientCounter.current();\r\n    }\r\n\r\n    function retrievePatientData(address _walletAddress)\r\n        external\r\n        view\r\n        returns (\r\n            string memory name,\r\n            string memory personalDetails,\r\n            address hospitalAddress,\r\n            address walletAddress\r\n        )\r\n    {\r\n        return (\r\n            patientDatabase[_walletAddress].name,\r\n            patientDatabase[_walletAddress].personalDetails,\r\n            patientDatabase[_walletAddress].hospitalAddress,\r\n            _walletAddress\r\n        );\r\n    }\r\n\r\n    function updatePatientPersonalData(\r\n        address _walletAddress,\r\n        string memory _personalDetails\r\n    ) public returns (bool success) {\r\n        patientDatabase[_walletAddress].personalDetails = _personalDetails;\r\n\r\n        emit LogUpdatePatientPersonalDetails(\r\n            patientDatabase[_walletAddress].name,\r\n            patientDatabase[_walletAddress].personalDetails\r\n        );\r\n\r\n        return true;\r\n    }\r\n\r\n    function updatePatientMedicalRecords(\r\n        address _walletAddress,\r\n        string memory medicalRecordHash\r\n    ) external returns (bool status) {\r\n        if (\r\n            keccak256(\r\n                abi.encodePacked(\r\n                    patientDatabase[_walletAddress].newMedicalRecordHash\r\n                )\r\n            ) == keccak256(abi.encodePacked(\"\"))\r\n        ) {\r\n            patientDatabase[_walletAddress]\r\n                .newMedicalRecordHash = medicalRecordHash;\r\n            return true;\r\n        } else {\r\n            patientDatabase[_walletAddress].previousPatientRecordHashes.push(\r\n                patientDatabase[_walletAddress].newMedicalRecordHash\r\n            );\r\n            patientDatabase[_walletAddress]\r\n                .newMedicalRecordHash = medicalRecordHash;\r\n            return true;\r\n        }\r\n    }\r\n\r\n    function updatePatientPrescription(\r\n        address _walletAddress,\r\n        string memory prescriptionHash\r\n    ) external returns (string memory status) {\r\n        if (\r\n            keccak256(\r\n                abi.encodePacked(\r\n                    patientDatabase[_walletAddress].newPatientPrescriptionHashes\r\n                )\r\n            ) == keccak256(abi.encodePacked(\"\"))\r\n        ) {\r\n            patientDatabase[_walletAddress]\r\n                .newPatientPrescriptionHashes = prescriptionHash;\r\n            return \"ENTERED ONCE PRESCRIPTION ONLY\";\r\n        } else {\r\n            patientDatabase[_walletAddress]\r\n                .previousPatientPrescriptionHashes\r\n                .push(\r\n                    patientDatabase[_walletAddress].newPatientPrescriptionHashes\r\n                );\r\n            patientDatabase[_walletAddress]\r\n                .newPatientPrescriptionHashes = prescriptionHash;\r\n            return \"ENTERED TWICE PRESCRIPTION ONLY\";\r\n        }\r\n    }\r\n\r\n    function getNewPrescription(address _patientAddress)\r\n        external\r\n        view\r\n        returns (string memory status)\r\n    {\r\n        return patientDatabase[_patientAddress].newPatientPrescriptionHashes;\r\n    }\r\n\r\n    function getMultiplePrescription(address _patientAddress)\r\n        external\r\n        view\r\n        returns (string[] memory status)\r\n    {\r\n        return\r\n            patientDatabase[_patientAddress].previousPatientPrescriptionHashes;\r\n    }\r\n\r\n    function getNewRecords(address _patientAddress)\r\n        external\r\n        view\r\n        returns (string memory status)\r\n    {\r\n        return patientDatabase[_patientAddress].newMedicalRecordHash;\r\n    }\r\n\r\n    function getMultipleRecords(address _patientAddress)\r\n        external\r\n        view\r\n        returns (string[] memory status)\r\n    {\r\n        return patientDatabase[_patientAddress].previousPatientRecordHashes;\r\n    }\r\n\r\n    event LogStoreDoctor(string name, string personalDetails, address owner);\r\n    event LogUpdateDoctor(string name, string personalDetails);\r\n    event LogDeleteDoctor(string name, uint256 empIdIndex);\r\n\r\n    //: DOCTOR DATABASE\r\n    mapping(address => doctorRecord) doctorDatabase;\r\n\r\n    function storeDoctor(\r\n        string memory name,\r\n        string memory _personalDetails,\r\n        address _hospitalAddress,\r\n        address _walletAddress\r\n    ) external returns (bool status) {\r\n        if (hasRole(DOCTOR, _walletAddress)) {\r\n            _setupRole(DOCTOR, _walletAddress);\r\n            doctorDatabase[_walletAddress].name = name;\r\n            doctorDatabase[_walletAddress].walletAddress = _walletAddress;\r\n            doctorDatabase[_walletAddress].hospitalAddress = _hospitalAddress;\r\n            doctorDatabase[_walletAddress].personalDetails = _personalDetails;\r\n        } else {\r\n            _setupRole(DOCTOR, _walletAddress);\r\n            doctorDatabase[_walletAddress].name = name;\r\n            doctorDatabase[_walletAddress].walletAddress = _walletAddress;\r\n            doctorDatabase[_walletAddress].hospitalAddress = _hospitalAddress;\r\n            doctorDatabase[_walletAddress].personalDetails = _personalDetails;\r\n            hospitalDatabase[_hospitalAddress].doctorInHospital.increment();\r\n            doctorCounter.increment();\r\n        }\r\n\r\n        emit LogStoreDoctor(\r\n            doctorDatabase[_walletAddress].name,\r\n            doctorDatabase[_walletAddress].personalDetails,\r\n            _walletAddress\r\n        );\r\n\r\n        return true;\r\n    }\r\n    //updated function.\r\n  function updateDoctorPersonalDetailHash(\r\n        string memory _personalDetails,\r\n        address _walletAddress\r\n    ) external returns (bool status) {\r\n        if (hasRole(VERIFIED_DOCTOR, _walletAddress)) {\r\n\r\n            patientDatabase[_walletAddress].personalDetails = _personalDetails;\r\n        \r\n        }\r\n\r\n        return true;\r\n    }\r\n\r\n\r\n    function changeHospitalForDoctor(\r\n        address _previousHospitalAddress,\r\n        address _newHospitalAddress,\r\n        address _walletAddress\r\n    ) external returns (bool status) {\r\n        hospitalDatabase[_previousHospitalAddress].doctorInHospital.decrement();\r\n\r\n        doctorDatabase[_walletAddress].hospitalAddress = _newHospitalAddress;\r\n\r\n        hospitalDatabase[_newHospitalAddress].doctorInHospital.increment();\r\n\r\n        return true;\r\n    }\r\n\r\n    function retrieveDoctorCount() external view returns (uint256 doctorCount) {\r\n        return doctorCounter.current();\r\n    }\r\n\r\n    function retrieveDoctorData(address _walletAddress)\r\n        public\r\n        view\r\n        returns (\r\n            string memory name,\r\n            string memory personalDetails,\r\n            address hospitalAddress\r\n        )\r\n    {\r\n        return (\r\n            doctorDatabase[_walletAddress].name,\r\n            doctorDatabase[_walletAddress].personalDetails,\r\n            doctorDatabase[_walletAddress].hospitalAddress\r\n        );\r\n    }\r\n\r\n    event LogPharmacy(string name, string personalDetails, address owner);\r\n\r\n    //: Pharmacy DATABASE\r\n    mapping(address => pharmacyRecord) pharmacyDatabase;\r\n\r\n    function storePharmacy(\r\n        string memory name,\r\n        string memory _personalDetails,\r\n        address _walletAddress\r\n    ) external returns (bool status) {\r\n        _setupRole(PHARMACY, _walletAddress);\r\n        pharmacyDatabase[_walletAddress].name = name;\r\n        pharmacyDatabase[_walletAddress].walletAddress = _walletAddress;\r\n        pharmacyDatabase[_walletAddress].personalDetails = _personalDetails;\r\n        pharmacyCounter.increment();\r\n        emit LogPharmacy(\r\n            pharmacyDatabase[_walletAddress].name,\r\n            pharmacyDatabase[_walletAddress].personalDetails,\r\n            _walletAddress\r\n        );\r\n\r\n        return true;\r\n    }\r\n\r\n    //updated function.\r\n     function updatePharmacyPersonalDetailHash(\r\n        string memory _personalDetails,\r\n        address _walletAddress\r\n    ) external returns (bool status) {\r\n        if (hasRole(PHARMACY, _walletAddress)) {\r\n\r\n            patientDatabase[_walletAddress].personalDetails = _personalDetails;\r\n        \r\n        }\r\n\r\n        return true;\r\n    }\r\n\r\n    function retrievePharmacyCount()\r\n        external\r\n        view\r\n        returns (uint256 pharmacyCount)\r\n    {\r\n        return pharmacyCounter.current();\r\n    }\r\n\r\n    function getPharmacyData(address _walletAddress)\r\n        public\r\n        view\r\n        returns (\r\n            string memory name,\r\n            string memory pharmacyDetails,\r\n            address walletAddress\r\n        )\r\n    {\r\n        return (\r\n            pharmacyDatabase[_walletAddress].name,\r\n            pharmacyDatabase[_walletAddress].personalDetails,\r\n            _walletAddress\r\n        );\r\n    }\r\n\r\n    event LogHospital(\r\n        string name,\r\n        string _hospitalDetails,\r\n        address walletAddress\r\n    );\r\n    event LogUpdateHospital(string name, string dateOfBirth);\r\n    event LogDeleteHospital(string name, uint256 empIdIndex);\r\n\r\n    //: HOSPITAL DATABASE\r\n    mapping(address => hospitalRecord) hospitalDatabase;\r\n\r\n    function storeHospital(\r\n        string memory _name,\r\n        string memory _hospitalDetails,\r\n        address _walletAddress\r\n    ) external returns (bool status) {\r\n        _setupRole(HOSPITAL_ADMIN, _walletAddress);\r\n        hospitalDatabase[_walletAddress].name = _name;\r\n        hospitalDatabase[_walletAddress].walletAddress = _walletAddress;\r\n        hospitalDatabase[_walletAddress].hospitalDetails = _hospitalDetails;\r\n        hospitalCounter.increment();\r\n\r\n        emit LogHospital(_name, _hospitalDetails, _walletAddress);\r\n\r\n        return true;\r\n    }\r\n\r\n    //updated function\r\n     function updateHospitalPersonalDetailHash(\r\n        string memory _personalDetails,\r\n        address _walletAddress\r\n    ) external returns (bool status) {\r\n        if (hasRole(HOSPITAL_ADMIN, _walletAddress)) {\r\n\r\n            patientDatabase[_walletAddress].personalDetails = _personalDetails;\r\n        \r\n        }\r\n\r\n        return true;\r\n    }\r\n\r\n\r\n\r\n    function retrieveHospitalCount()\r\n        external\r\n        view\r\n        returns (uint256 hospitalCount)\r\n    {\r\n        return hospitalCounter.current();\r\n    }\r\n\r\n    function retrieveHospitalSpecificCountOfDoctors(address _hospitalAddress)\r\n        external\r\n        view\r\n        returns (uint256 doctorCountInHospital)\r\n    {\r\n        return hospitalDatabase[_hospitalAddress].doctorInHospital.current();\r\n    }\r\n\r\n    function retrieveHospitalSpecificCountOfPatients(address _hospitalAddress)\r\n        external\r\n        view\r\n        returns (uint256 patientCountInHospital)\r\n    {\r\n        return hospitalDatabase[_hospitalAddress].patientInHospital.current();\r\n    }\r\n\r\n    function getHospitalData(address addressOfUser)\r\n        public\r\n        view\r\n        returns (\r\n            string memory _nameAdmin,\r\n            string memory hospitalDetails,\r\n            address walletAddress\r\n        )\r\n    {\r\n        return (\r\n            hospitalDatabase[addressOfUser].name,\r\n            hospitalDatabase[addressOfUser].hospitalDetails,\r\n            hospitalDatabase[addressOfUser].walletAddress\r\n        );\r\n    }\r\n\r\n    // Grant Role VERIFIED_PATIENT To Patient\r\n    function grantRoleVerifiedPatient(\r\n        address _addressOfAdmin,\r\n        address _addressOfPatient\r\n    ) public returns (bool success) {\r\n        require(\r\n            hasRole(HOSPITAL_ADMIN, _addressOfAdmin) ||\r\n                hasRole(VERIFIED_DOCTOR, _addressOfAdmin)\r\n        );\r\n        require(hasRole(PATIENT, _addressOfPatient));\r\n        grantRole(VERIFIED_PATIENT, _addressOfPatient);\r\n        return true;\r\n    }\r\n\r\n    // Grant Role VERIFIED_DOCTOR to Doctor\r\n    function grantRoleVerifiedDoctor(\r\n        address _addressOfAdmin,\r\n        address _addressOfDoctor\r\n    ) public returns (bool success) {\r\n        require(hasRole(HOSPITAL_ADMIN, _addressOfAdmin));\r\n        require(hasRole(DOCTOR, _addressOfDoctor));\r\n        grantRole(VERIFIED_DOCTOR, _addressOfDoctor);\r\n        return true;\r\n    }\r\n}\r\n",
  "sourcePath": "C:\\Users\\reube\\Documents\\blockchain_in_healthcare\\contracts\\MainContract.sol",
  "compiler": {
    "name": "solc",
    "version": "0.8.0+commit.c7dfd78e.Emscripten.clang"
  },
  "schemaVersion": "3.4.4",
  "updatedAt": "2022-01-09T13:31:16.081Z",
  "networkType": "ethereum",
  "devdoc": {
    "kind": "dev",
    "methods": {
      "getRoleAdmin(bytes32)": {
        "details": "Returns the admin role that controls `role`. See {grantRole} and {revokeRole}. To change a role's admin, use {_setRoleAdmin}."
      },
      "grantRole(bytes32,address)": {
        "details": "Grants `role` to `account`. If `account` had not been already granted `role`, emits a {RoleGranted} event. Requirements: - the caller must have ``role``'s admin role."
      },
      "hasRole(bytes32,address)": {
        "details": "Returns `true` if `account` has been granted `role`."
      },
      "renounceRole(bytes32,address)": {
        "details": "Revokes `role` from the calling account. Roles are often managed via {grantRole} and {revokeRole}: this function's purpose is to provide a mechanism for accounts to lose their privileges if they are compromised (such as when a trusted device is misplaced). If the calling account had been granted `role`, emits a {RoleRevoked} event. Requirements: - the caller must be `account`."
      },
      "revokeRole(bytes32,address)": {
        "details": "Revokes `role` from `account`. If `account` had been granted `role`, emits a {RoleRevoked} event. Requirements: - the caller must have ``role``'s admin role."
      },
      "supportsInterface(bytes4)": {
        "details": "See {IERC165-supportsInterface}."
      }
    },
    "version": 1
  },
  "userdoc": {
    "kind": "user",
    "methods": {},
    "version": 1
  }
}