{
  "contractName": "MainContract",
  "abi": [
    {
      "inputs": [],
      "stateMutability": "nonpayable",
      "type": "constructor"
    },
    {
      "anonymous": false,
      "inputs": [
        {
          "indexed": false,
          "internalType": "string",
          "name": "name",
          "type": "string"
        },
        {
          "indexed": false,
          "internalType": "uint256",
          "name": "empIdIndex",
          "type": "uint256"
        }
      ],
      "name": "LogDeleteDoctor",
      "type": "event"
    },
    {
      "anonymous": false,
      "inputs": [
        {
          "indexed": false,
          "internalType": "string",
          "name": "name",
          "type": "string"
        },
        {
          "indexed": false,
          "internalType": "uint256",
          "name": "empIdIndex",
          "type": "uint256"
        }
      ],
      "name": "LogDeleteHospital",
      "type": "event"
    },
    {
      "anonymous": false,
      "inputs": [
        {
          "indexed": false,
          "internalType": "string",
          "name": "name",
          "type": "string"
        },
        {
          "indexed": false,
          "internalType": "string",
          "name": "_hospitalDetails",
          "type": "string"
        },
        {
          "indexed": false,
          "internalType": "address",
          "name": "walletAddress",
          "type": "address"
        }
      ],
      "name": "LogHospital",
      "type": "event"
    },
    {
      "anonymous": false,
      "inputs": [
        {
          "indexed": false,
          "internalType": "string",
          "name": "name",
          "type": "string"
        },
        {
          "indexed": false,
          "internalType": "string",
          "name": "personalDetails",
          "type": "string"
        },
        {
          "indexed": false,
          "internalType": "address",
          "name": "owner",
          "type": "address"
        }
      ],
      "name": "LogPharmacy",
      "type": "event"
    },
    {
      "anonymous": false,
      "inputs": [
        {
          "indexed": false,
          "internalType": "string",
          "name": "name",
          "type": "string"
        },
        {
          "indexed": false,
          "internalType": "string",
          "name": "personalDetails",
          "type": "string"
        },
        {
          "indexed": false,
          "internalType": "address",
          "name": "owner",
          "type": "address"
        }
      ],
      "name": "LogStoreDoctor",
      "type": "event"
    },
    {
      "anonymous": false,
      "inputs": [
        {
          "indexed": false,
          "internalType": "string",
          "name": "name",
          "type": "string"
        },
        {
          "indexed": false,
          "internalType": "address",
          "name": "hospitalAddress",
          "type": "address"
        },
        {
          "indexed": false,
          "internalType": "string",
          "name": "_personalDetails",
          "type": "string"
        },
        {
          "indexed": false,
          "internalType": "address",
          "name": "owner",
          "type": "address"
        }
      ],
      "name": "LogStorePatient",
      "type": "event"
    },
    {
      "anonymous": false,
      "inputs": [
        {
          "indexed": false,
          "internalType": "string",
          "name": "name",
          "type": "string"
        },
        {
          "indexed": false,
          "internalType": "string",
          "name": "personalDetails",
          "type": "string"
        }
      ],
      "name": "LogUpdateDoctor",
      "type": "event"
    },
    {
      "anonymous": false,
      "inputs": [
        {
          "indexed": false,
          "internalType": "string",
          "name": "name",
          "type": "string"
        },
        {
          "indexed": false,
          "internalType": "string",
          "name": "dateOfBirth",
          "type": "string"
        }
      ],
      "name": "LogUpdateHospital",
      "type": "event"
    },
    {
      "anonymous": false,
      "inputs": [
        {
          "indexed": false,
          "internalType": "string",
          "name": "name",
          "type": "string"
        },
        {
          "indexed": false,
          "internalType": "string",
          "name": "_personalDetails",
          "type": "string"
        }
      ],
      "name": "LogUpdatePatientPersonalDetails",
      "type": "event"
    },
    {
      "anonymous": false,
      "inputs": [
        {
          "indexed": true,
          "internalType": "bytes32",
          "name": "role",
          "type": "bytes32"
        },
        {
          "indexed": true,
          "internalType": "bytes32",
          "name": "previousAdminRole",
          "type": "bytes32"
        },
        {
          "indexed": true,
          "internalType": "bytes32",
          "name": "newAdminRole",
          "type": "bytes32"
        }
      ],
      "name": "RoleAdminChanged",
      "type": "event"
    },
    {
      "anonymous": false,
      "inputs": [
        {
          "indexed": true,
          "internalType": "bytes32",
          "name": "role",
          "type": "bytes32"
        },
        {
          "indexed": true,
          "internalType": "address",
          "name": "account",
          "type": "address"
        },
        {
          "indexed": true,
          "internalType": "address",
          "name": "sender",
          "type": "address"
        }
      ],
      "name": "RoleGranted",
      "type": "event"
    },
    {
      "anonymous": false,
      "inputs": [
        {
          "indexed": true,
          "internalType": "bytes32",
          "name": "role",
          "type": "bytes32"
        },
        {
          "indexed": true,
          "internalType": "address",
          "name": "account",
          "type": "address"
        },
        {
          "indexed": true,
          "internalType": "address",
          "name": "sender",
          "type": "address"
        }
      ],
      "name": "RoleRevoked",
      "type": "event"
    },
    {
      "inputs": [],
      "name": "DEFAULT_ADMIN_ROLE",
      "outputs": [
        {
          "internalType": "bytes32",
          "name": "",
          "type": "bytes32"
        }
      ],
      "stateMutability": "view",
      "type": "function",
      "constant": true
    },
    {
      "inputs": [
        {
          "internalType": "bytes32",
          "name": "role",
          "type": "bytes32"
        }
      ],
      "name": "getRoleAdmin",
      "outputs": [
        {
          "internalType": "bytes32",
          "name": "",
          "type": "bytes32"
        }
      ],
      "stateMutability": "view",
      "type": "function",
      "constant": true
    },
    {
      "inputs": [
        {
          "internalType": "bytes32",
          "name": "role",
          "type": "bytes32"
        },
        {
          "internalType": "address",
          "name": "account",
          "type": "address"
        }
      ],
      "name": "grantRole",
      "outputs": [],
      "stateMutability": "nonpayable",
      "type": "function"
    },
    {
      "inputs": [
        {
          "internalType": "bytes32",
          "name": "role",
          "type": "bytes32"
        },
        {
          "internalType": "address",
          "name": "account",
          "type": "address"
        }
      ],
      "name": "hasRole",
      "outputs": [
        {
          "internalType": "bool",
          "name": "",
          "type": "bool"
        }
      ],
      "stateMutability": "view",
      "type": "function",
      "constant": true
    },
    {
      "inputs": [
        {
          "internalType": "bytes32",
          "name": "role",
          "type": "bytes32"
        },
        {
          "internalType": "address",
          "name": "account",
          "type": "address"
        }
      ],
      "name": "renounceRole",
      "outputs": [],
      "stateMutability": "nonpayable",
      "type": "function"
    },
    {
      "inputs": [
        {
          "internalType": "bytes32",
          "name": "role",
          "type": "bytes32"
        },
        {
          "internalType": "address",
          "name": "account",
          "type": "address"
        }
      ],
      "name": "revokeRole",
      "outputs": [],
      "stateMutability": "nonpayable",
      "type": "function"
    },
    {
      "inputs": [
        {
          "internalType": "bytes4",
          "name": "interfaceId",
          "type": "bytes4"
        }
      ],
      "name": "supportsInterface",
      "outputs": [
        {
          "internalType": "bool",
          "name": "",
          "type": "bool"
        }
      ],
      "stateMutability": "view",
      "type": "function",
      "constant": true
    },
    {
      "inputs": [
        {
          "internalType": "string",
          "name": "_name",
          "type": "string"
        },
        {
          "internalType": "string",
          "name": "_personalDetails",
          "type": "string"
        },
        {
          "internalType": "address",
          "name": "_hospitalAddress",
          "type": "address"
        },
        {
          "internalType": "address",
          "name": "_walletAddress",
          "type": "address"
        }
      ],
      "name": "storePatient",
      "outputs": [
        {
          "internalType": "bool",
          "name": "status",
          "type": "bool"
        }
      ],
      "stateMutability": "nonpayable",
      "type": "function"
    },
    {
      "inputs": [
        {
          "internalType": "address",
          "name": "_previousHospitalAddress",
          "type": "address"
        },
        {
          "internalType": "address",
          "name": "_newHospitalAddress",
          "type": "address"
        },
        {
          "internalType": "address",
          "name": "_walletAddress",
          "type": "address"
        }
      ],
      "name": "changeHospitalForPatient",
      "outputs": [
        {
          "internalType": "bool",
          "name": "status",
          "type": "bool"
        }
      ],
      "stateMutability": "nonpayable",
      "type": "function"
    },
    {
      "inputs": [],
      "name": "retrievePatientCount",
      "outputs": [
        {
          "internalType": "uint256",
          "name": "patientCount",
          "type": "uint256"
        }
      ],
      "stateMutability": "view",
      "type": "function",
      "constant": true
    },
    {
      "inputs": [
        {
          "internalType": "address",
          "name": "_walletAddress",
          "type": "address"
        }
      ],
      "name": "retrievePatientData",
      "outputs": [
        {
          "internalType": "string",
          "name": "name",
          "type": "string"
        },
        {
          "internalType": "string",
          "name": "personalDetails",
          "type": "string"
        },
        {
          "internalType": "address",
          "name": "hospitalAddress",
          "type": "address"
        },
        {
          "internalType": "address",
          "name": "walletAddress",
          "type": "address"
        }
      ],
      "stateMutability": "view",
      "type": "function",
      "constant": true
    },
    {
      "inputs": [
        {
          "internalType": "address",
          "name": "_walletAddress",
          "type": "address"
        },
        {
          "internalType": "string",
          "name": "_personalDetails",
          "type": "string"
        }
      ],
      "name": "updatePatientPersonalData",
      "outputs": [
        {
          "internalType": "bool",
          "name": "success",
          "type": "bool"
        }
      ],
      "stateMutability": "nonpayable",
      "type": "function"
    },
    {
      "inputs": [
        {
          "internalType": "address",
          "name": "_walletAddress",
          "type": "address"
        },
        {
          "internalType": "string",
          "name": "medicalRecordHash",
          "type": "string"
        }
      ],
      "name": "updatePatientMedicalRecords",
      "outputs": [
        {
          "internalType": "bool",
          "name": "status",
          "type": "bool"
        }
      ],
      "stateMutability": "nonpayable",
      "type": "function"
    },
    {
      "inputs": [
        {
          "internalType": "address",
          "name": "_walletAddress",
          "type": "address"
        },
        {
          "internalType": "string",
          "name": "prescriptionHash",
          "type": "string"
        }
      ],
      "name": "updatePatientPrescription",
      "outputs": [
        {
          "internalType": "string",
          "name": "status",
          "type": "string"
        }
      ],
      "stateMutability": "nonpayable",
      "type": "function"
    },
    {
      "inputs": [
        {
          "internalType": "address",
          "name": "_patientAddress",
          "type": "address"
        }
      ],
      "name": "getNewPrescription",
      "outputs": [
        {
          "internalType": "string",
          "name": "status",
          "type": "string"
        }
      ],
      "stateMutability": "view",
      "type": "function",
      "constant": true
    },
    {
      "inputs": [
        {
          "internalType": "address",
          "name": "_patientAddress",
          "type": "address"
        }
      ],
      "name": "getMultiplePrescription",
      "outputs": [
        {
          "internalType": "string[]",
          "name": "status",
          "type": "string[]"
        }
      ],
      "stateMutability": "view",
      "type": "function",
      "constant": true
    },
    {
      "inputs": [
        {
          "internalType": "address",
          "name": "_patientAddress",
          "type": "address"
        }
      ],
      "name": "getNewRecords",
      "outputs": [
        {
          "internalType": "string",
          "name": "status",
          "type": "string"
        }
      ],
      "stateMutability": "view",
      "type": "function",
      "constant": true
    },
    {
      "inputs": [
        {
          "internalType": "address",
          "name": "_patientAddress",
          "type": "address"
        }
      ],
      "name": "getMultipleRecords",
      "outputs": [
        {
          "internalType": "string[]",
          "name": "status",
          "type": "string[]"
        }
      ],
      "stateMutability": "view",
      "type": "function",
      "constant": true
    },
    {
      "inputs": [
        {
          "internalType": "string",
          "name": "name",
          "type": "string"
        },
        {
          "internalType": "string",
          "name": "_personalDetails",
          "type": "string"
        },
        {
          "internalType": "address",
          "name": "_hospitalAddress",
          "type": "address"
        },
        {
          "internalType": "address",
          "name": "_walletAddress",
          "type": "address"
        }
      ],
      "name": "storeDoctor",
      "outputs": [
        {
          "internalType": "bool",
          "name": "status",
          "type": "bool"
        }
      ],
      "stateMutability": "nonpayable",
      "type": "function"
    },
    {
      "inputs": [
        {
          "internalType": "address",
          "name": "_previousHospitalAddress",
          "type": "address"
        },
        {
          "internalType": "address",
          "name": "_newHospitalAddress",
          "type": "address"
        },
        {
          "internalType": "address",
          "name": "_walletAddress",
          "type": "address"
        }
      ],
      "name": "changeHospitalForDoctor",
      "outputs": [
        {
          "internalType": "bool",
          "name": "status",
          "type": "bool"
        }
      ],
      "stateMutability": "nonpayable",
      "type": "function"
    },
    {
      "inputs": [],
      "name": "retrieveDoctorCount",
      "outputs": [
        {
          "internalType": "uint256",
          "name": "doctorCount",
          "type": "uint256"
        }
      ],
      "stateMutability": "view",
      "type": "function",
      "constant": true
    },
    {
      "inputs": [
        {
          "internalType": "address",
          "name": "_walletAddress",
          "type": "address"
        }
      ],
      "name": "retrieveDoctorData",
      "outputs": [
        {
          "internalType": "string",
          "name": "name",
          "type": "string"
        },
        {
          "internalType": "string",
          "name": "personalDetails",
          "type": "string"
        },
        {
          "internalType": "address",
          "name": "hospitalAddress",
          "type": "address"
        }
      ],
      "stateMutability": "view",
      "type": "function",
      "constant": true
    },
    {
      "inputs": [
        {
          "internalType": "string",
          "name": "name",
          "type": "string"
        },
        {
          "internalType": "string",
          "name": "_personalDetails",
          "type": "string"
        },
        {
          "internalType": "address",
          "name": "_walletAddress",
          "type": "address"
        }
      ],
      "name": "storePharmacy",
      "outputs": [
        {
          "internalType": "bool",
          "name": "status",
          "type": "bool"
        }
      ],
      "stateMutability": "nonpayable",
      "type": "function"
    },
    {
      "inputs": [],
      "name": "retrievePharmacyCount",
      "outputs": [
        {
          "internalType": "uint256",
          "name": "pharmacyCount",
          "type": "uint256"
        }
      ],
      "stateMutability": "view",
      "type": "function",
      "constant": true
    },
    {
      "inputs": [
        {
          "internalType": "address",
          "name": "_walletAddress",
          "type": "address"
        }
      ],
      "name": "getPharmacyData",
      "outputs": [
        {
          "internalType": "string",
          "name": "name",
          "type": "string"
        },
        {
          "internalType": "string",
          "name": "pharmacyDetails",
          "type": "string"
        },
        {
          "internalType": "address",
          "name": "walletAddress",
          "type": "address"
        }
      ],
      "stateMutability": "view",
      "type": "function",
      "constant": true
    },
    {
      "inputs": [
        {
          "internalType": "string",
          "name": "_name",
          "type": "string"
        },
        {
          "internalType": "string",
          "name": "_hospitalDetails",
          "type": "string"
        },
        {
          "internalType": "address",
          "name": "_walletAddress",
          "type": "address"
        }
      ],
      "name": "storeHospital",
      "outputs": [
        {
          "internalType": "bool",
          "name": "status",
          "type": "bool"
        }
      ],
      "stateMutability": "nonpayable",
      "type": "function"
    },
    {
      "inputs": [],
      "name": "retrieveHospitalCount",
      "outputs": [
        {
          "internalType": "uint256",
          "name": "hospitalCount",
          "type": "uint256"
        }
      ],
      "stateMutability": "view",
      "type": "function",
      "constant": true
    },
    {
      "inputs": [
        {
          "internalType": "address",
          "name": "_hospitalAddress",
          "type": "address"
        }
      ],
      "name": "retrieveHospitalSpecificCountOfDoctors",
      "outputs": [
        {
          "internalType": "uint256",
          "name": "doctorCountInHospital",
          "type": "uint256"
        }
      ],
      "stateMutability": "view",
      "type": "function",
      "constant": true
    },
    {
      "inputs": [
        {
          "internalType": "address",
          "name": "_hospitalAddress",
          "type": "address"
        }
      ],
      "name": "retrieveHospitalSpecificCountOfPatients",
      "outputs": [
        {
          "internalType": "uint256",
          "name": "patientCountInHospital",
          "type": "uint256"
        }
      ],
      "stateMutability": "view",
      "type": "function",
      "constant": true
    },
    {
      "inputs": [
        {
          "internalType": "address",
          "name": "addressOfUser",
          "type": "address"
        }
      ],
      "name": "getHospitalData",
      "outputs": [
        {
          "internalType": "string",
          "name": "_nameAdmin",
          "type": "string"
        },
        {
          "internalType": "string",
          "name": "hospitalDetails",
          "type": "string"
        },
        {
          "internalType": "address",
          "name": "walletAddress",
          "type": "address"
        }
      ],
      "stateMutability": "view",
      "type": "function",
      "constant": true
    },
    {
      "inputs": [
        {
          "internalType": "address",
          "name": "_addressOfAdmin",
          "type": "address"
        },
        {
          "internalType": "address",
          "name": "_addressOfPatient",
          "type": "address"
        }
      ],
      "name": "grantRoleVerifiedPatient",
      "outputs": [
        {
          "internalType": "bool",
          "name": "success",
          "type": "bool"
        }
      ],
      "stateMutability": "nonpayable",
      "type": "function"
    },
    {
      "inputs": [
        {
          "internalType": "address",
          "name": "_addressOfAdmin",
          "type": "address"
        },
        {
          "internalType": "address",
          "name": "_addressOfDoctor",
          "type": "address"
        }
      ],
      "name": "grantRoleVerifiedDoctor",
      "outputs": [
        {
          "internalType": "bool",
          "name": "success",
          "type": "bool"
        }
      ],
      "stateMutability": "nonpayable",
      "type": "function"
    }
  ],
  "bytecode": "0x60806040523480156200001157600080fd5b506200002d6000805160206200257883398151915280620000b6565b620000687fc9c8e67a61d2e7371df46522b44051b955c16bf4b713ef44e1373b25bfcd80b260008051602062002578833981519152620000b6565b620000a37fe5786ee6f50ab1a5567cb3f3f6840a2f4ddbafdf4a35cb2c52d5b732b1e84a3260008051602062002578833981519152620000b6565b620000b06000336200010b565b620001e7565b6000620000c3836200011b565b600084815260208190526040808220600101859055519192508391839186917fbd79b86ffe0ab8e8776151514217cd7cacd52c909f66475c3af44e129f0b00ff9190a4505050565b62000117828262000130565b5050565b60009081526020819052604090206001015490565b6200013c8282620001ba565b62000117576000828152602081815260408083206001600160a01b03851684529091529020805460ff1916600117905562000176620001e3565b6001600160a01b0316816001600160a01b0316837f2f8788117e7eff1d82e926ec794901d17c78024a50270940304540a733656f0d60405160405180910390a45050565b6000918252602082815260408084206001600160a01b0393909316845291905290205460ff1690565b3390565b61238180620001f76000396000f3fe608060405234801561001057600080fd5b50600436106101f05760003560e01c80638b55befc1161010f578063d547741f116100a2578063edae7fb511610071578063edae7fb514610446578063f98d5d251461044e578063fcd4014b14610456578063fffaff4214610469576101f0565b8063d547741f146103fa578063e21eadcc1461040d578063e37e969614610420578063e8300b1d14610433576101f0565b8063ac291867116100de578063ac291867146103ae578063b9a47e90146103c1578063c12878c3146103d4578063c99ead64146103e7576101f0565b80638b55befc1461036d57806391d1485414610380578063a217fddf14610393578063a84ceab71461039b576101f0565b8063389e3894116101875780635d9c45cd116101565780635d9c45cd1461031f57806373e830b4146103325780637799c0491461033a57806377aee2921461035a576101f0565b8063389e3894146102c45780633f9c1090146102e657806345118d8e146102f95780634edf897f1461030c576101f0565b8063224ccd0f116101c3578063224ccd0f14610269578063248a9ca3146102895780632f2ff15d1461029c57806336568abe146102b1576101f0565b806301ffc9a7146101f55780630a086b151461021e5780630b6003451461023357806316d8b45b14610246575b600080fd5b610208610203366004611d43565b61047c565b604051610215919061203f565b60405180910390f35b6102266104a9565b604051610215919061204a565b610208610241366004611d6b565b6104ba565b610259610254366004611c2f565b6105a3565b60405161021594939291906120a4565b61027c610277366004611c2f565b6106ff565b6040516102159190611fdf565b610226610297366004611d09565b6107f1565b6102af6102aa366004611d21565b610806565b005b6102af6102bf366004611d21565b61082f565b6102d76102d2366004611c2f565b61087e565b60405161021593929190612066565b6102086102f4366004611cbd565b6109d1565b610208610307366004611c7b565b610a5e565b61020861031a366004611dd3565b610ad3565b61020861032d366004611dd3565b610cbc565b610226610ec4565b61034d610348366004611c2f565b610ed0565b6040516102159190612053565b61027c610368366004611c2f565b610f80565b61022661037b366004611c2f565b611067565b61020861038e366004611d21565b61108b565b6102266110b4565b6102086103a9366004611c7b565b6110b9565b61034d6103bc366004611c2f565b611124565b6102086103cf366004611c49565b61114e565b6102266103e2366004611c2f565b611219565b6102086103f5366004611d6b565b61123d565b6102af610408366004611d21565b61132f565b6102d761041b366004611c2f565b61134e565b61020861042e366004611c49565b611381565b6102d7610441366004611c2f565b611401565b61022661143b565b610226611447565b610208610464366004611cbd565b611453565b61034d610477366004611cbd565b611575565b60006001600160e01b03198216637965db0b60e01b14806104a157506104a182611703565b90505b919050565b60006104b5600461171c565b905090565b60006104e67f47a8a9b8917c993d90f37744bb40dfb774c4593d1a1660ed38db000e3315650283611720565b6001600160a01b0382166000908152600860209081526040909120855161050f92870190611a83565b506001600160a01b03821660008181526008602090815260409091206002810180546001600160a01b03191690931790925584516105539260010191860190611a83565b5061055e600361172a565b7ff1ed66ce17e814997c731a53029e891da3b3665c7d89fd2a257363990098c1be84848460405161059193929190612066565b60405180910390a15060019392505050565b6001600160a01b038082166000908152600560205260408120600281015481546060948594938493909260018401929190911690889084906105e4906122c4565b80601f0160208091040260200160405190810160405280929190818152602001828054610610906122c4565b801561065d5780601f106106325761010080835404028352916020019161065d565b820191906000526020600020905b81548152906001019060200180831161064057829003601f168201915b50505050509350828054610670906122c4565b80601f016020809104026020016040519081016040528092919081815260200182805461069c906122c4565b80156106e95780601f106106be576101008083540402835291602001916106e9565b820191906000526020600020905b8154815290600101906020018083116106cc57829003601f168201915b5050505050925093509350935093509193509193565b6001600160a01b0381166000908152600560209081526040808320600601805482518185028101850190935280835260609492939192909184015b828210156107e6578382906000526020600020018054610759906122c4565b80601f0160208091040260200160405190810160405280929190818152602001828054610785906122c4565b80156107d25780601f106107a7576101008083540402835291602001916107d2565b820191906000526020600020905b8154815290600101906020018083116107b557829003601f168201915b50505050508152602001906001019061073a565b505050509050919050565b60009081526020819052604090206001015490565b61080f826107f1565b6108208161081b611733565b611737565b61082a838361179b565b505050565b610837611733565b6001600160a01b0316816001600160a01b0316146108705760405162461bcd60e51b8152600401610867906121f7565b60405180910390fd5b61087a8282611820565b5050565b6001600160a01b0380821660009081526006602052604081206002810154815460609485949392600184019291169083906108b8906122c4565b80601f01602080910402602001604051908101604052809291908181526020018280546108e4906122c4565b80156109315780601f1061090657610100808354040283529160200191610931565b820191906000526020600020905b81548152906001019060200180831161091457829003601f168201915b50505050509250818054610944906122c4565b80601f0160208091040260200160405190810160405280929190818152602001828054610970906122c4565b80156109bd5780601f10610992576101008083540402835291602001916109bd565b820191906000526020600020905b8154815290600101906020018083116109a057829003601f168201915b505050505091509250925092509193909250565b6001600160a01b0382166000908152600560209081526040822083516109ff92600190920191850190611a83565b506001600160a01b0383166000908152600560205260409081902090517f9a0b4af72c5a4121f816c4ea663db0d61662cb63fe54ee51ef4bf50d4911bae591610a4c916001820190612138565b60405180910390a15060015b92915050565b6001600160a01b0383166000908152600860205260408120610a82906003016118a3565b6001600160a01b03828116600090815260056020908152604080832060020180546001600160a01b03191694881694851790559282526008905220610ac99060030161172a565b5060019392505050565b6000610aed60008051602061232c8339815191528361108b565b15610b9257610b0a60008051602061232c83398151915283611720565b6001600160a01b03821660009081526006602090815260409091208651610b3392880190611a83565b506001600160a01b0382811660008181526006602090815260409091206003810180546001600160a01b03199081169094179055600281018054909316938716939093179091558551610b8c9260010191870190611a83565b50610c5b565b610baa60008051602061232c83398151915283611720565b6001600160a01b03821660009081526006602090815260409091208651610bd392880190611a83565b506001600160a01b0382811660008181526006602090815260409091206003810180546001600160a01b03199081169094179055600281018054909316938716939093179091558551610c2c9260010191870190611a83565b506001600160a01b0383166000908152600860205260409020610c519060040161172a565b610c5b600261172a565b6001600160a01b0382166000908152600660205260409081902090517f094f9e983e464406960b58ac311309ef38583f6e33af8d47f93b0c048e60c7cf91610ca99160018201908690612166565b60405180910390a1506001949350505050565b6000610ce87fe5786ee6f50ab1a5567cb3f3f6840a2f4ddbafdf4a35cb2c52d5b732b1e84a328361108b565b15610d88576001600160a01b03821660009081526005602090815260409091208651610d1692880190611a83565b506001600160a01b03821660009081526005602090815260409091208551610d4692600190920191870190611a83565b506001600160a01b0380831660008181526005602052604090206002810180549387166001600160a01b03199485161790556003018054909216179055610e6e565b610db27fe5786ee6f50ab1a5567cb3f3f6840a2f4ddbafdf4a35cb2c52d5b732b1e84a3283611720565b6001600160a01b03821660009081526005602090815260409091208651610ddb92880190611a83565b506001600160a01b03821660009081526005602090815260409091208551610e0b92600190920191870190611a83565b506001600160a01b038083166000818152600560209081526040808320600281018054968a166001600160a01b03199788168117909155600391820180549097169095179095559282526008905220610e64910161172a565b610e6e600161172a565b6001600160a01b0380831660009081526005602052604090819020600281015491517f3b8a83fdecb2b3e9bf160eeb2f3112ba4bdad2159cb6783bc884ab9712bb58b493610ca9931690600183019087906120ee565b60006104b5600161171c565b6001600160a01b038116600090815260056020819052604090912001805460609190610efb906122c4565b80601f0160208091040260200160405190810160405280929190818152602001828054610f27906122c4565b8015610f745780601f10610f4957610100808354040283529160200191610f74565b820191906000526020600020905b815481529060010190602001808311610f5757829003601f168201915b50505050509050919050565b6001600160a01b0381166000908152600560209081526040808320600401805482518185028101850190935280835260609492939192909184015b828210156107e6578382906000526020600020018054610fda906122c4565b80601f0160208091040260200160405190810160405280929190818152602001828054611006906122c4565b80156110535780601f1061102857610100808354040283529160200191611053565b820191906000526020600020905b81548152906001019060200180831161103657829003601f168201915b505050505081526020019060010190610fbb565b6001600160a01b03811660009081526008602052604081206104a19060030161171c565b6000918252602082815260408084206001600160a01b0393909316845291905290205460ff1690565b600081565b6001600160a01b03831660009081526008602052604081206110dd906004016118a3565b6001600160a01b03828116600090815260066020908152604080832060020180546001600160a01b03191694881694851790559282526008905220610ac99060040161172a565b6001600160a01b0381166000908152600560205260409020600701805460609190610efb906122c4565b600061117a7f47a8a9b8917c993d90f37744bb40dfb774c4593d1a1660ed38db000e331565028461108b565b806111aa57506111aa7faa5dabedfa16172c67f74bf2293d462402d380790ac2275169499fcded0d78058461108b565b6111b357600080fd5b6111dd7fe5786ee6f50ab1a5567cb3f3f6840a2f4ddbafdf4a35cb2c52d5b732b1e84a328361108b565b6111e657600080fd5b6112107f0e55d2d590eb481461be8bfa869367231c671a31d6401bfeaf2d5cb5787ff25283610806565b50600192915050565b6001600160a01b03811660009081526008602052604081206104a19060040161171c565b60006112697f6d960d3aada907633a701143a0c8a0657b9ed1e77b6d2d8b56e5d8813982e10c83611720565b6001600160a01b0382166000908152600760209081526040909120855161129292870190611a83565b506001600160a01b03821660008181526007602090815260409091206002810180546001600160a01b03191690931790925584516112d69260010191860190611a83565b506112e1600461172a565b6001600160a01b0382166000908152600760205260409081902090517f2fc29db602a5f7179d31b6051279d19e64007dc3eaff8031f3198e0faa156058916105919160018201908690612166565b611338826107f1565b6113448161081b611733565b61082a8383611820565b6001600160a01b03811660009081526007602052604081208054606092839290916001820190869083906108b8906122c4565b60006113ad7f47a8a9b8917c993d90f37744bb40dfb774c4593d1a1660ed38db000e331565028461108b565b6113b657600080fd5b6113ce60008051602061232c8339815191528361108b565b6113d757600080fd5b6112107faa5dabedfa16172c67f74bf2293d462402d380790ac2275169499fcded0d780583610806565b6001600160a01b0380821660009081526008602052604081206002810154815460609485949392600184019291169083906108b8906122c4565b60006104b5600261171c565b60006104b5600361171c565b600060405160200161146490611f67565b60408051601f1981840301815282825280516020918201206001600160a01b0387166000908152600580845293902090936114a493919091019101611ef8565b6040516020818303038152906040528051906020012014156114f9576001600160a01b038316600090815260056020818152604090922084516114ef93919092019190850190611a83565b5060019050610a58565b6001600160a01b0383166000908152600560208181526040832060048101805460018101825590855291909320929091018054929091019161153a906122c4565b611545929190611b07565b506001600160a01b038316600090815260056020818152604090922084516114ef93919092019190850190611a83565b606060405160200161158690611f67565b60408051601f1981840301815282825280516020918201206001600160a01b0387166000908152600583529290922091926115c5926007019101611ef8565b60405160208183030381529060405280519060200120141561164b576001600160a01b0383166000908152600560209081526040909120835161161092600790920191850190611a83565b505060408051808201909152601e81527f454e5445524544204f4e434520505245534352495054494f4e204f4e4c5900006020820152610a58565b6001600160a01b038316600090815260056020908152604082206006810180546001810182559084529190922060079092018054929091019161168d906122c4565b611698929190611b07565b506001600160a01b038316600090815260056020908152604090912083516116c892600790920191850190611a83565b505060408051808201909152601f81527f454e544552454420545749434520505245534352495054494f4e204f4e4c59006020820152610a58565b6001600160e01b031981166301ffc9a760e01b14919050565b5490565b61087a828261179b565b80546001019055565b3390565b611741828261108b565b61087a57611759816001600160a01b031660146118ca565b6117648360206118ca565b604051602001611775929190611f6a565b60408051601f198184030181529082905262461bcd60e51b825261086791600401612053565b6117a5828261108b565b61087a576000828152602081815260408083206001600160a01b03851684529091529020805460ff191660011790556117dc611733565b6001600160a01b0316816001600160a01b0316837f2f8788117e7eff1d82e926ec794901d17c78024a50270940304540a733656f0d60405160405180910390a45050565b61182a828261108b565b1561087a576000828152602081815260408083206001600160a01b03851684529091529020805460ff1916905561185f611733565b6001600160a01b0316816001600160a01b0316837ff6391f5c32d9c69d2a47ea670b442974b53935d1edc7fd64eb21e047a839171b60405160405180910390a45050565b8054806118c25760405162461bcd60e51b8152600401610867906121c0565b600019019055565b606060006118d983600261225e565b6118e4906002612246565b67ffffffffffffffff81111561190a57634e487b7160e01b600052604160045260246000fd5b6040519080825280601f01601f191660200182016040528015611934576020820181803683370190505b509050600360fc1b8160008151811061195d57634e487b7160e01b600052603260045260246000fd5b60200101906001600160f81b031916908160001a905350600f60fb1b8160018151811061199a57634e487b7160e01b600052603260045260246000fd5b60200101906001600160f81b031916908160001a90535060006119be84600261225e565b6119c9906001612246565b90505b6001811115611a5d576f181899199a1a9b1b9c1cb0b131b232b360811b85600f1660108110611a0b57634e487b7160e01b600052603260045260246000fd5b1a60f81b828281518110611a2f57634e487b7160e01b600052603260045260246000fd5b60200101906001600160f81b031916908160001a90535060049490941c93611a56816122ad565b90506119cc565b508315611a7c5760405162461bcd60e51b81526004016108679061218b565b9392505050565b828054611a8f906122c4565b90600052602060002090601f016020900481019282611ab15760008555611af7565b82601f10611aca57805160ff1916838001178555611af7565b82800160010185558215611af7579182015b82811115611af7578251825591602001919060010190611adc565b50611b03929150611b82565b5090565b828054611b13906122c4565b90600052602060002090601f016020900481019282611b355760008555611af7565b82601f10611b465780548555611af7565b82800160010185558215611af757600052602060002091601f016020900482015b82811115611af7578254825591600101919060010190611b67565b5b80821115611b035760008155600101611b83565b80356001600160a01b03811681146104a457600080fd5b600082601f830112611bbe578081fd5b813567ffffffffffffffff80821115611bd957611bd9612315565b604051601f8301601f191681016020018281118282101715611bfd57611bfd612315565b604052828152848301602001861015611c14578384fd5b82602086016020830137918201602001929092529392505050565b600060208284031215611c40578081fd5b611a7c82611b97565b60008060408385031215611c5b578081fd5b611c6483611b97565b9150611c7260208401611b97565b90509250929050565b600080600060608486031215611c8f578081fd5b611c9884611b97565b9250611ca660208501611b97565b9150611cb460408501611b97565b90509250925092565b60008060408385031215611ccf578182fd5b611cd883611b97565b9150602083013567ffffffffffffffff811115611cf3578182fd5b611cff85828601611bae565b9150509250929050565b600060208284031215611d1a578081fd5b5035919050565b60008060408385031215611d33578182fd5b82359150611c7260208401611b97565b600060208284031215611d54578081fd5b81356001600160e01b031981168114611a7c578182fd5b600080600060608486031215611d7f578283fd5b833567ffffffffffffffff80821115611d96578485fd5b611da287838801611bae565b94506020860135915080821115611db7578384fd5b50611dc486828701611bae565b925050611cb460408501611b97565b60008060008060808587031215611de8578081fd5b843567ffffffffffffffff80821115611dff578283fd5b611e0b88838901611bae565b95506020870135915080821115611e20578283fd5b50611e2d87828801611bae565b935050611e3c60408601611b97565b9150611e4a60608601611b97565b905092959194509250565b60008151808452611e6d81602086016020860161227d565b601f01601f19169290920160200192915050565b60008154611e8e816122c4565b808552602060018381168015611eab5760018114611ebf57611eed565b60ff19851688840152604088019550611eed565b866000528260002060005b85811015611ee55781548a8201860152908301908401611eca565b890184019650505b505050505092915050565b6000808354611f06816122c4565b60018281168015611f1e5760018114611f2f57611f5b565b60ff19841687528287019450611f5b565b8786526020808720875b85811015611f525781548a820152908401908201611f39565b50505082870194505b50929695505050505050565b90565b60007f416363657373436f6e74726f6c3a206163636f756e742000000000000000000082528351611fa281601785016020880161227d565b7001034b99036b4b9b9b4b733903937b6329607d1b6017918401918201528351611fd381602884016020880161227d565b01602801949350505050565b6000602080830181845280855180835260408601915060408482028701019250838701855b8281101561203257603f19888603018452612020858351611e55565b94509285019290850190600101612004565b5092979650505050505050565b901515815260200190565b90815260200190565b600060208252611a7c6020830184611e55565b6000606082526120796060830186611e55565b828103602084015261208b8186611e55565b91505060018060a01b0383166040830152949350505050565b6000608082526120b76080830187611e55565b82810360208401526120c98187611e55565b6001600160a01b03958616604085015293909416606090920191909152509392505050565b6000608082526121016080830187611e81565b6001600160a01b03868116602085015283820360408501526121238287611e81565b92508085166060850152505095945050505050565b60006040825261214b6040830185611e81565b828103602084015261215d8185611e81565b95945050505050565b6000606082526121796060830186611e81565b828103602084015261208b8186611e81565b6020808252818101527f537472696e67733a20686578206c656e67746820696e73756666696369656e74604082015260600190565b6020808252601b908201527f436f756e7465723a2064656372656d656e74206f766572666c6f770000000000604082015260600190565b6020808252602f908201527f416363657373436f6e74726f6c3a2063616e206f6e6c792072656e6f756e636560408201526e103937b632b9903337b91039b2b63360891b606082015260800190565b60008219821115612259576122596122ff565b500190565b6000816000190483118215151615612278576122786122ff565b500290565b60005b83811015612298578181015183820152602001612280565b838111156122a7576000848401525b50505050565b6000816122bc576122bc6122ff565b506000190190565b6002810460018216806122d857607f821691505b602082108114156122f957634e487b7160e01b600052602260045260246000fd5b50919050565b634e487b7160e01b600052601160045260246000fd5b634e487b7160e01b600052604160045260246000fdfec9c8e67a61d2e7371df46522b44051b955c16bf4b713ef44e1373b25bfcd80b2a2646970667358221220a10dd547d5adaf3c8a59b863764ae75ca3f64647ef7992fe90412992b5999bf564736f6c6343000800003347a8a9b8917c993d90f37744bb40dfb774c4593d1a1660ed38db000e33156502",
  "immutableReferences": {},
  "source": "pragma solidity ^0.8.0;\r\n\r\n//SPDX-License-Identifier: MIT\r\nimport \"./access/AccessControlEnumerable.sol\";\r\nimport \"./Roles.sol\";\r\nimport \"./openzeppelin/contracts/utils/Counters.sol\";\r\n\r\ncontract MainContract is AccessControl {\r\n    using Counters for Counters.Counter;\r\n\r\n    struct patientRecord {\r\n        string name;\r\n        string personalDetails;\r\n        address hospitalAddress;\r\n        address walletAddress;\r\n        string[] previousPatientRecordHashes;\r\n        string newMedicalRecordHash;\r\n        string[] previousPatientPrescriptionHashes;\r\n        string newPatientPrescriptionHashes;\r\n       \r\n    }\r\n\r\n\r\n    struct doctorRecord {\r\n        string name;\r\n        string personalDetails;\r\n        address hospitalAddress;\r\n        address walletAddress;\r\n    }\r\n\r\n    struct pharmacyRecord {\r\n        string name;\r\n        string personalDetails;\r\n        address walletAddress;\r\n    }\r\n\r\n    struct hospitalRecord {\r\n        string name;\r\n        string hospitalDetails;\r\n        address walletAddress;\r\n        Counters.Counter patientInHospital;\r\n        Counters.Counter doctorInHospital;\r\n    }\r\n\r\n    Counters.Counter patientCounter;\r\n    Counters.Counter doctorCounter;\r\n    Counters.Counter hospitalCounter;\r\n    Counters.Counter pharmacyCounter;\r\n\r\n    //: Constructor\r\n    constructor() {\r\n        _setRoleAdmin(HOSPITAL_ADMIN, HOSPITAL_ADMIN);\r\n        _setRoleAdmin(DOCTOR, HOSPITAL_ADMIN);\r\n        _setRoleAdmin(PATIENT, HOSPITAL_ADMIN);\r\n\r\n        // default role of contract deployer\r\n        _setupRole(DEFAULT_ADMIN_ROLE, msg.sender);\r\n    }\r\n\r\n    event LogStorePatient(\r\n        string name,\r\n        address hospitalAddress,\r\n        string _personalDetails,\r\n        address owner\r\n    );\r\n    event LogUpdatePatientPersonalDetails(string name, string _personalDetails);\r\n\r\n    //: PATIENT DATABASE\r\n    mapping(address => patientRecord) patientDatabase;\r\n\r\n\r\n    function storePatient(\r\n        string memory _name,\r\n        string memory _personalDetails,\r\n        address _hospitalAddress,\r\n        address _walletAddress\r\n    ) external returns (bool status) {\r\n        if (hasRole(PATIENT, _walletAddress)) {\r\n            patientDatabase[_walletAddress].name = _name;\r\n            patientDatabase[_walletAddress].personalDetails = _personalDetails;\r\n            patientDatabase[_walletAddress].hospitalAddress = _hospitalAddress;\r\n            patientDatabase[_walletAddress].walletAddress = _walletAddress;\r\n        } else {\r\n            _setupRole(PATIENT, _walletAddress);\r\n\r\n            patientDatabase[_walletAddress].name = _name;\r\n            patientDatabase[_walletAddress].personalDetails = _personalDetails;\r\n            patientDatabase[_walletAddress].hospitalAddress = _hospitalAddress;\r\n            patientDatabase[_walletAddress].walletAddress = _walletAddress;\r\n            hospitalDatabase[_hospitalAddress].patientInHospital.increment();\r\n            patientCounter.increment();\r\n        }\r\n\r\n        emit LogStorePatient(\r\n            patientDatabase[_walletAddress].name,\r\n            patientDatabase[_walletAddress].hospitalAddress,\r\n            patientDatabase[_walletAddress].personalDetails,\r\n            _walletAddress\r\n        );\r\n\r\n        return true;\r\n    }\r\n\r\n    function changeHospitalForPatient(\r\n        address _previousHospitalAddress,\r\n        address _newHospitalAddress,\r\n        address _walletAddress\r\n    ) external returns (bool status) {\r\n        hospitalDatabase[_previousHospitalAddress].patientInHospital.decrement();\r\n\r\n        patientDatabase[_walletAddress].hospitalAddress = _newHospitalAddress;\r\n\r\n        hospitalDatabase[_newHospitalAddress].patientInHospital.increment();\r\n\r\n        return true;\r\n    }\r\n\r\n   \r\n\r\n    function retrievePatientCount()\r\n        external\r\n        view\r\n        returns (uint256 patientCount)\r\n    {\r\n        return patientCounter.current();\r\n    }\r\n\r\n    function retrievePatientData(address _walletAddress)\r\n        external\r\n        view\r\n        returns (\r\n            string memory name,\r\n            string memory personalDetails,\r\n            address hospitalAddress,\r\n            address walletAddress\r\n        )\r\n    {\r\n        return (\r\n            patientDatabase[_walletAddress].name,\r\n            patientDatabase[_walletAddress].personalDetails,\r\n            patientDatabase[_walletAddress].hospitalAddress,\r\n            _walletAddress\r\n        );\r\n    }\r\n\r\n    function updatePatientPersonalData(\r\n        address _walletAddress,\r\n        string memory _personalDetails\r\n    ) public returns (bool success) {\r\n        patientDatabase[_walletAddress].personalDetails = _personalDetails;\r\n\r\n        emit LogUpdatePatientPersonalDetails(\r\n            patientDatabase[_walletAddress].name,\r\n            patientDatabase[_walletAddress].personalDetails\r\n        );\r\n\r\n        return true;\r\n    }\r\n\r\n    function updatePatientMedicalRecords(\r\n        address _walletAddress,\r\n        string memory medicalRecordHash\r\n    ) external returns (bool status) {\r\n        if (\r\n            keccak256(\r\n                abi.encodePacked(\r\n                    patientDatabase[_walletAddress].newMedicalRecordHash\r\n                )\r\n            ) == keccak256(abi.encodePacked(\"\"))\r\n        ) {\r\n            patientDatabase[_walletAddress]\r\n                .newMedicalRecordHash = medicalRecordHash;\r\n            return true;\r\n        } else {\r\n            patientDatabase[_walletAddress].previousPatientRecordHashes.push(\r\n                patientDatabase[_walletAddress].newMedicalRecordHash\r\n            );\r\n            patientDatabase[_walletAddress]\r\n                .newMedicalRecordHash = medicalRecordHash;\r\n            return true;\r\n        }\r\n    }\r\n\r\n    function updatePatientPrescription(\r\n        address _walletAddress,\r\n        string memory prescriptionHash\r\n    ) external returns (string memory status) {\r\n        if (\r\n            keccak256(\r\n                abi.encodePacked(\r\n                    patientDatabase[_walletAddress].newPatientPrescriptionHashes\r\n                )\r\n            ) == keccak256(abi.encodePacked(\"\"))\r\n        ) {\r\n            patientDatabase[_walletAddress]\r\n                .newPatientPrescriptionHashes = prescriptionHash;\r\n            return \"ENTERED ONCE PRESCRIPTION ONLY\";\r\n        } else {\r\n            patientDatabase[_walletAddress]\r\n                .previousPatientPrescriptionHashes\r\n                .push(\r\n                    patientDatabase[_walletAddress].newPatientPrescriptionHashes\r\n                );\r\n            patientDatabase[_walletAddress]\r\n                .newPatientPrescriptionHashes = prescriptionHash;\r\n            return \"ENTERED TWICE PRESCRIPTION ONLY\";\r\n        }\r\n    }\r\n\r\n    function getNewPrescription(address _patientAddress)\r\n        external\r\n        view\r\n        returns (string memory status)\r\n    {\r\n        return patientDatabase[_patientAddress].newPatientPrescriptionHashes;\r\n    }\r\n\r\n    function getMultiplePrescription(address _patientAddress)\r\n        external\r\n        view\r\n        returns (string[] memory status)\r\n    {\r\n        return\r\n            patientDatabase[_patientAddress].previousPatientPrescriptionHashes;\r\n    }\r\n\r\n    function getNewRecords(address _patientAddress)\r\n        external\r\n        view\r\n        returns (string memory status)\r\n    {\r\n        return patientDatabase[_patientAddress].newMedicalRecordHash;\r\n    }\r\n\r\n    function getMultipleRecords(address _patientAddress)\r\n        external\r\n        view\r\n        returns (string[] memory status)\r\n    {\r\n        return patientDatabase[_patientAddress].previousPatientRecordHashes;\r\n    }\r\n\r\n    event LogStoreDoctor(string name, string personalDetails, address owner);\r\n    event LogUpdateDoctor(string name, string personalDetails);\r\n    event LogDeleteDoctor(string name, uint256 empIdIndex);\r\n\r\n    //: DOCTOR DATABASE\r\n    mapping(address => doctorRecord) doctorDatabase;\r\n\r\n    function storeDoctor(\r\n        string memory name,\r\n        string memory _personalDetails,\r\n        address _hospitalAddress,\r\n        address _walletAddress\r\n    ) external returns (bool status) {\r\n        if (hasRole(DOCTOR, _walletAddress)) {\r\n            _setupRole(DOCTOR, _walletAddress);\r\n            doctorDatabase[_walletAddress].name = name;\r\n            doctorDatabase[_walletAddress].walletAddress = _walletAddress;\r\n            doctorDatabase[_walletAddress].hospitalAddress = _hospitalAddress;\r\n            doctorDatabase[_walletAddress].personalDetails = _personalDetails;\r\n        } else {\r\n            _setupRole(DOCTOR, _walletAddress);\r\n            doctorDatabase[_walletAddress].name = name;\r\n            doctorDatabase[_walletAddress].walletAddress = _walletAddress;\r\n            doctorDatabase[_walletAddress].hospitalAddress = _hospitalAddress;\r\n            doctorDatabase[_walletAddress].personalDetails = _personalDetails;\r\n            hospitalDatabase[_hospitalAddress].doctorInHospital.increment();\r\n            doctorCounter.increment();\r\n        }\r\n\r\n        emit LogStoreDoctor(\r\n            doctorDatabase[_walletAddress].name,\r\n            doctorDatabase[_walletAddress].personalDetails,\r\n            _walletAddress\r\n        );\r\n\r\n        return true;\r\n    }\r\n\r\n     function changeHospitalForDoctor(\r\n        address _previousHospitalAddress,\r\n        address _newHospitalAddress,\r\n        address _walletAddress\r\n    ) external returns (bool status) {\r\n        hospitalDatabase[_previousHospitalAddress].doctorInHospital.decrement();\r\n\r\n        doctorDatabase[_walletAddress].hospitalAddress = _newHospitalAddress;\r\n\r\n        hospitalDatabase[_newHospitalAddress].doctorInHospital.increment();\r\n\r\n        return true;\r\n    }\r\n\r\n    function retrieveDoctorCount() external view returns (uint256 doctorCount) {\r\n        return doctorCounter.current();\r\n    }\r\n\r\n    function retrieveDoctorData(address _walletAddress)\r\n        public\r\n        view\r\n        returns (\r\n            string memory name,\r\n            string memory personalDetails,\r\n            address hospitalAddress\r\n        )\r\n    {\r\n        return (\r\n            doctorDatabase[_walletAddress].name,\r\n            doctorDatabase[_walletAddress].personalDetails,\r\n            doctorDatabase[_walletAddress].hospitalAddress\r\n        );\r\n    }\r\n\r\n    event LogPharmacy(string name, string personalDetails, address owner);\r\n\r\n    //: Pharmacy DATABASE\r\n    mapping(address => pharmacyRecord) pharmacyDatabase;\r\n\r\n    function storePharmacy(\r\n        string memory name,\r\n        string memory _personalDetails,\r\n        address _walletAddress\r\n    ) external returns (bool status) {\r\n        _setupRole(PHARMACY, _walletAddress);\r\n        pharmacyDatabase[_walletAddress].name = name;\r\n        pharmacyDatabase[_walletAddress].walletAddress = _walletAddress;\r\n        pharmacyDatabase[_walletAddress].personalDetails = _personalDetails;\r\n        pharmacyCounter.increment();\r\n        emit LogPharmacy(\r\n            pharmacyDatabase[_walletAddress].name,\r\n            pharmacyDatabase[_walletAddress].personalDetails,\r\n            _walletAddress\r\n        );\r\n\r\n        return true;\r\n    }\r\n\r\n    function retrievePharmacyCount()\r\n        external\r\n        view\r\n        returns (uint256 pharmacyCount)\r\n    {\r\n        return pharmacyCounter.current();\r\n    }\r\n\r\n    function getPharmacyData(address _walletAddress)\r\n        public\r\n        view\r\n        returns (\r\n            string memory name,\r\n            string memory pharmacyDetails,\r\n            address walletAddress\r\n        )\r\n    {\r\n        return (\r\n            pharmacyDatabase[_walletAddress].name,\r\n            pharmacyDatabase[_walletAddress].personalDetails,\r\n            _walletAddress\r\n        );\r\n    }\r\n\r\n    event LogHospital(\r\n        string name,\r\n        string _hospitalDetails,\r\n        address walletAddress\r\n    );\r\n    event LogUpdateHospital(string name, string dateOfBirth);\r\n    event LogDeleteHospital(string name, uint256 empIdIndex);\r\n\r\n    //: HOSPITAL DATABASE\r\n    mapping(address => hospitalRecord) hospitalDatabase;\r\n\r\n    function storeHospital(\r\n        string memory _name,\r\n        string memory _hospitalDetails,\r\n        address _walletAddress\r\n    ) external returns (bool status) {\r\n        _setupRole(HOSPITAL_ADMIN, _walletAddress);\r\n        hospitalDatabase[_walletAddress].name = _name;\r\n        hospitalDatabase[_walletAddress].walletAddress = _walletAddress;\r\n        hospitalDatabase[_walletAddress].hospitalDetails = _hospitalDetails;\r\n        hospitalCounter.increment();\r\n\r\n        emit LogHospital(_name, _hospitalDetails, _walletAddress);\r\n\r\n        return true;\r\n    }\r\n\r\n    function retrieveHospitalCount()\r\n        external\r\n        view\r\n        returns (uint256 hospitalCount)\r\n    {\r\n        return hospitalCounter.current();\r\n    }\r\n\r\n    function retrieveHospitalSpecificCountOfDoctors(address _hospitalAddress)\r\n        external\r\n        view\r\n        returns (uint256 doctorCountInHospital)\r\n    {\r\n        return hospitalDatabase[_hospitalAddress].doctorInHospital.current();\r\n    }\r\n\r\n    function retrieveHospitalSpecificCountOfPatients(address _hospitalAddress)\r\n        external\r\n        view\r\n        returns (uint256 patientCountInHospital)\r\n    {\r\n        return hospitalDatabase[_hospitalAddress].patientInHospital.current();\r\n    }\r\n\r\n    function getHospitalData(address addressOfUser)\r\n        public\r\n        view\r\n        returns (\r\n            string memory _nameAdmin,\r\n            string memory hospitalDetails,\r\n            address walletAddress\r\n        )\r\n    {\r\n        return (\r\n            hospitalDatabase[addressOfUser].name,\r\n            hospitalDatabase[addressOfUser].hospitalDetails,\r\n            hospitalDatabase[addressOfUser].walletAddress\r\n        );\r\n    }\r\n\r\n    // Grant Role VERIFIED_PATIENT To Patient\r\n    function grantRoleVerifiedPatient(\r\n        address _addressOfAdmin,\r\n        address _addressOfPatient\r\n    ) public returns (bool success) {\r\n        require(\r\n            hasRole(HOSPITAL_ADMIN, _addressOfAdmin) ||\r\n                hasRole(VERIFIED_DOCTOR, _addressOfAdmin)\r\n        );\r\n        require(hasRole(PATIENT, _addressOfPatient));\r\n        grantRole(VERIFIED_PATIENT, _addressOfPatient);\r\n        return true;\r\n    }\r\n\r\n    // Grant Role VERIFIED_DOCTOR to Doctor\r\n    function grantRoleVerifiedDoctor(\r\n        address _addressOfAdmin,\r\n        address _addressOfDoctor\r\n    ) public returns (bool success) {\r\n        require(hasRole(HOSPITAL_ADMIN, _addressOfAdmin));\r\n        require(hasRole(DOCTOR, _addressOfDoctor));\r\n        grantRole(VERIFIED_DOCTOR, _addressOfDoctor);\r\n        return true;\r\n    }\r\n}\r\n",
  "sourcePath": "C:\\Users\\Ankita\\AndroidStudioProjects\\blockchain_in_healthcare\\contracts\\MainContract.sol",
  "compiler": {
    "name": "solc",
    "version": "0.8.0+commit.c7dfd78e.Emscripten.clang"
  },
  "schemaVersion": "3.4.3",
  "updatedAt": "2022-01-07T12:15:06.703Z",
  "networkType": "ethereum",
  "devdoc": {
    "kind": "dev",
    "methods": {
      "getRoleAdmin(bytes32)": {
        "details": "Returns the admin role that controls `role`. See {grantRole} and {revokeRole}. To change a role's admin, use {_setRoleAdmin}."
      },
      "grantRole(bytes32,address)": {
        "details": "Grants `role` to `account`. If `account` had not been already granted `role`, emits a {RoleGranted} event. Requirements: - the caller must have ``role``'s admin role."
      },
      "hasRole(bytes32,address)": {
        "details": "Returns `true` if `account` has been granted `role`."
      },
      "renounceRole(bytes32,address)": {
        "details": "Revokes `role` from the calling account. Roles are often managed via {grantRole} and {revokeRole}: this function's purpose is to provide a mechanism for accounts to lose their privileges if they are compromised (such as when a trusted device is misplaced). If the calling account had been granted `role`, emits a {RoleRevoked} event. Requirements: - the caller must be `account`."
      },
      "revokeRole(bytes32,address)": {
        "details": "Revokes `role` from `account`. If `account` had been granted `role`, emits a {RoleRevoked} event. Requirements: - the caller must have ``role``'s admin role."
      },
      "supportsInterface(bytes4)": {
        "details": "See {IERC165-supportsInterface}."
      }
    },
    "version": 1
  },
  "userdoc": {
    "kind": "user",
    "methods": {},
    "version": 1
  }
}