{
  "contractName": "MainContract",
  "abi": [
    {
      "inputs": [],
      "stateMutability": "nonpayable",
      "type": "constructor"
    },
    {
      "anonymous": false,
      "inputs": [
        {
          "indexed": false,
          "internalType": "string",
          "name": "name",
          "type": "string"
        },
        {
          "indexed": false,
          "internalType": "uint256",
          "name": "empIdIndex",
          "type": "uint256"
        }
      ],
      "name": "LogDeleteDoctor",
      "type": "event"
    },
    {
      "anonymous": false,
      "inputs": [
        {
          "indexed": false,
          "internalType": "string",
          "name": "name",
          "type": "string"
        },
        {
          "indexed": false,
          "internalType": "uint256",
          "name": "empIdIndex",
          "type": "uint256"
        }
      ],
      "name": "LogDeleteHospital",
      "type": "event"
    },
    {
      "anonymous": false,
      "inputs": [
        {
          "indexed": false,
          "internalType": "string",
          "name": "name",
          "type": "string"
        },
        {
          "indexed": false,
          "internalType": "string",
          "name": "personalDetails",
          "type": "string"
        },
        {
          "indexed": false,
          "internalType": "address",
          "name": "owner",
          "type": "address"
        }
      ],
      "name": "LogGetPharmacy",
      "type": "event"
    },
    {
      "anonymous": false,
      "inputs": [
        {
          "indexed": false,
          "internalType": "string",
          "name": "name",
          "type": "string"
        },
        {
          "indexed": false,
          "internalType": "string",
          "name": "_hospitalDetails",
          "type": "string"
        },
        {
          "indexed": false,
          "internalType": "address",
          "name": "walletAddress",
          "type": "address"
        }
      ],
      "name": "LogHospital",
      "type": "event"
    },
    {
      "anonymous": false,
      "inputs": [
        {
          "indexed": false,
          "internalType": "string",
          "name": "name",
          "type": "string"
        },
        {
          "indexed": false,
          "internalType": "string",
          "name": "personalDetails",
          "type": "string"
        },
        {
          "indexed": false,
          "internalType": "address",
          "name": "walletAddress",
          "type": "address"
        }
      ],
      "name": "LogStoreDoctor",
      "type": "event"
    },
    {
      "anonymous": false,
      "inputs": [
        {
          "indexed": false,
          "internalType": "string",
          "name": "name",
          "type": "string"
        },
        {
          "indexed": false,
          "internalType": "address",
          "name": "hospitalAddress",
          "type": "address"
        },
        {
          "indexed": false,
          "internalType": "string",
          "name": "_personalDetails",
          "type": "string"
        },
        {
          "indexed": false,
          "internalType": "address",
          "name": "owner",
          "type": "address"
        }
      ],
      "name": "LogStorePatient",
      "type": "event"
    },
    {
      "anonymous": false,
      "inputs": [
        {
          "indexed": false,
          "internalType": "string",
          "name": "name",
          "type": "string"
        },
        {
          "indexed": false,
          "internalType": "string",
          "name": "personalDetails",
          "type": "string"
        },
        {
          "indexed": false,
          "internalType": "address",
          "name": "owner",
          "type": "address"
        }
      ],
      "name": "LogStorePharmacy",
      "type": "event"
    },
    {
      "anonymous": false,
      "inputs": [
        {
          "indexed": false,
          "internalType": "string",
          "name": "name",
          "type": "string"
        },
        {
          "indexed": false,
          "internalType": "string",
          "name": "personalDetails",
          "type": "string"
        }
      ],
      "name": "LogUpdateDoctor",
      "type": "event"
    },
    {
      "anonymous": false,
      "inputs": [
        {
          "indexed": false,
          "internalType": "string",
          "name": "name",
          "type": "string"
        },
        {
          "indexed": false,
          "internalType": "string",
          "name": "dateOfBirth",
          "type": "string"
        }
      ],
      "name": "LogUpdateHospital",
      "type": "event"
    },
    {
      "anonymous": false,
      "inputs": [
        {
          "indexed": false,
          "internalType": "string",
          "name": "_personalDetails",
          "type": "string"
        }
      ],
      "name": "LogUpdatePatientPersonalDetails",
      "type": "event"
    },
    {
      "anonymous": false,
      "inputs": [
        {
          "indexed": true,
          "internalType": "bytes32",
          "name": "role",
          "type": "bytes32"
        },
        {
          "indexed": true,
          "internalType": "bytes32",
          "name": "previousAdminRole",
          "type": "bytes32"
        },
        {
          "indexed": true,
          "internalType": "bytes32",
          "name": "newAdminRole",
          "type": "bytes32"
        }
      ],
      "name": "RoleAdminChanged",
      "type": "event"
    },
    {
      "anonymous": false,
      "inputs": [
        {
          "indexed": true,
          "internalType": "bytes32",
          "name": "role",
          "type": "bytes32"
        },
        {
          "indexed": true,
          "internalType": "address",
          "name": "account",
          "type": "address"
        },
        {
          "indexed": true,
          "internalType": "address",
          "name": "sender",
          "type": "address"
        }
      ],
      "name": "RoleGranted",
      "type": "event"
    },
    {
      "anonymous": false,
      "inputs": [
        {
          "indexed": true,
          "internalType": "bytes32",
          "name": "role",
          "type": "bytes32"
        },
        {
          "indexed": true,
          "internalType": "address",
          "name": "account",
          "type": "address"
        },
        {
          "indexed": true,
          "internalType": "address",
          "name": "sender",
          "type": "address"
        }
      ],
      "name": "RoleRevoked",
      "type": "event"
    },
    {
      "inputs": [],
      "name": "DEFAULT_ADMIN_ROLE",
      "outputs": [
        {
          "internalType": "bytes32",
          "name": "",
          "type": "bytes32"
        }
      ],
      "stateMutability": "view",
      "type": "function",
      "constant": true
    },
    {
      "inputs": [
        {
          "internalType": "bytes32",
          "name": "role",
          "type": "bytes32"
        }
      ],
      "name": "getRoleAdmin",
      "outputs": [
        {
          "internalType": "bytes32",
          "name": "",
          "type": "bytes32"
        }
      ],
      "stateMutability": "view",
      "type": "function",
      "constant": true
    },
    {
      "inputs": [
        {
          "internalType": "bytes32",
          "name": "role",
          "type": "bytes32"
        },
        {
          "internalType": "address",
          "name": "account",
          "type": "address"
        }
      ],
      "name": "grantRole",
      "outputs": [],
      "stateMutability": "nonpayable",
      "type": "function"
    },
    {
      "inputs": [
        {
          "internalType": "bytes32",
          "name": "role",
          "type": "bytes32"
        },
        {
          "internalType": "address",
          "name": "account",
          "type": "address"
        }
      ],
      "name": "hasRole",
      "outputs": [
        {
          "internalType": "bool",
          "name": "",
          "type": "bool"
        }
      ],
      "stateMutability": "view",
      "type": "function",
      "constant": true
    },
    {
      "inputs": [
        {
          "internalType": "bytes32",
          "name": "role",
          "type": "bytes32"
        },
        {
          "internalType": "address",
          "name": "account",
          "type": "address"
        }
      ],
      "name": "renounceRole",
      "outputs": [],
      "stateMutability": "nonpayable",
      "type": "function"
    },
    {
      "inputs": [
        {
          "internalType": "bytes32",
          "name": "role",
          "type": "bytes32"
        },
        {
          "internalType": "address",
          "name": "account",
          "type": "address"
        }
      ],
      "name": "revokeRole",
      "outputs": [],
      "stateMutability": "nonpayable",
      "type": "function"
    },
    {
      "inputs": [
        {
          "internalType": "bytes4",
          "name": "interfaceId",
          "type": "bytes4"
        }
      ],
      "name": "supportsInterface",
      "outputs": [
        {
          "internalType": "bool",
          "name": "",
          "type": "bool"
        }
      ],
      "stateMutability": "view",
      "type": "function",
      "constant": true
    },
    {
      "inputs": [
        {
          "internalType": "string",
          "name": "_name",
          "type": "string"
        },
        {
          "internalType": "string",
          "name": "_personalDetails",
          "type": "string"
        },
        {
          "internalType": "address",
          "name": "_hospitalAddress",
          "type": "address"
        },
        {
          "internalType": "address",
          "name": "_doctorAddress",
          "type": "address"
        },
        {
          "internalType": "address",
          "name": "_walletAddress",
          "type": "address"
        }
      ],
      "name": "storePatient",
      "outputs": [
        {
          "internalType": "bool",
          "name": "status",
          "type": "bool"
        }
      ],
      "stateMutability": "nonpayable",
      "type": "function"
    },
    {
      "inputs": [
        {
          "internalType": "string",
          "name": "_personalDetails",
          "type": "string"
        },
        {
          "internalType": "address",
          "name": "_walletAddress",
          "type": "address"
        }
      ],
      "name": "updatePatientPersonalDetailHash",
      "outputs": [
        {
          "internalType": "bool",
          "name": "status",
          "type": "bool"
        }
      ],
      "stateMutability": "nonpayable",
      "type": "function"
    },
    {
      "inputs": [
        {
          "internalType": "string",
          "name": "newPatientPrescriptionHashes",
          "type": "string"
        },
        {
          "internalType": "address",
          "name": "_walletAddress",
          "type": "address"
        }
      ],
      "name": "updatePatientPrescriptionHash",
      "outputs": [
        {
          "internalType": "bool",
          "name": "status",
          "type": "bool"
        }
      ],
      "stateMutability": "nonpayable",
      "type": "function"
    },
    {
      "inputs": [
        {
          "internalType": "address",
          "name": "_previousHospitalAddress",
          "type": "address"
        },
        {
          "internalType": "address",
          "name": "_newHospitalAddress",
          "type": "address"
        },
        {
          "internalType": "address",
          "name": "_walletAddress",
          "type": "address"
        }
      ],
      "name": "changeHospitalForPatient",
      "outputs": [
        {
          "internalType": "bool",
          "name": "status",
          "type": "bool"
        }
      ],
      "stateMutability": "nonpayable",
      "type": "function"
    },
    {
      "inputs": [
        {
          "internalType": "address",
          "name": "_previousDoctorAddress",
          "type": "address"
        },
        {
          "internalType": "address",
          "name": "_newDoctorAddress",
          "type": "address"
        },
        {
          "internalType": "address",
          "name": "_walletAddress",
          "type": "address"
        }
      ],
      "name": "changeDoctorForPatient",
      "outputs": [
        {
          "internalType": "bool",
          "name": "status",
          "type": "bool"
        }
      ],
      "stateMutability": "nonpayable",
      "type": "function"
    },
    {
      "inputs": [],
      "name": "retrievePatientCount",
      "outputs": [
        {
          "internalType": "uint256",
          "name": "patientCount",
          "type": "uint256"
        }
      ],
      "stateMutability": "view",
      "type": "function",
      "constant": true
    },
    {
      "inputs": [
        {
          "internalType": "address",
          "name": "_walletAddress",
          "type": "address"
        }
      ],
      "name": "retrievePatientData",
      "outputs": [
        {
          "internalType": "string",
          "name": "name",
          "type": "string"
        },
        {
          "internalType": "string",
          "name": "personalDetails",
          "type": "string"
        },
        {
          "internalType": "address",
          "name": "hospitalAddress",
          "type": "address"
        },
        {
          "internalType": "address",
          "name": "walletAddress",
          "type": "address"
        }
      ],
      "stateMutability": "view",
      "type": "function",
      "constant": true
    },
    {
      "inputs": [
        {
          "internalType": "address",
          "name": "_walletAddress",
          "type": "address"
        },
        {
          "internalType": "string",
          "name": "_personalDetails",
          "type": "string"
        }
      ],
      "name": "updatePatientPersonalData",
      "outputs": [
        {
          "internalType": "bool",
          "name": "success",
          "type": "bool"
        }
      ],
      "stateMutability": "nonpayable",
      "type": "function"
    },
    {
      "inputs": [
        {
          "internalType": "address",
          "name": "_walletAddress",
          "type": "address"
        },
        {
          "internalType": "string",
          "name": "medicalRecordHash",
          "type": "string"
        }
      ],
      "name": "updatePatientMedicalRecords",
      "outputs": [
        {
          "internalType": "bool",
          "name": "status",
          "type": "bool"
        }
      ],
      "stateMutability": "nonpayable",
      "type": "function"
    },
    {
      "inputs": [
        {
          "internalType": "address",
          "name": "_walletAddress",
          "type": "address"
        },
        {
          "internalType": "string",
          "name": "prescriptionHash",
          "type": "string"
        }
      ],
      "name": "updatePatientPrescription",
      "outputs": [
        {
          "internalType": "bool",
          "name": "status",
          "type": "bool"
        }
      ],
      "stateMutability": "nonpayable",
      "type": "function"
    },
    {
      "inputs": [
        {
          "internalType": "address",
          "name": "_patientAddress",
          "type": "address"
        }
      ],
      "name": "getNewPrescription",
      "outputs": [
        {
          "internalType": "string",
          "name": "status",
          "type": "string"
        }
      ],
      "stateMutability": "view",
      "type": "function",
      "constant": true
    },
    {
      "inputs": [
        {
          "internalType": "address",
          "name": "_patientAddress",
          "type": "address"
        }
      ],
      "name": "getMultiplePrescription",
      "outputs": [
        {
          "internalType": "string[]",
          "name": "status",
          "type": "string[]"
        }
      ],
      "stateMutability": "view",
      "type": "function",
      "constant": true
    },
    {
      "inputs": [
        {
          "internalType": "address",
          "name": "_patientAddress",
          "type": "address"
        }
      ],
      "name": "getNewRecords",
      "outputs": [
        {
          "internalType": "string",
          "name": "status",
          "type": "string"
        }
      ],
      "stateMutability": "view",
      "type": "function",
      "constant": true
    },
    {
      "inputs": [
        {
          "internalType": "address",
          "name": "_patientAddress",
          "type": "address"
        }
      ],
      "name": "getMultipleRecords",
      "outputs": [
        {
          "internalType": "string[]",
          "name": "status",
          "type": "string[]"
        }
      ],
      "stateMutability": "view",
      "type": "function",
      "constant": true
    },
    {
      "inputs": [
        {
          "internalType": "string",
          "name": "name",
          "type": "string"
        },
        {
          "internalType": "string",
          "name": "_personalDetails",
          "type": "string"
        },
        {
          "internalType": "address",
          "name": "_hospitalAddress",
          "type": "address"
        },
        {
          "internalType": "address",
          "name": "_walletAddress",
          "type": "address"
        }
      ],
      "name": "storeDoctor",
      "outputs": [
        {
          "internalType": "bool",
          "name": "status",
          "type": "bool"
        }
      ],
      "stateMutability": "nonpayable",
      "type": "function"
    },
    {
      "inputs": [
        {
          "internalType": "string",
          "name": "_personalDetails",
          "type": "string"
        },
        {
          "internalType": "address",
          "name": "_walletAddress",
          "type": "address"
        }
      ],
      "name": "updateDoctorPersonalDetailHash",
      "outputs": [
        {
          "internalType": "bool",
          "name": "status",
          "type": "bool"
        }
      ],
      "stateMutability": "nonpayable",
      "type": "function"
    },
    {
      "inputs": [
        {
          "internalType": "address",
          "name": "_previousHospitalAddress",
          "type": "address"
        },
        {
          "internalType": "address",
          "name": "_newHospitalAddress",
          "type": "address"
        },
        {
          "internalType": "address",
          "name": "_walletAddress",
          "type": "address"
        }
      ],
      "name": "changeHospitalForDoctor",
      "outputs": [
        {
          "internalType": "bool",
          "name": "status",
          "type": "bool"
        }
      ],
      "stateMutability": "nonpayable",
      "type": "function"
    },
    {
      "inputs": [],
      "name": "retrieveDoctorCount",
      "outputs": [
        {
          "internalType": "uint256",
          "name": "doctorCount",
          "type": "uint256"
        }
      ],
      "stateMutability": "view",
      "type": "function",
      "constant": true
    },
    {
      "inputs": [
        {
          "internalType": "address",
          "name": "_walletAddress",
          "type": "address"
        }
      ],
      "name": "retrieveDoctorData",
      "outputs": [
        {
          "internalType": "string",
          "name": "name",
          "type": "string"
        },
        {
          "internalType": "string",
          "name": "personalDetails",
          "type": "string"
        },
        {
          "internalType": "address",
          "name": "hospitalAddress",
          "type": "address"
        }
      ],
      "stateMutability": "view",
      "type": "function",
      "constant": true
    },
    {
      "inputs": [
        {
          "internalType": "string",
          "name": "name",
          "type": "string"
        },
        {
          "internalType": "string",
          "name": "_personalDetails",
          "type": "string"
        },
        {
          "internalType": "address",
          "name": "_walletAddress",
          "type": "address"
        }
      ],
      "name": "storePharmacy",
      "outputs": [
        {
          "internalType": "bool",
          "name": "status",
          "type": "bool"
        }
      ],
      "stateMutability": "nonpayable",
      "type": "function"
    },
    {
      "inputs": [
        {
          "internalType": "string",
          "name": "_personalDetails",
          "type": "string"
        },
        {
          "internalType": "address",
          "name": "_walletAddress",
          "type": "address"
        }
      ],
      "name": "updatePharmacyPersonalDetailHash",
      "outputs": [
        {
          "internalType": "bool",
          "name": "status",
          "type": "bool"
        }
      ],
      "stateMutability": "nonpayable",
      "type": "function"
    },
    {
      "inputs": [],
      "name": "retrievePharmacyCount",
      "outputs": [
        {
          "internalType": "uint256",
          "name": "pharmacyCount",
          "type": "uint256"
        }
      ],
      "stateMutability": "view",
      "type": "function",
      "constant": true
    },
    {
      "inputs": [
        {
          "internalType": "address",
          "name": "_walletAddress",
          "type": "address"
        }
      ],
      "name": "getPharmacyData",
      "outputs": [
        {
          "internalType": "string",
          "name": "name",
          "type": "string"
        },
        {
          "internalType": "string",
          "name": "pharmacyDetails",
          "type": "string"
        },
        {
          "internalType": "address",
          "name": "walletAddress",
          "type": "address"
        }
      ],
      "stateMutability": "view",
      "type": "function",
      "constant": true
    },
    {
      "inputs": [
        {
          "internalType": "string",
          "name": "_name",
          "type": "string"
        },
        {
          "internalType": "string",
          "name": "_hospitalDetails",
          "type": "string"
        },
        {
          "internalType": "address",
          "name": "_walletAddress",
          "type": "address"
        }
      ],
      "name": "storeHospital",
      "outputs": [
        {
          "internalType": "bool",
          "name": "status",
          "type": "bool"
        }
      ],
      "stateMutability": "nonpayable",
      "type": "function"
    },
    {
      "inputs": [
        {
          "internalType": "string",
          "name": "_personalDetails",
          "type": "string"
        },
        {
          "internalType": "address",
          "name": "_walletAddress",
          "type": "address"
        }
      ],
      "name": "updateHospitalPersonalDetailHash",
      "outputs": [
        {
          "internalType": "bool",
          "name": "status",
          "type": "bool"
        }
      ],
      "stateMutability": "nonpayable",
      "type": "function"
    },
    {
      "inputs": [],
      "name": "retrieveHospitalCount",
      "outputs": [
        {
          "internalType": "uint256",
          "name": "hospitalCount",
          "type": "uint256"
        }
      ],
      "stateMutability": "view",
      "type": "function",
      "constant": true
    },
    {
      "inputs": [
        {
          "internalType": "address",
          "name": "_hospitalAddress",
          "type": "address"
        }
      ],
      "name": "retrieveHospitalSpecificCountOfDoctors",
      "outputs": [
        {
          "internalType": "uint256",
          "name": "doctorCountInHospital",
          "type": "uint256"
        }
      ],
      "stateMutability": "view",
      "type": "function",
      "constant": true
    },
    {
      "inputs": [
        {
          "internalType": "address",
          "name": "_hospitalAddress",
          "type": "address"
        }
      ],
      "name": "retrieveHospitalSpecificCountOfPatients",
      "outputs": [
        {
          "internalType": "uint256",
          "name": "patientCountInHospital",
          "type": "uint256"
        }
      ],
      "stateMutability": "view",
      "type": "function",
      "constant": true
    },
    {
      "inputs": [
        {
          "internalType": "address",
          "name": "addressOfUser",
          "type": "address"
        }
      ],
      "name": "getHospitalData",
      "outputs": [
        {
          "internalType": "string",
          "name": "_nameAdmin",
          "type": "string"
        },
        {
          "internalType": "string",
          "name": "hospitalDetails",
          "type": "string"
        },
        {
          "internalType": "address",
          "name": "walletAddress",
          "type": "address"
        }
      ],
      "stateMutability": "view",
      "type": "function",
      "constant": true
    },
    {
      "inputs": [
        {
          "internalType": "address",
          "name": "_addressOfAdmin",
          "type": "address"
        },
        {
          "internalType": "address",
          "name": "_addressOfPatient",
          "type": "address"
        }
      ],
      "name": "grantRoleVerifiedPatient",
      "outputs": [
        {
          "internalType": "bool",
          "name": "success",
          "type": "bool"
        }
      ],
      "stateMutability": "nonpayable",
      "type": "function"
    },
    {
      "inputs": [
        {
          "internalType": "address",
          "name": "_addressOfAdmin",
          "type": "address"
        },
        {
          "internalType": "address",
          "name": "_addressOfDoctor",
          "type": "address"
        }
      ],
      "name": "grantRoleVerifiedDoctor",
      "outputs": [
        {
          "internalType": "bool",
          "name": "success",
          "type": "bool"
        }
      ],
      "stateMutability": "nonpayable",
      "type": "function"
    }
  ],
  "bytecode": "0x60806040523480156200001157600080fd5b506200002d60008051602062002a0e83398151915280620000b6565b620000687fc9c8e67a61d2e7371df46522b44051b955c16bf4b713ef44e1373b25bfcd80b260008051602062002a0e833981519152620000b6565b620000a37fe5786ee6f50ab1a5567cb3f3f6840a2f4ddbafdf4a35cb2c52d5b732b1e84a3260008051602062002a0e833981519152620000b6565b620000b06000336200010b565b620001e7565b6000620000c3836200011b565b600084815260208190526040808220600101859055519192508391839186917fbd79b86ffe0ab8e8776151514217cd7cacd52c909f66475c3af44e129f0b00ff9190a4505050565b62000117828262000130565b5050565b60009081526020819052604090206001015490565b6200013c8282620001ba565b62000117576000828152602081815260408083206001600160a01b03851684529091529020805460ff1916600117905562000176620001e3565b6001600160a01b0316816001600160a01b0316837f2f8788117e7eff1d82e926ec794901d17c78024a50270940304540a733656f0d60405160405180910390a45050565b6000918252602082815260408084206001600160a01b0393909316845291905290205460ff1690565b3390565b61281780620001f76000396000f3fe608060405234801561001057600080fd5b50600436106102325760003560e01c80638b55befc11610130578063cdca8f7c116100b8578063e8300b1d1161007c578063e8300b1d146104e7578063edae7fb5146104fa578063f98d5d2514610502578063fcd4014b1461050a578063fffaff421461051d57610232565b8063cdca8f7c14610488578063ce65e5e31461049b578063d547741f146104ae578063e21eadcc146104c1578063e37e9696146104d457610232565b8063a9909db9116100ff578063a9909db914610429578063ac2918671461043c578063b9a47e901461044f578063c12878c314610462578063c99ead641461047557610232565b80638b55befc146103e857806391d14854146103fb578063a217fddf1461040e578063a84ceab71461041657610232565b8063389e3894116101be5780635c7231ef116101825780635c7231ef1461038757806373e830b41461039a5780637799c049146103a257806377aee292146103c25780637d379853146103d557610232565b8063389e3894146103195780633f9c10901461033b57806345118d8e1461034e5780634edf897f146103615780635bf9c0e31461037457610232565b8063224ccd0f11610205578063224ccd0f146102ab578063248a9ca3146102cb578063259a49a5146102de5780632f2ff15d146102f157806336568abe1461030657610232565b806301ffc9a7146102375780630a086b15146102605780630b6003451461027557806316d8b45b14610288575b600080fd5b61024a6102453660046120de565b610530565b60405161025791906124b0565b60405180910390f35b61026861055d565b60405161025791906124bb565b61024a610283366004612149565b61056e565b61029b610296366004611fca565b610646565b6040516102579493929190612515565b6102be6102b9366004611fca565b6107a2565b6040516102579190612450565b6102686102d93660046120a4565b610894565b61024a6102ec366004612106565b6108a9565b6103046102ff3660046120bc565b610903565b005b6103046103143660046120bc565b61092c565b61032c610327366004611fca565b61097b565b604051610257939291906124d7565b61024a610349366004612058565b610ad4565b61024a61035c366004612016565b610b02565b61024a61036f3660046121b1565b610b96565b61024a610382366004612106565b610d87565b61024a610395366004612016565b610dd5565b610268610e5f565b6103b56103b0366004611fca565b610e6b565b60405161025791906124c4565b6102be6103d0366004611fca565b610f1a565b61024a6103e3366004612233565b611000565b6102686103f6366004611fca565b611262565b61024a6104093660046120bc565b611286565b6102686112af565b61024a610424366004612016565b6112b4565b61024a610437366004612106565b61132b565b6103b561044a366004611fca565b6113e1565b61024a61045d366004611fe4565b61140b565b610268610470366004611fca565b6114a9565b61024a610483366004612149565b6114cd565b61024a610496366004612106565b6115bf565b61024a6104a9366004612106565b6115eb565b6103046104bc3660046120bc565b611617565b61032c6104cf366004611fca565b611636565b61024a6104e2366004611fe4565b6117ad565b61032c6104f5366004611fca565b61181b565b610268611855565b610268611861565b61024a610518366004612058565b61186d565b61024a61052b366004612058565b61198d565b60006001600160e01b03198216637965db0b60e01b1480610555575061055582611aa5565b90505b919050565b60006105696004611abe565b905090565b60006105886000805160206127c283398151915283611ac2565b6001600160a01b038216600090815260086020908152604090912085516105b192870190611e1e565b506001600160a01b03821660008181526008602090815260409091206002810180546001600160a01b03191690931790925584516105f59260010191860190611e1e565b506106006003611acc565b7ff1ed66ce17e814997c731a53029e891da3b3665c7d89fd2a257363990098c1be848484604051610633939291906124d7565b60405180910390a15060015b9392505050565b6001600160a01b038082166000908152600560205260408120600381015481546060948594938493909260018401929190911690889084906106879061271a565b80601f01602080910402602001604051908101604052809291908181526020018280546106b39061271a565b80156107005780601f106106d557610100808354040283529160200191610700565b820191906000526020600020905b8154815290600101906020018083116106e357829003601f168201915b505050505093508280546107139061271a565b80601f016020809104026020016040519081016040528092919081815260200182805461073f9061271a565b801561078c5780601f106107615761010080835404028352916020019161078c565b820191906000526020600020905b81548152906001019060200180831161076f57829003601f168201915b5050505050925093509350935093509193509193565b6001600160a01b0381166000908152600560209081526040808320600701805482518185028101850190935280835260609492939192909184015b828210156108895783829060005260206000200180546107fc9061271a565b80601f01602080910402602001604051908101604052809291908181526020018280546108289061271a565b80156108755780601f1061084a57610100808354040283529160200191610875565b820191906000526020600020905b81548152906001019060200180831161085857829003601f168201915b5050505050815260200190600101906107dd565b505050509050919050565b60009081526020819052604090206001015490565b60006108c360008051602061278283398151915283611286565b156108f9576001600160a01b038216600090815260056020908152604090912084516108f792600890920191860190611e1e565b505b5060015b92915050565b61090c82610894565b61091d81610918611ad5565b611ad9565b6109278383611b3d565b505050565b610934611ad5565b6001600160a01b0316816001600160a01b03161461096d5760405162461bcd60e51b81526004016109649061264d565b60405180910390fd5b6109778282611bc2565b5050565b6001600160a01b03808216600090815260066020526040812060048101546001820180546060958695949293600290930192169083906109ba9061271a565b80601f01602080910402602001604051908101604052809291908181526020018280546109e69061271a565b8015610a335780601f10610a0857610100808354040283529160200191610a33565b820191906000526020600020905b815481529060010190602001808311610a1657829003601f168201915b50505050509250818054610a469061271a565b80601f0160208091040260200160405190810160405280929190818152602001828054610a729061271a565b8015610abf5780601f10610a9457610100808354040283529160200191610abf565b820191906000526020600020905b815481529060010190602001808311610aa257829003601f168201915b505050505091509250925092505b9193909250565b6001600160a01b0382166000908152600560209081526040822083516108f792600190920191850190611e1e565b6000610b1c60008051602061278283398151915283611286565b1561063f576001600160a01b0384166000908152600860205260409020610b4590600301611c45565b6001600160a01b038281166000908152600560209081526040808320600390810180546001600160a01b031916958916958617905593835260089091529020610b8e9101611acc565b50600161063f565b6000610bb06000805160206127a283398151915283611286565b15610c5757610bcd6000805160206127a283398151915283611ac2565b6001600160a01b03821660009081526006602090815260409091208651610bfc92600190920191880190611e1e565b506001600160a01b03828116600081815260066020908152604090912080546001600160a01b03199081169093178155600481018054909316938716939093179091558551610c519260020191870190611e1e565b50610d22565b610c6f6000805160206127a283398151915283611ac2565b6001600160a01b03821660009081526006602090815260409091208651610c9e92600190920191880190611e1e565b506001600160a01b03828116600081815260066020908152604090912080546001600160a01b03199081169093178155600481018054909316938716939093179091558551610cf39260020191870190611e1e565b506001600160a01b0383166000908152600860205260409020610d1890600401611acc565b610d226002611acc565b6001600160a01b0382166000908152600660205260409081902090517f094f9e983e464406960b58ac311309ef38583f6e33af8d47f93b0c048e60c7cf91610d749160018201916002019086906125bc565b60405180910390a1506001949350505050565b6000610da16000805160206127c283398151915283611286565b156108f9576001600160a01b038216600090815260056020908152604090912084516108f792600190920191860190611e1e565b6000610def60008051602061278283398151915283611286565b1561063f576001600160a01b0384166000908152600660205260409020610e1890600501611c45565b6001600160a01b03828116600090815260056020818152604080842060020180546001600160a01b031916958916958617905593835260069052919020610b8e9101611acc565b60006105696001611abe565b6001600160a01b0381166000908152600560205260409020600601805460609190610e959061271a565b80601f0160208091040260200160405190810160405280929190818152602001828054610ec19061271a565b8015610f0e5780601f10610ee357610100808354040283529160200191610f0e565b820191906000526020600020905b815481529060010190602001808311610ef157829003601f168201915b50505050509050919050565b6001600160a01b03811660009081526005602081815260408084209092018054835181840281018401909452808452606094919290919084015b82821015610889578382906000526020600020018054610f739061271a565b80601f0160208091040260200160405190810160405280929190818152602001828054610f9f9061271a565b8015610fec5780601f10610fc157610100808354040283529160200191610fec565b820191906000526020600020905b815481529060010190602001808311610fcf57829003601f168201915b505050505081526020019060010190610f54565b600061102c7fe5786ee6f50ab1a5567cb3f3f6840a2f4ddbafdf4a35cb2c52d5b732b1e84a3283611286565b156110df576001600160a01b0382166000908152600560209081526040909120875161105a92890190611e1e565b506001600160a01b0382166000908152600560209081526040909120865161108a92600190920191880190611e1e565b506001600160a01b0382811660008181526005602052604090206003810180546001600160a01b03199081168986161790915560028201805482169488169490941790935560040180549092161790556111f8565b6111097fe5786ee6f50ab1a5567cb3f3f6840a2f4ddbafdf4a35cb2c52d5b732b1e84a3283611ac2565b6001600160a01b0382166000908152600560209081526040909120875161113292890190611e1e565b506001600160a01b0382166000908152600560209081526040909120865161116292600190920191880190611e1e565b506001600160a01b038083166000818152600560208181526040808420600381018054888d166001600160a01b03199182161790915560048201805482169097179096556002018054968a169690951686179094559382526006909352206111ca9101611acc565b6001600160a01b03841660009081526008602052604090206111ee90600301611acc565b6111f86001611acc565b6001600160a01b0380831660009081526005602052604090819020600381015491517f3b8a83fdecb2b3e9bf160eeb2f3112ba4bdad2159cb6783bc884ab9712bb58b49361124e93169060018301908790612572565b60405180910390a150600195945050505050565b6001600160a01b038116600090815260086020526040812061055590600301611abe565b6000918252602082815260408084206001600160a01b0393909316845291905290205460ff1690565b600081565b6001600160a01b03831660009081526008602052604081206112d890600401611c45565b6001600160a01b038281166000908152600660209081526040808320600490810180546001600160a01b0319169589169586179055938352600890915290206113219101611acc565b5060019392505050565b600061134560008051602061278283398151915283611286565b156108f9576001600160a01b0382166000908152600560209081526040909120845161137992600190920191860190611e1e565b507f6cf77aa8d9dc244ce6e0c9f000638b1474de4e19cb94dc7615edc4e60a9bbea260056000846001600160a01b03166001600160a01b031681526020019081526020016000206001016040516113d0919061255f565b60405180910390a150600192915050565b6001600160a01b0381166000908152600560205260409020600801805460609190610e959061271a565b60006114256000805160206127c283398151915284611286565b8061145557506114557faa5dabedfa16172c67f74bf2293d462402d380790ac2275169499fcded0d780584611286565b61145e57600080fd5b6114887fe5786ee6f50ab1a5567cb3f3f6840a2f4ddbafdf4a35cb2c52d5b732b1e84a3283611286565b61149157600080fd5b6108f960008051602061278283398151915283610903565b6001600160a01b038116600090815260086020526040812061055590600401611abe565b60006114f97f6d960d3aada907633a701143a0c8a0657b9ed1e77b6d2d8b56e5d8813982e10c83611ac2565b6001600160a01b0382166000908152600760209081526040909120855161152292870190611e1e565b506001600160a01b03821660008181526007602090815260409091206002810180546001600160a01b03191690931790925584516115669260010191860190611e1e565b506115716004611acc565b6001600160a01b0382166000908152600760205260409081902090517ff143a46358d668a0fe39cbb22e990687e6cb90e04015f286fad8531dcb9715c09161063391600182019086906125bc565b6000610da17f6d960d3aada907633a701143a0c8a0657b9ed1e77b6d2d8b56e5d8813982e10c83611286565b6000610da17faa5dabedfa16172c67f74bf2293d462402d380790ac2275169499fcded0d780583611286565b61162082610894565b61162c81610918611ad5565b6109278383611bc2565b60608060006116657f6d960d3aada907633a701143a0c8a0657b9ed1e77b6d2d8b56e5d8813982e10c85611286565b15610acd576001600160a01b038416600090815260076020526040902080546001820190869083906116969061271a565b80601f01602080910402602001604051908101604052809291908181526020018280546116c29061271a565b801561170f5780601f106116e45761010080835404028352916020019161170f565b820191906000526020600020905b8154815290600101906020018083116116f257829003601f168201915b505050505092508180546117229061271a565b80601f016020809104026020016040519081016040528092919081815260200182805461174e9061271a565b801561179b5780601f106117705761010080835404028352916020019161179b565b820191906000526020600020905b81548152906001019060200180831161177e57829003601f168201915b50505050509150925092509250610acd565b60006117c76000805160206127c283398151915284611286565b6117d057600080fd5b6117e86000805160206127a283398151915283611286565b6117f157600080fd5b6108f97faa5dabedfa16172c67f74bf2293d462402d380790ac2275169499fcded0d780583610903565b6001600160a01b0380821660009081526008602052604081206002810154815460609485949392600184019291169083906109ba9061271a565b60006105696002611abe565b60006105696003611abe565b600060405160200161187e906123d8565b60408051601f1981840301815282825280516020918201206001600160a01b0387166000908152600583529290922091926118bd926006019101612369565b604051602081830303815290604052805190602001201415611912576001600160a01b0383166000908152600560209081526040909120835161190892600690920191850190611e1e565b50600190506108fd565b6001600160a01b0383166000908152600560208181526040832091820180546001810182559084529220600690910180549190920191906119529061271a565b61195d929190611ea2565b506001600160a01b0383166000908152600560209081526040909120835161190892600690920191850190611e1e565b600060405160200161199e906123d8565b60408051601f1981840301815282825280516020918201206001600160a01b0387166000908152600583529290922091926119dd926008019101612369565b604051602081830303815290604052805190602001201415611a28576001600160a01b0383166000908152600560209081526040909120835161190892600890920191850190611e1e565b6001600160a01b0383166000908152600560209081526040822060078101805460018101825590845291909220600890920180549290910191611a6a9061271a565b611a75929190611ea2565b506001600160a01b0383166000908152600560209081526040909120835161190892600890920191850190611e1e565b6001600160e01b031981166301ffc9a760e01b14919050565b5490565b6109778282611b3d565b80546001019055565b3390565b611ae38282611286565b61097757611afb816001600160a01b03166014611c6c565b611b06836020611c6c565b604051602001611b179291906123db565b60408051601f198184030181529082905262461bcd60e51b8252610964916004016124c4565b611b478282611286565b610977576000828152602081815260408083206001600160a01b03851684529091529020805460ff19166001179055611b7e611ad5565b6001600160a01b0316816001600160a01b0316837f2f8788117e7eff1d82e926ec794901d17c78024a50270940304540a733656f0d60405160405180910390a45050565b611bcc8282611286565b15610977576000828152602081815260408083206001600160a01b03851684529091529020805460ff19169055611c01611ad5565b6001600160a01b0316816001600160a01b0316837ff6391f5c32d9c69d2a47ea670b442974b53935d1edc7fd64eb21e047a839171b60405160405180910390a45050565b805480611c645760405162461bcd60e51b815260040161096490612616565b600019019055565b60606000611c7b8360026126b4565b611c8690600261269c565b67ffffffffffffffff811115611cac57634e487b7160e01b600052604160045260246000fd5b6040519080825280601f01601f191660200182016040528015611cd6576020820181803683370190505b509050600360fc1b81600081518110611cff57634e487b7160e01b600052603260045260246000fd5b60200101906001600160f81b031916908160001a905350600f60fb1b81600181518110611d3c57634e487b7160e01b600052603260045260246000fd5b60200101906001600160f81b031916908160001a9053506000611d608460026126b4565b611d6b90600161269c565b90505b6001811115611dff576f181899199a1a9b1b9c1cb0b131b232b360811b85600f1660108110611dad57634e487b7160e01b600052603260045260246000fd5b1a60f81b828281518110611dd157634e487b7160e01b600052603260045260246000fd5b60200101906001600160f81b031916908160001a90535060049490941c93611df881612703565b9050611d6e565b50831561063f5760405162461bcd60e51b8152600401610964906125e1565b828054611e2a9061271a565b90600052602060002090601f016020900481019282611e4c5760008555611e92565b82601f10611e6557805160ff1916838001178555611e92565b82800160010185558215611e92579182015b82811115611e92578251825591602001919060010190611e77565b50611e9e929150611f1d565b5090565b828054611eae9061271a565b90600052602060002090601f016020900481019282611ed05760008555611e92565b82601f10611ee15780548555611e92565b82800160010185558215611e9257600052602060002091601f016020900482015b82811115611e92578254825591600101919060010190611f02565b5b80821115611e9e5760008155600101611f1e565b80356001600160a01b038116811461055857600080fd5b600082601f830112611f59578081fd5b813567ffffffffffffffff80821115611f7457611f7461276b565b604051601f8301601f191681016020018281118282101715611f9857611f9861276b565b604052828152848301602001861015611faf578384fd5b82602086016020830137918201602001929092529392505050565b600060208284031215611fdb578081fd5b61063f82611f32565b60008060408385031215611ff6578081fd5b611fff83611f32565b915061200d60208401611f32565b90509250929050565b60008060006060848603121561202a578081fd5b61203384611f32565b925061204160208501611f32565b915061204f60408501611f32565b90509250925092565b6000806040838503121561206a578182fd5b61207383611f32565b9150602083013567ffffffffffffffff81111561208e578182fd5b61209a85828601611f49565b9150509250929050565b6000602082840312156120b5578081fd5b5035919050565b600080604083850312156120ce578182fd5b8235915061200d60208401611f32565b6000602082840312156120ef578081fd5b81356001600160e01b03198116811461063f578182fd5b60008060408385031215612118578182fd5b823567ffffffffffffffff81111561212e578283fd5b61213a85828601611f49565b92505061200d60208401611f32565b60008060006060848603121561215d578283fd5b833567ffffffffffffffff80821115612174578485fd5b61218087838801611f49565b94506020860135915080821115612195578384fd5b506121a286828701611f49565b92505061204f60408501611f32565b600080600080608085870312156121c6578081fd5b843567ffffffffffffffff808211156121dd578283fd5b6121e988838901611f49565b955060208701359150808211156121fe578283fd5b5061220b87828801611f49565b93505061221a60408601611f32565b915061222860608601611f32565b905092959194509250565b600080600080600060a0868803121561224a578081fd5b853567ffffffffffffffff80821115612261578283fd5b61226d89838a01611f49565b96506020880135915080821115612282578283fd5b5061228f88828901611f49565b94505061229e60408701611f32565b92506122ac60608701611f32565b91506122ba60808701611f32565b90509295509295909350565b600081518084526122de8160208601602086016126d3565b601f01601f19169290920160200192915050565b600081546122ff8161271a565b80855260206001838116801561231c57600181146123305761235e565b60ff1985168884015260408801955061235e565b866000528260002060005b858110156123565781548a820186015290830190840161233b565b890184019650505b505050505092915050565b60008083546123778161271a565b6001828116801561238f57600181146123a0576123cc565b60ff198416875282870194506123cc565b8786526020808720875b858110156123c35781548a8201529084019082016123aa565b50505082870194505b50929695505050505050565b90565b60007f416363657373436f6e74726f6c3a206163636f756e7420000000000000000000825283516124138160178501602088016126d3565b7001034b99036b4b9b9b4b733903937b6329607d1b60179184019182015283516124448160288401602088016126d3565b01602801949350505050565b6000602080830181845280855180835260408601915060408482028701019250838701855b828110156124a357603f198886030184526124918583516122c6565b94509285019290850190600101612475565b5092979650505050505050565b901515815260200190565b90815260200190565b60006020825261063f60208301846122c6565b6000606082526124ea60608301866122c6565b82810360208401526124fc81866122c6565b91505060018060a01b0383166040830152949350505050565b60006080825261252860808301876122c6565b828103602084015261253a81876122c6565b6001600160a01b03958616604085015293909416606090920191909152509392505050565b60006020825261063f60208301846122f2565b60006080825261258560808301876122f2565b6001600160a01b03868116602085015283820360408501526125a782876122f2565b92508085166060850152505095945050505050565b6000606082526125cf60608301866122f2565b82810360208401526124fc81866122f2565b6020808252818101527f537472696e67733a20686578206c656e67746820696e73756666696369656e74604082015260600190565b6020808252601b908201527f436f756e7465723a2064656372656d656e74206f766572666c6f770000000000604082015260600190565b6020808252602f908201527f416363657373436f6e74726f6c3a2063616e206f6e6c792072656e6f756e636560408201526e103937b632b9903337b91039b2b63360891b606082015260800190565b600082198211156126af576126af612755565b500190565b60008160001904831182151516156126ce576126ce612755565b500290565b60005b838110156126ee5781810151838201526020016126d6565b838111156126fd576000848401525b50505050565b60008161271257612712612755565b506000190190565b60028104600182168061272e57607f821691505b6020821081141561274f57634e487b7160e01b600052602260045260246000fd5b50919050565b634e487b7160e01b600052601160045260246000fd5b634e487b7160e01b600052604160045260246000fdfe0e55d2d590eb481461be8bfa869367231c671a31d6401bfeaf2d5cb5787ff252c9c8e67a61d2e7371df46522b44051b955c16bf4b713ef44e1373b25bfcd80b247a8a9b8917c993d90f37744bb40dfb774c4593d1a1660ed38db000e33156502a2646970667358221220487b1ab28cbb237831694c533a8e6dba87e9269f676d0c139a9d58c95c00095d64736f6c6343000800003347a8a9b8917c993d90f37744bb40dfb774c4593d1a1660ed38db000e33156502",
  "immutableReferences": {},
  "source": "pragma solidity ^0.8.0;\r\n\r\n//SPDX-License-Identifier: MIT\r\nimport \"./access/AccessControlEnumerable.sol\";\r\nimport \"./Roles.sol\";\r\nimport \"./openzeppelin/contracts/utils/Counters.sol\";\r\n\r\ncontract MainContract is AccessControl {\r\n    using Counters for Counters.Counter;\r\n\r\n    struct patientRecord {\r\n        string name;\r\n        string personalDetails;\r\n        address doctorAddress;\r\n        address hospitalAddress;\r\n        address walletAddress;\r\n        string[] previousPatientRecordHashes;\r\n        string newMedicalRecordHash;\r\n        string[] previousPatientPrescriptionHashes;\r\n        string newPatientPrescriptionHashes;\r\n    }\r\n\r\n    struct doctorRecord {\r\n        address walletAddress;\r\n        string name;\r\n        string personalDetails;\r\n        string docSpecialization;\r\n        address hospitalAddress;\r\n        Counters.Counter patientCount;\r\n    }\r\n\r\n    struct pharmacyRecord {\r\n        string name;\r\n        string personalDetails;\r\n        address walletAddress;\r\n    }\r\n\r\n    struct hospitalRecord {\r\n        string name;\r\n        string hospitalDetails;\r\n        address walletAddress;\r\n        Counters.Counter patientInHospital;\r\n        Counters.Counter doctorInHospital;\r\n    }\r\n\r\n    Counters.Counter patientCounter;\r\n    Counters.Counter doctorCounter;\r\n    Counters.Counter hospitalCounter;\r\n    Counters.Counter pharmacyCounter;\r\n\r\n    //: Constructor\r\n    constructor() {\r\n        _setRoleAdmin(HOSPITAL_ADMIN, HOSPITAL_ADMIN);\r\n        _setRoleAdmin(DOCTOR, HOSPITAL_ADMIN);\r\n        _setRoleAdmin(PATIENT, HOSPITAL_ADMIN);\r\n\r\n        // default role of contract deployer\r\n        _setupRole(DEFAULT_ADMIN_ROLE, msg.sender);\r\n    }\r\n\r\n    event LogStorePatient(\r\n        string name,\r\n        address hospitalAddress,\r\n        string _personalDetails,\r\n        address owner\r\n    );\r\n    event LogUpdatePatientPersonalDetails(string _personalDetails);\r\n\r\n    //: PATIENT DATABASE\r\n    mapping(address => patientRecord) patientDatabase;\r\n\r\n    function storePatient(\r\n        string memory _name,\r\n        string memory _personalDetails,\r\n        address _hospitalAddress,\r\n        address _doctorAddress,\r\n        address _walletAddress\r\n    ) external returns (bool status) {\r\n        if (hasRole(PATIENT, _walletAddress)) {\r\n            patientDatabase[_walletAddress].name = _name;\r\n            patientDatabase[_walletAddress].personalDetails = _personalDetails;\r\n            patientDatabase[_walletAddress].hospitalAddress = _hospitalAddress;\r\n            patientDatabase[_walletAddress].doctorAddress = _doctorAddress;\r\n            patientDatabase[_walletAddress].walletAddress = _walletAddress;\r\n        } else {\r\n            _setupRole(PATIENT, _walletAddress);\r\n            patientDatabase[_walletAddress].name = _name;\r\n            patientDatabase[_walletAddress].personalDetails = _personalDetails;\r\n            patientDatabase[_walletAddress].hospitalAddress = _hospitalAddress;\r\n            patientDatabase[_walletAddress].walletAddress = _walletAddress;\r\n            patientDatabase[_walletAddress].doctorAddress = _doctorAddress;\r\n\r\n            doctorDatabase[_doctorAddress].patientCount.increment();\r\n\r\n            hospitalDatabase[_hospitalAddress].patientInHospital.increment();\r\n            patientCounter.increment();\r\n        }\r\n\r\n        emit LogStorePatient(\r\n            patientDatabase[_walletAddress].name,\r\n            patientDatabase[_walletAddress].hospitalAddress,\r\n            patientDatabase[_walletAddress].personalDetails,\r\n            _walletAddress\r\n        );\r\n        return true;\r\n    }\r\n\r\n    // RHEA:- MAKE FUNCTIONS BELOW FOR ALL ENTITIES\r\n    function updatePatientPersonalDetailHash(\r\n        string memory _personalDetails,\r\n        address _walletAddress\r\n    ) external returns (bool status) {\r\n        if (hasRole(VERIFIED_PATIENT, _walletAddress)) {\r\n            patientDatabase[_walletAddress].personalDetails = _personalDetails;\r\n             emit LogUpdatePatientPersonalDetails(\r\n            patientDatabase[_walletAddress].personalDetails\r\n        );\r\n        }\r\n\r\n        return true;\r\n    }\r\n\r\n    function updatePatientPrescriptionHash(\r\n        string memory newPatientPrescriptionHashes,\r\n        address _walletAddress\r\n    ) external returns (bool status) {\r\n        if (hasRole(VERIFIED_PATIENT, _walletAddress)) {\r\n            patientDatabase[_walletAddress]\r\n                .newPatientPrescriptionHashes = newPatientPrescriptionHashes;\r\n        }\r\n\r\n        return true;\r\n    }\r\n\r\n    function changeHospitalForPatient(\r\n        address _previousHospitalAddress,\r\n        address _newHospitalAddress,\r\n        address _walletAddress\r\n    ) external returns (bool status) {\r\n        if (hasRole(VERIFIED_PATIENT, _walletAddress)) {\r\n            hospitalDatabase[_previousHospitalAddress]\r\n                .patientInHospital\r\n                .decrement();\r\n\r\n            patientDatabase[_walletAddress]\r\n                .hospitalAddress = _newHospitalAddress;\r\n\r\n            hospitalDatabase[_newHospitalAddress].patientInHospital.increment();\r\n             return true;\r\n        }\r\n       \r\n    }\r\n\r\n    function changeDoctorForPatient(\r\n        address _previousDoctorAddress,\r\n        address _newDoctorAddress,\r\n        address _walletAddress\r\n    ) external returns (bool status) {\r\n        if (hasRole(VERIFIED_PATIENT, _walletAddress)) {\r\n            doctorDatabase[_previousDoctorAddress]\r\n                .patientCount\r\n                .decrement();\r\n\r\n            patientDatabase[_walletAddress]\r\n                .doctorAddress = _newDoctorAddress;\r\n\r\n            doctorDatabase[_newDoctorAddress].patientCount.increment();\r\n             return true;\r\n        }\r\n       \r\n    }\r\n\r\n    function retrievePatientCount()\r\n        external\r\n        view\r\n        returns (uint256 patientCount)\r\n    {\r\n        return patientCounter.current();\r\n    }\r\n\r\n    function retrievePatientData(address _walletAddress)\r\n        external\r\n        view\r\n        returns (\r\n            string memory name,\r\n            string memory personalDetails,\r\n            address hospitalAddress,\r\n            address walletAddress\r\n        )\r\n    {\r\n        return (\r\n            patientDatabase[_walletAddress].name,\r\n            patientDatabase[_walletAddress].personalDetails,\r\n            patientDatabase[_walletAddress].hospitalAddress,\r\n            _walletAddress\r\n        );\r\n    }\r\n\r\n    function updatePatientPersonalData(\r\n        address _walletAddress,\r\n        string memory _personalDetails\r\n    ) public returns (bool success) {\r\n        patientDatabase[_walletAddress].personalDetails = _personalDetails;\r\n\r\n       \r\n\r\n        return true;\r\n    }\r\n\r\n    function updatePatientMedicalRecords(\r\n        address _walletAddress,\r\n        string memory medicalRecordHash\r\n    ) external returns (bool status) {\r\n        if (\r\n            keccak256(\r\n                abi.encodePacked(\r\n                    patientDatabase[_walletAddress].newMedicalRecordHash\r\n                )\r\n            ) == keccak256(abi.encodePacked(\"\"))\r\n        ) {\r\n            patientDatabase[_walletAddress]\r\n                .newMedicalRecordHash = medicalRecordHash;\r\n            return true;\r\n        } else {\r\n            patientDatabase[_walletAddress].previousPatientRecordHashes.push(\r\n                patientDatabase[_walletAddress].newMedicalRecordHash\r\n            );\r\n            patientDatabase[_walletAddress]\r\n                .newMedicalRecordHash = medicalRecordHash;\r\n            return true;\r\n        }\r\n    }\r\n\r\n    function updatePatientPrescription(\r\n        address _walletAddress,\r\n        string memory prescriptionHash\r\n    ) external returns (bool status) {\r\n        if (\r\n            keccak256(\r\n                abi.encodePacked(\r\n                    patientDatabase[_walletAddress].newPatientPrescriptionHashes\r\n                )\r\n            ) == keccak256(abi.encodePacked(\"\"))\r\n        ) {\r\n            patientDatabase[_walletAddress]\r\n                .newPatientPrescriptionHashes = prescriptionHash;\r\n            return true;\r\n        } else {\r\n            patientDatabase[_walletAddress]\r\n                .previousPatientPrescriptionHashes\r\n                .push(\r\n                    patientDatabase[_walletAddress].newPatientPrescriptionHashes\r\n                );\r\n            patientDatabase[_walletAddress]\r\n                .newPatientPrescriptionHashes = prescriptionHash;\r\n            return true;\r\n        }\r\n    }\r\n\r\n    function getNewPrescription(address _patientAddress)\r\n        external\r\n        view\r\n        returns (string memory status)\r\n    {\r\n        return patientDatabase[_patientAddress].newPatientPrescriptionHashes;\r\n    }\r\n\r\n    function getMultiplePrescription(address _patientAddress)\r\n        external\r\n        view\r\n        returns (string[] memory status)\r\n    {\r\n        return\r\n            patientDatabase[_patientAddress].previousPatientPrescriptionHashes;\r\n    }\r\n\r\n    function getNewRecords(address _patientAddress)\r\n        external\r\n        view\r\n        returns (string memory status)\r\n    {\r\n        return patientDatabase[_patientAddress].newMedicalRecordHash;\r\n    }\r\n\r\n    function getMultipleRecords(address _patientAddress)\r\n        external\r\n        view\r\n        returns (string[] memory status)\r\n    {\r\n        return patientDatabase[_patientAddress].previousPatientRecordHashes;\r\n    }\r\n\r\n    event LogStoreDoctor(string name, string personalDetails, address walletAddress);\r\n    event LogUpdateDoctor(string name, string personalDetails);\r\n    event LogDeleteDoctor(string name, uint256 empIdIndex);\r\n\r\n    //: DOCTOR DATABASE\r\n    mapping(address => doctorRecord) doctorDatabase;\r\n\r\n    function storeDoctor(\r\n        string memory name,\r\n        string memory _personalDetails,\r\n        address _hospitalAddress,\r\n        address _walletAddress\r\n    ) external returns (bool status) {\r\n        if (hasRole(DOCTOR, _walletAddress)) {\r\n            _setupRole(DOCTOR, _walletAddress);\r\n            doctorDatabase[_walletAddress].name = name;\r\n            doctorDatabase[_walletAddress].walletAddress = _walletAddress;\r\n            doctorDatabase[_walletAddress].hospitalAddress = _hospitalAddress;\r\n            doctorDatabase[_walletAddress].personalDetails = _personalDetails;\r\n        } else {\r\n            _setupRole(DOCTOR, _walletAddress);\r\n            doctorDatabase[_walletAddress].name = name;\r\n            doctorDatabase[_walletAddress].walletAddress = _walletAddress;\r\n            doctorDatabase[_walletAddress].hospitalAddress = _hospitalAddress;\r\n            doctorDatabase[_walletAddress].personalDetails = _personalDetails;\r\n\r\n            hospitalDatabase[_hospitalAddress].doctorInHospital.increment();\r\n            doctorCounter.increment();\r\n        }\r\n\r\n        emit LogStoreDoctor(\r\n            doctorDatabase[_walletAddress].name,\r\n            doctorDatabase[_walletAddress].personalDetails,\r\n            _walletAddress\r\n        );\r\n\r\n        return true;\r\n    }\r\n\r\n    //updated function.\r\n    function updateDoctorPersonalDetailHash(\r\n        string memory _personalDetails,\r\n        address _walletAddress\r\n    ) external returns (bool status) {\r\n        if (hasRole(VERIFIED_DOCTOR, _walletAddress)) {\r\n            patientDatabase[_walletAddress].personalDetails = _personalDetails;\r\n        }\r\n\r\n        return true;\r\n    }\r\n\r\n    function changeHospitalForDoctor(\r\n        address _previousHospitalAddress,\r\n        address _newHospitalAddress,\r\n        address _walletAddress\r\n    ) external returns (bool status) {\r\n        hospitalDatabase[_previousHospitalAddress].doctorInHospital.decrement();\r\n\r\n        doctorDatabase[_walletAddress].hospitalAddress = _newHospitalAddress;\r\n\r\n        hospitalDatabase[_newHospitalAddress].doctorInHospital.increment();\r\n\r\n        return true;\r\n    }\r\n\r\n    function retrieveDoctorCount() external view returns (uint256 doctorCount) {\r\n        return doctorCounter.current();\r\n    }\r\n\r\n    function retrieveDoctorData(address _walletAddress)\r\n        public\r\n        view\r\n        returns (\r\n            string memory name,\r\n            string memory personalDetails,\r\n            address hospitalAddress\r\n        )\r\n    {\r\n        return (\r\n            doctorDatabase[_walletAddress].name,\r\n            doctorDatabase[_walletAddress].personalDetails,\r\n            doctorDatabase[_walletAddress].hospitalAddress\r\n        );\r\n    }\r\n\r\n    event LogStorePharmacy(string name, string personalDetails, address owner);\r\n    event LogGetPharmacy(string name, string personalDetails, address owner);\r\n\r\n    //: Pharmacy DATABASE\r\n    mapping(address => pharmacyRecord) pharmacyDatabase;\r\n\r\n    function storePharmacy(\r\n        string memory name,\r\n        string memory _personalDetails,\r\n        address _walletAddress\r\n    ) external returns (bool status) {\r\n        _setupRole(PHARMACY, _walletAddress);\r\n        pharmacyDatabase[_walletAddress].name = name;\r\n        pharmacyDatabase[_walletAddress].walletAddress = _walletAddress;\r\n        pharmacyDatabase[_walletAddress].personalDetails = _personalDetails;\r\n        pharmacyCounter.increment();\r\n        emit LogStorePharmacy(\r\n            pharmacyDatabase[_walletAddress].name,\r\n            pharmacyDatabase[_walletAddress].personalDetails,\r\n            _walletAddress\r\n        );\r\n\r\n        return true;\r\n    }\r\n\r\n    //updated function.\r\n    function updatePharmacyPersonalDetailHash(\r\n        string memory _personalDetails,\r\n        address _walletAddress\r\n    ) external returns (bool status) {\r\n        if (hasRole(PHARMACY, _walletAddress)) {\r\n            patientDatabase[_walletAddress].personalDetails = _personalDetails;\r\n        }\r\n\r\n        return true;\r\n    }\r\n\r\n    function retrievePharmacyCount()\r\n        external\r\n        view\r\n        returns (uint256 pharmacyCount)\r\n    {\r\n        return pharmacyCounter.current();\r\n    }\r\n\r\n    function getPharmacyData(address _walletAddress)\r\n        public\r\n        view\r\n        returns (\r\n            string memory name,\r\n            string memory pharmacyDetails,\r\n            address walletAddress\r\n        )\r\n    {\r\n         if (hasRole(PHARMACY, _walletAddress)) {\r\n        return (\r\n            \r\n            pharmacyDatabase[_walletAddress].name,\r\n            pharmacyDatabase[_walletAddress].personalDetails,\r\n            _walletAddress\r\n        );\r\n         }\r\n    }\r\n\r\n    event LogHospital(\r\n        string name,\r\n        string _hospitalDetails,\r\n        address walletAddress\r\n    );\r\n    event LogUpdateHospital(string name, string dateOfBirth);\r\n    event LogDeleteHospital(string name, uint256 empIdIndex);\r\n\r\n    //: HOSPITAL DATABASE\r\n    mapping(address => hospitalRecord) hospitalDatabase;\r\n\r\n    function storeHospital(\r\n        string memory _name,\r\n        string memory _hospitalDetails,\r\n        address _walletAddress\r\n    ) external returns (bool status) {\r\n        _setupRole(HOSPITAL_ADMIN, _walletAddress);\r\n        hospitalDatabase[_walletAddress].name = _name;\r\n        hospitalDatabase[_walletAddress].walletAddress = _walletAddress;\r\n        hospitalDatabase[_walletAddress].hospitalDetails = _hospitalDetails;\r\n        hospitalCounter.increment();\r\n\r\n        emit LogHospital(_name, _hospitalDetails, _walletAddress);\r\n\r\n        return true;\r\n    }\r\n\r\n    //updated function\r\n    function updateHospitalPersonalDetailHash(\r\n        string memory _personalDetails,\r\n        address _walletAddress\r\n    ) external returns (bool status) {\r\n        if (hasRole(HOSPITAL_ADMIN, _walletAddress)) {\r\n            patientDatabase[_walletAddress].personalDetails = _personalDetails;\r\n        }\r\n\r\n        return true;\r\n    }\r\n\r\n    function retrieveHospitalCount()\r\n        external\r\n        view\r\n        returns (uint256 hospitalCount)\r\n    {\r\n        return hospitalCounter.current();\r\n    }\r\n\r\n    function retrieveHospitalSpecificCountOfDoctors(address _hospitalAddress)\r\n        external\r\n        view\r\n        returns (uint256 doctorCountInHospital)\r\n    {\r\n        return hospitalDatabase[_hospitalAddress].doctorInHospital.current();\r\n    }\r\n\r\n    function retrieveHospitalSpecificCountOfPatients(address _hospitalAddress)\r\n        external\r\n        view\r\n        returns (uint256 patientCountInHospital)\r\n    {\r\n        return hospitalDatabase[_hospitalAddress].patientInHospital.current();\r\n    }\r\n\r\n    function getHospitalData(address addressOfUser)\r\n        public\r\n        view\r\n        returns (\r\n            string memory _nameAdmin,\r\n            string memory hospitalDetails,\r\n            address walletAddress\r\n        )\r\n    {\r\n        return (\r\n            hospitalDatabase[addressOfUser].name,\r\n            hospitalDatabase[addressOfUser].hospitalDetails,\r\n            hospitalDatabase[addressOfUser].walletAddress\r\n        );\r\n    }\r\n\r\n    // Grant Role VERIFIED_PATIENT To Patient\r\n    function grantRoleVerifiedPatient(\r\n        address _addressOfAdmin,\r\n        address _addressOfPatient\r\n    ) public returns (bool success) {\r\n        require(\r\n            hasRole(HOSPITAL_ADMIN, _addressOfAdmin) ||\r\n                hasRole(VERIFIED_DOCTOR, _addressOfAdmin)\r\n        );\r\n        require(hasRole(PATIENT, _addressOfPatient));\r\n        grantRole(VERIFIED_PATIENT, _addressOfPatient);\r\n        return true;\r\n    }\r\n\r\n    // Grant Role VERIFIED_DOCTOR to Doctor\r\n    function grantRoleVerifiedDoctor(\r\n        address _addressOfAdmin,\r\n        address _addressOfDoctor\r\n    ) public returns (bool success) {\r\n        require(hasRole(HOSPITAL_ADMIN, _addressOfAdmin));\r\n        require(hasRole(DOCTOR, _addressOfDoctor));\r\n        grantRole(VERIFIED_DOCTOR, _addressOfDoctor);\r\n        return true;\r\n    }\r\n}\r\n",
  "sourcePath": "C:\\Users\\reube\\Documents\\blockchain_in_healthcare\\contracts\\MainContract.sol",
  "compiler": {
    "name": "solc",
    "version": "0.8.0+commit.c7dfd78e.Emscripten.clang"
  },
  "schemaVersion": "3.4.4",
  "updatedAt": "2022-01-11T03:36:05.621Z",
  "networkType": "ethereum",
  "devdoc": {
    "kind": "dev",
    "methods": {
      "getRoleAdmin(bytes32)": {
        "details": "Returns the admin role that controls `role`. See {grantRole} and {revokeRole}. To change a role's admin, use {_setRoleAdmin}."
      },
      "grantRole(bytes32,address)": {
        "details": "Grants `role` to `account`. If `account` had not been already granted `role`, emits a {RoleGranted} event. Requirements: - the caller must have ``role``'s admin role."
      },
      "hasRole(bytes32,address)": {
        "details": "Returns `true` if `account` has been granted `role`."
      },
      "renounceRole(bytes32,address)": {
        "details": "Revokes `role` from the calling account. Roles are often managed via {grantRole} and {revokeRole}: this function's purpose is to provide a mechanism for accounts to lose their privileges if they are compromised (such as when a trusted device is misplaced). If the calling account had been granted `role`, emits a {RoleRevoked} event. Requirements: - the caller must be `account`."
      },
      "revokeRole(bytes32,address)": {
        "details": "Revokes `role` from `account`. If `account` had been granted `role`, emits a {RoleRevoked} event. Requirements: - the caller must have ``role``'s admin role."
      },
      "supportsInterface(bytes4)": {
        "details": "See {IERC165-supportsInterface}."
      }
    },
    "version": 1
  },
  "userdoc": {
    "kind": "user",
    "methods": {},
    "version": 1
  }
}