{
  "contractName": "MainContract",
  "abi": [
    {
      "inputs": [],
      "stateMutability": "nonpayable",
      "type": "constructor"
    },
    {
      "anonymous": false,
      "inputs": [
        {
          "indexed": false,
          "internalType": "string",
          "name": "name",
          "type": "string"
        },
        {
          "indexed": false,
          "internalType": "uint256",
          "name": "empIdIndex",
          "type": "uint256"
        }
      ],
      "name": "LogDeleteDoctor",
      "type": "event"
    },
    {
      "anonymous": false,
      "inputs": [
        {
          "indexed": false,
          "internalType": "string",
          "name": "name",
          "type": "string"
        },
        {
          "indexed": false,
          "internalType": "uint256",
          "name": "empIdIndex",
          "type": "uint256"
        }
      ],
      "name": "LogDeleteHospital",
      "type": "event"
    },
    {
      "anonymous": false,
      "inputs": [
        {
          "indexed": false,
          "internalType": "string",
          "name": "name",
          "type": "string"
        },
        {
          "indexed": false,
          "internalType": "string",
          "name": "personalDetails",
          "type": "string"
        },
        {
          "indexed": false,
          "internalType": "address",
          "name": "owner",
          "type": "address"
        }
      ],
      "name": "LogGetPharmacy",
      "type": "event"
    },
    {
      "anonymous": false,
      "inputs": [
        {
          "indexed": false,
          "internalType": "string",
          "name": "name",
          "type": "string"
        },
        {
          "indexed": false,
          "internalType": "string",
          "name": "_hospitalDetails",
          "type": "string"
        },
        {
          "indexed": false,
          "internalType": "address",
          "name": "walletAddress",
          "type": "address"
        }
      ],
      "name": "LogHospital",
      "type": "event"
    },
    {
      "anonymous": false,
      "inputs": [
        {
          "indexed": false,
          "internalType": "string",
          "name": "name",
          "type": "string"
        },
        {
          "indexed": false,
          "internalType": "string",
          "name": "personalDetails",
          "type": "string"
        },
        {
          "indexed": false,
          "internalType": "address",
          "name": "walletAddress",
          "type": "address"
        }
      ],
      "name": "LogStoreDoctor",
      "type": "event"
    },
    {
      "anonymous": false,
      "inputs": [
        {
          "indexed": false,
          "internalType": "string",
          "name": "name",
          "type": "string"
        },
        {
          "indexed": false,
          "internalType": "address",
          "name": "hospitalAddress",
          "type": "address"
        },
        {
          "indexed": false,
          "internalType": "string",
          "name": "_personalDetails",
          "type": "string"
        },
        {
          "indexed": false,
          "internalType": "address",
          "name": "owner",
          "type": "address"
        }
      ],
      "name": "LogStorePatient",
      "type": "event"
    },
    {
      "anonymous": false,
      "inputs": [
        {
          "indexed": false,
          "internalType": "string",
          "name": "name",
          "type": "string"
        },
        {
          "indexed": false,
          "internalType": "string",
          "name": "personalDetails",
          "type": "string"
        },
        {
          "indexed": false,
          "internalType": "address",
          "name": "owner",
          "type": "address"
        }
      ],
      "name": "LogStorePharmacy",
      "type": "event"
    },
    {
      "anonymous": false,
      "inputs": [
        {
          "indexed": false,
          "internalType": "string",
          "name": "name",
          "type": "string"
        },
        {
          "indexed": false,
          "internalType": "string",
          "name": "personalDetails",
          "type": "string"
        }
      ],
      "name": "LogUpdateDoctor",
      "type": "event"
    },
    {
      "anonymous": false,
      "inputs": [
        {
          "indexed": false,
          "internalType": "string",
          "name": "name",
          "type": "string"
        },
        {
          "indexed": false,
          "internalType": "string",
          "name": "dateOfBirth",
          "type": "string"
        }
      ],
      "name": "LogUpdateHospital",
      "type": "event"
    },
    {
      "anonymous": false,
      "inputs": [
        {
          "indexed": false,
          "internalType": "string",
          "name": "_personalDetails",
          "type": "string"
        }
      ],
      "name": "LogUpdatePatientPersonalDetails",
      "type": "event"
    },
    {
      "anonymous": false,
      "inputs": [
        {
          "indexed": true,
          "internalType": "bytes32",
          "name": "role",
          "type": "bytes32"
        },
        {
          "indexed": true,
          "internalType": "bytes32",
          "name": "previousAdminRole",
          "type": "bytes32"
        },
        {
          "indexed": true,
          "internalType": "bytes32",
          "name": "newAdminRole",
          "type": "bytes32"
        }
      ],
      "name": "RoleAdminChanged",
      "type": "event"
    },
    {
      "anonymous": false,
      "inputs": [
        {
          "indexed": true,
          "internalType": "bytes32",
          "name": "role",
          "type": "bytes32"
        },
        {
          "indexed": true,
          "internalType": "address",
          "name": "account",
          "type": "address"
        },
        {
          "indexed": true,
          "internalType": "address",
          "name": "sender",
          "type": "address"
        }
      ],
      "name": "RoleGranted",
      "type": "event"
    },
    {
      "anonymous": false,
      "inputs": [
        {
          "indexed": true,
          "internalType": "bytes32",
          "name": "role",
          "type": "bytes32"
        },
        {
          "indexed": true,
          "internalType": "address",
          "name": "account",
          "type": "address"
        },
        {
          "indexed": true,
          "internalType": "address",
          "name": "sender",
          "type": "address"
        }
      ],
      "name": "RoleRevoked",
      "type": "event"
    },
    {
      "inputs": [],
      "name": "DEFAULT_ADMIN_ROLE",
      "outputs": [
        {
          "internalType": "bytes32",
          "name": "",
          "type": "bytes32"
        }
      ],
      "stateMutability": "view",
      "type": "function",
      "constant": true
    },
    {
      "inputs": [
        {
          "internalType": "bytes32",
          "name": "role",
          "type": "bytes32"
        }
      ],
      "name": "getRoleAdmin",
      "outputs": [
        {
          "internalType": "bytes32",
          "name": "",
          "type": "bytes32"
        }
      ],
      "stateMutability": "view",
      "type": "function",
      "constant": true
    },
    {
      "inputs": [
        {
          "internalType": "bytes32",
          "name": "role",
          "type": "bytes32"
        },
        {
          "internalType": "address",
          "name": "account",
          "type": "address"
        }
      ],
      "name": "grantRole",
      "outputs": [],
      "stateMutability": "nonpayable",
      "type": "function"
    },
    {
      "inputs": [
        {
          "internalType": "bytes32",
          "name": "role",
          "type": "bytes32"
        },
        {
          "internalType": "address",
          "name": "account",
          "type": "address"
        }
      ],
      "name": "hasRole",
      "outputs": [
        {
          "internalType": "bool",
          "name": "",
          "type": "bool"
        }
      ],
      "stateMutability": "view",
      "type": "function",
      "constant": true
    },
    {
      "inputs": [
        {
          "internalType": "bytes32",
          "name": "role",
          "type": "bytes32"
        },
        {
          "internalType": "address",
          "name": "account",
          "type": "address"
        }
      ],
      "name": "renounceRole",
      "outputs": [],
      "stateMutability": "nonpayable",
      "type": "function"
    },
    {
      "inputs": [
        {
          "internalType": "bytes32",
          "name": "role",
          "type": "bytes32"
        },
        {
          "internalType": "address",
          "name": "account",
          "type": "address"
        }
      ],
      "name": "revokeRole",
      "outputs": [],
      "stateMutability": "nonpayable",
      "type": "function"
    },
    {
      "inputs": [
        {
          "internalType": "bytes4",
          "name": "interfaceId",
          "type": "bytes4"
        }
      ],
      "name": "supportsInterface",
      "outputs": [
        {
          "internalType": "bool",
          "name": "",
          "type": "bool"
        }
      ],
      "stateMutability": "view",
      "type": "function",
      "constant": true
    },
    {
      "inputs": [
        {
          "internalType": "string",
          "name": "source",
          "type": "string"
        }
      ],
      "name": "stringToBytes32",
      "outputs": [
        {
          "internalType": "bytes32",
          "name": "result",
          "type": "bytes32"
        }
      ],
      "stateMutability": "pure",
      "type": "function",
      "constant": true
    },
    {
      "inputs": [
        {
          "internalType": "string",
          "name": "_name",
          "type": "string"
        },
        {
          "internalType": "string",
          "name": "_personalDetails",
          "type": "string"
        },
        {
          "internalType": "address",
          "name": "_hospitalAddress",
          "type": "address"
        },
        {
          "internalType": "address",
          "name": "_doctorAddress",
          "type": "address"
        },
        {
          "internalType": "address",
          "name": "_walletAddress",
          "type": "address"
        }
      ],
      "name": "storePatient",
      "outputs": [
        {
          "internalType": "bool",
          "name": "status",
          "type": "bool"
        }
      ],
      "stateMutability": "nonpayable",
      "type": "function"
    },
    {
      "inputs": [
        {
          "internalType": "string",
          "name": "_personalDetails",
          "type": "string"
        },
        {
          "internalType": "address",
          "name": "_walletAddress",
          "type": "address"
        }
      ],
      "name": "updatePatientPersonalDetailHash",
      "outputs": [
        {
          "internalType": "bool",
          "name": "status",
          "type": "bool"
        }
      ],
      "stateMutability": "nonpayable",
      "type": "function"
    },
    {
      "inputs": [
        {
          "internalType": "string",
          "name": "newPatientPrescriptionHashes",
          "type": "string"
        },
        {
          "internalType": "address",
          "name": "_walletAddress",
          "type": "address"
        }
      ],
      "name": "updatePatientPrescriptionHash",
      "outputs": [
        {
          "internalType": "bool",
          "name": "status",
          "type": "bool"
        }
      ],
      "stateMutability": "nonpayable",
      "type": "function"
    },
    {
      "inputs": [
        {
          "internalType": "address",
          "name": "_previousHospitalAddress",
          "type": "address"
        },
        {
          "internalType": "address",
          "name": "_newHospitalAddress",
          "type": "address"
        },
        {
          "internalType": "address",
          "name": "_walletAddress",
          "type": "address"
        }
      ],
      "name": "changeHospitalForPatient",
      "outputs": [
        {
          "internalType": "bool",
          "name": "status",
          "type": "bool"
        }
      ],
      "stateMutability": "nonpayable",
      "type": "function"
    },
    {
      "inputs": [
        {
          "internalType": "address",
          "name": "_previousDoctorAddress",
          "type": "address"
        },
        {
          "internalType": "address",
          "name": "_newDoctorAddress",
          "type": "address"
        },
        {
          "internalType": "address",
          "name": "_walletAddress",
          "type": "address"
        }
      ],
      "name": "changeDoctorForPatient",
      "outputs": [
        {
          "internalType": "bool",
          "name": "status",
          "type": "bool"
        }
      ],
      "stateMutability": "nonpayable",
      "type": "function"
    },
    {
      "inputs": [],
      "name": "retrievePatientCount",
      "outputs": [
        {
          "internalType": "uint256",
          "name": "patientCount",
          "type": "uint256"
        }
      ],
      "stateMutability": "view",
      "type": "function",
      "constant": true
    },
    {
      "inputs": [
        {
          "internalType": "address",
          "name": "_walletAddress",
          "type": "address"
        }
      ],
      "name": "retrievePatientData",
      "outputs": [
        {
          "internalType": "string",
          "name": "name",
          "type": "string"
        },
        {
          "internalType": "string",
          "name": "personalDetails",
          "type": "string"
        },
        {
          "internalType": "address",
          "name": "hospitalAddress",
          "type": "address"
        },
        {
          "internalType": "address",
          "name": "walletAddress",
          "type": "address"
        }
      ],
      "stateMutability": "view",
      "type": "function",
      "constant": true
    },
    {
      "inputs": [
        {
          "internalType": "address",
          "name": "_walletAddress",
          "type": "address"
        },
        {
          "internalType": "string",
          "name": "_personalDetails",
          "type": "string"
        }
      ],
      "name": "updatePatientPersonalData",
      "outputs": [
        {
          "internalType": "bool",
          "name": "success",
          "type": "bool"
        }
      ],
      "stateMutability": "nonpayable",
      "type": "function"
    },
    {
      "inputs": [
        {
          "internalType": "address",
          "name": "_walletAddress",
          "type": "address"
        },
        {
          "internalType": "string",
          "name": "medicalRecordHash",
          "type": "string"
        }
      ],
      "name": "updatePatientMedicalRecords",
      "outputs": [
        {
          "internalType": "bool",
          "name": "status",
          "type": "bool"
        }
      ],
      "stateMutability": "nonpayable",
      "type": "function"
    },
    {
      "inputs": [
        {
          "internalType": "address",
          "name": "_walletAddress",
          "type": "address"
        },
        {
          "internalType": "string",
          "name": "prescriptionHash",
          "type": "string"
        }
      ],
      "name": "updatePatientPrescription",
      "outputs": [
        {
          "internalType": "bool",
          "name": "status",
          "type": "bool"
        }
      ],
      "stateMutability": "nonpayable",
      "type": "function"
    },
    {
      "inputs": [
        {
          "internalType": "address",
          "name": "_patientAddress",
          "type": "address"
        }
      ],
      "name": "getNewPrescription",
      "outputs": [
        {
          "internalType": "string",
          "name": "status",
          "type": "string"
        }
      ],
      "stateMutability": "view",
      "type": "function",
      "constant": true
    },
    {
      "inputs": [
        {
          "internalType": "address",
          "name": "_patientAddress",
          "type": "address"
        }
      ],
      "name": "getMultiplePrescription",
      "outputs": [
        {
          "internalType": "string[]",
          "name": "status",
          "type": "string[]"
        }
      ],
      "stateMutability": "view",
      "type": "function",
      "constant": true
    },
    {
      "inputs": [
        {
          "internalType": "address",
          "name": "_patientAddress",
          "type": "address"
        }
      ],
      "name": "getNewRecords",
      "outputs": [
        {
          "internalType": "string",
          "name": "status",
          "type": "string"
        }
      ],
      "stateMutability": "view",
      "type": "function",
      "constant": true
    },
    {
      "inputs": [
        {
          "internalType": "address",
          "name": "_patientAddress",
          "type": "address"
        }
      ],
      "name": "getMultipleRecords",
      "outputs": [
        {
          "internalType": "string[]",
          "name": "status",
          "type": "string[]"
        }
      ],
      "stateMutability": "view",
      "type": "function",
      "constant": true
    },
    {
      "inputs": [
        {
          "internalType": "string",
          "name": "name",
          "type": "string"
        },
        {
          "internalType": "string",
          "name": "_personalDetails",
          "type": "string"
        },
        {
          "internalType": "address",
          "name": "_hospitalAddress",
          "type": "address"
        },
        {
          "internalType": "address",
          "name": "_walletAddress",
          "type": "address"
        }
      ],
      "name": "storeDoctor",
      "outputs": [
        {
          "internalType": "bool",
          "name": "status",
          "type": "bool"
        }
      ],
      "stateMutability": "nonpayable",
      "type": "function"
    },
    {
      "inputs": [
        {
          "internalType": "string",
          "name": "_personalDetails",
          "type": "string"
        },
        {
          "internalType": "address",
          "name": "_walletAddress",
          "type": "address"
        }
      ],
      "name": "updateDoctorPersonalDetailHash",
      "outputs": [
        {
          "internalType": "bool",
          "name": "status",
          "type": "bool"
        }
      ],
      "stateMutability": "nonpayable",
      "type": "function"
    },
    {
      "inputs": [
        {
          "internalType": "address",
          "name": "_previousHospitalAddress",
          "type": "address"
        },
        {
          "internalType": "address",
          "name": "_newHospitalAddress",
          "type": "address"
        },
        {
          "internalType": "address",
          "name": "_walletAddress",
          "type": "address"
        }
      ],
      "name": "changeHospitalForDoctor",
      "outputs": [
        {
          "internalType": "bool",
          "name": "status",
          "type": "bool"
        }
      ],
      "stateMutability": "nonpayable",
      "type": "function"
    },
    {
      "inputs": [],
      "name": "retrieveDoctorCount",
      "outputs": [
        {
          "internalType": "uint256",
          "name": "doctorCount",
          "type": "uint256"
        }
      ],
      "stateMutability": "view",
      "type": "function",
      "constant": true
    },
    {
      "inputs": [
        {
          "internalType": "address",
          "name": "_walletAddress",
          "type": "address"
        }
      ],
      "name": "retrieveDoctorData",
      "outputs": [
        {
          "internalType": "string",
          "name": "name",
          "type": "string"
        },
        {
          "internalType": "string",
          "name": "personalDetails",
          "type": "string"
        },
        {
          "internalType": "address",
          "name": "hospitalAddress",
          "type": "address"
        }
      ],
      "stateMutability": "view",
      "type": "function",
      "constant": true
    },
    {
      "inputs": [
        {
          "internalType": "string",
          "name": "name",
          "type": "string"
        },
        {
          "internalType": "string",
          "name": "_personalDetails",
          "type": "string"
        },
        {
          "internalType": "address",
          "name": "_walletAddress",
          "type": "address"
        }
      ],
      "name": "storePharmacy",
      "outputs": [
        {
          "internalType": "bool",
          "name": "status",
          "type": "bool"
        }
      ],
      "stateMutability": "nonpayable",
      "type": "function"
    },
    {
      "inputs": [
        {
          "internalType": "string",
          "name": "_personalDetails",
          "type": "string"
        },
        {
          "internalType": "address",
          "name": "_walletAddress",
          "type": "address"
        }
      ],
      "name": "updatePharmacyPersonalDetailHash",
      "outputs": [
        {
          "internalType": "bool",
          "name": "status",
          "type": "bool"
        }
      ],
      "stateMutability": "nonpayable",
      "type": "function"
    },
    {
      "inputs": [],
      "name": "retrievePharmacyCount",
      "outputs": [
        {
          "internalType": "uint256",
          "name": "pharmacyCount",
          "type": "uint256"
        }
      ],
      "stateMutability": "view",
      "type": "function",
      "constant": true
    },
    {
      "inputs": [
        {
          "internalType": "address",
          "name": "_walletAddress",
          "type": "address"
        }
      ],
      "name": "getPharmacyData",
      "outputs": [
        {
          "internalType": "string",
          "name": "name",
          "type": "string"
        },
        {
          "internalType": "string",
          "name": "pharmacyDetails",
          "type": "string"
        },
        {
          "internalType": "address",
          "name": "walletAddress",
          "type": "address"
        }
      ],
      "stateMutability": "view",
      "type": "function",
      "constant": true
    },
    {
      "inputs": [
        {
          "internalType": "string",
          "name": "_name",
          "type": "string"
        },
        {
          "internalType": "string",
          "name": "_hospitalDetails",
          "type": "string"
        },
        {
          "internalType": "address",
          "name": "_walletAddress",
          "type": "address"
        }
      ],
      "name": "storeHospital",
      "outputs": [
        {
          "internalType": "bool",
          "name": "status",
          "type": "bool"
        }
      ],
      "stateMutability": "nonpayable",
      "type": "function"
    },
    {
      "inputs": [
        {
          "internalType": "string",
          "name": "_personalDetails",
          "type": "string"
        },
        {
          "internalType": "address",
          "name": "_walletAddress",
          "type": "address"
        }
      ],
      "name": "updateHospitalPersonalDetailHash",
      "outputs": [
        {
          "internalType": "bool",
          "name": "status",
          "type": "bool"
        }
      ],
      "stateMutability": "nonpayable",
      "type": "function"
    },
    {
      "inputs": [],
      "name": "retrieveHospitalCount",
      "outputs": [
        {
          "internalType": "uint256",
          "name": "hospitalCount",
          "type": "uint256"
        }
      ],
      "stateMutability": "view",
      "type": "function",
      "constant": true
    },
    {
      "inputs": [
        {
          "internalType": "address",
          "name": "_hospitalAddress",
          "type": "address"
        }
      ],
      "name": "retrieveHospitalSpecificCountOfDoctors",
      "outputs": [
        {
          "internalType": "uint256",
          "name": "doctorCountInHospital",
          "type": "uint256"
        }
      ],
      "stateMutability": "view",
      "type": "function",
      "constant": true
    },
    {
      "inputs": [
        {
          "internalType": "address",
          "name": "_hospitalAddress",
          "type": "address"
        }
      ],
      "name": "retrieveHospitalSpecificCountOfPatients",
      "outputs": [
        {
          "internalType": "uint256",
          "name": "patientCountInHospital",
          "type": "uint256"
        }
      ],
      "stateMutability": "view",
      "type": "function",
      "constant": true
    },
    {
      "inputs": [
        {
          "internalType": "address",
          "name": "addressOfUser",
          "type": "address"
        }
      ],
      "name": "getHospitalData",
      "outputs": [
        {
          "internalType": "string",
          "name": "_nameAdmin",
          "type": "string"
        },
        {
          "internalType": "string",
          "name": "hospitalDetails",
          "type": "string"
        },
        {
          "internalType": "address",
          "name": "walletAddress",
          "type": "address"
        }
      ],
      "stateMutability": "view",
      "type": "function",
      "constant": true
    },
    {
      "inputs": [
        {
          "internalType": "address",
          "name": "_addressOfAdmin",
          "type": "address"
        },
        {
          "internalType": "address",
          "name": "_addressOfPatient",
          "type": "address"
        }
      ],
      "name": "grantRoleVerifiedPatient",
      "outputs": [
        {
          "internalType": "bool",
          "name": "success",
          "type": "bool"
        }
      ],
      "stateMutability": "nonpayable",
      "type": "function"
    },
    {
      "inputs": [
        {
          "internalType": "address",
          "name": "_addressOfAdmin",
          "type": "address"
        },
        {
          "internalType": "address",
          "name": "_addressOfDoctor",
          "type": "address"
        }
      ],
      "name": "grantRoleVerifiedDoctor",
      "outputs": [
        {
          "internalType": "bool",
          "name": "success",
          "type": "bool"
        }
      ],
      "stateMutability": "nonpayable",
      "type": "function"
    }
  ],
  "bytecode": "0x60806040523480156200001157600080fd5b506200002f6d2427a9a824aa20a62fa0a226a4a760911b806200008f565b62000055652227a1aa27a960d11b6d2427a9a824aa20a62fa0a226a4a760911b6200008f565b6200007c661410551251539560ca1b6d2427a9a824aa20a62fa0a226a4a760911b6200008f565b62000089600033620000e4565b620001c0565b60006200009c83620000f4565b600084815260208190526040808220600101859055519192508391839186917fbd79b86ffe0ab8e8776151514217cd7cacd52c909f66475c3af44e129f0b00ff9190a4505050565b620000f0828262000109565b5050565b60009081526020819052604090206001015490565b62000115828262000193565b620000f0576000828152602081815260408083206001600160a01b03851684529091529020805460ff191660011790556200014f620001bc565b6001600160a01b0316816001600160a01b0316837f2f8788117e7eff1d82e926ec794901d17c78024a50270940304540a733656f0d60405160405180910390a45050565b6000918252602082815260408084206001600160a01b0393909316845291905290205460ff1690565b3390565b61279b80620001d06000396000f3fe608060405234801561001057600080fd5b506004361061023d5760003560e01c80638b55befc1161013b578063ce65e5e3116100b8578063e8300b1d1161007c578063e8300b1d14610505578063edae7fb514610518578063f98d5d2514610520578063fcd4014b14610528578063fffaff421461053b5761023d565b8063ce65e5e3146104a6578063cfb51928146104b9578063d547741f146104cc578063e21eadcc146104df578063e37e9696146104f25761023d565b8063ac291867116100ff578063ac29186714610447578063b9a47e901461045a578063c12878c31461046d578063c99ead6414610480578063cdca8f7c146104935761023d565b80638b55befc146103f357806391d1485414610406578063a217fddf14610419578063a84ceab714610421578063a9909db9146104345761023d565b8063389e3894116101c95780635c7231ef1161018d5780635c7231ef1461039257806373e830b4146103a55780637799c049146103ad57806377aee292146103cd5780637d379853146103e05761023d565b8063389e3894146103245780633f9c10901461034657806345118d8e146103595780634edf897f1461036c5780635bf9c0e31461037f5761023d565b8063224ccd0f11610210578063224ccd0f146102b6578063248a9ca3146102d6578063259a49a5146102e95780632f2ff15d146102fc57806336568abe146103115761023d565b806301ffc9a7146102425780630a086b151461026b5780630b6003451461028057806316d8b45b14610293575b600080fd5b610255610250366004612087565b61054e565b6040516102629190612494565b60405180910390f35b61027361057b565b604051610262919061249f565b61025561028e36600461212d565b61058c565b6102a66102a1366004611f73565b610667565b60405161026294939291906124f9565b6102c96102c4366004611f73565b6107c3565b6040516102629190612434565b6102736102e436600461204d565b6108b5565b6102556102f73660046120ea565b6108ca565b61030f61030a366004612065565b610929565b005b61030f61031f366004612065565b610952565b610337610332366004611f73565b6109a1565b604051610262939291906124bb565b610255610354366004612001565b610afa565b610255610367366004611fbf565b610b28565b61025561037a366004612195565b610bc1565b61025561038d3660046120ea565b610da3565b6102556103a0366004611fbf565b610df4565b610273610e83565b6103c06103bb366004611f73565b610e8f565b60405161026291906124a8565b6102c96103db366004611f73565b610f3e565b6102556103ee366004612217565b611024565b610273610401366004611f73565b61125a565b610255610414366004612065565b61127e565b6102736112a7565b61025561042f366004611fbf565b6112ac565b6102556104423660046120ea565b611323565b6103c0610455366004611f73565b6113de565b610255610468366004611f8d565b611408565b61027361047b366004611f73565b61148a565b61025561048e36600461212d565b6114ae565b6102556104a13660046120ea565b611592565b6102556104b43660046120ea565b6115a9565b6102736104c73660046120af565b6115c7565b61030f6104da366004612065565b6115e5565b6103376104ed366004611f73565b611604565b610255610500366004611f8d565b611766565b610337610513366004611f73565b6117c4565b6102736117fe565b61027361180a565b610255610536366004612001565b611816565b610255610549366004612001565b611936565b60006001600160e01b03198216637965db0b60e01b1480610573575061057382611a4e565b90505b919050565b60006105876004611a67565b905090565b60006105a96d2427a9a824aa20a62fa0a226a4a760911b83611a6b565b6001600160a01b038216600090815260086020908152604090912085516105d292870190611dc7565b506001600160a01b03821660008181526008602090815260409091206002810180546001600160a01b03191690931790925584516106169260010191860190611dc7565b506106216003611a75565b7ff1ed66ce17e814997c731a53029e891da3b3665c7d89fd2a257363990098c1be848484604051610654939291906124bb565b60405180910390a15060015b9392505050565b6001600160a01b038082166000908152600560205260408120600381015481546060948594938493909260018401929190911690889084906106a8906126fe565b80601f01602080910402602001604051908101604052809291908181526020018280546106d4906126fe565b80156107215780601f106106f657610100808354040283529160200191610721565b820191906000526020600020905b81548152906001019060200180831161070457829003601f168201915b50505050509350828054610734906126fe565b80601f0160208091040260200160405190810160405280929190818152602001828054610760906126fe565b80156107ad5780601f10610782576101008083540402835291602001916107ad565b820191906000526020600020905b81548152906001019060200180831161079057829003601f168201915b5050505050925093509350935093509193509193565b6001600160a01b0381166000908152600560209081526040808320600701805482518185028101850190935280835260609492939192909184015b828210156108aa57838290600052602060002001805461081d906126fe565b80601f0160208091040260200160405190810160405280929190818152602001828054610849906126fe565b80156108965780601f1061086b57610100808354040283529160200191610896565b820191906000526020600020905b81548152906001019060200180831161087957829003601f168201915b5050505050815260200190600101906107fe565b505050509050919050565b60009081526020819052604090206001015490565b60006108e96f159154925192515117d410551251539560821b8361127e565b1561091f576001600160a01b0382166000908152600560209081526040909120845161091d92600890920191860190611dc7565b505b5060015b92915050565b610932826108b5565b6109438161093e611a7e565b611a82565b61094d8383611ae6565b505050565b61095a611a7e565b6001600160a01b0316816001600160a01b0316146109935760405162461bcd60e51b815260040161098a90612631565b60405180910390fd5b61099d8282611b6b565b5050565b6001600160a01b03808216600090815260066020526040812060048101546001820180546060958695949293600290930192169083906109e0906126fe565b80601f0160208091040260200160405190810160405280929190818152602001828054610a0c906126fe565b8015610a595780601f10610a2e57610100808354040283529160200191610a59565b820191906000526020600020905b815481529060010190602001808311610a3c57829003601f168201915b50505050509250818054610a6c906126fe565b80601f0160208091040260200160405190810160405280929190818152602001828054610a98906126fe565b8015610ae55780601f10610aba57610100808354040283529160200191610ae5565b820191906000526020600020905b815481529060010190602001808311610ac857829003601f168201915b505050505091509250925092505b9193909250565b6001600160a01b03821660009081526005602090815260408220835161091d92600190920191850190611dc7565b6000610b476f159154925192515117d410551251539560821b8361127e565b15610660576001600160a01b0384166000908152600860205260409020610b7090600301611bee565b6001600160a01b038281166000908152600560209081526040808320600390810180546001600160a01b031916958916958617905593835260089091529020610bb99101611a75565b506001610660565b6000610bd6652227a1aa27a960d11b8361127e565b15610c7857610bee652227a1aa27a960d11b83611a6b565b6001600160a01b03821660009081526006602090815260409091208651610c1d92600190920191880190611dc7565b506001600160a01b03828116600081815260066020908152604090912080546001600160a01b03199081169093178155600481018054909316938716939093179091558551610c729260020191870190611dc7565b50610d3e565b610c8b652227a1aa27a960d11b83611a6b565b6001600160a01b03821660009081526006602090815260409091208651610cba92600190920191880190611dc7565b506001600160a01b03828116600081815260066020908152604090912080546001600160a01b03199081169093178155600481018054909316938716939093179091558551610d0f9260020191870190611dc7565b506001600160a01b0383166000908152600860205260409020610d3490600401611a75565b610d3e6002611a75565b6001600160a01b0382166000908152600660205260409081902090517f094f9e983e464406960b58ac311309ef38583f6e33af8d47f93b0c048e60c7cf91610d909160018201916002019086906125a0565b60405180910390a1506001949350505050565b6000610dc06d2427a9a824aa20a62fa0a226a4a760911b8361127e565b1561091f576001600160a01b0382166000908152600560209081526040909120845161091d92600190920191860190611dc7565b6000610e136f159154925192515117d410551251539560821b8361127e565b15610660576001600160a01b0384166000908152600660205260409020610e3c90600501611bee565b6001600160a01b03828116600090815260056020818152604080842060020180546001600160a01b031916958916958617905593835260069052919020610bb99101611a75565b60006105876001611a67565b6001600160a01b0381166000908152600560205260409020600601805460609190610eb9906126fe565b80601f0160208091040260200160405190810160405280929190818152602001828054610ee5906126fe565b8015610f325780601f10610f0757610100808354040283529160200191610f32565b820191906000526020600020905b815481529060010190602001808311610f1557829003601f168201915b50505050509050919050565b6001600160a01b03811660009081526005602081815260408084209092018054835181840281018401909452808452606094919290919084015b828210156108aa578382906000526020600020018054610f97906126fe565b80601f0160208091040260200160405190810160405280929190818152602001828054610fc3906126fe565b80156110105780601f10610fe557610100808354040283529160200191611010565b820191906000526020600020905b815481529060010190602001808311610ff357829003601f168201915b505050505081526020019060010190610f78565b600061103a661410551251539560ca1b8361127e565b156110ed576001600160a01b0382166000908152600560209081526040909120875161106892890190611dc7565b506001600160a01b0382166000908152600560209081526040909120865161109892600190920191880190611dc7565b506001600160a01b0382811660008181526005602052604090206003810180546001600160a01b03199081168986161790915560028201805482169488169490941790935560040180549092161790556111f0565b611101661410551251539560ca1b83611a6b565b6001600160a01b0382166000908152600560209081526040909120875161112a92890190611dc7565b506001600160a01b0382166000908152600560209081526040909120865161115a92600190920191880190611dc7565b506001600160a01b038083166000818152600560208181526040808420600381018054888d166001600160a01b03199182161790915560048201805482169097179096556002018054968a169690951686179094559382526006909352206111c29101611a75565b6001600160a01b03841660009081526008602052604090206111e690600301611a75565b6111f06001611a75565b6001600160a01b0380831660009081526005602052604090819020600381015491517f3b8a83fdecb2b3e9bf160eeb2f3112ba4bdad2159cb6783bc884ab9712bb58b49361124693169060018301908790612556565b60405180910390a150600195945050505050565b6001600160a01b038116600090815260086020526040812061057390600301611a67565b6000918252602082815260408084206001600160a01b0393909316845291905290205460ff1690565b600081565b6001600160a01b03831660009081526008602052604081206112d090600401611bee565b6001600160a01b038281166000908152600660209081526040808320600490810180546001600160a01b0319169589169586179055938352600890915290206113199101611a75565b5060019392505050565b60006113426f159154925192515117d410551251539560821b8361127e565b1561091f576001600160a01b0382166000908152600560209081526040909120845161137692600190920191860190611dc7565b507f6cf77aa8d9dc244ce6e0c9f000638b1474de4e19cb94dc7615edc4e60a9bbea260056000846001600160a01b03166001600160a01b031681526020019081526020016000206001016040516113cd9190612543565b60405180910390a150600192915050565b6001600160a01b0381166000908152600560205260409020600801805460609190610eb9906126fe565b60006114256d2427a9a824aa20a62fa0a226a4a760911b8461127e565b8061144757506114476e2b22a924a324a2a22fa227a1aa27a960891b8461127e565b61145057600080fd5b611464661410551251539560ca1b8361127e565b61146d57600080fd5b61091f6f159154925192515117d410551251539560821b83610929565b6001600160a01b038116600090815260086020526040812061057390600401611a67565b60006114c567504841524d41435960c01b83611a6b565b6001600160a01b038216600090815260076020908152604090912085516114ee92870190611dc7565b506001600160a01b03821660008181526007602090815260409091206002810180546001600160a01b03191690931790925584516115329260010191860190611dc7565b5061153d6004611a75565b6001600160a01b0380831660009081526007602052604090819020600281015491517ff143a46358d668a0fe39cbb22e990687e6cb90e04015f286fad8531dcb9715c0936106549360018401929116906125a0565b6000610dc067504841524d41435960c01b8361127e565b6000610dc06e2b22a924a324a2a22fa227a1aa27a960891b8361127e565b805160009082906115dc575060009050610576565b50506020015190565b6115ee826108b5565b6115fa8161093e611a7e565b61094d8383611b6b565b606080600061161e67504841524d41435960c01b8561127e565b15610af3576001600160a01b0384166000908152600760205260409020805460018201908690839061164f906126fe565b80601f016020809104026020016040519081016040528092919081815260200182805461167b906126fe565b80156116c85780601f1061169d576101008083540402835291602001916116c8565b820191906000526020600020905b8154815290600101906020018083116116ab57829003601f168201915b505050505092508180546116db906126fe565b80601f0160208091040260200160405190810160405280929190818152602001828054611707906126fe565b80156117545780601f1061172957610100808354040283529160200191611754565b820191906000526020600020905b81548152906001019060200180831161173757829003601f168201915b50505050509150925092509250610af3565b60006117836d2427a9a824aa20a62fa0a226a4a760911b8461127e565b61178c57600080fd5b61179f652227a1aa27a960d11b8361127e565b6117a857600080fd5b61091f6e2b22a924a324a2a22fa227a1aa27a960891b83610929565b6001600160a01b0380821660009081526008602052604081206002810154815460609485949392600184019291169083906109e0906126fe565b60006105876002611a67565b60006105876003611a67565b6000604051602001611827906123bc565b60408051601f1981840301815282825280516020918201206001600160a01b03871660009081526005835292909220919261186692600601910161234d565b6040516020818303038152906040528051906020012014156118bb576001600160a01b038316600090815260056020908152604090912083516118b192600690920191850190611dc7565b5060019050610923565b6001600160a01b0383166000908152600560208181526040832091820180546001810182559084529220600690910180549190920191906118fb906126fe565b611906929190611e4b565b506001600160a01b038316600090815260056020908152604090912083516118b192600690920191850190611dc7565b6000604051602001611947906123bc565b60408051601f1981840301815282825280516020918201206001600160a01b03871660009081526005835292909220919261198692600801910161234d565b6040516020818303038152906040528051906020012014156119d1576001600160a01b038316600090815260056020908152604090912083516118b192600890920191850190611dc7565b6001600160a01b0383166000908152600560209081526040822060078101805460018101825590845291909220600890920180549290910191611a13906126fe565b611a1e929190611e4b565b506001600160a01b038316600090815260056020908152604090912083516118b192600890920191850190611dc7565b6001600160e01b031981166301ffc9a760e01b14919050565b5490565b61099d8282611ae6565b80546001019055565b3390565b611a8c828261127e565b61099d57611aa4816001600160a01b03166014611c15565b611aaf836020611c15565b604051602001611ac09291906123bf565b60408051601f198184030181529082905262461bcd60e51b825261098a916004016124a8565b611af0828261127e565b61099d576000828152602081815260408083206001600160a01b03851684529091529020805460ff19166001179055611b27611a7e565b6001600160a01b0316816001600160a01b0316837f2f8788117e7eff1d82e926ec794901d17c78024a50270940304540a733656f0d60405160405180910390a45050565b611b75828261127e565b1561099d576000828152602081815260408083206001600160a01b03851684529091529020805460ff19169055611baa611a7e565b6001600160a01b0316816001600160a01b0316837ff6391f5c32d9c69d2a47ea670b442974b53935d1edc7fd64eb21e047a839171b60405160405180910390a45050565b805480611c0d5760405162461bcd60e51b815260040161098a906125fa565b600019019055565b60606000611c24836002612698565b611c2f906002612680565b67ffffffffffffffff811115611c5557634e487b7160e01b600052604160045260246000fd5b6040519080825280601f01601f191660200182016040528015611c7f576020820181803683370190505b509050600360fc1b81600081518110611ca857634e487b7160e01b600052603260045260246000fd5b60200101906001600160f81b031916908160001a905350600f60fb1b81600181518110611ce557634e487b7160e01b600052603260045260246000fd5b60200101906001600160f81b031916908160001a9053506000611d09846002612698565b611d14906001612680565b90505b6001811115611da8576f181899199a1a9b1b9c1cb0b131b232b360811b85600f1660108110611d5657634e487b7160e01b600052603260045260246000fd5b1a60f81b828281518110611d7a57634e487b7160e01b600052603260045260246000fd5b60200101906001600160f81b031916908160001a90535060049490941c93611da1816126e7565b9050611d17565b5083156106605760405162461bcd60e51b815260040161098a906125c5565b828054611dd3906126fe565b90600052602060002090601f016020900481019282611df55760008555611e3b565b82601f10611e0e57805160ff1916838001178555611e3b565b82800160010185558215611e3b579182015b82811115611e3b578251825591602001919060010190611e20565b50611e47929150611ec6565b5090565b828054611e57906126fe565b90600052602060002090601f016020900481019282611e795760008555611e3b565b82601f10611e8a5780548555611e3b565b82800160010185558215611e3b57600052602060002091601f016020900482015b82811115611e3b578254825591600101919060010190611eab565b5b80821115611e475760008155600101611ec7565b80356001600160a01b038116811461057657600080fd5b600082601f830112611f02578081fd5b813567ffffffffffffffff80821115611f1d57611f1d61274f565b604051601f8301601f191681016020018281118282101715611f4157611f4161274f565b604052828152848301602001861015611f58578384fd5b82602086016020830137918201602001929092529392505050565b600060208284031215611f84578081fd5b61066082611edb565b60008060408385031215611f9f578081fd5b611fa883611edb565b9150611fb660208401611edb565b90509250929050565b600080600060608486031215611fd3578081fd5b611fdc84611edb565b9250611fea60208501611edb565b9150611ff860408501611edb565b90509250925092565b60008060408385031215612013578182fd5b61201c83611edb565b9150602083013567ffffffffffffffff811115612037578182fd5b61204385828601611ef2565b9150509250929050565b60006020828403121561205e578081fd5b5035919050565b60008060408385031215612077578182fd5b82359150611fb660208401611edb565b600060208284031215612098578081fd5b81356001600160e01b031981168114610660578182fd5b6000602082840312156120c0578081fd5b813567ffffffffffffffff8111156120d6578182fd5b6120e284828501611ef2565b949350505050565b600080604083850312156120fc578182fd5b823567ffffffffffffffff811115612112578283fd5b61211e85828601611ef2565b925050611fb660208401611edb565b600080600060608486031215612141578283fd5b833567ffffffffffffffff80821115612158578485fd5b61216487838801611ef2565b94506020860135915080821115612179578384fd5b5061218686828701611ef2565b925050611ff860408501611edb565b600080600080608085870312156121aa578081fd5b843567ffffffffffffffff808211156121c1578283fd5b6121cd88838901611ef2565b955060208701359150808211156121e2578283fd5b506121ef87828801611ef2565b9350506121fe60408601611edb565b915061220c60608601611edb565b905092959194509250565b600080600080600060a0868803121561222e578081fd5b853567ffffffffffffffff80821115612245578283fd5b61225189838a01611ef2565b96506020880135915080821115612266578283fd5b5061227388828901611ef2565b94505061228260408701611edb565b925061229060608701611edb565b915061229e60808701611edb565b90509295509295909350565b600081518084526122c28160208601602086016126b7565b601f01601f19169290920160200192915050565b600081546122e3816126fe565b808552602060018381168015612300576001811461231457612342565b60ff19851688840152604088019550612342565b866000528260002060005b8581101561233a5781548a820186015290830190840161231f565b890184019650505b505050505092915050565b600080835461235b816126fe565b600182811680156123735760018114612384576123b0565b60ff198416875282870194506123b0565b8786526020808720875b858110156123a75781548a82015290840190820161238e565b50505082870194505b50929695505050505050565b90565b60007f416363657373436f6e74726f6c3a206163636f756e7420000000000000000000825283516123f78160178501602088016126b7565b7001034b99036b4b9b9b4b733903937b6329607d1b60179184019182015283516124288160288401602088016126b7565b01602801949350505050565b6000602080830181845280855180835260408601915060408482028701019250838701855b8281101561248757603f198886030184526124758583516122aa565b94509285019290850190600101612459565b5092979650505050505050565b901515815260200190565b90815260200190565b60006020825261066060208301846122aa565b6000606082526124ce60608301866122aa565b82810360208401526124e081866122aa565b91505060018060a01b0383166040830152949350505050565b60006080825261250c60808301876122aa565b828103602084015261251e81876122aa565b6001600160a01b03958616604085015293909416606090920191909152509392505050565b60006020825261066060208301846122d6565b60006080825261256960808301876122d6565b6001600160a01b038681166020850152838203604085015261258b82876122d6565b92508085166060850152505095945050505050565b6000606082526125b360608301866122d6565b82810360208401526124e081866122d6565b6020808252818101527f537472696e67733a20686578206c656e67746820696e73756666696369656e74604082015260600190565b6020808252601b908201527f436f756e7465723a2064656372656d656e74206f766572666c6f770000000000604082015260600190565b6020808252602f908201527f416363657373436f6e74726f6c3a2063616e206f6e6c792072656e6f756e636560408201526e103937b632b9903337b91039b2b63360891b606082015260800190565b6000821982111561269357612693612739565b500190565b60008160001904831182151516156126b2576126b2612739565b500290565b60005b838110156126d25781810151838201526020016126ba565b838111156126e1576000848401525b50505050565b6000816126f6576126f6612739565b506000190190565b60028104600182168061271257607f821691505b6020821081141561273357634e487b7160e01b600052602260045260246000fd5b50919050565b634e487b7160e01b600052601160045260246000fd5b634e487b7160e01b600052604160045260246000fdfea2646970667358221220dd3a6ef40885590aeda6cadea61b1e5fa120c3d3be69237e187c018e0313699f64736f6c63430008000033",
  "immutableReferences": {},
  "source": "pragma solidity ^0.8.0;\r\n\r\n//SPDX-License-Identifier: MIT\r\n\r\nimport \"./openzeppelin/contracts/utils/Counters.sol\";\r\nimport \"./openzeppelin/contracts/access/AccessControl.sol\";\r\n\r\n\r\nbytes32 constant PATIENT = \"PATIENT\";\r\nbytes32 constant VERIFIED_PATIENT = \"VERIFIED_PATIENT\";\r\n\r\nbytes32 constant DOCTOR = \"DOCTOR\";\r\nbytes32 constant VERIFIED_DOCTOR = \"VERIFIED_DOCTOR\";\r\n\r\nbytes32 constant PHARMACY = \"PHARMACY\";\r\n\r\nbytes32 constant HOSPITAL_ADMIN = \"HOSPITAL_ADMIN\";\r\n\r\ncontract MainContract is AccessControl {\r\n    using Counters for Counters.Counter;\r\n    \r\n\r\n\r\n    struct patientRecord {\r\n        string name;\r\n        string personalDetails;\r\n        address doctorAddress;\r\n        address hospitalAddress;\r\n        address walletAddress;\r\n        string[] previousPatientRecordHashes;\r\n        string newMedicalRecordHash;\r\n        \r\n        string[] previousPatientPrescriptionHashes;\r\n        string newPatientPrescriptionHashes;\r\n    }\r\n\r\n    struct doctorRecord {\r\n        address walletAddress;\r\n        string name;\r\n        string personalDetails;\r\n        string docSpecialization;\r\n        address hospitalAddress;\r\n        Counters.Counter patientCount;\r\n    }\r\n\r\n    struct pharmacyRecord {\r\n        string name;\r\n        string personalDetails;\r\n        address walletAddress;\r\n    }\r\n\r\n    struct hospitalRecord {\r\n        string name;\r\n        string hospitalDetails;\r\n        address walletAddress;\r\n        Counters.Counter patientInHospital;\r\n        Counters.Counter doctorInHospital;\r\n    }\r\n\r\n    Counters.Counter patientCounter;\r\n    Counters.Counter doctorCounter;\r\n    Counters.Counter hospitalCounter;\r\n    Counters.Counter pharmacyCounter;\r\n\r\n    //: Constructor\r\n    constructor() {\r\n        _setRoleAdmin(HOSPITAL_ADMIN, HOSPITAL_ADMIN);\r\n        _setRoleAdmin(DOCTOR, HOSPITAL_ADMIN);\r\n        _setRoleAdmin(PATIENT, HOSPITAL_ADMIN);\r\n\r\n        // default role of contract deployer\r\n        _setupRole(DEFAULT_ADMIN_ROLE, msg.sender);\r\n    }\r\n\r\n    function stringToBytes32(string memory source) public pure returns (bytes32 result) {\r\n    bytes memory tempEmptyStringTest = bytes(source);\r\n    if (tempEmptyStringTest.length == 0) {\r\n        return 0x0;\r\n    }\r\n\r\n    assembly {\r\n        result := mload(add(source, 32))\r\n    }\r\n}\r\n\r\n    // function getRoleForUser(address _walletAddress) external view return(String role) {\r\n    //     if (hasRole(PATIENT,_walletAddress)) {\r\n    //         return \"PATIENT\";\r\n    //     } else if (hasRole(VERIFIED_PATIENT,_walletAddress)) {\r\n    //         return \"VERIFIED_PATIENT\";\r\n    //     } else if (hasRole(DOCTOR,_walletAddress)) {\r\n    //         return \"DOCTOR\";\r\n    //     } else if (hasRole(VERIFIED_DOCTOR,_walletAddress)) {\r\n    //         return \"VERIFIED_DOCTOR\";\r\n    //     } else if (hasRole(HOSPITAL,_walletAddress)) {\r\n    //         return \"HOSPITAL\";\r\n    //     } else if (hasRole(PHARMACY,_walletAddress)) {\r\n    //         return \"PHARMACY\";\r\n    //     }\r\n    // }\r\n\r\n    event LogStorePatient(\r\n        string name,\r\n        address hospitalAddress,\r\n        string _personalDetails,\r\n        address owner\r\n    );\r\n    event LogUpdatePatientPersonalDetails(string _personalDetails);\r\n\r\n    //: PATIENT DATABASE\r\n    mapping(address => patientRecord) patientDatabase;\r\n\r\n    function storePatient(\r\n        string memory _name,\r\n        string memory _personalDetails,\r\n        address _hospitalAddress,\r\n        address _doctorAddress,\r\n        address _walletAddress\r\n    ) external returns (bool status) {\r\n        if (hasRole(PATIENT, _walletAddress)) {\r\n            patientDatabase[_walletAddress].name = _name;\r\n            patientDatabase[_walletAddress].personalDetails = _personalDetails;\r\n            patientDatabase[_walletAddress].hospitalAddress = _hospitalAddress;\r\n            patientDatabase[_walletAddress].doctorAddress = _doctorAddress;\r\n            patientDatabase[_walletAddress].walletAddress = _walletAddress;\r\n        } else {\r\n            _setupRole(PATIENT, _walletAddress);\r\n            patientDatabase[_walletAddress].name = _name;\r\n            patientDatabase[_walletAddress].personalDetails = _personalDetails;\r\n            patientDatabase[_walletAddress].hospitalAddress = _hospitalAddress;\r\n            patientDatabase[_walletAddress].walletAddress = _walletAddress;\r\n            patientDatabase[_walletAddress].doctorAddress = _doctorAddress;\r\n\r\n            doctorDatabase[_doctorAddress].patientCount.increment();\r\n\r\n            hospitalDatabase[_hospitalAddress].patientInHospital.increment();\r\n            patientCounter.increment();\r\n        }\r\n\r\n        emit LogStorePatient(\r\n            patientDatabase[_walletAddress].name,\r\n            patientDatabase[_walletAddress].hospitalAddress,\r\n            patientDatabase[_walletAddress].personalDetails,\r\n            _walletAddress\r\n        );\r\n        return true;\r\n    }\r\n\r\n    // RHEA:- MAKE FUNCTIONS BELOW FOR ALL ENTITIES\r\n    function updatePatientPersonalDetailHash(\r\n        string memory _personalDetails,\r\n        address _walletAddress\r\n    ) external returns (bool status) {\r\n        if (hasRole(VERIFIED_PATIENT, _walletAddress)) {\r\n            patientDatabase[_walletAddress].personalDetails = _personalDetails;\r\n             emit LogUpdatePatientPersonalDetails(\r\n            patientDatabase[_walletAddress].personalDetails\r\n        );\r\n        }\r\n\r\n        return true;\r\n    }\r\n\r\n    function updatePatientPrescriptionHash(\r\n        string memory newPatientPrescriptionHashes,\r\n        address _walletAddress\r\n    ) external returns (bool status) {\r\n        if (hasRole(VERIFIED_PATIENT, _walletAddress)) {\r\n            patientDatabase[_walletAddress]\r\n                .newPatientPrescriptionHashes = newPatientPrescriptionHashes;\r\n        }\r\n\r\n        return true;\r\n    }\r\n\r\n    function changeHospitalForPatient(\r\n        address _previousHospitalAddress,\r\n        address _newHospitalAddress,\r\n        address _walletAddress\r\n    ) external returns (bool status) {\r\n        if (hasRole(VERIFIED_PATIENT, _walletAddress)) {\r\n            hospitalDatabase[_previousHospitalAddress]\r\n                .patientInHospital\r\n                .decrement();\r\n\r\n            patientDatabase[_walletAddress]\r\n                .hospitalAddress = _newHospitalAddress;\r\n\r\n            hospitalDatabase[_newHospitalAddress].patientInHospital.increment();\r\n             return true;\r\n        }\r\n       \r\n    }\r\n\r\n    function changeDoctorForPatient(\r\n        address _previousDoctorAddress,\r\n        address _newDoctorAddress,\r\n        address _walletAddress\r\n    ) external returns (bool status) {\r\n        if (hasRole(VERIFIED_PATIENT, _walletAddress)) {\r\n            doctorDatabase[_previousDoctorAddress]\r\n                .patientCount\r\n                .decrement();\r\n\r\n            patientDatabase[_walletAddress]\r\n                .doctorAddress = _newDoctorAddress;\r\n\r\n            doctorDatabase[_newDoctorAddress].patientCount.increment();\r\n             return true;\r\n        }\r\n       \r\n    }\r\n\r\n    function retrievePatientCount()\r\n        external\r\n        view\r\n        returns (uint256 patientCount)\r\n    {\r\n        return patientCounter.current();\r\n    }\r\n\r\n    function retrievePatientData(address _walletAddress)\r\n        external\r\n        view\r\n        returns (\r\n            string memory name,\r\n            string memory personalDetails,\r\n            address hospitalAddress,\r\n            address walletAddress\r\n        )\r\n    {\r\n        return (\r\n            patientDatabase[_walletAddress].name,\r\n            patientDatabase[_walletAddress].personalDetails,\r\n            patientDatabase[_walletAddress].hospitalAddress,\r\n            _walletAddress\r\n        );\r\n    }\r\n\r\n    function updatePatientPersonalData(\r\n        address _walletAddress,\r\n        string memory _personalDetails\r\n    ) public returns (bool success) {\r\n        patientDatabase[_walletAddress].personalDetails = _personalDetails;\r\n\r\n       \r\n\r\n        return true;\r\n    }\r\n\r\n    function updatePatientMedicalRecords(\r\n        address _walletAddress,\r\n        string memory medicalRecordHash\r\n    ) external returns (bool status) {\r\n        if (\r\n            keccak256(\r\n                abi.encodePacked(\r\n                    patientDatabase[_walletAddress].newMedicalRecordHash\r\n                )\r\n            ) == keccak256(abi.encodePacked(\"\"))\r\n        ) {\r\n            patientDatabase[_walletAddress]\r\n                .newMedicalRecordHash = medicalRecordHash;\r\n            return true;\r\n        } else {\r\n            patientDatabase[_walletAddress].previousPatientRecordHashes.push(\r\n                patientDatabase[_walletAddress].newMedicalRecordHash\r\n            );\r\n            patientDatabase[_walletAddress]\r\n                .newMedicalRecordHash = medicalRecordHash;\r\n            return true;\r\n        }\r\n    }\r\n\r\n    function updatePatientPrescription(\r\n        address _walletAddress,\r\n        string memory prescriptionHash\r\n    ) external returns (bool status) {\r\n        if (\r\n            keccak256(\r\n                abi.encodePacked(\r\n                    patientDatabase[_walletAddress].newPatientPrescriptionHashes\r\n                )\r\n            ) == keccak256(abi.encodePacked(\"\"))\r\n        ) {\r\n            patientDatabase[_walletAddress]\r\n                .newPatientPrescriptionHashes = prescriptionHash;\r\n            return true;\r\n        } else {\r\n            patientDatabase[_walletAddress]\r\n                .previousPatientPrescriptionHashes\r\n                .push(\r\n                    patientDatabase[_walletAddress].newPatientPrescriptionHashes\r\n                );\r\n            patientDatabase[_walletAddress]\r\n                .newPatientPrescriptionHashes = prescriptionHash;\r\n            return true;\r\n        }\r\n    }\r\n\r\n    function getNewPrescription(address _patientAddress)\r\n        external\r\n        view\r\n        returns (string memory status)\r\n    {\r\n        return patientDatabase[_patientAddress].newPatientPrescriptionHashes;\r\n    }\r\n\r\n    function getMultiplePrescription(address _patientAddress)\r\n        external\r\n        view\r\n        returns (string[] memory status)\r\n    {\r\n        return\r\n            patientDatabase[_patientAddress].previousPatientPrescriptionHashes;\r\n    }\r\n\r\n    function getNewRecords(address _patientAddress)\r\n        external\r\n        view\r\n        returns (string memory status)\r\n    {\r\n        return patientDatabase[_patientAddress].newMedicalRecordHash;\r\n    }\r\n\r\n    function getMultipleRecords(address _patientAddress)\r\n        external\r\n        view\r\n        returns (string[] memory status)\r\n    {\r\n        return patientDatabase[_patientAddress].previousPatientRecordHashes;\r\n    }\r\n\r\n    event LogStoreDoctor(string name, string personalDetails, address walletAddress);\r\n    event LogUpdateDoctor(string name, string personalDetails);\r\n    event LogDeleteDoctor(string name, uint256 empIdIndex);\r\n\r\n    //: DOCTOR DATABASE\r\n    mapping(address => doctorRecord) doctorDatabase;\r\n\r\n    function storeDoctor(\r\n        string memory name,\r\n        string memory _personalDetails,\r\n        address _hospitalAddress,\r\n        address _walletAddress\r\n    ) external returns (bool status) {\r\n        if (hasRole(DOCTOR, _walletAddress)) {\r\n            _setupRole(DOCTOR, _walletAddress);\r\n            doctorDatabase[_walletAddress].name = name;\r\n            doctorDatabase[_walletAddress].walletAddress = _walletAddress;\r\n            doctorDatabase[_walletAddress].hospitalAddress = _hospitalAddress;\r\n            doctorDatabase[_walletAddress].personalDetails = _personalDetails;\r\n        } else {\r\n            _setupRole(DOCTOR, _walletAddress);\r\n            doctorDatabase[_walletAddress].name = name;\r\n            doctorDatabase[_walletAddress].walletAddress = _walletAddress;\r\n            doctorDatabase[_walletAddress].hospitalAddress = _hospitalAddress;\r\n            doctorDatabase[_walletAddress].personalDetails = _personalDetails;\r\n\r\n            hospitalDatabase[_hospitalAddress].doctorInHospital.increment();\r\n            doctorCounter.increment();\r\n        }\r\n\r\n        emit LogStoreDoctor(\r\n            doctorDatabase[_walletAddress].name,\r\n            doctorDatabase[_walletAddress].personalDetails,\r\n            _walletAddress\r\n        );\r\n\r\n        return true;\r\n    }\r\n\r\n    //updated function.\r\n    function updateDoctorPersonalDetailHash(\r\n        string memory _personalDetails,\r\n        address _walletAddress\r\n    ) external returns (bool status) {\r\n        if (hasRole(VERIFIED_DOCTOR, _walletAddress)) {\r\n            patientDatabase[_walletAddress].personalDetails = _personalDetails;\r\n        }\r\n\r\n        return true;\r\n    }\r\n\r\n    function changeHospitalForDoctor(\r\n        address _previousHospitalAddress,\r\n        address _newHospitalAddress,\r\n        address _walletAddress\r\n    ) external returns (bool status) {\r\n        hospitalDatabase[_previousHospitalAddress].doctorInHospital.decrement();\r\n\r\n        doctorDatabase[_walletAddress].hospitalAddress = _newHospitalAddress;\r\n\r\n        hospitalDatabase[_newHospitalAddress].doctorInHospital.increment();\r\n\r\n        return true;\r\n    }\r\n\r\n    function retrieveDoctorCount() external view returns (uint256 doctorCount) {\r\n        return doctorCounter.current();\r\n    }\r\n\r\n    function retrieveDoctorData(address _walletAddress)\r\n        public\r\n        view\r\n        returns (\r\n            string memory name,\r\n            string memory personalDetails,\r\n            address hospitalAddress\r\n        )\r\n    {\r\n        return (\r\n            doctorDatabase[_walletAddress].name,\r\n            doctorDatabase[_walletAddress].personalDetails,\r\n            doctorDatabase[_walletAddress].hospitalAddress\r\n        );\r\n    }\r\n\r\n    event LogStorePharmacy(string name, string personalDetails, address owner);\r\n    event LogGetPharmacy(string name, string personalDetails, address owner);\r\n\r\n    //: Pharmacy DATABASE\r\n    mapping(address => pharmacyRecord) pharmacyDatabase;\r\n\r\n    function storePharmacy(\r\n        string memory name,\r\n        string memory _personalDetails,\r\n        address _walletAddress\r\n    ) external returns (bool status) {\r\n        _setupRole(PHARMACY, _walletAddress);\r\n        pharmacyDatabase[_walletAddress].name = name;\r\n        pharmacyDatabase[_walletAddress].walletAddress = _walletAddress;\r\n        pharmacyDatabase[_walletAddress].personalDetails = _personalDetails;\r\n        pharmacyCounter.increment();\r\n        \r\n        emit LogStorePharmacy(\r\n            pharmacyDatabase[_walletAddress].name,\r\n            pharmacyDatabase[_walletAddress].personalDetails,\r\n            pharmacyDatabase[_walletAddress].walletAddress\r\n        );\r\n\r\n        return true;\r\n    }\r\n\r\n    //updated function.\r\n    function updatePharmacyPersonalDetailHash(\r\n        string memory _personalDetails,\r\n        address _walletAddress\r\n    ) external returns (bool status) {\r\n        if (hasRole(PHARMACY, _walletAddress)) {\r\n            patientDatabase[_walletAddress].personalDetails = _personalDetails;\r\n        }\r\n\r\n        return true;\r\n    }\r\n\r\n    function retrievePharmacyCount()\r\n        external\r\n        view\r\n        returns (uint256 pharmacyCount)\r\n    {\r\n        return pharmacyCounter.current();\r\n    }\r\n\r\n    function getPharmacyData(address _walletAddress)\r\n        public\r\n        view\r\n        returns (\r\n            string memory name,\r\n            string memory pharmacyDetails,\r\n            address walletAddress\r\n        )\r\n    {\r\n         if (hasRole(PHARMACY, _walletAddress)) {\r\n        return (\r\n            \r\n            pharmacyDatabase[_walletAddress].name,\r\n            pharmacyDatabase[_walletAddress].personalDetails,\r\n            _walletAddress\r\n        );\r\n         }\r\n    }\r\n\r\n    event LogHospital(\r\n        string name,\r\n        string _hospitalDetails,\r\n        address walletAddress\r\n    );\r\n    event LogUpdateHospital(string name, string dateOfBirth);\r\n    event LogDeleteHospital(string name, uint256 empIdIndex);\r\n\r\n    //: HOSPITAL DATABASE\r\n    mapping(address => hospitalRecord) hospitalDatabase;\r\n\r\n    function storeHospital(\r\n        string memory _name,\r\n        string memory _hospitalDetails,\r\n        address _walletAddress\r\n    ) external returns (bool status) {\r\n        _setupRole(HOSPITAL_ADMIN, _walletAddress);\r\n        hospitalDatabase[_walletAddress].name = _name;\r\n        hospitalDatabase[_walletAddress].walletAddress = _walletAddress;\r\n        hospitalDatabase[_walletAddress].hospitalDetails = _hospitalDetails;\r\n        hospitalCounter.increment();\r\n\r\n        emit LogHospital(_name, _hospitalDetails, _walletAddress);\r\n\r\n        return true;\r\n    }\r\n\r\n    //updated function\r\n    function updateHospitalPersonalDetailHash(\r\n        string memory _personalDetails,\r\n        address _walletAddress\r\n    ) external returns (bool status) {\r\n        if (hasRole(HOSPITAL_ADMIN, _walletAddress)) {\r\n            patientDatabase[_walletAddress].personalDetails = _personalDetails;\r\n        }\r\n\r\n        return true;\r\n    }\r\n\r\n    function retrieveHospitalCount()\r\n        external\r\n        view\r\n        returns (uint256 hospitalCount)\r\n    {\r\n        return hospitalCounter.current();\r\n    }\r\n\r\n    function retrieveHospitalSpecificCountOfDoctors(address _hospitalAddress)\r\n        external\r\n        view\r\n        returns (uint256 doctorCountInHospital)\r\n    {\r\n        return hospitalDatabase[_hospitalAddress].doctorInHospital.current();\r\n    }\r\n\r\n    function retrieveHospitalSpecificCountOfPatients(address _hospitalAddress)\r\n        external\r\n        view\r\n        returns (uint256 patientCountInHospital)\r\n    {\r\n        return hospitalDatabase[_hospitalAddress].patientInHospital.current();\r\n    }\r\n\r\n    function getHospitalData(address addressOfUser)\r\n        public\r\n        view\r\n        returns (\r\n            string memory _nameAdmin,\r\n            string memory hospitalDetails,\r\n            address walletAddress\r\n        )\r\n    {\r\n        return (\r\n            hospitalDatabase[addressOfUser].name,\r\n            hospitalDatabase[addressOfUser].hospitalDetails,\r\n            hospitalDatabase[addressOfUser].walletAddress\r\n        );\r\n    }\r\n\r\n    // Grant Role VERIFIED_PATIENT To Patient\r\n    function grantRoleVerifiedPatient(\r\n        address _addressOfAdmin,\r\n        address _addressOfPatient\r\n    ) public returns (bool success) {\r\n        require(\r\n            hasRole(HOSPITAL_ADMIN, _addressOfAdmin) ||\r\n                hasRole(VERIFIED_DOCTOR, _addressOfAdmin)\r\n        );\r\n        require(hasRole(PATIENT, _addressOfPatient));\r\n        grantRole(VERIFIED_PATIENT, _addressOfPatient);\r\n        return true;\r\n    }\r\n\r\n    // Grant Role VERIFIED_DOCTOR to Doctor\r\n    function grantRoleVerifiedDoctor(\r\n        address _addressOfAdmin,\r\n        address _addressOfDoctor\r\n    ) public returns (bool success) {\r\n        require(hasRole(HOSPITAL_ADMIN, _addressOfAdmin));\r\n        require(hasRole(DOCTOR, _addressOfDoctor));\r\n        grantRole(VERIFIED_DOCTOR, _addressOfDoctor);\r\n        return true;\r\n    }\r\n}\r\n",
  "sourcePath": "C:\\Users\\reube\\Documents\\blockchain_in_healthcare\\contracts\\MainContract.sol",
  "compiler": {
    "name": "solc",
    "version": "0.8.0+commit.c7dfd78e.Emscripten.clang"
  },
  "schemaVersion": "3.4.4",
  "updatedAt": "2022-01-12T08:30:27.631Z",
  "networkType": "ethereum",
  "devdoc": {
    "kind": "dev",
    "methods": {
      "getRoleAdmin(bytes32)": {
        "details": "Returns the admin role that controls `role`. See {grantRole} and {revokeRole}. To change a role's admin, use {_setRoleAdmin}."
      },
      "grantRole(bytes32,address)": {
        "details": "Grants `role` to `account`. If `account` had not been already granted `role`, emits a {RoleGranted} event. Requirements: - the caller must have ``role``'s admin role."
      },
      "hasRole(bytes32,address)": {
        "details": "Returns `true` if `account` has been granted `role`."
      },
      "renounceRole(bytes32,address)": {
        "details": "Revokes `role` from the calling account. Roles are often managed via {grantRole} and {revokeRole}: this function's purpose is to provide a mechanism for accounts to lose their privileges if they are compromised (such as when a trusted device is misplaced). If the calling account had been revoked `role`, emits a {RoleRevoked} event. Requirements: - the caller must be `account`."
      },
      "revokeRole(bytes32,address)": {
        "details": "Revokes `role` from `account`. If `account` had been granted `role`, emits a {RoleRevoked} event. Requirements: - the caller must have ``role``'s admin role."
      },
      "supportsInterface(bytes4)": {
        "details": "See {IERC165-supportsInterface}."
      }
    },
    "version": 1
  },
  "userdoc": {
    "kind": "user",
    "methods": {},
    "version": 1
  }
}