{
  "contractName": "Patient",
  "abi": [
    {
      "anonymous": false,
      "inputs": [
        {
          "indexed": false,
          "internalType": "string",
          "name": "name",
          "type": "string"
        },
        {
          "indexed": false,
          "internalType": "uint256",
          "name": "empIdIndex",
          "type": "uint256"
        }
      ],
      "name": "LogDeleteEmp",
      "type": "event"
    },
    {
      "anonymous": false,
      "inputs": [
        {
          "indexed": false,
          "internalType": "string",
          "name": "name",
          "type": "string"
        },
        {
          "indexed": false,
          "internalType": "address",
          "name": "hospitalAddress",
          "type": "address"
        },
        {
          "indexed": false,
          "internalType": "string",
          "name": "_personalDetails",
          "type": "string"
        },
        {
          "indexed": false,
          "internalType": "string",
          "name": "_signatureHash",
          "type": "string"
        },
        {
          "indexed": false,
          "internalType": "address",
          "name": "owner",
          "type": "address"
        }
      ],
      "name": "LogPatient",
      "type": "event"
    },
    {
      "anonymous": false,
      "inputs": [
        {
          "indexed": false,
          "internalType": "string",
          "name": "name",
          "type": "string"
        },
        {
          "indexed": false,
          "internalType": "string",
          "name": "dateOfBirth",
          "type": "string"
        }
      ],
      "name": "LogUpdatePatientDOB",
      "type": "event"
    },
    {
      "anonymous": false,
      "inputs": [
        {
          "indexed": true,
          "internalType": "bytes32",
          "name": "role",
          "type": "bytes32"
        },
        {
          "indexed": true,
          "internalType": "bytes32",
          "name": "previousAdminRole",
          "type": "bytes32"
        },
        {
          "indexed": true,
          "internalType": "bytes32",
          "name": "newAdminRole",
          "type": "bytes32"
        }
      ],
      "name": "RoleAdminChanged",
      "type": "event"
    },
    {
      "anonymous": false,
      "inputs": [
        {
          "indexed": true,
          "internalType": "bytes32",
          "name": "role",
          "type": "bytes32"
        },
        {
          "indexed": true,
          "internalType": "address",
          "name": "account",
          "type": "address"
        },
        {
          "indexed": true,
          "internalType": "address",
          "name": "sender",
          "type": "address"
        }
      ],
      "name": "RoleGranted",
      "type": "event"
    },
    {
      "anonymous": false,
      "inputs": [
        {
          "indexed": true,
          "internalType": "bytes32",
          "name": "role",
          "type": "bytes32"
        },
        {
          "indexed": true,
          "internalType": "address",
          "name": "account",
          "type": "address"
        },
        {
          "indexed": true,
          "internalType": "address",
          "name": "sender",
          "type": "address"
        }
      ],
      "name": "RoleRevoked",
      "type": "event"
    },
    {
      "inputs": [],
      "name": "DEFAULT_ADMIN_ROLE",
      "outputs": [
        {
          "internalType": "bytes32",
          "name": "",
          "type": "bytes32"
        }
      ],
      "stateMutability": "view",
      "type": "function",
      "constant": true
    },
    {
      "inputs": [
        {
          "internalType": "bytes32",
          "name": "role",
          "type": "bytes32"
        }
      ],
      "name": "getRoleAdmin",
      "outputs": [
        {
          "internalType": "bytes32",
          "name": "",
          "type": "bytes32"
        }
      ],
      "stateMutability": "view",
      "type": "function",
      "constant": true
    },
    {
      "inputs": [
        {
          "internalType": "bytes32",
          "name": "role",
          "type": "bytes32"
        },
        {
          "internalType": "address",
          "name": "account",
          "type": "address"
        }
      ],
      "name": "grantRole",
      "outputs": [],
      "stateMutability": "nonpayable",
      "type": "function"
    },
    {
      "inputs": [
        {
          "internalType": "bytes32",
          "name": "role",
          "type": "bytes32"
        },
        {
          "internalType": "address",
          "name": "account",
          "type": "address"
        }
      ],
      "name": "hasRole",
      "outputs": [
        {
          "internalType": "bool",
          "name": "",
          "type": "bool"
        }
      ],
      "stateMutability": "view",
      "type": "function",
      "constant": true
    },
    {
      "inputs": [
        {
          "internalType": "bytes32",
          "name": "role",
          "type": "bytes32"
        },
        {
          "internalType": "address",
          "name": "account",
          "type": "address"
        }
      ],
      "name": "renounceRole",
      "outputs": [],
      "stateMutability": "nonpayable",
      "type": "function"
    },
    {
      "inputs": [
        {
          "internalType": "bytes32",
          "name": "role",
          "type": "bytes32"
        },
        {
          "internalType": "address",
          "name": "account",
          "type": "address"
        }
      ],
      "name": "revokeRole",
      "outputs": [],
      "stateMutability": "nonpayable",
      "type": "function"
    },
    {
      "inputs": [
        {
          "internalType": "bytes4",
          "name": "interfaceId",
          "type": "bytes4"
        }
      ],
      "name": "supportsInterface",
      "outputs": [
        {
          "internalType": "bool",
          "name": "",
          "type": "bool"
        }
      ],
      "stateMutability": "view",
      "type": "function",
      "constant": true
    },
    {
      "inputs": [
        {
          "internalType": "string",
          "name": "_name",
          "type": "string"
        },
        {
          "internalType": "string",
          "name": "_personalDetails",
          "type": "string"
        },
        {
          "internalType": "address",
          "name": "_hospitalAddress",
          "type": "address"
        },
        {
          "internalType": "address",
          "name": "_walletAddress",
          "type": "address"
        },
        {
          "internalType": "string",
          "name": "_signatureHash",
          "type": "string"
        }
      ],
      "name": "registerPatient",
      "outputs": [
        {
          "internalType": "string",
          "name": "status",
          "type": "string"
        }
      ],
      "stateMutability": "nonpayable",
      "type": "function"
    },
    {
      "inputs": [
        {
          "internalType": "address",
          "name": "_walletAddress",
          "type": "address"
        }
      ],
      "name": "getSignatureHash",
      "outputs": [
        {
          "internalType": "string",
          "name": "",
          "type": "string"
        }
      ],
      "stateMutability": "view",
      "type": "function",
      "constant": true
    },
    {
      "inputs": [
        {
          "internalType": "address",
          "name": "_walletAddress",
          "type": "address"
        }
      ],
      "name": "getUserAddress",
      "outputs": [
        {
          "internalType": "address",
          "name": "",
          "type": "address"
        }
      ],
      "stateMutability": "view",
      "type": "function",
      "constant": true
    },
    {
      "inputs": [
        {
          "internalType": "address",
          "name": "_walletAddress",
          "type": "address"
        }
      ],
      "name": "getPatientData",
      "outputs": [
        {
          "internalType": "string",
          "name": "name",
          "type": "string"
        },
        {
          "internalType": "string",
          "name": "personalDetails",
          "type": "string"
        },
        {
          "internalType": "address",
          "name": "walletAddress",
          "type": "address"
        }
      ],
      "stateMutability": "view",
      "type": "function",
      "constant": true
    },
    {
      "inputs": [
        {
          "internalType": "address",
          "name": "_walletAddress",
          "type": "address"
        },
        {
          "internalType": "string",
          "name": "_personalDetails",
          "type": "string"
        }
      ],
      "name": "updatePatientPersonalData",
      "outputs": [
        {
          "internalType": "bool",
          "name": "success",
          "type": "bool"
        }
      ],
      "stateMutability": "nonpayable",
      "type": "function"
    },
    {
      "inputs": [
        {
          "internalType": "address",
          "name": "_walletAddress",
          "type": "address"
        },
        {
          "internalType": "string",
          "name": "medicalRecordHash",
          "type": "string"
        }
      ],
      "name": "updatePatientMedicalRecords",
      "outputs": [
        {
          "internalType": "string",
          "name": "status",
          "type": "string"
        }
      ],
      "stateMutability": "nonpayable",
      "type": "function"
    },
    {
      "inputs": [
        {
          "internalType": "address",
          "name": "_walletAddress",
          "type": "address"
        },
        {
          "internalType": "string",
          "name": "prescriptionHash",
          "type": "string"
        }
      ],
      "name": "updatePatientPrescription",
      "outputs": [
        {
          "internalType": "string",
          "name": "status",
          "type": "string"
        }
      ],
      "stateMutability": "nonpayable",
      "type": "function"
    },
    {
      "inputs": [
        {
          "internalType": "address",
          "name": "_patientAddress",
          "type": "address"
        }
      ],
      "name": "getNewPrescription",
      "outputs": [
        {
          "internalType": "string",
          "name": "status",
          "type": "string"
        }
      ],
      "stateMutability": "view",
      "type": "function",
      "constant": true
    },
    {
      "inputs": [
        {
          "internalType": "address",
          "name": "_patientAddress",
          "type": "address"
        }
      ],
      "name": "getMultiplePrescription",
      "outputs": [
        {
          "internalType": "string[]",
          "name": "status",
          "type": "string[]"
        }
      ],
      "stateMutability": "view",
      "type": "function",
      "constant": true
    },
    {
      "inputs": [
        {
          "internalType": "address",
          "name": "_patientAddress",
          "type": "address"
        }
      ],
      "name": "getNewRecords",
      "outputs": [
        {
          "internalType": "string",
          "name": "status",
          "type": "string"
        }
      ],
      "stateMutability": "view",
      "type": "function",
      "constant": true
    },
    {
      "inputs": [
        {
          "internalType": "address",
          "name": "_patientAddress",
          "type": "address"
        }
      ],
      "name": "getMultipleRecords",
      "outputs": [
        {
          "internalType": "string[]",
          "name": "status",
          "type": "string[]"
        }
      ],
      "stateMutability": "view",
      "type": "function",
      "constant": true
    }
  ],
  "bytecode": "0x608060405234801561001057600080fd5b5061182b806100206000396000f3fe608060405234801561001057600080fd5b50600436106101165760003560e01c806377aee292116100a2578063a217fddf11610071578063a217fddf1461026d578063ac29186714610275578063d547741f14610288578063fcd4014b1461029b578063fffaff42146102ae57610116565b806377aee2921461022157806381998bb81461023457806391d1485414610247578063943528101461025a57610116565b806336568abe116100e957806336568abe146101995780633f9c1090146101ac57806348e81852146101bf5780634d6849d2146101e15780637799c0491461020157610116565b806301ffc9a71461011b578063224ccd0f14610144578063248a9ca3146101645780632f2ff15d14610184575b600080fd5b61012e6101293660046112ce565b6102c1565b60405161013b919061159a565b60405180910390f35b610157610152366004611225565b6102ee565b60405161013b919061153a565b61017761017236600461128b565b6103e0565b60405161013b91906115a5565b6101976101923660046112a3565b6103f5565b005b6101976101a73660046112a3565b61041e565b61012e6101ba36600461123f565b61046d565b6101d26101cd366004611225565b6104fc565b60405161013b939291906115c1565b6101f46101ef366004611225565b61064a565b60405161013b9190611526565b61021461020f366004611225565b61066b565b60405161013b91906115ae565b61015761022f366004611225565b61071a565b610214610242366004611225565b610801565b61012e6102553660046112a3565b61082b565b6102146102683660046112f6565b610854565b6101776109cb565b610214610283366004611225565b6109d0565b6101976102963660046112a3565b6109fa565b6102146102a936600461123f565b610a19565b6102146102bc36600461123f565b610ba3565b60006001600160e01b03198216637965db0b60e01b14806102e657506102e682610d2d565b90505b919050565b6001600160a01b0381166000908152600160209081526040808320600701805482518185028101850190935280835260609492939192909184015b828210156103d55783829060005260206000200180546103489061178e565b80601f01602080910402602001604051908101604052809291908181526020018280546103749061178e565b80156103c15780601f10610396576101008083540402835291602001916103c1565b820191906000526020600020905b8154815290600101906020018083116103a457829003601f168201915b505050505081526020019060010190610329565b505050509050919050565b60009081526020819052604090206001015490565b6103fe826103e0565b61040f8161040a610d46565b610d4a565b6104198383610dae565b505050565b610426610d46565b6001600160a01b0316816001600160a01b03161461045f5760405162461bcd60e51b8152600401610456906116c1565b60405180910390fd5b6104698282610e33565b5050565b6001600160a01b03821660009081526001602081815260408320845161049a939190910191850190611079565b506001600160a01b03831660009081526001602081905260409182902091517fd33820a66beaac50a6887a1966130399805ea7389f1d2a4c439230cbf7725394926104ea9290919082019061165e565b60405180910390a15060015b92915050565b6001600160a01b038116600090815260016020819052604082208054606093849390929190820190869083906105319061178e565b80601f016020809104026020016040519081016040528092919081815260200182805461055d9061178e565b80156105aa5780601f1061057f576101008083540402835291602001916105aa565b820191906000526020600020905b81548152906001019060200180831161058d57829003601f168201915b505050505092508180546105bd9061178e565b80601f01602080910402602001604051908101604052809291908181526020018280546105e99061178e565b80156106365780601f1061060b57610100808354040283529160200191610636565b820191906000526020600020905b81548152906001019060200180831161061957829003601f168201915b505050505091509250925092509193909250565b6001600160a01b039081166000908152600160205260409020600401541690565b6001600160a01b03811660009081526001602052604090206006018054606091906106959061178e565b80601f01602080910402602001604051908101604052809291908181526020018280546106c19061178e565b801561070e5780601f106106e35761010080835404028352916020019161070e565b820191906000526020600020905b8154815290600101906020018083116106f157829003601f168201915b50505050509050919050565b6001600160a01b0381166000908152600160209081526040808320600501805482518185028101850190935280835260609492939192909184015b828210156103d55783829060005260206000200180546107749061178e565b80601f01602080910402602001604051908101604052809291908181526020018280546107a09061178e565b80156107ed5780601f106107c2576101008083540402835291602001916107ed565b820191906000526020600020905b8154815290600101906020018083116107d057829003601f168201915b505050505081526020019060010190610755565b6001600160a01b03811660009081526001602052604090206002018054606091906106959061178e565b6000918252602082815260408084206001600160a01b0393909316845291905290205460ff1690565b60606108807fe5786ee6f50ab1a5567cb3f3f6840a2f4ddbafdf4a35cb2c52d5b732b1e84a3284610eb6565b6001600160a01b038316600090815260016020908152604090912087516108a992890190611079565b506001600160a01b038316600090815260016020818152604090922087516108d993919092019190880190611079565b506001600160a01b0380841660008181526001602090815260409091206003810180549489166001600160a01b0319958616179055600481018054909416909217909255835161093192600290920191850190611079565b506001600160a01b03808416600090815260016020819052604091829020600381015492517fe0e627ec69a745bd831298dff438b3af22212f2fb01edc86c199487b35e0eed194610990949293921691830190600284019089906115ff565b60405180910390a1506040805180820190915260128152711410551251539508149151d254d51154915160721b602082015295945050505050565b600081565b6001600160a01b03811660009081526001602052604090206008018054606091906106959061178e565b610a03826103e0565b610a0f8161040a610d46565b6104198383610e33565b6060604051602001610a2a906114ae565b60408051601f1981840301815282825280516020918201206001600160a01b038716600090815260018352929092209192610a6992600601910161143f565b604051602081830303815290604052805190602001201415610aef576001600160a01b03831660009081526001602090815260409091208351610ab492600690920191850190611079565b505060408051808201909152601881527f454e5445524544204f4e4345205245434f5244204f4e4c59000000000000000060208201526104f6565b6001600160a01b03831660009081526001602081815260408320600581018054938401815584529220600690920180549290910191610b2d9061178e565b610b389291906110fd565b506001600160a01b03831660009081526001602090815260409091208351610b6892600690920191850190611079565b505060408051808201909152601981527f454e5445524544205457494345205245434f5244204f4e4c590000000000000060208201526104f6565b6060604051602001610bb4906114ae565b60408051601f1981840301815282825280516020918201206001600160a01b038716600090815260018352929092209192610bf392600801910161143f565b604051602081830303815290604052805190602001201415610c79576001600160a01b03831660009081526001602090815260409091208351610c3e92600890920191850190611079565b505060408051808201909152601e81527f454e5445524544204f4e434520505245534352495054494f4e204f4e4c59000060208201526104f6565b6001600160a01b03831660009081526001602081815260408320600781018054938401815584529220600890920180549290910191610cb79061178e565b610cc29291906110fd565b506001600160a01b03831660009081526001602090815260409091208351610cf292600890920191850190611079565b505060408051808201909152601f81527f454e544552454420545749434520505245534352495054494f4e204f4e4c590060208201526104f6565b6001600160e01b031981166301ffc9a760e01b14919050565b3390565b610d54828261082b565b61046957610d6c816001600160a01b03166014610ec0565b610d77836020610ec0565b604051602001610d889291906114b1565b60408051601f198184030181529082905262461bcd60e51b8252610456916004016115ae565b610db8828261082b565b610469576000828152602081815260408083206001600160a01b03851684529091529020805460ff19166001179055610def610d46565b6001600160a01b0316816001600160a01b0316837f2f8788117e7eff1d82e926ec794901d17c78024a50270940304540a733656f0d60405160405180910390a45050565b610e3d828261082b565b15610469576000828152602081815260408083206001600160a01b03851684529091529020805460ff19169055610e72610d46565b6001600160a01b0316816001600160a01b0316837ff6391f5c32d9c69d2a47ea670b442974b53935d1edc7fd64eb21e047a839171b60405160405180910390a45050565b6104698282610dae565b60606000610ecf836002611728565b610eda906002611710565b67ffffffffffffffff811115610f0057634e487b7160e01b600052604160045260246000fd5b6040519080825280601f01601f191660200182016040528015610f2a576020820181803683370190505b509050600360fc1b81600081518110610f5357634e487b7160e01b600052603260045260246000fd5b60200101906001600160f81b031916908160001a905350600f60fb1b81600181518110610f9057634e487b7160e01b600052603260045260246000fd5b60200101906001600160f81b031916908160001a9053506000610fb4846002611728565b610fbf906001611710565b90505b6001811115611053576f181899199a1a9b1b9c1cb0b131b232b360811b85600f166010811061100157634e487b7160e01b600052603260045260246000fd5b1a60f81b82828151811061102557634e487b7160e01b600052603260045260246000fd5b60200101906001600160f81b031916908160001a90535060049490941c9361104c81611777565b9050610fc2565b5083156110725760405162461bcd60e51b81526004016104569061168c565b9392505050565b8280546110859061178e565b90600052602060002090601f0160209004810192826110a757600085556110ed565b82601f106110c057805160ff19168380011785556110ed565b828001600101855582156110ed579182015b828111156110ed5782518255916020019190600101906110d2565b506110f9929150611178565b5090565b8280546111099061178e565b90600052602060002090601f01602090048101928261112b57600085556110ed565b82601f1061113c57805485556110ed565b828001600101855582156110ed57600052602060002091601f016020900482015b828111156110ed57825482559160010191906001019061115d565b5b808211156110f95760008155600101611179565b80356001600160a01b03811681146102e957600080fd5b600082601f8301126111b4578081fd5b813567ffffffffffffffff808211156111cf576111cf6117df565b604051601f8301601f1916810160200182811182821017156111f3576111f36117df565b60405282815284830160200186101561120a578384fd5b82602086016020830137918201602001929092529392505050565b600060208284031215611236578081fd5b6110728261118d565b60008060408385031215611251578081fd5b61125a8361118d565b9150602083013567ffffffffffffffff811115611275578182fd5b611281858286016111a4565b9150509250929050565b60006020828403121561129c578081fd5b5035919050565b600080604083850312156112b5578182fd5b823591506112c56020840161118d565b90509250929050565b6000602082840312156112df578081fd5b81356001600160e01b031981168114611072578182fd5b600080600080600060a0868803121561130d578081fd5b853567ffffffffffffffff80821115611324578283fd5b61133089838a016111a4565b96506020880135915080821115611345578283fd5b61135189838a016111a4565b955061135f6040890161118d565b945061136d6060890161118d565b93506080880135915080821115611382578283fd5b5061138f888289016111a4565b9150509295509295909350565b600081518084526113b4816020860160208601611747565b601f01601f19169290920160200192915050565b600081546113d58161178e565b8085526020600183811680156113f2576001811461140657611434565b60ff19851688840152604088019550611434565b866000528260002060005b8581101561142c5781548a8201860152908301908401611411565b890184019650505b505050505092915050565b600080835461144d8161178e565b600182811680156114655760018114611476576114a2565b60ff198416875282870194506114a2565b8786526020808720875b858110156114995781548a820152908401908201611480565b50505082870194505b50929695505050505050565b90565b60007f416363657373436f6e74726f6c3a206163636f756e7420000000000000000000825283516114e9816017850160208801611747565b7001034b99036b4b9b9b4b733903937b6329607d1b601791840191820152835161151a816028840160208801611747565b01602801949350505050565b6001600160a01b0391909116815260200190565b6000602080830181845280855180835260408601915060408482028701019250838701855b8281101561158d57603f1988860301845261157b85835161139c565b9450928501929085019060010161155f565b5092979650505050505050565b901515815260200190565b90815260200190565b600060208252611072602083018461139c565b6000606082526115d4606083018661139c565b82810360208401526115e6818661139c565b91505060018060a01b0383166040830152949350505050565b600060a0825261161260a08301886113c8565b6001600160a01b038781166020850152838203604085015261163482886113c8565b9150838203606085015261164882876113c8565b9250808516608085015250509695505050505050565b60006040825261167160408301856113c8565b828103602084015261168381856113c8565b95945050505050565b6020808252818101527f537472696e67733a20686578206c656e67746820696e73756666696369656e74604082015260600190565b6020808252602f908201527f416363657373436f6e74726f6c3a2063616e206f6e6c792072656e6f756e636560408201526e103937b632b9903337b91039b2b63360891b606082015260800190565b60008219821115611723576117236117c9565b500190565b6000816000190483118215151615611742576117426117c9565b500290565b60005b8381101561176257818101518382015260200161174a565b83811115611771576000848401525b50505050565b600081611786576117866117c9565b506000190190565b6002810460018216806117a257607f821691505b602082108114156117c357634e487b7160e01b600052602260045260246000fd5b50919050565b634e487b7160e01b600052601160045260246000fd5b634e487b7160e01b600052604160045260246000fdfea2646970667358221220694529a3f85f5e76f5e79b59ba69835749f39dfd4fa8cd2828512e9ce5cbddaf64736f6c63430008000033",
  "immutableReferences": {},
  "source": "pragma solidity ^0.8.0;\r\n\r\n//SPDX-License-Identifier: MIT\r\n\r\nimport \"./access/AccessControlEnumerable.sol\";\r\nimport \"./Roles.sol\";\r\n\r\ncontract Patient is AccessControl {\r\n    struct patientRecord {\r\n        string name;\r\n        string personalDetails;\r\n        string signatureHash;\r\n        address hospitalAddress;\r\n        address walletAddress;\r\n        string[] previousPatientRecordHashes;\r\n        string newMedicalRecordHash;\r\n        string[] previousPatientPrescriptionHashes;\r\n        string newPatientPrescriptionHashes;\r\n    }\r\n\r\n    event LogPatient(\r\n        string name,\r\n        address hospitalAddress,\r\n        string _personalDetails,\r\n        string _signatureHash,\r\n        address owner\r\n    );\r\n    event LogUpdatePatientDOB(string name, string dateOfBirth);\r\n    event LogDeleteEmp(string name, uint256 empIdIndex);\r\n\r\n    //: PATIENT DATABASE\r\n    mapping(address => patientRecord) patientDatabase;\r\n\r\n    function registerPatient(\r\n        string memory _name,\r\n        string memory _personalDetails,\r\n        address _hospitalAddress,\r\n        address _walletAddress,\r\n        string memory _signatureHash\r\n    ) external returns (string memory status) {\r\n        _setupRole(PATIENT, _walletAddress);\r\n        patientDatabase[_walletAddress].name = _name;\r\n        patientDatabase[_walletAddress].personalDetails = _personalDetails;\r\n        patientDatabase[_walletAddress].hospitalAddress = _hospitalAddress;\r\n        patientDatabase[_walletAddress].walletAddress = _walletAddress;\r\n        patientDatabase[_walletAddress].signatureHash = _signatureHash;\r\n\r\n        emit LogPatient(\r\n            patientDatabase[_walletAddress].name,\r\n            patientDatabase[_walletAddress].hospitalAddress,\r\n            patientDatabase[_walletAddress].personalDetails,\r\n            patientDatabase[_walletAddress].signatureHash,\r\n            _walletAddress\r\n        );\r\n\r\n        return \"PATIENT REGISTERED\";\r\n    }\r\n\r\n    function getSignatureHash(address _walletAddress)\r\n        public\r\n        view\r\n        returns (string memory)\r\n    {\r\n        return patientDatabase[_walletAddress].signatureHash;\r\n    }\r\n\r\n    function getUserAddress(address _walletAddress)\r\n        public\r\n        view\r\n        returns (address)\r\n    {\r\n        return patientDatabase[_walletAddress].walletAddress;\r\n    }\r\n\r\n    function getPatientData(address _walletAddress)\r\n        external\r\n        view\r\n        returns (\r\n            string memory name,\r\n            string memory personalDetails,\r\n            address walletAddress\r\n        )\r\n    {\r\n        return (\r\n            patientDatabase[_walletAddress].name,\r\n            patientDatabase[_walletAddress].personalDetails,\r\n            _walletAddress\r\n        );\r\n    }\r\n\r\n    function updatePatientPersonalData(\r\n        address _walletAddress,\r\n        string memory _personalDetails\r\n    ) public returns (bool success) {\r\n        patientDatabase[_walletAddress].personalDetails = _personalDetails;\r\n\r\n        emit LogUpdatePatientDOB(\r\n            patientDatabase[_walletAddress].name,\r\n            patientDatabase[_walletAddress].personalDetails\r\n        );\r\n\r\n        return true;\r\n    }\r\n\r\n    function updatePatientMedicalRecords(\r\n        address _walletAddress,\r\n        string memory medicalRecordHash\r\n    ) external returns (string memory status) {\r\n        if (\r\n            keccak256(\r\n                abi.encodePacked(\r\n                    patientDatabase[_walletAddress].newMedicalRecordHash\r\n                )\r\n            ) == keccak256(abi.encodePacked(\"\"))\r\n        ) {\r\n            patientDatabase[_walletAddress]\r\n                .newMedicalRecordHash = medicalRecordHash;\r\n            return \"ENTERED ONCE RECORD ONLY\";\r\n        } else {\r\n            patientDatabase[_walletAddress].previousPatientRecordHashes.push(\r\n                patientDatabase[_walletAddress].newMedicalRecordHash\r\n            );\r\n            patientDatabase[_walletAddress]\r\n                .newMedicalRecordHash = medicalRecordHash;\r\n            return \"ENTERED TWICE RECORD ONLY\";\r\n        }\r\n    }\r\n\r\n    function updatePatientPrescription(\r\n        address _walletAddress,\r\n        string memory prescriptionHash\r\n    ) external returns (string memory status) {\r\n        if (\r\n            keccak256(\r\n                abi.encodePacked(\r\n                    patientDatabase[_walletAddress].newPatientPrescriptionHashes\r\n                )\r\n            ) == keccak256(abi.encodePacked(\"\"))\r\n        ) {\r\n            patientDatabase[_walletAddress]\r\n                .newPatientPrescriptionHashes = prescriptionHash;\r\n            return \"ENTERED ONCE PRESCRIPTION ONLY\";\r\n        } else {\r\n            patientDatabase[_walletAddress]\r\n                .previousPatientPrescriptionHashes\r\n                .push(\r\n                    patientDatabase[_walletAddress].newPatientPrescriptionHashes\r\n                );\r\n            patientDatabase[_walletAddress]\r\n                .newPatientPrescriptionHashes = prescriptionHash;\r\n            return \"ENTERED TWICE PRESCRIPTION ONLY\";\r\n        }\r\n    }\r\n\r\n    function getNewPrescription(address _patientAddress)\r\n        external\r\n        view\r\n        returns (string memory status)\r\n    {\r\n        return patientDatabase[_patientAddress].newPatientPrescriptionHashes;\r\n    }\r\n\r\n    function getMultiplePrescription(address _patientAddress)\r\n        external\r\n        view\r\n        returns (string[] memory status)\r\n    {\r\n        return\r\n            patientDatabase[_patientAddress].previousPatientPrescriptionHashes;\r\n    }\r\n\r\n    function getNewRecords(address _patientAddress)\r\n        external\r\n        view\r\n        returns (string memory status)\r\n    {\r\n        return patientDatabase[_patientAddress].newMedicalRecordHash;\r\n    }\r\n\r\n    function getMultipleRecords(address _patientAddress)\r\n        external\r\n        view\r\n        returns (string[] memory status)\r\n    {\r\n        return patientDatabase[_patientAddress].previousPatientRecordHashes;\r\n    }\r\n}\r\n",
  "sourcePath": "C:\\Users\\Ankita\\AndroidStudioProjects\\blockchain_in_healthcare\\contracts\\Patient.sol",
  "compiler": {
    "name": "solc",
    "version": "0.8.0+commit.c7dfd78e.Emscripten.clang"
  },
  "schemaVersion": "3.4.3",
  "updatedAt": "2022-01-04T14:08:08.300Z",
  "networkType": "ethereum",
  "devdoc": {
    "kind": "dev",
    "methods": {
      "getRoleAdmin(bytes32)": {
        "details": "Returns the admin role that controls `role`. See {grantRole} and {revokeRole}. To change a role's admin, use {_setRoleAdmin}."
      },
      "grantRole(bytes32,address)": {
        "details": "Grants `role` to `account`. If `account` had not been already granted `role`, emits a {RoleGranted} event. Requirements: - the caller must have ``role``'s admin role."
      },
      "hasRole(bytes32,address)": {
        "details": "Returns `true` if `account` has been granted `role`."
      },
      "renounceRole(bytes32,address)": {
        "details": "Revokes `role` from the calling account. Roles are often managed via {grantRole} and {revokeRole}: this function's purpose is to provide a mechanism for accounts to lose their privileges if they are compromised (such as when a trusted device is misplaced). If the calling account had been granted `role`, emits a {RoleRevoked} event. Requirements: - the caller must be `account`."
      },
      "revokeRole(bytes32,address)": {
        "details": "Revokes `role` from `account`. If `account` had been granted `role`, emits a {RoleRevoked} event. Requirements: - the caller must have ``role``'s admin role."
      },
      "supportsInterface(bytes4)": {
        "details": "See {IERC165-supportsInterface}."
      }
    },
    "version": 1
  },
  "userdoc": {
    "kind": "user",
    "methods": {},
    "version": 1
  }
}