{
  "contractName": "Pharmacy",
  "abi": [
    {
      "anonymous": false,
      "inputs": [
        {
          "indexed": false,
          "internalType": "string",
          "name": "name",
          "type": "string"
        },
        {
          "indexed": false,
          "internalType": "string",
          "name": "personalDetails",
          "type": "string"
        },
        {
          "indexed": false,
          "internalType": "address",
          "name": "owner",
          "type": "address"
        }
      ],
      "name": "LogPharmacy",
      "type": "event"
    },
    {
      "anonymous": false,
      "inputs": [
        {
          "indexed": true,
          "internalType": "bytes32",
          "name": "role",
          "type": "bytes32"
        },
        {
          "indexed": true,
          "internalType": "bytes32",
          "name": "previousAdminRole",
          "type": "bytes32"
        },
        {
          "indexed": true,
          "internalType": "bytes32",
          "name": "newAdminRole",
          "type": "bytes32"
        }
      ],
      "name": "RoleAdminChanged",
      "type": "event"
    },
    {
      "anonymous": false,
      "inputs": [
        {
          "indexed": true,
          "internalType": "bytes32",
          "name": "role",
          "type": "bytes32"
        },
        {
          "indexed": true,
          "internalType": "address",
          "name": "account",
          "type": "address"
        },
        {
          "indexed": true,
          "internalType": "address",
          "name": "sender",
          "type": "address"
        }
      ],
      "name": "RoleGranted",
      "type": "event"
    },
    {
      "anonymous": false,
      "inputs": [
        {
          "indexed": true,
          "internalType": "bytes32",
          "name": "role",
          "type": "bytes32"
        },
        {
          "indexed": true,
          "internalType": "address",
          "name": "account",
          "type": "address"
        },
        {
          "indexed": true,
          "internalType": "address",
          "name": "sender",
          "type": "address"
        }
      ],
      "name": "RoleRevoked",
      "type": "event"
    },
    {
      "inputs": [],
      "name": "DEFAULT_ADMIN_ROLE",
      "outputs": [
        {
          "internalType": "bytes32",
          "name": "",
          "type": "bytes32"
        }
      ],
      "stateMutability": "view",
      "type": "function"
    },
    {
      "inputs": [
        {
          "internalType": "bytes32",
          "name": "role",
          "type": "bytes32"
        }
      ],
      "name": "getRoleAdmin",
      "outputs": [
        {
          "internalType": "bytes32",
          "name": "",
          "type": "bytes32"
        }
      ],
      "stateMutability": "view",
      "type": "function"
    },
    {
      "inputs": [
        {
          "internalType": "bytes32",
          "name": "role",
          "type": "bytes32"
        },
        {
          "internalType": "address",
          "name": "account",
          "type": "address"
        }
      ],
      "name": "grantRole",
      "outputs": [],
      "stateMutability": "nonpayable",
      "type": "function"
    },
    {
      "inputs": [
        {
          "internalType": "bytes32",
          "name": "role",
          "type": "bytes32"
        },
        {
          "internalType": "address",
          "name": "account",
          "type": "address"
        }
      ],
      "name": "hasRole",
      "outputs": [
        {
          "internalType": "bool",
          "name": "",
          "type": "bool"
        }
      ],
      "stateMutability": "view",
      "type": "function"
    },
    {
      "inputs": [
        {
          "internalType": "bytes32",
          "name": "role",
          "type": "bytes32"
        },
        {
          "internalType": "address",
          "name": "account",
          "type": "address"
        }
      ],
      "name": "renounceRole",
      "outputs": [],
      "stateMutability": "nonpayable",
      "type": "function"
    },
    {
      "inputs": [
        {
          "internalType": "bytes32",
          "name": "role",
          "type": "bytes32"
        },
        {
          "internalType": "address",
          "name": "account",
          "type": "address"
        }
      ],
      "name": "revokeRole",
      "outputs": [],
      "stateMutability": "nonpayable",
      "type": "function"
    },
    {
      "inputs": [
        {
          "internalType": "bytes4",
          "name": "interfaceId",
          "type": "bytes4"
        }
      ],
      "name": "supportsInterface",
      "outputs": [
        {
          "internalType": "bool",
          "name": "",
          "type": "bool"
        }
      ],
      "stateMutability": "view",
      "type": "function"
    },
    {
      "inputs": [
        {
          "internalType": "string",
          "name": "name",
          "type": "string"
        },
        {
          "internalType": "string",
          "name": "_personalDetails",
          "type": "string"
        },
        {
          "internalType": "address",
          "name": "_walletAddress",
          "type": "address"
        }
      ],
      "name": "registerPharmacy",
      "outputs": [
        {
          "internalType": "string",
          "name": "status",
          "type": "string"
        }
      ],
      "stateMutability": "nonpayable",
      "type": "function"
    },
    {
      "inputs": [
        {
          "internalType": "address",
          "name": "_walletAddress",
          "type": "address"
        }
      ],
      "name": "getPharmacyData",
      "outputs": [
        {
          "internalType": "string",
          "name": "name",
          "type": "string"
        },
        {
          "internalType": "string",
          "name": "pharmacyDetails",
          "type": "string"
        },
        {
          "internalType": "address",
          "name": "walletAddress",
          "type": "address"
        }
      ],
      "stateMutability": "view",
      "type": "function"
    }
  ],
  "bytecode": "0x608060405234801561001057600080fd5b50610ddd806100206000396000f3fe608060405234801561001057600080fd5b50600436106100935760003560e01c806387ff221f1161006657806387ff221f1461010957806391d1485414610129578063a217fddf1461013c578063d547741f14610144578063e21eadcc1461015757610093565b806301ffc9a714610098578063248a9ca3146100c15780632f2ff15d146100e157806336568abe146100f6575b600080fd5b6100ab6100a63660046109cd565b610179565b6040516100b89190610ba8565b60405180910390f35b6100d46100cf36600461098a565b6101a6565b6040516100b89190610bb3565b6100f46100ef3660046109a2565b6101bb565b005b6100f46101043660046109a2565b6101e4565b61011c6101173660046109f5565b610233565b6040516100b89190610bbc565b6100ab6101373660046109a2565b610358565b6100d4610381565b6100f46101523660046109a2565b610386565b61016a610165366004610970565b6103a5565b6040516100b893929190610bcf565b60006001600160e01b03198216637965db0b60e01b148061019e575061019e826104f3565b90505b919050565b60009081526020819052604090206001015490565b6101c4826101a6565b6101d5816101d061050c565b610510565b6101df8383610574565b505050565b6101ec61050c565b6001600160a01b0316816001600160a01b0316146102255760405162461bcd60e51b815260040161021c90610c67565b60405180910390fd5b61022f82826105f9565b5050565b606061025f7f6d960d3aada907633a701143a0c8a0657b9ed1e77b6d2d8b56e5d8813982e10c8361067c565b6001600160a01b038216600090815260016020908152604090912085516102889287019061083f565b506001600160a01b03821660008181526001602081815260409092206002810180546001600160a01b03191690941790935585516102cc939091019186019061083f565b506001600160a01b03821660009081526001602081905260409182902091517f2fc29db602a5f7179d31b6051279d19e64007dc3eaff8031f3198e0faa1560589261031e929091908201908690610c0d565b60405180910390a15060408051808201909152601381527214121054935050d657d49151d254d511549151606a1b60208201529392505050565b6000918252602082815260408084206001600160a01b0393909316845291905290205460ff1690565b600081565b61038f826101a6565b61039b816101d061050c565b6101df83836105f9565b6001600160a01b038116600090815260016020819052604082208054606093849390929190820190869083906103da90610d40565b80601f016020809104026020016040519081016040528092919081815260200182805461040690610d40565b80156104535780601f1061042857610100808354040283529160200191610453565b820191906000526020600020905b81548152906001019060200180831161043657829003601f168201915b5050505050925081805461046690610d40565b80601f016020809104026020016040519081016040528092919081815260200182805461049290610d40565b80156104df5780601f106104b4576101008083540402835291602001916104df565b820191906000526020600020905b8154815290600101906020018083116104c257829003601f168201915b505050505091509250925092509193909250565b6001600160e01b031981166301ffc9a760e01b14919050565b3390565b61051a8282610358565b61022f57610532816001600160a01b03166014610686565b61053d836020610686565b60405160200161054e929190610b33565b60408051601f198184030181529082905262461bcd60e51b825261021c91600401610bbc565b61057e8282610358565b61022f576000828152602081815260408083206001600160a01b03851684529091529020805460ff191660011790556105b561050c565b6001600160a01b0316816001600160a01b0316837f2f8788117e7eff1d82e926ec794901d17c78024a50270940304540a733656f0d60405160405180910390a45050565b6106038282610358565b1561022f576000828152602081815260408083206001600160a01b03851684529091529020805460ff1916905561063861050c565b6001600160a01b0316816001600160a01b0316837ff6391f5c32d9c69d2a47ea670b442974b53935d1edc7fd64eb21e047a839171b60405160405180910390a45050565b61022f8282610574565b60606000610695836002610cda565b6106a0906002610cc2565b67ffffffffffffffff8111156106c657634e487b7160e01b600052604160045260246000fd5b6040519080825280601f01601f1916602001820160405280156106f0576020820181803683370190505b509050600360fc1b8160008151811061071957634e487b7160e01b600052603260045260246000fd5b60200101906001600160f81b031916908160001a905350600f60fb1b8160018151811061075657634e487b7160e01b600052603260045260246000fd5b60200101906001600160f81b031916908160001a905350600061077a846002610cda565b610785906001610cc2565b90505b6001811115610819576f181899199a1a9b1b9c1cb0b131b232b360811b85600f16601081106107c757634e487b7160e01b600052603260045260246000fd5b1a60f81b8282815181106107eb57634e487b7160e01b600052603260045260246000fd5b60200101906001600160f81b031916908160001a90535060049490941c9361081281610d29565b9050610788565b5083156108385760405162461bcd60e51b815260040161021c90610c32565b9392505050565b82805461084b90610d40565b90600052602060002090601f01602090048101928261086d57600085556108b3565b82601f1061088657805160ff19168380011785556108b3565b828001600101855582156108b3579182015b828111156108b3578251825591602001919060010190610898565b506108bf9291506108c3565b5090565b5b808211156108bf57600081556001016108c4565b80356001600160a01b03811681146101a157600080fd5b600082601f8301126108ff578081fd5b813567ffffffffffffffff8082111561091a5761091a610d91565b604051601f8301601f19168101602001828111828210171561093e5761093e610d91565b604052828152848301602001861015610955578384fd5b82602086016020830137918201602001929092529392505050565b600060208284031215610981578081fd5b610838826108d8565b60006020828403121561099b578081fd5b5035919050565b600080604083850312156109b4578081fd5b823591506109c4602084016108d8565b90509250929050565b6000602082840312156109de578081fd5b81356001600160e01b031981168114610838578182fd5b600080600060608486031215610a09578081fd5b833567ffffffffffffffff80821115610a20578283fd5b610a2c878388016108ef565b94506020860135915080821115610a41578283fd5b50610a4e868287016108ef565b925050610a5d604085016108d8565b90509250925092565b60008151808452610a7e816020860160208601610cf9565b601f01601f19169290920160200192915050565b805460009060028104600180831680610aac57607f831692505b6020808410821415610acc57634e487b7160e01b86526022600452602486fd5b610ad68489610bb3565b828015610aea5760018114610afb57610b26565b60ff19871682528282019750610b26565b610b0489610cb6565b60005b87811015610b2057815484820152908601908401610b07565b83019850505b5050505050505092915050565b60007f416363657373436f6e74726f6c3a206163636f756e742000000000000000000082528351610b6b816017850160208801610cf9565b7001034b99036b4b9b9b4b733903937b6329607d1b6017918401918201528351610b9c816028840160208801610cf9565b01602801949350505050565b901515815260200190565b90815260200190565b6000602082526108386020830184610a66565b600060608252610be26060830186610a66565b8281036020840152610bf48186610a66565b91505060018060a01b0383166040830152949350505050565b600060608252610c206060830186610a92565b8281036020840152610bf48186610a92565b6020808252818101527f537472696e67733a20686578206c656e67746820696e73756666696369656e74604082015260600190565b6020808252602f908201527f416363657373436f6e74726f6c3a2063616e206f6e6c792072656e6f756e636560408201526e103937b632b9903337b91039b2b63360891b606082015260800190565b60009081526020902090565b60008219821115610cd557610cd5610d7b565b500190565b6000816000190483118215151615610cf457610cf4610d7b565b500290565b60005b83811015610d14578181015183820152602001610cfc565b83811115610d23576000848401525b50505050565b600081610d3857610d38610d7b565b506000190190565b600281046001821680610d5457607f821691505b60208210811415610d7557634e487b7160e01b600052602260045260246000fd5b50919050565b634e487b7160e01b600052601160045260246000fd5b634e487b7160e01b600052604160045260246000fdfea2646970667358221220852344ebb222f1ba3be5e7b2ec28ead29ba1828ac0b38c5b3727ca54c1f9bac264736f6c63430008000033",
  "immutableReferences": {},
  "source": "pragma solidity ^0.8.0;\r\n\r\n//SPDX-License-Identifier: MIT\r\nimport \"./access/AccessControlEnumerable.sol\";\r\nimport \"./Roles.sol\";\r\n\r\ncontract Pharmacy is AccessControl {\r\n    struct pharmacyRecord {\r\n        string name;\r\n        string personalDetails;\r\n        address walletAddress;\r\n    }\r\n\r\n    event LogPharmacy(string name, string personalDetails, address owner);\r\n\r\n    //: Pharmacy DATABASE\r\n    mapping(address => pharmacyRecord) pharmacyDatabase;\r\n\r\n    function registerPharmacy(\r\n        string memory name,\r\n        string memory _personalDetails,\r\n        address _walletAddress\r\n    ) external returns (string memory status) {\r\n        _setupRole(PHARMACY, _walletAddress);\r\n        pharmacyDatabase[_walletAddress].name = name;\r\n        pharmacyDatabase[_walletAddress].walletAddress = _walletAddress;\r\n        pharmacyDatabase[_walletAddress].personalDetails = _personalDetails;\r\n\r\n        emit LogPharmacy(\r\n            pharmacyDatabase[_walletAddress].name,\r\n            pharmacyDatabase[_walletAddress].personalDetails,\r\n            _walletAddress\r\n        );\r\n\r\n        return \"PHARMACY_REGISTERED\";\r\n    }\r\n\r\n    function getPharmacyData(address _walletAddress)\r\n        public\r\n        view\r\n        returns (\r\n            string memory name,\r\n            string memory pharmacyDetails,\r\n            address walletAddress\r\n        )\r\n    {\r\n        return (\r\n            pharmacyDatabase[_walletAddress].name,\r\n            pharmacyDatabase[_walletAddress].personalDetails,\r\n            _walletAddress\r\n        );\r\n    }\r\n}\r\n",
  "sourcePath": "C:\\Users\\reube\\Documents\\blockchain_in_healthcare\\contracts\\Pharmacy.sol",
  "compiler": {
    "name": "solc",
    "version": "0.8.0+commit.c7dfd78e.Emscripten.clang"
  },
  "schemaVersion": "3.4.4",
  "updatedAt": "2022-01-06T13:36:21.917Z",
  "devdoc": {
    "kind": "dev",
    "methods": {
      "getRoleAdmin(bytes32)": {
        "details": "Returns the admin role that controls `role`. See {grantRole} and {revokeRole}. To change a role's admin, use {_setRoleAdmin}."
      },
      "grantRole(bytes32,address)": {
        "details": "Grants `role` to `account`. If `account` had not been already granted `role`, emits a {RoleGranted} event. Requirements: - the caller must have ``role``'s admin role."
      },
      "hasRole(bytes32,address)": {
        "details": "Returns `true` if `account` has been granted `role`."
      },
      "renounceRole(bytes32,address)": {
        "details": "Revokes `role` from the calling account. Roles are often managed via {grantRole} and {revokeRole}: this function's purpose is to provide a mechanism for accounts to lose their privileges if they are compromised (such as when a trusted device is misplaced). If the calling account had been granted `role`, emits a {RoleRevoked} event. Requirements: - the caller must be `account`."
      },
      "revokeRole(bytes32,address)": {
        "details": "Revokes `role` from `account`. If `account` had been granted `role`, emits a {RoleRevoked} event. Requirements: - the caller must have ``role``'s admin role."
      },
      "supportsInterface(bytes4)": {
        "details": "See {IERC165-supportsInterface}."
      }
    },
    "version": 1
  },
  "userdoc": {
    "kind": "user",
    "methods": {},
    "version": 1
  }
}